{
	"marriage_license.sol": {
		"MarriageLicense": {
			"abi": [
				{
					"inputs": [
						{
							"internalType": "address",
							"name": "spouse",
							"type": "address"
						},
						{
							"internalType": "bool",
							"name": "marriageStatus",
							"type": "bool"
						},
						{
							"internalType": "uint16",
							"name": "weddingDate",
							"type": "uint16"
						}
					],
					"stateMutability": "nonpayable",
					"type": "constructor"
				},
				{
					"inputs": [
						{
							"internalType": "address",
							"name": "sender",
							"type": "address"
						},
						{
							"internalType": "uint256",
							"name": "tokenId",
							"type": "uint256"
						},
						{
							"internalType": "address",
							"name": "owner",
							"type": "address"
						}
					],
					"name": "ERC721IncorrectOwner",
					"type": "error"
				},
				{
					"inputs": [
						{
							"internalType": "address",
							"name": "operator",
							"type": "address"
						},
						{
							"internalType": "uint256",
							"name": "tokenId",
							"type": "uint256"
						}
					],
					"name": "ERC721InsufficientApproval",
					"type": "error"
				},
				{
					"inputs": [
						{
							"internalType": "address",
							"name": "approver",
							"type": "address"
						}
					],
					"name": "ERC721InvalidApprover",
					"type": "error"
				},
				{
					"inputs": [
						{
							"internalType": "address",
							"name": "operator",
							"type": "address"
						}
					],
					"name": "ERC721InvalidOperator",
					"type": "error"
				},
				{
					"inputs": [
						{
							"internalType": "address",
							"name": "owner",
							"type": "address"
						}
					],
					"name": "ERC721InvalidOwner",
					"type": "error"
				},
				{
					"inputs": [
						{
							"internalType": "address",
							"name": "receiver",
							"type": "address"
						}
					],
					"name": "ERC721InvalidReceiver",
					"type": "error"
				},
				{
					"inputs": [
						{
							"internalType": "address",
							"name": "sender",
							"type": "address"
						}
					],
					"name": "ERC721InvalidSender",
					"type": "error"
				},
				{
					"inputs": [
						{
							"internalType": "uint256",
							"name": "tokenId",
							"type": "uint256"
						}
					],
					"name": "ERC721NonexistentToken",
					"type": "error"
				},
				{
					"anonymous": false,
					"inputs": [
						{
							"indexed": true,
							"internalType": "address",
							"name": "owner",
							"type": "address"
						},
						{
							"indexed": true,
							"internalType": "address",
							"name": "approved",
							"type": "address"
						},
						{
							"indexed": true,
							"internalType": "uint256",
							"name": "tokenId",
							"type": "uint256"
						}
					],
					"name": "Approval",
					"type": "event"
				},
				{
					"anonymous": false,
					"inputs": [
						{
							"indexed": true,
							"internalType": "address",
							"name": "owner",
							"type": "address"
						},
						{
							"indexed": true,
							"internalType": "address",
							"name": "operator",
							"type": "address"
						},
						{
							"indexed": false,
							"internalType": "bool",
							"name": "approved",
							"type": "bool"
						}
					],
					"name": "ApprovalForAll",
					"type": "event"
				},
				{
					"anonymous": false,
					"inputs": [
						{
							"indexed": true,
							"internalType": "address",
							"name": "spouse1",
							"type": "address"
						},
						{
							"indexed": true,
							"internalType": "address",
							"name": "spouse2",
							"type": "address"
						}
					],
					"name": "Divorce",
					"type": "event"
				},
				{
					"anonymous": false,
					"inputs": [
						{
							"indexed": true,
							"internalType": "address",
							"name": "from",
							"type": "address"
						},
						{
							"indexed": true,
							"internalType": "address",
							"name": "to",
							"type": "address"
						},
						{
							"indexed": true,
							"internalType": "uint256",
							"name": "tokenId",
							"type": "uint256"
						}
					],
					"name": "Transfer",
					"type": "event"
				},
				{
					"inputs": [
						{
							"internalType": "address",
							"name": "to",
							"type": "address"
						},
						{
							"internalType": "uint256",
							"name": "tokenId",
							"type": "uint256"
						}
					],
					"name": "approve",
					"outputs": [],
					"stateMutability": "nonpayable",
					"type": "function"
				},
				{
					"inputs": [
						{
							"internalType": "address",
							"name": "authorizeAddress",
							"type": "address"
						}
					],
					"name": "authorizeAccounts",
					"outputs": [],
					"stateMutability": "nonpayable",
					"type": "function"
				},
				{
					"inputs": [
						{
							"internalType": "address",
							"name": "owner",
							"type": "address"
						}
					],
					"name": "balanceOf",
					"outputs": [
						{
							"internalType": "uint256",
							"name": "",
							"type": "uint256"
						}
					],
					"stateMutability": "view",
					"type": "function"
				},
				{
					"inputs": [],
					"name": "createWeddingCertificate",
					"outputs": [],
					"stateMutability": "nonpayable",
					"type": "function"
				},
				{
					"inputs": [
						{
							"internalType": "uint256",
							"name": "tokenId",
							"type": "uint256"
						}
					],
					"name": "divorce",
					"outputs": [],
					"stateMutability": "nonpayable",
					"type": "function"
				},
				{
					"inputs": [
						{
							"internalType": "uint256",
							"name": "tokenId",
							"type": "uint256"
						}
					],
					"name": "getApproved",
					"outputs": [
						{
							"internalType": "address",
							"name": "",
							"type": "address"
						}
					],
					"stateMutability": "view",
					"type": "function"
				},
				{
					"inputs": [
						{
							"internalType": "address",
							"name": "owner",
							"type": "address"
						},
						{
							"internalType": "address",
							"name": "operator",
							"type": "address"
						}
					],
					"name": "isApprovedForAll",
					"outputs": [
						{
							"internalType": "bool",
							"name": "",
							"type": "bool"
						}
					],
					"stateMutability": "view",
					"type": "function"
				},
				{
					"inputs": [],
					"name": "isMarried",
					"outputs": [
						{
							"internalType": "bool",
							"name": "",
							"type": "bool"
						}
					],
					"stateMutability": "view",
					"type": "function"
				},
				{
					"inputs": [],
					"name": "name",
					"outputs": [
						{
							"internalType": "string",
							"name": "",
							"type": "string"
						}
					],
					"stateMutability": "view",
					"type": "function"
				},
				{
					"inputs": [
						{
							"internalType": "uint256",
							"name": "tokenId",
							"type": "uint256"
						}
					],
					"name": "ownerOf",
					"outputs": [
						{
							"internalType": "address",
							"name": "",
							"type": "address"
						}
					],
					"stateMutability": "view",
					"type": "function"
				},
				{
					"inputs": [
						{
							"internalType": "address",
							"name": "from",
							"type": "address"
						},
						{
							"internalType": "address",
							"name": "to",
							"type": "address"
						},
						{
							"internalType": "uint256",
							"name": "tokenId",
							"type": "uint256"
						}
					],
					"name": "safeTransferFrom",
					"outputs": [],
					"stateMutability": "nonpayable",
					"type": "function"
				},
				{
					"inputs": [
						{
							"internalType": "address",
							"name": "from",
							"type": "address"
						},
						{
							"internalType": "address",
							"name": "to",
							"type": "address"
						},
						{
							"internalType": "uint256",
							"name": "tokenId",
							"type": "uint256"
						},
						{
							"internalType": "bytes",
							"name": "data",
							"type": "bytes"
						}
					],
					"name": "safeTransferFrom",
					"outputs": [],
					"stateMutability": "nonpayable",
					"type": "function"
				},
				{
					"inputs": [
						{
							"internalType": "address",
							"name": "operator",
							"type": "address"
						},
						{
							"internalType": "bool",
							"name": "approved",
							"type": "bool"
						}
					],
					"name": "setApprovalForAll",
					"outputs": [],
					"stateMutability": "nonpayable",
					"type": "function"
				},
				{
					"inputs": [
						{
							"internalType": "bytes4",
							"name": "interfaceId",
							"type": "bytes4"
						}
					],
					"name": "supportsInterface",
					"outputs": [
						{
							"internalType": "bool",
							"name": "",
							"type": "bool"
						}
					],
					"stateMutability": "view",
					"type": "function"
				},
				{
					"inputs": [],
					"name": "symbol",
					"outputs": [
						{
							"internalType": "string",
							"name": "",
							"type": "string"
						}
					],
					"stateMutability": "view",
					"type": "function"
				},
				{
					"inputs": [
						{
							"internalType": "uint256",
							"name": "tokenId",
							"type": "uint256"
						}
					],
					"name": "tokenURI",
					"outputs": [
						{
							"internalType": "string",
							"name": "",
							"type": "string"
						}
					],
					"stateMutability": "view",
					"type": "function"
				},
				{
					"inputs": [
						{
							"internalType": "address",
							"name": "from",
							"type": "address"
						},
						{
							"internalType": "address",
							"name": "to",
							"type": "address"
						},
						{
							"internalType": "uint256",
							"name": "tokenId",
							"type": "uint256"
						}
					],
					"name": "transferFrom",
					"outputs": [],
					"stateMutability": "nonpayable",
					"type": "function"
				},
				{
					"inputs": [],
					"name": "weddingDay",
					"outputs": [
						{
							"internalType": "uint16",
							"name": "",
							"type": "uint16"
						}
					],
					"stateMutability": "view",
					"type": "function"
				}
			],
			"devdoc": {
				"errors": {
					"ERC721IncorrectOwner(address,uint256,address)": [
						{
							"details": "Indicates an error related to the ownership over a particular token. Used in transfers.",
							"params": {
								"owner": "Address of the current owner of a token.",
								"sender": "Address whose tokens are being transferred.",
								"tokenId": "Identifier number of a token."
							}
						}
					],
					"ERC721InsufficientApproval(address,uint256)": [
						{
							"details": "Indicates a failure with the `operator`’s approval. Used in transfers.",
							"params": {
								"operator": "Address that may be allowed to operate on tokens without being their owner.",
								"tokenId": "Identifier number of a token."
							}
						}
					],
					"ERC721InvalidApprover(address)": [
						{
							"details": "Indicates a failure with the `approver` of a token to be approved. Used in approvals.",
							"params": {
								"approver": "Address initiating an approval operation."
							}
						}
					],
					"ERC721InvalidOperator(address)": [
						{
							"details": "Indicates a failure with the `operator` to be approved. Used in approvals.",
							"params": {
								"operator": "Address that may be allowed to operate on tokens without being their owner."
							}
						}
					],
					"ERC721InvalidOwner(address)": [
						{
							"details": "Indicates that an address can't be an owner. For example, `address(0)` is a forbidden owner in EIP-20. Used in balance queries.",
							"params": {
								"owner": "Address of the current owner of a token."
							}
						}
					],
					"ERC721InvalidReceiver(address)": [
						{
							"details": "Indicates a failure with the token `receiver`. Used in transfers.",
							"params": {
								"receiver": "Address to which tokens are being transferred."
							}
						}
					],
					"ERC721InvalidSender(address)": [
						{
							"details": "Indicates a failure with the token `sender`. Used in transfers.",
							"params": {
								"sender": "Address whose tokens are being transferred."
							}
						}
					],
					"ERC721NonexistentToken(uint256)": [
						{
							"details": "Indicates a `tokenId` whose `owner` is the zero address.",
							"params": {
								"tokenId": "Identifier number of a token."
							}
						}
					]
				},
				"events": {
					"Approval(address,address,uint256)": {
						"details": "Emitted when `owner` enables `approved` to manage the `tokenId` token."
					},
					"ApprovalForAll(address,address,bool)": {
						"details": "Emitted when `owner` enables or disables (`approved`) `operator` to manage all of its assets."
					},
					"Transfer(address,address,uint256)": {
						"details": "Emitted when `tokenId` token is transferred from `from` to `to`."
					}
				},
				"kind": "dev",
				"methods": {
					"approve(address,uint256)": {
						"details": "See {IERC721-approve}."
					},
					"balanceOf(address)": {
						"details": "See {IERC721-balanceOf}."
					},
					"getApproved(uint256)": {
						"details": "See {IERC721-getApproved}."
					},
					"isApprovedForAll(address,address)": {
						"details": "See {IERC721-isApprovedForAll}."
					},
					"name()": {
						"details": "See {IERC721Metadata-name}."
					},
					"ownerOf(uint256)": {
						"details": "See {IERC721-ownerOf}."
					},
					"safeTransferFrom(address,address,uint256)": {
						"details": "See {IERC721-safeTransferFrom}."
					},
					"safeTransferFrom(address,address,uint256,bytes)": {
						"details": "See {IERC721-safeTransferFrom}."
					},
					"setApprovalForAll(address,bool)": {
						"details": "See {IERC721-setApprovalForAll}."
					},
					"supportsInterface(bytes4)": {
						"details": "See {IERC165-supportsInterface}."
					},
					"symbol()": {
						"details": "See {IERC721Metadata-symbol}."
					},
					"tokenURI(uint256)": {
						"details": "See {IERC721Metadata-tokenURI}."
					},
					"transferFrom(address,address,uint256)": {
						"details": "See {IERC721-transferFrom}."
					}
				},
				"version": 1
			},
			"evm": {
				"assembly": "    /* \"marriage_license.sol\":177:5240  contract MarriageLicense is ERC721 {... */\n  mstore(0x40, 0x80)\n    /* \"marriage_license.sol\":1244:1248  this */\n  address\n    /* \"marriage_license.sol\":1214:1249  IERC721 nftContract = IERC721(this) */\n  0x0c\n  exp(0x0100, 0x00)\n  dup2\n  sload\n  dup2\n  0xffffffffffffffffffffffffffffffffffffffff\n  mul\n  not\n  and\n  swap1\n  dup4\n  0xffffffffffffffffffffffffffffffffffffffff\n  and\n  mul\n  or\n  swap1\n  sstore\n  pop\n    /* \"marriage_license.sol\":778:1206  constructor(address spouse, ... */\n  callvalue\n  dup1\n  iszero\n  tag_1\n  jumpi\n  0x00\n  dup1\n  revert\ntag_1:\n  pop\n  mload(0x40)\n  sub(codesize, bytecodeSize)\n  dup1\n  bytecodeSize\n  dup4\n  codecopy\n  dup2\n  dup2\n  add\n  0x40\n  mstore\n  dup2\n  add\n  swap1\n  tag_2\n  swap2\n  swap1\n  tag_3\n  jump\t// in\ntag_2:\n    /* \"@openzeppelin/contracts/token/ERC721/ERC721.sol\":1381:1494  constructor(string memory name_, string memory symbol_) {... */\n  mload(0x40)\n  dup1\n  0x40\n  add\n  0x40\n  mstore\n  dup1\n  0x07\n  dup2\n  mstore\n  0x20\n  add\n  0x57656464696e6700000000000000000000000000000000000000000000000000\n  dup2\n  mstore\n  pop\n  mload(0x40)\n  dup1\n  0x40\n  add\n  0x40\n  mstore\n  dup1\n  0x03\n  dup2\n  mstore\n  0x20\n  add\n  0x7765640000000000000000000000000000000000000000000000000000000000\n  dup2\n  mstore\n  pop\n    /* \"@openzeppelin/contracts/token/ERC721/ERC721.sol\":1455:1460  name_ */\n  dup2\n    /* \"@openzeppelin/contracts/token/ERC721/ERC721.sol\":1447:1452  _name */\n  0x00\n    /* \"@openzeppelin/contracts/token/ERC721/ERC721.sol\":1447:1460  _name = name_ */\n  swap1\n  dup2\n  tag_7\n  swap2\n  swap1\n  tag_8\n  jump\t// in\ntag_7:\n  pop\n    /* \"@openzeppelin/contracts/token/ERC721/ERC721.sol\":1480:1487  symbol_ */\n  dup1\n    /* \"@openzeppelin/contracts/token/ERC721/ERC721.sol\":1470:1477  _symbol */\n  0x01\n    /* \"@openzeppelin/contracts/token/ERC721/ERC721.sol\":1470:1487  _symbol = symbol_ */\n  swap1\n  dup2\n  tag_9\n  swap2\n  swap1\n  tag_8\n  jump\t// in\ntag_9:\n  pop\n    /* \"@openzeppelin/contracts/token/ERC721/ERC721.sol\":1381:1494  constructor(string memory name_, string memory symbol_) {... */\n  pop\n  pop\n    /* \"marriage_license.sol\":947:957  msg.sender */\n  caller\n    /* \"marriage_license.sol\":937:944  spouse1 */\n  0x06\n  0x08\n    /* \"marriage_license.sol\":937:957  spouse1 = msg.sender */\n  0x0100\n  exp\n  dup2\n  sload\n  dup2\n  0xffffffffffffffffffffffffffffffffffffffff\n  mul\n  not\n  and\n  swap1\n  dup4\n  0xffffffffffffffffffffffffffffffffffffffff\n  and\n  mul\n  or\n  swap1\n  sstore\n  pop\n    /* \"marriage_license.sol\":978:984  spouse */\n  dup3\n    /* \"marriage_license.sol\":968:975  spouse2 */\n  0x07\n  0x00\n    /* \"marriage_license.sol\":968:984  spouse2 = spouse */\n  0x0100\n  exp\n  dup2\n  sload\n  dup2\n  0xffffffffffffffffffffffffffffffffffffffff\n  mul\n  not\n  and\n  swap1\n  dup4\n  0xffffffffffffffffffffffffffffffffffffffff\n  and\n  mul\n  or\n  swap1\n  sstore\n  pop\n    /* \"marriage_license.sol\":1008:1019  weddingDate */\n  dup1\n    /* \"marriage_license.sol\":995:1005  weddingDay */\n  0x07\n  0x15\n    /* \"marriage_license.sol\":995:1019  weddingDay = weddingDate */\n  0x0100\n  exp\n  dup2\n  sload\n  dup2\n  0xffff\n  mul\n  not\n  and\n  swap1\n  dup4\n  0xffff\n  and\n  mul\n  or\n  swap1\n  sstore\n  pop\n    /* \"marriage_license.sol\":1042:1056  marriageStatus */\n  dup2\n    /* \"marriage_license.sol\":1030:1039  isMarried */\n  0x07\n  0x14\n    /* \"marriage_license.sol\":1030:1056  isMarried = marriageStatus */\n  0x0100\n  exp\n  dup2\n  sload\n  dup2\n  0xff\n  mul\n  not\n  and\n  swap1\n  dup4\n  iszero\n  iszero\n  mul\n  or\n  swap1\n  sstore\n  pop\n    /* \"marriage_license.sol\":1085:1086  0 */\n  0x00\n    /* \"marriage_license.sol\":1069:1082  spouseCounter */\n  0x07\n  0x17\n    /* \"marriage_license.sol\":1069:1086  spouseCounter = 0 */\n  0x0100\n  exp\n  dup2\n  sload\n  dup2\n  0xff\n  mul\n  not\n  and\n  swap1\n  dup4\n  0xff\n  and\n  mul\n  or\n  swap1\n  sstore\n  pop\n    /* \"marriage_license.sol\":1117:1118  0 */\n  0x00\n    /* \"marriage_license.sol\":1097:1114  authorizedCounter */\n  0x07\n  0x18\n    /* \"marriage_license.sol\":1097:1118  authorizedCounter = 0 */\n  0x0100\n  exp\n  dup2\n  sload\n  dup2\n  0xff\n  mul\n  not\n  and\n  swap1\n  dup4\n  0xff\n  and\n  mul\n  or\n  swap1\n  sstore\n  pop\n    /* \"marriage_license.sol\":1153:1154  0 */\n  0x00\n    /* \"marriage_license.sol\":1130:1150  verifyAddressesToken */\n  0x09\n  0x00\n    /* \"marriage_license.sol\":1130:1154  verifyAddressesToken = 0 */\n  0x0100\n  exp\n  dup2\n  sload\n  dup2\n  0xffffffff\n  mul\n  not\n  and\n  swap1\n  dup4\n  0xffffffff\n  and\n  mul\n  or\n  swap1\n  sstore\n  pop\n    /* \"marriage_license.sol\":1174:1176  50 */\n  0x32\n    /* \"marriage_license.sol\":1165:1171  token1 */\n  0x06\n  0x00\n    /* \"marriage_license.sol\":1165:1176  token1 = 50 */\n  0x0100\n  exp\n  dup2\n  sload\n  dup2\n  0xffffffff\n  mul\n  not\n  and\n  swap1\n  dup4\n  0xffffffff\n  and\n  mul\n  or\n  swap1\n  sstore\n  pop\n    /* \"marriage_license.sol\":1196:1198  51 */\n  0x33\n    /* \"marriage_license.sol\":1187:1193  token2 */\n  0x06\n  0x04\n    /* \"marriage_license.sol\":1187:1198  token2 = 51 */\n  0x0100\n  exp\n  dup2\n  sload\n  dup2\n  0xffffffff\n  mul\n  not\n  and\n  swap1\n  dup4\n  0xffffffff\n  and\n  mul\n  or\n  swap1\n  sstore\n  pop\n    /* \"marriage_license.sol\":778:1206  constructor(address spouse, ... */\n  pop\n  pop\n  pop\n    /* \"marriage_license.sol\":177:5240  contract MarriageLicense is ERC721 {... */\n  jump(tag_11)\n    /* \"#utility.yul\":88:205   */\ntag_13:\n    /* \"#utility.yul\":197:198   */\n  0x00\n    /* \"#utility.yul\":194:195   */\n  dup1\n    /* \"#utility.yul\":187:199   */\n  revert\n    /* \"#utility.yul\":334:460   */\ntag_15:\n    /* \"#utility.yul\":371:378   */\n  0x00\n    /* \"#utility.yul\":411:453   */\n  0xffffffffffffffffffffffffffffffffffffffff\n    /* \"#utility.yul\":404:409   */\n  dup3\n    /* \"#utility.yul\":400:454   */\n  and\n    /* \"#utility.yul\":389:454   */\n  swap1\n  pop\n    /* \"#utility.yul\":334:460   */\n  swap2\n  swap1\n  pop\n  jump\t// out\n    /* \"#utility.yul\":466:562   */\ntag_16:\n    /* \"#utility.yul\":503:510   */\n  0x00\n    /* \"#utility.yul\":532:556   */\n  tag_51\n    /* \"#utility.yul\":550:555   */\n  dup3\n    /* \"#utility.yul\":532:556   */\n  tag_15\n  jump\t// in\ntag_51:\n    /* \"#utility.yul\":521:556   */\n  swap1\n  pop\n    /* \"#utility.yul\":466:562   */\n  swap2\n  swap1\n  pop\n  jump\t// out\n    /* \"#utility.yul\":568:690   */\ntag_17:\n    /* \"#utility.yul\":641:665   */\n  tag_53\n    /* \"#utility.yul\":659:664   */\n  dup2\n    /* \"#utility.yul\":641:665   */\n  tag_16\n  jump\t// in\ntag_53:\n    /* \"#utility.yul\":634:639   */\n  dup2\n    /* \"#utility.yul\":631:666   */\n  eq\n    /* \"#utility.yul\":621:684   */\n  tag_54\n  jumpi\n    /* \"#utility.yul\":680:681   */\n  0x00\n    /* \"#utility.yul\":677:678   */\n  dup1\n    /* \"#utility.yul\":670:682   */\n  revert\n    /* \"#utility.yul\":621:684   */\ntag_54:\n    /* \"#utility.yul\":568:690   */\n  pop\n  jump\t// out\n    /* \"#utility.yul\":696:839   */\ntag_18:\n    /* \"#utility.yul\":753:758   */\n  0x00\n    /* \"#utility.yul\":784:790   */\n  dup2\n    /* \"#utility.yul\":778:791   */\n  mload\n    /* \"#utility.yul\":769:791   */\n  swap1\n  pop\n    /* \"#utility.yul\":800:833   */\n  tag_56\n    /* \"#utility.yul\":827:832   */\n  dup2\n    /* \"#utility.yul\":800:833   */\n  tag_17\n  jump\t// in\ntag_56:\n    /* \"#utility.yul\":696:839   */\n  swap3\n  swap2\n  pop\n  pop\n  jump\t// out\n    /* \"#utility.yul\":845:935   */\ntag_19:\n    /* \"#utility.yul\":879:886   */\n  0x00\n    /* \"#utility.yul\":922:927   */\n  dup2\n    /* \"#utility.yul\":915:928   */\n  iszero\n    /* \"#utility.yul\":908:929   */\n  iszero\n    /* \"#utility.yul\":897:929   */\n  swap1\n  pop\n    /* \"#utility.yul\":845:935   */\n  swap2\n  swap1\n  pop\n  jump\t// out\n    /* \"#utility.yul\":941:1057   */\ntag_20:\n    /* \"#utility.yul\":1011:1032   */\n  tag_59\n    /* \"#utility.yul\":1026:1031   */\n  dup2\n    /* \"#utility.yul\":1011:1032   */\n  tag_19\n  jump\t// in\ntag_59:\n    /* \"#utility.yul\":1004:1009   */\n  dup2\n    /* \"#utility.yul\":1001:1033   */\n  eq\n    /* \"#utility.yul\":991:1051   */\n  tag_60\n  jumpi\n    /* \"#utility.yul\":1047:1048   */\n  0x00\n    /* \"#utility.yul\":1044:1045   */\n  dup1\n    /* \"#utility.yul\":1037:1049   */\n  revert\n    /* \"#utility.yul\":991:1051   */\ntag_60:\n    /* \"#utility.yul\":941:1057   */\n  pop\n  jump\t// out\n    /* \"#utility.yul\":1063:1200   */\ntag_21:\n    /* \"#utility.yul\":1117:1122   */\n  0x00\n    /* \"#utility.yul\":1148:1154   */\n  dup2\n    /* \"#utility.yul\":1142:1155   */\n  mload\n    /* \"#utility.yul\":1133:1155   */\n  swap1\n  pop\n    /* \"#utility.yul\":1164:1194   */\n  tag_62\n    /* \"#utility.yul\":1188:1193   */\n  dup2\n    /* \"#utility.yul\":1164:1194   */\n  tag_20\n  jump\t// in\ntag_62:\n    /* \"#utility.yul\":1063:1200   */\n  swap3\n  swap2\n  pop\n  pop\n  jump\t// out\n    /* \"#utility.yul\":1206:1295   */\ntag_22:\n    /* \"#utility.yul\":1242:1249   */\n  0x00\n    /* \"#utility.yul\":1282:1288   */\n  0xffff\n    /* \"#utility.yul\":1275:1280   */\n  dup3\n    /* \"#utility.yul\":1271:1289   */\n  and\n    /* \"#utility.yul\":1260:1289   */\n  swap1\n  pop\n    /* \"#utility.yul\":1206:1295   */\n  swap2\n  swap1\n  pop\n  jump\t// out\n    /* \"#utility.yul\":1301:1421   */\ntag_23:\n    /* \"#utility.yul\":1373:1396   */\n  tag_65\n    /* \"#utility.yul\":1390:1395   */\n  dup2\n    /* \"#utility.yul\":1373:1396   */\n  tag_22\n  jump\t// in\ntag_65:\n    /* \"#utility.yul\":1366:1371   */\n  dup2\n    /* \"#utility.yul\":1363:1397   */\n  eq\n    /* \"#utility.yul\":1353:1415   */\n  tag_66\n  jumpi\n    /* \"#utility.yul\":1411:1412   */\n  0x00\n    /* \"#utility.yul\":1408:1409   */\n  dup1\n    /* \"#utility.yul\":1401:1413   */\n  revert\n    /* \"#utility.yul\":1353:1415   */\ntag_66:\n    /* \"#utility.yul\":1301:1421   */\n  pop\n  jump\t// out\n    /* \"#utility.yul\":1427:1568   */\ntag_24:\n    /* \"#utility.yul\":1483:1488   */\n  0x00\n    /* \"#utility.yul\":1514:1520   */\n  dup2\n    /* \"#utility.yul\":1508:1521   */\n  mload\n    /* \"#utility.yul\":1499:1521   */\n  swap1\n  pop\n    /* \"#utility.yul\":1530:1562   */\n  tag_68\n    /* \"#utility.yul\":1556:1561   */\n  dup2\n    /* \"#utility.yul\":1530:1562   */\n  tag_23\n  jump\t// in\ntag_68:\n    /* \"#utility.yul\":1427:1568   */\n  swap3\n  swap2\n  pop\n  pop\n  jump\t// out\n    /* \"#utility.yul\":1574:2229   */\ntag_3:\n    /* \"#utility.yul\":1658:1664   */\n  0x00\n    /* \"#utility.yul\":1666:1672   */\n  dup1\n    /* \"#utility.yul\":1674:1680   */\n  0x00\n    /* \"#utility.yul\":1723:1725   */\n  0x60\n    /* \"#utility.yul\":1711:1720   */\n  dup5\n    /* \"#utility.yul\":1702:1709   */\n  dup7\n    /* \"#utility.yul\":1698:1721   */\n  sub\n    /* \"#utility.yul\":1694:1726   */\n  slt\n    /* \"#utility.yul\":1691:1810   */\n  iszero\n  tag_70\n  jumpi\n    /* \"#utility.yul\":1729:1808   */\n  tag_71\n  tag_13\n  jump\t// in\ntag_71:\n    /* \"#utility.yul\":1691:1810   */\ntag_70:\n    /* \"#utility.yul\":1849:1850   */\n  0x00\n    /* \"#utility.yul\":1874:1938   */\n  tag_72\n    /* \"#utility.yul\":1930:1937   */\n  dup7\n    /* \"#utility.yul\":1921:1927   */\n  dup3\n    /* \"#utility.yul\":1910:1919   */\n  dup8\n    /* \"#utility.yul\":1906:1928   */\n  add\n    /* \"#utility.yul\":1874:1938   */\n  tag_18\n  jump\t// in\ntag_72:\n    /* \"#utility.yul\":1864:1938   */\n  swap4\n  pop\n    /* \"#utility.yul\":1820:1948   */\n  pop\n    /* \"#utility.yul\":1987:1989   */\n  0x20\n    /* \"#utility.yul\":2013:2074   */\n  tag_73\n    /* \"#utility.yul\":2066:2073   */\n  dup7\n    /* \"#utility.yul\":2057:2063   */\n  dup3\n    /* \"#utility.yul\":2046:2055   */\n  dup8\n    /* \"#utility.yul\":2042:2064   */\n  add\n    /* \"#utility.yul\":2013:2074   */\n  tag_21\n  jump\t// in\ntag_73:\n    /* \"#utility.yul\":2003:2074   */\n  swap3\n  pop\n    /* \"#utility.yul\":1958:2084   */\n  pop\n    /* \"#utility.yul\":2123:2125   */\n  0x40\n    /* \"#utility.yul\":2149:2212   */\n  tag_74\n    /* \"#utility.yul\":2204:2211   */\n  dup7\n    /* \"#utility.yul\":2195:2201   */\n  dup3\n    /* \"#utility.yul\":2184:2193   */\n  dup8\n    /* \"#utility.yul\":2180:2202   */\n  add\n    /* \"#utility.yul\":2149:2212   */\n  tag_24\n  jump\t// in\ntag_74:\n    /* \"#utility.yul\":2139:2212   */\n  swap2\n  pop\n    /* \"#utility.yul\":2094:2222   */\n  pop\n    /* \"#utility.yul\":1574:2229   */\n  swap3\n  pop\n  swap3\n  pop\n  swap3\n  jump\t// out\n    /* \"#utility.yul\":2235:2334   */\ntag_25:\n    /* \"#utility.yul\":2287:2293   */\n  0x00\n    /* \"#utility.yul\":2321:2326   */\n  dup2\n    /* \"#utility.yul\":2315:2327   */\n  mload\n    /* \"#utility.yul\":2305:2327   */\n  swap1\n  pop\n    /* \"#utility.yul\":2235:2334   */\n  swap2\n  swap1\n  pop\n  jump\t// out\n    /* \"#utility.yul\":2340:2520   */\ntag_26:\n    /* \"#utility.yul\":2388:2465   */\n  0x4e487b7100000000000000000000000000000000000000000000000000000000\n    /* \"#utility.yul\":2385:2386   */\n  0x00\n    /* \"#utility.yul\":2378:2466   */\n  mstore\n    /* \"#utility.yul\":2485:2489   */\n  0x41\n    /* \"#utility.yul\":2482:2483   */\n  0x04\n    /* \"#utility.yul\":2475:2490   */\n  mstore\n    /* \"#utility.yul\":2509:2513   */\n  0x24\n    /* \"#utility.yul\":2506:2507   */\n  0x00\n    /* \"#utility.yul\":2499:2514   */\n  revert\n    /* \"#utility.yul\":2526:2706   */\ntag_27:\n    /* \"#utility.yul\":2574:2651   */\n  0x4e487b7100000000000000000000000000000000000000000000000000000000\n    /* \"#utility.yul\":2571:2572   */\n  0x00\n    /* \"#utility.yul\":2564:2652   */\n  mstore\n    /* \"#utility.yul\":2671:2675   */\n  0x22\n    /* \"#utility.yul\":2668:2669   */\n  0x04\n    /* \"#utility.yul\":2661:2676   */\n  mstore\n    /* \"#utility.yul\":2695:2699   */\n  0x24\n    /* \"#utility.yul\":2692:2693   */\n  0x00\n    /* \"#utility.yul\":2685:2700   */\n  revert\n    /* \"#utility.yul\":2712:3032   */\ntag_28:\n    /* \"#utility.yul\":2756:2762   */\n  0x00\n    /* \"#utility.yul\":2793:2794   */\n  0x02\n    /* \"#utility.yul\":2787:2791   */\n  dup3\n    /* \"#utility.yul\":2783:2795   */\n  div\n    /* \"#utility.yul\":2773:2795   */\n  swap1\n  pop\n    /* \"#utility.yul\":2840:2841   */\n  0x01\n    /* \"#utility.yul\":2834:2838   */\n  dup3\n    /* \"#utility.yul\":2830:2842   */\n  and\n    /* \"#utility.yul\":2861:2879   */\n  dup1\n    /* \"#utility.yul\":2851:2932   */\n  tag_79\n  jumpi\n    /* \"#utility.yul\":2917:2921   */\n  0x7f\n    /* \"#utility.yul\":2909:2915   */\n  dup3\n    /* \"#utility.yul\":2905:2922   */\n  and\n    /* \"#utility.yul\":2895:2922   */\n  swap2\n  pop\n    /* \"#utility.yul\":2851:2932   */\ntag_79:\n    /* \"#utility.yul\":2979:2981   */\n  0x20\n    /* \"#utility.yul\":2971:2977   */\n  dup3\n    /* \"#utility.yul\":2968:2982   */\n  lt\n    /* \"#utility.yul\":2948:2966   */\n  dup2\n    /* \"#utility.yul\":2945:2983   */\n  sub\n    /* \"#utility.yul\":2942:3026   */\n  tag_80\n  jumpi\n    /* \"#utility.yul\":2998:3016   */\n  tag_81\n  tag_27\n  jump\t// in\ntag_81:\n    /* \"#utility.yul\":2942:3026   */\ntag_80:\n    /* \"#utility.yul\":2763:3032   */\n  pop\n    /* \"#utility.yul\":2712:3032   */\n  swap2\n  swap1\n  pop\n  jump\t// out\n    /* \"#utility.yul\":3038:3179   */\ntag_29:\n    /* \"#utility.yul\":3087:3091   */\n  0x00\n    /* \"#utility.yul\":3110:3113   */\n  dup2\n    /* \"#utility.yul\":3102:3113   */\n  swap1\n  pop\n    /* \"#utility.yul\":3133:3136   */\n  dup2\n    /* \"#utility.yul\":3130:3131   */\n  0x00\n    /* \"#utility.yul\":3123:3137   */\n  mstore\n    /* \"#utility.yul\":3167:3171   */\n  0x20\n    /* \"#utility.yul\":3164:3165   */\n  0x00\n    /* \"#utility.yul\":3154:3172   */\n  keccak256\n    /* \"#utility.yul\":3146:3172   */\n  swap1\n  pop\n    /* \"#utility.yul\":3038:3179   */\n  swap2\n  swap1\n  pop\n  jump\t// out\n    /* \"#utility.yul\":3185:3278   */\ntag_30:\n    /* \"#utility.yul\":3222:3228   */\n  0x00\n    /* \"#utility.yul\":3269:3271   */\n  0x20\n    /* \"#utility.yul\":3264:3266   */\n  0x1f\n    /* \"#utility.yul\":3257:3262   */\n  dup4\n    /* \"#utility.yul\":3253:3267   */\n  add\n    /* \"#utility.yul\":3249:3272   */\n  div\n    /* \"#utility.yul\":3239:3272   */\n  swap1\n  pop\n    /* \"#utility.yul\":3185:3278   */\n  swap2\n  swap1\n  pop\n  jump\t// out\n    /* \"#utility.yul\":3284:3391   */\ntag_31:\n    /* \"#utility.yul\":3328:3336   */\n  0x00\n    /* \"#utility.yul\":3378:3383   */\n  dup3\n    /* \"#utility.yul\":3372:3376   */\n  dup3\n    /* \"#utility.yul\":3368:3384   */\n  shl\n    /* \"#utility.yul\":3347:3384   */\n  swap1\n  pop\n    /* \"#utility.yul\":3284:3391   */\n  swap3\n  swap2\n  pop\n  pop\n  jump\t// out\n    /* \"#utility.yul\":3397:3790   */\ntag_32:\n    /* \"#utility.yul\":3466:3472   */\n  0x00\n    /* \"#utility.yul\":3516:3517   */\n  0x08\n    /* \"#utility.yul\":3504:3514   */\n  dup4\n    /* \"#utility.yul\":3500:3518   */\n  mul\n    /* \"#utility.yul\":3539:3636   */\n  tag_86\n    /* \"#utility.yul\":3569:3635   */\n  0xffffffffffffffffffffffffffffffffffffffffffffffffffffffffffffffff\n    /* \"#utility.yul\":3558:3567   */\n  dup3\n    /* \"#utility.yul\":3539:3636   */\n  tag_31\n  jump\t// in\ntag_86:\n    /* \"#utility.yul\":3657:3696   */\n  tag_87\n    /* \"#utility.yul\":3687:3695   */\n  dup7\n    /* \"#utility.yul\":3676:3685   */\n  dup4\n    /* \"#utility.yul\":3657:3696   */\n  tag_31\n  jump\t// in\ntag_87:\n    /* \"#utility.yul\":3645:3696   */\n  swap6\n  pop\n    /* \"#utility.yul\":3729:3733   */\n  dup1\n    /* \"#utility.yul\":3725:3734   */\n  not\n    /* \"#utility.yul\":3718:3723   */\n  dup5\n    /* \"#utility.yul\":3714:3735   */\n  and\n    /* \"#utility.yul\":3705:3735   */\n  swap4\n  pop\n    /* \"#utility.yul\":3778:3782   */\n  dup1\n    /* \"#utility.yul\":3768:3776   */\n  dup7\n    /* \"#utility.yul\":3764:3783   */\n  and\n    /* \"#utility.yul\":3757:3762   */\n  dup5\n    /* \"#utility.yul\":3754:3784   */\n  or\n    /* \"#utility.yul\":3744:3784   */\n  swap3\n  pop\n    /* \"#utility.yul\":3473:3790   */\n  pop\n  pop\n    /* \"#utility.yul\":3397:3790   */\n  swap4\n  swap3\n  pop\n  pop\n  pop\n  jump\t// out\n    /* \"#utility.yul\":3796:3873   */\ntag_33:\n    /* \"#utility.yul\":3833:3840   */\n  0x00\n    /* \"#utility.yul\":3862:3867   */\n  dup2\n    /* \"#utility.yul\":3851:3867   */\n  swap1\n  pop\n    /* \"#utility.yul\":3796:3873   */\n  swap2\n  swap1\n  pop\n  jump\t// out\n    /* \"#utility.yul\":3879:3939   */\ntag_34:\n    /* \"#utility.yul\":3907:3910   */\n  0x00\n    /* \"#utility.yul\":3928:3933   */\n  dup2\n    /* \"#utility.yul\":3921:3933   */\n  swap1\n  pop\n    /* \"#utility.yul\":3879:3939   */\n  swap2\n  swap1\n  pop\n  jump\t// out\n    /* \"#utility.yul\":3945:4087   */\ntag_35:\n    /* \"#utility.yul\":3995:4004   */\n  0x00\n    /* \"#utility.yul\":4028:4081   */\n  tag_91\n    /* \"#utility.yul\":4046:4080   */\n  tag_92\n    /* \"#utility.yul\":4055:4079   */\n  tag_93\n    /* \"#utility.yul\":4073:4078   */\n  dup5\n    /* \"#utility.yul\":4055:4079   */\n  tag_33\n  jump\t// in\ntag_93:\n    /* \"#utility.yul\":4046:4080   */\n  tag_34\n  jump\t// in\ntag_92:\n    /* \"#utility.yul\":4028:4081   */\n  tag_33\n  jump\t// in\ntag_91:\n    /* \"#utility.yul\":4015:4081   */\n  swap1\n  pop\n    /* \"#utility.yul\":3945:4087   */\n  swap2\n  swap1\n  pop\n  jump\t// out\n    /* \"#utility.yul\":4093:4168   */\ntag_36:\n    /* \"#utility.yul\":4136:4139   */\n  0x00\n    /* \"#utility.yul\":4157:4162   */\n  dup2\n    /* \"#utility.yul\":4150:4162   */\n  swap1\n  pop\n    /* \"#utility.yul\":4093:4168   */\n  swap2\n  swap1\n  pop\n  jump\t// out\n    /* \"#utility.yul\":4174:4443   */\ntag_37:\n    /* \"#utility.yul\":4284:4323   */\n  tag_96\n    /* \"#utility.yul\":4315:4322   */\n  dup4\n    /* \"#utility.yul\":4284:4323   */\n  tag_35\n  jump\t// in\ntag_96:\n    /* \"#utility.yul\":4345:4436   */\n  tag_97\n    /* \"#utility.yul\":4394:4435   */\n  tag_98\n    /* \"#utility.yul\":4418:4434   */\n  dup3\n    /* \"#utility.yul\":4394:4435   */\n  tag_36\n  jump\t// in\ntag_98:\n    /* \"#utility.yul\":4386:4392   */\n  dup5\n    /* \"#utility.yul\":4379:4383   */\n  dup5\n    /* \"#utility.yul\":4373:4384   */\n  sload\n    /* \"#utility.yul\":4345:4436   */\n  tag_32\n  jump\t// in\ntag_97:\n    /* \"#utility.yul\":4339:4343   */\n  dup3\n    /* \"#utility.yul\":4332:4437   */\n  sstore\n    /* \"#utility.yul\":4250:4443   */\n  pop\n    /* \"#utility.yul\":4174:4443   */\n  pop\n  pop\n  pop\n  jump\t// out\n    /* \"#utility.yul\":4449:4522   */\ntag_38:\n    /* \"#utility.yul\":4494:4497   */\n  0x00\n    /* \"#utility.yul\":4449:4522   */\n  swap1\n  jump\t// out\n    /* \"#utility.yul\":4528:4717   */\ntag_39:\n    /* \"#utility.yul\":4605:4637   */\n  tag_101\n  tag_38\n  jump\t// in\ntag_101:\n    /* \"#utility.yul\":4646:4711   */\n  tag_102\n    /* \"#utility.yul\":4704:4710   */\n  dup2\n    /* \"#utility.yul\":4696:4702   */\n  dup5\n    /* \"#utility.yul\":4690:4694   */\n  dup5\n    /* \"#utility.yul\":4646:4711   */\n  tag_37\n  jump\t// in\ntag_102:\n    /* \"#utility.yul\":4581:4717   */\n  pop\n    /* \"#utility.yul\":4528:4717   */\n  pop\n  pop\n  jump\t// out\n    /* \"#utility.yul\":4723:4909   */\ntag_40:\n    /* \"#utility.yul\":4783:4903   */\ntag_104:\n    /* \"#utility.yul\":4800:4803   */\n  dup2\n    /* \"#utility.yul\":4793:4798   */\n  dup2\n    /* \"#utility.yul\":4790:4804   */\n  lt\n    /* \"#utility.yul\":4783:4903   */\n  iszero\n  tag_106\n  jumpi\n    /* \"#utility.yul\":4854:4893   */\n  tag_107\n    /* \"#utility.yul\":4891:4892   */\n  0x00\n    /* \"#utility.yul\":4884:4889   */\n  dup3\n    /* \"#utility.yul\":4854:4893   */\n  tag_39\n  jump\t// in\ntag_107:\n    /* \"#utility.yul\":4827:4828   */\n  0x01\n    /* \"#utility.yul\":4820:4825   */\n  dup2\n    /* \"#utility.yul\":4816:4829   */\n  add\n    /* \"#utility.yul\":4807:4829   */\n  swap1\n  pop\n    /* \"#utility.yul\":4783:4903   */\n  jump(tag_104)\ntag_106:\n    /* \"#utility.yul\":4723:4909   */\n  pop\n  pop\n  jump\t// out\n    /* \"#utility.yul\":4915:5458   */\ntag_41:\n    /* \"#utility.yul\":5016:5018   */\n  0x1f\n    /* \"#utility.yul\":5011:5014   */\n  dup3\n    /* \"#utility.yul\":5008:5019   */\n  gt\n    /* \"#utility.yul\":5005:5451   */\n  iszero\n  tag_109\n  jumpi\n    /* \"#utility.yul\":5050:5088   */\n  tag_110\n    /* \"#utility.yul\":5082:5087   */\n  dup2\n    /* \"#utility.yul\":5050:5088   */\n  tag_29\n  jump\t// in\ntag_110:\n    /* \"#utility.yul\":5134:5163   */\n  tag_111\n    /* \"#utility.yul\":5152:5162   */\n  dup5\n    /* \"#utility.yul\":5134:5163   */\n  tag_30\n  jump\t// in\ntag_111:\n    /* \"#utility.yul\":5124:5132   */\n  dup2\n    /* \"#utility.yul\":5120:5164   */\n  add\n    /* \"#utility.yul\":5317:5319   */\n  0x20\n    /* \"#utility.yul\":5305:5315   */\n  dup6\n    /* \"#utility.yul\":5302:5320   */\n  lt\n    /* \"#utility.yul\":5299:5348   */\n  iszero\n  tag_112\n  jumpi\n    /* \"#utility.yul\":5338:5346   */\n  dup2\n    /* \"#utility.yul\":5323:5346   */\n  swap1\n  pop\n    /* \"#utility.yul\":5299:5348   */\ntag_112:\n    /* \"#utility.yul\":5361:5441   */\n  tag_113\n    /* \"#utility.yul\":5417:5439   */\n  tag_114\n    /* \"#utility.yul\":5435:5438   */\n  dup6\n    /* \"#utility.yul\":5417:5439   */\n  tag_30\n  jump\t// in\ntag_114:\n    /* \"#utility.yul\":5407:5415   */\n  dup4\n    /* \"#utility.yul\":5403:5440   */\n  add\n    /* \"#utility.yul\":5390:5401   */\n  dup3\n    /* \"#utility.yul\":5361:5441   */\n  tag_40\n  jump\t// in\ntag_113:\n    /* \"#utility.yul\":5020:5451   */\n  pop\n  pop\n    /* \"#utility.yul\":5005:5451   */\ntag_109:\n    /* \"#utility.yul\":4915:5458   */\n  pop\n  pop\n  pop\n  jump\t// out\n    /* \"#utility.yul\":5464:5581   */\ntag_42:\n    /* \"#utility.yul\":5518:5526   */\n  0x00\n    /* \"#utility.yul\":5568:5573   */\n  dup3\n    /* \"#utility.yul\":5562:5566   */\n  dup3\n    /* \"#utility.yul\":5558:5574   */\n  shr\n    /* \"#utility.yul\":5537:5574   */\n  swap1\n  pop\n    /* \"#utility.yul\":5464:5581   */\n  swap3\n  swap2\n  pop\n  pop\n  jump\t// out\n    /* \"#utility.yul\":5587:5756   */\ntag_43:\n    /* \"#utility.yul\":5631:5637   */\n  0x00\n    /* \"#utility.yul\":5664:5715   */\n  tag_117\n    /* \"#utility.yul\":5712:5713   */\n  0x00\n    /* \"#utility.yul\":5708:5714   */\n  not\n    /* \"#utility.yul\":5700:5705   */\n  dup5\n    /* \"#utility.yul\":5697:5698   */\n  0x08\n    /* \"#utility.yul\":5693:5706   */\n  mul\n    /* \"#utility.yul\":5664:5715   */\n  tag_42\n  jump\t// in\ntag_117:\n    /* \"#utility.yul\":5660:5716   */\n  not\n    /* \"#utility.yul\":5745:5749   */\n  dup1\n    /* \"#utility.yul\":5739:5743   */\n  dup4\n    /* \"#utility.yul\":5735:5750   */\n  and\n    /* \"#utility.yul\":5725:5750   */\n  swap2\n  pop\n    /* \"#utility.yul\":5638:5756   */\n  pop\n    /* \"#utility.yul\":5587:5756   */\n  swap3\n  swap2\n  pop\n  pop\n  jump\t// out\n    /* \"#utility.yul\":5761:6056   */\ntag_44:\n    /* \"#utility.yul\":5837:5841   */\n  0x00\n    /* \"#utility.yul\":5983:6012   */\n  tag_119\n    /* \"#utility.yul\":6008:6011   */\n  dup4\n    /* \"#utility.yul\":6002:6006   */\n  dup4\n    /* \"#utility.yul\":5983:6012   */\n  tag_43\n  jump\t// in\ntag_119:\n    /* \"#utility.yul\":5975:6012   */\n  swap2\n  pop\n    /* \"#utility.yul\":6045:6048   */\n  dup3\n    /* \"#utility.yul\":6042:6043   */\n  0x02\n    /* \"#utility.yul\":6038:6049   */\n  mul\n    /* \"#utility.yul\":6032:6036   */\n  dup3\n    /* \"#utility.yul\":6029:6050   */\n  or\n    /* \"#utility.yul\":6021:6050   */\n  swap1\n  pop\n    /* \"#utility.yul\":5761:6056   */\n  swap3\n  swap2\n  pop\n  pop\n  jump\t// out\n    /* \"#utility.yul\":6061:7456   */\ntag_8:\n    /* \"#utility.yul\":6178:6215   */\n  tag_121\n    /* \"#utility.yul\":6211:6214   */\n  dup3\n    /* \"#utility.yul\":6178:6215   */\n  tag_25\n  jump\t// in\ntag_121:\n    /* \"#utility.yul\":6280:6298   */\n  0xffffffffffffffff\n    /* \"#utility.yul\":6272:6278   */\n  dup2\n    /* \"#utility.yul\":6269:6299   */\n  gt\n    /* \"#utility.yul\":6266:6322   */\n  iszero\n  tag_122\n  jumpi\n    /* \"#utility.yul\":6302:6320   */\n  tag_123\n  tag_26\n  jump\t// in\ntag_123:\n    /* \"#utility.yul\":6266:6322   */\ntag_122:\n    /* \"#utility.yul\":6346:6384   */\n  tag_124\n    /* \"#utility.yul\":6378:6382   */\n  dup3\n    /* \"#utility.yul\":6372:6383   */\n  sload\n    /* \"#utility.yul\":6346:6384   */\n  tag_28\n  jump\t// in\ntag_124:\n    /* \"#utility.yul\":6431:6498   */\n  tag_125\n    /* \"#utility.yul\":6491:6497   */\n  dup3\n    /* \"#utility.yul\":6483:6489   */\n  dup3\n    /* \"#utility.yul\":6477:6481   */\n  dup6\n    /* \"#utility.yul\":6431:6498   */\n  tag_41\n  jump\t// in\ntag_125:\n    /* \"#utility.yul\":6525:6526   */\n  0x00\n    /* \"#utility.yul\":6549:6553   */\n  0x20\n    /* \"#utility.yul\":6536:6553   */\n  swap1\n  pop\n    /* \"#utility.yul\":6581:6583   */\n  0x1f\n    /* \"#utility.yul\":6573:6579   */\n  dup4\n    /* \"#utility.yul\":6570:6584   */\n  gt\n    /* \"#utility.yul\":6598:6599   */\n  0x01\n    /* \"#utility.yul\":6593:7211   */\n  dup2\n  eq\n  tag_127\n  jumpi\n    /* \"#utility.yul\":7255:7256   */\n  0x00\n    /* \"#utility.yul\":7272:7278   */\n  dup5\n    /* \"#utility.yul\":7269:7346   */\n  iszero\n  tag_128\n  jumpi\n    /* \"#utility.yul\":7321:7330   */\n  dup3\n    /* \"#utility.yul\":7316:7319   */\n  dup8\n    /* \"#utility.yul\":7312:7331   */\n  add\n    /* \"#utility.yul\":7306:7332   */\n  mload\n    /* \"#utility.yul\":7297:7332   */\n  swap1\n  pop\n    /* \"#utility.yul\":7269:7346   */\ntag_128:\n    /* \"#utility.yul\":7372:7439   */\n  tag_129\n    /* \"#utility.yul\":7432:7438   */\n  dup6\n    /* \"#utility.yul\":7425:7430   */\n  dup3\n    /* \"#utility.yul\":7372:7439   */\n  tag_44\n  jump\t// in\ntag_129:\n    /* \"#utility.yul\":7366:7370   */\n  dup7\n    /* \"#utility.yul\":7359:7440   */\n  sstore\n    /* \"#utility.yul\":7228:7450   */\n  pop\n    /* \"#utility.yul\":6563:7450   */\n  jump(tag_126)\n    /* \"#utility.yul\":6593:7211   */\ntag_127:\n    /* \"#utility.yul\":6645:6649   */\n  0x1f\n    /* \"#utility.yul\":6641:6650   */\n  not\n    /* \"#utility.yul\":6633:6639   */\n  dup5\n    /* \"#utility.yul\":6629:6651   */\n  and\n    /* \"#utility.yul\":6679:6716   */\n  tag_130\n    /* \"#utility.yul\":6711:6715   */\n  dup7\n    /* \"#utility.yul\":6679:6716   */\n  tag_29\n  jump\t// in\ntag_130:\n    /* \"#utility.yul\":6738:6739   */\n  0x00\n    /* \"#utility.yul\":6752:6960   */\ntag_131:\n    /* \"#utility.yul\":6766:6773   */\n  dup3\n    /* \"#utility.yul\":6763:6764   */\n  dup2\n    /* \"#utility.yul\":6760:6774   */\n  lt\n    /* \"#utility.yul\":6752:6960   */\n  iszero\n  tag_133\n  jumpi\n    /* \"#utility.yul\":6845:6854   */\n  dup5\n    /* \"#utility.yul\":6840:6843   */\n  dup10\n    /* \"#utility.yul\":6836:6855   */\n  add\n    /* \"#utility.yul\":6830:6856   */\n  mload\n    /* \"#utility.yul\":6822:6828   */\n  dup3\n    /* \"#utility.yul\":6815:6857   */\n  sstore\n    /* \"#utility.yul\":6896:6897   */\n  0x01\n    /* \"#utility.yul\":6888:6894   */\n  dup3\n    /* \"#utility.yul\":6884:6898   */\n  add\n    /* \"#utility.yul\":6874:6898   */\n  swap2\n  pop\n    /* \"#utility.yul\":6943:6945   */\n  0x20\n    /* \"#utility.yul\":6932:6941   */\n  dup6\n    /* \"#utility.yul\":6928:6946   */\n  add\n    /* \"#utility.yul\":6915:6946   */\n  swap5\n  pop\n    /* \"#utility.yul\":6789:6793   */\n  0x20\n    /* \"#utility.yul\":6786:6787   */\n  dup2\n    /* \"#utility.yul\":6782:6794   */\n  add\n    /* \"#utility.yul\":6777:6794   */\n  swap1\n  pop\n    /* \"#utility.yul\":6752:6960   */\n  jump(tag_131)\ntag_133:\n    /* \"#utility.yul\":6988:6994   */\n  dup7\n    /* \"#utility.yul\":6979:6986   */\n  dup4\n    /* \"#utility.yul\":6976:6995   */\n  lt\n    /* \"#utility.yul\":6973:7152   */\n  iszero\n  tag_134\n  jumpi\n    /* \"#utility.yul\":7046:7055   */\n  dup5\n    /* \"#utility.yul\":7041:7044   */\n  dup10\n    /* \"#utility.yul\":7037:7056   */\n  add\n    /* \"#utility.yul\":7031:7057   */\n  mload\n    /* \"#utility.yul\":7089:7137   */\n  tag_135\n    /* \"#utility.yul\":7131:7135   */\n  0x1f\n    /* \"#utility.yul\":7123:7129   */\n  dup10\n    /* \"#utility.yul\":7119:7136   */\n  and\n    /* \"#utility.yul\":7108:7117   */\n  dup3\n    /* \"#utility.yul\":7089:7137   */\n  tag_43\n  jump\t// in\ntag_135:\n    /* \"#utility.yul\":7081:7087   */\n  dup4\n    /* \"#utility.yul\":7074:7138   */\n  sstore\n    /* \"#utility.yul\":6996:7152   */\n  pop\n    /* \"#utility.yul\":6973:7152   */\ntag_134:\n    /* \"#utility.yul\":7198:7199   */\n  0x01\n    /* \"#utility.yul\":7194:7195   */\n  0x02\n    /* \"#utility.yul\":7186:7192   */\n  dup9\n    /* \"#utility.yul\":7182:7196   */\n  mul\n    /* \"#utility.yul\":7178:7200   */\n  add\n    /* \"#utility.yul\":7172:7176   */\n  dup9\n    /* \"#utility.yul\":7165:7201   */\n  sstore\n    /* \"#utility.yul\":6600:7211   */\n  pop\n  pop\n  pop\n    /* \"#utility.yul\":6563:7450   */\ntag_126:\n  pop\n    /* \"#utility.yul\":6153:7456   */\n  pop\n  pop\n  pop\n    /* \"#utility.yul\":6061:7456   */\n  pop\n  pop\n  jump\t// out\n    /* \"marriage_license.sol\":177:5240  contract MarriageLicense is ERC721 {... */\ntag_11:\n  dataSize(sub_0)\n  dup1\n  dataOffset(sub_0)\n  0x00\n  codecopy\n  0x00\n  return\nstop\n\nsub_0: assembly {\n        /* \"marriage_license.sol\":177:5240  contract MarriageLicense is ERC721 {... */\n      mstore(0x40, 0x80)\n      callvalue\n      dup1\n      iszero\n      tag_1\n      jumpi\n      0x00\n      dup1\n      revert\n    tag_1:\n      pop\n      jumpi(tag_2, lt(calldatasize, 0x04))\n      shr(0xe0, calldataload(0x00))\n      dup1\n      0x70a08231\n      gt\n      tag_21\n      jumpi\n      dup1\n      0xb49a5bb2\n      gt\n      tag_22\n      jumpi\n      dup1\n      0xb49a5bb2\n      eq\n      tag_16\n      jumpi\n      dup1\n      0xb88d4fde\n      eq\n      tag_17\n      jumpi\n      dup1\n      0xbd6690f4\n      eq\n      tag_18\n      jumpi\n      dup1\n      0xc87b56dd\n      eq\n      tag_19\n      jumpi\n      dup1\n      0xe985e9c5\n      eq\n      tag_20\n      jumpi\n      jump(tag_2)\n    tag_22:\n      dup1\n      0x70a08231\n      eq\n      tag_12\n      jumpi\n      dup1\n      0x95d89b41\n      eq\n      tag_13\n      jumpi\n      dup1\n      0xa22cb465\n      eq\n      tag_14\n      jumpi\n      dup1\n      0xa702314d\n      eq\n      tag_15\n      jumpi\n      jump(tag_2)\n    tag_21:\n      dup1\n      0x23b872dd\n      gt\n      tag_23\n      jumpi\n      dup1\n      0x23b872dd\n      eq\n      tag_7\n      jumpi\n      dup1\n      0x2fc5a6df\n      eq\n      tag_8\n      jumpi\n      dup1\n      0x31b3e321\n      eq\n      tag_9\n      jumpi\n      dup1\n      0x42842e0e\n      eq\n      tag_10\n      jumpi\n      dup1\n      0x6352211e\n      eq\n      tag_11\n      jumpi\n      jump(tag_2)\n    tag_23:\n      dup1\n      0x01ffc9a7\n      eq\n      tag_3\n      jumpi\n      dup1\n      0x06fdde03\n      eq\n      tag_4\n      jumpi\n      dup1\n      0x081812fc\n      eq\n      tag_5\n      jumpi\n      dup1\n      0x095ea7b3\n      eq\n      tag_6\n      jumpi\n    tag_2:\n      0x00\n      dup1\n      revert\n        /* \"@openzeppelin/contracts/token/ERC721/ERC721.sol\":1561:1861  function supportsInterface(bytes4 interfaceId) public view virtual override(ERC165, IERC165) returns (bool) {... */\n    tag_3:\n      tag_24\n      0x04\n      dup1\n      calldatasize\n      sub\n      dup2\n      add\n      swap1\n      tag_25\n      swap2\n      swap1\n      tag_26\n      jump\t// in\n    tag_25:\n      tag_27\n      jump\t// in\n    tag_24:\n      mload(0x40)\n      tag_28\n      swap2\n      swap1\n      tag_29\n      jump\t// in\n    tag_28:\n      mload(0x40)\n      dup1\n      swap2\n      sub\n      swap1\n      return\n        /* \"@openzeppelin/contracts/token/ERC721/ERC721.sol\":2365:2454  function name() public view virtual returns (string memory) {... */\n    tag_4:\n      tag_30\n      tag_31\n      jump\t// in\n    tag_30:\n      mload(0x40)\n      tag_32\n      swap2\n      swap1\n      tag_33\n      jump\t// in\n    tag_32:\n      mload(0x40)\n      dup1\n      swap2\n      sub\n      swap1\n      return\n        /* \"@openzeppelin/contracts/token/ERC721/ERC721.sol\":3497:3651  function getApproved(uint256 tokenId) public view virtual returns (address) {... */\n    tag_5:\n      tag_34\n      0x04\n      dup1\n      calldatasize\n      sub\n      dup2\n      add\n      swap1\n      tag_35\n      swap2\n      swap1\n      tag_36\n      jump\t// in\n    tag_35:\n      tag_37\n      jump\t// in\n    tag_34:\n      mload(0x40)\n      tag_38\n      swap2\n      swap1\n      tag_39\n      jump\t// in\n    tag_38:\n      mload(0x40)\n      dup1\n      swap2\n      sub\n      swap1\n      return\n        /* \"@openzeppelin/contracts/token/ERC721/ERC721.sol\":3323:3436  function approve(address to, uint256 tokenId) public virtual {... */\n    tag_6:\n      tag_40\n      0x04\n      dup1\n      calldatasize\n      sub\n      dup2\n      add\n      swap1\n      tag_41\n      swap2\n      swap1\n      tag_42\n      jump\t// in\n    tag_41:\n      tag_43\n      jump\t// in\n    tag_40:\n      stop\n        /* \"@openzeppelin/contracts/token/ERC721/ERC721.sol\":4143:4721  function transferFrom(address from, address to, uint256 tokenId) public virtual {... */\n    tag_7:\n      tag_44\n      0x04\n      dup1\n      calldatasize\n      sub\n      dup2\n      add\n      swap1\n      tag_45\n      swap2\n      swap1\n      tag_46\n      jump\t// in\n    tag_45:\n      tag_47\n      jump\t// in\n    tag_44:\n      stop\n        /* \"marriage_license.sol\":388:412  uint16 public weddingDay */\n    tag_8:\n      tag_48\n      tag_49\n      jump\t// in\n    tag_48:\n      mload(0x40)\n      tag_50\n      swap2\n      swap1\n      tag_51\n      jump\t// in\n    tag_50:\n      mload(0x40)\n      dup1\n      swap2\n      sub\n      swap1\n      return\n        /* \"marriage_license.sol\":2000:2529  function createWeddingCertificate() public onlySpouse {... */\n    tag_9:\n      tag_52\n      tag_53\n      jump\t// in\n    tag_52:\n      stop\n        /* \"@openzeppelin/contracts/token/ERC721/ERC721.sol\":4787:4919  function safeTransferFrom(address from, address to, uint256 tokenId) public {... */\n    tag_10:\n      tag_54\n      0x04\n      dup1\n      calldatasize\n      sub\n      dup2\n      add\n      swap1\n      tag_55\n      swap2\n      swap1\n      tag_46\n      jump\t// in\n    tag_55:\n      tag_56\n      jump\t// in\n    tag_54:\n      stop\n        /* \"@openzeppelin/contracts/token/ERC721/ERC721.sol\":2185:2303  function ownerOf(uint256 tokenId) public view virtual returns (address) {... */\n    tag_11:\n      tag_57\n      0x04\n      dup1\n      calldatasize\n      sub\n      dup2\n      add\n      swap1\n      tag_58\n      swap2\n      swap1\n      tag_36\n      jump\t// in\n    tag_58:\n      tag_59\n      jump\t// in\n    tag_57:\n      mload(0x40)\n      tag_60\n      swap2\n      swap1\n      tag_39\n      jump\t// in\n    tag_60:\n      mload(0x40)\n      dup1\n      swap2\n      sub\n      swap1\n      return\n        /* \"@openzeppelin/contracts/token/ERC721/ERC721.sol\":1920:2128  function balanceOf(address owner) public view virtual returns (uint256) {... */\n    tag_12:\n      tag_61\n      0x04\n      dup1\n      calldatasize\n      sub\n      dup2\n      add\n      swap1\n      tag_62\n      swap2\n      swap1\n      tag_63\n      jump\t// in\n    tag_62:\n      tag_64\n      jump\t// in\n    tag_61:\n      mload(0x40)\n      tag_65\n      swap2\n      swap1\n      tag_66\n      jump\t// in\n    tag_65:\n      mload(0x40)\n      dup1\n      swap2\n      sub\n      swap1\n      return\n        /* \"@openzeppelin/contracts/token/ERC721/ERC721.sol\":2518:2611  function symbol() public view virtual returns (string memory) {... */\n    tag_13:\n      tag_67\n      tag_68\n      jump\t// in\n    tag_67:\n      mload(0x40)\n      tag_69\n      swap2\n      swap1\n      tag_33\n      jump\t// in\n    tag_69:\n      mload(0x40)\n      dup1\n      swap2\n      sub\n      swap1\n      return\n        /* \"@openzeppelin/contracts/token/ERC721/ERC721.sol\":3718:3862  function setApprovalForAll(address operator, bool approved) public virtual {... */\n    tag_14:\n      tag_70\n      0x04\n      dup1\n      calldatasize\n      sub\n      dup2\n      add\n      swap1\n      tag_71\n      swap2\n      swap1\n      tag_72\n      jump\t// in\n    tag_71:\n      tag_73\n      jump\t// in\n    tag_70:\n      stop\n        /* \"marriage_license.sol\":360:381  bool public isMarried */\n    tag_15:\n      tag_74\n      tag_75\n      jump\t// in\n    tag_74:\n      mload(0x40)\n      tag_76\n      swap2\n      swap1\n      tag_29\n      jump\t// in\n    tag_76:\n      mload(0x40)\n      dup1\n      swap2\n      sub\n      swap1\n      return\n        /* \"marriage_license.sol\":3528:4011  function divorce(uint256 tokenId) public onlySpouse {... */\n    tag_16:\n      tag_77\n      0x04\n      dup1\n      calldatasize\n      sub\n      dup2\n      add\n      swap1\n      tag_78\n      swap2\n      swap1\n      tag_36\n      jump\t// in\n    tag_78:\n      tag_79\n      jump\t// in\n    tag_77:\n      stop\n        /* \"@openzeppelin/contracts/token/ERC721/ERC721.sol\":4985:5193  function safeTransferFrom(address from, address to, uint256 tokenId, bytes memory data) public virtual {... */\n    tag_17:\n      tag_80\n      0x04\n      dup1\n      calldatasize\n      sub\n      dup2\n      add\n      swap1\n      tag_81\n      swap2\n      swap1\n      tag_82\n      jump\t// in\n    tag_81:\n      tag_83\n      jump\t// in\n    tag_80:\n      stop\n        /* \"marriage_license.sol\":2537:3520  function authorizeAccounts(address authorizeAddress) public onlySpouse {... */\n    tag_18:\n      tag_84\n      0x04\n      dup1\n      calldatasize\n      sub\n      dup2\n      add\n      swap1\n      tag_85\n      swap2\n      swap1\n      tag_63\n      jump\t// in\n    tag_85:\n      tag_86\n      jump\t// in\n    tag_84:\n      stop\n        /* \"@openzeppelin/contracts/token/ERC721/ERC721.sol\":2677:2932  function tokenURI(uint256 tokenId) public view virtual returns (string memory) {... */\n    tag_19:\n      tag_87\n      0x04\n      dup1\n      calldatasize\n      sub\n      dup2\n      add\n      swap1\n      tag_88\n      swap2\n      swap1\n      tag_36\n      jump\t// in\n    tag_88:\n      tag_89\n      jump\t// in\n    tag_87:\n      mload(0x40)\n      tag_90\n      swap2\n      swap1\n      tag_33\n      jump\t// in\n    tag_90:\n      mload(0x40)\n      dup1\n      swap2\n      sub\n      swap1\n      return\n        /* \"@openzeppelin/contracts/token/ERC721/ERC721.sol\":3928:4081  function isApprovedForAll(address owner, address operator) public view virtual returns (bool) {... */\n    tag_20:\n      tag_91\n      0x04\n      dup1\n      calldatasize\n      sub\n      dup2\n      add\n      swap1\n      tag_92\n      swap2\n      swap1\n      tag_93\n      jump\t// in\n    tag_92:\n      tag_94\n      jump\t// in\n    tag_91:\n      mload(0x40)\n      tag_95\n      swap2\n      swap1\n      tag_29\n      jump\t// in\n    tag_95:\n      mload(0x40)\n      dup1\n      swap2\n      sub\n      swap1\n      return\n        /* \"@openzeppelin/contracts/token/ERC721/ERC721.sol\":1561:1861  function supportsInterface(bytes4 interfaceId) public view virtual override(ERC165, IERC165) returns (bool) {... */\n    tag_27:\n        /* \"@openzeppelin/contracts/token/ERC721/ERC721.sol\":1663:1667  bool */\n      0x00\n        /* \"@openzeppelin/contracts/token/ERC721/ERC721.sol\":1713:1738  type(IERC721).interfaceId */\n      0x80ac58cd00000000000000000000000000000000000000000000000000000000\n        /* \"@openzeppelin/contracts/token/ERC721/ERC721.sol\":1698:1738  interfaceId == type(IERC721).interfaceId */\n      not(0xffffffffffffffffffffffffffffffffffffffffffffffffffffffff)\n      and\n        /* \"@openzeppelin/contracts/token/ERC721/ERC721.sol\":1698:1709  interfaceId */\n      dup3\n        /* \"@openzeppelin/contracts/token/ERC721/ERC721.sol\":1698:1738  interfaceId == type(IERC721).interfaceId */\n      not(0xffffffffffffffffffffffffffffffffffffffffffffffffffffffff)\n      and\n      eq\n        /* \"@openzeppelin/contracts/token/ERC721/ERC721.sol\":1698:1802  interfaceId == type(IERC721).interfaceId ||... */\n      dup1\n      tag_97\n      jumpi\n      pop\n        /* \"@openzeppelin/contracts/token/ERC721/ERC721.sol\":1769:1802  type(IERC721Metadata).interfaceId */\n      0x5b5e139f00000000000000000000000000000000000000000000000000000000\n        /* \"@openzeppelin/contracts/token/ERC721/ERC721.sol\":1754:1802  interfaceId == type(IERC721Metadata).interfaceId */\n      not(0xffffffffffffffffffffffffffffffffffffffffffffffffffffffff)\n      and\n        /* \"@openzeppelin/contracts/token/ERC721/ERC721.sol\":1754:1765  interfaceId */\n      dup3\n        /* \"@openzeppelin/contracts/token/ERC721/ERC721.sol\":1754:1802  interfaceId == type(IERC721Metadata).interfaceId */\n      not(0xffffffffffffffffffffffffffffffffffffffffffffffffffffffff)\n      and\n      eq\n        /* \"@openzeppelin/contracts/token/ERC721/ERC721.sol\":1698:1802  interfaceId == type(IERC721).interfaceId ||... */\n    tag_97:\n        /* \"@openzeppelin/contracts/token/ERC721/ERC721.sol\":1698:1854  interfaceId == type(IERC721).interfaceId ||... */\n      dup1\n      tag_98\n      jumpi\n      pop\n        /* \"@openzeppelin/contracts/token/ERC721/ERC721.sol\":1818:1854  super.supportsInterface(interfaceId) */\n      tag_99\n        /* \"@openzeppelin/contracts/token/ERC721/ERC721.sol\":1842:1853  interfaceId */\n      dup3\n        /* \"@openzeppelin/contracts/token/ERC721/ERC721.sol\":1818:1841  super.supportsInterface */\n      tag_100\n        /* \"@openzeppelin/contracts/token/ERC721/ERC721.sol\":1818:1854  super.supportsInterface(interfaceId) */\n      jump\t// in\n    tag_99:\n        /* \"@openzeppelin/contracts/token/ERC721/ERC721.sol\":1698:1854  interfaceId == type(IERC721).interfaceId ||... */\n    tag_98:\n        /* \"@openzeppelin/contracts/token/ERC721/ERC721.sol\":1679:1854  return... */\n      swap1\n      pop\n        /* \"@openzeppelin/contracts/token/ERC721/ERC721.sol\":1561:1861  function supportsInterface(bytes4 interfaceId) public view virtual override(ERC165, IERC165) returns (bool) {... */\n      swap2\n      swap1\n      pop\n      jump\t// out\n        /* \"@openzeppelin/contracts/token/ERC721/ERC721.sol\":2365:2454  function name() public view virtual returns (string memory) {... */\n    tag_31:\n        /* \"@openzeppelin/contracts/token/ERC721/ERC721.sol\":2410:2423  string memory */\n      0x60\n        /* \"@openzeppelin/contracts/token/ERC721/ERC721.sol\":2442:2447  _name */\n      0x00\n        /* \"@openzeppelin/contracts/token/ERC721/ERC721.sol\":2435:2447  return _name */\n      dup1\n      sload\n      tag_102\n      swap1\n      tag_103\n      jump\t// in\n    tag_102:\n      dup1\n      0x1f\n      add\n      0x20\n      dup1\n      swap2\n      div\n      mul\n      0x20\n      add\n      mload(0x40)\n      swap1\n      dup2\n      add\n      0x40\n      mstore\n      dup1\n      swap3\n      swap2\n      swap1\n      dup2\n      dup2\n      mstore\n      0x20\n      add\n      dup3\n      dup1\n      sload\n      tag_104\n      swap1\n      tag_103\n      jump\t// in\n    tag_104:\n      dup1\n      iszero\n      tag_105\n      jumpi\n      dup1\n      0x1f\n      lt\n      tag_106\n      jumpi\n      0x0100\n      dup1\n      dup4\n      sload\n      div\n      mul\n      dup4\n      mstore\n      swap2\n      0x20\n      add\n      swap2\n      jump(tag_105)\n    tag_106:\n      dup3\n      add\n      swap2\n      swap1\n      0x00\n      mstore\n      keccak256(0x00, 0x20)\n      swap1\n    tag_107:\n      dup2\n      sload\n      dup2\n      mstore\n      swap1\n      0x01\n      add\n      swap1\n      0x20\n      add\n      dup1\n      dup4\n      gt\n      tag_107\n      jumpi\n      dup3\n      swap1\n      sub\n      0x1f\n      and\n      dup3\n      add\n      swap2\n    tag_105:\n      pop\n      pop\n      pop\n      pop\n      pop\n      swap1\n      pop\n        /* \"@openzeppelin/contracts/token/ERC721/ERC721.sol\":2365:2454  function name() public view virtual returns (string memory) {... */\n      swap1\n      jump\t// out\n        /* \"@openzeppelin/contracts/token/ERC721/ERC721.sol\":3497:3651  function getApproved(uint256 tokenId) public view virtual returns (address) {... */\n    tag_37:\n        /* \"@openzeppelin/contracts/token/ERC721/ERC721.sol\":3564:3571  address */\n      0x00\n        /* \"@openzeppelin/contracts/token/ERC721/ERC721.sol\":3583:3605  _requireOwned(tokenId) */\n      tag_109\n        /* \"@openzeppelin/contracts/token/ERC721/ERC721.sol\":3597:3604  tokenId */\n      dup3\n        /* \"@openzeppelin/contracts/token/ERC721/ERC721.sol\":3583:3596  _requireOwned */\n      tag_110\n        /* \"@openzeppelin/contracts/token/ERC721/ERC721.sol\":3583:3605  _requireOwned(tokenId) */\n      jump\t// in\n    tag_109:\n      pop\n        /* \"@openzeppelin/contracts/token/ERC721/ERC721.sol\":3623:3644  _getApproved(tokenId) */\n      tag_111\n        /* \"@openzeppelin/contracts/token/ERC721/ERC721.sol\":3636:3643  tokenId */\n      dup3\n        /* \"@openzeppelin/contracts/token/ERC721/ERC721.sol\":3623:3635  _getApproved */\n      tag_112\n        /* \"@openzeppelin/contracts/token/ERC721/ERC721.sol\":3623:3644  _getApproved(tokenId) */\n      jump\t// in\n    tag_111:\n        /* \"@openzeppelin/contracts/token/ERC721/ERC721.sol\":3616:3644  return _getApproved(tokenId) */\n      swap1\n      pop\n        /* \"@openzeppelin/contracts/token/ERC721/ERC721.sol\":3497:3651  function getApproved(uint256 tokenId) public view virtual returns (address) {... */\n      swap2\n      swap1\n      pop\n      jump\t// out\n        /* \"@openzeppelin/contracts/token/ERC721/ERC721.sol\":3323:3436  function approve(address to, uint256 tokenId) public virtual {... */\n    tag_43:\n        /* \"@openzeppelin/contracts/token/ERC721/ERC721.sol\":3394:3429  _approve(to, tokenId, _msgSender()) */\n      tag_114\n        /* \"@openzeppelin/contracts/token/ERC721/ERC721.sol\":3403:3405  to */\n      dup3\n        /* \"@openzeppelin/contracts/token/ERC721/ERC721.sol\":3407:3414  tokenId */\n      dup3\n        /* \"@openzeppelin/contracts/token/ERC721/ERC721.sol\":3416:3428  _msgSender() */\n      tag_115\n        /* \"@openzeppelin/contracts/token/ERC721/ERC721.sol\":3416:3426  _msgSender */\n      tag_116\n        /* \"@openzeppelin/contracts/token/ERC721/ERC721.sol\":3416:3428  _msgSender() */\n      jump\t// in\n    tag_115:\n        /* \"@openzeppelin/contracts/token/ERC721/ERC721.sol\":3394:3402  _approve */\n      tag_117\n        /* \"@openzeppelin/contracts/token/ERC721/ERC721.sol\":3394:3429  _approve(to, tokenId, _msgSender()) */\n      jump\t// in\n    tag_114:\n        /* \"@openzeppelin/contracts/token/ERC721/ERC721.sol\":3323:3436  function approve(address to, uint256 tokenId) public virtual {... */\n      pop\n      pop\n      jump\t// out\n        /* \"@openzeppelin/contracts/token/ERC721/ERC721.sol\":4143:4721  function transferFrom(address from, address to, uint256 tokenId) public virtual {... */\n    tag_47:\n        /* \"@openzeppelin/contracts/token/ERC721/ERC721.sol\":4251:4252  0 */\n      0x00\n        /* \"@openzeppelin/contracts/token/ERC721/ERC721.sol\":4237:4253  to == address(0) */\n      0xffffffffffffffffffffffffffffffffffffffff\n      and\n        /* \"@openzeppelin/contracts/token/ERC721/ERC721.sol\":4237:4239  to */\n      dup3\n        /* \"@openzeppelin/contracts/token/ERC721/ERC721.sol\":4237:4253  to == address(0) */\n      0xffffffffffffffffffffffffffffffffffffffff\n      and\n      sub\n        /* \"@openzeppelin/contracts/token/ERC721/ERC721.sol\":4233:4320  if (to == address(0)) {... */\n      tag_119\n      jumpi\n        /* \"@openzeppelin/contracts/token/ERC721/ERC721.sol\":4306:4307  0 */\n      0x00\n        /* \"@openzeppelin/contracts/token/ERC721/ERC721.sol\":4276:4309  ERC721InvalidReceiver(address(0)) */\n      mload(0x40)\n      0x64a0ae9200000000000000000000000000000000000000000000000000000000\n      dup2\n      mstore\n      0x04\n      add\n      tag_120\n      swap2\n      swap1\n      tag_39\n      jump\t// in\n    tag_120:\n      mload(0x40)\n      dup1\n      swap2\n      sub\n      swap1\n      revert\n        /* \"@openzeppelin/contracts/token/ERC721/ERC721.sol\":4233:4320  if (to == address(0)) {... */\n    tag_119:\n        /* \"@openzeppelin/contracts/token/ERC721/ERC721.sol\":4538:4559  address previousOwner */\n      0x00\n        /* \"@openzeppelin/contracts/token/ERC721/ERC721.sol\":4562:4596  _update(to, tokenId, _msgSender()) */\n      tag_121\n        /* \"@openzeppelin/contracts/token/ERC721/ERC721.sol\":4570:4572  to */\n      dup4\n        /* \"@openzeppelin/contracts/token/ERC721/ERC721.sol\":4574:4581  tokenId */\n      dup4\n        /* \"@openzeppelin/contracts/token/ERC721/ERC721.sol\":4583:4595  _msgSender() */\n      tag_122\n        /* \"@openzeppelin/contracts/token/ERC721/ERC721.sol\":4583:4593  _msgSender */\n      tag_116\n        /* \"@openzeppelin/contracts/token/ERC721/ERC721.sol\":4583:4595  _msgSender() */\n      jump\t// in\n    tag_122:\n        /* \"@openzeppelin/contracts/token/ERC721/ERC721.sol\":4562:4569  _update */\n      tag_123\n        /* \"@openzeppelin/contracts/token/ERC721/ERC721.sol\":4562:4596  _update(to, tokenId, _msgSender()) */\n      jump\t// in\n    tag_121:\n        /* \"@openzeppelin/contracts/token/ERC721/ERC721.sol\":4538:4596  address previousOwner = _update(to, tokenId, _msgSender()) */\n      swap1\n      pop\n        /* \"@openzeppelin/contracts/token/ERC721/ERC721.sol\":4627:4631  from */\n      dup4\n        /* \"@openzeppelin/contracts/token/ERC721/ERC721.sol\":4610:4631  previousOwner != from */\n      0xffffffffffffffffffffffffffffffffffffffff\n      and\n        /* \"@openzeppelin/contracts/token/ERC721/ERC721.sol\":4610:4623  previousOwner */\n      dup2\n        /* \"@openzeppelin/contracts/token/ERC721/ERC721.sol\":4610:4631  previousOwner != from */\n      0xffffffffffffffffffffffffffffffffffffffff\n      and\n      eq\n        /* \"@openzeppelin/contracts/token/ERC721/ERC721.sol\":4606:4715  if (previousOwner != from) {... */\n      tag_124\n      jumpi\n        /* \"@openzeppelin/contracts/token/ERC721/ERC721.sol\":4675:4679  from */\n      dup4\n        /* \"@openzeppelin/contracts/token/ERC721/ERC721.sol\":4681:4688  tokenId */\n      dup3\n        /* \"@openzeppelin/contracts/token/ERC721/ERC721.sol\":4690:4703  previousOwner */\n      dup3\n        /* \"@openzeppelin/contracts/token/ERC721/ERC721.sol\":4654:4704  ERC721IncorrectOwner(from, tokenId, previousOwner) */\n      mload(0x40)\n      0x64283d7b00000000000000000000000000000000000000000000000000000000\n      dup2\n      mstore\n      0x04\n      add\n      tag_125\n      swap4\n      swap3\n      swap2\n      swap1\n      tag_126\n      jump\t// in\n    tag_125:\n      mload(0x40)\n      dup1\n      swap2\n      sub\n      swap1\n      revert\n        /* \"@openzeppelin/contracts/token/ERC721/ERC721.sol\":4606:4715  if (previousOwner != from) {... */\n    tag_124:\n        /* \"@openzeppelin/contracts/token/ERC721/ERC721.sol\":4223:4721  {... */\n      pop\n        /* \"@openzeppelin/contracts/token/ERC721/ERC721.sol\":4143:4721  function transferFrom(address from, address to, uint256 tokenId) public virtual {... */\n      pop\n      pop\n      pop\n      jump\t// out\n        /* \"marriage_license.sol\":388:412  uint16 public weddingDay */\n    tag_49:\n      0x07\n      0x15\n      swap1\n      sload\n      swap1\n      0x0100\n      exp\n      swap1\n      div\n      0xffff\n      and\n      dup2\n      jump\t// out\n        /* \"marriage_license.sol\":2000:2529  function createWeddingCertificate() public onlySpouse {... */\n    tag_53:\n        /* \"marriage_license.sol\":1408:1415  spouse1 */\n      0x06\n      0x08\n      swap1\n      sload\n      swap1\n      0x0100\n      exp\n      swap1\n      div\n      0xffffffffffffffffffffffffffffffffffffffff\n      and\n        /* \"marriage_license.sol\":1394:1415  msg.sender == spouse1 */\n      0xffffffffffffffffffffffffffffffffffffffff\n      and\n        /* \"marriage_license.sol\":1394:1404  msg.sender */\n      caller\n        /* \"marriage_license.sol\":1394:1415  msg.sender == spouse1 */\n      0xffffffffffffffffffffffffffffffffffffffff\n      and\n      eq\n        /* \"marriage_license.sol\":1394:1440  msg.sender == spouse1 || msg.sender == spouse2 */\n      dup1\n      tag_128\n      jumpi\n      pop\n        /* \"marriage_license.sol\":1433:1440  spouse2 */\n      0x07\n      0x00\n      swap1\n      sload\n      swap1\n      0x0100\n      exp\n      swap1\n      div\n      0xffffffffffffffffffffffffffffffffffffffff\n      and\n        /* \"marriage_license.sol\":1419:1440  msg.sender == spouse2 */\n      0xffffffffffffffffffffffffffffffffffffffff\n      and\n        /* \"marriage_license.sol\":1419:1429  msg.sender */\n      caller\n        /* \"marriage_license.sol\":1419:1440  msg.sender == spouse2 */\n      0xffffffffffffffffffffffffffffffffffffffff\n      and\n      eq\n        /* \"marriage_license.sol\":1394:1440  msg.sender == spouse1 || msg.sender == spouse2 */\n    tag_128:\n        /* \"marriage_license.sol\":1386:1480  require(msg.sender == spouse1 || msg.sender == spouse2, \"Only spouses can call this function\") */\n      tag_129\n      jumpi\n      mload(0x40)\n      0x08c379a000000000000000000000000000000000000000000000000000000000\n      dup2\n      mstore\n      0x04\n      add\n      tag_130\n      swap1\n      tag_131\n      jump\t// in\n    tag_130:\n      mload(0x40)\n      dup1\n      swap2\n      sub\n      swap1\n      revert\n    tag_129:\n        /* \"marriage_license.sol\":2073:2082  isMarried */\n      0x07\n      0x14\n      swap1\n      sload\n      swap1\n      0x0100\n      exp\n      swap1\n      div\n      0xff\n      and\n        /* \"marriage_license.sol\":2065:2144  require(isMarried, \"Cannot produce wedding certificate for non-married people\") */\n      tag_133\n      jumpi\n      mload(0x40)\n      0x08c379a000000000000000000000000000000000000000000000000000000000\n      dup2\n      mstore\n      0x04\n      add\n      tag_134\n      swap1\n      tag_135\n      jump\t// in\n    tag_134:\n      mload(0x40)\n      dup1\n      swap2\n      sub\n      swap1\n      revert\n    tag_133:\n        /* \"marriage_license.sol\":2194:2201  spouse1 */\n      0x06\n      0x08\n      swap1\n      sload\n      swap1\n      0x0100\n      exp\n      swap1\n      div\n      0xffffffffffffffffffffffffffffffffffffffff\n      and\n        /* \"marriage_license.sol\":2163:2201  nftContract.ownerOf(token1) == spouse1 */\n      0xffffffffffffffffffffffffffffffffffffffff\n      and\n        /* \"marriage_license.sol\":2163:2174  nftContract */\n      0x0c\n      0x00\n      swap1\n      sload\n      swap1\n      0x0100\n      exp\n      swap1\n      div\n      0xffffffffffffffffffffffffffffffffffffffff\n      and\n        /* \"marriage_license.sol\":2163:2182  nftContract.ownerOf */\n      0xffffffffffffffffffffffffffffffffffffffff\n      and\n      0x6352211e\n        /* \"marriage_license.sol\":2183:2189  token1 */\n      0x06\n      0x00\n      swap1\n      sload\n      swap1\n      0x0100\n      exp\n      swap1\n      div\n      0xffffffff\n      and\n        /* \"marriage_license.sol\":2163:2190  nftContract.ownerOf(token1) */\n      mload(0x40)\n      dup3\n      0xffffffff\n      and\n      0xe0\n      shl\n      dup2\n      mstore\n      0x04\n      add\n      tag_136\n      swap2\n      swap1\n      tag_137\n      jump\t// in\n    tag_136:\n      0x20\n      mload(0x40)\n      dup1\n      dup4\n      sub\n      dup2\n      dup7\n      gas\n      staticcall\n      iszero\n      dup1\n      iszero\n      tag_139\n      jumpi\n      returndatasize\n      0x00\n      dup1\n      returndatacopy\n      revert(0x00, returndatasize)\n    tag_139:\n      pop\n      pop\n      pop\n      pop\n      mload(0x40)\n      returndatasize\n      not(0x1f)\n      0x1f\n      dup3\n      add\n      and\n      dup3\n      add\n      dup1\n      0x40\n      mstore\n      pop\n      dup2\n      add\n      swap1\n      tag_140\n      swap2\n      swap1\n      tag_141\n      jump\t// in\n    tag_140:\n        /* \"marriage_license.sol\":2163:2201  nftContract.ownerOf(token1) == spouse1 */\n      0xffffffffffffffffffffffffffffffffffffffff\n      and\n      eq\n        /* \"marriage_license.sol\":2163:2243  nftContract.ownerOf(token1) == spouse1 || nftContract.ownerOf(token2) == spouse2 */\n      dup1\n      tag_142\n      jumpi\n      pop\n        /* \"marriage_license.sol\":2236:2243  spouse2 */\n      0x07\n      0x00\n      swap1\n      sload\n      swap1\n      0x0100\n      exp\n      swap1\n      div\n      0xffffffffffffffffffffffffffffffffffffffff\n      and\n        /* \"marriage_license.sol\":2205:2243  nftContract.ownerOf(token2) == spouse2 */\n      0xffffffffffffffffffffffffffffffffffffffff\n      and\n        /* \"marriage_license.sol\":2205:2216  nftContract */\n      0x0c\n      0x00\n      swap1\n      sload\n      swap1\n      0x0100\n      exp\n      swap1\n      div\n      0xffffffffffffffffffffffffffffffffffffffff\n      and\n        /* \"marriage_license.sol\":2205:2224  nftContract.ownerOf */\n      0xffffffffffffffffffffffffffffffffffffffff\n      and\n      0x6352211e\n        /* \"marriage_license.sol\":2225:2231  token2 */\n      0x06\n      0x04\n      swap1\n      sload\n      swap1\n      0x0100\n      exp\n      swap1\n      div\n      0xffffffff\n      and\n        /* \"marriage_license.sol\":2205:2232  nftContract.ownerOf(token2) */\n      mload(0x40)\n      dup3\n      0xffffffff\n      and\n      0xe0\n      shl\n      dup2\n      mstore\n      0x04\n      add\n      tag_143\n      swap2\n      swap1\n      tag_137\n      jump\t// in\n    tag_143:\n      0x20\n      mload(0x40)\n      dup1\n      dup4\n      sub\n      dup2\n      dup7\n      gas\n      staticcall\n      iszero\n      dup1\n      iszero\n      tag_145\n      jumpi\n      returndatasize\n      0x00\n      dup1\n      returndatacopy\n      revert(0x00, returndatasize)\n    tag_145:\n      pop\n      pop\n      pop\n      pop\n      mload(0x40)\n      returndatasize\n      not(0x1f)\n      0x1f\n      dup3\n      add\n      and\n      dup3\n      add\n      dup1\n      0x40\n      mstore\n      pop\n      dup2\n      add\n      swap1\n      tag_146\n      swap2\n      swap1\n      tag_141\n      jump\t// in\n    tag_146:\n        /* \"marriage_license.sol\":2205:2243  nftContract.ownerOf(token2) == spouse2 */\n      0xffffffffffffffffffffffffffffffffffffffff\n      and\n      eq\n        /* \"marriage_license.sol\":2163:2243  nftContract.ownerOf(token1) == spouse1 || nftContract.ownerOf(token2) == spouse2 */\n    tag_142:\n        /* \"marriage_license.sol\":2155:2322  require(nftContract.ownerOf(token1) == spouse1 || nftContract.ownerOf(token2) == spouse2,\"Cannot create another wedding certificate when one exists for these spouses\") */\n      tag_147\n      jumpi\n      mload(0x40)\n      0x08c379a000000000000000000000000000000000000000000000000000000000\n      dup2\n      mstore\n      0x04\n      add\n      tag_148\n      swap1\n      tag_149\n      jump\t// in\n    tag_148:\n      mload(0x40)\n      dup1\n      swap2\n      sub\n      swap1\n      revert\n    tag_147:\n        /* \"marriage_license.sol\":2386:2387  1 */\n      0x01\n        /* \"marriage_license.sol\":2376:2382  token1 */\n      0x06\n      0x00\n        /* \"marriage_license.sol\":2376:2387  token1 += 1 */\n      dup3\n      dup3\n      dup3\n      swap1\n      sload\n      swap1\n      0x0100\n      exp\n      swap1\n      div\n      0xffffffff\n      and\n      tag_150\n      swap2\n      swap1\n      tag_151\n      jump\t// in\n    tag_150:\n      swap3\n      pop\n      0x0100\n      exp\n      dup2\n      sload\n      dup2\n      0xffffffff\n      mul\n      not\n      and\n      swap1\n      dup4\n      0xffffffff\n      and\n      mul\n      or\n      swap1\n      sstore\n      pop\n        /* \"marriage_license.sol\":2408:2409  1 */\n      0x01\n        /* \"marriage_license.sol\":2398:2404  token2 */\n      0x06\n      0x04\n        /* \"marriage_license.sol\":2398:2409  token2 += 1 */\n      dup3\n      dup3\n      dup3\n      swap1\n      sload\n      swap1\n      0x0100\n      exp\n      swap1\n      div\n      0xffffffff\n      and\n      tag_152\n      swap2\n      swap1\n      tag_151\n      jump\t// in\n    tag_152:\n      swap3\n      pop\n      0x0100\n      exp\n      dup2\n      sload\n      dup2\n      0xffffffff\n      mul\n      not\n      and\n      swap1\n      dup4\n      0xffffffff\n      and\n      mul\n      or\n      swap1\n      sstore\n      pop\n        /* \"marriage_license.sol\":2466:2488  _mint(spouse1, token1) */\n      tag_153\n        /* \"marriage_license.sol\":2472:2479  spouse1 */\n      0x06\n      0x08\n      swap1\n      sload\n      swap1\n      0x0100\n      exp\n      swap1\n      div\n      0xffffffffffffffffffffffffffffffffffffffff\n      and\n        /* \"marriage_license.sol\":2481:2487  token1 */\n      0x06\n      0x00\n      swap1\n      sload\n      swap1\n      0x0100\n      exp\n      swap1\n      div\n      0xffffffff\n      and\n        /* \"marriage_license.sol\":2466:2488  _mint(spouse1, token1) */\n      0xffffffff\n      and\n        /* \"marriage_license.sol\":2466:2471  _mint */\n      tag_154\n        /* \"marriage_license.sol\":2466:2488  _mint(spouse1, token1) */\n      jump\t// in\n    tag_153:\n        /* \"marriage_license.sol\":2499:2521  _mint(spouse2, token2) */\n      tag_155\n        /* \"marriage_license.sol\":2505:2512  spouse2 */\n      0x07\n      0x00\n      swap1\n      sload\n      swap1\n      0x0100\n      exp\n      swap1\n      div\n      0xffffffffffffffffffffffffffffffffffffffff\n      and\n        /* \"marriage_license.sol\":2514:2520  token2 */\n      0x06\n      0x04\n      swap1\n      sload\n      swap1\n      0x0100\n      exp\n      swap1\n      div\n      0xffffffff\n      and\n        /* \"marriage_license.sol\":2499:2521  _mint(spouse2, token2) */\n      0xffffffff\n      and\n        /* \"marriage_license.sol\":2499:2504  _mint */\n      tag_154\n        /* \"marriage_license.sol\":2499:2521  _mint(spouse2, token2) */\n      jump\t// in\n    tag_155:\n        /* \"marriage_license.sol\":2000:2529  function createWeddingCertificate() public onlySpouse {... */\n      jump\t// out\n        /* \"@openzeppelin/contracts/token/ERC721/ERC721.sol\":4787:4919  function safeTransferFrom(address from, address to, uint256 tokenId) public {... */\n    tag_56:\n        /* \"@openzeppelin/contracts/token/ERC721/ERC721.sol\":4873:4912  safeTransferFrom(from, to, tokenId, \"\") */\n      tag_157\n        /* \"@openzeppelin/contracts/token/ERC721/ERC721.sol\":4890:4894  from */\n      dup4\n        /* \"@openzeppelin/contracts/token/ERC721/ERC721.sol\":4896:4898  to */\n      dup4\n        /* \"@openzeppelin/contracts/token/ERC721/ERC721.sol\":4900:4907  tokenId */\n      dup4\n        /* \"@openzeppelin/contracts/token/ERC721/ERC721.sol\":4873:4912  safeTransferFrom(from, to, tokenId, \"\") */\n      mload(0x40)\n      dup1\n      0x20\n      add\n      0x40\n      mstore\n      dup1\n      0x00\n      dup2\n      mstore\n      pop\n        /* \"@openzeppelin/contracts/token/ERC721/ERC721.sol\":4873:4889  safeTransferFrom */\n      tag_83\n        /* \"@openzeppelin/contracts/token/ERC721/ERC721.sol\":4873:4912  safeTransferFrom(from, to, tokenId, \"\") */\n      jump\t// in\n    tag_157:\n        /* \"@openzeppelin/contracts/token/ERC721/ERC721.sol\":4787:4919  function safeTransferFrom(address from, address to, uint256 tokenId) public {... */\n      pop\n      pop\n      pop\n      jump\t// out\n        /* \"@openzeppelin/contracts/token/ERC721/ERC721.sol\":2185:2303  function ownerOf(uint256 tokenId) public view virtual returns (address) {... */\n    tag_59:\n        /* \"@openzeppelin/contracts/token/ERC721/ERC721.sol\":2248:2255  address */\n      0x00\n        /* \"@openzeppelin/contracts/token/ERC721/ERC721.sol\":2274:2296  _requireOwned(tokenId) */\n      tag_159\n        /* \"@openzeppelin/contracts/token/ERC721/ERC721.sol\":2288:2295  tokenId */\n      dup3\n        /* \"@openzeppelin/contracts/token/ERC721/ERC721.sol\":2274:2287  _requireOwned */\n      tag_110\n        /* \"@openzeppelin/contracts/token/ERC721/ERC721.sol\":2274:2296  _requireOwned(tokenId) */\n      jump\t// in\n    tag_159:\n        /* \"@openzeppelin/contracts/token/ERC721/ERC721.sol\":2267:2296  return _requireOwned(tokenId) */\n      swap1\n      pop\n        /* \"@openzeppelin/contracts/token/ERC721/ERC721.sol\":2185:2303  function ownerOf(uint256 tokenId) public view virtual returns (address) {... */\n      swap2\n      swap1\n      pop\n      jump\t// out\n        /* \"@openzeppelin/contracts/token/ERC721/ERC721.sol\":1920:2128  function balanceOf(address owner) public view virtual returns (uint256) {... */\n    tag_64:\n        /* \"@openzeppelin/contracts/token/ERC721/ERC721.sol\":1983:1990  uint256 */\n      0x00\n        /* \"@openzeppelin/contracts/token/ERC721/ERC721.sol\":2023:2024  0 */\n      dup1\n        /* \"@openzeppelin/contracts/token/ERC721/ERC721.sol\":2006:2025  owner == address(0) */\n      0xffffffffffffffffffffffffffffffffffffffff\n      and\n        /* \"@openzeppelin/contracts/token/ERC721/ERC721.sol\":2006:2011  owner */\n      dup3\n        /* \"@openzeppelin/contracts/token/ERC721/ERC721.sol\":2006:2025  owner == address(0) */\n      0xffffffffffffffffffffffffffffffffffffffff\n      and\n      sub\n        /* \"@openzeppelin/contracts/token/ERC721/ERC721.sol\":2002:2089  if (owner == address(0)) {... */\n      tag_161\n      jumpi\n        /* \"@openzeppelin/contracts/token/ERC721/ERC721.sol\":2075:2076  0 */\n      0x00\n        /* \"@openzeppelin/contracts/token/ERC721/ERC721.sol\":2048:2078  ERC721InvalidOwner(address(0)) */\n      mload(0x40)\n      0x89c62b6400000000000000000000000000000000000000000000000000000000\n      dup2\n      mstore\n      0x04\n      add\n      tag_162\n      swap2\n      swap1\n      tag_39\n      jump\t// in\n    tag_162:\n      mload(0x40)\n      dup1\n      swap2\n      sub\n      swap1\n      revert\n        /* \"@openzeppelin/contracts/token/ERC721/ERC721.sol\":2002:2089  if (owner == address(0)) {... */\n    tag_161:\n        /* \"@openzeppelin/contracts/token/ERC721/ERC721.sol\":2105:2114  _balances */\n      0x03\n        /* \"@openzeppelin/contracts/token/ERC721/ERC721.sol\":2105:2121  _balances[owner] */\n      0x00\n        /* \"@openzeppelin/contracts/token/ERC721/ERC721.sol\":2115:2120  owner */\n      dup4\n        /* \"@openzeppelin/contracts/token/ERC721/ERC721.sol\":2105:2121  _balances[owner] */\n      0xffffffffffffffffffffffffffffffffffffffff\n      and\n      0xffffffffffffffffffffffffffffffffffffffff\n      and\n      dup2\n      mstore\n      0x20\n      add\n      swap1\n      dup2\n      mstore\n      0x20\n      add\n      0x00\n      keccak256\n      sload\n        /* \"@openzeppelin/contracts/token/ERC721/ERC721.sol\":2098:2121  return _balances[owner] */\n      swap1\n      pop\n        /* \"@openzeppelin/contracts/token/ERC721/ERC721.sol\":1920:2128  function balanceOf(address owner) public view virtual returns (uint256) {... */\n      swap2\n      swap1\n      pop\n      jump\t// out\n        /* \"@openzeppelin/contracts/token/ERC721/ERC721.sol\":2518:2611  function symbol() public view virtual returns (string memory) {... */\n    tag_68:\n        /* \"@openzeppelin/contracts/token/ERC721/ERC721.sol\":2565:2578  string memory */\n      0x60\n        /* \"@openzeppelin/contracts/token/ERC721/ERC721.sol\":2597:2604  _symbol */\n      0x01\n        /* \"@openzeppelin/contracts/token/ERC721/ERC721.sol\":2590:2604  return _symbol */\n      dup1\n      sload\n      tag_164\n      swap1\n      tag_103\n      jump\t// in\n    tag_164:\n      dup1\n      0x1f\n      add\n      0x20\n      dup1\n      swap2\n      div\n      mul\n      0x20\n      add\n      mload(0x40)\n      swap1\n      dup2\n      add\n      0x40\n      mstore\n      dup1\n      swap3\n      swap2\n      swap1\n      dup2\n      dup2\n      mstore\n      0x20\n      add\n      dup3\n      dup1\n      sload\n      tag_165\n      swap1\n      tag_103\n      jump\t// in\n    tag_165:\n      dup1\n      iszero\n      tag_166\n      jumpi\n      dup1\n      0x1f\n      lt\n      tag_167\n      jumpi\n      0x0100\n      dup1\n      dup4\n      sload\n      div\n      mul\n      dup4\n      mstore\n      swap2\n      0x20\n      add\n      swap2\n      jump(tag_166)\n    tag_167:\n      dup3\n      add\n      swap2\n      swap1\n      0x00\n      mstore\n      keccak256(0x00, 0x20)\n      swap1\n    tag_168:\n      dup2\n      sload\n      dup2\n      mstore\n      swap1\n      0x01\n      add\n      swap1\n      0x20\n      add\n      dup1\n      dup4\n      gt\n      tag_168\n      jumpi\n      dup3\n      swap1\n      sub\n      0x1f\n      and\n      dup3\n      add\n      swap2\n    tag_166:\n      pop\n      pop\n      pop\n      pop\n      pop\n      swap1\n      pop\n        /* \"@openzeppelin/contracts/token/ERC721/ERC721.sol\":2518:2611  function symbol() public view virtual returns (string memory) {... */\n      swap1\n      jump\t// out\n        /* \"@openzeppelin/contracts/token/ERC721/ERC721.sol\":3718:3862  function setApprovalForAll(address operator, bool approved) public virtual {... */\n    tag_73:\n        /* \"@openzeppelin/contracts/token/ERC721/ERC721.sol\":3803:3855  _setApprovalForAll(_msgSender(), operator, approved) */\n      tag_170\n        /* \"@openzeppelin/contracts/token/ERC721/ERC721.sol\":3822:3834  _msgSender() */\n      tag_171\n        /* \"@openzeppelin/contracts/token/ERC721/ERC721.sol\":3822:3832  _msgSender */\n      tag_116\n        /* \"@openzeppelin/contracts/token/ERC721/ERC721.sol\":3822:3834  _msgSender() */\n      jump\t// in\n    tag_171:\n        /* \"@openzeppelin/contracts/token/ERC721/ERC721.sol\":3836:3844  operator */\n      dup4\n        /* \"@openzeppelin/contracts/token/ERC721/ERC721.sol\":3846:3854  approved */\n      dup4\n        /* \"@openzeppelin/contracts/token/ERC721/ERC721.sol\":3803:3821  _setApprovalForAll */\n      tag_172\n        /* \"@openzeppelin/contracts/token/ERC721/ERC721.sol\":3803:3855  _setApprovalForAll(_msgSender(), operator, approved) */\n      jump\t// in\n    tag_170:\n        /* \"@openzeppelin/contracts/token/ERC721/ERC721.sol\":3718:3862  function setApprovalForAll(address operator, bool approved) public virtual {... */\n      pop\n      pop\n      jump\t// out\n        /* \"marriage_license.sol\":360:381  bool public isMarried */\n    tag_75:\n      0x07\n      0x14\n      swap1\n      sload\n      swap1\n      0x0100\n      exp\n      swap1\n      div\n      0xff\n      and\n      dup2\n      jump\t// out\n        /* \"marriage_license.sol\":3528:4011  function divorce(uint256 tokenId) public onlySpouse {... */\n    tag_79:\n        /* \"marriage_license.sol\":1408:1415  spouse1 */\n      0x06\n      0x08\n      swap1\n      sload\n      swap1\n      0x0100\n      exp\n      swap1\n      div\n      0xffffffffffffffffffffffffffffffffffffffff\n      and\n        /* \"marriage_license.sol\":1394:1415  msg.sender == spouse1 */\n      0xffffffffffffffffffffffffffffffffffffffff\n      and\n        /* \"marriage_license.sol\":1394:1404  msg.sender */\n      caller\n        /* \"marriage_license.sol\":1394:1415  msg.sender == spouse1 */\n      0xffffffffffffffffffffffffffffffffffffffff\n      and\n      eq\n        /* \"marriage_license.sol\":1394:1440  msg.sender == spouse1 || msg.sender == spouse2 */\n      dup1\n      tag_174\n      jumpi\n      pop\n        /* \"marriage_license.sol\":1433:1440  spouse2 */\n      0x07\n      0x00\n      swap1\n      sload\n      swap1\n      0x0100\n      exp\n      swap1\n      div\n      0xffffffffffffffffffffffffffffffffffffffff\n      and\n        /* \"marriage_license.sol\":1419:1440  msg.sender == spouse2 */\n      0xffffffffffffffffffffffffffffffffffffffff\n      and\n        /* \"marriage_license.sol\":1419:1429  msg.sender */\n      caller\n        /* \"marriage_license.sol\":1419:1440  msg.sender == spouse2 */\n      0xffffffffffffffffffffffffffffffffffffffff\n      and\n      eq\n        /* \"marriage_license.sol\":1394:1440  msg.sender == spouse1 || msg.sender == spouse2 */\n    tag_174:\n        /* \"marriage_license.sol\":1386:1480  require(msg.sender == spouse1 || msg.sender == spouse2, \"Only spouses can call this function\") */\n      tag_175\n      jumpi\n      mload(0x40)\n      0x08c379a000000000000000000000000000000000000000000000000000000000\n      dup2\n      mstore\n      0x04\n      add\n      tag_176\n      swap1\n      tag_131\n      jump\t// in\n    tag_176:\n      mload(0x40)\n      dup1\n      swap2\n      sub\n      swap1\n      revert\n    tag_175:\n        /* \"marriage_license.sol\":3599:3608  isMarried */\n      0x07\n      0x14\n      swap1\n      sload\n      swap1\n      0x0100\n      exp\n      swap1\n      div\n      0xff\n      and\n        /* \"marriage_license.sol\":3591:3646  require(isMarried, \"Non-married people cannot divorce\") */\n      tag_178\n      jumpi\n      mload(0x40)\n      0x08c379a000000000000000000000000000000000000000000000000000000000\n      dup2\n      mstore\n      0x04\n      add\n      tag_179\n      swap1\n      tag_180\n      jump\t// in\n    tag_179:\n      mload(0x40)\n      dup1\n      swap2\n      sub\n      swap1\n      revert\n    tag_178:\n        /* \"marriage_license.sol\":3657:3685  bool enoughParticipantsVoted */\n      0x00\n        /* \"marriage_license.sol\":3688:3731  enoughParticipantsVote(tokenId, msg.sender) */\n      tag_181\n        /* \"marriage_license.sol\":3711:3718  tokenId */\n      dup3\n        /* \"marriage_license.sol\":3720:3730  msg.sender */\n      caller\n        /* \"marriage_license.sol\":3688:3710  enoughParticipantsVote */\n      tag_182\n        /* \"marriage_license.sol\":3688:3731  enoughParticipantsVote(tokenId, msg.sender) */\n      jump\t// in\n    tag_181:\n        /* \"marriage_license.sol\":3657:3731  bool enoughParticipantsVoted = enoughParticipantsVote(tokenId, msg.sender) */\n      swap1\n      pop\n        /* \"marriage_license.sol\":3750:3773  enoughParticipantsVoted */\n      dup1\n        /* \"marriage_license.sol\":3742:3822  require(enoughParticipantsVoted, \"Not enough participants agree to the divorce\") */\n      tag_183\n      jumpi\n      mload(0x40)\n      0x08c379a000000000000000000000000000000000000000000000000000000000\n      dup2\n      mstore\n      0x04\n      add\n      tag_184\n      swap1\n      tag_185\n      jump\t// in\n    tag_184:\n      mload(0x40)\n      dup1\n      swap2\n      sub\n      swap1\n      revert\n    tag_183:\n        /* \"marriage_license.sol\":3869:3882  _burn(token1) */\n      tag_186\n        /* \"marriage_license.sol\":3875:3881  token1 */\n      0x06\n      0x00\n      swap1\n      sload\n      swap1\n      0x0100\n      exp\n      swap1\n      div\n      0xffffffff\n      and\n        /* \"marriage_license.sol\":3869:3882  _burn(token1) */\n      0xffffffff\n      and\n        /* \"marriage_license.sol\":3869:3874  _burn */\n      tag_187\n        /* \"marriage_license.sol\":3869:3882  _burn(token1) */\n      jump\t// in\n    tag_186:\n        /* \"marriage_license.sol\":3893:3906  _burn(token2) */\n      tag_188\n        /* \"marriage_license.sol\":3899:3905  token2 */\n      0x06\n      0x04\n      swap1\n      sload\n      swap1\n      0x0100\n      exp\n      swap1\n      div\n      0xffffffff\n      and\n        /* \"marriage_license.sol\":3893:3906  _burn(token2) */\n      0xffffffff\n      and\n        /* \"marriage_license.sol\":3893:3898  _burn */\n      tag_187\n        /* \"marriage_license.sol\":3893:3906  _burn(token2) */\n      jump\t// in\n    tag_188:\n        /* \"marriage_license.sol\":3957:3962  false */\n      0x00\n        /* \"marriage_license.sol\":3945:3954  isMarried */\n      0x07\n      0x14\n        /* \"marriage_license.sol\":3945:3962  isMarried = false */\n      0x0100\n      exp\n      dup2\n      sload\n      dup2\n      0xff\n      mul\n      not\n      and\n      swap1\n      dup4\n      iszero\n      iszero\n      mul\n      or\n      swap1\n      sstore\n      pop\n        /* \"marriage_license.sol\":3995:4002  spouse2 */\n      0x07\n      0x00\n      swap1\n      sload\n      swap1\n      0x0100\n      exp\n      swap1\n      div\n      0xffffffffffffffffffffffffffffffffffffffff\n      and\n        /* \"marriage_license.sol\":3978:4003  Divorce(spouse1, spouse2) */\n      0xffffffffffffffffffffffffffffffffffffffff\n      and\n        /* \"marriage_license.sol\":3986:3993  spouse1 */\n      0x06\n      0x08\n      swap1\n      sload\n      swap1\n      0x0100\n      exp\n      swap1\n      div\n      0xffffffffffffffffffffffffffffffffffffffff\n      and\n        /* \"marriage_license.sol\":3978:4003  Divorce(spouse1, spouse2) */\n      0xffffffffffffffffffffffffffffffffffffffff\n      and\n      0x6077edea937d666f6b546e152b1e3b4c1632f0b238e580d25b0c3a589487bfda\n      mload(0x40)\n      mload(0x40)\n      dup1\n      swap2\n      sub\n      swap1\n      log3\n        /* \"marriage_license.sol\":3580:4011  {... */\n      pop\n        /* \"marriage_license.sol\":3528:4011  function divorce(uint256 tokenId) public onlySpouse {... */\n      pop\n      jump\t// out\n        /* \"@openzeppelin/contracts/token/ERC721/ERC721.sol\":4985:5193  function safeTransferFrom(address from, address to, uint256 tokenId, bytes memory data) public virtual {... */\n    tag_83:\n        /* \"@openzeppelin/contracts/token/ERC721/ERC721.sol\":5098:5129  transferFrom(from, to, tokenId) */\n      tag_190\n        /* \"@openzeppelin/contracts/token/ERC721/ERC721.sol\":5111:5115  from */\n      dup5\n        /* \"@openzeppelin/contracts/token/ERC721/ERC721.sol\":5117:5119  to */\n      dup5\n        /* \"@openzeppelin/contracts/token/ERC721/ERC721.sol\":5121:5128  tokenId */\n      dup5\n        /* \"@openzeppelin/contracts/token/ERC721/ERC721.sol\":5098:5110  transferFrom */\n      tag_47\n        /* \"@openzeppelin/contracts/token/ERC721/ERC721.sol\":5098:5129  transferFrom(from, to, tokenId) */\n      jump\t// in\n    tag_190:\n        /* \"@openzeppelin/contracts/token/ERC721/ERC721.sol\":5139:5186  _checkOnERC721Received(from, to, tokenId, data) */\n      tag_191\n        /* \"@openzeppelin/contracts/token/ERC721/ERC721.sol\":5162:5166  from */\n      dup5\n        /* \"@openzeppelin/contracts/token/ERC721/ERC721.sol\":5168:5170  to */\n      dup5\n        /* \"@openzeppelin/contracts/token/ERC721/ERC721.sol\":5172:5179  tokenId */\n      dup5\n        /* \"@openzeppelin/contracts/token/ERC721/ERC721.sol\":5181:5185  data */\n      dup5\n        /* \"@openzeppelin/contracts/token/ERC721/ERC721.sol\":5139:5161  _checkOnERC721Received */\n      tag_192\n        /* \"@openzeppelin/contracts/token/ERC721/ERC721.sol\":5139:5186  _checkOnERC721Received(from, to, tokenId, data) */\n      jump\t// in\n    tag_191:\n        /* \"@openzeppelin/contracts/token/ERC721/ERC721.sol\":4985:5193  function safeTransferFrom(address from, address to, uint256 tokenId, bytes memory data) public virtual {... */\n      pop\n      pop\n      pop\n      pop\n      jump\t// out\n        /* \"marriage_license.sol\":2537:3520  function authorizeAccounts(address authorizeAddress) public onlySpouse {... */\n    tag_86:\n        /* \"marriage_license.sol\":1408:1415  spouse1 */\n      0x06\n      0x08\n      swap1\n      sload\n      swap1\n      0x0100\n      exp\n      swap1\n      div\n      0xffffffffffffffffffffffffffffffffffffffff\n      and\n        /* \"marriage_license.sol\":1394:1415  msg.sender == spouse1 */\n      0xffffffffffffffffffffffffffffffffffffffff\n      and\n        /* \"marriage_license.sol\":1394:1404  msg.sender */\n      caller\n        /* \"marriage_license.sol\":1394:1415  msg.sender == spouse1 */\n      0xffffffffffffffffffffffffffffffffffffffff\n      and\n      eq\n        /* \"marriage_license.sol\":1394:1440  msg.sender == spouse1 || msg.sender == spouse2 */\n      dup1\n      tag_194\n      jumpi\n      pop\n        /* \"marriage_license.sol\":1433:1440  spouse2 */\n      0x07\n      0x00\n      swap1\n      sload\n      swap1\n      0x0100\n      exp\n      swap1\n      div\n      0xffffffffffffffffffffffffffffffffffffffff\n      and\n        /* \"marriage_license.sol\":1419:1440  msg.sender == spouse2 */\n      0xffffffffffffffffffffffffffffffffffffffff\n      and\n        /* \"marriage_license.sol\":1419:1429  msg.sender */\n      caller\n        /* \"marriage_license.sol\":1419:1440  msg.sender == spouse2 */\n      0xffffffffffffffffffffffffffffffffffffffff\n      and\n      eq\n        /* \"marriage_license.sol\":1394:1440  msg.sender == spouse1 || msg.sender == spouse2 */\n    tag_194:\n        /* \"marriage_license.sol\":1386:1480  require(msg.sender == spouse1 || msg.sender == spouse2, \"Only spouses can call this function\") */\n      tag_195\n      jumpi\n      mload(0x40)\n      0x08c379a000000000000000000000000000000000000000000000000000000000\n      dup2\n      mstore\n      0x04\n      add\n      tag_196\n      swap1\n      tag_131\n      jump\t// in\n    tag_196:\n      mload(0x40)\n      dup1\n      swap2\n      sub\n      swap1\n      revert\n    tag_195:\n        /* \"marriage_license.sol\":2684:2691  uint8 i */\n      0x00\n        /* \"marriage_license.sol\":2680:2821  for(uint8 i = 0; i < 3; i++) {... */\n    tag_198:\n        /* \"marriage_license.sol\":2701:2702  3 */\n      0x03\n        /* \"marriage_license.sol\":2697:2698  i */\n      dup2\n        /* \"marriage_license.sol\":2697:2702  i < 3 */\n      0xff\n      and\n      lt\n        /* \"marriage_license.sol\":2680:2821  for(uint8 i = 0; i < 3; i++) {... */\n      iszero\n      tag_199\n      jumpi\n        /* \"marriage_license.sol\":2758:2774  authorizeAddress */\n      dup2\n        /* \"marriage_license.sol\":2732:2774  authorizedAddresses[i] != authorizeAddress */\n      0xffffffffffffffffffffffffffffffffffffffff\n      and\n        /* \"marriage_license.sol\":2732:2751  authorizedAddresses */\n      0x0a\n        /* \"marriage_license.sol\":2752:2753  i */\n      dup3\n        /* \"marriage_license.sol\":2732:2754  authorizedAddresses[i] */\n      0xff\n      and\n      dup2\n      sload\n      dup2\n      lt\n      tag_201\n      jumpi\n      tag_202\n      tag_203\n      jump\t// in\n    tag_202:\n    tag_201:\n      swap1\n      0x00\n      mstore\n      keccak256(0x00, 0x20)\n      add\n      0x00\n      swap1\n      sload\n      swap1\n      0x0100\n      exp\n      swap1\n      div\n      0xffffffffffffffffffffffffffffffffffffffff\n      and\n        /* \"marriage_license.sol\":2732:2774  authorizedAddresses[i] != authorizeAddress */\n      0xffffffffffffffffffffffffffffffffffffffff\n      and\n      sub\n        /* \"marriage_license.sol\":2724:2809  require(authorizedAddresses[i] != authorizeAddress, \"Cannot re-authorize an address\") */\n      tag_205\n      jumpi\n      mload(0x40)\n      0x08c379a000000000000000000000000000000000000000000000000000000000\n      dup2\n      mstore\n      0x04\n      add\n      tag_206\n      swap1\n      tag_207\n      jump\t// in\n    tag_206:\n      mload(0x40)\n      dup1\n      swap2\n      sub\n      swap1\n      revert\n    tag_205:\n        /* \"marriage_license.sol\":2704:2707  i++ */\n      dup1\n      dup1\n      tag_208\n      swap1\n      tag_209\n      jump\t// in\n    tag_208:\n      swap2\n      pop\n      pop\n        /* \"marriage_license.sol\":2680:2821  for(uint8 i = 0; i < 3; i++) {... */\n      jump(tag_198)\n    tag_199:\n      pop\n        /* \"marriage_license.sol\":2915:2922  spouse1 */\n      0x06\n      0x08\n      swap1\n      sload\n      swap1\n      0x0100\n      exp\n      swap1\n      div\n      0xffffffffffffffffffffffffffffffffffffffff\n      and\n        /* \"marriage_license.sol\":2901:2922  msg.sender == spouse1 */\n      0xffffffffffffffffffffffffffffffffffffffff\n      and\n        /* \"marriage_license.sol\":2901:2911  msg.sender */\n      caller\n        /* \"marriage_license.sol\":2901:2922  msg.sender == spouse1 */\n      0xffffffffffffffffffffffffffffffffffffffff\n      and\n      sub\n        /* \"marriage_license.sol\":2898:3101  if(msg.sender == spouse1) {... */\n      tag_210\n      jumpi\n        /* \"marriage_license.sol\":2983:2984  1 */\n      0x01\n        /* \"marriage_license.sol\":2939:2959  authorizedVotingList */\n      0x0b\n        /* \"marriage_license.sol\":2939:2977  authorizedVotingList[authorizeAddress] */\n      0x00\n        /* \"marriage_license.sol\":2960:2976  authorizeAddress */\n      dup4\n        /* \"marriage_license.sol\":2939:2977  authorizedVotingList[authorizeAddress] */\n      0xffffffffffffffffffffffffffffffffffffffff\n      and\n      0xffffffffffffffffffffffffffffffffffffffff\n      and\n      dup2\n      mstore\n      0x20\n      add\n      swap1\n      dup2\n      mstore\n      0x20\n      add\n      0x00\n      keccak256\n        /* \"marriage_license.sol\":2978:2979  0 */\n      0x00\n        /* \"marriage_license.sol\":2939:2980  authorizedVotingList[authorizeAddress][0] */\n      dup2\n      sload\n      dup2\n      lt\n      tag_211\n      jumpi\n      tag_212\n      tag_203\n      jump\t// in\n    tag_212:\n    tag_211:\n      swap1\n      0x00\n      mstore\n      keccak256(0x00, 0x20)\n      swap1\n      0x20\n      swap2\n      dup3\n      dup3\n      div\n      add\n      swap2\n      swap1\n      mod\n        /* \"marriage_license.sol\":2939:2984  authorizedVotingList[authorizeAddress][0] = 1 */\n      0x0100\n      exp\n      dup2\n      sload\n      dup2\n      0xff\n      mul\n      not\n      and\n      swap1\n      dup4\n      0xff\n      and\n      mul\n      or\n      swap1\n      sstore\n      pop\n        /* \"marriage_license.sol\":2898:3101  if(msg.sender == spouse1) {... */\n      jump(tag_214)\n    tag_210:\n        /* \"marriage_license.sol\":3020:3027  spouse2 */\n      0x07\n      0x00\n      swap1\n      sload\n      swap1\n      0x0100\n      exp\n      swap1\n      div\n      0xffffffffffffffffffffffffffffffffffffffff\n      and\n        /* \"marriage_license.sol\":3006:3027  msg.sender == spouse2 */\n      0xffffffffffffffffffffffffffffffffffffffff\n      and\n        /* \"marriage_license.sol\":3006:3016  msg.sender */\n      caller\n        /* \"marriage_license.sol\":3006:3027  msg.sender == spouse2 */\n      0xffffffffffffffffffffffffffffffffffffffff\n      and\n      sub\n        /* \"marriage_license.sol\":3002:3101  if (msg.sender == spouse2) {... */\n      tag_215\n      jumpi\n        /* \"marriage_license.sol\":3088:3089  1 */\n      0x01\n        /* \"marriage_license.sol\":3044:3064  authorizedVotingList */\n      0x0b\n        /* \"marriage_license.sol\":3044:3082  authorizedVotingList[authorizeAddress] */\n      0x00\n        /* \"marriage_license.sol\":3065:3081  authorizeAddress */\n      dup4\n        /* \"marriage_license.sol\":3044:3082  authorizedVotingList[authorizeAddress] */\n      0xffffffffffffffffffffffffffffffffffffffff\n      and\n      0xffffffffffffffffffffffffffffffffffffffff\n      and\n      dup2\n      mstore\n      0x20\n      add\n      swap1\n      dup2\n      mstore\n      0x20\n      add\n      0x00\n      keccak256\n        /* \"marriage_license.sol\":3083:3084  1 */\n      0x01\n        /* \"marriage_license.sol\":3044:3085  authorizedVotingList[authorizeAddress][1] */\n      dup2\n      sload\n      dup2\n      lt\n      tag_216\n      jumpi\n      tag_217\n      tag_203\n      jump\t// in\n    tag_217:\n    tag_216:\n      swap1\n      0x00\n      mstore\n      keccak256(0x00, 0x20)\n      swap1\n      0x20\n      swap2\n      dup3\n      dup3\n      div\n      add\n      swap2\n      swap1\n      mod\n        /* \"marriage_license.sol\":3044:3089  authorizedVotingList[authorizeAddress][1] = 1 */\n      0x0100\n      exp\n      dup2\n      sload\n      dup2\n      0xff\n      mul\n      not\n      and\n      swap1\n      dup4\n      0xff\n      and\n      mul\n      or\n      swap1\n      sstore\n      pop\n        /* \"marriage_license.sol\":3002:3101  if (msg.sender == spouse2) {... */\n    tag_215:\n        /* \"marriage_license.sol\":2898:3101  if(msg.sender == spouse1) {... */\n    tag_214:\n        /* \"marriage_license.sol\":3339:3340  2 */\n      0x02\n        /* \"marriage_license.sol\":3294:3314  authorizedVotingList */\n      0x0b\n        /* \"marriage_license.sol\":3294:3332  authorizedVotingList[authorizeAddress] */\n      0x00\n        /* \"marriage_license.sol\":3315:3331  authorizeAddress */\n      dup4\n        /* \"marriage_license.sol\":3294:3332  authorizedVotingList[authorizeAddress] */\n      0xffffffffffffffffffffffffffffffffffffffff\n      and\n      0xffffffffffffffffffffffffffffffffffffffff\n      and\n      dup2\n      mstore\n      0x20\n      add\n      swap1\n      dup2\n      mstore\n      0x20\n      add\n      0x00\n      keccak256\n        /* \"marriage_license.sol\":3333:3334  1 */\n      0x01\n        /* \"marriage_license.sol\":3294:3335  authorizedVotingList[authorizeAddress][1] */\n      dup2\n      sload\n      dup2\n      lt\n      tag_219\n      jumpi\n      tag_220\n      tag_203\n      jump\t// in\n    tag_220:\n    tag_219:\n      swap1\n      0x00\n      mstore\n      keccak256(0x00, 0x20)\n      swap1\n      0x20\n      swap2\n      dup3\n      dup3\n      div\n      add\n      swap2\n      swap1\n      mod\n      swap1\n      sload\n      swap1\n      0x0100\n      exp\n      swap1\n      div\n      0xff\n      and\n        /* \"marriage_license.sol\":3252:3272  authorizedVotingList */\n      0x0b\n        /* \"marriage_license.sol\":3252:3290  authorizedVotingList[authorizeAddress] */\n      0x00\n        /* \"marriage_license.sol\":3273:3289  authorizeAddress */\n      dup5\n        /* \"marriage_license.sol\":3252:3290  authorizedVotingList[authorizeAddress] */\n      0xffffffffffffffffffffffffffffffffffffffff\n      and\n      0xffffffffffffffffffffffffffffffffffffffff\n      and\n      dup2\n      mstore\n      0x20\n      add\n      swap1\n      dup2\n      mstore\n      0x20\n      add\n      0x00\n      keccak256\n        /* \"marriage_license.sol\":3291:3292  0 */\n      0x00\n        /* \"marriage_license.sol\":3252:3293  authorizedVotingList[authorizeAddress][0] */\n      dup2\n      sload\n      dup2\n      lt\n      tag_222\n      jumpi\n      tag_223\n      tag_203\n      jump\t// in\n    tag_223:\n    tag_222:\n      swap1\n      0x00\n      mstore\n      keccak256(0x00, 0x20)\n      swap1\n      0x20\n      swap2\n      dup3\n      dup3\n      div\n      add\n      swap2\n      swap1\n      mod\n      swap1\n      sload\n      swap1\n      0x0100\n      exp\n      swap1\n      div\n      0xff\n      and\n        /* \"marriage_license.sol\":3252:3335  authorizedVotingList[authorizeAddress][0]+authorizedVotingList[authorizeAddress][1] */\n      tag_225\n      swap2\n      swap1\n      tag_226\n      jump\t// in\n    tag_225:\n        /* \"marriage_license.sol\":3252:3340  authorizedVotingList[authorizeAddress][0]+authorizedVotingList[authorizeAddress][1] == 2 */\n      0xff\n      and\n      sub\n        /* \"marriage_license.sol\":3249:3513  if(authorizedVotingList[authorizeAddress][0]+authorizedVotingList[authorizeAddress][1] == 2) {... */\n      tag_227\n      jumpi\n        /* \"marriage_license.sol\":3381:3382  1 */\n      0x01\n        /* \"marriage_license.sol\":3357:3377  verifyAddressesToken */\n      0x09\n      0x00\n        /* \"marriage_license.sol\":3357:3382  verifyAddressesToken += 1 */\n      dup3\n      dup3\n      dup3\n      swap1\n      sload\n      swap1\n      0x0100\n      exp\n      swap1\n      div\n      0xffffffff\n      and\n      tag_228\n      swap2\n      swap1\n      tag_151\n      jump\t// in\n    tag_228:\n      swap3\n      pop\n      0x0100\n      exp\n      dup2\n      sload\n      dup2\n      0xffffffff\n      mul\n      not\n      and\n      swap1\n      dup4\n      0xffffffff\n      and\n      mul\n      or\n      swap1\n      sstore\n      pop\n        /* \"marriage_license.sol\":3397:3416  authorizedAddresses */\n      0x0a\n        /* \"marriage_license.sol\":3422:3438  authorizeAddress */\n      dup2\n        /* \"marriage_license.sol\":3397:3439  authorizedAddresses.push(authorizeAddress) */\n      swap1\n      dup1\n      0x01\n      dup2\n      sload\n      add\n      dup1\n      dup3\n      sstore\n      dup1\n      swap2\n      pop\n      pop\n      0x01\n      swap1\n      sub\n      swap1\n      0x00\n      mstore\n      keccak256(0x00, 0x20)\n      add\n      0x00\n      swap1\n      swap2\n      swap1\n      swap2\n      swap1\n      swap2\n      0x0100\n      exp\n      dup2\n      sload\n      dup2\n      0xffffffffffffffffffffffffffffffffffffffff\n      mul\n      not\n      and\n      swap1\n      dup4\n      0xffffffffffffffffffffffffffffffffffffffff\n      and\n      mul\n      or\n      swap1\n      sstore\n      pop\n        /* \"marriage_license.sol\":3456:3501  _mint(authorizeAddress, verifyAddressesToken) */\n      tag_230\n        /* \"marriage_license.sol\":3462:3478  authorizeAddress */\n      dup2\n        /* \"marriage_license.sol\":3480:3500  verifyAddressesToken */\n      0x09\n      0x00\n      swap1\n      sload\n      swap1\n      0x0100\n      exp\n      swap1\n      div\n      0xffffffff\n      and\n        /* \"marriage_license.sol\":3456:3501  _mint(authorizeAddress, verifyAddressesToken) */\n      0xffffffff\n      and\n        /* \"marriage_license.sol\":3456:3461  _mint */\n      tag_154\n        /* \"marriage_license.sol\":3456:3501  _mint(authorizeAddress, verifyAddressesToken) */\n      jump\t// in\n    tag_230:\n        /* \"marriage_license.sol\":3249:3513  if(authorizedVotingList[authorizeAddress][0]+authorizedVotingList[authorizeAddress][1] == 2) {... */\n    tag_227:\n        /* \"marriage_license.sol\":2537:3520  function authorizeAccounts(address authorizeAddress) public onlySpouse {... */\n      pop\n      jump\t// out\n        /* \"@openzeppelin/contracts/token/ERC721/ERC721.sol\":2677:2932  function tokenURI(uint256 tokenId) public view virtual returns (string memory) {... */\n    tag_89:\n        /* \"@openzeppelin/contracts/token/ERC721/ERC721.sol\":2741:2754  string memory */\n      0x60\n        /* \"@openzeppelin/contracts/token/ERC721/ERC721.sol\":2766:2788  _requireOwned(tokenId) */\n      tag_232\n        /* \"@openzeppelin/contracts/token/ERC721/ERC721.sol\":2780:2787  tokenId */\n      dup3\n        /* \"@openzeppelin/contracts/token/ERC721/ERC721.sol\":2766:2779  _requireOwned */\n      tag_110\n        /* \"@openzeppelin/contracts/token/ERC721/ERC721.sol\":2766:2788  _requireOwned(tokenId) */\n      jump\t// in\n    tag_232:\n      pop\n        /* \"@openzeppelin/contracts/token/ERC721/ERC721.sol\":2799:2820  string memory baseURI */\n      0x00\n        /* \"@openzeppelin/contracts/token/ERC721/ERC721.sol\":2823:2833  _baseURI() */\n      tag_233\n        /* \"@openzeppelin/contracts/token/ERC721/ERC721.sol\":2823:2831  _baseURI */\n      tag_234\n        /* \"@openzeppelin/contracts/token/ERC721/ERC721.sol\":2823:2833  _baseURI() */\n      jump\t// in\n    tag_233:\n        /* \"@openzeppelin/contracts/token/ERC721/ERC721.sol\":2799:2833  string memory baseURI = _baseURI() */\n      swap1\n      pop\n        /* \"@openzeppelin/contracts/token/ERC721/ERC721.sol\":2874:2875  0 */\n      0x00\n        /* \"@openzeppelin/contracts/token/ERC721/ERC721.sol\":2856:2863  baseURI */\n      dup2\n        /* \"@openzeppelin/contracts/token/ERC721/ERC721.sol\":2850:2871  bytes(baseURI).length */\n      mload\n        /* \"@openzeppelin/contracts/token/ERC721/ERC721.sol\":2850:2875  bytes(baseURI).length > 0 */\n      gt\n        /* \"@openzeppelin/contracts/token/ERC721/ERC721.sol\":2850:2925  bytes(baseURI).length > 0 ? string.concat(baseURI, tokenId.toString()) : \"\" */\n      tag_235\n      jumpi\n      mload(0x40)\n      dup1\n      0x20\n      add\n      0x40\n      mstore\n      dup1\n      0x00\n      dup2\n      mstore\n      pop\n      jump(tag_236)\n    tag_235:\n        /* \"@openzeppelin/contracts/token/ERC721/ERC721.sol\":2892:2899  baseURI */\n      dup1\n        /* \"@openzeppelin/contracts/token/ERC721/ERC721.sol\":2901:2919  tokenId.toString() */\n      tag_237\n        /* \"@openzeppelin/contracts/token/ERC721/ERC721.sol\":2901:2908  tokenId */\n      dup5\n        /* \"@openzeppelin/contracts/token/ERC721/ERC721.sol\":2901:2917  tokenId.toString */\n      tag_238\n        /* \"@openzeppelin/contracts/token/ERC721/ERC721.sol\":2901:2919  tokenId.toString() */\n      jump\t// in\n    tag_237:\n        /* \"@openzeppelin/contracts/token/ERC721/ERC721.sol\":2878:2920  string.concat(baseURI, tokenId.toString()) */\n      add(0x20, mload(0x40))\n      tag_239\n      swap3\n      swap2\n      swap1\n      tag_240\n      jump\t// in\n    tag_239:\n      mload(0x40)\n      0x20\n      dup2\n      dup4\n      sub\n      sub\n      dup2\n      mstore\n      swap1\n      0x40\n      mstore\n        /* \"@openzeppelin/contracts/token/ERC721/ERC721.sol\":2850:2925  bytes(baseURI).length > 0 ? string.concat(baseURI, tokenId.toString()) : \"\" */\n    tag_236:\n        /* \"@openzeppelin/contracts/token/ERC721/ERC721.sol\":2843:2925  return bytes(baseURI).length > 0 ? string.concat(baseURI, tokenId.toString()) : \"\" */\n      swap2\n      pop\n      pop\n        /* \"@openzeppelin/contracts/token/ERC721/ERC721.sol\":2677:2932  function tokenURI(uint256 tokenId) public view virtual returns (string memory) {... */\n      swap2\n      swap1\n      pop\n      jump\t// out\n        /* \"@openzeppelin/contracts/token/ERC721/ERC721.sol\":3928:4081  function isApprovedForAll(address owner, address operator) public view virtual returns (bool) {... */\n    tag_94:\n        /* \"@openzeppelin/contracts/token/ERC721/ERC721.sol\":4016:4020  bool */\n      0x00\n        /* \"@openzeppelin/contracts/token/ERC721/ERC721.sol\":4039:4057  _operatorApprovals */\n      0x05\n        /* \"@openzeppelin/contracts/token/ERC721/ERC721.sol\":4039:4064  _operatorApprovals[owner] */\n      0x00\n        /* \"@openzeppelin/contracts/token/ERC721/ERC721.sol\":4058:4063  owner */\n      dup5\n        /* \"@openzeppelin/contracts/token/ERC721/ERC721.sol\":4039:4064  _operatorApprovals[owner] */\n      0xffffffffffffffffffffffffffffffffffffffff\n      and\n      0xffffffffffffffffffffffffffffffffffffffff\n      and\n      dup2\n      mstore\n      0x20\n      add\n      swap1\n      dup2\n      mstore\n      0x20\n      add\n      0x00\n      keccak256\n        /* \"@openzeppelin/contracts/token/ERC721/ERC721.sol\":4039:4074  _operatorApprovals[owner][operator] */\n      0x00\n        /* \"@openzeppelin/contracts/token/ERC721/ERC721.sol\":4065:4073  operator */\n      dup4\n        /* \"@openzeppelin/contracts/token/ERC721/ERC721.sol\":4039:4074  _operatorApprovals[owner][operator] */\n      0xffffffffffffffffffffffffffffffffffffffff\n      and\n      0xffffffffffffffffffffffffffffffffffffffff\n      and\n      dup2\n      mstore\n      0x20\n      add\n      swap1\n      dup2\n      mstore\n      0x20\n      add\n      0x00\n      keccak256\n      0x00\n      swap1\n      sload\n      swap1\n      0x0100\n      exp\n      swap1\n      div\n      0xff\n      and\n        /* \"@openzeppelin/contracts/token/ERC721/ERC721.sol\":4032:4074  return _operatorApprovals[owner][operator] */\n      swap1\n      pop\n        /* \"@openzeppelin/contracts/token/ERC721/ERC721.sol\":3928:4081  function isApprovedForAll(address owner, address operator) public view virtual returns (bool) {... */\n      swap3\n      swap2\n      pop\n      pop\n      jump\t// out\n        /* \"@openzeppelin/contracts/utils/introspection/ERC165.sol\":762:908  function supportsInterface(bytes4 interfaceId) public view virtual returns (bool) {... */\n    tag_100:\n        /* \"@openzeppelin/contracts/utils/introspection/ERC165.sol\":838:842  bool */\n      0x00\n        /* \"@openzeppelin/contracts/utils/introspection/ERC165.sol\":876:901  type(IERC165).interfaceId */\n      0x01ffc9a700000000000000000000000000000000000000000000000000000000\n        /* \"@openzeppelin/contracts/utils/introspection/ERC165.sol\":861:901  interfaceId == type(IERC165).interfaceId */\n      not(0xffffffffffffffffffffffffffffffffffffffffffffffffffffffff)\n      and\n        /* \"@openzeppelin/contracts/utils/introspection/ERC165.sol\":861:872  interfaceId */\n      dup3\n        /* \"@openzeppelin/contracts/utils/introspection/ERC165.sol\":861:901  interfaceId == type(IERC165).interfaceId */\n      not(0xffffffffffffffffffffffffffffffffffffffffffffffffffffffff)\n      and\n      eq\n        /* \"@openzeppelin/contracts/utils/introspection/ERC165.sol\":854:901  return interfaceId == type(IERC165).interfaceId */\n      swap1\n      pop\n        /* \"@openzeppelin/contracts/utils/introspection/ERC165.sol\":762:908  function supportsInterface(bytes4 interfaceId) public view virtual returns (bool) {... */\n      swap2\n      swap1\n      pop\n      jump\t// out\n        /* \"@openzeppelin/contracts/token/ERC721/ERC721.sol\":16138:16379  function _requireOwned(uint256 tokenId) internal view returns (address) {... */\n    tag_110:\n        /* \"@openzeppelin/contracts/token/ERC721/ERC721.sol\":16201:16208  address */\n      0x00\n        /* \"@openzeppelin/contracts/token/ERC721/ERC721.sol\":16220:16233  address owner */\n      dup1\n        /* \"@openzeppelin/contracts/token/ERC721/ERC721.sol\":16236:16253  _ownerOf(tokenId) */\n      tag_244\n        /* \"@openzeppelin/contracts/token/ERC721/ERC721.sol\":16245:16252  tokenId */\n      dup4\n        /* \"@openzeppelin/contracts/token/ERC721/ERC721.sol\":16236:16244  _ownerOf */\n      tag_245\n        /* \"@openzeppelin/contracts/token/ERC721/ERC721.sol\":16236:16253  _ownerOf(tokenId) */\n      jump\t// in\n    tag_244:\n        /* \"@openzeppelin/contracts/token/ERC721/ERC721.sol\":16220:16253  address owner = _ownerOf(tokenId) */\n      swap1\n      pop\n        /* \"@openzeppelin/contracts/token/ERC721/ERC721.sol\":16284:16285  0 */\n      0x00\n        /* \"@openzeppelin/contracts/token/ERC721/ERC721.sol\":16267:16286  owner == address(0) */\n      0xffffffffffffffffffffffffffffffffffffffff\n      and\n        /* \"@openzeppelin/contracts/token/ERC721/ERC721.sol\":16267:16272  owner */\n      dup2\n        /* \"@openzeppelin/contracts/token/ERC721/ERC721.sol\":16267:16286  owner == address(0) */\n      0xffffffffffffffffffffffffffffffffffffffff\n      and\n      sub\n        /* \"@openzeppelin/contracts/token/ERC721/ERC721.sol\":16263:16351  if (owner == address(0)) {... */\n      tag_246\n      jumpi\n        /* \"@openzeppelin/contracts/token/ERC721/ERC721.sol\":16332:16339  tokenId */\n      dup3\n        /* \"@openzeppelin/contracts/token/ERC721/ERC721.sol\":16309:16340  ERC721NonexistentToken(tokenId) */\n      mload(0x40)\n      0x7e27328900000000000000000000000000000000000000000000000000000000\n      dup2\n      mstore\n      0x04\n      add\n      tag_247\n      swap2\n      swap1\n      tag_66\n      jump\t// in\n    tag_247:\n      mload(0x40)\n      dup1\n      swap2\n      sub\n      swap1\n      revert\n        /* \"@openzeppelin/contracts/token/ERC721/ERC721.sol\":16263:16351  if (owner == address(0)) {... */\n    tag_246:\n        /* \"@openzeppelin/contracts/token/ERC721/ERC721.sol\":16367:16372  owner */\n      dup1\n        /* \"@openzeppelin/contracts/token/ERC721/ERC721.sol\":16360:16372  return owner */\n      swap2\n      pop\n      pop\n        /* \"@openzeppelin/contracts/token/ERC721/ERC721.sol\":16138:16379  function _requireOwned(uint256 tokenId) internal view returns (address) {... */\n      swap2\n      swap1\n      pop\n      jump\t// out\n        /* \"@openzeppelin/contracts/token/ERC721/ERC721.sol\":5938:6065  function _getApproved(uint256 tokenId) internal view virtual returns (address) {... */\n    tag_112:\n        /* \"@openzeppelin/contracts/token/ERC721/ERC721.sol\":6008:6015  address */\n      0x00\n        /* \"@openzeppelin/contracts/token/ERC721/ERC721.sol\":6034:6049  _tokenApprovals */\n      0x04\n        /* \"@openzeppelin/contracts/token/ERC721/ERC721.sol\":6034:6058  _tokenApprovals[tokenId] */\n      0x00\n        /* \"@openzeppelin/contracts/token/ERC721/ERC721.sol\":6050:6057  tokenId */\n      dup4\n        /* \"@openzeppelin/contracts/token/ERC721/ERC721.sol\":6034:6058  _tokenApprovals[tokenId] */\n      dup2\n      mstore\n      0x20\n      add\n      swap1\n      dup2\n      mstore\n      0x20\n      add\n      0x00\n      keccak256\n      0x00\n      swap1\n      sload\n      swap1\n      0x0100\n      exp\n      swap1\n      div\n      0xffffffffffffffffffffffffffffffffffffffff\n      and\n        /* \"@openzeppelin/contracts/token/ERC721/ERC721.sol\":6027:6058  return _tokenApprovals[tokenId] */\n      swap1\n      pop\n        /* \"@openzeppelin/contracts/token/ERC721/ERC721.sol\":5938:6065  function _getApproved(uint256 tokenId) internal view virtual returns (address) {... */\n      swap2\n      swap1\n      pop\n      jump\t// out\n        /* \"@openzeppelin/contracts/utils/Context.sol\":656:752  function _msgSender() internal view virtual returns (address) {... */\n    tag_116:\n        /* \"@openzeppelin/contracts/utils/Context.sol\":709:716  address */\n      0x00\n        /* \"@openzeppelin/contracts/utils/Context.sol\":735:745  msg.sender */\n      caller\n        /* \"@openzeppelin/contracts/utils/Context.sol\":728:745  return msg.sender */\n      swap1\n      pop\n        /* \"@openzeppelin/contracts/utils/Context.sol\":656:752  function _msgSender() internal view virtual returns (address) {... */\n      swap1\n      jump\t// out\n        /* \"@openzeppelin/contracts/token/ERC721/ERC721.sol\":14418:14538  function _approve(address to, uint256 tokenId, address auth) internal {... */\n    tag_117:\n        /* \"@openzeppelin/contracts/token/ERC721/ERC721.sol\":14498:14531  _approve(to, tokenId, auth, true) */\n      tag_251\n        /* \"@openzeppelin/contracts/token/ERC721/ERC721.sol\":14507:14509  to */\n      dup4\n        /* \"@openzeppelin/contracts/token/ERC721/ERC721.sol\":14511:14518  tokenId */\n      dup4\n        /* \"@openzeppelin/contracts/token/ERC721/ERC721.sol\":14520:14524  auth */\n      dup4\n        /* \"@openzeppelin/contracts/token/ERC721/ERC721.sol\":14526:14530  true */\n      0x01\n        /* \"@openzeppelin/contracts/token/ERC721/ERC721.sol\":14498:14506  _approve */\n      tag_252\n        /* \"@openzeppelin/contracts/token/ERC721/ERC721.sol\":14498:14531  _approve(to, tokenId, auth, true) */\n      jump\t// in\n    tag_251:\n        /* \"@openzeppelin/contracts/token/ERC721/ERC721.sol\":14418:14538  function _approve(address to, uint256 tokenId, address auth) internal {... */\n      pop\n      pop\n      pop\n      jump\t// out\n        /* \"@openzeppelin/contracts/token/ERC721/ERC721.sol\":8838:9633  function _update(address to, uint256 tokenId, address auth) internal virtual returns (address) {... */\n    tag_123:\n        /* \"@openzeppelin/contracts/token/ERC721/ERC721.sol\":8924:8931  address */\n      0x00\n        /* \"@openzeppelin/contracts/token/ERC721/ERC721.sol\":8943:8955  address from */\n      dup1\n        /* \"@openzeppelin/contracts/token/ERC721/ERC721.sol\":8958:8975  _ownerOf(tokenId) */\n      tag_254\n        /* \"@openzeppelin/contracts/token/ERC721/ERC721.sol\":8967:8974  tokenId */\n      dup5\n        /* \"@openzeppelin/contracts/token/ERC721/ERC721.sol\":8958:8966  _ownerOf */\n      tag_245\n        /* \"@openzeppelin/contracts/token/ERC721/ERC721.sol\":8958:8975  _ownerOf(tokenId) */\n      jump\t// in\n    tag_254:\n        /* \"@openzeppelin/contracts/token/ERC721/ERC721.sol\":8943:8975  address from = _ownerOf(tokenId) */\n      swap1\n      pop\n        /* \"@openzeppelin/contracts/token/ERC721/ERC721.sol\":9051:9052  0 */\n      0x00\n        /* \"@openzeppelin/contracts/token/ERC721/ERC721.sol\":9035:9053  auth != address(0) */\n      0xffffffffffffffffffffffffffffffffffffffff\n      and\n        /* \"@openzeppelin/contracts/token/ERC721/ERC721.sol\":9035:9039  auth */\n      dup4\n        /* \"@openzeppelin/contracts/token/ERC721/ERC721.sol\":9035:9053  auth != address(0) */\n      0xffffffffffffffffffffffffffffffffffffffff\n      and\n      eq\n        /* \"@openzeppelin/contracts/token/ERC721/ERC721.sol\":9031:9117  if (auth != address(0)) {... */\n      tag_255\n      jumpi\n        /* \"@openzeppelin/contracts/token/ERC721/ERC721.sol\":9069:9106  _checkAuthorized(from, auth, tokenId) */\n      tag_256\n        /* \"@openzeppelin/contracts/token/ERC721/ERC721.sol\":9086:9090  from */\n      dup2\n        /* \"@openzeppelin/contracts/token/ERC721/ERC721.sol\":9092:9096  auth */\n      dup5\n        /* \"@openzeppelin/contracts/token/ERC721/ERC721.sol\":9098:9105  tokenId */\n      dup7\n        /* \"@openzeppelin/contracts/token/ERC721/ERC721.sol\":9069:9085  _checkAuthorized */\n      tag_257\n        /* \"@openzeppelin/contracts/token/ERC721/ERC721.sol\":9069:9106  _checkAuthorized(from, auth, tokenId) */\n      jump\t// in\n    tag_256:\n        /* \"@openzeppelin/contracts/token/ERC721/ERC721.sol\":9031:9117  if (auth != address(0)) {... */\n    tag_255:\n        /* \"@openzeppelin/contracts/token/ERC721/ERC721.sol\":9177:9178  0 */\n      0x00\n        /* \"@openzeppelin/contracts/token/ERC721/ERC721.sol\":9161:9179  from != address(0) */\n      0xffffffffffffffffffffffffffffffffffffffff\n      and\n        /* \"@openzeppelin/contracts/token/ERC721/ERC721.sol\":9161:9165  from */\n      dup2\n        /* \"@openzeppelin/contracts/token/ERC721/ERC721.sol\":9161:9179  from != address(0) */\n      0xffffffffffffffffffffffffffffffffffffffff\n      and\n      eq\n        /* \"@openzeppelin/contracts/token/ERC721/ERC721.sol\":9157:9413  if (from != address(0)) {... */\n      tag_258\n      jumpi\n        /* \"@openzeppelin/contracts/token/ERC721/ERC721.sol\":9277:9325  _approve(address(0), tokenId, address(0), false) */\n      tag_259\n        /* \"@openzeppelin/contracts/token/ERC721/ERC721.sol\":9294:9295  0 */\n      0x00\n        /* \"@openzeppelin/contracts/token/ERC721/ERC721.sol\":9298:9305  tokenId */\n      dup6\n        /* \"@openzeppelin/contracts/token/ERC721/ERC721.sol\":9315:9316  0 */\n      0x00\n        /* \"@openzeppelin/contracts/token/ERC721/ERC721.sol\":9319:9324  false */\n      dup1\n        /* \"@openzeppelin/contracts/token/ERC721/ERC721.sol\":9277:9285  _approve */\n      tag_252\n        /* \"@openzeppelin/contracts/token/ERC721/ERC721.sol\":9277:9325  _approve(address(0), tokenId, address(0), false) */\n      jump\t// in\n    tag_259:\n        /* \"@openzeppelin/contracts/token/ERC721/ERC721.sol\":9387:9388  1 */\n      0x01\n        /* \"@openzeppelin/contracts/token/ERC721/ERC721.sol\":9368:9377  _balances */\n      0x03\n        /* \"@openzeppelin/contracts/token/ERC721/ERC721.sol\":9368:9383  _balances[from] */\n      0x00\n        /* \"@openzeppelin/contracts/token/ERC721/ERC721.sol\":9378:9382  from */\n      dup4\n        /* \"@openzeppelin/contracts/token/ERC721/ERC721.sol\":9368:9383  _balances[from] */\n      0xffffffffffffffffffffffffffffffffffffffff\n      and\n      0xffffffffffffffffffffffffffffffffffffffff\n      and\n      dup2\n      mstore\n      0x20\n      add\n      swap1\n      dup2\n      mstore\n      0x20\n      add\n      0x00\n      keccak256\n      0x00\n        /* \"@openzeppelin/contracts/token/ERC721/ERC721.sol\":9368:9388  _balances[from] -= 1 */\n      dup3\n      dup3\n      sload\n      sub\n      swap3\n      pop\n      pop\n      dup2\n      swap1\n      sstore\n      pop\n        /* \"@openzeppelin/contracts/token/ERC721/ERC721.sol\":9157:9413  if (from != address(0)) {... */\n    tag_258:\n        /* \"@openzeppelin/contracts/token/ERC721/ERC721.sol\":9441:9442  0 */\n      0x00\n        /* \"@openzeppelin/contracts/token/ERC721/ERC721.sol\":9427:9443  to != address(0) */\n      0xffffffffffffffffffffffffffffffffffffffff\n      and\n        /* \"@openzeppelin/contracts/token/ERC721/ERC721.sol\":9427:9429  to */\n      dup6\n        /* \"@openzeppelin/contracts/token/ERC721/ERC721.sol\":9427:9443  to != address(0) */\n      0xffffffffffffffffffffffffffffffffffffffff\n      and\n      eq\n        /* \"@openzeppelin/contracts/token/ERC721/ERC721.sol\":9423:9530  if (to != address(0)) {... */\n      tag_260\n      jumpi\n        /* \"@openzeppelin/contracts/token/ERC721/ERC721.sol\":9504:9505  1 */\n      0x01\n        /* \"@openzeppelin/contracts/token/ERC721/ERC721.sol\":9487:9496  _balances */\n      0x03\n        /* \"@openzeppelin/contracts/token/ERC721/ERC721.sol\":9487:9500  _balances[to] */\n      0x00\n        /* \"@openzeppelin/contracts/token/ERC721/ERC721.sol\":9497:9499  to */\n      dup8\n        /* \"@openzeppelin/contracts/token/ERC721/ERC721.sol\":9487:9500  _balances[to] */\n      0xffffffffffffffffffffffffffffffffffffffff\n      and\n      0xffffffffffffffffffffffffffffffffffffffff\n      and\n      dup2\n      mstore\n      0x20\n      add\n      swap1\n      dup2\n      mstore\n      0x20\n      add\n      0x00\n      keccak256\n      0x00\n        /* \"@openzeppelin/contracts/token/ERC721/ERC721.sol\":9487:9505  _balances[to] += 1 */\n      dup3\n      dup3\n      sload\n      add\n      swap3\n      pop\n      pop\n      dup2\n      swap1\n      sstore\n      pop\n        /* \"@openzeppelin/contracts/token/ERC721/ERC721.sol\":9423:9530  if (to != address(0)) {... */\n    tag_260:\n        /* \"@openzeppelin/contracts/token/ERC721/ERC721.sol\":9559:9561  to */\n      dup5\n        /* \"@openzeppelin/contracts/token/ERC721/ERC721.sol\":9540:9547  _owners */\n      0x02\n        /* \"@openzeppelin/contracts/token/ERC721/ERC721.sol\":9540:9556  _owners[tokenId] */\n      0x00\n        /* \"@openzeppelin/contracts/token/ERC721/ERC721.sol\":9548:9555  tokenId */\n      dup7\n        /* \"@openzeppelin/contracts/token/ERC721/ERC721.sol\":9540:9556  _owners[tokenId] */\n      dup2\n      mstore\n      0x20\n      add\n      swap1\n      dup2\n      mstore\n      0x20\n      add\n      0x00\n      keccak256\n      0x00\n        /* \"@openzeppelin/contracts/token/ERC721/ERC721.sol\":9540:9561  _owners[tokenId] = to */\n      0x0100\n      exp\n      dup2\n      sload\n      dup2\n      0xffffffffffffffffffffffffffffffffffffffff\n      mul\n      not\n      and\n      swap1\n      dup4\n      0xffffffffffffffffffffffffffffffffffffffff\n      and\n      mul\n      or\n      swap1\n      sstore\n      pop\n        /* \"@openzeppelin/contracts/token/ERC721/ERC721.sol\":9596:9603  tokenId */\n      dup4\n        /* \"@openzeppelin/contracts/token/ERC721/ERC721.sol\":9592:9594  to */\n      dup6\n        /* \"@openzeppelin/contracts/token/ERC721/ERC721.sol\":9577:9604  Transfer(from, to, tokenId) */\n      0xffffffffffffffffffffffffffffffffffffffff\n      and\n        /* \"@openzeppelin/contracts/token/ERC721/ERC721.sol\":9586:9590  from */\n      dup3\n        /* \"@openzeppelin/contracts/token/ERC721/ERC721.sol\":9577:9604  Transfer(from, to, tokenId) */\n      0xffffffffffffffffffffffffffffffffffffffff\n      and\n      0xddf252ad1be2c89b69c2b068fc378daa952ba7f163c4a11628f55a4df523b3ef\n      mload(0x40)\n      mload(0x40)\n      dup1\n      swap2\n      sub\n      swap1\n      log4\n        /* \"@openzeppelin/contracts/token/ERC721/ERC721.sol\":9622:9626  from */\n      dup1\n        /* \"@openzeppelin/contracts/token/ERC721/ERC721.sol\":9615:9626  return from */\n      swap2\n      pop\n      pop\n        /* \"@openzeppelin/contracts/token/ERC721/ERC721.sol\":8838:9633  function _update(address to, uint256 tokenId, address auth) internal virtual returns (address) {... */\n      swap4\n      swap3\n      pop\n      pop\n      pop\n      jump\t// out\n        /* \"@openzeppelin/contracts/token/ERC721/ERC721.sol\":9955:10282  function _mint(address to, uint256 tokenId) internal {... */\n    tag_154:\n        /* \"@openzeppelin/contracts/token/ERC721/ERC721.sol\":10036:10037  0 */\n      0x00\n        /* \"@openzeppelin/contracts/token/ERC721/ERC721.sol\":10022:10038  to == address(0) */\n      0xffffffffffffffffffffffffffffffffffffffff\n      and\n        /* \"@openzeppelin/contracts/token/ERC721/ERC721.sol\":10022:10024  to */\n      dup3\n        /* \"@openzeppelin/contracts/token/ERC721/ERC721.sol\":10022:10038  to == address(0) */\n      0xffffffffffffffffffffffffffffffffffffffff\n      and\n      sub\n        /* \"@openzeppelin/contracts/token/ERC721/ERC721.sol\":10018:10105  if (to == address(0)) {... */\n      tag_262\n      jumpi\n        /* \"@openzeppelin/contracts/token/ERC721/ERC721.sol\":10091:10092  0 */\n      0x00\n        /* \"@openzeppelin/contracts/token/ERC721/ERC721.sol\":10061:10094  ERC721InvalidReceiver(address(0)) */\n      mload(0x40)\n      0x64a0ae9200000000000000000000000000000000000000000000000000000000\n      dup2\n      mstore\n      0x04\n      add\n      tag_263\n      swap2\n      swap1\n      tag_39\n      jump\t// in\n    tag_263:\n      mload(0x40)\n      dup1\n      swap2\n      sub\n      swap1\n      revert\n        /* \"@openzeppelin/contracts/token/ERC721/ERC721.sol\":10018:10105  if (to == address(0)) {... */\n    tag_262:\n        /* \"@openzeppelin/contracts/token/ERC721/ERC721.sol\":10114:10135  address previousOwner */\n      0x00\n        /* \"@openzeppelin/contracts/token/ERC721/ERC721.sol\":10138:10170  _update(to, tokenId, address(0)) */\n      tag_264\n        /* \"@openzeppelin/contracts/token/ERC721/ERC721.sol\":10146:10148  to */\n      dup4\n        /* \"@openzeppelin/contracts/token/ERC721/ERC721.sol\":10150:10157  tokenId */\n      dup4\n        /* \"@openzeppelin/contracts/token/ERC721/ERC721.sol\":10167:10168  0 */\n      0x00\n        /* \"@openzeppelin/contracts/token/ERC721/ERC721.sol\":10138:10145  _update */\n      tag_123\n        /* \"@openzeppelin/contracts/token/ERC721/ERC721.sol\":10138:10170  _update(to, tokenId, address(0)) */\n      jump\t// in\n    tag_264:\n        /* \"@openzeppelin/contracts/token/ERC721/ERC721.sol\":10114:10170  address previousOwner = _update(to, tokenId, address(0)) */\n      swap1\n      pop\n        /* \"@openzeppelin/contracts/token/ERC721/ERC721.sol\":10209:10210  0 */\n      0x00\n        /* \"@openzeppelin/contracts/token/ERC721/ERC721.sol\":10184:10211  previousOwner != address(0) */\n      0xffffffffffffffffffffffffffffffffffffffff\n      and\n        /* \"@openzeppelin/contracts/token/ERC721/ERC721.sol\":10184:10197  previousOwner */\n      dup2\n        /* \"@openzeppelin/contracts/token/ERC721/ERC721.sol\":10184:10211  previousOwner != address(0) */\n      0xffffffffffffffffffffffffffffffffffffffff\n      and\n      eq\n        /* \"@openzeppelin/contracts/token/ERC721/ERC721.sol\":10180:10276  if (previousOwner != address(0)) {... */\n      tag_265\n      jumpi\n        /* \"@openzeppelin/contracts/token/ERC721/ERC721.sol\":10262:10263  0 */\n      0x00\n        /* \"@openzeppelin/contracts/token/ERC721/ERC721.sol\":10234:10265  ERC721InvalidSender(address(0)) */\n      mload(0x40)\n      0x73c6ac6e00000000000000000000000000000000000000000000000000000000\n      dup2\n      mstore\n      0x04\n      add\n      tag_266\n      swap2\n      swap1\n      tag_39\n      jump\t// in\n    tag_266:\n      mload(0x40)\n      dup1\n      swap2\n      sub\n      swap1\n      revert\n        /* \"@openzeppelin/contracts/token/ERC721/ERC721.sol\":10180:10276  if (previousOwner != address(0)) {... */\n    tag_265:\n        /* \"@openzeppelin/contracts/token/ERC721/ERC721.sol\":10008:10282  {... */\n      pop\n        /* \"@openzeppelin/contracts/token/ERC721/ERC721.sol\":9955:10282  function _mint(address to, uint256 tokenId) internal {... */\n      pop\n      pop\n      jump\t// out\n        /* \"@openzeppelin/contracts/token/ERC721/ERC721.sol\":15591:15903  function _setApprovalForAll(address owner, address operator, bool approved) internal virtual {... */\n    tag_172:\n        /* \"@openzeppelin/contracts/token/ERC721/ERC721.sol\":15718:15719  0 */\n      0x00\n        /* \"@openzeppelin/contracts/token/ERC721/ERC721.sol\":15698:15720  operator == address(0) */\n      0xffffffffffffffffffffffffffffffffffffffff\n      and\n        /* \"@openzeppelin/contracts/token/ERC721/ERC721.sol\":15698:15706  operator */\n      dup3\n        /* \"@openzeppelin/contracts/token/ERC721/ERC721.sol\":15698:15720  operator == address(0) */\n      0xffffffffffffffffffffffffffffffffffffffff\n      and\n      sub\n        /* \"@openzeppelin/contracts/token/ERC721/ERC721.sol\":15694:15785  if (operator == address(0)) {... */\n      tag_268\n      jumpi\n        /* \"@openzeppelin/contracts/token/ERC721/ERC721.sol\":15765:15773  operator */\n      dup2\n        /* \"@openzeppelin/contracts/token/ERC721/ERC721.sol\":15743:15774  ERC721InvalidOperator(operator) */\n      mload(0x40)\n      0x5b08ba1800000000000000000000000000000000000000000000000000000000\n      dup2\n      mstore\n      0x04\n      add\n      tag_269\n      swap2\n      swap1\n      tag_39\n      jump\t// in\n    tag_269:\n      mload(0x40)\n      dup1\n      swap2\n      sub\n      swap1\n      revert\n        /* \"@openzeppelin/contracts/token/ERC721/ERC721.sol\":15694:15785  if (operator == address(0)) {... */\n    tag_268:\n        /* \"@openzeppelin/contracts/token/ERC721/ERC721.sol\":15832:15840  approved */\n      dup1\n        /* \"@openzeppelin/contracts/token/ERC721/ERC721.sol\":15794:15812  _operatorApprovals */\n      0x05\n        /* \"@openzeppelin/contracts/token/ERC721/ERC721.sol\":15794:15819  _operatorApprovals[owner] */\n      0x00\n        /* \"@openzeppelin/contracts/token/ERC721/ERC721.sol\":15813:15818  owner */\n      dup6\n        /* \"@openzeppelin/contracts/token/ERC721/ERC721.sol\":15794:15819  _operatorApprovals[owner] */\n      0xffffffffffffffffffffffffffffffffffffffff\n      and\n      0xffffffffffffffffffffffffffffffffffffffff\n      and\n      dup2\n      mstore\n      0x20\n      add\n      swap1\n      dup2\n      mstore\n      0x20\n      add\n      0x00\n      keccak256\n        /* \"@openzeppelin/contracts/token/ERC721/ERC721.sol\":15794:15829  _operatorApprovals[owner][operator] */\n      0x00\n        /* \"@openzeppelin/contracts/token/ERC721/ERC721.sol\":15820:15828  operator */\n      dup5\n        /* \"@openzeppelin/contracts/token/ERC721/ERC721.sol\":15794:15829  _operatorApprovals[owner][operator] */\n      0xffffffffffffffffffffffffffffffffffffffff\n      and\n      0xffffffffffffffffffffffffffffffffffffffff\n      and\n      dup2\n      mstore\n      0x20\n      add\n      swap1\n      dup2\n      mstore\n      0x20\n      add\n      0x00\n      keccak256\n      0x00\n        /* \"@openzeppelin/contracts/token/ERC721/ERC721.sol\":15794:15840  _operatorApprovals[owner][operator] = approved */\n      0x0100\n      exp\n      dup2\n      sload\n      dup2\n      0xff\n      mul\n      not\n      and\n      swap1\n      dup4\n      iszero\n      iszero\n      mul\n      or\n      swap1\n      sstore\n      pop\n        /* \"@openzeppelin/contracts/token/ERC721/ERC721.sol\":15877:15885  operator */\n      dup2\n        /* \"@openzeppelin/contracts/token/ERC721/ERC721.sol\":15855:15896  ApprovalForAll(owner, operator, approved) */\n      0xffffffffffffffffffffffffffffffffffffffff\n      and\n        /* \"@openzeppelin/contracts/token/ERC721/ERC721.sol\":15870:15875  owner */\n      dup4\n        /* \"@openzeppelin/contracts/token/ERC721/ERC721.sol\":15855:15896  ApprovalForAll(owner, operator, approved) */\n      0xffffffffffffffffffffffffffffffffffffffff\n      and\n      0x17307eab39ab6107e8899845ad3d59bd9653f200f220920489ca2b5937696c31\n        /* \"@openzeppelin/contracts/token/ERC721/ERC721.sol\":15887:15895  approved */\n      dup4\n        /* \"@openzeppelin/contracts/token/ERC721/ERC721.sol\":15855:15896  ApprovalForAll(owner, operator, approved) */\n      mload(0x40)\n      tag_270\n      swap2\n      swap1\n      tag_29\n      jump\t// in\n    tag_270:\n      mload(0x40)\n      dup1\n      swap2\n      sub\n      swap1\n      log3\n        /* \"@openzeppelin/contracts/token/ERC721/ERC721.sol\":15591:15903  function _setApprovalForAll(address owner, address operator, bool approved) internal virtual {... */\n      pop\n      pop\n      pop\n      jump\t// out\n        /* \"marriage_license.sol\":4019:5235  function enoughParticipantsVote(uint256 token, address sender) internal returns (bool) {... */\n    tag_182:\n        /* \"marriage_license.sol\":4100:4104  bool */\n      0x00\n        /* \"marriage_license.sol\":4217:4232  bool ownerToken */\n      dup1\n        /* \"marriage_license.sol\":4265:4271  sender */\n      dup3\n        /* \"marriage_license.sol\":4235:4271  nftContract.ownerOf(token) == sender */\n      0xffffffffffffffffffffffffffffffffffffffff\n      and\n        /* \"marriage_license.sol\":4235:4246  nftContract */\n      0x0c\n      0x00\n      swap1\n      sload\n      swap1\n      0x0100\n      exp\n      swap1\n      div\n      0xffffffffffffffffffffffffffffffffffffffff\n      and\n        /* \"marriage_license.sol\":4235:4254  nftContract.ownerOf */\n      0xffffffffffffffffffffffffffffffffffffffff\n      and\n      0x6352211e\n        /* \"marriage_license.sol\":4255:4260  token */\n      dup7\n        /* \"marriage_license.sol\":4235:4261  nftContract.ownerOf(token) */\n      mload(0x40)\n      dup3\n      0xffffffff\n      and\n      0xe0\n      shl\n      dup2\n      mstore\n      0x04\n      add\n      tag_272\n      swap2\n      swap1\n      tag_66\n      jump\t// in\n    tag_272:\n      0x20\n      mload(0x40)\n      dup1\n      dup4\n      sub\n      dup2\n      dup7\n      gas\n      staticcall\n      iszero\n      dup1\n      iszero\n      tag_274\n      jumpi\n      returndatasize\n      0x00\n      dup1\n      returndatacopy\n      revert(0x00, returndatasize)\n    tag_274:\n      pop\n      pop\n      pop\n      pop\n      mload(0x40)\n      returndatasize\n      not(0x1f)\n      0x1f\n      dup3\n      add\n      and\n      dup3\n      add\n      dup1\n      0x40\n      mstore\n      pop\n      dup2\n      add\n      swap1\n      tag_275\n      swap2\n      swap1\n      tag_141\n      jump\t// in\n    tag_275:\n        /* \"marriage_license.sol\":4235:4271  nftContract.ownerOf(token) == sender */\n      0xffffffffffffffffffffffffffffffffffffffff\n      and\n      eq\n        /* \"marriage_license.sol\":4217:4271  bool ownerToken = nftContract.ownerOf(token) == sender */\n      swap1\n      pop\n        /* \"marriage_license.sol\":4282:4299  bool alreadyVoted */\n      0x00\n        /* \"marriage_license.sol\":4323:4330  uint8 i */\n      dup1\n        /* \"marriage_license.sol\":4318:4457  for (uint8 i = 0; i < 3; i++) {... */\n    tag_276:\n        /* \"marriage_license.sol\":4340:4341  3 */\n      0x03\n        /* \"marriage_license.sol\":4336:4337  i */\n      dup2\n        /* \"marriage_license.sol\":4336:4341  i < 3 */\n      0xff\n      and\n      lt\n        /* \"marriage_license.sol\":4318:4457  for (uint8 i = 0; i < 3; i++) {... */\n      iszero\n      tag_277\n      jumpi\n        /* \"marriage_license.sol\":4376:4387  tokensVoted */\n      0x08\n        /* \"marriage_license.sol\":4388:4389  i */\n      dup2\n        /* \"marriage_license.sol\":4376:4390  tokensVoted[i] */\n      0xff\n      and\n      dup2\n      sload\n      dup2\n      lt\n      tag_279\n      jumpi\n      tag_280\n      tag_203\n      jump\t// in\n    tag_280:\n    tag_279:\n      swap1\n      0x00\n      mstore\n      keccak256(0x00, 0x20)\n      add\n      sload\n        /* \"marriage_license.sol\":4367:4372  token */\n      dup7\n        /* \"marriage_license.sol\":4367:4390  token == tokensVoted[i] */\n      sub\n        /* \"marriage_license.sol\":4363:4446  if (token == tokensVoted[i]) {... */\n      tag_282\n      jumpi\n        /* \"marriage_license.sol\":4426:4430  true */\n      0x01\n        /* \"marriage_license.sol\":4411:4430  alreadyVoted = true */\n      swap2\n      pop\n        /* \"marriage_license.sol\":4363:4446  if (token == tokensVoted[i]) {... */\n    tag_282:\n        /* \"marriage_license.sol\":4343:4346  i++ */\n      dup1\n      dup1\n      tag_283\n      swap1\n      tag_209\n      jump\t// in\n    tag_283:\n      swap2\n      pop\n      pop\n        /* \"marriage_license.sol\":4318:4457  for (uint8 i = 0; i < 3; i++) {... */\n      jump(tag_276)\n    tag_277:\n      pop\n        /* \"marriage_license.sol\":4572:4584  alreadyVoted */\n      dup1\n        /* \"marriage_license.sol\":4571:4584  !alreadyVoted */\n      iszero\n        /* \"marriage_license.sol\":4571:4598  !alreadyVoted && ownerToken */\n      dup1\n      iszero\n      tag_284\n      jumpi\n      pop\n        /* \"marriage_license.sol\":4588:4598  ownerToken */\n      dup2\n        /* \"marriage_license.sol\":4571:4598  !alreadyVoted && ownerToken */\n    tag_284:\n        /* \"marriage_license.sol\":4567:4996  if (!alreadyVoted && ownerToken) {... */\n      iszero\n      tag_285\n      jumpi\n        /* \"marriage_license.sol\":4615:4626  tokensVoted */\n      0x08\n        /* \"marriage_license.sol\":4632:4637  token */\n      dup6\n        /* \"marriage_license.sol\":4615:4638  tokensVoted.push(token) */\n      swap1\n      dup1\n      0x01\n      dup2\n      sload\n      add\n      dup1\n      dup3\n      sstore\n      dup1\n      swap2\n      pop\n      pop\n      0x01\n      swap1\n      sub\n      swap1\n      0x00\n      mstore\n      keccak256(0x00, 0x20)\n      add\n      0x00\n      swap1\n      swap2\n      swap1\n      swap2\n      swap1\n      swap2\n      pop\n      sstore\n        /* \"marriage_license.sol\":4667:4674  spouse1 */\n      0x06\n      0x08\n      swap1\n      sload\n      swap1\n      0x0100\n      exp\n      swap1\n      div\n      0xffffffffffffffffffffffffffffffffffffffff\n      and\n        /* \"marriage_license.sol\":4657:4674  sender == spouse1 */\n      0xffffffffffffffffffffffffffffffffffffffff\n      and\n        /* \"marriage_license.sol\":4657:4663  sender */\n      dup5\n        /* \"marriage_license.sol\":4657:4674  sender == spouse1 */\n      0xffffffffffffffffffffffffffffffffffffffff\n      and\n      eq\n        /* \"marriage_license.sol\":4657:4695  sender == spouse1 || sender == spouse2 */\n      dup1\n      tag_287\n      jumpi\n      pop\n        /* \"marriage_license.sol\":4688:4695  spouse2 */\n      0x07\n      0x00\n      swap1\n      sload\n      swap1\n      0x0100\n      exp\n      swap1\n      div\n      0xffffffffffffffffffffffffffffffffffffffff\n      and\n        /* \"marriage_license.sol\":4678:4695  sender == spouse2 */\n      0xffffffffffffffffffffffffffffffffffffffff\n      and\n        /* \"marriage_license.sol\":4678:4684  sender */\n      dup5\n        /* \"marriage_license.sol\":4678:4695  sender == spouse2 */\n      0xffffffffffffffffffffffffffffffffffffffff\n      and\n      eq\n        /* \"marriage_license.sol\":4657:4695  sender == spouse1 || sender == spouse2 */\n    tag_287:\n        /* \"marriage_license.sol\":4653:4985  if (sender == spouse1 || sender == spouse2) {... */\n      iszero\n      tag_288\n      jumpi\n        /* \"marriage_license.sol\":4733:4734  1 */\n      0x01\n        /* \"marriage_license.sol\":4716:4729  spouseCounter */\n      0x07\n      0x17\n        /* \"marriage_license.sol\":4716:4734  spouseCounter += 1 */\n      dup3\n      dup3\n      dup3\n      swap1\n      sload\n      swap1\n      0x0100\n      exp\n      swap1\n      div\n      0xff\n      and\n      tag_289\n      swap2\n      swap1\n      tag_226\n      jump\t// in\n    tag_289:\n      swap3\n      pop\n      0x0100\n      exp\n      dup2\n      sload\n      dup2\n      0xff\n      mul\n      not\n      and\n      swap1\n      dup4\n      0xff\n      and\n      mul\n      or\n      swap1\n      sstore\n      pop\n        /* \"marriage_license.sol\":4653:4985  if (sender == spouse1 || sender == spouse2) {... */\n      jump(tag_290)\n    tag_288:\n        /* \"marriage_license.sol\":4792:4799  uint8 i */\n      0x00\n        /* \"marriage_license.sol\":4788:4970  for(uint8 i = 0; i < 3; i++) {... */\n    tag_291:\n        /* \"marriage_license.sol\":4809:4810  3 */\n      0x03\n        /* \"marriage_license.sol\":4805:4806  i */\n      dup2\n        /* \"marriage_license.sol\":4805:4810  i < 3 */\n      0xff\n      and\n      lt\n        /* \"marriage_license.sol\":4788:4970  for(uint8 i = 0; i < 3; i++) {... */\n      iszero\n      tag_292\n      jumpi\n        /* \"marriage_license.sol\":4854:4873  authorizedAddresses */\n      0x0a\n        /* \"marriage_license.sol\":4874:4875  i */\n      dup2\n        /* \"marriage_license.sol\":4854:4876  authorizedAddresses[i] */\n      0xff\n      and\n      dup2\n      sload\n      dup2\n      lt\n      tag_294\n      jumpi\n      tag_295\n      tag_203\n      jump\t// in\n    tag_295:\n    tag_294:\n      swap1\n      0x00\n      mstore\n      keccak256(0x00, 0x20)\n      add\n      0x00\n      swap1\n      sload\n      swap1\n      0x0100\n      exp\n      swap1\n      div\n      0xffffffffffffffffffffffffffffffffffffffff\n      and\n        /* \"marriage_license.sol\":4844:4876  sender == authorizedAddresses[i] */\n      0xffffffffffffffffffffffffffffffffffffffff\n      and\n        /* \"marriage_license.sol\":4844:4850  sender */\n      dup6\n        /* \"marriage_license.sol\":4844:4876  sender == authorizedAddresses[i] */\n      0xffffffffffffffffffffffffffffffffffffffff\n      and\n      sub\n        /* \"marriage_license.sol\":4840:4951  if (sender == authorizedAddresses[i]) {... */\n      tag_297\n      jumpi\n        /* \"marriage_license.sol\":4926:4927  1 */\n      0x01\n        /* \"marriage_license.sol\":4905:4922  authorizedCounter */\n      0x07\n      0x18\n        /* \"marriage_license.sol\":4905:4927  authorizedCounter += 1 */\n      dup3\n      dup3\n      dup3\n      swap1\n      sload\n      swap1\n      0x0100\n      exp\n      swap1\n      div\n      0xff\n      and\n      tag_298\n      swap2\n      swap1\n      tag_226\n      jump\t// in\n    tag_298:\n      swap3\n      pop\n      0x0100\n      exp\n      dup2\n      sload\n      dup2\n      0xff\n      mul\n      not\n      and\n      swap1\n      dup4\n      0xff\n      and\n      mul\n      or\n      swap1\n      sstore\n      pop\n        /* \"marriage_license.sol\":4840:4951  if (sender == authorizedAddresses[i]) {... */\n    tag_297:\n        /* \"marriage_license.sol\":4812:4815  i++ */\n      dup1\n      dup1\n      tag_299\n      swap1\n      tag_209\n      jump\t// in\n    tag_299:\n      swap2\n      pop\n      pop\n        /* \"marriage_license.sol\":4788:4970  for(uint8 i = 0; i < 3; i++) {... */\n      jump(tag_291)\n    tag_292:\n      pop\n        /* \"marriage_license.sol\":4653:4985  if (sender == spouse1 || sender == spouse2) {... */\n    tag_290:\n        /* \"marriage_license.sol\":4567:4996  if (!alreadyVoted && ownerToken) {... */\n    tag_285:\n        /* \"marriage_license.sol\":5115:5116  2 */\n      0x02\n        /* \"marriage_license.sol\":5098:5111  spouseCounter */\n      0x07\n      0x17\n      swap1\n      sload\n      swap1\n      0x0100\n      exp\n      swap1\n      div\n      0xff\n      and\n        /* \"marriage_license.sol\":5098:5116  spouseCounter == 2 */\n      0xff\n      and\n      eq\n        /* \"marriage_license.sol\":5098:5165  spouseCounter == 2 || (spouseCounter == 1 && authorizedCounter > 0) */\n      dup1\n      tag_300\n      jumpi\n      pop\n        /* \"marriage_license.sol\":5138:5139  1 */\n      0x01\n        /* \"marriage_license.sol\":5121:5134  spouseCounter */\n      0x07\n      0x17\n      swap1\n      sload\n      swap1\n      0x0100\n      exp\n      swap1\n      div\n      0xff\n      and\n        /* \"marriage_license.sol\":5121:5139  spouseCounter == 1 */\n      0xff\n      and\n      eq\n        /* \"marriage_license.sol\":5121:5164  spouseCounter == 1 && authorizedCounter > 0 */\n      dup1\n      iszero\n      tag_301\n      jumpi\n      pop\n        /* \"marriage_license.sol\":5163:5164  0 */\n      0x00\n        /* \"marriage_license.sol\":5143:5160  authorizedCounter */\n      0x07\n      0x18\n      swap1\n      sload\n      swap1\n      0x0100\n      exp\n      swap1\n      div\n      0xff\n      and\n        /* \"marriage_license.sol\":5143:5164  authorizedCounter > 0 */\n      0xff\n      and\n      gt\n        /* \"marriage_license.sol\":5121:5164  spouseCounter == 1 && authorizedCounter > 0 */\n    tag_301:\n        /* \"marriage_license.sol\":5098:5165  spouseCounter == 2 || (spouseCounter == 1 && authorizedCounter > 0) */\n    tag_300:\n        /* \"marriage_license.sol\":5094:5205  if (spouseCounter == 2 || (spouseCounter == 1 && authorizedCounter > 0)) {... */\n      iszero\n      tag_302\n      jumpi\n        /* \"marriage_license.sol\":5189:5193  true */\n      0x01\n        /* \"marriage_license.sol\":5182:5193  return true */\n      swap3\n      pop\n      pop\n      pop\n      jump(tag_271)\n        /* \"marriage_license.sol\":5094:5205  if (spouseCounter == 2 || (spouseCounter == 1 && authorizedCounter > 0)) {... */\n    tag_302:\n        /* \"marriage_license.sol\":5222:5227  false */\n      0x00\n        /* \"marriage_license.sol\":5215:5227  return false */\n      swap3\n      pop\n      pop\n      pop\n        /* \"marriage_license.sol\":4019:5235  function enoughParticipantsVote(uint256 token, address sender) internal returns (bool) {... */\n    tag_271:\n      swap3\n      swap2\n      pop\n      pop\n      jump\t// out\n        /* \"@openzeppelin/contracts/token/ERC721/ERC721.sol\":11462:11689  function _burn(uint256 tokenId) internal {... */\n    tag_187:\n        /* \"@openzeppelin/contracts/token/ERC721/ERC721.sol\":11513:11534  address previousOwner */\n      0x00\n        /* \"@openzeppelin/contracts/token/ERC721/ERC721.sol\":11537:11577  _update(address(0), tokenId, address(0)) */\n      tag_304\n        /* \"@openzeppelin/contracts/token/ERC721/ERC721.sol\":11553:11554  0 */\n      0x00\n        /* \"@openzeppelin/contracts/token/ERC721/ERC721.sol\":11557:11564  tokenId */\n      dup4\n        /* \"@openzeppelin/contracts/token/ERC721/ERC721.sol\":11574:11575  0 */\n      0x00\n        /* \"@openzeppelin/contracts/token/ERC721/ERC721.sol\":11537:11544  _update */\n      tag_123\n        /* \"@openzeppelin/contracts/token/ERC721/ERC721.sol\":11537:11577  _update(address(0), tokenId, address(0)) */\n      jump\t// in\n    tag_304:\n        /* \"@openzeppelin/contracts/token/ERC721/ERC721.sol\":11513:11577  address previousOwner = _update(address(0), tokenId, address(0)) */\n      swap1\n      pop\n        /* \"@openzeppelin/contracts/token/ERC721/ERC721.sol\":11616:11617  0 */\n      0x00\n        /* \"@openzeppelin/contracts/token/ERC721/ERC721.sol\":11591:11618  previousOwner == address(0) */\n      0xffffffffffffffffffffffffffffffffffffffff\n      and\n        /* \"@openzeppelin/contracts/token/ERC721/ERC721.sol\":11591:11604  previousOwner */\n      dup2\n        /* \"@openzeppelin/contracts/token/ERC721/ERC721.sol\":11591:11618  previousOwner == address(0) */\n      0xffffffffffffffffffffffffffffffffffffffff\n      and\n      sub\n        /* \"@openzeppelin/contracts/token/ERC721/ERC721.sol\":11587:11683  if (previousOwner == address(0)) {... */\n      tag_305\n      jumpi\n        /* \"@openzeppelin/contracts/token/ERC721/ERC721.sol\":11664:11671  tokenId */\n      dup2\n        /* \"@openzeppelin/contracts/token/ERC721/ERC721.sol\":11641:11672  ERC721NonexistentToken(tokenId) */\n      mload(0x40)\n      0x7e27328900000000000000000000000000000000000000000000000000000000\n      dup2\n      mstore\n      0x04\n      add\n      tag_306\n      swap2\n      swap1\n      tag_66\n      jump\t// in\n    tag_306:\n      mload(0x40)\n      dup1\n      swap2\n      sub\n      swap1\n      revert\n        /* \"@openzeppelin/contracts/token/ERC721/ERC721.sol\":11587:11683  if (previousOwner == address(0)) {... */\n    tag_305:\n        /* \"@openzeppelin/contracts/token/ERC721/ERC721.sol\":11503:11689  {... */\n      pop\n        /* \"@openzeppelin/contracts/token/ERC721/ERC721.sol\":11462:11689  function _burn(uint256 tokenId) internal {... */\n      pop\n      jump\t// out\n        /* \"@openzeppelin/contracts/token/ERC721/ERC721.sol\":16918:17700  function _checkOnERC721Received(address from, address to, uint256 tokenId, bytes memory data) private {... */\n    tag_192:\n        /* \"@openzeppelin/contracts/token/ERC721/ERC721.sol\":17051:17052  0 */\n      0x00\n        /* \"@openzeppelin/contracts/token/ERC721/ERC721.sol\":17034:17036  to */\n      dup4\n        /* \"@openzeppelin/contracts/token/ERC721/ERC721.sol\":17034:17048  to.code.length */\n      0xffffffffffffffffffffffffffffffffffffffff\n      and\n      extcodesize\n        /* \"@openzeppelin/contracts/token/ERC721/ERC721.sol\":17034:17052  to.code.length > 0 */\n      gt\n        /* \"@openzeppelin/contracts/token/ERC721/ERC721.sol\":17030:17694  if (to.code.length > 0) {... */\n      iszero\n      tag_308\n      jumpi\n        /* \"@openzeppelin/contracts/token/ERC721/ERC721.sol\":17088:17090  to */\n      dup3\n        /* \"@openzeppelin/contracts/token/ERC721/ERC721.sol\":17072:17108  IERC721Receiver(to).onERC721Received */\n      0xffffffffffffffffffffffffffffffffffffffff\n      and\n      0x150b7a02\n        /* \"@openzeppelin/contracts/token/ERC721/ERC721.sol\":17109:17121  _msgSender() */\n      tag_309\n        /* \"@openzeppelin/contracts/token/ERC721/ERC721.sol\":17109:17119  _msgSender */\n      tag_116\n        /* \"@openzeppelin/contracts/token/ERC721/ERC721.sol\":17109:17121  _msgSender() */\n      jump\t// in\n    tag_309:\n        /* \"@openzeppelin/contracts/token/ERC721/ERC721.sol\":17123:17127  from */\n      dup7\n        /* \"@openzeppelin/contracts/token/ERC721/ERC721.sol\":17129:17136  tokenId */\n      dup6\n        /* \"@openzeppelin/contracts/token/ERC721/ERC721.sol\":17138:17142  data */\n      dup6\n        /* \"@openzeppelin/contracts/token/ERC721/ERC721.sol\":17072:17143  IERC721Receiver(to).onERC721Received(_msgSender(), from, tokenId, data) */\n      mload(0x40)\n      dup6\n      0xffffffff\n      and\n      0xe0\n      shl\n      dup2\n      mstore\n      0x04\n      add\n      tag_310\n      swap5\n      swap4\n      swap3\n      swap2\n      swap1\n      tag_311\n      jump\t// in\n    tag_310:\n      0x20\n      mload(0x40)\n      dup1\n      dup4\n      sub\n      dup2\n      0x00\n      dup8\n      gas\n      call\n      swap3\n      pop\n      pop\n      pop\n      dup1\n      iszero\n      tag_312\n      jumpi\n      pop\n      mload(0x40)\n      returndatasize\n      not(0x1f)\n      0x1f\n      dup3\n      add\n      and\n      dup3\n      add\n      dup1\n      0x40\n      mstore\n      pop\n      dup2\n      add\n      swap1\n      tag_313\n      swap2\n      swap1\n      tag_314\n      jump\t// in\n    tag_313:\n      0x01\n    tag_312:\n        /* \"@openzeppelin/contracts/token/ERC721/ERC721.sol\":17068:17684  try IERC721Receiver(to).onERC721Received(_msgSender(), from, tokenId, data) returns (bytes4 retval) {... */\n      tag_315\n      jumpi\n      returndatasize\n      dup1\n      0x00\n      dup2\n      eq\n      tag_320\n      jumpi\n      mload(0x40)\n      swap2\n      pop\n      and(add(returndatasize, 0x3f), not(0x1f))\n      dup3\n      add\n      0x40\n      mstore\n      returndatasize\n      dup3\n      mstore\n      returndatasize\n      0x00\n      0x20\n      dup5\n      add\n      returndatacopy\n      jump(tag_319)\n    tag_320:\n      0x60\n      swap2\n      pop\n    tag_319:\n      pop\n        /* \"@openzeppelin/contracts/token/ERC721/ERC721.sol\":17398:17399  0 */\n      0x00\n        /* \"@openzeppelin/contracts/token/ERC721/ERC721.sol\":17381:17387  reason */\n      dup2\n        /* \"@openzeppelin/contracts/token/ERC721/ERC721.sol\":17381:17394  reason.length */\n      mload\n        /* \"@openzeppelin/contracts/token/ERC721/ERC721.sol\":17381:17399  reason.length == 0 */\n      sub\n        /* \"@openzeppelin/contracts/token/ERC721/ERC721.sol\":17377:17670  if (reason.length == 0) {... */\n      tag_321\n      jumpi\n        /* \"@openzeppelin/contracts/token/ERC721/ERC721.sol\":17452:17454  to */\n      dup4\n        /* \"@openzeppelin/contracts/token/ERC721/ERC721.sol\":17430:17455  ERC721InvalidReceiver(to) */\n      mload(0x40)\n      0x64a0ae9200000000000000000000000000000000000000000000000000000000\n      dup2\n      mstore\n      0x04\n      add\n      tag_322\n      swap2\n      swap1\n      tag_39\n      jump\t// in\n    tag_322:\n      mload(0x40)\n      dup1\n      swap2\n      sub\n      swap1\n      revert\n        /* \"@openzeppelin/contracts/token/ERC721/ERC721.sol\":17377:17670  if (reason.length == 0) {... */\n    tag_321:\n        /* \"@openzeppelin/contracts/token/ERC721/ERC721.sol\":17622:17628  reason */\n      dup1\n        /* \"@openzeppelin/contracts/token/ERC721/ERC721.sol\":17616:17629  mload(reason) */\n      mload\n        /* \"@openzeppelin/contracts/token/ERC721/ERC721.sol\":17607:17613  reason */\n      dup2\n        /* \"@openzeppelin/contracts/token/ERC721/ERC721.sol\":17603:17605  32 */\n      0x20\n        /* \"@openzeppelin/contracts/token/ERC721/ERC721.sol\":17599:17614  add(32, reason) */\n      add\n        /* \"@openzeppelin/contracts/token/ERC721/ERC721.sol\":17592:17630  revert(add(32, reason), mload(reason)) */\n      revert\n        /* \"@openzeppelin/contracts/token/ERC721/ERC721.sol\":17068:17684  try IERC721Receiver(to).onERC721Received(_msgSender(), from, tokenId, data) returns (bytes4 retval) {... */\n    tag_315:\n        /* \"@openzeppelin/contracts/token/ERC721/ERC721.sol\":17200:17241  IERC721Receiver.onERC721Received.selector */\n      shl(0xe0, 0x150b7a02)\n        /* \"@openzeppelin/contracts/token/ERC721/ERC721.sol\":17190:17241  retval != IERC721Receiver.onERC721Received.selector */\n      not(0xffffffffffffffffffffffffffffffffffffffffffffffffffffffff)\n      and\n        /* \"@openzeppelin/contracts/token/ERC721/ERC721.sol\":17190:17196  retval */\n      dup2\n        /* \"@openzeppelin/contracts/token/ERC721/ERC721.sol\":17190:17241  retval != IERC721Receiver.onERC721Received.selector */\n      not(0xffffffffffffffffffffffffffffffffffffffffffffffffffffffff)\n      and\n      eq\n        /* \"@openzeppelin/contracts/token/ERC721/ERC721.sol\":17186:17316  if (retval != IERC721Receiver.onERC721Received.selector) {... */\n      tag_325\n      jumpi\n        /* \"@openzeppelin/contracts/token/ERC721/ERC721.sol\":17294:17296  to */\n      dup4\n        /* \"@openzeppelin/contracts/token/ERC721/ERC721.sol\":17272:17297  ERC721InvalidReceiver(to) */\n      mload(0x40)\n      0x64a0ae9200000000000000000000000000000000000000000000000000000000\n      dup2\n      mstore\n      0x04\n      add\n      tag_326\n      swap2\n      swap1\n      tag_39\n      jump\t// in\n    tag_326:\n      mload(0x40)\n      dup1\n      swap2\n      sub\n      swap1\n      revert\n        /* \"@openzeppelin/contracts/token/ERC721/ERC721.sol\":17186:17316  if (retval != IERC721Receiver.onERC721Received.selector) {... */\n    tag_325:\n        /* \"@openzeppelin/contracts/token/ERC721/ERC721.sol\":17144:17330  returns (bytes4 retval) {... */\n      pop\n        /* \"@openzeppelin/contracts/token/ERC721/ERC721.sol\":17030:17694  if (to.code.length > 0) {... */\n    tag_308:\n        /* \"@openzeppelin/contracts/token/ERC721/ERC721.sol\":16918:17700  function _checkOnERC721Received(address from, address to, uint256 tokenId, bytes memory data) private {... */\n      pop\n      pop\n      pop\n      pop\n      jump\t// out\n        /* \"@openzeppelin/contracts/token/ERC721/ERC721.sol\":3174:3266  function _baseURI() internal view virtual returns (string memory) {... */\n    tag_234:\n        /* \"@openzeppelin/contracts/token/ERC721/ERC721.sol\":3225:3238  string memory */\n      0x60\n        /* \"@openzeppelin/contracts/token/ERC721/ERC721.sol\":3250:3259  return \"\" */\n      mload(0x40)\n      dup1\n      0x20\n      add\n      0x40\n      mstore\n      dup1\n      0x00\n      dup2\n      mstore\n      pop\n      swap1\n      pop\n        /* \"@openzeppelin/contracts/token/ERC721/ERC721.sol\":3174:3266  function _baseURI() internal view virtual returns (string memory) {... */\n      swap1\n      jump\t// out\n        /* \"@openzeppelin/contracts/utils/Strings.sol\":637:1335  function toString(uint256 value) internal pure returns (string memory) {... */\n    tag_238:\n        /* \"@openzeppelin/contracts/utils/Strings.sol\":693:706  string memory */\n      0x60\n        /* \"@openzeppelin/contracts/utils/Strings.sol\":742:756  uint256 length */\n      0x00\n        /* \"@openzeppelin/contracts/utils/Strings.sol\":779:780  1 */\n      0x01\n        /* \"@openzeppelin/contracts/utils/Strings.sol\":759:776  Math.log10(value) */\n      tag_329\n        /* \"@openzeppelin/contracts/utils/Strings.sol\":770:775  value */\n      dup5\n        /* \"@openzeppelin/contracts/utils/Strings.sol\":759:769  Math.log10 */\n      tag_330\n        /* \"@openzeppelin/contracts/utils/Strings.sol\":759:776  Math.log10(value) */\n      jump\t// in\n    tag_329:\n        /* \"@openzeppelin/contracts/utils/Strings.sol\":759:780  Math.log10(value) + 1 */\n      add\n        /* \"@openzeppelin/contracts/utils/Strings.sol\":742:780  uint256 length = Math.log10(value) + 1 */\n      swap1\n      pop\n        /* \"@openzeppelin/contracts/utils/Strings.sol\":794:814  string memory buffer */\n      0x00\n        /* \"@openzeppelin/contracts/utils/Strings.sol\":828:834  length */\n      dup2\n        /* \"@openzeppelin/contracts/utils/Strings.sol\":817:835  new string(length) */\n      0xffffffffffffffff\n      dup2\n      gt\n      iszero\n      tag_331\n      jumpi\n      tag_332\n      tag_333\n      jump\t// in\n    tag_332:\n    tag_331:\n      mload(0x40)\n      swap1\n      dup1\n      dup3\n      mstore\n      dup1\n      0x1f\n      add\n      not(0x1f)\n      and\n      0x20\n      add\n      dup3\n      add\n      0x40\n      mstore\n      dup1\n      iszero\n      tag_334\n      jumpi\n      dup2\n      0x20\n      add\n      0x01\n      dup3\n      mul\n      dup1\n      calldatasize\n      dup4\n      calldatacopy\n      dup1\n      dup3\n      add\n      swap2\n      pop\n      pop\n      swap1\n      pop\n    tag_334:\n      pop\n        /* \"@openzeppelin/contracts/utils/Strings.sol\":794:835  string memory buffer = new string(length) */\n      swap1\n      pop\n        /* \"@openzeppelin/contracts/utils/Strings.sol\":849:860  uint256 ptr */\n      0x00\n        /* \"@openzeppelin/contracts/utils/Strings.sol\":975:981  length */\n      dup3\n        /* \"@openzeppelin/contracts/utils/Strings.sol\":971:973  32 */\n      0x20\n        /* \"@openzeppelin/contracts/utils/Strings.sol\":967:982  add(32, length) */\n      add\n        /* \"@openzeppelin/contracts/utils/Strings.sol\":959:965  buffer */\n      dup3\n        /* \"@openzeppelin/contracts/utils/Strings.sol\":955:983  add(buffer, add(32, length)) */\n      add\n        /* \"@openzeppelin/contracts/utils/Strings.sol\":948:983  ptr := add(buffer, add(32, length)) */\n      swap1\n      pop\n        /* \"@openzeppelin/contracts/utils/Strings.sol\":1010:1292  while (true) {... */\n    tag_335:\n        /* \"@openzeppelin/contracts/utils/Strings.sol\":1017:1021  true */\n      0x01\n        /* \"@openzeppelin/contracts/utils/Strings.sol\":1010:1292  while (true) {... */\n      iszero\n      tag_336\n      jumpi\n        /* \"@openzeppelin/contracts/utils/Strings.sol\":1041:1046  ptr-- */\n      dup1\n      dup1\n      0x01\n      swap1\n      sub\n      swap2\n      pop\n      pop\n        /* \"@openzeppelin/contracts/utils/Strings.sol\":1180:1190  HEX_DIGITS */\n      0x3031323334353637383961626364656600000000000000000000000000000000\n        /* \"@openzeppelin/contracts/utils/Strings.sol\":1175:1177  10 */\n      0x0a\n        /* \"@openzeppelin/contracts/utils/Strings.sol\":1168:1173  value */\n      dup7\n        /* \"@openzeppelin/contracts/utils/Strings.sol\":1164:1178  mod(value, 10) */\n      mod\n        /* \"@openzeppelin/contracts/utils/Strings.sol\":1159:1191  byte(mod(value, 10), HEX_DIGITS) */\n      byte\n        /* \"@openzeppelin/contracts/utils/Strings.sol\":1154:1157  ptr */\n      dup2\n        /* \"@openzeppelin/contracts/utils/Strings.sol\":1146:1192  mstore8(ptr, byte(mod(value, 10), HEX_DIGITS)) */\n      mstore8\n        /* \"@openzeppelin/contracts/utils/Strings.sol\":1236:1238  10 */\n      0x0a\n        /* \"@openzeppelin/contracts/utils/Strings.sol\":1227:1238  value /= 10 */\n      dup6\n      dup2\n      tag_337\n      jumpi\n      tag_338\n      tag_339\n      jump\t// in\n    tag_338:\n    tag_337:\n      div\n      swap5\n      pop\n        /* \"@openzeppelin/contracts/utils/Strings.sol\":1269:1270  0 */\n      0x00\n        /* \"@openzeppelin/contracts/utils/Strings.sol\":1260:1265  value */\n      dup6\n        /* \"@openzeppelin/contracts/utils/Strings.sol\":1260:1270  value == 0 */\n      sub\n        /* \"@openzeppelin/contracts/utils/Strings.sol\":1010:1292  while (true) {... */\n      tag_335\n        /* \"@openzeppelin/contracts/utils/Strings.sol\":1256:1277  if (value == 0) break */\n      jumpi\n        /* \"@openzeppelin/contracts/utils/Strings.sol\":1010:1292  while (true) {... */\n    tag_336:\n        /* \"@openzeppelin/contracts/utils/Strings.sol\":1312:1318  buffer */\n      dup2\n        /* \"@openzeppelin/contracts/utils/Strings.sol\":1305:1318  return buffer */\n      swap4\n      pop\n      pop\n      pop\n      pop\n        /* \"@openzeppelin/contracts/utils/Strings.sol\":637:1335  function toString(uint256 value) internal pure returns (string memory) {... */\n      swap2\n      swap1\n      pop\n      jump\t// out\n        /* \"@openzeppelin/contracts/token/ERC721/ERC721.sol\":5707:5822  function _ownerOf(uint256 tokenId) internal view virtual returns (address) {... */\n    tag_245:\n        /* \"@openzeppelin/contracts/token/ERC721/ERC721.sol\":5773:5780  address */\n      0x00\n        /* \"@openzeppelin/contracts/token/ERC721/ERC721.sol\":5799:5806  _owners */\n      0x02\n        /* \"@openzeppelin/contracts/token/ERC721/ERC721.sol\":5799:5815  _owners[tokenId] */\n      0x00\n        /* \"@openzeppelin/contracts/token/ERC721/ERC721.sol\":5807:5814  tokenId */\n      dup4\n        /* \"@openzeppelin/contracts/token/ERC721/ERC721.sol\":5799:5815  _owners[tokenId] */\n      dup2\n      mstore\n      0x20\n      add\n      swap1\n      dup2\n      mstore\n      0x20\n      add\n      0x00\n      keccak256\n      0x00\n      swap1\n      sload\n      swap1\n      0x0100\n      exp\n      swap1\n      div\n      0xffffffffffffffffffffffffffffffffffffffff\n      and\n        /* \"@openzeppelin/contracts/token/ERC721/ERC721.sol\":5792:5815  return _owners[tokenId] */\n      swap1\n      pop\n        /* \"@openzeppelin/contracts/token/ERC721/ERC721.sol\":5707:5822  function _ownerOf(uint256 tokenId) internal view virtual returns (address) {... */\n      swap2\n      swap1\n      pop\n      jump\t// out\n        /* \"@openzeppelin/contracts/token/ERC721/ERC721.sol\":14720:15382  function _approve(address to, uint256 tokenId, address auth, bool emitEvent) internal virtual {... */\n    tag_252:\n        /* \"@openzeppelin/contracts/token/ERC721/ERC721.sol\":14880:14889  emitEvent */\n      dup1\n        /* \"@openzeppelin/contracts/token/ERC721/ERC721.sol\":14880:14911  emitEvent || auth != address(0) */\n      dup1\n      tag_343\n      jumpi\n      pop\n        /* \"@openzeppelin/contracts/token/ERC721/ERC721.sol\":14909:14910  0 */\n      0x00\n        /* \"@openzeppelin/contracts/token/ERC721/ERC721.sol\":14893:14911  auth != address(0) */\n      0xffffffffffffffffffffffffffffffffffffffff\n      and\n        /* \"@openzeppelin/contracts/token/ERC721/ERC721.sol\":14893:14897  auth */\n      dup3\n        /* \"@openzeppelin/contracts/token/ERC721/ERC721.sol\":14893:14911  auth != address(0) */\n      0xffffffffffffffffffffffffffffffffffffffff\n      and\n      eq\n      iszero\n        /* \"@openzeppelin/contracts/token/ERC721/ERC721.sol\":14880:14911  emitEvent || auth != address(0) */\n    tag_343:\n        /* \"@openzeppelin/contracts/token/ERC721/ERC721.sol\":14876:15336  if (emitEvent || auth != address(0)) {... */\n      iszero\n      tag_344\n      jumpi\n        /* \"@openzeppelin/contracts/token/ERC721/ERC721.sol\":14927:14940  address owner */\n      0x00\n        /* \"@openzeppelin/contracts/token/ERC721/ERC721.sol\":14943:14965  _requireOwned(tokenId) */\n      tag_345\n        /* \"@openzeppelin/contracts/token/ERC721/ERC721.sol\":14957:14964  tokenId */\n      dup5\n        /* \"@openzeppelin/contracts/token/ERC721/ERC721.sol\":14943:14956  _requireOwned */\n      tag_110\n        /* \"@openzeppelin/contracts/token/ERC721/ERC721.sol\":14943:14965  _requireOwned(tokenId) */\n      jump\t// in\n    tag_345:\n        /* \"@openzeppelin/contracts/token/ERC721/ERC721.sol\":14927:14965  address owner = _requireOwned(tokenId) */\n      swap1\n      pop\n        /* \"@openzeppelin/contracts/token/ERC721/ERC721.sol\":15109:15110  0 */\n      0x00\n        /* \"@openzeppelin/contracts/token/ERC721/ERC721.sol\":15093:15111  auth != address(0) */\n      0xffffffffffffffffffffffffffffffffffffffff\n      and\n        /* \"@openzeppelin/contracts/token/ERC721/ERC721.sol\":15093:15097  auth */\n      dup4\n        /* \"@openzeppelin/contracts/token/ERC721/ERC721.sol\":15093:15111  auth != address(0) */\n      0xffffffffffffffffffffffffffffffffffffffff\n      and\n      eq\n      iszero\n        /* \"@openzeppelin/contracts/token/ERC721/ERC721.sol\":15093:15128  auth != address(0) && owner != auth */\n      dup1\n      iszero\n      tag_346\n      jumpi\n      pop\n        /* \"@openzeppelin/contracts/token/ERC721/ERC721.sol\":15124:15128  auth */\n      dup3\n        /* \"@openzeppelin/contracts/token/ERC721/ERC721.sol\":15115:15128  owner != auth */\n      0xffffffffffffffffffffffffffffffffffffffff\n      and\n        /* \"@openzeppelin/contracts/token/ERC721/ERC721.sol\":15115:15120  owner */\n      dup2\n        /* \"@openzeppelin/contracts/token/ERC721/ERC721.sol\":15115:15128  owner != auth */\n      0xffffffffffffffffffffffffffffffffffffffff\n      and\n      eq\n      iszero\n        /* \"@openzeppelin/contracts/token/ERC721/ERC721.sol\":15093:15128  auth != address(0) && owner != auth */\n    tag_346:\n        /* \"@openzeppelin/contracts/token/ERC721/ERC721.sol\":15093:15162  auth != address(0) && owner != auth && !isApprovedForAll(owner, auth) */\n      dup1\n      iszero\n      tag_347\n      jumpi\n      pop\n        /* \"@openzeppelin/contracts/token/ERC721/ERC721.sol\":15133:15162  isApprovedForAll(owner, auth) */\n      tag_348\n        /* \"@openzeppelin/contracts/token/ERC721/ERC721.sol\":15150:15155  owner */\n      dup2\n        /* \"@openzeppelin/contracts/token/ERC721/ERC721.sol\":15157:15161  auth */\n      dup5\n        /* \"@openzeppelin/contracts/token/ERC721/ERC721.sol\":15133:15149  isApprovedForAll */\n      tag_94\n        /* \"@openzeppelin/contracts/token/ERC721/ERC721.sol\":15133:15162  isApprovedForAll(owner, auth) */\n      jump\t// in\n    tag_348:\n        /* \"@openzeppelin/contracts/token/ERC721/ERC721.sol\":15132:15162  !isApprovedForAll(owner, auth) */\n      iszero\n        /* \"@openzeppelin/contracts/token/ERC721/ERC721.sol\":15093:15162  auth != address(0) && owner != auth && !isApprovedForAll(owner, auth) */\n    tag_347:\n        /* \"@openzeppelin/contracts/token/ERC721/ERC721.sol\":15089:15231  if (auth != address(0) && owner != auth && !isApprovedForAll(owner, auth)) {... */\n      iszero\n      tag_349\n      jumpi\n        /* \"@openzeppelin/contracts/token/ERC721/ERC721.sol\":15211:15215  auth */\n      dup3\n        /* \"@openzeppelin/contracts/token/ERC721/ERC721.sol\":15189:15216  ERC721InvalidApprover(auth) */\n      mload(0x40)\n      0xa9fbf51f00000000000000000000000000000000000000000000000000000000\n      dup2\n      mstore\n      0x04\n      add\n      tag_350\n      swap2\n      swap1\n      tag_39\n      jump\t// in\n    tag_350:\n      mload(0x40)\n      dup1\n      swap2\n      sub\n      swap1\n      revert\n        /* \"@openzeppelin/contracts/token/ERC721/ERC721.sol\":15089:15231  if (auth != address(0) && owner != auth && !isApprovedForAll(owner, auth)) {... */\n    tag_349:\n        /* \"@openzeppelin/contracts/token/ERC721/ERC721.sol\":15249:15258  emitEvent */\n      dup2\n        /* \"@openzeppelin/contracts/token/ERC721/ERC721.sol\":15245:15326  if (emitEvent) {... */\n      iszero\n      tag_351\n      jumpi\n        /* \"@openzeppelin/contracts/token/ERC721/ERC721.sol\":15303:15310  tokenId */\n      dup4\n        /* \"@openzeppelin/contracts/token/ERC721/ERC721.sol\":15299:15301  to */\n      dup6\n        /* \"@openzeppelin/contracts/token/ERC721/ERC721.sol\":15283:15311  Approval(owner, to, tokenId) */\n      0xffffffffffffffffffffffffffffffffffffffff\n      and\n        /* \"@openzeppelin/contracts/token/ERC721/ERC721.sol\":15292:15297  owner */\n      dup3\n        /* \"@openzeppelin/contracts/token/ERC721/ERC721.sol\":15283:15311  Approval(owner, to, tokenId) */\n      0xffffffffffffffffffffffffffffffffffffffff\n      and\n      0x8c5be1e5ebec7d5bd14f71427d1e84f3dd0314c0f7b2291e5b200ac8c7c3b925\n      mload(0x40)\n      mload(0x40)\n      dup1\n      swap2\n      sub\n      swap1\n      log4\n        /* \"@openzeppelin/contracts/token/ERC721/ERC721.sol\":15245:15326  if (emitEvent) {... */\n    tag_351:\n        /* \"@openzeppelin/contracts/token/ERC721/ERC721.sol\":14913:15336  {... */\n      pop\n        /* \"@openzeppelin/contracts/token/ERC721/ERC721.sol\":14876:15336  if (emitEvent || auth != address(0)) {... */\n    tag_344:\n        /* \"@openzeppelin/contracts/token/ERC721/ERC721.sol\":15373:15375  to */\n      dup4\n        /* \"@openzeppelin/contracts/token/ERC721/ERC721.sol\":15346:15361  _tokenApprovals */\n      0x04\n        /* \"@openzeppelin/contracts/token/ERC721/ERC721.sol\":15346:15370  _tokenApprovals[tokenId] */\n      0x00\n        /* \"@openzeppelin/contracts/token/ERC721/ERC721.sol\":15362:15369  tokenId */\n      dup6\n        /* \"@openzeppelin/contracts/token/ERC721/ERC721.sol\":15346:15370  _tokenApprovals[tokenId] */\n      dup2\n      mstore\n      0x20\n      add\n      swap1\n      dup2\n      mstore\n      0x20\n      add\n      0x00\n      keccak256\n      0x00\n        /* \"@openzeppelin/contracts/token/ERC721/ERC721.sol\":15346:15375  _tokenApprovals[tokenId] = to */\n      0x0100\n      exp\n      dup2\n      sload\n      dup2\n      0xffffffffffffffffffffffffffffffffffffffff\n      mul\n      not\n      and\n      swap1\n      dup4\n      0xffffffffffffffffffffffffffffffffffffffff\n      and\n      mul\n      or\n      swap1\n      sstore\n      pop\n        /* \"@openzeppelin/contracts/token/ERC721/ERC721.sol\":14720:15382  function _approve(address to, uint256 tokenId, address auth, bool emitEvent) internal virtual {... */\n      pop\n      pop\n      pop\n      pop\n      jump\t// out\n        /* \"@openzeppelin/contracts/token/ERC721/ERC721.sol\":7082:7450  function _checkAuthorized(address owner, address spender, uint256 tokenId) internal view virtual {... */\n    tag_257:\n        /* \"@openzeppelin/contracts/token/ERC721/ERC721.sol\":7194:7232  _isAuthorized(owner, spender, tokenId) */\n      tag_353\n        /* \"@openzeppelin/contracts/token/ERC721/ERC721.sol\":7208:7213  owner */\n      dup4\n        /* \"@openzeppelin/contracts/token/ERC721/ERC721.sol\":7215:7222  spender */\n      dup4\n        /* \"@openzeppelin/contracts/token/ERC721/ERC721.sol\":7224:7231  tokenId */\n      dup4\n        /* \"@openzeppelin/contracts/token/ERC721/ERC721.sol\":7194:7207  _isAuthorized */\n      tag_354\n        /* \"@openzeppelin/contracts/token/ERC721/ERC721.sol\":7194:7232  _isAuthorized(owner, spender, tokenId) */\n      jump\t// in\n    tag_353:\n        /* \"@openzeppelin/contracts/token/ERC721/ERC721.sol\":7189:7444  if (!_isAuthorized(owner, spender, tokenId)) {... */\n      tag_355\n      jumpi\n        /* \"@openzeppelin/contracts/token/ERC721/ERC721.sol\":7269:7270  0 */\n      0x00\n        /* \"@openzeppelin/contracts/token/ERC721/ERC721.sol\":7252:7271  owner == address(0) */\n      0xffffffffffffffffffffffffffffffffffffffff\n      and\n        /* \"@openzeppelin/contracts/token/ERC721/ERC721.sol\":7252:7257  owner */\n      dup4\n        /* \"@openzeppelin/contracts/token/ERC721/ERC721.sol\":7252:7271  owner == address(0) */\n      0xffffffffffffffffffffffffffffffffffffffff\n      and\n      sub\n        /* \"@openzeppelin/contracts/token/ERC721/ERC721.sol\":7248:7434  if (owner == address(0)) {... */\n      tag_356\n      jumpi\n        /* \"@openzeppelin/contracts/token/ERC721/ERC721.sol\":7321:7328  tokenId */\n      dup1\n        /* \"@openzeppelin/contracts/token/ERC721/ERC721.sol\":7298:7329  ERC721NonexistentToken(tokenId) */\n      mload(0x40)\n      0x7e27328900000000000000000000000000000000000000000000000000000000\n      dup2\n      mstore\n      0x04\n      add\n      tag_357\n      swap2\n      swap1\n      tag_66\n      jump\t// in\n    tag_357:\n      mload(0x40)\n      dup1\n      swap2\n      sub\n      swap1\n      revert\n        /* \"@openzeppelin/contracts/token/ERC721/ERC721.sol\":7248:7434  if (owner == address(0)) {... */\n    tag_356:\n        /* \"@openzeppelin/contracts/token/ERC721/ERC721.sol\":7402:7409  spender */\n      dup2\n        /* \"@openzeppelin/contracts/token/ERC721/ERC721.sol\":7411:7418  tokenId */\n      dup2\n        /* \"@openzeppelin/contracts/token/ERC721/ERC721.sol\":7375:7419  ERC721InsufficientApproval(spender, tokenId) */\n      mload(0x40)\n      0x177e802f00000000000000000000000000000000000000000000000000000000\n      dup2\n      mstore\n      0x04\n      add\n      tag_359\n      swap3\n      swap2\n      swap1\n      tag_360\n      jump\t// in\n    tag_359:\n      mload(0x40)\n      dup1\n      swap2\n      sub\n      swap1\n      revert\n        /* \"@openzeppelin/contracts/token/ERC721/ERC721.sol\":7189:7444  if (!_isAuthorized(owner, spender, tokenId)) {... */\n    tag_355:\n        /* \"@openzeppelin/contracts/token/ERC721/ERC721.sol\":7082:7450  function _checkAuthorized(address owner, address spender, uint256 tokenId) internal view virtual {... */\n      pop\n      pop\n      pop\n      jump\t// out\n        /* \"@openzeppelin/contracts/utils/math/Math.sol\":12214:13130  function log10(uint256 value) internal pure returns (uint256) {... */\n    tag_330:\n        /* \"@openzeppelin/contracts/utils/math/Math.sol\":12267:12274  uint256 */\n      0x00\n        /* \"@openzeppelin/contracts/utils/math/Math.sol\":12286:12300  uint256 result */\n      dup1\n        /* \"@openzeppelin/contracts/utils/math/Math.sol\":12303:12304  0 */\n      0x00\n        /* \"@openzeppelin/contracts/utils/math/Math.sol\":12286:12304  uint256 result = 0 */\n      swap1\n      pop\n        /* \"@openzeppelin/contracts/utils/math/Math.sol\":12351:12359  10 ** 64 */\n      0x184f03e93ff9f4daa797ed6e38ed64bf6a1f010000000000000000\n        /* \"@openzeppelin/contracts/utils/math/Math.sol\":12342:12347  value */\n      dup4\n        /* \"@openzeppelin/contracts/utils/math/Math.sol\":12342:12359  value >= 10 ** 64 */\n      lt\n        /* \"@openzeppelin/contracts/utils/math/Math.sol\":12338:12441  if (value >= 10 ** 64) {... */\n      tag_362\n      jumpi\n        /* \"@openzeppelin/contracts/utils/math/Math.sol\":12388:12396  10 ** 64 */\n      0x184f03e93ff9f4daa797ed6e38ed64bf6a1f010000000000000000\n        /* \"@openzeppelin/contracts/utils/math/Math.sol\":12379:12396  value /= 10 ** 64 */\n      dup4\n      dup2\n      tag_363\n      jumpi\n      tag_364\n      tag_339\n      jump\t// in\n    tag_364:\n    tag_363:\n      div\n      swap3\n      pop\n        /* \"@openzeppelin/contracts/utils/math/Math.sol\":12424:12426  64 */\n      0x40\n        /* \"@openzeppelin/contracts/utils/math/Math.sol\":12414:12426  result += 64 */\n      dup2\n      add\n      swap1\n      pop\n        /* \"@openzeppelin/contracts/utils/math/Math.sol\":12338:12441  if (value >= 10 ** 64) {... */\n    tag_362:\n        /* \"@openzeppelin/contracts/utils/math/Math.sol\":12467:12475  10 ** 32 */\n      0x04ee2d6d415b85acef8100000000\n        /* \"@openzeppelin/contracts/utils/math/Math.sol\":12458:12463  value */\n      dup4\n        /* \"@openzeppelin/contracts/utils/math/Math.sol\":12458:12475  value >= 10 ** 32 */\n      lt\n        /* \"@openzeppelin/contracts/utils/math/Math.sol\":12454:12557  if (value >= 10 ** 32) {... */\n      tag_365\n      jumpi\n        /* \"@openzeppelin/contracts/utils/math/Math.sol\":12504:12512  10 ** 32 */\n      0x04ee2d6d415b85acef8100000000\n        /* \"@openzeppelin/contracts/utils/math/Math.sol\":12495:12512  value /= 10 ** 32 */\n      dup4\n      dup2\n      tag_366\n      jumpi\n      tag_367\n      tag_339\n      jump\t// in\n    tag_367:\n    tag_366:\n      div\n      swap3\n      pop\n        /* \"@openzeppelin/contracts/utils/math/Math.sol\":12540:12542  32 */\n      0x20\n        /* \"@openzeppelin/contracts/utils/math/Math.sol\":12530:12542  result += 32 */\n      dup2\n      add\n      swap1\n      pop\n        /* \"@openzeppelin/contracts/utils/math/Math.sol\":12454:12557  if (value >= 10 ** 32) {... */\n    tag_365:\n        /* \"@openzeppelin/contracts/utils/math/Math.sol\":12583:12591  10 ** 16 */\n      0x2386f26fc10000\n        /* \"@openzeppelin/contracts/utils/math/Math.sol\":12574:12579  value */\n      dup4\n        /* \"@openzeppelin/contracts/utils/math/Math.sol\":12574:12591  value >= 10 ** 16 */\n      lt\n        /* \"@openzeppelin/contracts/utils/math/Math.sol\":12570:12673  if (value >= 10 ** 16) {... */\n      tag_368\n      jumpi\n        /* \"@openzeppelin/contracts/utils/math/Math.sol\":12620:12628  10 ** 16 */\n      0x2386f26fc10000\n        /* \"@openzeppelin/contracts/utils/math/Math.sol\":12611:12628  value /= 10 ** 16 */\n      dup4\n      dup2\n      tag_369\n      jumpi\n      tag_370\n      tag_339\n      jump\t// in\n    tag_370:\n    tag_369:\n      div\n      swap3\n      pop\n        /* \"@openzeppelin/contracts/utils/math/Math.sol\":12656:12658  16 */\n      0x10\n        /* \"@openzeppelin/contracts/utils/math/Math.sol\":12646:12658  result += 16 */\n      dup2\n      add\n      swap1\n      pop\n        /* \"@openzeppelin/contracts/utils/math/Math.sol\":12570:12673  if (value >= 10 ** 16) {... */\n    tag_368:\n        /* \"@openzeppelin/contracts/utils/math/Math.sol\":12699:12706  10 ** 8 */\n      0x05f5e100\n        /* \"@openzeppelin/contracts/utils/math/Math.sol\":12690:12695  value */\n      dup4\n        /* \"@openzeppelin/contracts/utils/math/Math.sol\":12690:12706  value >= 10 ** 8 */\n      lt\n        /* \"@openzeppelin/contracts/utils/math/Math.sol\":12686:12786  if (value >= 10 ** 8) {... */\n      tag_371\n      jumpi\n        /* \"@openzeppelin/contracts/utils/math/Math.sol\":12735:12742  10 ** 8 */\n      0x05f5e100\n        /* \"@openzeppelin/contracts/utils/math/Math.sol\":12726:12742  value /= 10 ** 8 */\n      dup4\n      dup2\n      tag_372\n      jumpi\n      tag_373\n      tag_339\n      jump\t// in\n    tag_373:\n    tag_372:\n      div\n      swap3\n      pop\n        /* \"@openzeppelin/contracts/utils/math/Math.sol\":12770:12771  8 */\n      0x08\n        /* \"@openzeppelin/contracts/utils/math/Math.sol\":12760:12771  result += 8 */\n      dup2\n      add\n      swap1\n      pop\n        /* \"@openzeppelin/contracts/utils/math/Math.sol\":12686:12786  if (value >= 10 ** 8) {... */\n    tag_371:\n        /* \"@openzeppelin/contracts/utils/math/Math.sol\":12812:12819  10 ** 4 */\n      0x2710\n        /* \"@openzeppelin/contracts/utils/math/Math.sol\":12803:12808  value */\n      dup4\n        /* \"@openzeppelin/contracts/utils/math/Math.sol\":12803:12819  value >= 10 ** 4 */\n      lt\n        /* \"@openzeppelin/contracts/utils/math/Math.sol\":12799:12899  if (value >= 10 ** 4) {... */\n      tag_374\n      jumpi\n        /* \"@openzeppelin/contracts/utils/math/Math.sol\":12848:12855  10 ** 4 */\n      0x2710\n        /* \"@openzeppelin/contracts/utils/math/Math.sol\":12839:12855  value /= 10 ** 4 */\n      dup4\n      dup2\n      tag_375\n      jumpi\n      tag_376\n      tag_339\n      jump\t// in\n    tag_376:\n    tag_375:\n      div\n      swap3\n      pop\n        /* \"@openzeppelin/contracts/utils/math/Math.sol\":12883:12884  4 */\n      0x04\n        /* \"@openzeppelin/contracts/utils/math/Math.sol\":12873:12884  result += 4 */\n      dup2\n      add\n      swap1\n      pop\n        /* \"@openzeppelin/contracts/utils/math/Math.sol\":12799:12899  if (value >= 10 ** 4) {... */\n    tag_374:\n        /* \"@openzeppelin/contracts/utils/math/Math.sol\":12925:12932  10 ** 2 */\n      0x64\n        /* \"@openzeppelin/contracts/utils/math/Math.sol\":12916:12921  value */\n      dup4\n        /* \"@openzeppelin/contracts/utils/math/Math.sol\":12916:12932  value >= 10 ** 2 */\n      lt\n        /* \"@openzeppelin/contracts/utils/math/Math.sol\":12912:13012  if (value >= 10 ** 2) {... */\n      tag_377\n      jumpi\n        /* \"@openzeppelin/contracts/utils/math/Math.sol\":12961:12968  10 ** 2 */\n      0x64\n        /* \"@openzeppelin/contracts/utils/math/Math.sol\":12952:12968  value /= 10 ** 2 */\n      dup4\n      dup2\n      tag_378\n      jumpi\n      tag_379\n      tag_339\n      jump\t// in\n    tag_379:\n    tag_378:\n      div\n      swap3\n      pop\n        /* \"@openzeppelin/contracts/utils/math/Math.sol\":12996:12997  2 */\n      0x02\n        /* \"@openzeppelin/contracts/utils/math/Math.sol\":12986:12997  result += 2 */\n      dup2\n      add\n      swap1\n      pop\n        /* \"@openzeppelin/contracts/utils/math/Math.sol\":12912:13012  if (value >= 10 ** 2) {... */\n    tag_377:\n        /* \"@openzeppelin/contracts/utils/math/Math.sol\":13038:13045  10 ** 1 */\n      0x0a\n        /* \"@openzeppelin/contracts/utils/math/Math.sol\":13029:13034  value */\n      dup4\n        /* \"@openzeppelin/contracts/utils/math/Math.sol\":13029:13045  value >= 10 ** 1 */\n      lt\n        /* \"@openzeppelin/contracts/utils/math/Math.sol\":13025:13091  if (value >= 10 ** 1) {... */\n      tag_380\n      jumpi\n        /* \"@openzeppelin/contracts/utils/math/Math.sol\":13075:13076  1 */\n      0x01\n        /* \"@openzeppelin/contracts/utils/math/Math.sol\":13065:13076  result += 1 */\n      dup2\n      add\n      swap1\n      pop\n        /* \"@openzeppelin/contracts/utils/math/Math.sol\":13025:13091  if (value >= 10 ** 1) {... */\n    tag_380:\n        /* \"@openzeppelin/contracts/utils/math/Math.sol\":13117:13123  result */\n      dup1\n        /* \"@openzeppelin/contracts/utils/math/Math.sol\":13110:13123  return result */\n      swap2\n      pop\n      pop\n        /* \"@openzeppelin/contracts/utils/math/Math.sol\":12214:13130  function log10(uint256 value) internal pure returns (uint256) {... */\n      swap2\n      swap1\n      pop\n      jump\t// out\n        /* \"@openzeppelin/contracts/token/ERC721/ERC721.sol\":6376:6648  function _isAuthorized(address owner, address spender, uint256 tokenId) internal view virtual returns (bool) {... */\n    tag_354:\n        /* \"@openzeppelin/contracts/token/ERC721/ERC721.sol\":6479:6483  bool */\n      0x00\n        /* \"@openzeppelin/contracts/token/ERC721/ERC721.sol\":6533:6534  0 */\n      dup1\n        /* \"@openzeppelin/contracts/token/ERC721/ERC721.sol\":6514:6535  spender != address(0) */\n      0xffffffffffffffffffffffffffffffffffffffff\n      and\n        /* \"@openzeppelin/contracts/token/ERC721/ERC721.sol\":6514:6521  spender */\n      dup4\n        /* \"@openzeppelin/contracts/token/ERC721/ERC721.sol\":6514:6535  spender != address(0) */\n      0xffffffffffffffffffffffffffffffffffffffff\n      and\n      eq\n      iszero\n        /* \"@openzeppelin/contracts/token/ERC721/ERC721.sol\":6514:6641  spender != address(0) &&... */\n      dup1\n      iszero\n      tag_382\n      jumpi\n      pop\n        /* \"@openzeppelin/contracts/token/ERC721/ERC721.sol\":6561:6568  spender */\n      dup3\n        /* \"@openzeppelin/contracts/token/ERC721/ERC721.sol\":6552:6568  owner == spender */\n      0xffffffffffffffffffffffffffffffffffffffff\n      and\n        /* \"@openzeppelin/contracts/token/ERC721/ERC721.sol\":6552:6557  owner */\n      dup5\n        /* \"@openzeppelin/contracts/token/ERC721/ERC721.sol\":6552:6568  owner == spender */\n      0xffffffffffffffffffffffffffffffffffffffff\n      and\n      eq\n        /* \"@openzeppelin/contracts/token/ERC721/ERC721.sol\":6552:6604  owner == spender || isApprovedForAll(owner, spender) */\n      dup1\n      tag_383\n      jumpi\n      pop\n        /* \"@openzeppelin/contracts/token/ERC721/ERC721.sol\":6572:6604  isApprovedForAll(owner, spender) */\n      tag_384\n        /* \"@openzeppelin/contracts/token/ERC721/ERC721.sol\":6589:6594  owner */\n      dup5\n        /* \"@openzeppelin/contracts/token/ERC721/ERC721.sol\":6596:6603  spender */\n      dup5\n        /* \"@openzeppelin/contracts/token/ERC721/ERC721.sol\":6572:6588  isApprovedForAll */\n      tag_94\n        /* \"@openzeppelin/contracts/token/ERC721/ERC721.sol\":6572:6604  isApprovedForAll(owner, spender) */\n      jump\t// in\n    tag_384:\n        /* \"@openzeppelin/contracts/token/ERC721/ERC721.sol\":6552:6604  owner == spender || isApprovedForAll(owner, spender) */\n    tag_383:\n        /* \"@openzeppelin/contracts/token/ERC721/ERC721.sol\":6552:6640  owner == spender || isApprovedForAll(owner, spender) || _getApproved(tokenId) == spender */\n      dup1\n      tag_385\n      jumpi\n      pop\n        /* \"@openzeppelin/contracts/token/ERC721/ERC721.sol\":6633:6640  spender */\n      dup3\n        /* \"@openzeppelin/contracts/token/ERC721/ERC721.sol\":6608:6640  _getApproved(tokenId) == spender */\n      0xffffffffffffffffffffffffffffffffffffffff\n      and\n        /* \"@openzeppelin/contracts/token/ERC721/ERC721.sol\":6608:6629  _getApproved(tokenId) */\n      tag_386\n        /* \"@openzeppelin/contracts/token/ERC721/ERC721.sol\":6621:6628  tokenId */\n      dup4\n        /* \"@openzeppelin/contracts/token/ERC721/ERC721.sol\":6608:6620  _getApproved */\n      tag_112\n        /* \"@openzeppelin/contracts/token/ERC721/ERC721.sol\":6608:6629  _getApproved(tokenId) */\n      jump\t// in\n    tag_386:\n        /* \"@openzeppelin/contracts/token/ERC721/ERC721.sol\":6608:6640  _getApproved(tokenId) == spender */\n      0xffffffffffffffffffffffffffffffffffffffff\n      and\n      eq\n        /* \"@openzeppelin/contracts/token/ERC721/ERC721.sol\":6552:6640  owner == spender || isApprovedForAll(owner, spender) || _getApproved(tokenId) == spender */\n    tag_385:\n        /* \"@openzeppelin/contracts/token/ERC721/ERC721.sol\":6514:6641  spender != address(0) &&... */\n    tag_382:\n        /* \"@openzeppelin/contracts/token/ERC721/ERC721.sol\":6495:6641  return... */\n      swap1\n      pop\n        /* \"@openzeppelin/contracts/token/ERC721/ERC721.sol\":6376:6648  function _isAuthorized(address owner, address spender, uint256 tokenId) internal view virtual returns (bool) {... */\n      swap4\n      swap3\n      pop\n      pop\n      pop\n      jump\t// out\n        /* \"#utility.yul\":7:82   */\n    tag_387:\n        /* \"#utility.yul\":40:46   */\n      0x00\n        /* \"#utility.yul\":73:75   */\n      0x40\n        /* \"#utility.yul\":67:76   */\n      mload\n        /* \"#utility.yul\":57:76   */\n      swap1\n      pop\n        /* \"#utility.yul\":7:82   */\n      swap1\n      jump\t// out\n        /* \"#utility.yul\":88:205   */\n    tag_388:\n        /* \"#utility.yul\":197:198   */\n      0x00\n        /* \"#utility.yul\":194:195   */\n      dup1\n        /* \"#utility.yul\":187:199   */\n      revert\n        /* \"#utility.yul\":211:328   */\n    tag_389:\n        /* \"#utility.yul\":320:321   */\n      0x00\n        /* \"#utility.yul\":317:318   */\n      dup1\n        /* \"#utility.yul\":310:322   */\n      revert\n        /* \"#utility.yul\":334:483   */\n    tag_390:\n        /* \"#utility.yul\":370:377   */\n      0x00\n        /* \"#utility.yul\":410:476   */\n      0xffffffff00000000000000000000000000000000000000000000000000000000\n        /* \"#utility.yul\":403:408   */\n      dup3\n        /* \"#utility.yul\":399:477   */\n      and\n        /* \"#utility.yul\":388:477   */\n      swap1\n      pop\n        /* \"#utility.yul\":334:483   */\n      swap2\n      swap1\n      pop\n      jump\t// out\n        /* \"#utility.yul\":489:609   */\n    tag_391:\n        /* \"#utility.yul\":561:584   */\n      tag_453\n        /* \"#utility.yul\":578:583   */\n      dup2\n        /* \"#utility.yul\":561:584   */\n      tag_390\n      jump\t// in\n    tag_453:\n        /* \"#utility.yul\":554:559   */\n      dup2\n        /* \"#utility.yul\":551:585   */\n      eq\n        /* \"#utility.yul\":541:603   */\n      tag_454\n      jumpi\n        /* \"#utility.yul\":599:600   */\n      0x00\n        /* \"#utility.yul\":596:597   */\n      dup1\n        /* \"#utility.yul\":589:601   */\n      revert\n        /* \"#utility.yul\":541:603   */\n    tag_454:\n        /* \"#utility.yul\":489:609   */\n      pop\n      jump\t// out\n        /* \"#utility.yul\":615:752   */\n    tag_392:\n        /* \"#utility.yul\":660:665   */\n      0x00\n        /* \"#utility.yul\":698:704   */\n      dup2\n        /* \"#utility.yul\":685:705   */\n      calldataload\n        /* \"#utility.yul\":676:705   */\n      swap1\n      pop\n        /* \"#utility.yul\":714:746   */\n      tag_456\n        /* \"#utility.yul\":740:745   */\n      dup2\n        /* \"#utility.yul\":714:746   */\n      tag_391\n      jump\t// in\n    tag_456:\n        /* \"#utility.yul\":615:752   */\n      swap3\n      swap2\n      pop\n      pop\n      jump\t// out\n        /* \"#utility.yul\":758:1085   */\n    tag_26:\n        /* \"#utility.yul\":816:822   */\n      0x00\n        /* \"#utility.yul\":865:867   */\n      0x20\n        /* \"#utility.yul\":853:862   */\n      dup3\n        /* \"#utility.yul\":844:851   */\n      dup5\n        /* \"#utility.yul\":840:863   */\n      sub\n        /* \"#utility.yul\":836:868   */\n      slt\n        /* \"#utility.yul\":833:952   */\n      iszero\n      tag_458\n      jumpi\n        /* \"#utility.yul\":871:950   */\n      tag_459\n      tag_388\n      jump\t// in\n    tag_459:\n        /* \"#utility.yul\":833:952   */\n    tag_458:\n        /* \"#utility.yul\":991:992   */\n      0x00\n        /* \"#utility.yul\":1016:1068   */\n      tag_460\n        /* \"#utility.yul\":1060:1067   */\n      dup5\n        /* \"#utility.yul\":1051:1057   */\n      dup3\n        /* \"#utility.yul\":1040:1049   */\n      dup6\n        /* \"#utility.yul\":1036:1058   */\n      add\n        /* \"#utility.yul\":1016:1068   */\n      tag_392\n      jump\t// in\n    tag_460:\n        /* \"#utility.yul\":1006:1068   */\n      swap2\n      pop\n        /* \"#utility.yul\":962:1078   */\n      pop\n        /* \"#utility.yul\":758:1085   */\n      swap3\n      swap2\n      pop\n      pop\n      jump\t// out\n        /* \"#utility.yul\":1091:1181   */\n    tag_393:\n        /* \"#utility.yul\":1125:1132   */\n      0x00\n        /* \"#utility.yul\":1168:1173   */\n      dup2\n        /* \"#utility.yul\":1161:1174   */\n      iszero\n        /* \"#utility.yul\":1154:1175   */\n      iszero\n        /* \"#utility.yul\":1143:1175   */\n      swap1\n      pop\n        /* \"#utility.yul\":1091:1181   */\n      swap2\n      swap1\n      pop\n      jump\t// out\n        /* \"#utility.yul\":1187:1296   */\n    tag_394:\n        /* \"#utility.yul\":1268:1289   */\n      tag_463\n        /* \"#utility.yul\":1283:1288   */\n      dup2\n        /* \"#utility.yul\":1268:1289   */\n      tag_393\n      jump\t// in\n    tag_463:\n        /* \"#utility.yul\":1263:1266   */\n      dup3\n        /* \"#utility.yul\":1256:1290   */\n      mstore\n        /* \"#utility.yul\":1187:1296   */\n      pop\n      pop\n      jump\t// out\n        /* \"#utility.yul\":1302:1512   */\n    tag_29:\n        /* \"#utility.yul\":1389:1393   */\n      0x00\n        /* \"#utility.yul\":1427:1429   */\n      0x20\n        /* \"#utility.yul\":1416:1425   */\n      dup3\n        /* \"#utility.yul\":1412:1430   */\n      add\n        /* \"#utility.yul\":1404:1430   */\n      swap1\n      pop\n        /* \"#utility.yul\":1440:1505   */\n      tag_465\n        /* \"#utility.yul\":1502:1503   */\n      0x00\n        /* \"#utility.yul\":1491:1500   */\n      dup4\n        /* \"#utility.yul\":1487:1504   */\n      add\n        /* \"#utility.yul\":1478:1484   */\n      dup5\n        /* \"#utility.yul\":1440:1505   */\n      tag_394\n      jump\t// in\n    tag_465:\n        /* \"#utility.yul\":1302:1512   */\n      swap3\n      swap2\n      pop\n      pop\n      jump\t// out\n        /* \"#utility.yul\":1518:1617   */\n    tag_395:\n        /* \"#utility.yul\":1570:1576   */\n      0x00\n        /* \"#utility.yul\":1604:1609   */\n      dup2\n        /* \"#utility.yul\":1598:1610   */\n      mload\n        /* \"#utility.yul\":1588:1610   */\n      swap1\n      pop\n        /* \"#utility.yul\":1518:1617   */\n      swap2\n      swap1\n      pop\n      jump\t// out\n        /* \"#utility.yul\":1623:1792   */\n    tag_396:\n        /* \"#utility.yul\":1707:1718   */\n      0x00\n        /* \"#utility.yul\":1741:1747   */\n      dup3\n        /* \"#utility.yul\":1736:1739   */\n      dup3\n        /* \"#utility.yul\":1729:1748   */\n      mstore\n        /* \"#utility.yul\":1781:1785   */\n      0x20\n        /* \"#utility.yul\":1776:1779   */\n      dup3\n        /* \"#utility.yul\":1772:1786   */\n      add\n        /* \"#utility.yul\":1757:1786   */\n      swap1\n      pop\n        /* \"#utility.yul\":1623:1792   */\n      swap3\n      swap2\n      pop\n      pop\n      jump\t// out\n        /* \"#utility.yul\":1798:2044   */\n    tag_397:\n        /* \"#utility.yul\":1879:1880   */\n      0x00\n        /* \"#utility.yul\":1889:2002   */\n    tag_469:\n        /* \"#utility.yul\":1903:1909   */\n      dup4\n        /* \"#utility.yul\":1900:1901   */\n      dup2\n        /* \"#utility.yul\":1897:1910   */\n      lt\n        /* \"#utility.yul\":1889:2002   */\n      iszero\n      tag_471\n      jumpi\n        /* \"#utility.yul\":1988:1989   */\n      dup1\n        /* \"#utility.yul\":1983:1986   */\n      dup3\n        /* \"#utility.yul\":1979:1990   */\n      add\n        /* \"#utility.yul\":1973:1991   */\n      mload\n        /* \"#utility.yul\":1969:1970   */\n      dup2\n        /* \"#utility.yul\":1964:1967   */\n      dup5\n        /* \"#utility.yul\":1960:1971   */\n      add\n        /* \"#utility.yul\":1953:1992   */\n      mstore\n        /* \"#utility.yul\":1925:1927   */\n      0x20\n        /* \"#utility.yul\":1922:1923   */\n      dup2\n        /* \"#utility.yul\":1918:1928   */\n      add\n        /* \"#utility.yul\":1913:1928   */\n      swap1\n      pop\n        /* \"#utility.yul\":1889:2002   */\n      jump(tag_469)\n    tag_471:\n        /* \"#utility.yul\":2036:2037   */\n      0x00\n        /* \"#utility.yul\":2027:2033   */\n      dup5\n        /* \"#utility.yul\":2022:2025   */\n      dup5\n        /* \"#utility.yul\":2018:2034   */\n      add\n        /* \"#utility.yul\":2011:2038   */\n      mstore\n        /* \"#utility.yul\":1860:2044   */\n      pop\n        /* \"#utility.yul\":1798:2044   */\n      pop\n      pop\n      pop\n      jump\t// out\n        /* \"#utility.yul\":2050:2152   */\n    tag_398:\n        /* \"#utility.yul\":2091:2097   */\n      0x00\n        /* \"#utility.yul\":2142:2144   */\n      0x1f\n        /* \"#utility.yul\":2138:2145   */\n      not\n        /* \"#utility.yul\":2133:2135   */\n      0x1f\n        /* \"#utility.yul\":2126:2131   */\n      dup4\n        /* \"#utility.yul\":2122:2136   */\n      add\n        /* \"#utility.yul\":2118:2146   */\n      and\n        /* \"#utility.yul\":2108:2146   */\n      swap1\n      pop\n        /* \"#utility.yul\":2050:2152   */\n      swap2\n      swap1\n      pop\n      jump\t// out\n        /* \"#utility.yul\":2158:2535   */\n    tag_399:\n        /* \"#utility.yul\":2246:2249   */\n      0x00\n        /* \"#utility.yul\":2274:2313   */\n      tag_474\n        /* \"#utility.yul\":2307:2312   */\n      dup3\n        /* \"#utility.yul\":2274:2313   */\n      tag_395\n      jump\t// in\n    tag_474:\n        /* \"#utility.yul\":2329:2400   */\n      tag_475\n        /* \"#utility.yul\":2393:2399   */\n      dup2\n        /* \"#utility.yul\":2388:2391   */\n      dup6\n        /* \"#utility.yul\":2329:2400   */\n      tag_396\n      jump\t// in\n    tag_475:\n        /* \"#utility.yul\":2322:2400   */\n      swap4\n      pop\n        /* \"#utility.yul\":2409:2474   */\n      tag_476\n        /* \"#utility.yul\":2467:2473   */\n      dup2\n        /* \"#utility.yul\":2462:2465   */\n      dup6\n        /* \"#utility.yul\":2455:2459   */\n      0x20\n        /* \"#utility.yul\":2448:2453   */\n      dup7\n        /* \"#utility.yul\":2444:2460   */\n      add\n        /* \"#utility.yul\":2409:2474   */\n      tag_397\n      jump\t// in\n    tag_476:\n        /* \"#utility.yul\":2499:2528   */\n      tag_477\n        /* \"#utility.yul\":2521:2527   */\n      dup2\n        /* \"#utility.yul\":2499:2528   */\n      tag_398\n      jump\t// in\n    tag_477:\n        /* \"#utility.yul\":2494:2497   */\n      dup5\n        /* \"#utility.yul\":2490:2529   */\n      add\n        /* \"#utility.yul\":2483:2529   */\n      swap2\n      pop\n        /* \"#utility.yul\":2250:2535   */\n      pop\n        /* \"#utility.yul\":2158:2535   */\n      swap3\n      swap2\n      pop\n      pop\n      jump\t// out\n        /* \"#utility.yul\":2541:2854   */\n    tag_33:\n        /* \"#utility.yul\":2654:2658   */\n      0x00\n        /* \"#utility.yul\":2692:2694   */\n      0x20\n        /* \"#utility.yul\":2681:2690   */\n      dup3\n        /* \"#utility.yul\":2677:2695   */\n      add\n        /* \"#utility.yul\":2669:2695   */\n      swap1\n      pop\n        /* \"#utility.yul\":2741:2750   */\n      dup2\n        /* \"#utility.yul\":2735:2739   */\n      dup2\n        /* \"#utility.yul\":2731:2751   */\n      sub\n        /* \"#utility.yul\":2727:2728   */\n      0x00\n        /* \"#utility.yul\":2716:2725   */\n      dup4\n        /* \"#utility.yul\":2712:2729   */\n      add\n        /* \"#utility.yul\":2705:2752   */\n      mstore\n        /* \"#utility.yul\":2769:2847   */\n      tag_479\n        /* \"#utility.yul\":2842:2846   */\n      dup2\n        /* \"#utility.yul\":2833:2839   */\n      dup5\n        /* \"#utility.yul\":2769:2847   */\n      tag_399\n      jump\t// in\n    tag_479:\n        /* \"#utility.yul\":2761:2847   */\n      swap1\n      pop\n        /* \"#utility.yul\":2541:2854   */\n      swap3\n      swap2\n      pop\n      pop\n      jump\t// out\n        /* \"#utility.yul\":2860:2937   */\n    tag_400:\n        /* \"#utility.yul\":2897:2904   */\n      0x00\n        /* \"#utility.yul\":2926:2931   */\n      dup2\n        /* \"#utility.yul\":2915:2931   */\n      swap1\n      pop\n        /* \"#utility.yul\":2860:2937   */\n      swap2\n      swap1\n      pop\n      jump\t// out\n        /* \"#utility.yul\":2943:3065   */\n    tag_401:\n        /* \"#utility.yul\":3016:3040   */\n      tag_482\n        /* \"#utility.yul\":3034:3039   */\n      dup2\n        /* \"#utility.yul\":3016:3040   */\n      tag_400\n      jump\t// in\n    tag_482:\n        /* \"#utility.yul\":3009:3014   */\n      dup2\n        /* \"#utility.yul\":3006:3041   */\n      eq\n        /* \"#utility.yul\":2996:3059   */\n      tag_483\n      jumpi\n        /* \"#utility.yul\":3055:3056   */\n      0x00\n        /* \"#utility.yul\":3052:3053   */\n      dup1\n        /* \"#utility.yul\":3045:3057   */\n      revert\n        /* \"#utility.yul\":2996:3059   */\n    tag_483:\n        /* \"#utility.yul\":2943:3065   */\n      pop\n      jump\t// out\n        /* \"#utility.yul\":3071:3210   */\n    tag_402:\n        /* \"#utility.yul\":3117:3122   */\n      0x00\n        /* \"#utility.yul\":3155:3161   */\n      dup2\n        /* \"#utility.yul\":3142:3162   */\n      calldataload\n        /* \"#utility.yul\":3133:3162   */\n      swap1\n      pop\n        /* \"#utility.yul\":3171:3204   */\n      tag_485\n        /* \"#utility.yul\":3198:3203   */\n      dup2\n        /* \"#utility.yul\":3171:3204   */\n      tag_401\n      jump\t// in\n    tag_485:\n        /* \"#utility.yul\":3071:3210   */\n      swap3\n      swap2\n      pop\n      pop\n      jump\t// out\n        /* \"#utility.yul\":3216:3545   */\n    tag_36:\n        /* \"#utility.yul\":3275:3281   */\n      0x00\n        /* \"#utility.yul\":3324:3326   */\n      0x20\n        /* \"#utility.yul\":3312:3321   */\n      dup3\n        /* \"#utility.yul\":3303:3310   */\n      dup5\n        /* \"#utility.yul\":3299:3322   */\n      sub\n        /* \"#utility.yul\":3295:3327   */\n      slt\n        /* \"#utility.yul\":3292:3411   */\n      iszero\n      tag_487\n      jumpi\n        /* \"#utility.yul\":3330:3409   */\n      tag_488\n      tag_388\n      jump\t// in\n    tag_488:\n        /* \"#utility.yul\":3292:3411   */\n    tag_487:\n        /* \"#utility.yul\":3450:3451   */\n      0x00\n        /* \"#utility.yul\":3475:3528   */\n      tag_489\n        /* \"#utility.yul\":3520:3527   */\n      dup5\n        /* \"#utility.yul\":3511:3517   */\n      dup3\n        /* \"#utility.yul\":3500:3509   */\n      dup6\n        /* \"#utility.yul\":3496:3518   */\n      add\n        /* \"#utility.yul\":3475:3528   */\n      tag_402\n      jump\t// in\n    tag_489:\n        /* \"#utility.yul\":3465:3528   */\n      swap2\n      pop\n        /* \"#utility.yul\":3421:3538   */\n      pop\n        /* \"#utility.yul\":3216:3545   */\n      swap3\n      swap2\n      pop\n      pop\n      jump\t// out\n        /* \"#utility.yul\":3551:3677   */\n    tag_403:\n        /* \"#utility.yul\":3588:3595   */\n      0x00\n        /* \"#utility.yul\":3628:3670   */\n      0xffffffffffffffffffffffffffffffffffffffff\n        /* \"#utility.yul\":3621:3626   */\n      dup3\n        /* \"#utility.yul\":3617:3671   */\n      and\n        /* \"#utility.yul\":3606:3671   */\n      swap1\n      pop\n        /* \"#utility.yul\":3551:3677   */\n      swap2\n      swap1\n      pop\n      jump\t// out\n        /* \"#utility.yul\":3683:3779   */\n    tag_404:\n        /* \"#utility.yul\":3720:3727   */\n      0x00\n        /* \"#utility.yul\":3749:3773   */\n      tag_492\n        /* \"#utility.yul\":3767:3772   */\n      dup3\n        /* \"#utility.yul\":3749:3773   */\n      tag_403\n      jump\t// in\n    tag_492:\n        /* \"#utility.yul\":3738:3773   */\n      swap1\n      pop\n        /* \"#utility.yul\":3683:3779   */\n      swap2\n      swap1\n      pop\n      jump\t// out\n        /* \"#utility.yul\":3785:3903   */\n    tag_405:\n        /* \"#utility.yul\":3872:3896   */\n      tag_494\n        /* \"#utility.yul\":3890:3895   */\n      dup2\n        /* \"#utility.yul\":3872:3896   */\n      tag_404\n      jump\t// in\n    tag_494:\n        /* \"#utility.yul\":3867:3870   */\n      dup3\n        /* \"#utility.yul\":3860:3897   */\n      mstore\n        /* \"#utility.yul\":3785:3903   */\n      pop\n      pop\n      jump\t// out\n        /* \"#utility.yul\":3909:4131   */\n    tag_39:\n        /* \"#utility.yul\":4002:4006   */\n      0x00\n        /* \"#utility.yul\":4040:4042   */\n      0x20\n        /* \"#utility.yul\":4029:4038   */\n      dup3\n        /* \"#utility.yul\":4025:4043   */\n      add\n        /* \"#utility.yul\":4017:4043   */\n      swap1\n      pop\n        /* \"#utility.yul\":4053:4124   */\n      tag_496\n        /* \"#utility.yul\":4121:4122   */\n      0x00\n        /* \"#utility.yul\":4110:4119   */\n      dup4\n        /* \"#utility.yul\":4106:4123   */\n      add\n        /* \"#utility.yul\":4097:4103   */\n      dup5\n        /* \"#utility.yul\":4053:4124   */\n      tag_405\n      jump\t// in\n    tag_496:\n        /* \"#utility.yul\":3909:4131   */\n      swap3\n      swap2\n      pop\n      pop\n      jump\t// out\n        /* \"#utility.yul\":4137:4259   */\n    tag_406:\n        /* \"#utility.yul\":4210:4234   */\n      tag_498\n        /* \"#utility.yul\":4228:4233   */\n      dup2\n        /* \"#utility.yul\":4210:4234   */\n      tag_404\n      jump\t// in\n    tag_498:\n        /* \"#utility.yul\":4203:4208   */\n      dup2\n        /* \"#utility.yul\":4200:4235   */\n      eq\n        /* \"#utility.yul\":4190:4253   */\n      tag_499\n      jumpi\n        /* \"#utility.yul\":4249:4250   */\n      0x00\n        /* \"#utility.yul\":4246:4247   */\n      dup1\n        /* \"#utility.yul\":4239:4251   */\n      revert\n        /* \"#utility.yul\":4190:4253   */\n    tag_499:\n        /* \"#utility.yul\":4137:4259   */\n      pop\n      jump\t// out\n        /* \"#utility.yul\":4265:4404   */\n    tag_407:\n        /* \"#utility.yul\":4311:4316   */\n      0x00\n        /* \"#utility.yul\":4349:4355   */\n      dup2\n        /* \"#utility.yul\":4336:4356   */\n      calldataload\n        /* \"#utility.yul\":4327:4356   */\n      swap1\n      pop\n        /* \"#utility.yul\":4365:4398   */\n      tag_501\n        /* \"#utility.yul\":4392:4397   */\n      dup2\n        /* \"#utility.yul\":4365:4398   */\n      tag_406\n      jump\t// in\n    tag_501:\n        /* \"#utility.yul\":4265:4404   */\n      swap3\n      swap2\n      pop\n      pop\n      jump\t// out\n        /* \"#utility.yul\":4410:4884   */\n    tag_42:\n        /* \"#utility.yul\":4478:4484   */\n      0x00\n        /* \"#utility.yul\":4486:4492   */\n      dup1\n        /* \"#utility.yul\":4535:4537   */\n      0x40\n        /* \"#utility.yul\":4523:4532   */\n      dup4\n        /* \"#utility.yul\":4514:4521   */\n      dup6\n        /* \"#utility.yul\":4510:4533   */\n      sub\n        /* \"#utility.yul\":4506:4538   */\n      slt\n        /* \"#utility.yul\":4503:4622   */\n      iszero\n      tag_503\n      jumpi\n        /* \"#utility.yul\":4541:4620   */\n      tag_504\n      tag_388\n      jump\t// in\n    tag_504:\n        /* \"#utility.yul\":4503:4622   */\n    tag_503:\n        /* \"#utility.yul\":4661:4662   */\n      0x00\n        /* \"#utility.yul\":4686:4739   */\n      tag_505\n        /* \"#utility.yul\":4731:4738   */\n      dup6\n        /* \"#utility.yul\":4722:4728   */\n      dup3\n        /* \"#utility.yul\":4711:4720   */\n      dup7\n        /* \"#utility.yul\":4707:4729   */\n      add\n        /* \"#utility.yul\":4686:4739   */\n      tag_407\n      jump\t// in\n    tag_505:\n        /* \"#utility.yul\":4676:4739   */\n      swap3\n      pop\n        /* \"#utility.yul\":4632:4749   */\n      pop\n        /* \"#utility.yul\":4788:4790   */\n      0x20\n        /* \"#utility.yul\":4814:4867   */\n      tag_506\n        /* \"#utility.yul\":4859:4866   */\n      dup6\n        /* \"#utility.yul\":4850:4856   */\n      dup3\n        /* \"#utility.yul\":4839:4848   */\n      dup7\n        /* \"#utility.yul\":4835:4857   */\n      add\n        /* \"#utility.yul\":4814:4867   */\n      tag_402\n      jump\t// in\n    tag_506:\n        /* \"#utility.yul\":4804:4867   */\n      swap2\n      pop\n        /* \"#utility.yul\":4759:4877   */\n      pop\n        /* \"#utility.yul\":4410:4884   */\n      swap3\n      pop\n      swap3\n      swap1\n      pop\n      jump\t// out\n        /* \"#utility.yul\":4890:5509   */\n    tag_46:\n        /* \"#utility.yul\":4967:4973   */\n      0x00\n        /* \"#utility.yul\":4975:4981   */\n      dup1\n        /* \"#utility.yul\":4983:4989   */\n      0x00\n        /* \"#utility.yul\":5032:5034   */\n      0x60\n        /* \"#utility.yul\":5020:5029   */\n      dup5\n        /* \"#utility.yul\":5011:5018   */\n      dup7\n        /* \"#utility.yul\":5007:5030   */\n      sub\n        /* \"#utility.yul\":5003:5035   */\n      slt\n        /* \"#utility.yul\":5000:5119   */\n      iszero\n      tag_508\n      jumpi\n        /* \"#utility.yul\":5038:5117   */\n      tag_509\n      tag_388\n      jump\t// in\n    tag_509:\n        /* \"#utility.yul\":5000:5119   */\n    tag_508:\n        /* \"#utility.yul\":5158:5159   */\n      0x00\n        /* \"#utility.yul\":5183:5236   */\n      tag_510\n        /* \"#utility.yul\":5228:5235   */\n      dup7\n        /* \"#utility.yul\":5219:5225   */\n      dup3\n        /* \"#utility.yul\":5208:5217   */\n      dup8\n        /* \"#utility.yul\":5204:5226   */\n      add\n        /* \"#utility.yul\":5183:5236   */\n      tag_407\n      jump\t// in\n    tag_510:\n        /* \"#utility.yul\":5173:5236   */\n      swap4\n      pop\n        /* \"#utility.yul\":5129:5246   */\n      pop\n        /* \"#utility.yul\":5285:5287   */\n      0x20\n        /* \"#utility.yul\":5311:5364   */\n      tag_511\n        /* \"#utility.yul\":5356:5363   */\n      dup7\n        /* \"#utility.yul\":5347:5353   */\n      dup3\n        /* \"#utility.yul\":5336:5345   */\n      dup8\n        /* \"#utility.yul\":5332:5354   */\n      add\n        /* \"#utility.yul\":5311:5364   */\n      tag_407\n      jump\t// in\n    tag_511:\n        /* \"#utility.yul\":5301:5364   */\n      swap3\n      pop\n        /* \"#utility.yul\":5256:5374   */\n      pop\n        /* \"#utility.yul\":5413:5415   */\n      0x40\n        /* \"#utility.yul\":5439:5492   */\n      tag_512\n        /* \"#utility.yul\":5484:5491   */\n      dup7\n        /* \"#utility.yul\":5475:5481   */\n      dup3\n        /* \"#utility.yul\":5464:5473   */\n      dup8\n        /* \"#utility.yul\":5460:5482   */\n      add\n        /* \"#utility.yul\":5439:5492   */\n      tag_402\n      jump\t// in\n    tag_512:\n        /* \"#utility.yul\":5429:5492   */\n      swap2\n      pop\n        /* \"#utility.yul\":5384:5502   */\n      pop\n        /* \"#utility.yul\":4890:5509   */\n      swap3\n      pop\n      swap3\n      pop\n      swap3\n      jump\t// out\n        /* \"#utility.yul\":5515:5604   */\n    tag_408:\n        /* \"#utility.yul\":5551:5558   */\n      0x00\n        /* \"#utility.yul\":5591:5597   */\n      0xffff\n        /* \"#utility.yul\":5584:5589   */\n      dup3\n        /* \"#utility.yul\":5580:5598   */\n      and\n        /* \"#utility.yul\":5569:5598   */\n      swap1\n      pop\n        /* \"#utility.yul\":5515:5604   */\n      swap2\n      swap1\n      pop\n      jump\t// out\n        /* \"#utility.yul\":5610:5725   */\n    tag_409:\n        /* \"#utility.yul\":5695:5718   */\n      tag_515\n        /* \"#utility.yul\":5712:5717   */\n      dup2\n        /* \"#utility.yul\":5695:5718   */\n      tag_408\n      jump\t// in\n    tag_515:\n        /* \"#utility.yul\":5690:5693   */\n      dup3\n        /* \"#utility.yul\":5683:5719   */\n      mstore\n        /* \"#utility.yul\":5610:5725   */\n      pop\n      pop\n      jump\t// out\n        /* \"#utility.yul\":5731:5949   */\n    tag_51:\n        /* \"#utility.yul\":5822:5826   */\n      0x00\n        /* \"#utility.yul\":5860:5862   */\n      0x20\n        /* \"#utility.yul\":5849:5858   */\n      dup3\n        /* \"#utility.yul\":5845:5863   */\n      add\n        /* \"#utility.yul\":5837:5863   */\n      swap1\n      pop\n        /* \"#utility.yul\":5873:5942   */\n      tag_517\n        /* \"#utility.yul\":5939:5940   */\n      0x00\n        /* \"#utility.yul\":5928:5937   */\n      dup4\n        /* \"#utility.yul\":5924:5941   */\n      add\n        /* \"#utility.yul\":5915:5921   */\n      dup5\n        /* \"#utility.yul\":5873:5942   */\n      tag_409\n      jump\t// in\n    tag_517:\n        /* \"#utility.yul\":5731:5949   */\n      swap3\n      swap2\n      pop\n      pop\n      jump\t// out\n        /* \"#utility.yul\":5955:6284   */\n    tag_63:\n        /* \"#utility.yul\":6014:6020   */\n      0x00\n        /* \"#utility.yul\":6063:6065   */\n      0x20\n        /* \"#utility.yul\":6051:6060   */\n      dup3\n        /* \"#utility.yul\":6042:6049   */\n      dup5\n        /* \"#utility.yul\":6038:6061   */\n      sub\n        /* \"#utility.yul\":6034:6066   */\n      slt\n        /* \"#utility.yul\":6031:6150   */\n      iszero\n      tag_519\n      jumpi\n        /* \"#utility.yul\":6069:6148   */\n      tag_520\n      tag_388\n      jump\t// in\n    tag_520:\n        /* \"#utility.yul\":6031:6150   */\n    tag_519:\n        /* \"#utility.yul\":6189:6190   */\n      0x00\n        /* \"#utility.yul\":6214:6267   */\n      tag_521\n        /* \"#utility.yul\":6259:6266   */\n      dup5\n        /* \"#utility.yul\":6250:6256   */\n      dup3\n        /* \"#utility.yul\":6239:6248   */\n      dup6\n        /* \"#utility.yul\":6235:6257   */\n      add\n        /* \"#utility.yul\":6214:6267   */\n      tag_407\n      jump\t// in\n    tag_521:\n        /* \"#utility.yul\":6204:6267   */\n      swap2\n      pop\n        /* \"#utility.yul\":6160:6277   */\n      pop\n        /* \"#utility.yul\":5955:6284   */\n      swap3\n      swap2\n      pop\n      pop\n      jump\t// out\n        /* \"#utility.yul\":6290:6408   */\n    tag_410:\n        /* \"#utility.yul\":6377:6401   */\n      tag_523\n        /* \"#utility.yul\":6395:6400   */\n      dup2\n        /* \"#utility.yul\":6377:6401   */\n      tag_400\n      jump\t// in\n    tag_523:\n        /* \"#utility.yul\":6372:6375   */\n      dup3\n        /* \"#utility.yul\":6365:6402   */\n      mstore\n        /* \"#utility.yul\":6290:6408   */\n      pop\n      pop\n      jump\t// out\n        /* \"#utility.yul\":6414:6636   */\n    tag_66:\n        /* \"#utility.yul\":6507:6511   */\n      0x00\n        /* \"#utility.yul\":6545:6547   */\n      0x20\n        /* \"#utility.yul\":6534:6543   */\n      dup3\n        /* \"#utility.yul\":6530:6548   */\n      add\n        /* \"#utility.yul\":6522:6548   */\n      swap1\n      pop\n        /* \"#utility.yul\":6558:6629   */\n      tag_525\n        /* \"#utility.yul\":6626:6627   */\n      0x00\n        /* \"#utility.yul\":6615:6624   */\n      dup4\n        /* \"#utility.yul\":6611:6628   */\n      add\n        /* \"#utility.yul\":6602:6608   */\n      dup5\n        /* \"#utility.yul\":6558:6629   */\n      tag_410\n      jump\t// in\n    tag_525:\n        /* \"#utility.yul\":6414:6636   */\n      swap3\n      swap2\n      pop\n      pop\n      jump\t// out\n        /* \"#utility.yul\":6642:6758   */\n    tag_411:\n        /* \"#utility.yul\":6712:6733   */\n      tag_527\n        /* \"#utility.yul\":6727:6732   */\n      dup2\n        /* \"#utility.yul\":6712:6733   */\n      tag_393\n      jump\t// in\n    tag_527:\n        /* \"#utility.yul\":6705:6710   */\n      dup2\n        /* \"#utility.yul\":6702:6734   */\n      eq\n        /* \"#utility.yul\":6692:6752   */\n      tag_528\n      jumpi\n        /* \"#utility.yul\":6748:6749   */\n      0x00\n        /* \"#utility.yul\":6745:6746   */\n      dup1\n        /* \"#utility.yul\":6738:6750   */\n      revert\n        /* \"#utility.yul\":6692:6752   */\n    tag_528:\n        /* \"#utility.yul\":6642:6758   */\n      pop\n      jump\t// out\n        /* \"#utility.yul\":6764:6897   */\n    tag_412:\n        /* \"#utility.yul\":6807:6812   */\n      0x00\n        /* \"#utility.yul\":6845:6851   */\n      dup2\n        /* \"#utility.yul\":6832:6852   */\n      calldataload\n        /* \"#utility.yul\":6823:6852   */\n      swap1\n      pop\n        /* \"#utility.yul\":6861:6891   */\n      tag_530\n        /* \"#utility.yul\":6885:6890   */\n      dup2\n        /* \"#utility.yul\":6861:6891   */\n      tag_411\n      jump\t// in\n    tag_530:\n        /* \"#utility.yul\":6764:6897   */\n      swap3\n      swap2\n      pop\n      pop\n      jump\t// out\n        /* \"#utility.yul\":6903:7371   */\n    tag_72:\n        /* \"#utility.yul\":6968:6974   */\n      0x00\n        /* \"#utility.yul\":6976:6982   */\n      dup1\n        /* \"#utility.yul\":7025:7027   */\n      0x40\n        /* \"#utility.yul\":7013:7022   */\n      dup4\n        /* \"#utility.yul\":7004:7011   */\n      dup6\n        /* \"#utility.yul\":7000:7023   */\n      sub\n        /* \"#utility.yul\":6996:7028   */\n      slt\n        /* \"#utility.yul\":6993:7112   */\n      iszero\n      tag_532\n      jumpi\n        /* \"#utility.yul\":7031:7110   */\n      tag_533\n      tag_388\n      jump\t// in\n    tag_533:\n        /* \"#utility.yul\":6993:7112   */\n    tag_532:\n        /* \"#utility.yul\":7151:7152   */\n      0x00\n        /* \"#utility.yul\":7176:7229   */\n      tag_534\n        /* \"#utility.yul\":7221:7228   */\n      dup6\n        /* \"#utility.yul\":7212:7218   */\n      dup3\n        /* \"#utility.yul\":7201:7210   */\n      dup7\n        /* \"#utility.yul\":7197:7219   */\n      add\n        /* \"#utility.yul\":7176:7229   */\n      tag_407\n      jump\t// in\n    tag_534:\n        /* \"#utility.yul\":7166:7229   */\n      swap3\n      pop\n        /* \"#utility.yul\":7122:7239   */\n      pop\n        /* \"#utility.yul\":7278:7280   */\n      0x20\n        /* \"#utility.yul\":7304:7354   */\n      tag_535\n        /* \"#utility.yul\":7346:7353   */\n      dup6\n        /* \"#utility.yul\":7337:7343   */\n      dup3\n        /* \"#utility.yul\":7326:7335   */\n      dup7\n        /* \"#utility.yul\":7322:7344   */\n      add\n        /* \"#utility.yul\":7304:7354   */\n      tag_412\n      jump\t// in\n    tag_535:\n        /* \"#utility.yul\":7294:7354   */\n      swap2\n      pop\n        /* \"#utility.yul\":7249:7364   */\n      pop\n        /* \"#utility.yul\":6903:7371   */\n      swap3\n      pop\n      swap3\n      swap1\n      pop\n      jump\t// out\n        /* \"#utility.yul\":7377:7494   */\n    tag_413:\n        /* \"#utility.yul\":7486:7487   */\n      0x00\n        /* \"#utility.yul\":7483:7484   */\n      dup1\n        /* \"#utility.yul\":7476:7488   */\n      revert\n        /* \"#utility.yul\":7500:7617   */\n    tag_414:\n        /* \"#utility.yul\":7609:7610   */\n      0x00\n        /* \"#utility.yul\":7606:7607   */\n      dup1\n        /* \"#utility.yul\":7599:7611   */\n      revert\n        /* \"#utility.yul\":7623:7803   */\n    tag_333:\n        /* \"#utility.yul\":7671:7748   */\n      0x4e487b7100000000000000000000000000000000000000000000000000000000\n        /* \"#utility.yul\":7668:7669   */\n      0x00\n        /* \"#utility.yul\":7661:7749   */\n      mstore\n        /* \"#utility.yul\":7768:7772   */\n      0x41\n        /* \"#utility.yul\":7765:7766   */\n      0x04\n        /* \"#utility.yul\":7758:7773   */\n      mstore\n        /* \"#utility.yul\":7792:7796   */\n      0x24\n        /* \"#utility.yul\":7789:7790   */\n      0x00\n        /* \"#utility.yul\":7782:7797   */\n      revert\n        /* \"#utility.yul\":7809:8090   */\n    tag_415:\n        /* \"#utility.yul\":7892:7919   */\n      tag_540\n        /* \"#utility.yul\":7914:7918   */\n      dup3\n        /* \"#utility.yul\":7892:7919   */\n      tag_398\n      jump\t// in\n    tag_540:\n        /* \"#utility.yul\":7884:7890   */\n      dup2\n        /* \"#utility.yul\":7880:7920   */\n      add\n        /* \"#utility.yul\":8022:8028   */\n      dup2\n        /* \"#utility.yul\":8010:8020   */\n      dup2\n        /* \"#utility.yul\":8007:8029   */\n      lt\n        /* \"#utility.yul\":7986:8004   */\n      0xffffffffffffffff\n        /* \"#utility.yul\":7974:7984   */\n      dup3\n        /* \"#utility.yul\":7971:8005   */\n      gt\n        /* \"#utility.yul\":7968:8030   */\n      or\n        /* \"#utility.yul\":7965:8053   */\n      iszero\n      tag_541\n      jumpi\n        /* \"#utility.yul\":8033:8051   */\n      tag_542\n      tag_333\n      jump\t// in\n    tag_542:\n        /* \"#utility.yul\":7965:8053   */\n    tag_541:\n        /* \"#utility.yul\":8073:8083   */\n      dup1\n        /* \"#utility.yul\":8069:8071   */\n      0x40\n        /* \"#utility.yul\":8062:8084   */\n      mstore\n        /* \"#utility.yul\":7852:8090   */\n      pop\n        /* \"#utility.yul\":7809:8090   */\n      pop\n      pop\n      jump\t// out\n        /* \"#utility.yul\":8096:8225   */\n    tag_416:\n        /* \"#utility.yul\":8130:8136   */\n      0x00\n        /* \"#utility.yul\":8157:8177   */\n      tag_544\n      tag_387\n      jump\t// in\n    tag_544:\n        /* \"#utility.yul\":8147:8177   */\n      swap1\n      pop\n        /* \"#utility.yul\":8186:8219   */\n      tag_545\n        /* \"#utility.yul\":8214:8218   */\n      dup3\n        /* \"#utility.yul\":8206:8212   */\n      dup3\n        /* \"#utility.yul\":8186:8219   */\n      tag_415\n      jump\t// in\n    tag_545:\n        /* \"#utility.yul\":8096:8225   */\n      swap2\n      swap1\n      pop\n      jump\t// out\n        /* \"#utility.yul\":8231:8538   */\n    tag_417:\n        /* \"#utility.yul\":8292:8296   */\n      0x00\n        /* \"#utility.yul\":8382:8400   */\n      0xffffffffffffffff\n        /* \"#utility.yul\":8374:8380   */\n      dup3\n        /* \"#utility.yul\":8371:8401   */\n      gt\n        /* \"#utility.yul\":8368:8424   */\n      iszero\n      tag_547\n      jumpi\n        /* \"#utility.yul\":8404:8422   */\n      tag_548\n      tag_333\n      jump\t// in\n    tag_548:\n        /* \"#utility.yul\":8368:8424   */\n    tag_547:\n        /* \"#utility.yul\":8442:8471   */\n      tag_549\n        /* \"#utility.yul\":8464:8470   */\n      dup3\n        /* \"#utility.yul\":8442:8471   */\n      tag_398\n      jump\t// in\n    tag_549:\n        /* \"#utility.yul\":8434:8471   */\n      swap1\n      pop\n        /* \"#utility.yul\":8526:8530   */\n      0x20\n        /* \"#utility.yul\":8520:8524   */\n      dup2\n        /* \"#utility.yul\":8516:8531   */\n      add\n        /* \"#utility.yul\":8508:8531   */\n      swap1\n      pop\n        /* \"#utility.yul\":8231:8538   */\n      swap2\n      swap1\n      pop\n      jump\t// out\n        /* \"#utility.yul\":8544:8690   */\n    tag_418:\n        /* \"#utility.yul\":8641:8647   */\n      dup3\n        /* \"#utility.yul\":8636:8639   */\n      dup2\n        /* \"#utility.yul\":8631:8634   */\n      dup4\n        /* \"#utility.yul\":8618:8648   */\n      calldatacopy\n        /* \"#utility.yul\":8682:8683   */\n      0x00\n        /* \"#utility.yul\":8673:8679   */\n      dup4\n        /* \"#utility.yul\":8668:8671   */\n      dup4\n        /* \"#utility.yul\":8664:8680   */\n      add\n        /* \"#utility.yul\":8657:8684   */\n      mstore\n        /* \"#utility.yul\":8544:8690   */\n      pop\n      pop\n      pop\n      jump\t// out\n        /* \"#utility.yul\":8696:9119   */\n    tag_419:\n        /* \"#utility.yul\":8773:8778   */\n      0x00\n        /* \"#utility.yul\":8798:8863   */\n      tag_552\n        /* \"#utility.yul\":8814:8862   */\n      tag_553\n        /* \"#utility.yul\":8855:8861   */\n      dup5\n        /* \"#utility.yul\":8814:8862   */\n      tag_417\n      jump\t// in\n    tag_553:\n        /* \"#utility.yul\":8798:8863   */\n      tag_416\n      jump\t// in\n    tag_552:\n        /* \"#utility.yul\":8789:8863   */\n      swap1\n      pop\n        /* \"#utility.yul\":8886:8892   */\n      dup3\n        /* \"#utility.yul\":8879:8884   */\n      dup2\n        /* \"#utility.yul\":8872:8893   */\n      mstore\n        /* \"#utility.yul\":8924:8928   */\n      0x20\n        /* \"#utility.yul\":8917:8922   */\n      dup2\n        /* \"#utility.yul\":8913:8929   */\n      add\n        /* \"#utility.yul\":8962:8965   */\n      dup5\n        /* \"#utility.yul\":8953:8959   */\n      dup5\n        /* \"#utility.yul\":8948:8951   */\n      dup5\n        /* \"#utility.yul\":8944:8960   */\n      add\n        /* \"#utility.yul\":8941:8966   */\n      gt\n        /* \"#utility.yul\":8938:9050   */\n      iszero\n      tag_554\n      jumpi\n        /* \"#utility.yul\":8969:9048   */\n      tag_555\n      tag_414\n      jump\t// in\n    tag_555:\n        /* \"#utility.yul\":8938:9050   */\n    tag_554:\n        /* \"#utility.yul\":9059:9113   */\n      tag_556\n        /* \"#utility.yul\":9106:9112   */\n      dup5\n        /* \"#utility.yul\":9101:9104   */\n      dup3\n        /* \"#utility.yul\":9096:9099   */\n      dup6\n        /* \"#utility.yul\":9059:9113   */\n      tag_418\n      jump\t// in\n    tag_556:\n        /* \"#utility.yul\":8779:9119   */\n      pop\n        /* \"#utility.yul\":8696:9119   */\n      swap4\n      swap3\n      pop\n      pop\n      pop\n      jump\t// out\n        /* \"#utility.yul\":9138:9476   */\n    tag_420:\n        /* \"#utility.yul\":9193:9198   */\n      0x00\n        /* \"#utility.yul\":9242:9245   */\n      dup3\n        /* \"#utility.yul\":9235:9239   */\n      0x1f\n        /* \"#utility.yul\":9227:9233   */\n      dup4\n        /* \"#utility.yul\":9223:9240   */\n      add\n        /* \"#utility.yul\":9219:9246   */\n      slt\n        /* \"#utility.yul\":9209:9331   */\n      tag_558\n      jumpi\n        /* \"#utility.yul\":9250:9329   */\n      tag_559\n      tag_413\n      jump\t// in\n    tag_559:\n        /* \"#utility.yul\":9209:9331   */\n    tag_558:\n        /* \"#utility.yul\":9367:9373   */\n      dup2\n        /* \"#utility.yul\":9354:9374   */\n      calldataload\n        /* \"#utility.yul\":9392:9470   */\n      tag_560\n        /* \"#utility.yul\":9466:9469   */\n      dup5\n        /* \"#utility.yul\":9458:9464   */\n      dup3\n        /* \"#utility.yul\":9451:9455   */\n      0x20\n        /* \"#utility.yul\":9443:9449   */\n      dup7\n        /* \"#utility.yul\":9439:9456   */\n      add\n        /* \"#utility.yul\":9392:9470   */\n      tag_419\n      jump\t// in\n    tag_560:\n        /* \"#utility.yul\":9383:9470   */\n      swap2\n      pop\n        /* \"#utility.yul\":9199:9476   */\n      pop\n        /* \"#utility.yul\":9138:9476   */\n      swap3\n      swap2\n      pop\n      pop\n      jump\t// out\n        /* \"#utility.yul\":9482:10425   */\n    tag_82:\n        /* \"#utility.yul\":9577:9583   */\n      0x00\n        /* \"#utility.yul\":9585:9591   */\n      dup1\n        /* \"#utility.yul\":9593:9599   */\n      0x00\n        /* \"#utility.yul\":9601:9607   */\n      dup1\n        /* \"#utility.yul\":9650:9653   */\n      0x80\n        /* \"#utility.yul\":9638:9647   */\n      dup6\n        /* \"#utility.yul\":9629:9636   */\n      dup8\n        /* \"#utility.yul\":9625:9648   */\n      sub\n        /* \"#utility.yul\":9621:9654   */\n      slt\n        /* \"#utility.yul\":9618:9738   */\n      iszero\n      tag_562\n      jumpi\n        /* \"#utility.yul\":9657:9736   */\n      tag_563\n      tag_388\n      jump\t// in\n    tag_563:\n        /* \"#utility.yul\":9618:9738   */\n    tag_562:\n        /* \"#utility.yul\":9777:9778   */\n      0x00\n        /* \"#utility.yul\":9802:9855   */\n      tag_564\n        /* \"#utility.yul\":9847:9854   */\n      dup8\n        /* \"#utility.yul\":9838:9844   */\n      dup3\n        /* \"#utility.yul\":9827:9836   */\n      dup9\n        /* \"#utility.yul\":9823:9845   */\n      add\n        /* \"#utility.yul\":9802:9855   */\n      tag_407\n      jump\t// in\n    tag_564:\n        /* \"#utility.yul\":9792:9855   */\n      swap5\n      pop\n        /* \"#utility.yul\":9748:9865   */\n      pop\n        /* \"#utility.yul\":9904:9906   */\n      0x20\n        /* \"#utility.yul\":9930:9983   */\n      tag_565\n        /* \"#utility.yul\":9975:9982   */\n      dup8\n        /* \"#utility.yul\":9966:9972   */\n      dup3\n        /* \"#utility.yul\":9955:9964   */\n      dup9\n        /* \"#utility.yul\":9951:9973   */\n      add\n        /* \"#utility.yul\":9930:9983   */\n      tag_407\n      jump\t// in\n    tag_565:\n        /* \"#utility.yul\":9920:9983   */\n      swap4\n      pop\n        /* \"#utility.yul\":9875:9993   */\n      pop\n        /* \"#utility.yul\":10032:10034   */\n      0x40\n        /* \"#utility.yul\":10058:10111   */\n      tag_566\n        /* \"#utility.yul\":10103:10110   */\n      dup8\n        /* \"#utility.yul\":10094:10100   */\n      dup3\n        /* \"#utility.yul\":10083:10092   */\n      dup9\n        /* \"#utility.yul\":10079:10101   */\n      add\n        /* \"#utility.yul\":10058:10111   */\n      tag_402\n      jump\t// in\n    tag_566:\n        /* \"#utility.yul\":10048:10111   */\n      swap3\n      pop\n        /* \"#utility.yul\":10003:10121   */\n      pop\n        /* \"#utility.yul\":10188:10190   */\n      0x60\n        /* \"#utility.yul\":10177:10186   */\n      dup6\n        /* \"#utility.yul\":10173:10191   */\n      add\n        /* \"#utility.yul\":10160:10192   */\n      calldataload\n        /* \"#utility.yul\":10219:10237   */\n      0xffffffffffffffff\n        /* \"#utility.yul\":10211:10217   */\n      dup2\n        /* \"#utility.yul\":10208:10238   */\n      gt\n        /* \"#utility.yul\":10205:10322   */\n      iszero\n      tag_567\n      jumpi\n        /* \"#utility.yul\":10241:10320   */\n      tag_568\n      tag_389\n      jump\t// in\n    tag_568:\n        /* \"#utility.yul\":10205:10322   */\n    tag_567:\n        /* \"#utility.yul\":10346:10408   */\n      tag_569\n        /* \"#utility.yul\":10400:10407   */\n      dup8\n        /* \"#utility.yul\":10391:10397   */\n      dup3\n        /* \"#utility.yul\":10380:10389   */\n      dup9\n        /* \"#utility.yul\":10376:10398   */\n      add\n        /* \"#utility.yul\":10346:10408   */\n      tag_420\n      jump\t// in\n    tag_569:\n        /* \"#utility.yul\":10336:10408   */\n      swap2\n      pop\n        /* \"#utility.yul\":10131:10418   */\n      pop\n        /* \"#utility.yul\":9482:10425   */\n      swap3\n      swap6\n      swap2\n      swap5\n      pop\n      swap3\n      pop\n      jump\t// out\n        /* \"#utility.yul\":10431:10905   */\n    tag_93:\n        /* \"#utility.yul\":10499:10505   */\n      0x00\n        /* \"#utility.yul\":10507:10513   */\n      dup1\n        /* \"#utility.yul\":10556:10558   */\n      0x40\n        /* \"#utility.yul\":10544:10553   */\n      dup4\n        /* \"#utility.yul\":10535:10542   */\n      dup6\n        /* \"#utility.yul\":10531:10554   */\n      sub\n        /* \"#utility.yul\":10527:10559   */\n      slt\n        /* \"#utility.yul\":10524:10643   */\n      iszero\n      tag_571\n      jumpi\n        /* \"#utility.yul\":10562:10641   */\n      tag_572\n      tag_388\n      jump\t// in\n    tag_572:\n        /* \"#utility.yul\":10524:10643   */\n    tag_571:\n        /* \"#utility.yul\":10682:10683   */\n      0x00\n        /* \"#utility.yul\":10707:10760   */\n      tag_573\n        /* \"#utility.yul\":10752:10759   */\n      dup6\n        /* \"#utility.yul\":10743:10749   */\n      dup3\n        /* \"#utility.yul\":10732:10741   */\n      dup7\n        /* \"#utility.yul\":10728:10750   */\n      add\n        /* \"#utility.yul\":10707:10760   */\n      tag_407\n      jump\t// in\n    tag_573:\n        /* \"#utility.yul\":10697:10760   */\n      swap3\n      pop\n        /* \"#utility.yul\":10653:10770   */\n      pop\n        /* \"#utility.yul\":10809:10811   */\n      0x20\n        /* \"#utility.yul\":10835:10888   */\n      tag_574\n        /* \"#utility.yul\":10880:10887   */\n      dup6\n        /* \"#utility.yul\":10871:10877   */\n      dup3\n        /* \"#utility.yul\":10860:10869   */\n      dup7\n        /* \"#utility.yul\":10856:10878   */\n      add\n        /* \"#utility.yul\":10835:10888   */\n      tag_407\n      jump\t// in\n    tag_574:\n        /* \"#utility.yul\":10825:10888   */\n      swap2\n      pop\n        /* \"#utility.yul\":10780:10898   */\n      pop\n        /* \"#utility.yul\":10431:10905   */\n      swap3\n      pop\n      swap3\n      swap1\n      pop\n      jump\t// out\n        /* \"#utility.yul\":10911:11091   */\n    tag_421:\n        /* \"#utility.yul\":10959:11036   */\n      0x4e487b7100000000000000000000000000000000000000000000000000000000\n        /* \"#utility.yul\":10956:10957   */\n      0x00\n        /* \"#utility.yul\":10949:11037   */\n      mstore\n        /* \"#utility.yul\":11056:11060   */\n      0x22\n        /* \"#utility.yul\":11053:11054   */\n      0x04\n        /* \"#utility.yul\":11046:11061   */\n      mstore\n        /* \"#utility.yul\":11080:11084   */\n      0x24\n        /* \"#utility.yul\":11077:11078   */\n      0x00\n        /* \"#utility.yul\":11070:11085   */\n      revert\n        /* \"#utility.yul\":11097:11417   */\n    tag_103:\n        /* \"#utility.yul\":11141:11147   */\n      0x00\n        /* \"#utility.yul\":11178:11179   */\n      0x02\n        /* \"#utility.yul\":11172:11176   */\n      dup3\n        /* \"#utility.yul\":11168:11180   */\n      div\n        /* \"#utility.yul\":11158:11180   */\n      swap1\n      pop\n        /* \"#utility.yul\":11225:11226   */\n      0x01\n        /* \"#utility.yul\":11219:11223   */\n      dup3\n        /* \"#utility.yul\":11215:11227   */\n      and\n        /* \"#utility.yul\":11246:11264   */\n      dup1\n        /* \"#utility.yul\":11236:11317   */\n      tag_577\n      jumpi\n        /* \"#utility.yul\":11302:11306   */\n      0x7f\n        /* \"#utility.yul\":11294:11300   */\n      dup3\n        /* \"#utility.yul\":11290:11307   */\n      and\n        /* \"#utility.yul\":11280:11307   */\n      swap2\n      pop\n        /* \"#utility.yul\":11236:11317   */\n    tag_577:\n        /* \"#utility.yul\":11364:11366   */\n      0x20\n        /* \"#utility.yul\":11356:11362   */\n      dup3\n        /* \"#utility.yul\":11353:11367   */\n      lt\n        /* \"#utility.yul\":11333:11351   */\n      dup2\n        /* \"#utility.yul\":11330:11368   */\n      sub\n        /* \"#utility.yul\":11327:11411   */\n      tag_578\n      jumpi\n        /* \"#utility.yul\":11383:11401   */\n      tag_579\n      tag_421\n      jump\t// in\n    tag_579:\n        /* \"#utility.yul\":11327:11411   */\n    tag_578:\n        /* \"#utility.yul\":11148:11417   */\n      pop\n        /* \"#utility.yul\":11097:11417   */\n      swap2\n      swap1\n      pop\n      jump\t// out\n        /* \"#utility.yul\":11423:11865   */\n    tag_126:\n        /* \"#utility.yul\":11572:11576   */\n      0x00\n        /* \"#utility.yul\":11610:11612   */\n      0x60\n        /* \"#utility.yul\":11599:11608   */\n      dup3\n        /* \"#utility.yul\":11595:11613   */\n      add\n        /* \"#utility.yul\":11587:11613   */\n      swap1\n      pop\n        /* \"#utility.yul\":11623:11694   */\n      tag_581\n        /* \"#utility.yul\":11691:11692   */\n      0x00\n        /* \"#utility.yul\":11680:11689   */\n      dup4\n        /* \"#utility.yul\":11676:11693   */\n      add\n        /* \"#utility.yul\":11667:11673   */\n      dup7\n        /* \"#utility.yul\":11623:11694   */\n      tag_405\n      jump\t// in\n    tag_581:\n        /* \"#utility.yul\":11704:11776   */\n      tag_582\n        /* \"#utility.yul\":11772:11774   */\n      0x20\n        /* \"#utility.yul\":11761:11770   */\n      dup4\n        /* \"#utility.yul\":11757:11775   */\n      add\n        /* \"#utility.yul\":11748:11754   */\n      dup6\n        /* \"#utility.yul\":11704:11776   */\n      tag_410\n      jump\t// in\n    tag_582:\n        /* \"#utility.yul\":11786:11858   */\n      tag_583\n        /* \"#utility.yul\":11854:11856   */\n      0x40\n        /* \"#utility.yul\":11843:11852   */\n      dup4\n        /* \"#utility.yul\":11839:11857   */\n      add\n        /* \"#utility.yul\":11830:11836   */\n      dup5\n        /* \"#utility.yul\":11786:11858   */\n      tag_405\n      jump\t// in\n    tag_583:\n        /* \"#utility.yul\":11423:11865   */\n      swap5\n      swap4\n      pop\n      pop\n      pop\n      pop\n      jump\t// out\n        /* \"#utility.yul\":11871:12093   */\n    tag_422:\n        /* \"#utility.yul\":12011:12045   */\n      0x4f6e6c792073706f757365732063616e2063616c6c20746869732066756e6374\n        /* \"#utility.yul\":12007:12008   */\n      0x00\n        /* \"#utility.yul\":11999:12005   */\n      dup3\n        /* \"#utility.yul\":11995:12009   */\n      add\n        /* \"#utility.yul\":11988:12046   */\n      mstore\n        /* \"#utility.yul\":12080:12085   */\n      0x696f6e0000000000000000000000000000000000000000000000000000000000\n        /* \"#utility.yul\":12075:12077   */\n      0x20\n        /* \"#utility.yul\":12067:12073   */\n      dup3\n        /* \"#utility.yul\":12063:12078   */\n      add\n        /* \"#utility.yul\":12056:12086   */\n      mstore\n        /* \"#utility.yul\":11871:12093   */\n      pop\n      jump\t// out\n        /* \"#utility.yul\":12099:12465   */\n    tag_423:\n        /* \"#utility.yul\":12241:12244   */\n      0x00\n        /* \"#utility.yul\":12262:12329   */\n      tag_586\n        /* \"#utility.yul\":12326:12328   */\n      0x23\n        /* \"#utility.yul\":12321:12324   */\n      dup4\n        /* \"#utility.yul\":12262:12329   */\n      tag_396\n      jump\t// in\n    tag_586:\n        /* \"#utility.yul\":12255:12329   */\n      swap2\n      pop\n        /* \"#utility.yul\":12338:12431   */\n      tag_587\n        /* \"#utility.yul\":12427:12430   */\n      dup3\n        /* \"#utility.yul\":12338:12431   */\n      tag_422\n      jump\t// in\n    tag_587:\n        /* \"#utility.yul\":12456:12458   */\n      0x40\n        /* \"#utility.yul\":12451:12454   */\n      dup3\n        /* \"#utility.yul\":12447:12459   */\n      add\n        /* \"#utility.yul\":12440:12459   */\n      swap1\n      pop\n        /* \"#utility.yul\":12099:12465   */\n      swap2\n      swap1\n      pop\n      jump\t// out\n        /* \"#utility.yul\":12471:12890   */\n    tag_131:\n        /* \"#utility.yul\":12637:12641   */\n      0x00\n        /* \"#utility.yul\":12675:12677   */\n      0x20\n        /* \"#utility.yul\":12664:12673   */\n      dup3\n        /* \"#utility.yul\":12660:12678   */\n      add\n        /* \"#utility.yul\":12652:12678   */\n      swap1\n      pop\n        /* \"#utility.yul\":12724:12733   */\n      dup2\n        /* \"#utility.yul\":12718:12722   */\n      dup2\n        /* \"#utility.yul\":12714:12734   */\n      sub\n        /* \"#utility.yul\":12710:12711   */\n      0x00\n        /* \"#utility.yul\":12699:12708   */\n      dup4\n        /* \"#utility.yul\":12695:12712   */\n      add\n        /* \"#utility.yul\":12688:12735   */\n      mstore\n        /* \"#utility.yul\":12752:12883   */\n      tag_589\n        /* \"#utility.yul\":12878:12882   */\n      dup2\n        /* \"#utility.yul\":12752:12883   */\n      tag_423\n      jump\t// in\n    tag_589:\n        /* \"#utility.yul\":12744:12883   */\n      swap1\n      pop\n        /* \"#utility.yul\":12471:12890   */\n      swap2\n      swap1\n      pop\n      jump\t// out\n        /* \"#utility.yul\":12896:13140   */\n    tag_424:\n        /* \"#utility.yul\":13036:13070   */\n      0x43616e6e6f742070726f647563652077656464696e6720636572746966696361\n        /* \"#utility.yul\":13032:13033   */\n      0x00\n        /* \"#utility.yul\":13024:13030   */\n      dup3\n        /* \"#utility.yul\":13020:13034   */\n      add\n        /* \"#utility.yul\":13013:13071   */\n      mstore\n        /* \"#utility.yul\":13105:13132   */\n      0x746520666f72206e6f6e2d6d6172726965642070656f706c6500000000000000\n        /* \"#utility.yul\":13100:13102   */\n      0x20\n        /* \"#utility.yul\":13092:13098   */\n      dup3\n        /* \"#utility.yul\":13088:13103   */\n      add\n        /* \"#utility.yul\":13081:13133   */\n      mstore\n        /* \"#utility.yul\":12896:13140   */\n      pop\n      jump\t// out\n        /* \"#utility.yul\":13146:13512   */\n    tag_425:\n        /* \"#utility.yul\":13288:13291   */\n      0x00\n        /* \"#utility.yul\":13309:13376   */\n      tag_592\n        /* \"#utility.yul\":13373:13375   */\n      0x39\n        /* \"#utility.yul\":13368:13371   */\n      dup4\n        /* \"#utility.yul\":13309:13376   */\n      tag_396\n      jump\t// in\n    tag_592:\n        /* \"#utility.yul\":13302:13376   */\n      swap2\n      pop\n        /* \"#utility.yul\":13385:13478   */\n      tag_593\n        /* \"#utility.yul\":13474:13477   */\n      dup3\n        /* \"#utility.yul\":13385:13478   */\n      tag_424\n      jump\t// in\n    tag_593:\n        /* \"#utility.yul\":13503:13505   */\n      0x40\n        /* \"#utility.yul\":13498:13501   */\n      dup3\n        /* \"#utility.yul\":13494:13506   */\n      add\n        /* \"#utility.yul\":13487:13506   */\n      swap1\n      pop\n        /* \"#utility.yul\":13146:13512   */\n      swap2\n      swap1\n      pop\n      jump\t// out\n        /* \"#utility.yul\":13518:13937   */\n    tag_135:\n        /* \"#utility.yul\":13684:13688   */\n      0x00\n        /* \"#utility.yul\":13722:13724   */\n      0x20\n        /* \"#utility.yul\":13711:13720   */\n      dup3\n        /* \"#utility.yul\":13707:13725   */\n      add\n        /* \"#utility.yul\":13699:13725   */\n      swap1\n      pop\n        /* \"#utility.yul\":13771:13780   */\n      dup2\n        /* \"#utility.yul\":13765:13769   */\n      dup2\n        /* \"#utility.yul\":13761:13781   */\n      sub\n        /* \"#utility.yul\":13757:13758   */\n      0x00\n        /* \"#utility.yul\":13746:13755   */\n      dup4\n        /* \"#utility.yul\":13742:13759   */\n      add\n        /* \"#utility.yul\":13735:13782   */\n      mstore\n        /* \"#utility.yul\":13799:13930   */\n      tag_595\n        /* \"#utility.yul\":13925:13929   */\n      dup2\n        /* \"#utility.yul\":13799:13930   */\n      tag_425\n      jump\t// in\n    tag_595:\n        /* \"#utility.yul\":13791:13930   */\n      swap1\n      pop\n        /* \"#utility.yul\":13518:13937   */\n      swap2\n      swap1\n      pop\n      jump\t// out\n        /* \"#utility.yul\":13943:14036   */\n    tag_426:\n        /* \"#utility.yul\":13979:13986   */\n      0x00\n        /* \"#utility.yul\":14019:14029   */\n      0xffffffff\n        /* \"#utility.yul\":14012:14017   */\n      dup3\n        /* \"#utility.yul\":14008:14030   */\n      and\n        /* \"#utility.yul\":13997:14030   */\n      swap1\n      pop\n        /* \"#utility.yul\":13943:14036   */\n      swap2\n      swap1\n      pop\n      jump\t// out\n        /* \"#utility.yul\":14042:14102   */\n    tag_427:\n        /* \"#utility.yul\":14070:14073   */\n      0x00\n        /* \"#utility.yul\":14091:14096   */\n      dup2\n        /* \"#utility.yul\":14084:14096   */\n      swap1\n      pop\n        /* \"#utility.yul\":14042:14102   */\n      swap2\n      swap1\n      pop\n      jump\t// out\n        /* \"#utility.yul\":14108:14248   */\n    tag_428:\n        /* \"#utility.yul\":14157:14166   */\n      0x00\n        /* \"#utility.yul\":14190:14242   */\n      tag_599\n        /* \"#utility.yul\":14208:14241   */\n      tag_600\n        /* \"#utility.yul\":14217:14240   */\n      tag_601\n        /* \"#utility.yul\":14234:14239   */\n      dup5\n        /* \"#utility.yul\":14217:14240   */\n      tag_426\n      jump\t// in\n    tag_601:\n        /* \"#utility.yul\":14208:14241   */\n      tag_427\n      jump\t// in\n    tag_600:\n        /* \"#utility.yul\":14190:14242   */\n      tag_400\n      jump\t// in\n    tag_599:\n        /* \"#utility.yul\":14177:14242   */\n      swap1\n      pop\n        /* \"#utility.yul\":14108:14248   */\n      swap2\n      swap1\n      pop\n      jump\t// out\n        /* \"#utility.yul\":14254:14383   */\n    tag_429:\n        /* \"#utility.yul\":14340:14376   */\n      tag_603\n        /* \"#utility.yul\":14370:14375   */\n      dup2\n        /* \"#utility.yul\":14340:14376   */\n      tag_428\n      jump\t// in\n    tag_603:\n        /* \"#utility.yul\":14335:14338   */\n      dup3\n        /* \"#utility.yul\":14328:14377   */\n      mstore\n        /* \"#utility.yul\":14254:14383   */\n      pop\n      pop\n      jump\t// out\n        /* \"#utility.yul\":14389:14609   */\n    tag_137:\n        /* \"#utility.yul\":14481:14485   */\n      0x00\n        /* \"#utility.yul\":14519:14521   */\n      0x20\n        /* \"#utility.yul\":14508:14517   */\n      dup3\n        /* \"#utility.yul\":14504:14522   */\n      add\n        /* \"#utility.yul\":14496:14522   */\n      swap1\n      pop\n        /* \"#utility.yul\":14532:14602   */\n      tag_605\n        /* \"#utility.yul\":14599:14600   */\n      0x00\n        /* \"#utility.yul\":14588:14597   */\n      dup4\n        /* \"#utility.yul\":14584:14601   */\n      add\n        /* \"#utility.yul\":14575:14581   */\n      dup5\n        /* \"#utility.yul\":14532:14602   */\n      tag_429\n      jump\t// in\n    tag_605:\n        /* \"#utility.yul\":14389:14609   */\n      swap3\n      swap2\n      pop\n      pop\n      jump\t// out\n        /* \"#utility.yul\":14615:14758   */\n    tag_430:\n        /* \"#utility.yul\":14672:14677   */\n      0x00\n        /* \"#utility.yul\":14703:14709   */\n      dup2\n        /* \"#utility.yul\":14697:14710   */\n      mload\n        /* \"#utility.yul\":14688:14710   */\n      swap1\n      pop\n        /* \"#utility.yul\":14719:14752   */\n      tag_607\n        /* \"#utility.yul\":14746:14751   */\n      dup2\n        /* \"#utility.yul\":14719:14752   */\n      tag_406\n      jump\t// in\n    tag_607:\n        /* \"#utility.yul\":14615:14758   */\n      swap3\n      swap2\n      pop\n      pop\n      jump\t// out\n        /* \"#utility.yul\":14764:15115   */\n    tag_141:\n        /* \"#utility.yul\":14834:14840   */\n      0x00\n        /* \"#utility.yul\":14883:14885   */\n      0x20\n        /* \"#utility.yul\":14871:14880   */\n      dup3\n        /* \"#utility.yul\":14862:14869   */\n      dup5\n        /* \"#utility.yul\":14858:14881   */\n      sub\n        /* \"#utility.yul\":14854:14886   */\n      slt\n        /* \"#utility.yul\":14851:14970   */\n      iszero\n      tag_609\n      jumpi\n        /* \"#utility.yul\":14889:14968   */\n      tag_610\n      tag_388\n      jump\t// in\n    tag_610:\n        /* \"#utility.yul\":14851:14970   */\n    tag_609:\n        /* \"#utility.yul\":15009:15010   */\n      0x00\n        /* \"#utility.yul\":15034:15098   */\n      tag_611\n        /* \"#utility.yul\":15090:15097   */\n      dup5\n        /* \"#utility.yul\":15081:15087   */\n      dup3\n        /* \"#utility.yul\":15070:15079   */\n      dup6\n        /* \"#utility.yul\":15066:15088   */\n      add\n        /* \"#utility.yul\":15034:15098   */\n      tag_430\n      jump\t// in\n    tag_611:\n        /* \"#utility.yul\":15024:15098   */\n      swap2\n      pop\n        /* \"#utility.yul\":14980:15108   */\n      pop\n        /* \"#utility.yul\":14764:15115   */\n      swap3\n      swap2\n      pop\n      pop\n      jump\t// out\n        /* \"#utility.yul\":15121:15420   */\n    tag_431:\n        /* \"#utility.yul\":15261:15295   */\n      0x43616e6e6f742063726561746520616e6f746865722077656464696e67206365\n        /* \"#utility.yul\":15257:15258   */\n      0x00\n        /* \"#utility.yul\":15249:15255   */\n      dup3\n        /* \"#utility.yul\":15245:15259   */\n      add\n        /* \"#utility.yul\":15238:15296   */\n      mstore\n        /* \"#utility.yul\":15330:15364   */\n      0x727469666963617465207768656e206f6e652065786973747320666f72207468\n        /* \"#utility.yul\":15325:15327   */\n      0x20\n        /* \"#utility.yul\":15317:15323   */\n      dup3\n        /* \"#utility.yul\":15313:15328   */\n      add\n        /* \"#utility.yul\":15306:15365   */\n      mstore\n        /* \"#utility.yul\":15399:15412   */\n      0x6573652073706f75736573000000000000000000000000000000000000000000\n        /* \"#utility.yul\":15394:15396   */\n      0x40\n        /* \"#utility.yul\":15386:15392   */\n      dup3\n        /* \"#utility.yul\":15382:15397   */\n      add\n        /* \"#utility.yul\":15375:15413   */\n      mstore\n        /* \"#utility.yul\":15121:15420   */\n      pop\n      jump\t// out\n        /* \"#utility.yul\":15426:15792   */\n    tag_432:\n        /* \"#utility.yul\":15568:15571   */\n      0x00\n        /* \"#utility.yul\":15589:15656   */\n      tag_614\n        /* \"#utility.yul\":15653:15655   */\n      0x4b\n        /* \"#utility.yul\":15648:15651   */\n      dup4\n        /* \"#utility.yul\":15589:15656   */\n      tag_396\n      jump\t// in\n    tag_614:\n        /* \"#utility.yul\":15582:15656   */\n      swap2\n      pop\n        /* \"#utility.yul\":15665:15758   */\n      tag_615\n        /* \"#utility.yul\":15754:15757   */\n      dup3\n        /* \"#utility.yul\":15665:15758   */\n      tag_431\n      jump\t// in\n    tag_615:\n        /* \"#utility.yul\":15783:15785   */\n      0x60\n        /* \"#utility.yul\":15778:15781   */\n      dup3\n        /* \"#utility.yul\":15774:15786   */\n      add\n        /* \"#utility.yul\":15767:15786   */\n      swap1\n      pop\n        /* \"#utility.yul\":15426:15792   */\n      swap2\n      swap1\n      pop\n      jump\t// out\n        /* \"#utility.yul\":15798:16217   */\n    tag_149:\n        /* \"#utility.yul\":15964:15968   */\n      0x00\n        /* \"#utility.yul\":16002:16004   */\n      0x20\n        /* \"#utility.yul\":15991:16000   */\n      dup3\n        /* \"#utility.yul\":15987:16005   */\n      add\n        /* \"#utility.yul\":15979:16005   */\n      swap1\n      pop\n        /* \"#utility.yul\":16051:16060   */\n      dup2\n        /* \"#utility.yul\":16045:16049   */\n      dup2\n        /* \"#utility.yul\":16041:16061   */\n      sub\n        /* \"#utility.yul\":16037:16038   */\n      0x00\n        /* \"#utility.yul\":16026:16035   */\n      dup4\n        /* \"#utility.yul\":16022:16039   */\n      add\n        /* \"#utility.yul\":16015:16062   */\n      mstore\n        /* \"#utility.yul\":16079:16210   */\n      tag_617\n        /* \"#utility.yul\":16205:16209   */\n      dup2\n        /* \"#utility.yul\":16079:16210   */\n      tag_432\n      jump\t// in\n    tag_617:\n        /* \"#utility.yul\":16071:16210   */\n      swap1\n      pop\n        /* \"#utility.yul\":15798:16217   */\n      swap2\n      swap1\n      pop\n      jump\t// out\n        /* \"#utility.yul\":16223:16403   */\n    tag_433:\n        /* \"#utility.yul\":16271:16348   */\n      0x4e487b7100000000000000000000000000000000000000000000000000000000\n        /* \"#utility.yul\":16268:16269   */\n      0x00\n        /* \"#utility.yul\":16261:16349   */\n      mstore\n        /* \"#utility.yul\":16368:16372   */\n      0x11\n        /* \"#utility.yul\":16365:16366   */\n      0x04\n        /* \"#utility.yul\":16358:16373   */\n      mstore\n        /* \"#utility.yul\":16392:16396   */\n      0x24\n        /* \"#utility.yul\":16389:16390   */\n      0x00\n        /* \"#utility.yul\":16382:16397   */\n      revert\n        /* \"#utility.yul\":16409:16606   */\n    tag_151:\n        /* \"#utility.yul\":16448:16451   */\n      0x00\n        /* \"#utility.yul\":16467:16486   */\n      tag_620\n        /* \"#utility.yul\":16484:16485   */\n      dup3\n        /* \"#utility.yul\":16467:16486   */\n      tag_426\n      jump\t// in\n    tag_620:\n        /* \"#utility.yul\":16462:16486   */\n      swap2\n      pop\n        /* \"#utility.yul\":16500:16519   */\n      tag_621\n        /* \"#utility.yul\":16517:16518   */\n      dup4\n        /* \"#utility.yul\":16500:16519   */\n      tag_426\n      jump\t// in\n    tag_621:\n        /* \"#utility.yul\":16495:16519   */\n      swap3\n      pop\n        /* \"#utility.yul\":16542:16543   */\n      dup3\n        /* \"#utility.yul\":16539:16540   */\n      dup3\n        /* \"#utility.yul\":16535:16544   */\n      add\n        /* \"#utility.yul\":16528:16544   */\n      swap1\n      pop\n        /* \"#utility.yul\":16565:16575   */\n      0xffffffff\n        /* \"#utility.yul\":16560:16563   */\n      dup2\n        /* \"#utility.yul\":16557:16576   */\n      gt\n        /* \"#utility.yul\":16554:16599   */\n      iszero\n      tag_622\n      jumpi\n        /* \"#utility.yul\":16579:16597   */\n      tag_623\n      tag_433\n      jump\t// in\n    tag_623:\n        /* \"#utility.yul\":16554:16599   */\n    tag_622:\n        /* \"#utility.yul\":16409:16606   */\n      swap3\n      swap2\n      pop\n      pop\n      jump\t// out\n        /* \"#utility.yul\":16612:16832   */\n    tag_434:\n        /* \"#utility.yul\":16752:16786   */\n      0x4e6f6e2d6d6172726965642070656f706c652063616e6e6f74206469766f7263\n        /* \"#utility.yul\":16748:16749   */\n      0x00\n        /* \"#utility.yul\":16740:16746   */\n      dup3\n        /* \"#utility.yul\":16736:16750   */\n      add\n        /* \"#utility.yul\":16729:16787   */\n      mstore\n        /* \"#utility.yul\":16821:16824   */\n      0x6500000000000000000000000000000000000000000000000000000000000000\n        /* \"#utility.yul\":16816:16818   */\n      0x20\n        /* \"#utility.yul\":16808:16814   */\n      dup3\n        /* \"#utility.yul\":16804:16819   */\n      add\n        /* \"#utility.yul\":16797:16825   */\n      mstore\n        /* \"#utility.yul\":16612:16832   */\n      pop\n      jump\t// out\n        /* \"#utility.yul\":16838:17204   */\n    tag_435:\n        /* \"#utility.yul\":16980:16983   */\n      0x00\n        /* \"#utility.yul\":17001:17068   */\n      tag_626\n        /* \"#utility.yul\":17065:17067   */\n      0x21\n        /* \"#utility.yul\":17060:17063   */\n      dup4\n        /* \"#utility.yul\":17001:17068   */\n      tag_396\n      jump\t// in\n    tag_626:\n        /* \"#utility.yul\":16994:17068   */\n      swap2\n      pop\n        /* \"#utility.yul\":17077:17170   */\n      tag_627\n        /* \"#utility.yul\":17166:17169   */\n      dup3\n        /* \"#utility.yul\":17077:17170   */\n      tag_434\n      jump\t// in\n    tag_627:\n        /* \"#utility.yul\":17195:17197   */\n      0x40\n        /* \"#utility.yul\":17190:17193   */\n      dup3\n        /* \"#utility.yul\":17186:17198   */\n      add\n        /* \"#utility.yul\":17179:17198   */\n      swap1\n      pop\n        /* \"#utility.yul\":16838:17204   */\n      swap2\n      swap1\n      pop\n      jump\t// out\n        /* \"#utility.yul\":17210:17629   */\n    tag_180:\n        /* \"#utility.yul\":17376:17380   */\n      0x00\n        /* \"#utility.yul\":17414:17416   */\n      0x20\n        /* \"#utility.yul\":17403:17412   */\n      dup3\n        /* \"#utility.yul\":17399:17417   */\n      add\n        /* \"#utility.yul\":17391:17417   */\n      swap1\n      pop\n        /* \"#utility.yul\":17463:17472   */\n      dup2\n        /* \"#utility.yul\":17457:17461   */\n      dup2\n        /* \"#utility.yul\":17453:17473   */\n      sub\n        /* \"#utility.yul\":17449:17450   */\n      0x00\n        /* \"#utility.yul\":17438:17447   */\n      dup4\n        /* \"#utility.yul\":17434:17451   */\n      add\n        /* \"#utility.yul\":17427:17474   */\n      mstore\n        /* \"#utility.yul\":17491:17622   */\n      tag_629\n        /* \"#utility.yul\":17617:17621   */\n      dup2\n        /* \"#utility.yul\":17491:17622   */\n      tag_435\n      jump\t// in\n    tag_629:\n        /* \"#utility.yul\":17483:17622   */\n      swap1\n      pop\n        /* \"#utility.yul\":17210:17629   */\n      swap2\n      swap1\n      pop\n      jump\t// out\n        /* \"#utility.yul\":17635:17866   */\n    tag_436:\n        /* \"#utility.yul\":17775:17809   */\n      0x4e6f7420656e6f756768207061727469636970616e747320616772656520746f\n        /* \"#utility.yul\":17771:17772   */\n      0x00\n        /* \"#utility.yul\":17763:17769   */\n      dup3\n        /* \"#utility.yul\":17759:17773   */\n      add\n        /* \"#utility.yul\":17752:17810   */\n      mstore\n        /* \"#utility.yul\":17844:17858   */\n      0x20746865206469766f7263650000000000000000000000000000000000000000\n        /* \"#utility.yul\":17839:17841   */\n      0x20\n        /* \"#utility.yul\":17831:17837   */\n      dup3\n        /* \"#utility.yul\":17827:17842   */\n      add\n        /* \"#utility.yul\":17820:17859   */\n      mstore\n        /* \"#utility.yul\":17635:17866   */\n      pop\n      jump\t// out\n        /* \"#utility.yul\":17872:18238   */\n    tag_437:\n        /* \"#utility.yul\":18014:18017   */\n      0x00\n        /* \"#utility.yul\":18035:18102   */\n      tag_632\n        /* \"#utility.yul\":18099:18101   */\n      0x2c\n        /* \"#utility.yul\":18094:18097   */\n      dup4\n        /* \"#utility.yul\":18035:18102   */\n      tag_396\n      jump\t// in\n    tag_632:\n        /* \"#utility.yul\":18028:18102   */\n      swap2\n      pop\n        /* \"#utility.yul\":18111:18204   */\n      tag_633\n        /* \"#utility.yul\":18200:18203   */\n      dup3\n        /* \"#utility.yul\":18111:18204   */\n      tag_436\n      jump\t// in\n    tag_633:\n        /* \"#utility.yul\":18229:18231   */\n      0x40\n        /* \"#utility.yul\":18224:18227   */\n      dup3\n        /* \"#utility.yul\":18220:18232   */\n      add\n        /* \"#utility.yul\":18213:18232   */\n      swap1\n      pop\n        /* \"#utility.yul\":17872:18238   */\n      swap2\n      swap1\n      pop\n      jump\t// out\n        /* \"#utility.yul\":18244:18663   */\n    tag_185:\n        /* \"#utility.yul\":18410:18414   */\n      0x00\n        /* \"#utility.yul\":18448:18450   */\n      0x20\n        /* \"#utility.yul\":18437:18446   */\n      dup3\n        /* \"#utility.yul\":18433:18451   */\n      add\n        /* \"#utility.yul\":18425:18451   */\n      swap1\n      pop\n        /* \"#utility.yul\":18497:18506   */\n      dup2\n        /* \"#utility.yul\":18491:18495   */\n      dup2\n        /* \"#utility.yul\":18487:18507   */\n      sub\n        /* \"#utility.yul\":18483:18484   */\n      0x00\n        /* \"#utility.yul\":18472:18481   */\n      dup4\n        /* \"#utility.yul\":18468:18485   */\n      add\n        /* \"#utility.yul\":18461:18508   */\n      mstore\n        /* \"#utility.yul\":18525:18656   */\n      tag_635\n        /* \"#utility.yul\":18651:18655   */\n      dup2\n        /* \"#utility.yul\":18525:18656   */\n      tag_437\n      jump\t// in\n    tag_635:\n        /* \"#utility.yul\":18517:18656   */\n      swap1\n      pop\n        /* \"#utility.yul\":18244:18663   */\n      swap2\n      swap1\n      pop\n      jump\t// out\n        /* \"#utility.yul\":18669:18849   */\n    tag_203:\n        /* \"#utility.yul\":18717:18794   */\n      0x4e487b7100000000000000000000000000000000000000000000000000000000\n        /* \"#utility.yul\":18714:18715   */\n      0x00\n        /* \"#utility.yul\":18707:18795   */\n      mstore\n        /* \"#utility.yul\":18814:18818   */\n      0x32\n        /* \"#utility.yul\":18811:18812   */\n      0x04\n        /* \"#utility.yul\":18804:18819   */\n      mstore\n        /* \"#utility.yul\":18838:18842   */\n      0x24\n        /* \"#utility.yul\":18835:18836   */\n      0x00\n        /* \"#utility.yul\":18828:18843   */\n      revert\n        /* \"#utility.yul\":18855:19035   */\n    tag_438:\n        /* \"#utility.yul\":18995:19027   */\n      0x43616e6e6f742072652d617574686f72697a6520616e20616464726573730000\n        /* \"#utility.yul\":18991:18992   */\n      0x00\n        /* \"#utility.yul\":18983:18989   */\n      dup3\n        /* \"#utility.yul\":18979:18993   */\n      add\n        /* \"#utility.yul\":18972:19028   */\n      mstore\n        /* \"#utility.yul\":18855:19035   */\n      pop\n      jump\t// out\n        /* \"#utility.yul\":19041:19407   */\n    tag_439:\n        /* \"#utility.yul\":19183:19186   */\n      0x00\n        /* \"#utility.yul\":19204:19271   */\n      tag_639\n        /* \"#utility.yul\":19268:19270   */\n      0x1e\n        /* \"#utility.yul\":19263:19266   */\n      dup4\n        /* \"#utility.yul\":19204:19271   */\n      tag_396\n      jump\t// in\n    tag_639:\n        /* \"#utility.yul\":19197:19271   */\n      swap2\n      pop\n        /* \"#utility.yul\":19280:19373   */\n      tag_640\n        /* \"#utility.yul\":19369:19372   */\n      dup3\n        /* \"#utility.yul\":19280:19373   */\n      tag_438\n      jump\t// in\n    tag_640:\n        /* \"#utility.yul\":19398:19400   */\n      0x20\n        /* \"#utility.yul\":19393:19396   */\n      dup3\n        /* \"#utility.yul\":19389:19401   */\n      add\n        /* \"#utility.yul\":19382:19401   */\n      swap1\n      pop\n        /* \"#utility.yul\":19041:19407   */\n      swap2\n      swap1\n      pop\n      jump\t// out\n        /* \"#utility.yul\":19413:19832   */\n    tag_207:\n        /* \"#utility.yul\":19579:19583   */\n      0x00\n        /* \"#utility.yul\":19617:19619   */\n      0x20\n        /* \"#utility.yul\":19606:19615   */\n      dup3\n        /* \"#utility.yul\":19602:19620   */\n      add\n        /* \"#utility.yul\":19594:19620   */\n      swap1\n      pop\n        /* \"#utility.yul\":19666:19675   */\n      dup2\n        /* \"#utility.yul\":19660:19664   */\n      dup2\n        /* \"#utility.yul\":19656:19676   */\n      sub\n        /* \"#utility.yul\":19652:19653   */\n      0x00\n        /* \"#utility.yul\":19641:19650   */\n      dup4\n        /* \"#utility.yul\":19637:19654   */\n      add\n        /* \"#utility.yul\":19630:19677   */\n      mstore\n        /* \"#utility.yul\":19694:19825   */\n      tag_642\n        /* \"#utility.yul\":19820:19824   */\n      dup2\n        /* \"#utility.yul\":19694:19825   */\n      tag_439\n      jump\t// in\n    tag_642:\n        /* \"#utility.yul\":19686:19825   */\n      swap1\n      pop\n        /* \"#utility.yul\":19413:19832   */\n      swap2\n      swap1\n      pop\n      jump\t// out\n        /* \"#utility.yul\":19838:19924   */\n    tag_440:\n        /* \"#utility.yul\":19873:19880   */\n      0x00\n        /* \"#utility.yul\":19913:19917   */\n      0xff\n        /* \"#utility.yul\":19906:19911   */\n      dup3\n        /* \"#utility.yul\":19902:19918   */\n      and\n        /* \"#utility.yul\":19891:19918   */\n      swap1\n      pop\n        /* \"#utility.yul\":19838:19924   */\n      swap2\n      swap1\n      pop\n      jump\t// out\n        /* \"#utility.yul\":19930:20097   */\n    tag_209:\n        /* \"#utility.yul\":19967:19970   */\n      0x00\n        /* \"#utility.yul\":19990:20012   */\n      tag_645\n        /* \"#utility.yul\":20006:20011   */\n      dup3\n        /* \"#utility.yul\":19990:20012   */\n      tag_440\n      jump\t// in\n    tag_645:\n        /* \"#utility.yul\":19981:20012   */\n      swap2\n      pop\n        /* \"#utility.yul\":20034:20038   */\n      0xff\n        /* \"#utility.yul\":20027:20032   */\n      dup3\n        /* \"#utility.yul\":20024:20039   */\n      sub\n        /* \"#utility.yul\":20021:20062   */\n      tag_646\n      jumpi\n        /* \"#utility.yul\":20042:20060   */\n      tag_647\n      tag_433\n      jump\t// in\n    tag_647:\n        /* \"#utility.yul\":20021:20062   */\n    tag_646:\n        /* \"#utility.yul\":20089:20090   */\n      0x01\n        /* \"#utility.yul\":20082:20087   */\n      dup3\n        /* \"#utility.yul\":20078:20091   */\n      add\n        /* \"#utility.yul\":20071:20091   */\n      swap1\n      pop\n        /* \"#utility.yul\":19930:20097   */\n      swap2\n      swap1\n      pop\n      jump\t// out\n        /* \"#utility.yul\":20103:20291   */\n    tag_226:\n        /* \"#utility.yul\":20141:20144   */\n      0x00\n        /* \"#utility.yul\":20160:20178   */\n      tag_649\n        /* \"#utility.yul\":20176:20177   */\n      dup3\n        /* \"#utility.yul\":20160:20178   */\n      tag_440\n      jump\t// in\n    tag_649:\n        /* \"#utility.yul\":20155:20178   */\n      swap2\n      pop\n        /* \"#utility.yul\":20192:20210   */\n      tag_650\n        /* \"#utility.yul\":20208:20209   */\n      dup4\n        /* \"#utility.yul\":20192:20210   */\n      tag_440\n      jump\t// in\n    tag_650:\n        /* \"#utility.yul\":20187:20210   */\n      swap3\n      pop\n        /* \"#utility.yul\":20233:20234   */\n      dup3\n        /* \"#utility.yul\":20230:20231   */\n      dup3\n        /* \"#utility.yul\":20226:20235   */\n      add\n        /* \"#utility.yul\":20219:20235   */\n      swap1\n      pop\n        /* \"#utility.yul\":20256:20260   */\n      0xff\n        /* \"#utility.yul\":20251:20254   */\n      dup2\n        /* \"#utility.yul\":20248:20261   */\n      gt\n        /* \"#utility.yul\":20245:20284   */\n      iszero\n      tag_651\n      jumpi\n        /* \"#utility.yul\":20264:20282   */\n      tag_652\n      tag_433\n      jump\t// in\n    tag_652:\n        /* \"#utility.yul\":20245:20284   */\n    tag_651:\n        /* \"#utility.yul\":20103:20291   */\n      swap3\n      swap2\n      pop\n      pop\n      jump\t// out\n        /* \"#utility.yul\":20297:20445   */\n    tag_441:\n        /* \"#utility.yul\":20399:20410   */\n      0x00\n        /* \"#utility.yul\":20436:20439   */\n      dup2\n        /* \"#utility.yul\":20421:20439   */\n      swap1\n      pop\n        /* \"#utility.yul\":20297:20445   */\n      swap3\n      swap2\n      pop\n      pop\n      jump\t// out\n        /* \"#utility.yul\":20451:20841   */\n    tag_442:\n        /* \"#utility.yul\":20557:20560   */\n      0x00\n        /* \"#utility.yul\":20585:20624   */\n      tag_655\n        /* \"#utility.yul\":20618:20623   */\n      dup3\n        /* \"#utility.yul\":20585:20624   */\n      tag_395\n      jump\t// in\n    tag_655:\n        /* \"#utility.yul\":20640:20729   */\n      tag_656\n        /* \"#utility.yul\":20722:20728   */\n      dup2\n        /* \"#utility.yul\":20717:20720   */\n      dup6\n        /* \"#utility.yul\":20640:20729   */\n      tag_441\n      jump\t// in\n    tag_656:\n        /* \"#utility.yul\":20633:20729   */\n      swap4\n      pop\n        /* \"#utility.yul\":20738:20803   */\n      tag_657\n        /* \"#utility.yul\":20796:20802   */\n      dup2\n        /* \"#utility.yul\":20791:20794   */\n      dup6\n        /* \"#utility.yul\":20784:20788   */\n      0x20\n        /* \"#utility.yul\":20777:20782   */\n      dup7\n        /* \"#utility.yul\":20773:20789   */\n      add\n        /* \"#utility.yul\":20738:20803   */\n      tag_397\n      jump\t// in\n    tag_657:\n        /* \"#utility.yul\":20828:20834   */\n      dup1\n        /* \"#utility.yul\":20823:20826   */\n      dup5\n        /* \"#utility.yul\":20819:20835   */\n      add\n        /* \"#utility.yul\":20812:20835   */\n      swap2\n      pop\n        /* \"#utility.yul\":20561:20841   */\n      pop\n        /* \"#utility.yul\":20451:20841   */\n      swap3\n      swap2\n      pop\n      pop\n      jump\t// out\n        /* \"#utility.yul\":20847:21282   */\n    tag_240:\n        /* \"#utility.yul\":21027:21030   */\n      0x00\n        /* \"#utility.yul\":21049:21144   */\n      tag_659\n        /* \"#utility.yul\":21140:21143   */\n      dup3\n        /* \"#utility.yul\":21131:21137   */\n      dup6\n        /* \"#utility.yul\":21049:21144   */\n      tag_442\n      jump\t// in\n    tag_659:\n        /* \"#utility.yul\":21042:21144   */\n      swap2\n      pop\n        /* \"#utility.yul\":21161:21256   */\n      tag_660\n        /* \"#utility.yul\":21252:21255   */\n      dup3\n        /* \"#utility.yul\":21243:21249   */\n      dup5\n        /* \"#utility.yul\":21161:21256   */\n      tag_442\n      jump\t// in\n    tag_660:\n        /* \"#utility.yul\":21154:21256   */\n      swap2\n      pop\n        /* \"#utility.yul\":21273:21276   */\n      dup2\n        /* \"#utility.yul\":21266:21276   */\n      swap1\n      pop\n        /* \"#utility.yul\":20847:21282   */\n      swap4\n      swap3\n      pop\n      pop\n      pop\n      jump\t// out\n        /* \"#utility.yul\":21288:21386   */\n    tag_443:\n        /* \"#utility.yul\":21339:21345   */\n      0x00\n        /* \"#utility.yul\":21373:21378   */\n      dup2\n        /* \"#utility.yul\":21367:21379   */\n      mload\n        /* \"#utility.yul\":21357:21379   */\n      swap1\n      pop\n        /* \"#utility.yul\":21288:21386   */\n      swap2\n      swap1\n      pop\n      jump\t// out\n        /* \"#utility.yul\":21392:21560   */\n    tag_444:\n        /* \"#utility.yul\":21475:21486   */\n      0x00\n        /* \"#utility.yul\":21509:21515   */\n      dup3\n        /* \"#utility.yul\":21504:21507   */\n      dup3\n        /* \"#utility.yul\":21497:21516   */\n      mstore\n        /* \"#utility.yul\":21549:21553   */\n      0x20\n        /* \"#utility.yul\":21544:21547   */\n      dup3\n        /* \"#utility.yul\":21540:21554   */\n      add\n        /* \"#utility.yul\":21525:21554   */\n      swap1\n      pop\n        /* \"#utility.yul\":21392:21560   */\n      swap3\n      swap2\n      pop\n      pop\n      jump\t// out\n        /* \"#utility.yul\":21566:21939   */\n    tag_445:\n        /* \"#utility.yul\":21652:21655   */\n      0x00\n        /* \"#utility.yul\":21680:21718   */\n      tag_664\n        /* \"#utility.yul\":21712:21717   */\n      dup3\n        /* \"#utility.yul\":21680:21718   */\n      tag_443\n      jump\t// in\n    tag_664:\n        /* \"#utility.yul\":21734:21804   */\n      tag_665\n        /* \"#utility.yul\":21797:21803   */\n      dup2\n        /* \"#utility.yul\":21792:21795   */\n      dup6\n        /* \"#utility.yul\":21734:21804   */\n      tag_444\n      jump\t// in\n    tag_665:\n        /* \"#utility.yul\":21727:21804   */\n      swap4\n      pop\n        /* \"#utility.yul\":21813:21878   */\n      tag_666\n        /* \"#utility.yul\":21871:21877   */\n      dup2\n        /* \"#utility.yul\":21866:21869   */\n      dup6\n        /* \"#utility.yul\":21859:21863   */\n      0x20\n        /* \"#utility.yul\":21852:21857   */\n      dup7\n        /* \"#utility.yul\":21848:21864   */\n      add\n        /* \"#utility.yul\":21813:21878   */\n      tag_397\n      jump\t// in\n    tag_666:\n        /* \"#utility.yul\":21903:21932   */\n      tag_667\n        /* \"#utility.yul\":21925:21931   */\n      dup2\n        /* \"#utility.yul\":21903:21932   */\n      tag_398\n      jump\t// in\n    tag_667:\n        /* \"#utility.yul\":21898:21901   */\n      dup5\n        /* \"#utility.yul\":21894:21933   */\n      add\n        /* \"#utility.yul\":21887:21933   */\n      swap2\n      pop\n        /* \"#utility.yul\":21656:21939   */\n      pop\n        /* \"#utility.yul\":21566:21939   */\n      swap3\n      swap2\n      pop\n      pop\n      jump\t// out\n        /* \"#utility.yul\":21945:22585   */\n    tag_311:\n        /* \"#utility.yul\":22140:22144   */\n      0x00\n        /* \"#utility.yul\":22178:22181   */\n      0x80\n        /* \"#utility.yul\":22167:22176   */\n      dup3\n        /* \"#utility.yul\":22163:22182   */\n      add\n        /* \"#utility.yul\":22155:22182   */\n      swap1\n      pop\n        /* \"#utility.yul\":22192:22263   */\n      tag_669\n        /* \"#utility.yul\":22260:22261   */\n      0x00\n        /* \"#utility.yul\":22249:22258   */\n      dup4\n        /* \"#utility.yul\":22245:22262   */\n      add\n        /* \"#utility.yul\":22236:22242   */\n      dup8\n        /* \"#utility.yul\":22192:22263   */\n      tag_405\n      jump\t// in\n    tag_669:\n        /* \"#utility.yul\":22273:22345   */\n      tag_670\n        /* \"#utility.yul\":22341:22343   */\n      0x20\n        /* \"#utility.yul\":22330:22339   */\n      dup4\n        /* \"#utility.yul\":22326:22344   */\n      add\n        /* \"#utility.yul\":22317:22323   */\n      dup7\n        /* \"#utility.yul\":22273:22345   */\n      tag_405\n      jump\t// in\n    tag_670:\n        /* \"#utility.yul\":22355:22427   */\n      tag_671\n        /* \"#utility.yul\":22423:22425   */\n      0x40\n        /* \"#utility.yul\":22412:22421   */\n      dup4\n        /* \"#utility.yul\":22408:22426   */\n      add\n        /* \"#utility.yul\":22399:22405   */\n      dup6\n        /* \"#utility.yul\":22355:22427   */\n      tag_410\n      jump\t// in\n    tag_671:\n        /* \"#utility.yul\":22474:22483   */\n      dup2\n        /* \"#utility.yul\":22468:22472   */\n      dup2\n        /* \"#utility.yul\":22464:22484   */\n      sub\n        /* \"#utility.yul\":22459:22461   */\n      0x60\n        /* \"#utility.yul\":22448:22457   */\n      dup4\n        /* \"#utility.yul\":22444:22462   */\n      add\n        /* \"#utility.yul\":22437:22485   */\n      mstore\n        /* \"#utility.yul\":22502:22578   */\n      tag_672\n        /* \"#utility.yul\":22573:22577   */\n      dup2\n        /* \"#utility.yul\":22564:22570   */\n      dup5\n        /* \"#utility.yul\":22502:22578   */\n      tag_445\n      jump\t// in\n    tag_672:\n        /* \"#utility.yul\":22494:22578   */\n      swap1\n      pop\n        /* \"#utility.yul\":21945:22585   */\n      swap6\n      swap5\n      pop\n      pop\n      pop\n      pop\n      pop\n      jump\t// out\n        /* \"#utility.yul\":22591:22732   */\n    tag_446:\n        /* \"#utility.yul\":22647:22652   */\n      0x00\n        /* \"#utility.yul\":22678:22684   */\n      dup2\n        /* \"#utility.yul\":22672:22685   */\n      mload\n        /* \"#utility.yul\":22663:22685   */\n      swap1\n      pop\n        /* \"#utility.yul\":22694:22726   */\n      tag_674\n        /* \"#utility.yul\":22720:22725   */\n      dup2\n        /* \"#utility.yul\":22694:22726   */\n      tag_391\n      jump\t// in\n    tag_674:\n        /* \"#utility.yul\":22591:22732   */\n      swap3\n      swap2\n      pop\n      pop\n      jump\t// out\n        /* \"#utility.yul\":22738:23087   */\n    tag_314:\n        /* \"#utility.yul\":22807:22813   */\n      0x00\n        /* \"#utility.yul\":22856:22858   */\n      0x20\n        /* \"#utility.yul\":22844:22853   */\n      dup3\n        /* \"#utility.yul\":22835:22842   */\n      dup5\n        /* \"#utility.yul\":22831:22854   */\n      sub\n        /* \"#utility.yul\":22827:22859   */\n      slt\n        /* \"#utility.yul\":22824:22943   */\n      iszero\n      tag_676\n      jumpi\n        /* \"#utility.yul\":22862:22941   */\n      tag_677\n      tag_388\n      jump\t// in\n    tag_677:\n        /* \"#utility.yul\":22824:22943   */\n    tag_676:\n        /* \"#utility.yul\":22982:22983   */\n      0x00\n        /* \"#utility.yul\":23007:23070   */\n      tag_678\n        /* \"#utility.yul\":23062:23069   */\n      dup5\n        /* \"#utility.yul\":23053:23059   */\n      dup3\n        /* \"#utility.yul\":23042:23051   */\n      dup6\n        /* \"#utility.yul\":23038:23060   */\n      add\n        /* \"#utility.yul\":23007:23070   */\n      tag_446\n      jump\t// in\n    tag_678:\n        /* \"#utility.yul\":22997:23070   */\n      swap2\n      pop\n        /* \"#utility.yul\":22953:23080   */\n      pop\n        /* \"#utility.yul\":22738:23087   */\n      swap3\n      swap2\n      pop\n      pop\n      jump\t// out\n        /* \"#utility.yul\":23093:23273   */\n    tag_339:\n        /* \"#utility.yul\":23141:23218   */\n      0x4e487b7100000000000000000000000000000000000000000000000000000000\n        /* \"#utility.yul\":23138:23139   */\n      0x00\n        /* \"#utility.yul\":23131:23219   */\n      mstore\n        /* \"#utility.yul\":23238:23242   */\n      0x12\n        /* \"#utility.yul\":23235:23236   */\n      0x04\n        /* \"#utility.yul\":23228:23243   */\n      mstore\n        /* \"#utility.yul\":23262:23266   */\n      0x24\n        /* \"#utility.yul\":23259:23260   */\n      0x00\n        /* \"#utility.yul\":23252:23267   */\n      revert\n        /* \"#utility.yul\":23279:23611   */\n    tag_360:\n        /* \"#utility.yul\":23400:23404   */\n      0x00\n        /* \"#utility.yul\":23438:23440   */\n      0x40\n        /* \"#utility.yul\":23427:23436   */\n      dup3\n        /* \"#utility.yul\":23423:23441   */\n      add\n        /* \"#utility.yul\":23415:23441   */\n      swap1\n      pop\n        /* \"#utility.yul\":23451:23522   */\n      tag_681\n        /* \"#utility.yul\":23519:23520   */\n      0x00\n        /* \"#utility.yul\":23508:23517   */\n      dup4\n        /* \"#utility.yul\":23504:23521   */\n      add\n        /* \"#utility.yul\":23495:23501   */\n      dup6\n        /* \"#utility.yul\":23451:23522   */\n      tag_405\n      jump\t// in\n    tag_681:\n        /* \"#utility.yul\":23532:23604   */\n      tag_682\n        /* \"#utility.yul\":23600:23602   */\n      0x20\n        /* \"#utility.yul\":23589:23598   */\n      dup4\n        /* \"#utility.yul\":23585:23603   */\n      add\n        /* \"#utility.yul\":23576:23582   */\n      dup5\n        /* \"#utility.yul\":23532:23604   */\n      tag_410\n      jump\t// in\n    tag_682:\n        /* \"#utility.yul\":23279:23611   */\n      swap4\n      swap3\n      pop\n      pop\n      pop\n      jump\t// out\n\n    auxdata: 0xa264697066735822122000280b28eb35d6c6fe9e3cc57e6abeb61341594130679b5578789b992d047e7f64736f6c63430008140033\n}\n",
				"bytecode": {
					"linkReferences": {},
					"object": "608060405230600c5f6101000a81548173ffffffffffffffffffffffffffffffffffffffff021916908373ffffffffffffffffffffffffffffffffffffffff16021790555034801562000050575f80fd5b50604051620039be380380620039be83398181016040528101906200007691906200033c565b6040518060400160405280600781526020017f57656464696e67000000000000000000000000000000000000000000000000008152506040518060400160405280600381526020017f7765640000000000000000000000000000000000000000000000000000000000815250815f9081620000f29190620005f9565b508060019081620001049190620005f9565b50505033600660086101000a81548173ffffffffffffffffffffffffffffffffffffffff021916908373ffffffffffffffffffffffffffffffffffffffff1602179055508260075f6101000a81548173ffffffffffffffffffffffffffffffffffffffff021916908373ffffffffffffffffffffffffffffffffffffffff16021790555080600760156101000a81548161ffff021916908361ffff16021790555081600760146101000a81548160ff0219169083151502179055505f600760176101000a81548160ff021916908360ff1602179055505f600760186101000a81548160ff021916908360ff1602179055505f60095f6101000a81548163ffffffff021916908363ffffffff160217905550603260065f6101000a81548163ffffffff021916908363ffffffff1602179055506033600660046101000a81548163ffffffff021916908363ffffffff160217905550505050620006dd565b5f80fd5b5f73ffffffffffffffffffffffffffffffffffffffff82169050919050565b5f620002908262000265565b9050919050565b620002a28162000284565b8114620002ad575f80fd5b50565b5f81519050620002c08162000297565b92915050565b5f8115159050919050565b620002dc81620002c6565b8114620002e7575f80fd5b50565b5f81519050620002fa81620002d1565b92915050565b5f61ffff82169050919050565b620003188162000300565b811462000323575f80fd5b50565b5f8151905062000336816200030d565b92915050565b5f805f6060848603121562000356576200035562000261565b5b5f6200036586828701620002b0565b93505060206200037886828701620002ea565b92505060406200038b8682870162000326565b9150509250925092565b5f81519050919050565b7f4e487b71000000000000000000000000000000000000000000000000000000005f52604160045260245ffd5b7f4e487b71000000000000000000000000000000000000000000000000000000005f52602260045260245ffd5b5f60028204905060018216806200041157607f821691505b602082108103620004275762000426620003cc565b5b50919050565b5f819050815f5260205f209050919050565b5f6020601f8301049050919050565b5f82821b905092915050565b5f600883026200048b7fffffffffffffffffffffffffffffffffffffffffffffffffffffffffffffffff826200044e565b6200049786836200044e565b95508019841693508086168417925050509392505050565b5f819050919050565b5f819050919050565b5f620004e1620004db620004d584620004af565b620004b8565b620004af565b9050919050565b5f819050919050565b620004fc83620004c1565b620005146200050b82620004e8565b8484546200045a565b825550505050565b5f90565b6200052a6200051c565b62000537818484620004f1565b505050565b5b818110156200055e57620005525f8262000520565b6001810190506200053d565b5050565b601f821115620005ad5762000577816200042d565b62000582846200043f565b8101602085101562000592578190505b620005aa620005a1856200043f565b8301826200053c565b50505b505050565b5f82821c905092915050565b5f620005cf5f1984600802620005b2565b1980831691505092915050565b5f620005e98383620005be565b9150826002028217905092915050565b620006048262000395565b67ffffffffffffffff81111562000620576200061f6200039f565b5b6200062c8254620003f9565b6200063982828562000562565b5f60209050601f8311600181146200066f575f84156200065a578287015190505b620006668582620005dc565b865550620006d5565b601f1984166200067f866200042d565b5f5b82811015620006a85784890151825560018201915060208501945060208101905062000681565b86831015620006c85784890151620006c4601f891682620005be565b8355505b6001600288020188555050505b505050505050565b6132d380620006eb5f395ff3fe608060405234801561000f575f80fd5b5060043610610114575f3560e01c806370a08231116100a0578063b49a5bb21161006f578063b49a5bb2146102ca578063b88d4fde146102e6578063bd6690f414610302578063c87b56dd1461031e578063e985e9c51461034e57610114565b806370a082311461024257806395d89b4114610272578063a22cb46514610290578063a702314d146102ac57610114565b806323b872dd116100e757806323b872dd146101b25780632fc5a6df146101ce57806331b3e321146101ec57806342842e0e146101f65780636352211e1461021257610114565b806301ffc9a71461011857806306fdde0314610148578063081812fc14610166578063095ea7b314610196575b5f80fd5b610132600480360381019061012d9190612642565b61037e565b60405161013f9190612687565b60405180910390f35b61015061045f565b60405161015d919061272a565b60405180910390f35b610180600480360381019061017b919061277d565b6104ee565b60405161018d91906127e7565b60405180910390f35b6101b060048036038101906101ab919061282a565b610509565b005b6101cc60048036038101906101c79190612868565b61051f565b005b6101d661061e565b6040516101e391906128d4565b60405180910390f35b6101f4610632565b005b610210600480360381019061020b9190612868565b610aa9565b005b61022c6004803603810190610227919061277d565b610ac8565b60405161023991906127e7565b60405180910390f35b61025c600480360381019061025791906128ed565b610ad9565b6040516102699190612927565b60405180910390f35b61027a610b8f565b604051610287919061272a565b60405180910390f35b6102aa60048036038101906102a5919061296a565b610c1f565b005b6102b4610c35565b6040516102c19190612687565b60405180910390f35b6102e460048036038101906102df919061277d565b610c48565b005b61030060048036038101906102fb9190612ad4565b610ec7565b005b61031c600480360381019061031791906128ed565b610ee4565b005b6103386004803603810190610333919061277d565b6113ef565b604051610345919061272a565b60405180910390f35b61036860048036038101906103639190612b54565b611455565b6040516103759190612687565b60405180910390f35b5f7f80ac58cd000000000000000000000000000000000000000000000000000000007bffffffffffffffffffffffffffffffffffffffffffffffffffffffff1916827bffffffffffffffffffffffffffffffffffffffffffffffffffffffff1916148061044857507f5b5e139f000000000000000000000000000000000000000000000000000000007bffffffffffffffffffffffffffffffffffffffffffffffffffffffff1916827bffffffffffffffffffffffffffffffffffffffffffffffffffffffff1916145b806104585750610457826114e3565b5b9050919050565b60605f805461046d90612bbf565b80601f016020809104026020016040519081016040528092919081815260200182805461049990612bbf565b80156104e45780601f106104bb576101008083540402835291602001916104e4565b820191905f5260205f20905b8154815290600101906020018083116104c757829003601f168201915b5050505050905090565b5f6104f88261154c565b50610502826115d2565b9050919050565b61051b828261051661160b565b611612565b5050565b5f73ffffffffffffffffffffffffffffffffffffffff168273ffffffffffffffffffffffffffffffffffffffff160361058f575f6040517f64a0ae9200000000000000000000000000000000000000000000000000000000815260040161058691906127e7565b60405180910390fd5b5f6105a2838361059d61160b565b611624565b90508373ffffffffffffffffffffffffffffffffffffffff168173ffffffffffffffffffffffffffffffffffffffff1614610618578382826040517f64283d7b00000000000000000000000000000000000000000000000000000000815260040161060f93929190612bef565b60405180910390fd5b50505050565b600760159054906101000a900461ffff1681565b600660089054906101000a900473ffffffffffffffffffffffffffffffffffffffff1673ffffffffffffffffffffffffffffffffffffffff163373ffffffffffffffffffffffffffffffffffffffff1614806106da575060075f9054906101000a900473ffffffffffffffffffffffffffffffffffffffff1673ffffffffffffffffffffffffffffffffffffffff163373ffffffffffffffffffffffffffffffffffffffff16145b610719576040517f08c379a000000000000000000000000000000000000000000000000000000000815260040161071090612c94565b60405180910390fd5b600760149054906101000a900460ff16610768576040517f08c379a000000000000000000000000000000000000000000000000000000000815260040161075f90612d22565b60405180910390fd5b600660089054906101000a900473ffffffffffffffffffffffffffffffffffffffff1673ffffffffffffffffffffffffffffffffffffffff16600c5f9054906101000a900473ffffffffffffffffffffffffffffffffffffffff1673ffffffffffffffffffffffffffffffffffffffff16636352211e60065f9054906101000a900463ffffffff166040518263ffffffff1660e01b815260040161080c9190612d88565b602060405180830381865afa158015610827573d5f803e3d5ffd5b505050506040513d601f19601f8201168201806040525081019061084b9190612db5565b73ffffffffffffffffffffffffffffffffffffffff161480610963575060075f9054906101000a900473ffffffffffffffffffffffffffffffffffffffff1673ffffffffffffffffffffffffffffffffffffffff16600c5f9054906101000a900473ffffffffffffffffffffffffffffffffffffffff1673ffffffffffffffffffffffffffffffffffffffff16636352211e600660049054906101000a900463ffffffff166040518263ffffffff1660e01b815260040161090c9190612d88565b602060405180830381865afa158015610927573d5f803e3d5ffd5b505050506040513d601f19601f8201168201806040525081019061094b9190612db5565b73ffffffffffffffffffffffffffffffffffffffff16145b6109a2576040517f08c379a000000000000000000000000000000000000000000000000000000000815260040161099990612e76565b60405180910390fd5b600160065f8282829054906101000a900463ffffffff166109c39190612ec1565b92506101000a81548163ffffffff021916908363ffffffff1602179055506001600660048282829054906101000a900463ffffffff16610a039190612ec1565b92506101000a81548163ffffffff021916908363ffffffff160217905550610a64600660089054906101000a900473ffffffffffffffffffffffffffffffffffffffff1660065f9054906101000a900463ffffffff1663ffffffff1661182f565b610aa760075f9054906101000a900473ffffffffffffffffffffffffffffffffffffffff16600660049054906101000a900463ffffffff1663ffffffff1661182f565b565b610ac383838360405180602001604052805f815250610ec7565b505050565b5f610ad28261154c565b9050919050565b5f8073ffffffffffffffffffffffffffffffffffffffff168273ffffffffffffffffffffffffffffffffffffffff1603610b4a575f6040517f89c62b64000000000000000000000000000000000000000000000000000000008152600401610b4191906127e7565b60405180910390fd5b60035f8373ffffffffffffffffffffffffffffffffffffffff1673ffffffffffffffffffffffffffffffffffffffff1681526020019081526020015f20549050919050565b606060018054610b9e90612bbf565b80601f0160208091040260200160405190810160405280929190818152602001828054610bca90612bbf565b8015610c155780601f10610bec57610100808354040283529160200191610c15565b820191905f5260205f20905b815481529060010190602001808311610bf857829003601f168201915b5050505050905090565b610c31610c2a61160b565b8383611922565b5050565b600760149054906101000a900460ff1681565b600660089054906101000a900473ffffffffffffffffffffffffffffffffffffffff1673ffffffffffffffffffffffffffffffffffffffff163373ffffffffffffffffffffffffffffffffffffffff161480610cf0575060075f9054906101000a900473ffffffffffffffffffffffffffffffffffffffff1673ffffffffffffffffffffffffffffffffffffffff163373ffffffffffffffffffffffffffffffffffffffff16145b610d2f576040517f08c379a0000000000000000000000000000000000000000000000000000000008152600401610d2690612c94565b60405180910390fd5b600760149054906101000a900460ff16610d7e576040517f08c379a0000000000000000000000000000000000000000000000000000000008152600401610d7590612f68565b60405180910390fd5b5f610d898233611a8b565b905080610dcb576040517f08c379a0000000000000000000000000000000000000000000000000000000008152600401610dc290612ff6565b60405180910390fd5b610deb60065f9054906101000a900463ffffffff1663ffffffff16611dfc565b610e0c600660049054906101000a900463ffffffff1663ffffffff16611dfc565b5f600760146101000a81548160ff02191690831515021790555060075f9054906101000a900473ffffffffffffffffffffffffffffffffffffffff1673ffffffffffffffffffffffffffffffffffffffff16600660089054906101000a900473ffffffffffffffffffffffffffffffffffffffff1673ffffffffffffffffffffffffffffffffffffffff167f6077edea937d666f6b546e152b1e3b4c1632f0b238e580d25b0c3a589487bfda60405160405180910390a35050565b610ed284848461051f565b610ede84848484611e7e565b50505050565b600660089054906101000a900473ffffffffffffffffffffffffffffffffffffffff1673ffffffffffffffffffffffffffffffffffffffff163373ffffffffffffffffffffffffffffffffffffffff161480610f8c575060075f9054906101000a900473ffffffffffffffffffffffffffffffffffffffff1673ffffffffffffffffffffffffffffffffffffffff163373ffffffffffffffffffffffffffffffffffffffff16145b610fcb576040517f08c379a0000000000000000000000000000000000000000000000000000000008152600401610fc290612c94565b60405180910390fd5b5f5b60038160ff161015611098578173ffffffffffffffffffffffffffffffffffffffff16600a8260ff168154811061100757611006613014565b5b905f5260205f20015f9054906101000a900473ffffffffffffffffffffffffffffffffffffffff1673ffffffffffffffffffffffffffffffffffffffff1603611085576040517f08c379a000000000000000000000000000000000000000000000000000000000815260040161107c9061308b565b60405180910390fd5b8080611090906130b5565b915050610fcd565b50600660089054906101000a900473ffffffffffffffffffffffffffffffffffffffff1673ffffffffffffffffffffffffffffffffffffffff163373ffffffffffffffffffffffffffffffffffffffff160361116c576001600b5f8373ffffffffffffffffffffffffffffffffffffffff1673ffffffffffffffffffffffffffffffffffffffff1681526020019081526020015f205f8154811061113f5761113e613014565b5b905f5260205f2090602091828204019190066101000a81548160ff021916908360ff16021790555061123c565b60075f9054906101000a900473ffffffffffffffffffffffffffffffffffffffff1673ffffffffffffffffffffffffffffffffffffffff163373ffffffffffffffffffffffffffffffffffffffff160361123b576001600b5f8373ffffffffffffffffffffffffffffffffffffffff1673ffffffffffffffffffffffffffffffffffffffff1681526020019081526020015f2060018154811061121257611211613014565b5b905f5260205f2090602091828204019190066101000a81548160ff021916908360ff1602179055505b5b6002600b5f8373ffffffffffffffffffffffffffffffffffffffff1673ffffffffffffffffffffffffffffffffffffffff1681526020019081526020015f2060018154811061128e5761128d613014565b5b905f5260205f2090602091828204019190069054906101000a900460ff16600b5f8473ffffffffffffffffffffffffffffffffffffffff1673ffffffffffffffffffffffffffffffffffffffff1681526020019081526020015f205f815481106112fb576112fa613014565b5b905f5260205f2090602091828204019190069054906101000a900460ff1661132391906130dd565b60ff16036113ec57600160095f8282829054906101000a900463ffffffff1661134c9190612ec1565b92506101000a81548163ffffffff021916908363ffffffff160217905550600a81908060018154018082558091505060019003905f5260205f20015f9091909190916101000a81548173ffffffffffffffffffffffffffffffffffffffff021916908373ffffffffffffffffffffffffffffffffffffffff1602179055506113eb8160095f9054906101000a900463ffffffff1663ffffffff1661182f565b5b50565b60606113fa8261154c565b505f611404612030565b90505f8151116114225760405180602001604052805f81525061144d565b8061142c84612046565b60405160200161143d92919061314b565b6040516020818303038152906040525b915050919050565b5f60055f8473ffffffffffffffffffffffffffffffffffffffff1673ffffffffffffffffffffffffffffffffffffffff1681526020019081526020015f205f8373ffffffffffffffffffffffffffffffffffffffff1673ffffffffffffffffffffffffffffffffffffffff1681526020019081526020015f205f9054906101000a900460ff16905092915050565b5f7f01ffc9a7000000000000000000000000000000000000000000000000000000007bffffffffffffffffffffffffffffffffffffffffffffffffffffffff1916827bffffffffffffffffffffffffffffffffffffffffffffffffffffffff1916149050919050565b5f8061155783612110565b90505f73ffffffffffffffffffffffffffffffffffffffff168173ffffffffffffffffffffffffffffffffffffffff16036115c957826040517f7e2732890000000000000000000000000000000000000000000000000000000081526004016115c09190612927565b60405180910390fd5b80915050919050565b5f60045f8381526020019081526020015f205f9054906101000a900473ffffffffffffffffffffffffffffffffffffffff169050919050565b5f33905090565b61161f8383836001612149565b505050565b5f8061162f84612110565b90505f73ffffffffffffffffffffffffffffffffffffffff168373ffffffffffffffffffffffffffffffffffffffff16146116705761166f818486612308565b5b5f73ffffffffffffffffffffffffffffffffffffffff168173ffffffffffffffffffffffffffffffffffffffff16146116fb576116af5f855f80612149565b600160035f8373ffffffffffffffffffffffffffffffffffffffff1673ffffffffffffffffffffffffffffffffffffffff1681526020019081526020015f205f82825403925050819055505b5f73ffffffffffffffffffffffffffffffffffffffff168573ffffffffffffffffffffffffffffffffffffffff161461177a57600160035f8773ffffffffffffffffffffffffffffffffffffffff1673ffffffffffffffffffffffffffffffffffffffff1681526020019081526020015f205f82825401925050819055505b8460025f8681526020019081526020015f205f6101000a81548173ffffffffffffffffffffffffffffffffffffffff021916908373ffffffffffffffffffffffffffffffffffffffff160217905550838573ffffffffffffffffffffffffffffffffffffffff168273ffffffffffffffffffffffffffffffffffffffff167fddf252ad1be2c89b69c2b068fc378daa952ba7f163c4a11628f55a4df523b3ef60405160405180910390a4809150509392505050565b5f73ffffffffffffffffffffffffffffffffffffffff168273ffffffffffffffffffffffffffffffffffffffff160361189f575f6040517f64a0ae9200000000000000000000000000000000000000000000000000000000815260040161189691906127e7565b60405180910390fd5b5f6118ab83835f611624565b90505f73ffffffffffffffffffffffffffffffffffffffff168173ffffffffffffffffffffffffffffffffffffffff161461191d575f6040517f73c6ac6e00000000000000000000000000000000000000000000000000000000815260040161191491906127e7565b60405180910390fd5b505050565b5f73ffffffffffffffffffffffffffffffffffffffff168273ffffffffffffffffffffffffffffffffffffffff160361199257816040517f5b08ba1800000000000000000000000000000000000000000000000000000000815260040161198991906127e7565b60405180910390fd5b8060055f8573ffffffffffffffffffffffffffffffffffffffff1673ffffffffffffffffffffffffffffffffffffffff1681526020019081526020015f205f8473ffffffffffffffffffffffffffffffffffffffff1673ffffffffffffffffffffffffffffffffffffffff1681526020019081526020015f205f6101000a81548160ff0219169083151502179055508173ffffffffffffffffffffffffffffffffffffffff168373ffffffffffffffffffffffffffffffffffffffff167f17307eab39ab6107e8899845ad3d59bd9653f200f220920489ca2b5937696c3183604051611a7e9190612687565b60405180910390a3505050565b5f808273ffffffffffffffffffffffffffffffffffffffff16600c5f9054906101000a900473ffffffffffffffffffffffffffffffffffffffff1673ffffffffffffffffffffffffffffffffffffffff16636352211e866040518263ffffffff1660e01b8152600401611afe9190612927565b602060405180830381865afa158015611b19573d5f803e3d5ffd5b505050506040513d601f19601f82011682018060405250810190611b3d9190612db5565b73ffffffffffffffffffffffffffffffffffffffff161490505f805b60038160ff161015611ba35760088160ff1681548110611b7c57611b7b613014565b5b905f5260205f2001548603611b9057600191505b8080611b9b906130b5565b915050611b59565b5080158015611baf5750815b15611d9057600885908060018154018082558091505060019003905f5260205f20015f9091909190915055600660089054906101000a900473ffffffffffffffffffffffffffffffffffffffff1673ffffffffffffffffffffffffffffffffffffffff168473ffffffffffffffffffffffffffffffffffffffff161480611c82575060075f9054906101000a900473ffffffffffffffffffffffffffffffffffffffff1673ffffffffffffffffffffffffffffffffffffffff168473ffffffffffffffffffffffffffffffffffffffff16145b15611cc3576001600760178282829054906101000a900460ff16611ca691906130dd565b92506101000a81548160ff021916908360ff160217905550611d8f565b5f5b60038160ff161015611d8d57600a8160ff1681548110611ce857611ce7613014565b5b905f5260205f20015f9054906101000a900473ffffffffffffffffffffffffffffffffffffffff1673ffffffffffffffffffffffffffffffffffffffff168573ffffffffffffffffffffffffffffffffffffffff1603611d7a576001600760188282829054906101000a900460ff16611d6191906130dd565b92506101000a81548160ff021916908360ff1602179055505b8080611d85906130b5565b915050611cc5565b505b5b6002600760179054906101000a900460ff1660ff161480611de057506001600760179054906101000a900460ff1660ff16148015611ddf57505f600760189054906101000a900460ff1660ff16115b5b15611df057600192505050611df6565b5f925050505b92915050565b5f611e085f835f611624565b90505f73ffffffffffffffffffffffffffffffffffffffff168173ffffffffffffffffffffffffffffffffffffffff1603611e7a57816040517f7e273289000000000000000000000000000000000000000000000000000000008152600401611e719190612927565b60405180910390fd5b5050565b5f8373ffffffffffffffffffffffffffffffffffffffff163b111561202a578273ffffffffffffffffffffffffffffffffffffffff1663150b7a02611ec161160b565b8685856040518563ffffffff1660e01b8152600401611ee394939291906131c0565b6020604051808303815f875af1925050508015611f1e57506040513d601f19601f82011682018060405250810190611f1b919061321e565b60015b611f9f573d805f8114611f4c576040519150601f19603f3d011682016040523d82523d5f602084013e611f51565b606091505b505f815103611f9757836040517f64a0ae92000000000000000000000000000000000000000000000000000000008152600401611f8e91906127e7565b60405180910390fd5b805181602001fd5b63150b7a0260e01b7bffffffffffffffffffffffffffffffffffffffffffffffffffffffff1916817bffffffffffffffffffffffffffffffffffffffffffffffffffffffff19161461202857836040517f64a0ae9200000000000000000000000000000000000000000000000000000000815260040161201f91906127e7565b60405180910390fd5b505b50505050565b606060405180602001604052805f815250905090565b60605f6001612054846123cb565b0190505f8167ffffffffffffffff811115612072576120716129b0565b5b6040519080825280601f01601f1916602001820160405280156120a45781602001600182028036833780820191505090505b5090505f82602001820190505b600115612105578080600190039150507f3031323334353637383961626364656600000000000000000000000000000000600a86061a8153600a85816120fa576120f9613249565b5b0494505f85036120b1575b819350505050919050565b5f60025f8381526020019081526020015f205f9054906101000a900473ffffffffffffffffffffffffffffffffffffffff169050919050565b808061218157505f73ffffffffffffffffffffffffffffffffffffffff168273ffffffffffffffffffffffffffffffffffffffff1614155b156122b3575f6121908461154c565b90505f73ffffffffffffffffffffffffffffffffffffffff168373ffffffffffffffffffffffffffffffffffffffff16141580156121fa57508273ffffffffffffffffffffffffffffffffffffffff168173ffffffffffffffffffffffffffffffffffffffff1614155b801561220d575061220b8184611455565b155b1561224f57826040517fa9fbf51f00000000000000000000000000000000000000000000000000000000815260040161224691906127e7565b60405180910390fd5b81156122b157838573ffffffffffffffffffffffffffffffffffffffff168273ffffffffffffffffffffffffffffffffffffffff167f8c5be1e5ebec7d5bd14f71427d1e84f3dd0314c0f7b2291e5b200ac8c7c3b92560405160405180910390a45b505b8360045f8581526020019081526020015f205f6101000a81548173ffffffffffffffffffffffffffffffffffffffff021916908373ffffffffffffffffffffffffffffffffffffffff16021790555050505050565b61231383838361251c565b6123c6575f73ffffffffffffffffffffffffffffffffffffffff168373ffffffffffffffffffffffffffffffffffffffff160361238757806040517f7e27328900000000000000000000000000000000000000000000000000000000815260040161237e9190612927565b60405180910390fd5b81816040517f177e802f0000000000000000000000000000000000000000000000000000000081526004016123bd929190613276565b60405180910390fd5b505050565b5f805f90507a184f03e93ff9f4daa797ed6e38ed64bf6a1f0100000000000000008310612427577a184f03e93ff9f4daa797ed6e38ed64bf6a1f010000000000000000838161241d5761241c613249565b5b0492506040810190505b6d04ee2d6d415b85acef81000000008310612464576d04ee2d6d415b85acef8100000000838161245a57612459613249565b5b0492506020810190505b662386f26fc10000831061249357662386f26fc10000838161248957612488613249565b5b0492506010810190505b6305f5e10083106124bc576305f5e10083816124b2576124b1613249565b5b0492506008810190505b61271083106124e15761271083816124d7576124d6613249565b5b0492506004810190505b6064831061250457606483816124fa576124f9613249565b5b0492506002810190505b600a8310612513576001810190505b80915050919050565b5f8073ffffffffffffffffffffffffffffffffffffffff168373ffffffffffffffffffffffffffffffffffffffff16141580156125d357508273ffffffffffffffffffffffffffffffffffffffff168473ffffffffffffffffffffffffffffffffffffffff16148061259457506125938484611455565b5b806125d257508273ffffffffffffffffffffffffffffffffffffffff166125ba836115d2565b73ffffffffffffffffffffffffffffffffffffffff16145b5b90509392505050565b5f604051905090565b5f80fd5b5f80fd5b5f7fffffffff0000000000000000000000000000000000000000000000000000000082169050919050565b612621816125ed565b811461262b575f80fd5b50565b5f8135905061263c81612618565b92915050565b5f60208284031215612657576126566125e5565b5b5f6126648482850161262e565b91505092915050565b5f8115159050919050565b6126818161266d565b82525050565b5f60208201905061269a5f830184612678565b92915050565b5f81519050919050565b5f82825260208201905092915050565b5f5b838110156126d75780820151818401526020810190506126bc565b5f8484015250505050565b5f601f19601f8301169050919050565b5f6126fc826126a0565b61270681856126aa565b93506127168185602086016126ba565b61271f816126e2565b840191505092915050565b5f6020820190508181035f83015261274281846126f2565b905092915050565b5f819050919050565b61275c8161274a565b8114612766575f80fd5b50565b5f8135905061277781612753565b92915050565b5f60208284031215612792576127916125e5565b5b5f61279f84828501612769565b91505092915050565b5f73ffffffffffffffffffffffffffffffffffffffff82169050919050565b5f6127d1826127a8565b9050919050565b6127e1816127c7565b82525050565b5f6020820190506127fa5f8301846127d8565b92915050565b612809816127c7565b8114612813575f80fd5b50565b5f8135905061282481612800565b92915050565b5f80604083850312156128405761283f6125e5565b5b5f61284d85828601612816565b925050602061285e85828601612769565b9150509250929050565b5f805f6060848603121561287f5761287e6125e5565b5b5f61288c86828701612816565b935050602061289d86828701612816565b92505060406128ae86828701612769565b9150509250925092565b5f61ffff82169050919050565b6128ce816128b8565b82525050565b5f6020820190506128e75f8301846128c5565b92915050565b5f60208284031215612902576129016125e5565b5b5f61290f84828501612816565b91505092915050565b6129218161274a565b82525050565b5f60208201905061293a5f830184612918565b92915050565b6129498161266d565b8114612953575f80fd5b50565b5f8135905061296481612940565b92915050565b5f80604083850312156129805761297f6125e5565b5b5f61298d85828601612816565b925050602061299e85828601612956565b9150509250929050565b5f80fd5b5f80fd5b7f4e487b71000000000000000000000000000000000000000000000000000000005f52604160045260245ffd5b6129e6826126e2565b810181811067ffffffffffffffff82111715612a0557612a046129b0565b5b80604052505050565b5f612a176125dc565b9050612a2382826129dd565b919050565b5f67ffffffffffffffff821115612a4257612a416129b0565b5b612a4b826126e2565b9050602081019050919050565b828183375f83830152505050565b5f612a78612a7384612a28565b612a0e565b905082815260208101848484011115612a9457612a936129ac565b5b612a9f848285612a58565b509392505050565b5f82601f830112612abb57612aba6129a8565b5b8135612acb848260208601612a66565b91505092915050565b5f805f8060808587031215612aec57612aeb6125e5565b5b5f612af987828801612816565b9450506020612b0a87828801612816565b9350506040612b1b87828801612769565b925050606085013567ffffffffffffffff811115612b3c57612b3b6125e9565b5b612b4887828801612aa7565b91505092959194509250565b5f8060408385031215612b6a57612b696125e5565b5b5f612b7785828601612816565b9250506020612b8885828601612816565b9150509250929050565b7f4e487b71000000000000000000000000000000000000000000000000000000005f52602260045260245ffd5b5f6002820490506001821680612bd657607f821691505b602082108103612be957612be8612b92565b5b50919050565b5f606082019050612c025f8301866127d8565b612c0f6020830185612918565b612c1c60408301846127d8565b949350505050565b7f4f6e6c792073706f757365732063616e2063616c6c20746869732066756e63745f8201527f696f6e0000000000000000000000000000000000000000000000000000000000602082015250565b5f612c7e6023836126aa565b9150612c8982612c24565b604082019050919050565b5f6020820190508181035f830152612cab81612c72565b9050919050565b7f43616e6e6f742070726f647563652077656464696e67206365727469666963615f8201527f746520666f72206e6f6e2d6d6172726965642070656f706c6500000000000000602082015250565b5f612d0c6039836126aa565b9150612d1782612cb2565b604082019050919050565b5f6020820190508181035f830152612d3981612d00565b9050919050565b5f63ffffffff82169050919050565b5f819050919050565b5f612d72612d6d612d6884612d40565b612d4f565b61274a565b9050919050565b612d8281612d58565b82525050565b5f602082019050612d9b5f830184612d79565b92915050565b5f81519050612daf81612800565b92915050565b5f60208284031215612dca57612dc96125e5565b5b5f612dd784828501612da1565b91505092915050565b7f43616e6e6f742063726561746520616e6f746865722077656464696e672063655f8201527f727469666963617465207768656e206f6e652065786973747320666f7220746860208201527f6573652073706f75736573000000000000000000000000000000000000000000604082015250565b5f612e60604b836126aa565b9150612e6b82612de0565b606082019050919050565b5f6020820190508181035f830152612e8d81612e54565b9050919050565b7f4e487b71000000000000000000000000000000000000000000000000000000005f52601160045260245ffd5b5f612ecb82612d40565b9150612ed683612d40565b9250828201905063ffffffff811115612ef257612ef1612e94565b5b92915050565b7f4e6f6e2d6d6172726965642070656f706c652063616e6e6f74206469766f72635f8201527f6500000000000000000000000000000000000000000000000000000000000000602082015250565b5f612f526021836126aa565b9150612f5d82612ef8565b604082019050919050565b5f6020820190508181035f830152612f7f81612f46565b9050919050565b7f4e6f7420656e6f756768207061727469636970616e747320616772656520746f5f8201527f20746865206469766f7263650000000000000000000000000000000000000000602082015250565b5f612fe0602c836126aa565b9150612feb82612f86565b604082019050919050565b5f6020820190508181035f83015261300d81612fd4565b9050919050565b7f4e487b71000000000000000000000000000000000000000000000000000000005f52603260045260245ffd5b7f43616e6e6f742072652d617574686f72697a6520616e206164647265737300005f82015250565b5f613075601e836126aa565b915061308082613041565b602082019050919050565b5f6020820190508181035f8301526130a281613069565b9050919050565b5f60ff82169050919050565b5f6130bf826130a9565b915060ff82036130d2576130d1612e94565b5b600182019050919050565b5f6130e7826130a9565b91506130f2836130a9565b9250828201905060ff81111561310b5761310a612e94565b5b92915050565b5f81905092915050565b5f613125826126a0565b61312f8185613111565b935061313f8185602086016126ba565b80840191505092915050565b5f613156828561311b565b9150613162828461311b565b91508190509392505050565b5f81519050919050565b5f82825260208201905092915050565b5f6131928261316e565b61319c8185613178565b93506131ac8185602086016126ba565b6131b5816126e2565b840191505092915050565b5f6080820190506131d35f8301876127d8565b6131e060208301866127d8565b6131ed6040830185612918565b81810360608301526131ff8184613188565b905095945050505050565b5f8151905061321881612618565b92915050565b5f60208284031215613233576132326125e5565b5b5f6132408482850161320a565b91505092915050565b7f4e487b71000000000000000000000000000000000000000000000000000000005f52601260045260245ffd5b5f6040820190506132895f8301856127d8565b6132966020830184612918565b939250505056fea264697066735822122000280b28eb35d6c6fe9e3cc57e6abeb61341594130679b5578789b992d047e7f64736f6c63430008140033",
					"opcodes": "PUSH1 0x80 PUSH1 0x40 MSTORE ADDRESS PUSH1 0xC PUSH0 PUSH2 0x100 EXP DUP2 SLOAD DUP2 PUSH20 0xFFFFFFFFFFFFFFFFFFFFFFFFFFFFFFFFFFFFFFFF MUL NOT AND SWAP1 DUP4 PUSH20 0xFFFFFFFFFFFFFFFFFFFFFFFFFFFFFFFFFFFFFFFF AND MUL OR SWAP1 SSTORE POP CALLVALUE DUP1 ISZERO PUSH3 0x50 JUMPI PUSH0 DUP1 REVERT JUMPDEST POP PUSH1 0x40 MLOAD PUSH3 0x39BE CODESIZE SUB DUP1 PUSH3 0x39BE DUP4 CODECOPY DUP2 DUP2 ADD PUSH1 0x40 MSTORE DUP2 ADD SWAP1 PUSH3 0x76 SWAP2 SWAP1 PUSH3 0x33C JUMP JUMPDEST PUSH1 0x40 MLOAD DUP1 PUSH1 0x40 ADD PUSH1 0x40 MSTORE DUP1 PUSH1 0x7 DUP2 MSTORE PUSH1 0x20 ADD PUSH32 0x57656464696E6700000000000000000000000000000000000000000000000000 DUP2 MSTORE POP PUSH1 0x40 MLOAD DUP1 PUSH1 0x40 ADD PUSH1 0x40 MSTORE DUP1 PUSH1 0x3 DUP2 MSTORE PUSH1 0x20 ADD PUSH32 0x7765640000000000000000000000000000000000000000000000000000000000 DUP2 MSTORE POP DUP2 PUSH0 SWAP1 DUP2 PUSH3 0xF2 SWAP2 SWAP1 PUSH3 0x5F9 JUMP JUMPDEST POP DUP1 PUSH1 0x1 SWAP1 DUP2 PUSH3 0x104 SWAP2 SWAP1 PUSH3 0x5F9 JUMP JUMPDEST POP POP POP CALLER PUSH1 0x6 PUSH1 0x8 PUSH2 0x100 EXP DUP2 SLOAD DUP2 PUSH20 0xFFFFFFFFFFFFFFFFFFFFFFFFFFFFFFFFFFFFFFFF MUL NOT AND SWAP1 DUP4 PUSH20 0xFFFFFFFFFFFFFFFFFFFFFFFFFFFFFFFFFFFFFFFF AND MUL OR SWAP1 SSTORE POP DUP3 PUSH1 0x7 PUSH0 PUSH2 0x100 EXP DUP2 SLOAD DUP2 PUSH20 0xFFFFFFFFFFFFFFFFFFFFFFFFFFFFFFFFFFFFFFFF MUL NOT AND SWAP1 DUP4 PUSH20 0xFFFFFFFFFFFFFFFFFFFFFFFFFFFFFFFFFFFFFFFF AND MUL OR SWAP1 SSTORE POP DUP1 PUSH1 0x7 PUSH1 0x15 PUSH2 0x100 EXP DUP2 SLOAD DUP2 PUSH2 0xFFFF MUL NOT AND SWAP1 DUP4 PUSH2 0xFFFF AND MUL OR SWAP1 SSTORE POP DUP2 PUSH1 0x7 PUSH1 0x14 PUSH2 0x100 EXP DUP2 SLOAD DUP2 PUSH1 0xFF MUL NOT AND SWAP1 DUP4 ISZERO ISZERO MUL OR SWAP1 SSTORE POP PUSH0 PUSH1 0x7 PUSH1 0x17 PUSH2 0x100 EXP DUP2 SLOAD DUP2 PUSH1 0xFF MUL NOT AND SWAP1 DUP4 PUSH1 0xFF AND MUL OR SWAP1 SSTORE POP PUSH0 PUSH1 0x7 PUSH1 0x18 PUSH2 0x100 EXP DUP2 SLOAD DUP2 PUSH1 0xFF MUL NOT AND SWAP1 DUP4 PUSH1 0xFF AND MUL OR SWAP1 SSTORE POP PUSH0 PUSH1 0x9 PUSH0 PUSH2 0x100 EXP DUP2 SLOAD DUP2 PUSH4 0xFFFFFFFF MUL NOT AND SWAP1 DUP4 PUSH4 0xFFFFFFFF AND MUL OR SWAP1 SSTORE POP PUSH1 0x32 PUSH1 0x6 PUSH0 PUSH2 0x100 EXP DUP2 SLOAD DUP2 PUSH4 0xFFFFFFFF MUL NOT AND SWAP1 DUP4 PUSH4 0xFFFFFFFF AND MUL OR SWAP1 SSTORE POP PUSH1 0x33 PUSH1 0x6 PUSH1 0x4 PUSH2 0x100 EXP DUP2 SLOAD DUP2 PUSH4 0xFFFFFFFF MUL NOT AND SWAP1 DUP4 PUSH4 0xFFFFFFFF AND MUL OR SWAP1 SSTORE POP POP POP POP PUSH3 0x6DD JUMP JUMPDEST PUSH0 DUP1 REVERT JUMPDEST PUSH0 PUSH20 0xFFFFFFFFFFFFFFFFFFFFFFFFFFFFFFFFFFFFFFFF DUP3 AND SWAP1 POP SWAP2 SWAP1 POP JUMP JUMPDEST PUSH0 PUSH3 0x290 DUP3 PUSH3 0x265 JUMP JUMPDEST SWAP1 POP SWAP2 SWAP1 POP JUMP JUMPDEST PUSH3 0x2A2 DUP2 PUSH3 0x284 JUMP JUMPDEST DUP2 EQ PUSH3 0x2AD JUMPI PUSH0 DUP1 REVERT JUMPDEST POP JUMP JUMPDEST PUSH0 DUP2 MLOAD SWAP1 POP PUSH3 0x2C0 DUP2 PUSH3 0x297 JUMP JUMPDEST SWAP3 SWAP2 POP POP JUMP JUMPDEST PUSH0 DUP2 ISZERO ISZERO SWAP1 POP SWAP2 SWAP1 POP JUMP JUMPDEST PUSH3 0x2DC DUP2 PUSH3 0x2C6 JUMP JUMPDEST DUP2 EQ PUSH3 0x2E7 JUMPI PUSH0 DUP1 REVERT JUMPDEST POP JUMP JUMPDEST PUSH0 DUP2 MLOAD SWAP1 POP PUSH3 0x2FA DUP2 PUSH3 0x2D1 JUMP JUMPDEST SWAP3 SWAP2 POP POP JUMP JUMPDEST PUSH0 PUSH2 0xFFFF DUP3 AND SWAP1 POP SWAP2 SWAP1 POP JUMP JUMPDEST PUSH3 0x318 DUP2 PUSH3 0x300 JUMP JUMPDEST DUP2 EQ PUSH3 0x323 JUMPI PUSH0 DUP1 REVERT JUMPDEST POP JUMP JUMPDEST PUSH0 DUP2 MLOAD SWAP1 POP PUSH3 0x336 DUP2 PUSH3 0x30D JUMP JUMPDEST SWAP3 SWAP2 POP POP JUMP JUMPDEST PUSH0 DUP1 PUSH0 PUSH1 0x60 DUP5 DUP7 SUB SLT ISZERO PUSH3 0x356 JUMPI PUSH3 0x355 PUSH3 0x261 JUMP JUMPDEST JUMPDEST PUSH0 PUSH3 0x365 DUP7 DUP3 DUP8 ADD PUSH3 0x2B0 JUMP JUMPDEST SWAP4 POP POP PUSH1 0x20 PUSH3 0x378 DUP7 DUP3 DUP8 ADD PUSH3 0x2EA JUMP JUMPDEST SWAP3 POP POP PUSH1 0x40 PUSH3 0x38B DUP7 DUP3 DUP8 ADD PUSH3 0x326 JUMP JUMPDEST SWAP2 POP POP SWAP3 POP SWAP3 POP SWAP3 JUMP JUMPDEST PUSH0 DUP2 MLOAD SWAP1 POP SWAP2 SWAP1 POP JUMP JUMPDEST PUSH32 0x4E487B7100000000000000000000000000000000000000000000000000000000 PUSH0 MSTORE PUSH1 0x41 PUSH1 0x4 MSTORE PUSH1 0x24 PUSH0 REVERT JUMPDEST PUSH32 0x4E487B7100000000000000000000000000000000000000000000000000000000 PUSH0 MSTORE PUSH1 0x22 PUSH1 0x4 MSTORE PUSH1 0x24 PUSH0 REVERT JUMPDEST PUSH0 PUSH1 0x2 DUP3 DIV SWAP1 POP PUSH1 0x1 DUP3 AND DUP1 PUSH3 0x411 JUMPI PUSH1 0x7F DUP3 AND SWAP2 POP JUMPDEST PUSH1 0x20 DUP3 LT DUP2 SUB PUSH3 0x427 JUMPI PUSH3 0x426 PUSH3 0x3CC JUMP JUMPDEST JUMPDEST POP SWAP2 SWAP1 POP JUMP JUMPDEST PUSH0 DUP2 SWAP1 POP DUP2 PUSH0 MSTORE PUSH1 0x20 PUSH0 KECCAK256 SWAP1 POP SWAP2 SWAP1 POP JUMP JUMPDEST PUSH0 PUSH1 0x20 PUSH1 0x1F DUP4 ADD DIV SWAP1 POP SWAP2 SWAP1 POP JUMP JUMPDEST PUSH0 DUP3 DUP3 SHL SWAP1 POP SWAP3 SWAP2 POP POP JUMP JUMPDEST PUSH0 PUSH1 0x8 DUP4 MUL PUSH3 0x48B PUSH32 0xFFFFFFFFFFFFFFFFFFFFFFFFFFFFFFFFFFFFFFFFFFFFFFFFFFFFFFFFFFFFFFFF DUP3 PUSH3 0x44E JUMP JUMPDEST PUSH3 0x497 DUP7 DUP4 PUSH3 0x44E JUMP JUMPDEST SWAP6 POP DUP1 NOT DUP5 AND SWAP4 POP DUP1 DUP7 AND DUP5 OR SWAP3 POP POP POP SWAP4 SWAP3 POP POP POP JUMP JUMPDEST PUSH0 DUP2 SWAP1 POP SWAP2 SWAP1 POP JUMP JUMPDEST PUSH0 DUP2 SWAP1 POP SWAP2 SWAP1 POP JUMP JUMPDEST PUSH0 PUSH3 0x4E1 PUSH3 0x4DB PUSH3 0x4D5 DUP5 PUSH3 0x4AF JUMP JUMPDEST PUSH3 0x4B8 JUMP JUMPDEST PUSH3 0x4AF JUMP JUMPDEST SWAP1 POP SWAP2 SWAP1 POP JUMP JUMPDEST PUSH0 DUP2 SWAP1 POP SWAP2 SWAP1 POP JUMP JUMPDEST PUSH3 0x4FC DUP4 PUSH3 0x4C1 JUMP JUMPDEST PUSH3 0x514 PUSH3 0x50B DUP3 PUSH3 0x4E8 JUMP JUMPDEST DUP5 DUP5 SLOAD PUSH3 0x45A JUMP JUMPDEST DUP3 SSTORE POP POP POP POP JUMP JUMPDEST PUSH0 SWAP1 JUMP JUMPDEST PUSH3 0x52A PUSH3 0x51C JUMP JUMPDEST PUSH3 0x537 DUP2 DUP5 DUP5 PUSH3 0x4F1 JUMP JUMPDEST POP POP POP JUMP JUMPDEST JUMPDEST DUP2 DUP2 LT ISZERO PUSH3 0x55E JUMPI PUSH3 0x552 PUSH0 DUP3 PUSH3 0x520 JUMP JUMPDEST PUSH1 0x1 DUP2 ADD SWAP1 POP PUSH3 0x53D JUMP JUMPDEST POP POP JUMP JUMPDEST PUSH1 0x1F DUP3 GT ISZERO PUSH3 0x5AD JUMPI PUSH3 0x577 DUP2 PUSH3 0x42D JUMP JUMPDEST PUSH3 0x582 DUP5 PUSH3 0x43F JUMP JUMPDEST DUP2 ADD PUSH1 0x20 DUP6 LT ISZERO PUSH3 0x592 JUMPI DUP2 SWAP1 POP JUMPDEST PUSH3 0x5AA PUSH3 0x5A1 DUP6 PUSH3 0x43F JUMP JUMPDEST DUP4 ADD DUP3 PUSH3 0x53C JUMP JUMPDEST POP POP JUMPDEST POP POP POP JUMP JUMPDEST PUSH0 DUP3 DUP3 SHR SWAP1 POP SWAP3 SWAP2 POP POP JUMP JUMPDEST PUSH0 PUSH3 0x5CF PUSH0 NOT DUP5 PUSH1 0x8 MUL PUSH3 0x5B2 JUMP JUMPDEST NOT DUP1 DUP4 AND SWAP2 POP POP SWAP3 SWAP2 POP POP JUMP JUMPDEST PUSH0 PUSH3 0x5E9 DUP4 DUP4 PUSH3 0x5BE JUMP JUMPDEST SWAP2 POP DUP3 PUSH1 0x2 MUL DUP3 OR SWAP1 POP SWAP3 SWAP2 POP POP JUMP JUMPDEST PUSH3 0x604 DUP3 PUSH3 0x395 JUMP JUMPDEST PUSH8 0xFFFFFFFFFFFFFFFF DUP2 GT ISZERO PUSH3 0x620 JUMPI PUSH3 0x61F PUSH3 0x39F JUMP JUMPDEST JUMPDEST PUSH3 0x62C DUP3 SLOAD PUSH3 0x3F9 JUMP JUMPDEST PUSH3 0x639 DUP3 DUP3 DUP6 PUSH3 0x562 JUMP JUMPDEST PUSH0 PUSH1 0x20 SWAP1 POP PUSH1 0x1F DUP4 GT PUSH1 0x1 DUP2 EQ PUSH3 0x66F JUMPI PUSH0 DUP5 ISZERO PUSH3 0x65A JUMPI DUP3 DUP8 ADD MLOAD SWAP1 POP JUMPDEST PUSH3 0x666 DUP6 DUP3 PUSH3 0x5DC JUMP JUMPDEST DUP7 SSTORE POP PUSH3 0x6D5 JUMP JUMPDEST PUSH1 0x1F NOT DUP5 AND PUSH3 0x67F DUP7 PUSH3 0x42D JUMP JUMPDEST PUSH0 JUMPDEST DUP3 DUP2 LT ISZERO PUSH3 0x6A8 JUMPI DUP5 DUP10 ADD MLOAD DUP3 SSTORE PUSH1 0x1 DUP3 ADD SWAP2 POP PUSH1 0x20 DUP6 ADD SWAP5 POP PUSH1 0x20 DUP2 ADD SWAP1 POP PUSH3 0x681 JUMP JUMPDEST DUP7 DUP4 LT ISZERO PUSH3 0x6C8 JUMPI DUP5 DUP10 ADD MLOAD PUSH3 0x6C4 PUSH1 0x1F DUP10 AND DUP3 PUSH3 0x5BE JUMP JUMPDEST DUP4 SSTORE POP JUMPDEST PUSH1 0x1 PUSH1 0x2 DUP9 MUL ADD DUP9 SSTORE POP POP POP JUMPDEST POP POP POP POP POP POP JUMP JUMPDEST PUSH2 0x32D3 DUP1 PUSH3 0x6EB PUSH0 CODECOPY PUSH0 RETURN INVALID PUSH1 0x80 PUSH1 0x40 MSTORE CALLVALUE DUP1 ISZERO PUSH2 0xF JUMPI PUSH0 DUP1 REVERT JUMPDEST POP PUSH1 0x4 CALLDATASIZE LT PUSH2 0x114 JUMPI PUSH0 CALLDATALOAD PUSH1 0xE0 SHR DUP1 PUSH4 0x70A08231 GT PUSH2 0xA0 JUMPI DUP1 PUSH4 0xB49A5BB2 GT PUSH2 0x6F JUMPI DUP1 PUSH4 0xB49A5BB2 EQ PUSH2 0x2CA JUMPI DUP1 PUSH4 0xB88D4FDE EQ PUSH2 0x2E6 JUMPI DUP1 PUSH4 0xBD6690F4 EQ PUSH2 0x302 JUMPI DUP1 PUSH4 0xC87B56DD EQ PUSH2 0x31E JUMPI DUP1 PUSH4 0xE985E9C5 EQ PUSH2 0x34E JUMPI PUSH2 0x114 JUMP JUMPDEST DUP1 PUSH4 0x70A08231 EQ PUSH2 0x242 JUMPI DUP1 PUSH4 0x95D89B41 EQ PUSH2 0x272 JUMPI DUP1 PUSH4 0xA22CB465 EQ PUSH2 0x290 JUMPI DUP1 PUSH4 0xA702314D EQ PUSH2 0x2AC JUMPI PUSH2 0x114 JUMP JUMPDEST DUP1 PUSH4 0x23B872DD GT PUSH2 0xE7 JUMPI DUP1 PUSH4 0x23B872DD EQ PUSH2 0x1B2 JUMPI DUP1 PUSH4 0x2FC5A6DF EQ PUSH2 0x1CE JUMPI DUP1 PUSH4 0x31B3E321 EQ PUSH2 0x1EC JUMPI DUP1 PUSH4 0x42842E0E EQ PUSH2 0x1F6 JUMPI DUP1 PUSH4 0x6352211E EQ PUSH2 0x212 JUMPI PUSH2 0x114 JUMP JUMPDEST DUP1 PUSH4 0x1FFC9A7 EQ PUSH2 0x118 JUMPI DUP1 PUSH4 0x6FDDE03 EQ PUSH2 0x148 JUMPI DUP1 PUSH4 0x81812FC EQ PUSH2 0x166 JUMPI DUP1 PUSH4 0x95EA7B3 EQ PUSH2 0x196 JUMPI JUMPDEST PUSH0 DUP1 REVERT JUMPDEST PUSH2 0x132 PUSH1 0x4 DUP1 CALLDATASIZE SUB DUP2 ADD SWAP1 PUSH2 0x12D SWAP2 SWAP1 PUSH2 0x2642 JUMP JUMPDEST PUSH2 0x37E JUMP JUMPDEST PUSH1 0x40 MLOAD PUSH2 0x13F SWAP2 SWAP1 PUSH2 0x2687 JUMP JUMPDEST PUSH1 0x40 MLOAD DUP1 SWAP2 SUB SWAP1 RETURN JUMPDEST PUSH2 0x150 PUSH2 0x45F JUMP JUMPDEST PUSH1 0x40 MLOAD PUSH2 0x15D SWAP2 SWAP1 PUSH2 0x272A JUMP JUMPDEST PUSH1 0x40 MLOAD DUP1 SWAP2 SUB SWAP1 RETURN JUMPDEST PUSH2 0x180 PUSH1 0x4 DUP1 CALLDATASIZE SUB DUP2 ADD SWAP1 PUSH2 0x17B SWAP2 SWAP1 PUSH2 0x277D JUMP JUMPDEST PUSH2 0x4EE JUMP JUMPDEST PUSH1 0x40 MLOAD PUSH2 0x18D SWAP2 SWAP1 PUSH2 0x27E7 JUMP JUMPDEST PUSH1 0x40 MLOAD DUP1 SWAP2 SUB SWAP1 RETURN JUMPDEST PUSH2 0x1B0 PUSH1 0x4 DUP1 CALLDATASIZE SUB DUP2 ADD SWAP1 PUSH2 0x1AB SWAP2 SWAP1 PUSH2 0x282A JUMP JUMPDEST PUSH2 0x509 JUMP JUMPDEST STOP JUMPDEST PUSH2 0x1CC PUSH1 0x4 DUP1 CALLDATASIZE SUB DUP2 ADD SWAP1 PUSH2 0x1C7 SWAP2 SWAP1 PUSH2 0x2868 JUMP JUMPDEST PUSH2 0x51F JUMP JUMPDEST STOP JUMPDEST PUSH2 0x1D6 PUSH2 0x61E JUMP JUMPDEST PUSH1 0x40 MLOAD PUSH2 0x1E3 SWAP2 SWAP1 PUSH2 0x28D4 JUMP JUMPDEST PUSH1 0x40 MLOAD DUP1 SWAP2 SUB SWAP1 RETURN JUMPDEST PUSH2 0x1F4 PUSH2 0x632 JUMP JUMPDEST STOP JUMPDEST PUSH2 0x210 PUSH1 0x4 DUP1 CALLDATASIZE SUB DUP2 ADD SWAP1 PUSH2 0x20B SWAP2 SWAP1 PUSH2 0x2868 JUMP JUMPDEST PUSH2 0xAA9 JUMP JUMPDEST STOP JUMPDEST PUSH2 0x22C PUSH1 0x4 DUP1 CALLDATASIZE SUB DUP2 ADD SWAP1 PUSH2 0x227 SWAP2 SWAP1 PUSH2 0x277D JUMP JUMPDEST PUSH2 0xAC8 JUMP JUMPDEST PUSH1 0x40 MLOAD PUSH2 0x239 SWAP2 SWAP1 PUSH2 0x27E7 JUMP JUMPDEST PUSH1 0x40 MLOAD DUP1 SWAP2 SUB SWAP1 RETURN JUMPDEST PUSH2 0x25C PUSH1 0x4 DUP1 CALLDATASIZE SUB DUP2 ADD SWAP1 PUSH2 0x257 SWAP2 SWAP1 PUSH2 0x28ED JUMP JUMPDEST PUSH2 0xAD9 JUMP JUMPDEST PUSH1 0x40 MLOAD PUSH2 0x269 SWAP2 SWAP1 PUSH2 0x2927 JUMP JUMPDEST PUSH1 0x40 MLOAD DUP1 SWAP2 SUB SWAP1 RETURN JUMPDEST PUSH2 0x27A PUSH2 0xB8F JUMP JUMPDEST PUSH1 0x40 MLOAD PUSH2 0x287 SWAP2 SWAP1 PUSH2 0x272A JUMP JUMPDEST PUSH1 0x40 MLOAD DUP1 SWAP2 SUB SWAP1 RETURN JUMPDEST PUSH2 0x2AA PUSH1 0x4 DUP1 CALLDATASIZE SUB DUP2 ADD SWAP1 PUSH2 0x2A5 SWAP2 SWAP1 PUSH2 0x296A JUMP JUMPDEST PUSH2 0xC1F JUMP JUMPDEST STOP JUMPDEST PUSH2 0x2B4 PUSH2 0xC35 JUMP JUMPDEST PUSH1 0x40 MLOAD PUSH2 0x2C1 SWAP2 SWAP1 PUSH2 0x2687 JUMP JUMPDEST PUSH1 0x40 MLOAD DUP1 SWAP2 SUB SWAP1 RETURN JUMPDEST PUSH2 0x2E4 PUSH1 0x4 DUP1 CALLDATASIZE SUB DUP2 ADD SWAP1 PUSH2 0x2DF SWAP2 SWAP1 PUSH2 0x277D JUMP JUMPDEST PUSH2 0xC48 JUMP JUMPDEST STOP JUMPDEST PUSH2 0x300 PUSH1 0x4 DUP1 CALLDATASIZE SUB DUP2 ADD SWAP1 PUSH2 0x2FB SWAP2 SWAP1 PUSH2 0x2AD4 JUMP JUMPDEST PUSH2 0xEC7 JUMP JUMPDEST STOP JUMPDEST PUSH2 0x31C PUSH1 0x4 DUP1 CALLDATASIZE SUB DUP2 ADD SWAP1 PUSH2 0x317 SWAP2 SWAP1 PUSH2 0x28ED JUMP JUMPDEST PUSH2 0xEE4 JUMP JUMPDEST STOP JUMPDEST PUSH2 0x338 PUSH1 0x4 DUP1 CALLDATASIZE SUB DUP2 ADD SWAP1 PUSH2 0x333 SWAP2 SWAP1 PUSH2 0x277D JUMP JUMPDEST PUSH2 0x13EF JUMP JUMPDEST PUSH1 0x40 MLOAD PUSH2 0x345 SWAP2 SWAP1 PUSH2 0x272A JUMP JUMPDEST PUSH1 0x40 MLOAD DUP1 SWAP2 SUB SWAP1 RETURN JUMPDEST PUSH2 0x368 PUSH1 0x4 DUP1 CALLDATASIZE SUB DUP2 ADD SWAP1 PUSH2 0x363 SWAP2 SWAP1 PUSH2 0x2B54 JUMP JUMPDEST PUSH2 0x1455 JUMP JUMPDEST PUSH1 0x40 MLOAD PUSH2 0x375 SWAP2 SWAP1 PUSH2 0x2687 JUMP JUMPDEST PUSH1 0x40 MLOAD DUP1 SWAP2 SUB SWAP1 RETURN JUMPDEST PUSH0 PUSH32 0x80AC58CD00000000000000000000000000000000000000000000000000000000 PUSH28 0xFFFFFFFFFFFFFFFFFFFFFFFFFFFFFFFFFFFFFFFFFFFFFFFFFFFFFFFF NOT AND DUP3 PUSH28 0xFFFFFFFFFFFFFFFFFFFFFFFFFFFFFFFFFFFFFFFFFFFFFFFFFFFFFFFF NOT AND EQ DUP1 PUSH2 0x448 JUMPI POP PUSH32 0x5B5E139F00000000000000000000000000000000000000000000000000000000 PUSH28 0xFFFFFFFFFFFFFFFFFFFFFFFFFFFFFFFFFFFFFFFFFFFFFFFFFFFFFFFF NOT AND DUP3 PUSH28 0xFFFFFFFFFFFFFFFFFFFFFFFFFFFFFFFFFFFFFFFFFFFFFFFFFFFFFFFF NOT AND EQ JUMPDEST DUP1 PUSH2 0x458 JUMPI POP PUSH2 0x457 DUP3 PUSH2 0x14E3 JUMP JUMPDEST JUMPDEST SWAP1 POP SWAP2 SWAP1 POP JUMP JUMPDEST PUSH1 0x60 PUSH0 DUP1 SLOAD PUSH2 0x46D SWAP1 PUSH2 0x2BBF JUMP JUMPDEST DUP1 PUSH1 0x1F ADD PUSH1 0x20 DUP1 SWAP2 DIV MUL PUSH1 0x20 ADD PUSH1 0x40 MLOAD SWAP1 DUP2 ADD PUSH1 0x40 MSTORE DUP1 SWAP3 SWAP2 SWAP1 DUP2 DUP2 MSTORE PUSH1 0x20 ADD DUP3 DUP1 SLOAD PUSH2 0x499 SWAP1 PUSH2 0x2BBF JUMP JUMPDEST DUP1 ISZERO PUSH2 0x4E4 JUMPI DUP1 PUSH1 0x1F LT PUSH2 0x4BB JUMPI PUSH2 0x100 DUP1 DUP4 SLOAD DIV MUL DUP4 MSTORE SWAP2 PUSH1 0x20 ADD SWAP2 PUSH2 0x4E4 JUMP JUMPDEST DUP3 ADD SWAP2 SWAP1 PUSH0 MSTORE PUSH1 0x20 PUSH0 KECCAK256 SWAP1 JUMPDEST DUP2 SLOAD DUP2 MSTORE SWAP1 PUSH1 0x1 ADD SWAP1 PUSH1 0x20 ADD DUP1 DUP4 GT PUSH2 0x4C7 JUMPI DUP3 SWAP1 SUB PUSH1 0x1F AND DUP3 ADD SWAP2 JUMPDEST POP POP POP POP POP SWAP1 POP SWAP1 JUMP JUMPDEST PUSH0 PUSH2 0x4F8 DUP3 PUSH2 0x154C JUMP JUMPDEST POP PUSH2 0x502 DUP3 PUSH2 0x15D2 JUMP JUMPDEST SWAP1 POP SWAP2 SWAP1 POP JUMP JUMPDEST PUSH2 0x51B DUP3 DUP3 PUSH2 0x516 PUSH2 0x160B JUMP JUMPDEST PUSH2 0x1612 JUMP JUMPDEST POP POP JUMP JUMPDEST PUSH0 PUSH20 0xFFFFFFFFFFFFFFFFFFFFFFFFFFFFFFFFFFFFFFFF AND DUP3 PUSH20 0xFFFFFFFFFFFFFFFFFFFFFFFFFFFFFFFFFFFFFFFF AND SUB PUSH2 0x58F JUMPI PUSH0 PUSH1 0x40 MLOAD PUSH32 0x64A0AE9200000000000000000000000000000000000000000000000000000000 DUP2 MSTORE PUSH1 0x4 ADD PUSH2 0x586 SWAP2 SWAP1 PUSH2 0x27E7 JUMP JUMPDEST PUSH1 0x40 MLOAD DUP1 SWAP2 SUB SWAP1 REVERT JUMPDEST PUSH0 PUSH2 0x5A2 DUP4 DUP4 PUSH2 0x59D PUSH2 0x160B JUMP JUMPDEST PUSH2 0x1624 JUMP JUMPDEST SWAP1 POP DUP4 PUSH20 0xFFFFFFFFFFFFFFFFFFFFFFFFFFFFFFFFFFFFFFFF AND DUP2 PUSH20 0xFFFFFFFFFFFFFFFFFFFFFFFFFFFFFFFFFFFFFFFF AND EQ PUSH2 0x618 JUMPI DUP4 DUP3 DUP3 PUSH1 0x40 MLOAD PUSH32 0x64283D7B00000000000000000000000000000000000000000000000000000000 DUP2 MSTORE PUSH1 0x4 ADD PUSH2 0x60F SWAP4 SWAP3 SWAP2 SWAP1 PUSH2 0x2BEF JUMP JUMPDEST PUSH1 0x40 MLOAD DUP1 SWAP2 SUB SWAP1 REVERT JUMPDEST POP POP POP POP JUMP JUMPDEST PUSH1 0x7 PUSH1 0x15 SWAP1 SLOAD SWAP1 PUSH2 0x100 EXP SWAP1 DIV PUSH2 0xFFFF AND DUP2 JUMP JUMPDEST PUSH1 0x6 PUSH1 0x8 SWAP1 SLOAD SWAP1 PUSH2 0x100 EXP SWAP1 DIV PUSH20 0xFFFFFFFFFFFFFFFFFFFFFFFFFFFFFFFFFFFFFFFF AND PUSH20 0xFFFFFFFFFFFFFFFFFFFFFFFFFFFFFFFFFFFFFFFF AND CALLER PUSH20 0xFFFFFFFFFFFFFFFFFFFFFFFFFFFFFFFFFFFFFFFF AND EQ DUP1 PUSH2 0x6DA JUMPI POP PUSH1 0x7 PUSH0 SWAP1 SLOAD SWAP1 PUSH2 0x100 EXP SWAP1 DIV PUSH20 0xFFFFFFFFFFFFFFFFFFFFFFFFFFFFFFFFFFFFFFFF AND PUSH20 0xFFFFFFFFFFFFFFFFFFFFFFFFFFFFFFFFFFFFFFFF AND CALLER PUSH20 0xFFFFFFFFFFFFFFFFFFFFFFFFFFFFFFFFFFFFFFFF AND EQ JUMPDEST PUSH2 0x719 JUMPI PUSH1 0x40 MLOAD PUSH32 0x8C379A000000000000000000000000000000000000000000000000000000000 DUP2 MSTORE PUSH1 0x4 ADD PUSH2 0x710 SWAP1 PUSH2 0x2C94 JUMP JUMPDEST PUSH1 0x40 MLOAD DUP1 SWAP2 SUB SWAP1 REVERT JUMPDEST PUSH1 0x7 PUSH1 0x14 SWAP1 SLOAD SWAP1 PUSH2 0x100 EXP SWAP1 DIV PUSH1 0xFF AND PUSH2 0x768 JUMPI PUSH1 0x40 MLOAD PUSH32 0x8C379A000000000000000000000000000000000000000000000000000000000 DUP2 MSTORE PUSH1 0x4 ADD PUSH2 0x75F SWAP1 PUSH2 0x2D22 JUMP JUMPDEST PUSH1 0x40 MLOAD DUP1 SWAP2 SUB SWAP1 REVERT JUMPDEST PUSH1 0x6 PUSH1 0x8 SWAP1 SLOAD SWAP1 PUSH2 0x100 EXP SWAP1 DIV PUSH20 0xFFFFFFFFFFFFFFFFFFFFFFFFFFFFFFFFFFFFFFFF AND PUSH20 0xFFFFFFFFFFFFFFFFFFFFFFFFFFFFFFFFFFFFFFFF AND PUSH1 0xC PUSH0 SWAP1 SLOAD SWAP1 PUSH2 0x100 EXP SWAP1 DIV PUSH20 0xFFFFFFFFFFFFFFFFFFFFFFFFFFFFFFFFFFFFFFFF AND PUSH20 0xFFFFFFFFFFFFFFFFFFFFFFFFFFFFFFFFFFFFFFFF AND PUSH4 0x6352211E PUSH1 0x6 PUSH0 SWAP1 SLOAD SWAP1 PUSH2 0x100 EXP SWAP1 DIV PUSH4 0xFFFFFFFF AND PUSH1 0x40 MLOAD DUP3 PUSH4 0xFFFFFFFF AND PUSH1 0xE0 SHL DUP2 MSTORE PUSH1 0x4 ADD PUSH2 0x80C SWAP2 SWAP1 PUSH2 0x2D88 JUMP JUMPDEST PUSH1 0x20 PUSH1 0x40 MLOAD DUP1 DUP4 SUB DUP2 DUP7 GAS STATICCALL ISZERO DUP1 ISZERO PUSH2 0x827 JUMPI RETURNDATASIZE PUSH0 DUP1 RETURNDATACOPY RETURNDATASIZE PUSH0 REVERT JUMPDEST POP POP POP POP PUSH1 0x40 MLOAD RETURNDATASIZE PUSH1 0x1F NOT PUSH1 0x1F DUP3 ADD AND DUP3 ADD DUP1 PUSH1 0x40 MSTORE POP DUP2 ADD SWAP1 PUSH2 0x84B SWAP2 SWAP1 PUSH2 0x2DB5 JUMP JUMPDEST PUSH20 0xFFFFFFFFFFFFFFFFFFFFFFFFFFFFFFFFFFFFFFFF AND EQ DUP1 PUSH2 0x963 JUMPI POP PUSH1 0x7 PUSH0 SWAP1 SLOAD SWAP1 PUSH2 0x100 EXP SWAP1 DIV PUSH20 0xFFFFFFFFFFFFFFFFFFFFFFFFFFFFFFFFFFFFFFFF AND PUSH20 0xFFFFFFFFFFFFFFFFFFFFFFFFFFFFFFFFFFFFFFFF AND PUSH1 0xC PUSH0 SWAP1 SLOAD SWAP1 PUSH2 0x100 EXP SWAP1 DIV PUSH20 0xFFFFFFFFFFFFFFFFFFFFFFFFFFFFFFFFFFFFFFFF AND PUSH20 0xFFFFFFFFFFFFFFFFFFFFFFFFFFFFFFFFFFFFFFFF AND PUSH4 0x6352211E PUSH1 0x6 PUSH1 0x4 SWAP1 SLOAD SWAP1 PUSH2 0x100 EXP SWAP1 DIV PUSH4 0xFFFFFFFF AND PUSH1 0x40 MLOAD DUP3 PUSH4 0xFFFFFFFF AND PUSH1 0xE0 SHL DUP2 MSTORE PUSH1 0x4 ADD PUSH2 0x90C SWAP2 SWAP1 PUSH2 0x2D88 JUMP JUMPDEST PUSH1 0x20 PUSH1 0x40 MLOAD DUP1 DUP4 SUB DUP2 DUP7 GAS STATICCALL ISZERO DUP1 ISZERO PUSH2 0x927 JUMPI RETURNDATASIZE PUSH0 DUP1 RETURNDATACOPY RETURNDATASIZE PUSH0 REVERT JUMPDEST POP POP POP POP PUSH1 0x40 MLOAD RETURNDATASIZE PUSH1 0x1F NOT PUSH1 0x1F DUP3 ADD AND DUP3 ADD DUP1 PUSH1 0x40 MSTORE POP DUP2 ADD SWAP1 PUSH2 0x94B SWAP2 SWAP1 PUSH2 0x2DB5 JUMP JUMPDEST PUSH20 0xFFFFFFFFFFFFFFFFFFFFFFFFFFFFFFFFFFFFFFFF AND EQ JUMPDEST PUSH2 0x9A2 JUMPI PUSH1 0x40 MLOAD PUSH32 0x8C379A000000000000000000000000000000000000000000000000000000000 DUP2 MSTORE PUSH1 0x4 ADD PUSH2 0x999 SWAP1 PUSH2 0x2E76 JUMP JUMPDEST PUSH1 0x40 MLOAD DUP1 SWAP2 SUB SWAP1 REVERT JUMPDEST PUSH1 0x1 PUSH1 0x6 PUSH0 DUP3 DUP3 DUP3 SWAP1 SLOAD SWAP1 PUSH2 0x100 EXP SWAP1 DIV PUSH4 0xFFFFFFFF AND PUSH2 0x9C3 SWAP2 SWAP1 PUSH2 0x2EC1 JUMP JUMPDEST SWAP3 POP PUSH2 0x100 EXP DUP2 SLOAD DUP2 PUSH4 0xFFFFFFFF MUL NOT AND SWAP1 DUP4 PUSH4 0xFFFFFFFF AND MUL OR SWAP1 SSTORE POP PUSH1 0x1 PUSH1 0x6 PUSH1 0x4 DUP3 DUP3 DUP3 SWAP1 SLOAD SWAP1 PUSH2 0x100 EXP SWAP1 DIV PUSH4 0xFFFFFFFF AND PUSH2 0xA03 SWAP2 SWAP1 PUSH2 0x2EC1 JUMP JUMPDEST SWAP3 POP PUSH2 0x100 EXP DUP2 SLOAD DUP2 PUSH4 0xFFFFFFFF MUL NOT AND SWAP1 DUP4 PUSH4 0xFFFFFFFF AND MUL OR SWAP1 SSTORE POP PUSH2 0xA64 PUSH1 0x6 PUSH1 0x8 SWAP1 SLOAD SWAP1 PUSH2 0x100 EXP SWAP1 DIV PUSH20 0xFFFFFFFFFFFFFFFFFFFFFFFFFFFFFFFFFFFFFFFF AND PUSH1 0x6 PUSH0 SWAP1 SLOAD SWAP1 PUSH2 0x100 EXP SWAP1 DIV PUSH4 0xFFFFFFFF AND PUSH4 0xFFFFFFFF AND PUSH2 0x182F JUMP JUMPDEST PUSH2 0xAA7 PUSH1 0x7 PUSH0 SWAP1 SLOAD SWAP1 PUSH2 0x100 EXP SWAP1 DIV PUSH20 0xFFFFFFFFFFFFFFFFFFFFFFFFFFFFFFFFFFFFFFFF AND PUSH1 0x6 PUSH1 0x4 SWAP1 SLOAD SWAP1 PUSH2 0x100 EXP SWAP1 DIV PUSH4 0xFFFFFFFF AND PUSH4 0xFFFFFFFF AND PUSH2 0x182F JUMP JUMPDEST JUMP JUMPDEST PUSH2 0xAC3 DUP4 DUP4 DUP4 PUSH1 0x40 MLOAD DUP1 PUSH1 0x20 ADD PUSH1 0x40 MSTORE DUP1 PUSH0 DUP2 MSTORE POP PUSH2 0xEC7 JUMP JUMPDEST POP POP POP JUMP JUMPDEST PUSH0 PUSH2 0xAD2 DUP3 PUSH2 0x154C JUMP JUMPDEST SWAP1 POP SWAP2 SWAP1 POP JUMP JUMPDEST PUSH0 DUP1 PUSH20 0xFFFFFFFFFFFFFFFFFFFFFFFFFFFFFFFFFFFFFFFF AND DUP3 PUSH20 0xFFFFFFFFFFFFFFFFFFFFFFFFFFFFFFFFFFFFFFFF AND SUB PUSH2 0xB4A JUMPI PUSH0 PUSH1 0x40 MLOAD PUSH32 0x89C62B6400000000000000000000000000000000000000000000000000000000 DUP2 MSTORE PUSH1 0x4 ADD PUSH2 0xB41 SWAP2 SWAP1 PUSH2 0x27E7 JUMP JUMPDEST PUSH1 0x40 MLOAD DUP1 SWAP2 SUB SWAP1 REVERT JUMPDEST PUSH1 0x3 PUSH0 DUP4 PUSH20 0xFFFFFFFFFFFFFFFFFFFFFFFFFFFFFFFFFFFFFFFF AND PUSH20 0xFFFFFFFFFFFFFFFFFFFFFFFFFFFFFFFFFFFFFFFF AND DUP2 MSTORE PUSH1 0x20 ADD SWAP1 DUP2 MSTORE PUSH1 0x20 ADD PUSH0 KECCAK256 SLOAD SWAP1 POP SWAP2 SWAP1 POP JUMP JUMPDEST PUSH1 0x60 PUSH1 0x1 DUP1 SLOAD PUSH2 0xB9E SWAP1 PUSH2 0x2BBF JUMP JUMPDEST DUP1 PUSH1 0x1F ADD PUSH1 0x20 DUP1 SWAP2 DIV MUL PUSH1 0x20 ADD PUSH1 0x40 MLOAD SWAP1 DUP2 ADD PUSH1 0x40 MSTORE DUP1 SWAP3 SWAP2 SWAP1 DUP2 DUP2 MSTORE PUSH1 0x20 ADD DUP3 DUP1 SLOAD PUSH2 0xBCA SWAP1 PUSH2 0x2BBF JUMP JUMPDEST DUP1 ISZERO PUSH2 0xC15 JUMPI DUP1 PUSH1 0x1F LT PUSH2 0xBEC JUMPI PUSH2 0x100 DUP1 DUP4 SLOAD DIV MUL DUP4 MSTORE SWAP2 PUSH1 0x20 ADD SWAP2 PUSH2 0xC15 JUMP JUMPDEST DUP3 ADD SWAP2 SWAP1 PUSH0 MSTORE PUSH1 0x20 PUSH0 KECCAK256 SWAP1 JUMPDEST DUP2 SLOAD DUP2 MSTORE SWAP1 PUSH1 0x1 ADD SWAP1 PUSH1 0x20 ADD DUP1 DUP4 GT PUSH2 0xBF8 JUMPI DUP3 SWAP1 SUB PUSH1 0x1F AND DUP3 ADD SWAP2 JUMPDEST POP POP POP POP POP SWAP1 POP SWAP1 JUMP JUMPDEST PUSH2 0xC31 PUSH2 0xC2A PUSH2 0x160B JUMP JUMPDEST DUP4 DUP4 PUSH2 0x1922 JUMP JUMPDEST POP POP JUMP JUMPDEST PUSH1 0x7 PUSH1 0x14 SWAP1 SLOAD SWAP1 PUSH2 0x100 EXP SWAP1 DIV PUSH1 0xFF AND DUP2 JUMP JUMPDEST PUSH1 0x6 PUSH1 0x8 SWAP1 SLOAD SWAP1 PUSH2 0x100 EXP SWAP1 DIV PUSH20 0xFFFFFFFFFFFFFFFFFFFFFFFFFFFFFFFFFFFFFFFF AND PUSH20 0xFFFFFFFFFFFFFFFFFFFFFFFFFFFFFFFFFFFFFFFF AND CALLER PUSH20 0xFFFFFFFFFFFFFFFFFFFFFFFFFFFFFFFFFFFFFFFF AND EQ DUP1 PUSH2 0xCF0 JUMPI POP PUSH1 0x7 PUSH0 SWAP1 SLOAD SWAP1 PUSH2 0x100 EXP SWAP1 DIV PUSH20 0xFFFFFFFFFFFFFFFFFFFFFFFFFFFFFFFFFFFFFFFF AND PUSH20 0xFFFFFFFFFFFFFFFFFFFFFFFFFFFFFFFFFFFFFFFF AND CALLER PUSH20 0xFFFFFFFFFFFFFFFFFFFFFFFFFFFFFFFFFFFFFFFF AND EQ JUMPDEST PUSH2 0xD2F JUMPI PUSH1 0x40 MLOAD PUSH32 0x8C379A000000000000000000000000000000000000000000000000000000000 DUP2 MSTORE PUSH1 0x4 ADD PUSH2 0xD26 SWAP1 PUSH2 0x2C94 JUMP JUMPDEST PUSH1 0x40 MLOAD DUP1 SWAP2 SUB SWAP1 REVERT JUMPDEST PUSH1 0x7 PUSH1 0x14 SWAP1 SLOAD SWAP1 PUSH2 0x100 EXP SWAP1 DIV PUSH1 0xFF AND PUSH2 0xD7E JUMPI PUSH1 0x40 MLOAD PUSH32 0x8C379A000000000000000000000000000000000000000000000000000000000 DUP2 MSTORE PUSH1 0x4 ADD PUSH2 0xD75 SWAP1 PUSH2 0x2F68 JUMP JUMPDEST PUSH1 0x40 MLOAD DUP1 SWAP2 SUB SWAP1 REVERT JUMPDEST PUSH0 PUSH2 0xD89 DUP3 CALLER PUSH2 0x1A8B JUMP JUMPDEST SWAP1 POP DUP1 PUSH2 0xDCB JUMPI PUSH1 0x40 MLOAD PUSH32 0x8C379A000000000000000000000000000000000000000000000000000000000 DUP2 MSTORE PUSH1 0x4 ADD PUSH2 0xDC2 SWAP1 PUSH2 0x2FF6 JUMP JUMPDEST PUSH1 0x40 MLOAD DUP1 SWAP2 SUB SWAP1 REVERT JUMPDEST PUSH2 0xDEB PUSH1 0x6 PUSH0 SWAP1 SLOAD SWAP1 PUSH2 0x100 EXP SWAP1 DIV PUSH4 0xFFFFFFFF AND PUSH4 0xFFFFFFFF AND PUSH2 0x1DFC JUMP JUMPDEST PUSH2 0xE0C PUSH1 0x6 PUSH1 0x4 SWAP1 SLOAD SWAP1 PUSH2 0x100 EXP SWAP1 DIV PUSH4 0xFFFFFFFF AND PUSH4 0xFFFFFFFF AND PUSH2 0x1DFC JUMP JUMPDEST PUSH0 PUSH1 0x7 PUSH1 0x14 PUSH2 0x100 EXP DUP2 SLOAD DUP2 PUSH1 0xFF MUL NOT AND SWAP1 DUP4 ISZERO ISZERO MUL OR SWAP1 SSTORE POP PUSH1 0x7 PUSH0 SWAP1 SLOAD SWAP1 PUSH2 0x100 EXP SWAP1 DIV PUSH20 0xFFFFFFFFFFFFFFFFFFFFFFFFFFFFFFFFFFFFFFFF AND PUSH20 0xFFFFFFFFFFFFFFFFFFFFFFFFFFFFFFFFFFFFFFFF AND PUSH1 0x6 PUSH1 0x8 SWAP1 SLOAD SWAP1 PUSH2 0x100 EXP SWAP1 DIV PUSH20 0xFFFFFFFFFFFFFFFFFFFFFFFFFFFFFFFFFFFFFFFF AND PUSH20 0xFFFFFFFFFFFFFFFFFFFFFFFFFFFFFFFFFFFFFFFF AND PUSH32 0x6077EDEA937D666F6B546E152B1E3B4C1632F0B238E580D25B0C3A589487BFDA PUSH1 0x40 MLOAD PUSH1 0x40 MLOAD DUP1 SWAP2 SUB SWAP1 LOG3 POP POP JUMP JUMPDEST PUSH2 0xED2 DUP5 DUP5 DUP5 PUSH2 0x51F JUMP JUMPDEST PUSH2 0xEDE DUP5 DUP5 DUP5 DUP5 PUSH2 0x1E7E JUMP JUMPDEST POP POP POP POP JUMP JUMPDEST PUSH1 0x6 PUSH1 0x8 SWAP1 SLOAD SWAP1 PUSH2 0x100 EXP SWAP1 DIV PUSH20 0xFFFFFFFFFFFFFFFFFFFFFFFFFFFFFFFFFFFFFFFF AND PUSH20 0xFFFFFFFFFFFFFFFFFFFFFFFFFFFFFFFFFFFFFFFF AND CALLER PUSH20 0xFFFFFFFFFFFFFFFFFFFFFFFFFFFFFFFFFFFFFFFF AND EQ DUP1 PUSH2 0xF8C JUMPI POP PUSH1 0x7 PUSH0 SWAP1 SLOAD SWAP1 PUSH2 0x100 EXP SWAP1 DIV PUSH20 0xFFFFFFFFFFFFFFFFFFFFFFFFFFFFFFFFFFFFFFFF AND PUSH20 0xFFFFFFFFFFFFFFFFFFFFFFFFFFFFFFFFFFFFFFFF AND CALLER PUSH20 0xFFFFFFFFFFFFFFFFFFFFFFFFFFFFFFFFFFFFFFFF AND EQ JUMPDEST PUSH2 0xFCB JUMPI PUSH1 0x40 MLOAD PUSH32 0x8C379A000000000000000000000000000000000000000000000000000000000 DUP2 MSTORE PUSH1 0x4 ADD PUSH2 0xFC2 SWAP1 PUSH2 0x2C94 JUMP JUMPDEST PUSH1 0x40 MLOAD DUP1 SWAP2 SUB SWAP1 REVERT JUMPDEST PUSH0 JUMPDEST PUSH1 0x3 DUP2 PUSH1 0xFF AND LT ISZERO PUSH2 0x1098 JUMPI DUP2 PUSH20 0xFFFFFFFFFFFFFFFFFFFFFFFFFFFFFFFFFFFFFFFF AND PUSH1 0xA DUP3 PUSH1 0xFF AND DUP2 SLOAD DUP2 LT PUSH2 0x1007 JUMPI PUSH2 0x1006 PUSH2 0x3014 JUMP JUMPDEST JUMPDEST SWAP1 PUSH0 MSTORE PUSH1 0x20 PUSH0 KECCAK256 ADD PUSH0 SWAP1 SLOAD SWAP1 PUSH2 0x100 EXP SWAP1 DIV PUSH20 0xFFFFFFFFFFFFFFFFFFFFFFFFFFFFFFFFFFFFFFFF AND PUSH20 0xFFFFFFFFFFFFFFFFFFFFFFFFFFFFFFFFFFFFFFFF AND SUB PUSH2 0x1085 JUMPI PUSH1 0x40 MLOAD PUSH32 0x8C379A000000000000000000000000000000000000000000000000000000000 DUP2 MSTORE PUSH1 0x4 ADD PUSH2 0x107C SWAP1 PUSH2 0x308B JUMP JUMPDEST PUSH1 0x40 MLOAD DUP1 SWAP2 SUB SWAP1 REVERT JUMPDEST DUP1 DUP1 PUSH2 0x1090 SWAP1 PUSH2 0x30B5 JUMP JUMPDEST SWAP2 POP POP PUSH2 0xFCD JUMP JUMPDEST POP PUSH1 0x6 PUSH1 0x8 SWAP1 SLOAD SWAP1 PUSH2 0x100 EXP SWAP1 DIV PUSH20 0xFFFFFFFFFFFFFFFFFFFFFFFFFFFFFFFFFFFFFFFF AND PUSH20 0xFFFFFFFFFFFFFFFFFFFFFFFFFFFFFFFFFFFFFFFF AND CALLER PUSH20 0xFFFFFFFFFFFFFFFFFFFFFFFFFFFFFFFFFFFFFFFF AND SUB PUSH2 0x116C JUMPI PUSH1 0x1 PUSH1 0xB PUSH0 DUP4 PUSH20 0xFFFFFFFFFFFFFFFFFFFFFFFFFFFFFFFFFFFFFFFF AND PUSH20 0xFFFFFFFFFFFFFFFFFFFFFFFFFFFFFFFFFFFFFFFF AND DUP2 MSTORE PUSH1 0x20 ADD SWAP1 DUP2 MSTORE PUSH1 0x20 ADD PUSH0 KECCAK256 PUSH0 DUP2 SLOAD DUP2 LT PUSH2 0x113F JUMPI PUSH2 0x113E PUSH2 0x3014 JUMP JUMPDEST JUMPDEST SWAP1 PUSH0 MSTORE PUSH1 0x20 PUSH0 KECCAK256 SWAP1 PUSH1 0x20 SWAP2 DUP3 DUP3 DIV ADD SWAP2 SWAP1 MOD PUSH2 0x100 EXP DUP2 SLOAD DUP2 PUSH1 0xFF MUL NOT AND SWAP1 DUP4 PUSH1 0xFF AND MUL OR SWAP1 SSTORE POP PUSH2 0x123C JUMP JUMPDEST PUSH1 0x7 PUSH0 SWAP1 SLOAD SWAP1 PUSH2 0x100 EXP SWAP1 DIV PUSH20 0xFFFFFFFFFFFFFFFFFFFFFFFFFFFFFFFFFFFFFFFF AND PUSH20 0xFFFFFFFFFFFFFFFFFFFFFFFFFFFFFFFFFFFFFFFF AND CALLER PUSH20 0xFFFFFFFFFFFFFFFFFFFFFFFFFFFFFFFFFFFFFFFF AND SUB PUSH2 0x123B JUMPI PUSH1 0x1 PUSH1 0xB PUSH0 DUP4 PUSH20 0xFFFFFFFFFFFFFFFFFFFFFFFFFFFFFFFFFFFFFFFF AND PUSH20 0xFFFFFFFFFFFFFFFFFFFFFFFFFFFFFFFFFFFFFFFF AND DUP2 MSTORE PUSH1 0x20 ADD SWAP1 DUP2 MSTORE PUSH1 0x20 ADD PUSH0 KECCAK256 PUSH1 0x1 DUP2 SLOAD DUP2 LT PUSH2 0x1212 JUMPI PUSH2 0x1211 PUSH2 0x3014 JUMP JUMPDEST JUMPDEST SWAP1 PUSH0 MSTORE PUSH1 0x20 PUSH0 KECCAK256 SWAP1 PUSH1 0x20 SWAP2 DUP3 DUP3 DIV ADD SWAP2 SWAP1 MOD PUSH2 0x100 EXP DUP2 SLOAD DUP2 PUSH1 0xFF MUL NOT AND SWAP1 DUP4 PUSH1 0xFF AND MUL OR SWAP1 SSTORE POP JUMPDEST JUMPDEST PUSH1 0x2 PUSH1 0xB PUSH0 DUP4 PUSH20 0xFFFFFFFFFFFFFFFFFFFFFFFFFFFFFFFFFFFFFFFF AND PUSH20 0xFFFFFFFFFFFFFFFFFFFFFFFFFFFFFFFFFFFFFFFF AND DUP2 MSTORE PUSH1 0x20 ADD SWAP1 DUP2 MSTORE PUSH1 0x20 ADD PUSH0 KECCAK256 PUSH1 0x1 DUP2 SLOAD DUP2 LT PUSH2 0x128E JUMPI PUSH2 0x128D PUSH2 0x3014 JUMP JUMPDEST JUMPDEST SWAP1 PUSH0 MSTORE PUSH1 0x20 PUSH0 KECCAK256 SWAP1 PUSH1 0x20 SWAP2 DUP3 DUP3 DIV ADD SWAP2 SWAP1 MOD SWAP1 SLOAD SWAP1 PUSH2 0x100 EXP SWAP1 DIV PUSH1 0xFF AND PUSH1 0xB PUSH0 DUP5 PUSH20 0xFFFFFFFFFFFFFFFFFFFFFFFFFFFFFFFFFFFFFFFF AND PUSH20 0xFFFFFFFFFFFFFFFFFFFFFFFFFFFFFFFFFFFFFFFF AND DUP2 MSTORE PUSH1 0x20 ADD SWAP1 DUP2 MSTORE PUSH1 0x20 ADD PUSH0 KECCAK256 PUSH0 DUP2 SLOAD DUP2 LT PUSH2 0x12FB JUMPI PUSH2 0x12FA PUSH2 0x3014 JUMP JUMPDEST JUMPDEST SWAP1 PUSH0 MSTORE PUSH1 0x20 PUSH0 KECCAK256 SWAP1 PUSH1 0x20 SWAP2 DUP3 DUP3 DIV ADD SWAP2 SWAP1 MOD SWAP1 SLOAD SWAP1 PUSH2 0x100 EXP SWAP1 DIV PUSH1 0xFF AND PUSH2 0x1323 SWAP2 SWAP1 PUSH2 0x30DD JUMP JUMPDEST PUSH1 0xFF AND SUB PUSH2 0x13EC JUMPI PUSH1 0x1 PUSH1 0x9 PUSH0 DUP3 DUP3 DUP3 SWAP1 SLOAD SWAP1 PUSH2 0x100 EXP SWAP1 DIV PUSH4 0xFFFFFFFF AND PUSH2 0x134C SWAP2 SWAP1 PUSH2 0x2EC1 JUMP JUMPDEST SWAP3 POP PUSH2 0x100 EXP DUP2 SLOAD DUP2 PUSH4 0xFFFFFFFF MUL NOT AND SWAP1 DUP4 PUSH4 0xFFFFFFFF AND MUL OR SWAP1 SSTORE POP PUSH1 0xA DUP2 SWAP1 DUP1 PUSH1 0x1 DUP2 SLOAD ADD DUP1 DUP3 SSTORE DUP1 SWAP2 POP POP PUSH1 0x1 SWAP1 SUB SWAP1 PUSH0 MSTORE PUSH1 0x20 PUSH0 KECCAK256 ADD PUSH0 SWAP1 SWAP2 SWAP1 SWAP2 SWAP1 SWAP2 PUSH2 0x100 EXP DUP2 SLOAD DUP2 PUSH20 0xFFFFFFFFFFFFFFFFFFFFFFFFFFFFFFFFFFFFFFFF MUL NOT AND SWAP1 DUP4 PUSH20 0xFFFFFFFFFFFFFFFFFFFFFFFFFFFFFFFFFFFFFFFF AND MUL OR SWAP1 SSTORE POP PUSH2 0x13EB DUP2 PUSH1 0x9 PUSH0 SWAP1 SLOAD SWAP1 PUSH2 0x100 EXP SWAP1 DIV PUSH4 0xFFFFFFFF AND PUSH4 0xFFFFFFFF AND PUSH2 0x182F JUMP JUMPDEST JUMPDEST POP JUMP JUMPDEST PUSH1 0x60 PUSH2 0x13FA DUP3 PUSH2 0x154C JUMP JUMPDEST POP PUSH0 PUSH2 0x1404 PUSH2 0x2030 JUMP JUMPDEST SWAP1 POP PUSH0 DUP2 MLOAD GT PUSH2 0x1422 JUMPI PUSH1 0x40 MLOAD DUP1 PUSH1 0x20 ADD PUSH1 0x40 MSTORE DUP1 PUSH0 DUP2 MSTORE POP PUSH2 0x144D JUMP JUMPDEST DUP1 PUSH2 0x142C DUP5 PUSH2 0x2046 JUMP JUMPDEST PUSH1 0x40 MLOAD PUSH1 0x20 ADD PUSH2 0x143D SWAP3 SWAP2 SWAP1 PUSH2 0x314B JUMP JUMPDEST PUSH1 0x40 MLOAD PUSH1 0x20 DUP2 DUP4 SUB SUB DUP2 MSTORE SWAP1 PUSH1 0x40 MSTORE JUMPDEST SWAP2 POP POP SWAP2 SWAP1 POP JUMP JUMPDEST PUSH0 PUSH1 0x5 PUSH0 DUP5 PUSH20 0xFFFFFFFFFFFFFFFFFFFFFFFFFFFFFFFFFFFFFFFF AND PUSH20 0xFFFFFFFFFFFFFFFFFFFFFFFFFFFFFFFFFFFFFFFF AND DUP2 MSTORE PUSH1 0x20 ADD SWAP1 DUP2 MSTORE PUSH1 0x20 ADD PUSH0 KECCAK256 PUSH0 DUP4 PUSH20 0xFFFFFFFFFFFFFFFFFFFFFFFFFFFFFFFFFFFFFFFF AND PUSH20 0xFFFFFFFFFFFFFFFFFFFFFFFFFFFFFFFFFFFFFFFF AND DUP2 MSTORE PUSH1 0x20 ADD SWAP1 DUP2 MSTORE PUSH1 0x20 ADD PUSH0 KECCAK256 PUSH0 SWAP1 SLOAD SWAP1 PUSH2 0x100 EXP SWAP1 DIV PUSH1 0xFF AND SWAP1 POP SWAP3 SWAP2 POP POP JUMP JUMPDEST PUSH0 PUSH32 0x1FFC9A700000000000000000000000000000000000000000000000000000000 PUSH28 0xFFFFFFFFFFFFFFFFFFFFFFFFFFFFFFFFFFFFFFFFFFFFFFFFFFFFFFFF NOT AND DUP3 PUSH28 0xFFFFFFFFFFFFFFFFFFFFFFFFFFFFFFFFFFFFFFFFFFFFFFFFFFFFFFFF NOT AND EQ SWAP1 POP SWAP2 SWAP1 POP JUMP JUMPDEST PUSH0 DUP1 PUSH2 0x1557 DUP4 PUSH2 0x2110 JUMP JUMPDEST SWAP1 POP PUSH0 PUSH20 0xFFFFFFFFFFFFFFFFFFFFFFFFFFFFFFFFFFFFFFFF AND DUP2 PUSH20 0xFFFFFFFFFFFFFFFFFFFFFFFFFFFFFFFFFFFFFFFF AND SUB PUSH2 0x15C9 JUMPI DUP3 PUSH1 0x40 MLOAD PUSH32 0x7E27328900000000000000000000000000000000000000000000000000000000 DUP2 MSTORE PUSH1 0x4 ADD PUSH2 0x15C0 SWAP2 SWAP1 PUSH2 0x2927 JUMP JUMPDEST PUSH1 0x40 MLOAD DUP1 SWAP2 SUB SWAP1 REVERT JUMPDEST DUP1 SWAP2 POP POP SWAP2 SWAP1 POP JUMP JUMPDEST PUSH0 PUSH1 0x4 PUSH0 DUP4 DUP2 MSTORE PUSH1 0x20 ADD SWAP1 DUP2 MSTORE PUSH1 0x20 ADD PUSH0 KECCAK256 PUSH0 SWAP1 SLOAD SWAP1 PUSH2 0x100 EXP SWAP1 DIV PUSH20 0xFFFFFFFFFFFFFFFFFFFFFFFFFFFFFFFFFFFFFFFF AND SWAP1 POP SWAP2 SWAP1 POP JUMP JUMPDEST PUSH0 CALLER SWAP1 POP SWAP1 JUMP JUMPDEST PUSH2 0x161F DUP4 DUP4 DUP4 PUSH1 0x1 PUSH2 0x2149 JUMP JUMPDEST POP POP POP JUMP JUMPDEST PUSH0 DUP1 PUSH2 0x162F DUP5 PUSH2 0x2110 JUMP JUMPDEST SWAP1 POP PUSH0 PUSH20 0xFFFFFFFFFFFFFFFFFFFFFFFFFFFFFFFFFFFFFFFF AND DUP4 PUSH20 0xFFFFFFFFFFFFFFFFFFFFFFFFFFFFFFFFFFFFFFFF AND EQ PUSH2 0x1670 JUMPI PUSH2 0x166F DUP2 DUP5 DUP7 PUSH2 0x2308 JUMP JUMPDEST JUMPDEST PUSH0 PUSH20 0xFFFFFFFFFFFFFFFFFFFFFFFFFFFFFFFFFFFFFFFF AND DUP2 PUSH20 0xFFFFFFFFFFFFFFFFFFFFFFFFFFFFFFFFFFFFFFFF AND EQ PUSH2 0x16FB JUMPI PUSH2 0x16AF PUSH0 DUP6 PUSH0 DUP1 PUSH2 0x2149 JUMP JUMPDEST PUSH1 0x1 PUSH1 0x3 PUSH0 DUP4 PUSH20 0xFFFFFFFFFFFFFFFFFFFFFFFFFFFFFFFFFFFFFFFF AND PUSH20 0xFFFFFFFFFFFFFFFFFFFFFFFFFFFFFFFFFFFFFFFF AND DUP2 MSTORE PUSH1 0x20 ADD SWAP1 DUP2 MSTORE PUSH1 0x20 ADD PUSH0 KECCAK256 PUSH0 DUP3 DUP3 SLOAD SUB SWAP3 POP POP DUP2 SWAP1 SSTORE POP JUMPDEST PUSH0 PUSH20 0xFFFFFFFFFFFFFFFFFFFFFFFFFFFFFFFFFFFFFFFF AND DUP6 PUSH20 0xFFFFFFFFFFFFFFFFFFFFFFFFFFFFFFFFFFFFFFFF AND EQ PUSH2 0x177A JUMPI PUSH1 0x1 PUSH1 0x3 PUSH0 DUP8 PUSH20 0xFFFFFFFFFFFFFFFFFFFFFFFFFFFFFFFFFFFFFFFF AND PUSH20 0xFFFFFFFFFFFFFFFFFFFFFFFFFFFFFFFFFFFFFFFF AND DUP2 MSTORE PUSH1 0x20 ADD SWAP1 DUP2 MSTORE PUSH1 0x20 ADD PUSH0 KECCAK256 PUSH0 DUP3 DUP3 SLOAD ADD SWAP3 POP POP DUP2 SWAP1 SSTORE POP JUMPDEST DUP5 PUSH1 0x2 PUSH0 DUP7 DUP2 MSTORE PUSH1 0x20 ADD SWAP1 DUP2 MSTORE PUSH1 0x20 ADD PUSH0 KECCAK256 PUSH0 PUSH2 0x100 EXP DUP2 SLOAD DUP2 PUSH20 0xFFFFFFFFFFFFFFFFFFFFFFFFFFFFFFFFFFFFFFFF MUL NOT AND SWAP1 DUP4 PUSH20 0xFFFFFFFFFFFFFFFFFFFFFFFFFFFFFFFFFFFFFFFF AND MUL OR SWAP1 SSTORE POP DUP4 DUP6 PUSH20 0xFFFFFFFFFFFFFFFFFFFFFFFFFFFFFFFFFFFFFFFF AND DUP3 PUSH20 0xFFFFFFFFFFFFFFFFFFFFFFFFFFFFFFFFFFFFFFFF AND PUSH32 0xDDF252AD1BE2C89B69C2B068FC378DAA952BA7F163C4A11628F55A4DF523B3EF PUSH1 0x40 MLOAD PUSH1 0x40 MLOAD DUP1 SWAP2 SUB SWAP1 LOG4 DUP1 SWAP2 POP POP SWAP4 SWAP3 POP POP POP JUMP JUMPDEST PUSH0 PUSH20 0xFFFFFFFFFFFFFFFFFFFFFFFFFFFFFFFFFFFFFFFF AND DUP3 PUSH20 0xFFFFFFFFFFFFFFFFFFFFFFFFFFFFFFFFFFFFFFFF AND SUB PUSH2 0x189F JUMPI PUSH0 PUSH1 0x40 MLOAD PUSH32 0x64A0AE9200000000000000000000000000000000000000000000000000000000 DUP2 MSTORE PUSH1 0x4 ADD PUSH2 0x1896 SWAP2 SWAP1 PUSH2 0x27E7 JUMP JUMPDEST PUSH1 0x40 MLOAD DUP1 SWAP2 SUB SWAP1 REVERT JUMPDEST PUSH0 PUSH2 0x18AB DUP4 DUP4 PUSH0 PUSH2 0x1624 JUMP JUMPDEST SWAP1 POP PUSH0 PUSH20 0xFFFFFFFFFFFFFFFFFFFFFFFFFFFFFFFFFFFFFFFF AND DUP2 PUSH20 0xFFFFFFFFFFFFFFFFFFFFFFFFFFFFFFFFFFFFFFFF AND EQ PUSH2 0x191D JUMPI PUSH0 PUSH1 0x40 MLOAD PUSH32 0x73C6AC6E00000000000000000000000000000000000000000000000000000000 DUP2 MSTORE PUSH1 0x4 ADD PUSH2 0x1914 SWAP2 SWAP1 PUSH2 0x27E7 JUMP JUMPDEST PUSH1 0x40 MLOAD DUP1 SWAP2 SUB SWAP1 REVERT JUMPDEST POP POP POP JUMP JUMPDEST PUSH0 PUSH20 0xFFFFFFFFFFFFFFFFFFFFFFFFFFFFFFFFFFFFFFFF AND DUP3 PUSH20 0xFFFFFFFFFFFFFFFFFFFFFFFFFFFFFFFFFFFFFFFF AND SUB PUSH2 0x1992 JUMPI DUP2 PUSH1 0x40 MLOAD PUSH32 0x5B08BA1800000000000000000000000000000000000000000000000000000000 DUP2 MSTORE PUSH1 0x4 ADD PUSH2 0x1989 SWAP2 SWAP1 PUSH2 0x27E7 JUMP JUMPDEST PUSH1 0x40 MLOAD DUP1 SWAP2 SUB SWAP1 REVERT JUMPDEST DUP1 PUSH1 0x5 PUSH0 DUP6 PUSH20 0xFFFFFFFFFFFFFFFFFFFFFFFFFFFFFFFFFFFFFFFF AND PUSH20 0xFFFFFFFFFFFFFFFFFFFFFFFFFFFFFFFFFFFFFFFF AND DUP2 MSTORE PUSH1 0x20 ADD SWAP1 DUP2 MSTORE PUSH1 0x20 ADD PUSH0 KECCAK256 PUSH0 DUP5 PUSH20 0xFFFFFFFFFFFFFFFFFFFFFFFFFFFFFFFFFFFFFFFF AND PUSH20 0xFFFFFFFFFFFFFFFFFFFFFFFFFFFFFFFFFFFFFFFF AND DUP2 MSTORE PUSH1 0x20 ADD SWAP1 DUP2 MSTORE PUSH1 0x20 ADD PUSH0 KECCAK256 PUSH0 PUSH2 0x100 EXP DUP2 SLOAD DUP2 PUSH1 0xFF MUL NOT AND SWAP1 DUP4 ISZERO ISZERO MUL OR SWAP1 SSTORE POP DUP2 PUSH20 0xFFFFFFFFFFFFFFFFFFFFFFFFFFFFFFFFFFFFFFFF AND DUP4 PUSH20 0xFFFFFFFFFFFFFFFFFFFFFFFFFFFFFFFFFFFFFFFF AND PUSH32 0x17307EAB39AB6107E8899845AD3D59BD9653F200F220920489CA2B5937696C31 DUP4 PUSH1 0x40 MLOAD PUSH2 0x1A7E SWAP2 SWAP1 PUSH2 0x2687 JUMP JUMPDEST PUSH1 0x40 MLOAD DUP1 SWAP2 SUB SWAP1 LOG3 POP POP POP JUMP JUMPDEST PUSH0 DUP1 DUP3 PUSH20 0xFFFFFFFFFFFFFFFFFFFFFFFFFFFFFFFFFFFFFFFF AND PUSH1 0xC PUSH0 SWAP1 SLOAD SWAP1 PUSH2 0x100 EXP SWAP1 DIV PUSH20 0xFFFFFFFFFFFFFFFFFFFFFFFFFFFFFFFFFFFFFFFF AND PUSH20 0xFFFFFFFFFFFFFFFFFFFFFFFFFFFFFFFFFFFFFFFF AND PUSH4 0x6352211E DUP7 PUSH1 0x40 MLOAD DUP3 PUSH4 0xFFFFFFFF AND PUSH1 0xE0 SHL DUP2 MSTORE PUSH1 0x4 ADD PUSH2 0x1AFE SWAP2 SWAP1 PUSH2 0x2927 JUMP JUMPDEST PUSH1 0x20 PUSH1 0x40 MLOAD DUP1 DUP4 SUB DUP2 DUP7 GAS STATICCALL ISZERO DUP1 ISZERO PUSH2 0x1B19 JUMPI RETURNDATASIZE PUSH0 DUP1 RETURNDATACOPY RETURNDATASIZE PUSH0 REVERT JUMPDEST POP POP POP POP PUSH1 0x40 MLOAD RETURNDATASIZE PUSH1 0x1F NOT PUSH1 0x1F DUP3 ADD AND DUP3 ADD DUP1 PUSH1 0x40 MSTORE POP DUP2 ADD SWAP1 PUSH2 0x1B3D SWAP2 SWAP1 PUSH2 0x2DB5 JUMP JUMPDEST PUSH20 0xFFFFFFFFFFFFFFFFFFFFFFFFFFFFFFFFFFFFFFFF AND EQ SWAP1 POP PUSH0 DUP1 JUMPDEST PUSH1 0x3 DUP2 PUSH1 0xFF AND LT ISZERO PUSH2 0x1BA3 JUMPI PUSH1 0x8 DUP2 PUSH1 0xFF AND DUP2 SLOAD DUP2 LT PUSH2 0x1B7C JUMPI PUSH2 0x1B7B PUSH2 0x3014 JUMP JUMPDEST JUMPDEST SWAP1 PUSH0 MSTORE PUSH1 0x20 PUSH0 KECCAK256 ADD SLOAD DUP7 SUB PUSH2 0x1B90 JUMPI PUSH1 0x1 SWAP2 POP JUMPDEST DUP1 DUP1 PUSH2 0x1B9B SWAP1 PUSH2 0x30B5 JUMP JUMPDEST SWAP2 POP POP PUSH2 0x1B59 JUMP JUMPDEST POP DUP1 ISZERO DUP1 ISZERO PUSH2 0x1BAF JUMPI POP DUP2 JUMPDEST ISZERO PUSH2 0x1D90 JUMPI PUSH1 0x8 DUP6 SWAP1 DUP1 PUSH1 0x1 DUP2 SLOAD ADD DUP1 DUP3 SSTORE DUP1 SWAP2 POP POP PUSH1 0x1 SWAP1 SUB SWAP1 PUSH0 MSTORE PUSH1 0x20 PUSH0 KECCAK256 ADD PUSH0 SWAP1 SWAP2 SWAP1 SWAP2 SWAP1 SWAP2 POP SSTORE PUSH1 0x6 PUSH1 0x8 SWAP1 SLOAD SWAP1 PUSH2 0x100 EXP SWAP1 DIV PUSH20 0xFFFFFFFFFFFFFFFFFFFFFFFFFFFFFFFFFFFFFFFF AND PUSH20 0xFFFFFFFFFFFFFFFFFFFFFFFFFFFFFFFFFFFFFFFF AND DUP5 PUSH20 0xFFFFFFFFFFFFFFFFFFFFFFFFFFFFFFFFFFFFFFFF AND EQ DUP1 PUSH2 0x1C82 JUMPI POP PUSH1 0x7 PUSH0 SWAP1 SLOAD SWAP1 PUSH2 0x100 EXP SWAP1 DIV PUSH20 0xFFFFFFFFFFFFFFFFFFFFFFFFFFFFFFFFFFFFFFFF AND PUSH20 0xFFFFFFFFFFFFFFFFFFFFFFFFFFFFFFFFFFFFFFFF AND DUP5 PUSH20 0xFFFFFFFFFFFFFFFFFFFFFFFFFFFFFFFFFFFFFFFF AND EQ JUMPDEST ISZERO PUSH2 0x1CC3 JUMPI PUSH1 0x1 PUSH1 0x7 PUSH1 0x17 DUP3 DUP3 DUP3 SWAP1 SLOAD SWAP1 PUSH2 0x100 EXP SWAP1 DIV PUSH1 0xFF AND PUSH2 0x1CA6 SWAP2 SWAP1 PUSH2 0x30DD JUMP JUMPDEST SWAP3 POP PUSH2 0x100 EXP DUP2 SLOAD DUP2 PUSH1 0xFF MUL NOT AND SWAP1 DUP4 PUSH1 0xFF AND MUL OR SWAP1 SSTORE POP PUSH2 0x1D8F JUMP JUMPDEST PUSH0 JUMPDEST PUSH1 0x3 DUP2 PUSH1 0xFF AND LT ISZERO PUSH2 0x1D8D JUMPI PUSH1 0xA DUP2 PUSH1 0xFF AND DUP2 SLOAD DUP2 LT PUSH2 0x1CE8 JUMPI PUSH2 0x1CE7 PUSH2 0x3014 JUMP JUMPDEST JUMPDEST SWAP1 PUSH0 MSTORE PUSH1 0x20 PUSH0 KECCAK256 ADD PUSH0 SWAP1 SLOAD SWAP1 PUSH2 0x100 EXP SWAP1 DIV PUSH20 0xFFFFFFFFFFFFFFFFFFFFFFFFFFFFFFFFFFFFFFFF AND PUSH20 0xFFFFFFFFFFFFFFFFFFFFFFFFFFFFFFFFFFFFFFFF AND DUP6 PUSH20 0xFFFFFFFFFFFFFFFFFFFFFFFFFFFFFFFFFFFFFFFF AND SUB PUSH2 0x1D7A JUMPI PUSH1 0x1 PUSH1 0x7 PUSH1 0x18 DUP3 DUP3 DUP3 SWAP1 SLOAD SWAP1 PUSH2 0x100 EXP SWAP1 DIV PUSH1 0xFF AND PUSH2 0x1D61 SWAP2 SWAP1 PUSH2 0x30DD JUMP JUMPDEST SWAP3 POP PUSH2 0x100 EXP DUP2 SLOAD DUP2 PUSH1 0xFF MUL NOT AND SWAP1 DUP4 PUSH1 0xFF AND MUL OR SWAP1 SSTORE POP JUMPDEST DUP1 DUP1 PUSH2 0x1D85 SWAP1 PUSH2 0x30B5 JUMP JUMPDEST SWAP2 POP POP PUSH2 0x1CC5 JUMP JUMPDEST POP JUMPDEST JUMPDEST PUSH1 0x2 PUSH1 0x7 PUSH1 0x17 SWAP1 SLOAD SWAP1 PUSH2 0x100 EXP SWAP1 DIV PUSH1 0xFF AND PUSH1 0xFF AND EQ DUP1 PUSH2 0x1DE0 JUMPI POP PUSH1 0x1 PUSH1 0x7 PUSH1 0x17 SWAP1 SLOAD SWAP1 PUSH2 0x100 EXP SWAP1 DIV PUSH1 0xFF AND PUSH1 0xFF AND EQ DUP1 ISZERO PUSH2 0x1DDF JUMPI POP PUSH0 PUSH1 0x7 PUSH1 0x18 SWAP1 SLOAD SWAP1 PUSH2 0x100 EXP SWAP1 DIV PUSH1 0xFF AND PUSH1 0xFF AND GT JUMPDEST JUMPDEST ISZERO PUSH2 0x1DF0 JUMPI PUSH1 0x1 SWAP3 POP POP POP PUSH2 0x1DF6 JUMP JUMPDEST PUSH0 SWAP3 POP POP POP JUMPDEST SWAP3 SWAP2 POP POP JUMP JUMPDEST PUSH0 PUSH2 0x1E08 PUSH0 DUP4 PUSH0 PUSH2 0x1624 JUMP JUMPDEST SWAP1 POP PUSH0 PUSH20 0xFFFFFFFFFFFFFFFFFFFFFFFFFFFFFFFFFFFFFFFF AND DUP2 PUSH20 0xFFFFFFFFFFFFFFFFFFFFFFFFFFFFFFFFFFFFFFFF AND SUB PUSH2 0x1E7A JUMPI DUP2 PUSH1 0x40 MLOAD PUSH32 0x7E27328900000000000000000000000000000000000000000000000000000000 DUP2 MSTORE PUSH1 0x4 ADD PUSH2 0x1E71 SWAP2 SWAP1 PUSH2 0x2927 JUMP JUMPDEST PUSH1 0x40 MLOAD DUP1 SWAP2 SUB SWAP1 REVERT JUMPDEST POP POP JUMP JUMPDEST PUSH0 DUP4 PUSH20 0xFFFFFFFFFFFFFFFFFFFFFFFFFFFFFFFFFFFFFFFF AND EXTCODESIZE GT ISZERO PUSH2 0x202A JUMPI DUP3 PUSH20 0xFFFFFFFFFFFFFFFFFFFFFFFFFFFFFFFFFFFFFFFF AND PUSH4 0x150B7A02 PUSH2 0x1EC1 PUSH2 0x160B JUMP JUMPDEST DUP7 DUP6 DUP6 PUSH1 0x40 MLOAD DUP6 PUSH4 0xFFFFFFFF AND PUSH1 0xE0 SHL DUP2 MSTORE PUSH1 0x4 ADD PUSH2 0x1EE3 SWAP5 SWAP4 SWAP3 SWAP2 SWAP1 PUSH2 0x31C0 JUMP JUMPDEST PUSH1 0x20 PUSH1 0x40 MLOAD DUP1 DUP4 SUB DUP2 PUSH0 DUP8 GAS CALL SWAP3 POP POP POP DUP1 ISZERO PUSH2 0x1F1E JUMPI POP PUSH1 0x40 MLOAD RETURNDATASIZE PUSH1 0x1F NOT PUSH1 0x1F DUP3 ADD AND DUP3 ADD DUP1 PUSH1 0x40 MSTORE POP DUP2 ADD SWAP1 PUSH2 0x1F1B SWAP2 SWAP1 PUSH2 0x321E JUMP JUMPDEST PUSH1 0x1 JUMPDEST PUSH2 0x1F9F JUMPI RETURNDATASIZE DUP1 PUSH0 DUP2 EQ PUSH2 0x1F4C JUMPI PUSH1 0x40 MLOAD SWAP2 POP PUSH1 0x1F NOT PUSH1 0x3F RETURNDATASIZE ADD AND DUP3 ADD PUSH1 0x40 MSTORE RETURNDATASIZE DUP3 MSTORE RETURNDATASIZE PUSH0 PUSH1 0x20 DUP5 ADD RETURNDATACOPY PUSH2 0x1F51 JUMP JUMPDEST PUSH1 0x60 SWAP2 POP JUMPDEST POP PUSH0 DUP2 MLOAD SUB PUSH2 0x1F97 JUMPI DUP4 PUSH1 0x40 MLOAD PUSH32 0x64A0AE9200000000000000000000000000000000000000000000000000000000 DUP2 MSTORE PUSH1 0x4 ADD PUSH2 0x1F8E SWAP2 SWAP1 PUSH2 0x27E7 JUMP JUMPDEST PUSH1 0x40 MLOAD DUP1 SWAP2 SUB SWAP1 REVERT JUMPDEST DUP1 MLOAD DUP2 PUSH1 0x20 ADD REVERT JUMPDEST PUSH4 0x150B7A02 PUSH1 0xE0 SHL PUSH28 0xFFFFFFFFFFFFFFFFFFFFFFFFFFFFFFFFFFFFFFFFFFFFFFFFFFFFFFFF NOT AND DUP2 PUSH28 0xFFFFFFFFFFFFFFFFFFFFFFFFFFFFFFFFFFFFFFFFFFFFFFFFFFFFFFFF NOT AND EQ PUSH2 0x2028 JUMPI DUP4 PUSH1 0x40 MLOAD PUSH32 0x64A0AE9200000000000000000000000000000000000000000000000000000000 DUP2 MSTORE PUSH1 0x4 ADD PUSH2 0x201F SWAP2 SWAP1 PUSH2 0x27E7 JUMP JUMPDEST PUSH1 0x40 MLOAD DUP1 SWAP2 SUB SWAP1 REVERT JUMPDEST POP JUMPDEST POP POP POP POP JUMP JUMPDEST PUSH1 0x60 PUSH1 0x40 MLOAD DUP1 PUSH1 0x20 ADD PUSH1 0x40 MSTORE DUP1 PUSH0 DUP2 MSTORE POP SWAP1 POP SWAP1 JUMP JUMPDEST PUSH1 0x60 PUSH0 PUSH1 0x1 PUSH2 0x2054 DUP5 PUSH2 0x23CB JUMP JUMPDEST ADD SWAP1 POP PUSH0 DUP2 PUSH8 0xFFFFFFFFFFFFFFFF DUP2 GT ISZERO PUSH2 0x2072 JUMPI PUSH2 0x2071 PUSH2 0x29B0 JUMP JUMPDEST JUMPDEST PUSH1 0x40 MLOAD SWAP1 DUP1 DUP3 MSTORE DUP1 PUSH1 0x1F ADD PUSH1 0x1F NOT AND PUSH1 0x20 ADD DUP3 ADD PUSH1 0x40 MSTORE DUP1 ISZERO PUSH2 0x20A4 JUMPI DUP2 PUSH1 0x20 ADD PUSH1 0x1 DUP3 MUL DUP1 CALLDATASIZE DUP4 CALLDATACOPY DUP1 DUP3 ADD SWAP2 POP POP SWAP1 POP JUMPDEST POP SWAP1 POP PUSH0 DUP3 PUSH1 0x20 ADD DUP3 ADD SWAP1 POP JUMPDEST PUSH1 0x1 ISZERO PUSH2 0x2105 JUMPI DUP1 DUP1 PUSH1 0x1 SWAP1 SUB SWAP2 POP POP PUSH32 0x3031323334353637383961626364656600000000000000000000000000000000 PUSH1 0xA DUP7 MOD BYTE DUP2 MSTORE8 PUSH1 0xA DUP6 DUP2 PUSH2 0x20FA JUMPI PUSH2 0x20F9 PUSH2 0x3249 JUMP JUMPDEST JUMPDEST DIV SWAP5 POP PUSH0 DUP6 SUB PUSH2 0x20B1 JUMPI JUMPDEST DUP2 SWAP4 POP POP POP POP SWAP2 SWAP1 POP JUMP JUMPDEST PUSH0 PUSH1 0x2 PUSH0 DUP4 DUP2 MSTORE PUSH1 0x20 ADD SWAP1 DUP2 MSTORE PUSH1 0x20 ADD PUSH0 KECCAK256 PUSH0 SWAP1 SLOAD SWAP1 PUSH2 0x100 EXP SWAP1 DIV PUSH20 0xFFFFFFFFFFFFFFFFFFFFFFFFFFFFFFFFFFFFFFFF AND SWAP1 POP SWAP2 SWAP1 POP JUMP JUMPDEST DUP1 DUP1 PUSH2 0x2181 JUMPI POP PUSH0 PUSH20 0xFFFFFFFFFFFFFFFFFFFFFFFFFFFFFFFFFFFFFFFF AND DUP3 PUSH20 0xFFFFFFFFFFFFFFFFFFFFFFFFFFFFFFFFFFFFFFFF AND EQ ISZERO JUMPDEST ISZERO PUSH2 0x22B3 JUMPI PUSH0 PUSH2 0x2190 DUP5 PUSH2 0x154C JUMP JUMPDEST SWAP1 POP PUSH0 PUSH20 0xFFFFFFFFFFFFFFFFFFFFFFFFFFFFFFFFFFFFFFFF AND DUP4 PUSH20 0xFFFFFFFFFFFFFFFFFFFFFFFFFFFFFFFFFFFFFFFF AND EQ ISZERO DUP1 ISZERO PUSH2 0x21FA JUMPI POP DUP3 PUSH20 0xFFFFFFFFFFFFFFFFFFFFFFFFFFFFFFFFFFFFFFFF AND DUP2 PUSH20 0xFFFFFFFFFFFFFFFFFFFFFFFFFFFFFFFFFFFFFFFF AND EQ ISZERO JUMPDEST DUP1 ISZERO PUSH2 0x220D JUMPI POP PUSH2 0x220B DUP2 DUP5 PUSH2 0x1455 JUMP JUMPDEST ISZERO JUMPDEST ISZERO PUSH2 0x224F JUMPI DUP3 PUSH1 0x40 MLOAD PUSH32 0xA9FBF51F00000000000000000000000000000000000000000000000000000000 DUP2 MSTORE PUSH1 0x4 ADD PUSH2 0x2246 SWAP2 SWAP1 PUSH2 0x27E7 JUMP JUMPDEST PUSH1 0x40 MLOAD DUP1 SWAP2 SUB SWAP1 REVERT JUMPDEST DUP2 ISZERO PUSH2 0x22B1 JUMPI DUP4 DUP6 PUSH20 0xFFFFFFFFFFFFFFFFFFFFFFFFFFFFFFFFFFFFFFFF AND DUP3 PUSH20 0xFFFFFFFFFFFFFFFFFFFFFFFFFFFFFFFFFFFFFFFF AND PUSH32 0x8C5BE1E5EBEC7D5BD14F71427D1E84F3DD0314C0F7B2291E5B200AC8C7C3B925 PUSH1 0x40 MLOAD PUSH1 0x40 MLOAD DUP1 SWAP2 SUB SWAP1 LOG4 JUMPDEST POP JUMPDEST DUP4 PUSH1 0x4 PUSH0 DUP6 DUP2 MSTORE PUSH1 0x20 ADD SWAP1 DUP2 MSTORE PUSH1 0x20 ADD PUSH0 KECCAK256 PUSH0 PUSH2 0x100 EXP DUP2 SLOAD DUP2 PUSH20 0xFFFFFFFFFFFFFFFFFFFFFFFFFFFFFFFFFFFFFFFF MUL NOT AND SWAP1 DUP4 PUSH20 0xFFFFFFFFFFFFFFFFFFFFFFFFFFFFFFFFFFFFFFFF AND MUL OR SWAP1 SSTORE POP POP POP POP POP JUMP JUMPDEST PUSH2 0x2313 DUP4 DUP4 DUP4 PUSH2 0x251C JUMP JUMPDEST PUSH2 0x23C6 JUMPI PUSH0 PUSH20 0xFFFFFFFFFFFFFFFFFFFFFFFFFFFFFFFFFFFFFFFF AND DUP4 PUSH20 0xFFFFFFFFFFFFFFFFFFFFFFFFFFFFFFFFFFFFFFFF AND SUB PUSH2 0x2387 JUMPI DUP1 PUSH1 0x40 MLOAD PUSH32 0x7E27328900000000000000000000000000000000000000000000000000000000 DUP2 MSTORE PUSH1 0x4 ADD PUSH2 0x237E SWAP2 SWAP1 PUSH2 0x2927 JUMP JUMPDEST PUSH1 0x40 MLOAD DUP1 SWAP2 SUB SWAP1 REVERT JUMPDEST DUP2 DUP2 PUSH1 0x40 MLOAD PUSH32 0x177E802F00000000000000000000000000000000000000000000000000000000 DUP2 MSTORE PUSH1 0x4 ADD PUSH2 0x23BD SWAP3 SWAP2 SWAP1 PUSH2 0x3276 JUMP JUMPDEST PUSH1 0x40 MLOAD DUP1 SWAP2 SUB SWAP1 REVERT JUMPDEST POP POP POP JUMP JUMPDEST PUSH0 DUP1 PUSH0 SWAP1 POP PUSH27 0x184F03E93FF9F4DAA797ED6E38ED64BF6A1F010000000000000000 DUP4 LT PUSH2 0x2427 JUMPI PUSH27 0x184F03E93FF9F4DAA797ED6E38ED64BF6A1F010000000000000000 DUP4 DUP2 PUSH2 0x241D JUMPI PUSH2 0x241C PUSH2 0x3249 JUMP JUMPDEST JUMPDEST DIV SWAP3 POP PUSH1 0x40 DUP2 ADD SWAP1 POP JUMPDEST PUSH14 0x4EE2D6D415B85ACEF8100000000 DUP4 LT PUSH2 0x2464 JUMPI PUSH14 0x4EE2D6D415B85ACEF8100000000 DUP4 DUP2 PUSH2 0x245A JUMPI PUSH2 0x2459 PUSH2 0x3249 JUMP JUMPDEST JUMPDEST DIV SWAP3 POP PUSH1 0x20 DUP2 ADD SWAP1 POP JUMPDEST PUSH7 0x2386F26FC10000 DUP4 LT PUSH2 0x2493 JUMPI PUSH7 0x2386F26FC10000 DUP4 DUP2 PUSH2 0x2489 JUMPI PUSH2 0x2488 PUSH2 0x3249 JUMP JUMPDEST JUMPDEST DIV SWAP3 POP PUSH1 0x10 DUP2 ADD SWAP1 POP JUMPDEST PUSH4 0x5F5E100 DUP4 LT PUSH2 0x24BC JUMPI PUSH4 0x5F5E100 DUP4 DUP2 PUSH2 0x24B2 JUMPI PUSH2 0x24B1 PUSH2 0x3249 JUMP JUMPDEST JUMPDEST DIV SWAP3 POP PUSH1 0x8 DUP2 ADD SWAP1 POP JUMPDEST PUSH2 0x2710 DUP4 LT PUSH2 0x24E1 JUMPI PUSH2 0x2710 DUP4 DUP2 PUSH2 0x24D7 JUMPI PUSH2 0x24D6 PUSH2 0x3249 JUMP JUMPDEST JUMPDEST DIV SWAP3 POP PUSH1 0x4 DUP2 ADD SWAP1 POP JUMPDEST PUSH1 0x64 DUP4 LT PUSH2 0x2504 JUMPI PUSH1 0x64 DUP4 DUP2 PUSH2 0x24FA JUMPI PUSH2 0x24F9 PUSH2 0x3249 JUMP JUMPDEST JUMPDEST DIV SWAP3 POP PUSH1 0x2 DUP2 ADD SWAP1 POP JUMPDEST PUSH1 0xA DUP4 LT PUSH2 0x2513 JUMPI PUSH1 0x1 DUP2 ADD SWAP1 POP JUMPDEST DUP1 SWAP2 POP POP SWAP2 SWAP1 POP JUMP JUMPDEST PUSH0 DUP1 PUSH20 0xFFFFFFFFFFFFFFFFFFFFFFFFFFFFFFFFFFFFFFFF AND DUP4 PUSH20 0xFFFFFFFFFFFFFFFFFFFFFFFFFFFFFFFFFFFFFFFF AND EQ ISZERO DUP1 ISZERO PUSH2 0x25D3 JUMPI POP DUP3 PUSH20 0xFFFFFFFFFFFFFFFFFFFFFFFFFFFFFFFFFFFFFFFF AND DUP5 PUSH20 0xFFFFFFFFFFFFFFFFFFFFFFFFFFFFFFFFFFFFFFFF AND EQ DUP1 PUSH2 0x2594 JUMPI POP PUSH2 0x2593 DUP5 DUP5 PUSH2 0x1455 JUMP JUMPDEST JUMPDEST DUP1 PUSH2 0x25D2 JUMPI POP DUP3 PUSH20 0xFFFFFFFFFFFFFFFFFFFFFFFFFFFFFFFFFFFFFFFF AND PUSH2 0x25BA DUP4 PUSH2 0x15D2 JUMP JUMPDEST PUSH20 0xFFFFFFFFFFFFFFFFFFFFFFFFFFFFFFFFFFFFFFFF AND EQ JUMPDEST JUMPDEST SWAP1 POP SWAP4 SWAP3 POP POP POP JUMP JUMPDEST PUSH0 PUSH1 0x40 MLOAD SWAP1 POP SWAP1 JUMP JUMPDEST PUSH0 DUP1 REVERT JUMPDEST PUSH0 DUP1 REVERT JUMPDEST PUSH0 PUSH32 0xFFFFFFFF00000000000000000000000000000000000000000000000000000000 DUP3 AND SWAP1 POP SWAP2 SWAP1 POP JUMP JUMPDEST PUSH2 0x2621 DUP2 PUSH2 0x25ED JUMP JUMPDEST DUP2 EQ PUSH2 0x262B JUMPI PUSH0 DUP1 REVERT JUMPDEST POP JUMP JUMPDEST PUSH0 DUP2 CALLDATALOAD SWAP1 POP PUSH2 0x263C DUP2 PUSH2 0x2618 JUMP JUMPDEST SWAP3 SWAP2 POP POP JUMP JUMPDEST PUSH0 PUSH1 0x20 DUP3 DUP5 SUB SLT ISZERO PUSH2 0x2657 JUMPI PUSH2 0x2656 PUSH2 0x25E5 JUMP JUMPDEST JUMPDEST PUSH0 PUSH2 0x2664 DUP5 DUP3 DUP6 ADD PUSH2 0x262E JUMP JUMPDEST SWAP2 POP POP SWAP3 SWAP2 POP POP JUMP JUMPDEST PUSH0 DUP2 ISZERO ISZERO SWAP1 POP SWAP2 SWAP1 POP JUMP JUMPDEST PUSH2 0x2681 DUP2 PUSH2 0x266D JUMP JUMPDEST DUP3 MSTORE POP POP JUMP JUMPDEST PUSH0 PUSH1 0x20 DUP3 ADD SWAP1 POP PUSH2 0x269A PUSH0 DUP4 ADD DUP5 PUSH2 0x2678 JUMP JUMPDEST SWAP3 SWAP2 POP POP JUMP JUMPDEST PUSH0 DUP2 MLOAD SWAP1 POP SWAP2 SWAP1 POP JUMP JUMPDEST PUSH0 DUP3 DUP3 MSTORE PUSH1 0x20 DUP3 ADD SWAP1 POP SWAP3 SWAP2 POP POP JUMP JUMPDEST PUSH0 JUMPDEST DUP4 DUP2 LT ISZERO PUSH2 0x26D7 JUMPI DUP1 DUP3 ADD MLOAD DUP2 DUP5 ADD MSTORE PUSH1 0x20 DUP2 ADD SWAP1 POP PUSH2 0x26BC JUMP JUMPDEST PUSH0 DUP5 DUP5 ADD MSTORE POP POP POP POP JUMP JUMPDEST PUSH0 PUSH1 0x1F NOT PUSH1 0x1F DUP4 ADD AND SWAP1 POP SWAP2 SWAP1 POP JUMP JUMPDEST PUSH0 PUSH2 0x26FC DUP3 PUSH2 0x26A0 JUMP JUMPDEST PUSH2 0x2706 DUP2 DUP6 PUSH2 0x26AA JUMP JUMPDEST SWAP4 POP PUSH2 0x2716 DUP2 DUP6 PUSH1 0x20 DUP7 ADD PUSH2 0x26BA JUMP JUMPDEST PUSH2 0x271F DUP2 PUSH2 0x26E2 JUMP JUMPDEST DUP5 ADD SWAP2 POP POP SWAP3 SWAP2 POP POP JUMP JUMPDEST PUSH0 PUSH1 0x20 DUP3 ADD SWAP1 POP DUP2 DUP2 SUB PUSH0 DUP4 ADD MSTORE PUSH2 0x2742 DUP2 DUP5 PUSH2 0x26F2 JUMP JUMPDEST SWAP1 POP SWAP3 SWAP2 POP POP JUMP JUMPDEST PUSH0 DUP2 SWAP1 POP SWAP2 SWAP1 POP JUMP JUMPDEST PUSH2 0x275C DUP2 PUSH2 0x274A JUMP JUMPDEST DUP2 EQ PUSH2 0x2766 JUMPI PUSH0 DUP1 REVERT JUMPDEST POP JUMP JUMPDEST PUSH0 DUP2 CALLDATALOAD SWAP1 POP PUSH2 0x2777 DUP2 PUSH2 0x2753 JUMP JUMPDEST SWAP3 SWAP2 POP POP JUMP JUMPDEST PUSH0 PUSH1 0x20 DUP3 DUP5 SUB SLT ISZERO PUSH2 0x2792 JUMPI PUSH2 0x2791 PUSH2 0x25E5 JUMP JUMPDEST JUMPDEST PUSH0 PUSH2 0x279F DUP5 DUP3 DUP6 ADD PUSH2 0x2769 JUMP JUMPDEST SWAP2 POP POP SWAP3 SWAP2 POP POP JUMP JUMPDEST PUSH0 PUSH20 0xFFFFFFFFFFFFFFFFFFFFFFFFFFFFFFFFFFFFFFFF DUP3 AND SWAP1 POP SWAP2 SWAP1 POP JUMP JUMPDEST PUSH0 PUSH2 0x27D1 DUP3 PUSH2 0x27A8 JUMP JUMPDEST SWAP1 POP SWAP2 SWAP1 POP JUMP JUMPDEST PUSH2 0x27E1 DUP2 PUSH2 0x27C7 JUMP JUMPDEST DUP3 MSTORE POP POP JUMP JUMPDEST PUSH0 PUSH1 0x20 DUP3 ADD SWAP1 POP PUSH2 0x27FA PUSH0 DUP4 ADD DUP5 PUSH2 0x27D8 JUMP JUMPDEST SWAP3 SWAP2 POP POP JUMP JUMPDEST PUSH2 0x2809 DUP2 PUSH2 0x27C7 JUMP JUMPDEST DUP2 EQ PUSH2 0x2813 JUMPI PUSH0 DUP1 REVERT JUMPDEST POP JUMP JUMPDEST PUSH0 DUP2 CALLDATALOAD SWAP1 POP PUSH2 0x2824 DUP2 PUSH2 0x2800 JUMP JUMPDEST SWAP3 SWAP2 POP POP JUMP JUMPDEST PUSH0 DUP1 PUSH1 0x40 DUP4 DUP6 SUB SLT ISZERO PUSH2 0x2840 JUMPI PUSH2 0x283F PUSH2 0x25E5 JUMP JUMPDEST JUMPDEST PUSH0 PUSH2 0x284D DUP6 DUP3 DUP7 ADD PUSH2 0x2816 JUMP JUMPDEST SWAP3 POP POP PUSH1 0x20 PUSH2 0x285E DUP6 DUP3 DUP7 ADD PUSH2 0x2769 JUMP JUMPDEST SWAP2 POP POP SWAP3 POP SWAP3 SWAP1 POP JUMP JUMPDEST PUSH0 DUP1 PUSH0 PUSH1 0x60 DUP5 DUP7 SUB SLT ISZERO PUSH2 0x287F JUMPI PUSH2 0x287E PUSH2 0x25E5 JUMP JUMPDEST JUMPDEST PUSH0 PUSH2 0x288C DUP7 DUP3 DUP8 ADD PUSH2 0x2816 JUMP JUMPDEST SWAP4 POP POP PUSH1 0x20 PUSH2 0x289D DUP7 DUP3 DUP8 ADD PUSH2 0x2816 JUMP JUMPDEST SWAP3 POP POP PUSH1 0x40 PUSH2 0x28AE DUP7 DUP3 DUP8 ADD PUSH2 0x2769 JUMP JUMPDEST SWAP2 POP POP SWAP3 POP SWAP3 POP SWAP3 JUMP JUMPDEST PUSH0 PUSH2 0xFFFF DUP3 AND SWAP1 POP SWAP2 SWAP1 POP JUMP JUMPDEST PUSH2 0x28CE DUP2 PUSH2 0x28B8 JUMP JUMPDEST DUP3 MSTORE POP POP JUMP JUMPDEST PUSH0 PUSH1 0x20 DUP3 ADD SWAP1 POP PUSH2 0x28E7 PUSH0 DUP4 ADD DUP5 PUSH2 0x28C5 JUMP JUMPDEST SWAP3 SWAP2 POP POP JUMP JUMPDEST PUSH0 PUSH1 0x20 DUP3 DUP5 SUB SLT ISZERO PUSH2 0x2902 JUMPI PUSH2 0x2901 PUSH2 0x25E5 JUMP JUMPDEST JUMPDEST PUSH0 PUSH2 0x290F DUP5 DUP3 DUP6 ADD PUSH2 0x2816 JUMP JUMPDEST SWAP2 POP POP SWAP3 SWAP2 POP POP JUMP JUMPDEST PUSH2 0x2921 DUP2 PUSH2 0x274A JUMP JUMPDEST DUP3 MSTORE POP POP JUMP JUMPDEST PUSH0 PUSH1 0x20 DUP3 ADD SWAP1 POP PUSH2 0x293A PUSH0 DUP4 ADD DUP5 PUSH2 0x2918 JUMP JUMPDEST SWAP3 SWAP2 POP POP JUMP JUMPDEST PUSH2 0x2949 DUP2 PUSH2 0x266D JUMP JUMPDEST DUP2 EQ PUSH2 0x2953 JUMPI PUSH0 DUP1 REVERT JUMPDEST POP JUMP JUMPDEST PUSH0 DUP2 CALLDATALOAD SWAP1 POP PUSH2 0x2964 DUP2 PUSH2 0x2940 JUMP JUMPDEST SWAP3 SWAP2 POP POP JUMP JUMPDEST PUSH0 DUP1 PUSH1 0x40 DUP4 DUP6 SUB SLT ISZERO PUSH2 0x2980 JUMPI PUSH2 0x297F PUSH2 0x25E5 JUMP JUMPDEST JUMPDEST PUSH0 PUSH2 0x298D DUP6 DUP3 DUP7 ADD PUSH2 0x2816 JUMP JUMPDEST SWAP3 POP POP PUSH1 0x20 PUSH2 0x299E DUP6 DUP3 DUP7 ADD PUSH2 0x2956 JUMP JUMPDEST SWAP2 POP POP SWAP3 POP SWAP3 SWAP1 POP JUMP JUMPDEST PUSH0 DUP1 REVERT JUMPDEST PUSH0 DUP1 REVERT JUMPDEST PUSH32 0x4E487B7100000000000000000000000000000000000000000000000000000000 PUSH0 MSTORE PUSH1 0x41 PUSH1 0x4 MSTORE PUSH1 0x24 PUSH0 REVERT JUMPDEST PUSH2 0x29E6 DUP3 PUSH2 0x26E2 JUMP JUMPDEST DUP2 ADD DUP2 DUP2 LT PUSH8 0xFFFFFFFFFFFFFFFF DUP3 GT OR ISZERO PUSH2 0x2A05 JUMPI PUSH2 0x2A04 PUSH2 0x29B0 JUMP JUMPDEST JUMPDEST DUP1 PUSH1 0x40 MSTORE POP POP POP JUMP JUMPDEST PUSH0 PUSH2 0x2A17 PUSH2 0x25DC JUMP JUMPDEST SWAP1 POP PUSH2 0x2A23 DUP3 DUP3 PUSH2 0x29DD JUMP JUMPDEST SWAP2 SWAP1 POP JUMP JUMPDEST PUSH0 PUSH8 0xFFFFFFFFFFFFFFFF DUP3 GT ISZERO PUSH2 0x2A42 JUMPI PUSH2 0x2A41 PUSH2 0x29B0 JUMP JUMPDEST JUMPDEST PUSH2 0x2A4B DUP3 PUSH2 0x26E2 JUMP JUMPDEST SWAP1 POP PUSH1 0x20 DUP2 ADD SWAP1 POP SWAP2 SWAP1 POP JUMP JUMPDEST DUP3 DUP2 DUP4 CALLDATACOPY PUSH0 DUP4 DUP4 ADD MSTORE POP POP POP JUMP JUMPDEST PUSH0 PUSH2 0x2A78 PUSH2 0x2A73 DUP5 PUSH2 0x2A28 JUMP JUMPDEST PUSH2 0x2A0E JUMP JUMPDEST SWAP1 POP DUP3 DUP2 MSTORE PUSH1 0x20 DUP2 ADD DUP5 DUP5 DUP5 ADD GT ISZERO PUSH2 0x2A94 JUMPI PUSH2 0x2A93 PUSH2 0x29AC JUMP JUMPDEST JUMPDEST PUSH2 0x2A9F DUP5 DUP3 DUP6 PUSH2 0x2A58 JUMP JUMPDEST POP SWAP4 SWAP3 POP POP POP JUMP JUMPDEST PUSH0 DUP3 PUSH1 0x1F DUP4 ADD SLT PUSH2 0x2ABB JUMPI PUSH2 0x2ABA PUSH2 0x29A8 JUMP JUMPDEST JUMPDEST DUP2 CALLDATALOAD PUSH2 0x2ACB DUP5 DUP3 PUSH1 0x20 DUP7 ADD PUSH2 0x2A66 JUMP JUMPDEST SWAP2 POP POP SWAP3 SWAP2 POP POP JUMP JUMPDEST PUSH0 DUP1 PUSH0 DUP1 PUSH1 0x80 DUP6 DUP8 SUB SLT ISZERO PUSH2 0x2AEC JUMPI PUSH2 0x2AEB PUSH2 0x25E5 JUMP JUMPDEST JUMPDEST PUSH0 PUSH2 0x2AF9 DUP8 DUP3 DUP9 ADD PUSH2 0x2816 JUMP JUMPDEST SWAP5 POP POP PUSH1 0x20 PUSH2 0x2B0A DUP8 DUP3 DUP9 ADD PUSH2 0x2816 JUMP JUMPDEST SWAP4 POP POP PUSH1 0x40 PUSH2 0x2B1B DUP8 DUP3 DUP9 ADD PUSH2 0x2769 JUMP JUMPDEST SWAP3 POP POP PUSH1 0x60 DUP6 ADD CALLDATALOAD PUSH8 0xFFFFFFFFFFFFFFFF DUP2 GT ISZERO PUSH2 0x2B3C JUMPI PUSH2 0x2B3B PUSH2 0x25E9 JUMP JUMPDEST JUMPDEST PUSH2 0x2B48 DUP8 DUP3 DUP9 ADD PUSH2 0x2AA7 JUMP JUMPDEST SWAP2 POP POP SWAP3 SWAP6 SWAP2 SWAP5 POP SWAP3 POP JUMP JUMPDEST PUSH0 DUP1 PUSH1 0x40 DUP4 DUP6 SUB SLT ISZERO PUSH2 0x2B6A JUMPI PUSH2 0x2B69 PUSH2 0x25E5 JUMP JUMPDEST JUMPDEST PUSH0 PUSH2 0x2B77 DUP6 DUP3 DUP7 ADD PUSH2 0x2816 JUMP JUMPDEST SWAP3 POP POP PUSH1 0x20 PUSH2 0x2B88 DUP6 DUP3 DUP7 ADD PUSH2 0x2816 JUMP JUMPDEST SWAP2 POP POP SWAP3 POP SWAP3 SWAP1 POP JUMP JUMPDEST PUSH32 0x4E487B7100000000000000000000000000000000000000000000000000000000 PUSH0 MSTORE PUSH1 0x22 PUSH1 0x4 MSTORE PUSH1 0x24 PUSH0 REVERT JUMPDEST PUSH0 PUSH1 0x2 DUP3 DIV SWAP1 POP PUSH1 0x1 DUP3 AND DUP1 PUSH2 0x2BD6 JUMPI PUSH1 0x7F DUP3 AND SWAP2 POP JUMPDEST PUSH1 0x20 DUP3 LT DUP2 SUB PUSH2 0x2BE9 JUMPI PUSH2 0x2BE8 PUSH2 0x2B92 JUMP JUMPDEST JUMPDEST POP SWAP2 SWAP1 POP JUMP JUMPDEST PUSH0 PUSH1 0x60 DUP3 ADD SWAP1 POP PUSH2 0x2C02 PUSH0 DUP4 ADD DUP7 PUSH2 0x27D8 JUMP JUMPDEST PUSH2 0x2C0F PUSH1 0x20 DUP4 ADD DUP6 PUSH2 0x2918 JUMP JUMPDEST PUSH2 0x2C1C PUSH1 0x40 DUP4 ADD DUP5 PUSH2 0x27D8 JUMP JUMPDEST SWAP5 SWAP4 POP POP POP POP JUMP JUMPDEST PUSH32 0x4F6E6C792073706F757365732063616E2063616C6C20746869732066756E6374 PUSH0 DUP3 ADD MSTORE PUSH32 0x696F6E0000000000000000000000000000000000000000000000000000000000 PUSH1 0x20 DUP3 ADD MSTORE POP JUMP JUMPDEST PUSH0 PUSH2 0x2C7E PUSH1 0x23 DUP4 PUSH2 0x26AA JUMP JUMPDEST SWAP2 POP PUSH2 0x2C89 DUP3 PUSH2 0x2C24 JUMP JUMPDEST PUSH1 0x40 DUP3 ADD SWAP1 POP SWAP2 SWAP1 POP JUMP JUMPDEST PUSH0 PUSH1 0x20 DUP3 ADD SWAP1 POP DUP2 DUP2 SUB PUSH0 DUP4 ADD MSTORE PUSH2 0x2CAB DUP2 PUSH2 0x2C72 JUMP JUMPDEST SWAP1 POP SWAP2 SWAP1 POP JUMP JUMPDEST PUSH32 0x43616E6E6F742070726F647563652077656464696E6720636572746966696361 PUSH0 DUP3 ADD MSTORE PUSH32 0x746520666F72206E6F6E2D6D6172726965642070656F706C6500000000000000 PUSH1 0x20 DUP3 ADD MSTORE POP JUMP JUMPDEST PUSH0 PUSH2 0x2D0C PUSH1 0x39 DUP4 PUSH2 0x26AA JUMP JUMPDEST SWAP2 POP PUSH2 0x2D17 DUP3 PUSH2 0x2CB2 JUMP JUMPDEST PUSH1 0x40 DUP3 ADD SWAP1 POP SWAP2 SWAP1 POP JUMP JUMPDEST PUSH0 PUSH1 0x20 DUP3 ADD SWAP1 POP DUP2 DUP2 SUB PUSH0 DUP4 ADD MSTORE PUSH2 0x2D39 DUP2 PUSH2 0x2D00 JUMP JUMPDEST SWAP1 POP SWAP2 SWAP1 POP JUMP JUMPDEST PUSH0 PUSH4 0xFFFFFFFF DUP3 AND SWAP1 POP SWAP2 SWAP1 POP JUMP JUMPDEST PUSH0 DUP2 SWAP1 POP SWAP2 SWAP1 POP JUMP JUMPDEST PUSH0 PUSH2 0x2D72 PUSH2 0x2D6D PUSH2 0x2D68 DUP5 PUSH2 0x2D40 JUMP JUMPDEST PUSH2 0x2D4F JUMP JUMPDEST PUSH2 0x274A JUMP JUMPDEST SWAP1 POP SWAP2 SWAP1 POP JUMP JUMPDEST PUSH2 0x2D82 DUP2 PUSH2 0x2D58 JUMP JUMPDEST DUP3 MSTORE POP POP JUMP JUMPDEST PUSH0 PUSH1 0x20 DUP3 ADD SWAP1 POP PUSH2 0x2D9B PUSH0 DUP4 ADD DUP5 PUSH2 0x2D79 JUMP JUMPDEST SWAP3 SWAP2 POP POP JUMP JUMPDEST PUSH0 DUP2 MLOAD SWAP1 POP PUSH2 0x2DAF DUP2 PUSH2 0x2800 JUMP JUMPDEST SWAP3 SWAP2 POP POP JUMP JUMPDEST PUSH0 PUSH1 0x20 DUP3 DUP5 SUB SLT ISZERO PUSH2 0x2DCA JUMPI PUSH2 0x2DC9 PUSH2 0x25E5 JUMP JUMPDEST JUMPDEST PUSH0 PUSH2 0x2DD7 DUP5 DUP3 DUP6 ADD PUSH2 0x2DA1 JUMP JUMPDEST SWAP2 POP POP SWAP3 SWAP2 POP POP JUMP JUMPDEST PUSH32 0x43616E6E6F742063726561746520616E6F746865722077656464696E67206365 PUSH0 DUP3 ADD MSTORE PUSH32 0x727469666963617465207768656E206F6E652065786973747320666F72207468 PUSH1 0x20 DUP3 ADD MSTORE PUSH32 0x6573652073706F75736573000000000000000000000000000000000000000000 PUSH1 0x40 DUP3 ADD MSTORE POP JUMP JUMPDEST PUSH0 PUSH2 0x2E60 PUSH1 0x4B DUP4 PUSH2 0x26AA JUMP JUMPDEST SWAP2 POP PUSH2 0x2E6B DUP3 PUSH2 0x2DE0 JUMP JUMPDEST PUSH1 0x60 DUP3 ADD SWAP1 POP SWAP2 SWAP1 POP JUMP JUMPDEST PUSH0 PUSH1 0x20 DUP3 ADD SWAP1 POP DUP2 DUP2 SUB PUSH0 DUP4 ADD MSTORE PUSH2 0x2E8D DUP2 PUSH2 0x2E54 JUMP JUMPDEST SWAP1 POP SWAP2 SWAP1 POP JUMP JUMPDEST PUSH32 0x4E487B7100000000000000000000000000000000000000000000000000000000 PUSH0 MSTORE PUSH1 0x11 PUSH1 0x4 MSTORE PUSH1 0x24 PUSH0 REVERT JUMPDEST PUSH0 PUSH2 0x2ECB DUP3 PUSH2 0x2D40 JUMP JUMPDEST SWAP2 POP PUSH2 0x2ED6 DUP4 PUSH2 0x2D40 JUMP JUMPDEST SWAP3 POP DUP3 DUP3 ADD SWAP1 POP PUSH4 0xFFFFFFFF DUP2 GT ISZERO PUSH2 0x2EF2 JUMPI PUSH2 0x2EF1 PUSH2 0x2E94 JUMP JUMPDEST JUMPDEST SWAP3 SWAP2 POP POP JUMP JUMPDEST PUSH32 0x4E6F6E2D6D6172726965642070656F706C652063616E6E6F74206469766F7263 PUSH0 DUP3 ADD MSTORE PUSH32 0x6500000000000000000000000000000000000000000000000000000000000000 PUSH1 0x20 DUP3 ADD MSTORE POP JUMP JUMPDEST PUSH0 PUSH2 0x2F52 PUSH1 0x21 DUP4 PUSH2 0x26AA JUMP JUMPDEST SWAP2 POP PUSH2 0x2F5D DUP3 PUSH2 0x2EF8 JUMP JUMPDEST PUSH1 0x40 DUP3 ADD SWAP1 POP SWAP2 SWAP1 POP JUMP JUMPDEST PUSH0 PUSH1 0x20 DUP3 ADD SWAP1 POP DUP2 DUP2 SUB PUSH0 DUP4 ADD MSTORE PUSH2 0x2F7F DUP2 PUSH2 0x2F46 JUMP JUMPDEST SWAP1 POP SWAP2 SWAP1 POP JUMP JUMPDEST PUSH32 0x4E6F7420656E6F756768207061727469636970616E747320616772656520746F PUSH0 DUP3 ADD MSTORE PUSH32 0x20746865206469766F7263650000000000000000000000000000000000000000 PUSH1 0x20 DUP3 ADD MSTORE POP JUMP JUMPDEST PUSH0 PUSH2 0x2FE0 PUSH1 0x2C DUP4 PUSH2 0x26AA JUMP JUMPDEST SWAP2 POP PUSH2 0x2FEB DUP3 PUSH2 0x2F86 JUMP JUMPDEST PUSH1 0x40 DUP3 ADD SWAP1 POP SWAP2 SWAP1 POP JUMP JUMPDEST PUSH0 PUSH1 0x20 DUP3 ADD SWAP1 POP DUP2 DUP2 SUB PUSH0 DUP4 ADD MSTORE PUSH2 0x300D DUP2 PUSH2 0x2FD4 JUMP JUMPDEST SWAP1 POP SWAP2 SWAP1 POP JUMP JUMPDEST PUSH32 0x4E487B7100000000000000000000000000000000000000000000000000000000 PUSH0 MSTORE PUSH1 0x32 PUSH1 0x4 MSTORE PUSH1 0x24 PUSH0 REVERT JUMPDEST PUSH32 0x43616E6E6F742072652D617574686F72697A6520616E20616464726573730000 PUSH0 DUP3 ADD MSTORE POP JUMP JUMPDEST PUSH0 PUSH2 0x3075 PUSH1 0x1E DUP4 PUSH2 0x26AA JUMP JUMPDEST SWAP2 POP PUSH2 0x3080 DUP3 PUSH2 0x3041 JUMP JUMPDEST PUSH1 0x20 DUP3 ADD SWAP1 POP SWAP2 SWAP1 POP JUMP JUMPDEST PUSH0 PUSH1 0x20 DUP3 ADD SWAP1 POP DUP2 DUP2 SUB PUSH0 DUP4 ADD MSTORE PUSH2 0x30A2 DUP2 PUSH2 0x3069 JUMP JUMPDEST SWAP1 POP SWAP2 SWAP1 POP JUMP JUMPDEST PUSH0 PUSH1 0xFF DUP3 AND SWAP1 POP SWAP2 SWAP1 POP JUMP JUMPDEST PUSH0 PUSH2 0x30BF DUP3 PUSH2 0x30A9 JUMP JUMPDEST SWAP2 POP PUSH1 0xFF DUP3 SUB PUSH2 0x30D2 JUMPI PUSH2 0x30D1 PUSH2 0x2E94 JUMP JUMPDEST JUMPDEST PUSH1 0x1 DUP3 ADD SWAP1 POP SWAP2 SWAP1 POP JUMP JUMPDEST PUSH0 PUSH2 0x30E7 DUP3 PUSH2 0x30A9 JUMP JUMPDEST SWAP2 POP PUSH2 0x30F2 DUP4 PUSH2 0x30A9 JUMP JUMPDEST SWAP3 POP DUP3 DUP3 ADD SWAP1 POP PUSH1 0xFF DUP2 GT ISZERO PUSH2 0x310B JUMPI PUSH2 0x310A PUSH2 0x2E94 JUMP JUMPDEST JUMPDEST SWAP3 SWAP2 POP POP JUMP JUMPDEST PUSH0 DUP2 SWAP1 POP SWAP3 SWAP2 POP POP JUMP JUMPDEST PUSH0 PUSH2 0x3125 DUP3 PUSH2 0x26A0 JUMP JUMPDEST PUSH2 0x312F DUP2 DUP6 PUSH2 0x3111 JUMP JUMPDEST SWAP4 POP PUSH2 0x313F DUP2 DUP6 PUSH1 0x20 DUP7 ADD PUSH2 0x26BA JUMP JUMPDEST DUP1 DUP5 ADD SWAP2 POP POP SWAP3 SWAP2 POP POP JUMP JUMPDEST PUSH0 PUSH2 0x3156 DUP3 DUP6 PUSH2 0x311B JUMP JUMPDEST SWAP2 POP PUSH2 0x3162 DUP3 DUP5 PUSH2 0x311B JUMP JUMPDEST SWAP2 POP DUP2 SWAP1 POP SWAP4 SWAP3 POP POP POP JUMP JUMPDEST PUSH0 DUP2 MLOAD SWAP1 POP SWAP2 SWAP1 POP JUMP JUMPDEST PUSH0 DUP3 DUP3 MSTORE PUSH1 0x20 DUP3 ADD SWAP1 POP SWAP3 SWAP2 POP POP JUMP JUMPDEST PUSH0 PUSH2 0x3192 DUP3 PUSH2 0x316E JUMP JUMPDEST PUSH2 0x319C DUP2 DUP6 PUSH2 0x3178 JUMP JUMPDEST SWAP4 POP PUSH2 0x31AC DUP2 DUP6 PUSH1 0x20 DUP7 ADD PUSH2 0x26BA JUMP JUMPDEST PUSH2 0x31B5 DUP2 PUSH2 0x26E2 JUMP JUMPDEST DUP5 ADD SWAP2 POP POP SWAP3 SWAP2 POP POP JUMP JUMPDEST PUSH0 PUSH1 0x80 DUP3 ADD SWAP1 POP PUSH2 0x31D3 PUSH0 DUP4 ADD DUP8 PUSH2 0x27D8 JUMP JUMPDEST PUSH2 0x31E0 PUSH1 0x20 DUP4 ADD DUP7 PUSH2 0x27D8 JUMP JUMPDEST PUSH2 0x31ED PUSH1 0x40 DUP4 ADD DUP6 PUSH2 0x2918 JUMP JUMPDEST DUP2 DUP2 SUB PUSH1 0x60 DUP4 ADD MSTORE PUSH2 0x31FF DUP2 DUP5 PUSH2 0x3188 JUMP JUMPDEST SWAP1 POP SWAP6 SWAP5 POP POP POP POP POP JUMP JUMPDEST PUSH0 DUP2 MLOAD SWAP1 POP PUSH2 0x3218 DUP2 PUSH2 0x2618 JUMP JUMPDEST SWAP3 SWAP2 POP POP JUMP JUMPDEST PUSH0 PUSH1 0x20 DUP3 DUP5 SUB SLT ISZERO PUSH2 0x3233 JUMPI PUSH2 0x3232 PUSH2 0x25E5 JUMP JUMPDEST JUMPDEST PUSH0 PUSH2 0x3240 DUP5 DUP3 DUP6 ADD PUSH2 0x320A JUMP JUMPDEST SWAP2 POP POP SWAP3 SWAP2 POP POP JUMP JUMPDEST PUSH32 0x4E487B7100000000000000000000000000000000000000000000000000000000 PUSH0 MSTORE PUSH1 0x12 PUSH1 0x4 MSTORE PUSH1 0x24 PUSH0 REVERT JUMPDEST PUSH0 PUSH1 0x40 DUP3 ADD SWAP1 POP PUSH2 0x3289 PUSH0 DUP4 ADD DUP6 PUSH2 0x27D8 JUMP JUMPDEST PUSH2 0x3296 PUSH1 0x20 DUP4 ADD DUP5 PUSH2 0x2918 JUMP JUMPDEST SWAP4 SWAP3 POP POP POP JUMP INVALID LOG2 PUSH5 0x6970667358 0x22 SLT KECCAK256 STOP 0x28 SIGNEXTEND 0x28 0xEB CALLDATALOAD 0xD6 0xC6 INVALID SWAP15 EXTCODECOPY 0xC5 PUSH31 0x6ABEB61341594130679B5578789B992D047E7F64736F6C6343000814003300 "
				},
				"gasEstimates": {
					"creation": {
						"codeDepositCost": "2602200",
						"executionCost": "infinite",
						"totalCost": "infinite"
					},
					"external": {
						"approve(address,uint256)": "infinite",
						"authorizeAccounts(address)": "infinite",
						"balanceOf(address)": "infinite",
						"createWeddingCertificate()": "infinite",
						"divorce(uint256)": "infinite",
						"getApproved(uint256)": "infinite",
						"isApprovedForAll(address,address)": "infinite",
						"isMarried()": "2606",
						"name()": "infinite",
						"ownerOf(uint256)": "infinite",
						"safeTransferFrom(address,address,uint256)": "infinite",
						"safeTransferFrom(address,address,uint256,bytes)": "infinite",
						"setApprovalForAll(address,bool)": "infinite",
						"supportsInterface(bytes4)": "787",
						"symbol()": "infinite",
						"tokenURI(uint256)": "infinite",
						"transferFrom(address,address,uint256)": "infinite",
						"weddingDay()": "2562"
					},
					"internal": {
						"TransferFrom()": "infinite",
						"enoughParticipantsVote(uint256,address)": "infinite"
					}
				},
				"methodIdentifiers": {
					"approve(address,uint256)": "095ea7b3",
					"authorizeAccounts(address)": "bd6690f4",
					"balanceOf(address)": "70a08231",
					"createWeddingCertificate()": "31b3e321",
					"divorce(uint256)": "b49a5bb2",
					"getApproved(uint256)": "081812fc",
					"isApprovedForAll(address,address)": "e985e9c5",
					"isMarried()": "a702314d",
					"name()": "06fdde03",
					"ownerOf(uint256)": "6352211e",
					"safeTransferFrom(address,address,uint256)": "42842e0e",
					"safeTransferFrom(address,address,uint256,bytes)": "b88d4fde",
					"setApprovalForAll(address,bool)": "a22cb465",
					"supportsInterface(bytes4)": "01ffc9a7",
					"symbol()": "95d89b41",
					"tokenURI(uint256)": "c87b56dd",
					"transferFrom(address,address,uint256)": "23b872dd",
					"weddingDay()": "2fc5a6df"
				}
			},
			"storageLayout": {
				"storage": [
					{
						"astId": 317,
						"contract": "marriage_license.sol:MarriageLicense",
						"label": "_name",
						"offset": 0,
						"slot": "0",
						"type": "t_string_storage"
					},
					{
						"astId": 319,
						"contract": "marriage_license.sol:MarriageLicense",
						"label": "_symbol",
						"offset": 0,
						"slot": "1",
						"type": "t_string_storage"
					},
					{
						"astId": 323,
						"contract": "marriage_license.sol:MarriageLicense",
						"label": "_owners",
						"offset": 0,
						"slot": "2",
						"type": "t_mapping(t_uint256,t_address)"
					},
					{
						"astId": 327,
						"contract": "marriage_license.sol:MarriageLicense",
						"label": "_balances",
						"offset": 0,
						"slot": "3",
						"type": "t_mapping(t_address,t_uint256)"
					},
					{
						"astId": 331,
						"contract": "marriage_license.sol:MarriageLicense",
						"label": "_tokenApprovals",
						"offset": 0,
						"slot": "4",
						"type": "t_mapping(t_uint256,t_address)"
					},
					{
						"astId": 337,
						"contract": "marriage_license.sol:MarriageLicense",
						"label": "_operatorApprovals",
						"offset": 0,
						"slot": "5",
						"type": "t_mapping(t_address,t_mapping(t_address,t_bool))"
					},
					{
						"astId": 2936,
						"contract": "marriage_license.sol:MarriageLicense",
						"label": "token1",
						"offset": 0,
						"slot": "6",
						"type": "t_uint32"
					},
					{
						"astId": 2938,
						"contract": "marriage_license.sol:MarriageLicense",
						"label": "token2",
						"offset": 4,
						"slot": "6",
						"type": "t_uint32"
					},
					{
						"astId": 2940,
						"contract": "marriage_license.sol:MarriageLicense",
						"label": "spouse1",
						"offset": 8,
						"slot": "6",
						"type": "t_address"
					},
					{
						"astId": 2942,
						"contract": "marriage_license.sol:MarriageLicense",
						"label": "spouse2",
						"offset": 0,
						"slot": "7",
						"type": "t_address"
					},
					{
						"astId": 2944,
						"contract": "marriage_license.sol:MarriageLicense",
						"label": "isMarried",
						"offset": 20,
						"slot": "7",
						"type": "t_bool"
					},
					{
						"astId": 2946,
						"contract": "marriage_license.sol:MarriageLicense",
						"label": "weddingDay",
						"offset": 21,
						"slot": "7",
						"type": "t_uint16"
					},
					{
						"astId": 2948,
						"contract": "marriage_license.sol:MarriageLicense",
						"label": "spouseCounter",
						"offset": 23,
						"slot": "7",
						"type": "t_uint8"
					},
					{
						"astId": 2950,
						"contract": "marriage_license.sol:MarriageLicense",
						"label": "authorizedCounter",
						"offset": 24,
						"slot": "7",
						"type": "t_uint8"
					},
					{
						"astId": 2953,
						"contract": "marriage_license.sol:MarriageLicense",
						"label": "tokensVoted",
						"offset": 0,
						"slot": "8",
						"type": "t_array(t_uint256)dyn_storage"
					},
					{
						"astId": 2955,
						"contract": "marriage_license.sol:MarriageLicense",
						"label": "verifyAddressesToken",
						"offset": 0,
						"slot": "9",
						"type": "t_uint32"
					},
					{
						"astId": 2958,
						"contract": "marriage_license.sol:MarriageLicense",
						"label": "authorizedAddresses",
						"offset": 0,
						"slot": "10",
						"type": "t_array(t_address)dyn_storage"
					},
					{
						"astId": 2963,
						"contract": "marriage_license.sol:MarriageLicense",
						"label": "authorizedVotingList",
						"offset": 0,
						"slot": "11",
						"type": "t_mapping(t_address,t_array(t_uint8)dyn_storage)"
					},
					{
						"astId": 3020,
						"contract": "marriage_license.sol:MarriageLicense",
						"label": "nftContract",
						"offset": 0,
						"slot": "12",
						"type": "t_contract(IERC721)1410"
					}
				],
				"types": {
					"t_address": {
						"encoding": "inplace",
						"label": "address",
						"numberOfBytes": "20"
					},
					"t_array(t_address)dyn_storage": {
						"base": "t_address",
						"encoding": "dynamic_array",
						"label": "address[]",
						"numberOfBytes": "32"
					},
					"t_array(t_uint256)dyn_storage": {
						"base": "t_uint256",
						"encoding": "dynamic_array",
						"label": "uint256[]",
						"numberOfBytes": "32"
					},
					"t_array(t_uint8)dyn_storage": {
						"base": "t_uint8",
						"encoding": "dynamic_array",
						"label": "uint8[]",
						"numberOfBytes": "32"
					},
					"t_bool": {
						"encoding": "inplace",
						"label": "bool",
						"numberOfBytes": "1"
					},
					"t_contract(IERC721)1410": {
						"encoding": "inplace",
						"label": "contract IERC721",
						"numberOfBytes": "20"
					},
					"t_mapping(t_address,t_array(t_uint8)dyn_storage)": {
						"encoding": "mapping",
						"key": "t_address",
						"label": "mapping(address => uint8[])",
						"numberOfBytes": "32",
						"value": "t_array(t_uint8)dyn_storage"
					},
					"t_mapping(t_address,t_bool)": {
						"encoding": "mapping",
						"key": "t_address",
						"label": "mapping(address => bool)",
						"numberOfBytes": "32",
						"value": "t_bool"
					},
					"t_mapping(t_address,t_mapping(t_address,t_bool))": {
						"encoding": "mapping",
						"key": "t_address",
						"label": "mapping(address => mapping(address => bool))",
						"numberOfBytes": "32",
						"value": "t_mapping(t_address,t_bool)"
					},
					"t_mapping(t_address,t_uint256)": {
						"encoding": "mapping",
						"key": "t_address",
						"label": "mapping(address => uint256)",
						"numberOfBytes": "32",
						"value": "t_uint256"
					},
					"t_mapping(t_uint256,t_address)": {
						"encoding": "mapping",
						"key": "t_uint256",
						"label": "mapping(uint256 => address)",
						"numberOfBytes": "32",
						"value": "t_address"
					},
					"t_string_storage": {
						"encoding": "bytes",
						"label": "string",
						"numberOfBytes": "32"
					},
					"t_uint16": {
						"encoding": "inplace",
						"label": "uint16",
						"numberOfBytes": "2"
					},
					"t_uint256": {
						"encoding": "inplace",
						"label": "uint256",
						"numberOfBytes": "32"
					},
					"t_uint32": {
						"encoding": "inplace",
						"label": "uint32",
						"numberOfBytes": "4"
					},
					"t_uint8": {
						"encoding": "inplace",
						"label": "uint8",
						"numberOfBytes": "1"
					}
				}
			},
			"userdoc": {
				"kind": "user",
				"methods": {},
				"version": 1
			}
		}
	}
}