{
	"marriage_license.sol": {
		"marriage_license": {
			"abi": [
				{
					"inputs": [
						{
							"internalType": "address",
							"name": "spouse",
							"type": "address"
						},
						{
							"internalType": "bool",
							"name": "marriageStatus",
							"type": "bool"
						},
						{
							"internalType": "uint16",
							"name": "weddingDate",
							"type": "uint16"
						}
					],
					"stateMutability": "nonpayable",
					"type": "constructor"
				},
				{
					"inputs": [
						{
							"internalType": "address",
							"name": "sender",
							"type": "address"
						},
						{
							"internalType": "uint256",
							"name": "tokenId",
							"type": "uint256"
						},
						{
							"internalType": "address",
							"name": "owner",
							"type": "address"
						}
					],
					"name": "ERC721IncorrectOwner",
					"type": "error"
				},
				{
					"inputs": [
						{
							"internalType": "address",
							"name": "operator",
							"type": "address"
						},
						{
							"internalType": "uint256",
							"name": "tokenId",
							"type": "uint256"
						}
					],
					"name": "ERC721InsufficientApproval",
					"type": "error"
				},
				{
					"inputs": [
						{
							"internalType": "address",
							"name": "approver",
							"type": "address"
						}
					],
					"name": "ERC721InvalidApprover",
					"type": "error"
				},
				{
					"inputs": [
						{
							"internalType": "address",
							"name": "operator",
							"type": "address"
						}
					],
					"name": "ERC721InvalidOperator",
					"type": "error"
				},
				{
					"inputs": [
						{
							"internalType": "address",
							"name": "owner",
							"type": "address"
						}
					],
					"name": "ERC721InvalidOwner",
					"type": "error"
				},
				{
					"inputs": [
						{
							"internalType": "address",
							"name": "receiver",
							"type": "address"
						}
					],
					"name": "ERC721InvalidReceiver",
					"type": "error"
				},
				{
					"inputs": [
						{
							"internalType": "address",
							"name": "sender",
							"type": "address"
						}
					],
					"name": "ERC721InvalidSender",
					"type": "error"
				},
				{
					"inputs": [
						{
							"internalType": "uint256",
							"name": "tokenId",
							"type": "uint256"
						}
					],
					"name": "ERC721NonexistentToken",
					"type": "error"
				},
				{
					"anonymous": false,
					"inputs": [
						{
							"indexed": true,
							"internalType": "address",
							"name": "owner",
							"type": "address"
						},
						{
							"indexed": true,
							"internalType": "address",
							"name": "approved",
							"type": "address"
						},
						{
							"indexed": true,
							"internalType": "uint256",
							"name": "tokenId",
							"type": "uint256"
						}
					],
					"name": "Approval",
					"type": "event"
				},
				{
					"anonymous": false,
					"inputs": [
						{
							"indexed": true,
							"internalType": "address",
							"name": "owner",
							"type": "address"
						},
						{
							"indexed": true,
							"internalType": "address",
							"name": "operator",
							"type": "address"
						},
						{
							"indexed": false,
							"internalType": "bool",
							"name": "approved",
							"type": "bool"
						}
					],
					"name": "ApprovalForAll",
					"type": "event"
				},
				{
					"anonymous": false,
					"inputs": [
						{
							"indexed": true,
							"internalType": "address",
							"name": "spouse1",
							"type": "address"
						},
						{
							"indexed": true,
							"internalType": "address",
							"name": "spouse2",
							"type": "address"
						}
					],
					"name": "Divorce",
					"type": "event"
				},
				{
					"anonymous": false,
					"inputs": [
						{
							"indexed": true,
							"internalType": "address",
							"name": "from",
							"type": "address"
						},
						{
							"indexed": true,
							"internalType": "address",
							"name": "to",
							"type": "address"
						},
						{
							"indexed": true,
							"internalType": "uint256",
							"name": "tokenId",
							"type": "uint256"
						}
					],
					"name": "Transfer",
					"type": "event"
				},
				{
					"inputs": [
						{
							"internalType": "address",
							"name": "to",
							"type": "address"
						},
						{
							"internalType": "uint256",
							"name": "tokenId",
							"type": "uint256"
						}
					],
					"name": "approve",
					"outputs": [],
					"stateMutability": "nonpayable",
					"type": "function"
				},
				{
					"inputs": [
						{
							"internalType": "address",
							"name": "authorizeAddress",
							"type": "address"
						}
					],
					"name": "authorizeAccounts",
					"outputs": [],
					"stateMutability": "nonpayable",
					"type": "function"
				},
				{
					"inputs": [
						{
							"internalType": "address",
							"name": "owner",
							"type": "address"
						}
					],
					"name": "balanceOf",
					"outputs": [
						{
							"internalType": "uint256",
							"name": "",
							"type": "uint256"
						}
					],
					"stateMutability": "view",
					"type": "function"
				},
				{
					"inputs": [
						{
							"internalType": "uint256",
							"name": "tokenID1",
							"type": "uint256"
						},
						{
							"internalType": "uint256",
							"name": "tokenID2",
							"type": "uint256"
						}
					],
					"name": "createWeddingCertificate",
					"outputs": [],
					"stateMutability": "nonpayable",
					"type": "function"
				},
				{
					"inputs": [
						{
							"internalType": "uint256",
							"name": "tokenId",
							"type": "uint256"
						}
					],
					"name": "divorce",
					"outputs": [],
					"stateMutability": "nonpayable",
					"type": "function"
				},
				{
					"inputs": [
						{
							"internalType": "uint256",
							"name": "tokenId",
							"type": "uint256"
						}
					],
					"name": "getApproved",
					"outputs": [
						{
							"internalType": "address",
							"name": "",
							"type": "address"
						}
					],
					"stateMutability": "view",
					"type": "function"
				},
				{
					"inputs": [
						{
							"internalType": "address",
							"name": "owner",
							"type": "address"
						},
						{
							"internalType": "address",
							"name": "operator",
							"type": "address"
						}
					],
					"name": "isApprovedForAll",
					"outputs": [
						{
							"internalType": "bool",
							"name": "",
							"type": "bool"
						}
					],
					"stateMutability": "view",
					"type": "function"
				},
				{
					"inputs": [],
					"name": "isMarried",
					"outputs": [
						{
							"internalType": "bool",
							"name": "",
							"type": "bool"
						}
					],
					"stateMutability": "view",
					"type": "function"
				},
				{
					"inputs": [],
					"name": "name",
					"outputs": [
						{
							"internalType": "string",
							"name": "",
							"type": "string"
						}
					],
					"stateMutability": "view",
					"type": "function"
				},
				{
					"inputs": [
						{
							"internalType": "uint256",
							"name": "tokenId",
							"type": "uint256"
						}
					],
					"name": "ownerOf",
					"outputs": [
						{
							"internalType": "address",
							"name": "",
							"type": "address"
						}
					],
					"stateMutability": "view",
					"type": "function"
				},
				{
					"inputs": [
						{
							"internalType": "address",
							"name": "from",
							"type": "address"
						},
						{
							"internalType": "address",
							"name": "to",
							"type": "address"
						},
						{
							"internalType": "uint256",
							"name": "tokenId",
							"type": "uint256"
						}
					],
					"name": "safeTransferFrom",
					"outputs": [],
					"stateMutability": "nonpayable",
					"type": "function"
				},
				{
					"inputs": [
						{
							"internalType": "address",
							"name": "from",
							"type": "address"
						},
						{
							"internalType": "address",
							"name": "to",
							"type": "address"
						},
						{
							"internalType": "uint256",
							"name": "tokenId",
							"type": "uint256"
						},
						{
							"internalType": "bytes",
							"name": "data",
							"type": "bytes"
						}
					],
					"name": "safeTransferFrom",
					"outputs": [],
					"stateMutability": "nonpayable",
					"type": "function"
				},
				{
					"inputs": [
						{
							"internalType": "address",
							"name": "operator",
							"type": "address"
						},
						{
							"internalType": "bool",
							"name": "approved",
							"type": "bool"
						}
					],
					"name": "setApprovalForAll",
					"outputs": [],
					"stateMutability": "nonpayable",
					"type": "function"
				},
				{
					"inputs": [
						{
							"internalType": "bytes4",
							"name": "interfaceId",
							"type": "bytes4"
						}
					],
					"name": "supportsInterface",
					"outputs": [
						{
							"internalType": "bool",
							"name": "",
							"type": "bool"
						}
					],
					"stateMutability": "view",
					"type": "function"
				},
				{
					"inputs": [],
					"name": "symbol",
					"outputs": [
						{
							"internalType": "string",
							"name": "",
							"type": "string"
						}
					],
					"stateMutability": "view",
					"type": "function"
				},
				{
					"inputs": [
						{
							"internalType": "uint256",
							"name": "tokenId",
							"type": "uint256"
						}
					],
					"name": "tokenURI",
					"outputs": [
						{
							"internalType": "string",
							"name": "",
							"type": "string"
						}
					],
					"stateMutability": "view",
					"type": "function"
				},
				{
					"inputs": [
						{
							"internalType": "address",
							"name": "from",
							"type": "address"
						},
						{
							"internalType": "address",
							"name": "to",
							"type": "address"
						},
						{
							"internalType": "uint256",
							"name": "tokenId",
							"type": "uint256"
						}
					],
					"name": "transferFrom",
					"outputs": [],
					"stateMutability": "nonpayable",
					"type": "function"
				},
				{
					"inputs": [],
					"name": "weddingDay",
					"outputs": [
						{
							"internalType": "uint16",
							"name": "",
							"type": "uint16"
						}
					],
					"stateMutability": "view",
					"type": "function"
				}
			],
			"devdoc": {
				"errors": {
					"ERC721IncorrectOwner(address,uint256,address)": [
						{
							"details": "Indicates an error related to the ownership over a particular token. Used in transfers.",
							"params": {
								"owner": "Address of the current owner of a token.",
								"sender": "Address whose tokens are being transferred.",
								"tokenId": "Identifier number of a token."
							}
						}
					],
					"ERC721InsufficientApproval(address,uint256)": [
						{
							"details": "Indicates a failure with the `operator`’s approval. Used in transfers.",
							"params": {
								"operator": "Address that may be allowed to operate on tokens without being their owner.",
								"tokenId": "Identifier number of a token."
							}
						}
					],
					"ERC721InvalidApprover(address)": [
						{
							"details": "Indicates a failure with the `approver` of a token to be approved. Used in approvals.",
							"params": {
								"approver": "Address initiating an approval operation."
							}
						}
					],
					"ERC721InvalidOperator(address)": [
						{
							"details": "Indicates a failure with the `operator` to be approved. Used in approvals.",
							"params": {
								"operator": "Address that may be allowed to operate on tokens without being their owner."
							}
						}
					],
					"ERC721InvalidOwner(address)": [
						{
							"details": "Indicates that an address can't be an owner. For example, `address(0)` is a forbidden owner in EIP-20. Used in balance queries.",
							"params": {
								"owner": "Address of the current owner of a token."
							}
						}
					],
					"ERC721InvalidReceiver(address)": [
						{
							"details": "Indicates a failure with the token `receiver`. Used in transfers.",
							"params": {
								"receiver": "Address to which tokens are being transferred."
							}
						}
					],
					"ERC721InvalidSender(address)": [
						{
							"details": "Indicates a failure with the token `sender`. Used in transfers.",
							"params": {
								"sender": "Address whose tokens are being transferred."
							}
						}
					],
					"ERC721NonexistentToken(uint256)": [
						{
							"details": "Indicates a `tokenId` whose `owner` is the zero address.",
							"params": {
								"tokenId": "Identifier number of a token."
							}
						}
					]
				},
				"events": {
					"Approval(address,address,uint256)": {
						"details": "Emitted when `owner` enables `approved` to manage the `tokenId` token."
					},
					"ApprovalForAll(address,address,bool)": {
						"details": "Emitted when `owner` enables or disables (`approved`) `operator` to manage all of its assets."
					},
					"Transfer(address,address,uint256)": {
						"details": "Emitted when `tokenId` token is transferred from `from` to `to`."
					}
				},
				"kind": "dev",
				"methods": {
					"approve(address,uint256)": {
						"details": "See {IERC721-approve}."
					},
					"balanceOf(address)": {
						"details": "See {IERC721-balanceOf}."
					},
					"getApproved(uint256)": {
						"details": "See {IERC721-getApproved}."
					},
					"isApprovedForAll(address,address)": {
						"details": "See {IERC721-isApprovedForAll}."
					},
					"name()": {
						"details": "See {IERC721Metadata-name}."
					},
					"ownerOf(uint256)": {
						"details": "See {IERC721-ownerOf}."
					},
					"safeTransferFrom(address,address,uint256)": {
						"details": "See {IERC721-safeTransferFrom}."
					},
					"safeTransferFrom(address,address,uint256,bytes)": {
						"details": "See {IERC721-safeTransferFrom}."
					},
					"setApprovalForAll(address,bool)": {
						"details": "See {IERC721-setApprovalForAll}."
					},
					"supportsInterface(bytes4)": {
						"details": "See {IERC165-supportsInterface}."
					},
					"symbol()": {
						"details": "See {IERC721Metadata-symbol}."
					},
					"tokenURI(uint256)": {
						"details": "See {IERC721Metadata-tokenURI}."
					},
					"transferFrom(address,address,uint256)": {
						"details": "See {IERC721-transferFrom}."
					}
				},
				"version": 1
			},
			"evm": {
				"assembly": "    /* \"marriage_license.sol\":177:4885  contract marriage_license is ERC721 {... */\n  mstore(0x40, 0x80)\n    /* \"marriage_license.sol\":782:1166  constructor(address spouse, ... */\n  callvalue\n  dup1\n  iszero\n  tag_1\n  jumpi\n  0x00\n  dup1\n  revert\ntag_1:\n  pop\n  mload(0x40)\n  sub(codesize, bytecodeSize)\n  dup1\n  bytecodeSize\n  dup4\n  codecopy\n  dup2\n  dup2\n  add\n  0x40\n  mstore\n  dup2\n  add\n  swap1\n  tag_2\n  swap2\n  swap1\n  tag_3\n  jump\t// in\ntag_2:\n    /* \"@openzeppelin/contracts/token/ERC721/ERC721.sol\":1381:1494  constructor(string memory name_, string memory symbol_) {... */\n  mload(0x40)\n  dup1\n  0x40\n  add\n  0x40\n  mstore\n  dup1\n  0x07\n  dup2\n  mstore\n  0x20\n  add\n  0x57656464696e6700000000000000000000000000000000000000000000000000\n  dup2\n  mstore\n  pop\n  mload(0x40)\n  dup1\n  0x40\n  add\n  0x40\n  mstore\n  dup1\n  0x03\n  dup2\n  mstore\n  0x20\n  add\n  0x7765640000000000000000000000000000000000000000000000000000000000\n  dup2\n  mstore\n  pop\n    /* \"@openzeppelin/contracts/token/ERC721/ERC721.sol\":1455:1460  name_ */\n  dup2\n    /* \"@openzeppelin/contracts/token/ERC721/ERC721.sol\":1447:1452  _name */\n  0x00\n    /* \"@openzeppelin/contracts/token/ERC721/ERC721.sol\":1447:1460  _name = name_ */\n  swap1\n  dup2\n  tag_7\n  swap2\n  swap1\n  tag_8\n  jump\t// in\ntag_7:\n  pop\n    /* \"@openzeppelin/contracts/token/ERC721/ERC721.sol\":1480:1487  symbol_ */\n  dup1\n    /* \"@openzeppelin/contracts/token/ERC721/ERC721.sol\":1470:1477  _symbol */\n  0x01\n    /* \"@openzeppelin/contracts/token/ERC721/ERC721.sol\":1470:1487  _symbol = symbol_ */\n  swap1\n  dup2\n  tag_9\n  swap2\n  swap1\n  tag_8\n  jump\t// in\ntag_9:\n  pop\n    /* \"@openzeppelin/contracts/token/ERC721/ERC721.sol\":1381:1494  constructor(string memory name_, string memory symbol_) {... */\n  pop\n  pop\n    /* \"marriage_license.sol\":951:961  msg.sender */\n  caller\n    /* \"marriage_license.sol\":941:948  spouse1 */\n  0x08\n  0x00\n    /* \"marriage_license.sol\":941:961  spouse1 = msg.sender */\n  0x0100\n  exp\n  dup2\n  sload\n  dup2\n  0xffffffffffffffffffffffffffffffffffffffff\n  mul\n  not\n  and\n  swap1\n  dup4\n  0xffffffffffffffffffffffffffffffffffffffff\n  and\n  mul\n  or\n  swap1\n  sstore\n  pop\n    /* \"marriage_license.sol\":982:988  spouse */\n  dup3\n    /* \"marriage_license.sol\":972:979  spouse2 */\n  0x09\n  0x00\n    /* \"marriage_license.sol\":972:988  spouse2 = spouse */\n  0x0100\n  exp\n  dup2\n  sload\n  dup2\n  0xffffffffffffffffffffffffffffffffffffffff\n  mul\n  not\n  and\n  swap1\n  dup4\n  0xffffffffffffffffffffffffffffffffffffffff\n  and\n  mul\n  or\n  swap1\n  sstore\n  pop\n    /* \"marriage_license.sol\":1012:1023  weddingDate */\n  dup1\n    /* \"marriage_license.sol\":999:1009  weddingDay */\n  0x09\n  0x15\n    /* \"marriage_license.sol\":999:1023  weddingDay = weddingDate */\n  0x0100\n  exp\n  dup2\n  sload\n  dup2\n  0xffff\n  mul\n  not\n  and\n  swap1\n  dup4\n  0xffff\n  and\n  mul\n  or\n  swap1\n  sstore\n  pop\n    /* \"marriage_license.sol\":1046:1060  marriageStatus */\n  dup2\n    /* \"marriage_license.sol\":1034:1043  isMarried */\n  0x09\n  0x14\n    /* \"marriage_license.sol\":1034:1060  isMarried = marriageStatus */\n  0x0100\n  exp\n  dup2\n  sload\n  dup2\n  0xff\n  mul\n  not\n  and\n  swap1\n  dup4\n  iszero\n  iszero\n  mul\n  or\n  swap1\n  sstore\n  pop\n    /* \"marriage_license.sol\":1089:1090  0 */\n  0x00\n    /* \"marriage_license.sol\":1073:1086  spouseCounter */\n  0x09\n  0x17\n    /* \"marriage_license.sol\":1073:1090  spouseCounter = 0 */\n  0x0100\n  exp\n  dup2\n  sload\n  dup2\n  0xff\n  mul\n  not\n  and\n  swap1\n  dup4\n  0xff\n  and\n  mul\n  or\n  swap1\n  sstore\n  pop\n    /* \"marriage_license.sol\":1121:1122  0 */\n  0x00\n    /* \"marriage_license.sol\":1101:1118  authorizedCounter */\n  0x09\n  0x18\n    /* \"marriage_license.sol\":1101:1122  authorizedCounter = 0 */\n  0x0100\n  exp\n  dup2\n  sload\n  dup2\n  0xff\n  mul\n  not\n  and\n  swap1\n  dup4\n  0xff\n  and\n  mul\n  or\n  swap1\n  sstore\n  pop\n    /* \"marriage_license.sol\":1157:1158  0 */\n  0x00\n    /* \"marriage_license.sol\":1134:1154  verifyAddressesToken */\n  0x0b\n    /* \"marriage_license.sol\":1134:1158  verifyAddressesToken = 0 */\n  dup2\n  swap1\n  sstore\n  pop\n    /* \"marriage_license.sol\":782:1166  constructor(address spouse, ... */\n  pop\n  pop\n  pop\n    /* \"marriage_license.sol\":177:4885  contract marriage_license is ERC721 {... */\n  jump(tag_11)\n    /* \"#utility.yul\":88:205   */\ntag_13:\n    /* \"#utility.yul\":197:198   */\n  0x00\n    /* \"#utility.yul\":194:195   */\n  dup1\n    /* \"#utility.yul\":187:199   */\n  revert\n    /* \"#utility.yul\":334:460   */\ntag_15:\n    /* \"#utility.yul\":371:378   */\n  0x00\n    /* \"#utility.yul\":411:453   */\n  0xffffffffffffffffffffffffffffffffffffffff\n    /* \"#utility.yul\":404:409   */\n  dup3\n    /* \"#utility.yul\":400:454   */\n  and\n    /* \"#utility.yul\":389:454   */\n  swap1\n  pop\n    /* \"#utility.yul\":334:460   */\n  swap2\n  swap1\n  pop\n  jump\t// out\n    /* \"#utility.yul\":466:562   */\ntag_16:\n    /* \"#utility.yul\":503:510   */\n  0x00\n    /* \"#utility.yul\":532:556   */\n  tag_51\n    /* \"#utility.yul\":550:555   */\n  dup3\n    /* \"#utility.yul\":532:556   */\n  tag_15\n  jump\t// in\ntag_51:\n    /* \"#utility.yul\":521:556   */\n  swap1\n  pop\n    /* \"#utility.yul\":466:562   */\n  swap2\n  swap1\n  pop\n  jump\t// out\n    /* \"#utility.yul\":568:690   */\ntag_17:\n    /* \"#utility.yul\":641:665   */\n  tag_53\n    /* \"#utility.yul\":659:664   */\n  dup2\n    /* \"#utility.yul\":641:665   */\n  tag_16\n  jump\t// in\ntag_53:\n    /* \"#utility.yul\":634:639   */\n  dup2\n    /* \"#utility.yul\":631:666   */\n  eq\n    /* \"#utility.yul\":621:684   */\n  tag_54\n  jumpi\n    /* \"#utility.yul\":680:681   */\n  0x00\n    /* \"#utility.yul\":677:678   */\n  dup1\n    /* \"#utility.yul\":670:682   */\n  revert\n    /* \"#utility.yul\":621:684   */\ntag_54:\n    /* \"#utility.yul\":568:690   */\n  pop\n  jump\t// out\n    /* \"#utility.yul\":696:839   */\ntag_18:\n    /* \"#utility.yul\":753:758   */\n  0x00\n    /* \"#utility.yul\":784:790   */\n  dup2\n    /* \"#utility.yul\":778:791   */\n  mload\n    /* \"#utility.yul\":769:791   */\n  swap1\n  pop\n    /* \"#utility.yul\":800:833   */\n  tag_56\n    /* \"#utility.yul\":827:832   */\n  dup2\n    /* \"#utility.yul\":800:833   */\n  tag_17\n  jump\t// in\ntag_56:\n    /* \"#utility.yul\":696:839   */\n  swap3\n  swap2\n  pop\n  pop\n  jump\t// out\n    /* \"#utility.yul\":845:935   */\ntag_19:\n    /* \"#utility.yul\":879:886   */\n  0x00\n    /* \"#utility.yul\":922:927   */\n  dup2\n    /* \"#utility.yul\":915:928   */\n  iszero\n    /* \"#utility.yul\":908:929   */\n  iszero\n    /* \"#utility.yul\":897:929   */\n  swap1\n  pop\n    /* \"#utility.yul\":845:935   */\n  swap2\n  swap1\n  pop\n  jump\t// out\n    /* \"#utility.yul\":941:1057   */\ntag_20:\n    /* \"#utility.yul\":1011:1032   */\n  tag_59\n    /* \"#utility.yul\":1026:1031   */\n  dup2\n    /* \"#utility.yul\":1011:1032   */\n  tag_19\n  jump\t// in\ntag_59:\n    /* \"#utility.yul\":1004:1009   */\n  dup2\n    /* \"#utility.yul\":1001:1033   */\n  eq\n    /* \"#utility.yul\":991:1051   */\n  tag_60\n  jumpi\n    /* \"#utility.yul\":1047:1048   */\n  0x00\n    /* \"#utility.yul\":1044:1045   */\n  dup1\n    /* \"#utility.yul\":1037:1049   */\n  revert\n    /* \"#utility.yul\":991:1051   */\ntag_60:\n    /* \"#utility.yul\":941:1057   */\n  pop\n  jump\t// out\n    /* \"#utility.yul\":1063:1200   */\ntag_21:\n    /* \"#utility.yul\":1117:1122   */\n  0x00\n    /* \"#utility.yul\":1148:1154   */\n  dup2\n    /* \"#utility.yul\":1142:1155   */\n  mload\n    /* \"#utility.yul\":1133:1155   */\n  swap1\n  pop\n    /* \"#utility.yul\":1164:1194   */\n  tag_62\n    /* \"#utility.yul\":1188:1193   */\n  dup2\n    /* \"#utility.yul\":1164:1194   */\n  tag_20\n  jump\t// in\ntag_62:\n    /* \"#utility.yul\":1063:1200   */\n  swap3\n  swap2\n  pop\n  pop\n  jump\t// out\n    /* \"#utility.yul\":1206:1295   */\ntag_22:\n    /* \"#utility.yul\":1242:1249   */\n  0x00\n    /* \"#utility.yul\":1282:1288   */\n  0xffff\n    /* \"#utility.yul\":1275:1280   */\n  dup3\n    /* \"#utility.yul\":1271:1289   */\n  and\n    /* \"#utility.yul\":1260:1289   */\n  swap1\n  pop\n    /* \"#utility.yul\":1206:1295   */\n  swap2\n  swap1\n  pop\n  jump\t// out\n    /* \"#utility.yul\":1301:1421   */\ntag_23:\n    /* \"#utility.yul\":1373:1396   */\n  tag_65\n    /* \"#utility.yul\":1390:1395   */\n  dup2\n    /* \"#utility.yul\":1373:1396   */\n  tag_22\n  jump\t// in\ntag_65:\n    /* \"#utility.yul\":1366:1371   */\n  dup2\n    /* \"#utility.yul\":1363:1397   */\n  eq\n    /* \"#utility.yul\":1353:1415   */\n  tag_66\n  jumpi\n    /* \"#utility.yul\":1411:1412   */\n  0x00\n    /* \"#utility.yul\":1408:1409   */\n  dup1\n    /* \"#utility.yul\":1401:1413   */\n  revert\n    /* \"#utility.yul\":1353:1415   */\ntag_66:\n    /* \"#utility.yul\":1301:1421   */\n  pop\n  jump\t// out\n    /* \"#utility.yul\":1427:1568   */\ntag_24:\n    /* \"#utility.yul\":1483:1488   */\n  0x00\n    /* \"#utility.yul\":1514:1520   */\n  dup2\n    /* \"#utility.yul\":1508:1521   */\n  mload\n    /* \"#utility.yul\":1499:1521   */\n  swap1\n  pop\n    /* \"#utility.yul\":1530:1562   */\n  tag_68\n    /* \"#utility.yul\":1556:1561   */\n  dup2\n    /* \"#utility.yul\":1530:1562   */\n  tag_23\n  jump\t// in\ntag_68:\n    /* \"#utility.yul\":1427:1568   */\n  swap3\n  swap2\n  pop\n  pop\n  jump\t// out\n    /* \"#utility.yul\":1574:2229   */\ntag_3:\n    /* \"#utility.yul\":1658:1664   */\n  0x00\n    /* \"#utility.yul\":1666:1672   */\n  dup1\n    /* \"#utility.yul\":1674:1680   */\n  0x00\n    /* \"#utility.yul\":1723:1725   */\n  0x60\n    /* \"#utility.yul\":1711:1720   */\n  dup5\n    /* \"#utility.yul\":1702:1709   */\n  dup7\n    /* \"#utility.yul\":1698:1721   */\n  sub\n    /* \"#utility.yul\":1694:1726   */\n  slt\n    /* \"#utility.yul\":1691:1810   */\n  iszero\n  tag_70\n  jumpi\n    /* \"#utility.yul\":1729:1808   */\n  tag_71\n  tag_13\n  jump\t// in\ntag_71:\n    /* \"#utility.yul\":1691:1810   */\ntag_70:\n    /* \"#utility.yul\":1849:1850   */\n  0x00\n    /* \"#utility.yul\":1874:1938   */\n  tag_72\n    /* \"#utility.yul\":1930:1937   */\n  dup7\n    /* \"#utility.yul\":1921:1927   */\n  dup3\n    /* \"#utility.yul\":1910:1919   */\n  dup8\n    /* \"#utility.yul\":1906:1928   */\n  add\n    /* \"#utility.yul\":1874:1938   */\n  tag_18\n  jump\t// in\ntag_72:\n    /* \"#utility.yul\":1864:1938   */\n  swap4\n  pop\n    /* \"#utility.yul\":1820:1948   */\n  pop\n    /* \"#utility.yul\":1987:1989   */\n  0x20\n    /* \"#utility.yul\":2013:2074   */\n  tag_73\n    /* \"#utility.yul\":2066:2073   */\n  dup7\n    /* \"#utility.yul\":2057:2063   */\n  dup3\n    /* \"#utility.yul\":2046:2055   */\n  dup8\n    /* \"#utility.yul\":2042:2064   */\n  add\n    /* \"#utility.yul\":2013:2074   */\n  tag_21\n  jump\t// in\ntag_73:\n    /* \"#utility.yul\":2003:2074   */\n  swap3\n  pop\n    /* \"#utility.yul\":1958:2084   */\n  pop\n    /* \"#utility.yul\":2123:2125   */\n  0x40\n    /* \"#utility.yul\":2149:2212   */\n  tag_74\n    /* \"#utility.yul\":2204:2211   */\n  dup7\n    /* \"#utility.yul\":2195:2201   */\n  dup3\n    /* \"#utility.yul\":2184:2193   */\n  dup8\n    /* \"#utility.yul\":2180:2202   */\n  add\n    /* \"#utility.yul\":2149:2212   */\n  tag_24\n  jump\t// in\ntag_74:\n    /* \"#utility.yul\":2139:2212   */\n  swap2\n  pop\n    /* \"#utility.yul\":2094:2222   */\n  pop\n    /* \"#utility.yul\":1574:2229   */\n  swap3\n  pop\n  swap3\n  pop\n  swap3\n  jump\t// out\n    /* \"#utility.yul\":2235:2334   */\ntag_25:\n    /* \"#utility.yul\":2287:2293   */\n  0x00\n    /* \"#utility.yul\":2321:2326   */\n  dup2\n    /* \"#utility.yul\":2315:2327   */\n  mload\n    /* \"#utility.yul\":2305:2327   */\n  swap1\n  pop\n    /* \"#utility.yul\":2235:2334   */\n  swap2\n  swap1\n  pop\n  jump\t// out\n    /* \"#utility.yul\":2340:2520   */\ntag_26:\n    /* \"#utility.yul\":2388:2465   */\n  0x4e487b7100000000000000000000000000000000000000000000000000000000\n    /* \"#utility.yul\":2385:2386   */\n  0x00\n    /* \"#utility.yul\":2378:2466   */\n  mstore\n    /* \"#utility.yul\":2485:2489   */\n  0x41\n    /* \"#utility.yul\":2482:2483   */\n  0x04\n    /* \"#utility.yul\":2475:2490   */\n  mstore\n    /* \"#utility.yul\":2509:2513   */\n  0x24\n    /* \"#utility.yul\":2506:2507   */\n  0x00\n    /* \"#utility.yul\":2499:2514   */\n  revert\n    /* \"#utility.yul\":2526:2706   */\ntag_27:\n    /* \"#utility.yul\":2574:2651   */\n  0x4e487b7100000000000000000000000000000000000000000000000000000000\n    /* \"#utility.yul\":2571:2572   */\n  0x00\n    /* \"#utility.yul\":2564:2652   */\n  mstore\n    /* \"#utility.yul\":2671:2675   */\n  0x22\n    /* \"#utility.yul\":2668:2669   */\n  0x04\n    /* \"#utility.yul\":2661:2676   */\n  mstore\n    /* \"#utility.yul\":2695:2699   */\n  0x24\n    /* \"#utility.yul\":2692:2693   */\n  0x00\n    /* \"#utility.yul\":2685:2700   */\n  revert\n    /* \"#utility.yul\":2712:3032   */\ntag_28:\n    /* \"#utility.yul\":2756:2762   */\n  0x00\n    /* \"#utility.yul\":2793:2794   */\n  0x02\n    /* \"#utility.yul\":2787:2791   */\n  dup3\n    /* \"#utility.yul\":2783:2795   */\n  div\n    /* \"#utility.yul\":2773:2795   */\n  swap1\n  pop\n    /* \"#utility.yul\":2840:2841   */\n  0x01\n    /* \"#utility.yul\":2834:2838   */\n  dup3\n    /* \"#utility.yul\":2830:2842   */\n  and\n    /* \"#utility.yul\":2861:2879   */\n  dup1\n    /* \"#utility.yul\":2851:2932   */\n  tag_79\n  jumpi\n    /* \"#utility.yul\":2917:2921   */\n  0x7f\n    /* \"#utility.yul\":2909:2915   */\n  dup3\n    /* \"#utility.yul\":2905:2922   */\n  and\n    /* \"#utility.yul\":2895:2922   */\n  swap2\n  pop\n    /* \"#utility.yul\":2851:2932   */\ntag_79:\n    /* \"#utility.yul\":2979:2981   */\n  0x20\n    /* \"#utility.yul\":2971:2977   */\n  dup3\n    /* \"#utility.yul\":2968:2982   */\n  lt\n    /* \"#utility.yul\":2948:2966   */\n  dup2\n    /* \"#utility.yul\":2945:2983   */\n  sub\n    /* \"#utility.yul\":2942:3026   */\n  tag_80\n  jumpi\n    /* \"#utility.yul\":2998:3016   */\n  tag_81\n  tag_27\n  jump\t// in\ntag_81:\n    /* \"#utility.yul\":2942:3026   */\ntag_80:\n    /* \"#utility.yul\":2763:3032   */\n  pop\n    /* \"#utility.yul\":2712:3032   */\n  swap2\n  swap1\n  pop\n  jump\t// out\n    /* \"#utility.yul\":3038:3179   */\ntag_29:\n    /* \"#utility.yul\":3087:3091   */\n  0x00\n    /* \"#utility.yul\":3110:3113   */\n  dup2\n    /* \"#utility.yul\":3102:3113   */\n  swap1\n  pop\n    /* \"#utility.yul\":3133:3136   */\n  dup2\n    /* \"#utility.yul\":3130:3131   */\n  0x00\n    /* \"#utility.yul\":3123:3137   */\n  mstore\n    /* \"#utility.yul\":3167:3171   */\n  0x20\n    /* \"#utility.yul\":3164:3165   */\n  0x00\n    /* \"#utility.yul\":3154:3172   */\n  keccak256\n    /* \"#utility.yul\":3146:3172   */\n  swap1\n  pop\n    /* \"#utility.yul\":3038:3179   */\n  swap2\n  swap1\n  pop\n  jump\t// out\n    /* \"#utility.yul\":3185:3278   */\ntag_30:\n    /* \"#utility.yul\":3222:3228   */\n  0x00\n    /* \"#utility.yul\":3269:3271   */\n  0x20\n    /* \"#utility.yul\":3264:3266   */\n  0x1f\n    /* \"#utility.yul\":3257:3262   */\n  dup4\n    /* \"#utility.yul\":3253:3267   */\n  add\n    /* \"#utility.yul\":3249:3272   */\n  div\n    /* \"#utility.yul\":3239:3272   */\n  swap1\n  pop\n    /* \"#utility.yul\":3185:3278   */\n  swap2\n  swap1\n  pop\n  jump\t// out\n    /* \"#utility.yul\":3284:3391   */\ntag_31:\n    /* \"#utility.yul\":3328:3336   */\n  0x00\n    /* \"#utility.yul\":3378:3383   */\n  dup3\n    /* \"#utility.yul\":3372:3376   */\n  dup3\n    /* \"#utility.yul\":3368:3384   */\n  shl\n    /* \"#utility.yul\":3347:3384   */\n  swap1\n  pop\n    /* \"#utility.yul\":3284:3391   */\n  swap3\n  swap2\n  pop\n  pop\n  jump\t// out\n    /* \"#utility.yul\":3397:3790   */\ntag_32:\n    /* \"#utility.yul\":3466:3472   */\n  0x00\n    /* \"#utility.yul\":3516:3517   */\n  0x08\n    /* \"#utility.yul\":3504:3514   */\n  dup4\n    /* \"#utility.yul\":3500:3518   */\n  mul\n    /* \"#utility.yul\":3539:3636   */\n  tag_86\n    /* \"#utility.yul\":3569:3635   */\n  0xffffffffffffffffffffffffffffffffffffffffffffffffffffffffffffffff\n    /* \"#utility.yul\":3558:3567   */\n  dup3\n    /* \"#utility.yul\":3539:3636   */\n  tag_31\n  jump\t// in\ntag_86:\n    /* \"#utility.yul\":3657:3696   */\n  tag_87\n    /* \"#utility.yul\":3687:3695   */\n  dup7\n    /* \"#utility.yul\":3676:3685   */\n  dup4\n    /* \"#utility.yul\":3657:3696   */\n  tag_31\n  jump\t// in\ntag_87:\n    /* \"#utility.yul\":3645:3696   */\n  swap6\n  pop\n    /* \"#utility.yul\":3729:3733   */\n  dup1\n    /* \"#utility.yul\":3725:3734   */\n  not\n    /* \"#utility.yul\":3718:3723   */\n  dup5\n    /* \"#utility.yul\":3714:3735   */\n  and\n    /* \"#utility.yul\":3705:3735   */\n  swap4\n  pop\n    /* \"#utility.yul\":3778:3782   */\n  dup1\n    /* \"#utility.yul\":3768:3776   */\n  dup7\n    /* \"#utility.yul\":3764:3783   */\n  and\n    /* \"#utility.yul\":3757:3762   */\n  dup5\n    /* \"#utility.yul\":3754:3784   */\n  or\n    /* \"#utility.yul\":3744:3784   */\n  swap3\n  pop\n    /* \"#utility.yul\":3473:3790   */\n  pop\n  pop\n    /* \"#utility.yul\":3397:3790   */\n  swap4\n  swap3\n  pop\n  pop\n  pop\n  jump\t// out\n    /* \"#utility.yul\":3796:3873   */\ntag_33:\n    /* \"#utility.yul\":3833:3840   */\n  0x00\n    /* \"#utility.yul\":3862:3867   */\n  dup2\n    /* \"#utility.yul\":3851:3867   */\n  swap1\n  pop\n    /* \"#utility.yul\":3796:3873   */\n  swap2\n  swap1\n  pop\n  jump\t// out\n    /* \"#utility.yul\":3879:3939   */\ntag_34:\n    /* \"#utility.yul\":3907:3910   */\n  0x00\n    /* \"#utility.yul\":3928:3933   */\n  dup2\n    /* \"#utility.yul\":3921:3933   */\n  swap1\n  pop\n    /* \"#utility.yul\":3879:3939   */\n  swap2\n  swap1\n  pop\n  jump\t// out\n    /* \"#utility.yul\":3945:4087   */\ntag_35:\n    /* \"#utility.yul\":3995:4004   */\n  0x00\n    /* \"#utility.yul\":4028:4081   */\n  tag_91\n    /* \"#utility.yul\":4046:4080   */\n  tag_92\n    /* \"#utility.yul\":4055:4079   */\n  tag_93\n    /* \"#utility.yul\":4073:4078   */\n  dup5\n    /* \"#utility.yul\":4055:4079   */\n  tag_33\n  jump\t// in\ntag_93:\n    /* \"#utility.yul\":4046:4080   */\n  tag_34\n  jump\t// in\ntag_92:\n    /* \"#utility.yul\":4028:4081   */\n  tag_33\n  jump\t// in\ntag_91:\n    /* \"#utility.yul\":4015:4081   */\n  swap1\n  pop\n    /* \"#utility.yul\":3945:4087   */\n  swap2\n  swap1\n  pop\n  jump\t// out\n    /* \"#utility.yul\":4093:4168   */\ntag_36:\n    /* \"#utility.yul\":4136:4139   */\n  0x00\n    /* \"#utility.yul\":4157:4162   */\n  dup2\n    /* \"#utility.yul\":4150:4162   */\n  swap1\n  pop\n    /* \"#utility.yul\":4093:4168   */\n  swap2\n  swap1\n  pop\n  jump\t// out\n    /* \"#utility.yul\":4174:4443   */\ntag_37:\n    /* \"#utility.yul\":4284:4323   */\n  tag_96\n    /* \"#utility.yul\":4315:4322   */\n  dup4\n    /* \"#utility.yul\":4284:4323   */\n  tag_35\n  jump\t// in\ntag_96:\n    /* \"#utility.yul\":4345:4436   */\n  tag_97\n    /* \"#utility.yul\":4394:4435   */\n  tag_98\n    /* \"#utility.yul\":4418:4434   */\n  dup3\n    /* \"#utility.yul\":4394:4435   */\n  tag_36\n  jump\t// in\ntag_98:\n    /* \"#utility.yul\":4386:4392   */\n  dup5\n    /* \"#utility.yul\":4379:4383   */\n  dup5\n    /* \"#utility.yul\":4373:4384   */\n  sload\n    /* \"#utility.yul\":4345:4436   */\n  tag_32\n  jump\t// in\ntag_97:\n    /* \"#utility.yul\":4339:4343   */\n  dup3\n    /* \"#utility.yul\":4332:4437   */\n  sstore\n    /* \"#utility.yul\":4250:4443   */\n  pop\n    /* \"#utility.yul\":4174:4443   */\n  pop\n  pop\n  pop\n  jump\t// out\n    /* \"#utility.yul\":4449:4522   */\ntag_38:\n    /* \"#utility.yul\":4494:4497   */\n  0x00\n    /* \"#utility.yul\":4449:4522   */\n  swap1\n  jump\t// out\n    /* \"#utility.yul\":4528:4717   */\ntag_39:\n    /* \"#utility.yul\":4605:4637   */\n  tag_101\n  tag_38\n  jump\t// in\ntag_101:\n    /* \"#utility.yul\":4646:4711   */\n  tag_102\n    /* \"#utility.yul\":4704:4710   */\n  dup2\n    /* \"#utility.yul\":4696:4702   */\n  dup5\n    /* \"#utility.yul\":4690:4694   */\n  dup5\n    /* \"#utility.yul\":4646:4711   */\n  tag_37\n  jump\t// in\ntag_102:\n    /* \"#utility.yul\":4581:4717   */\n  pop\n    /* \"#utility.yul\":4528:4717   */\n  pop\n  pop\n  jump\t// out\n    /* \"#utility.yul\":4723:4909   */\ntag_40:\n    /* \"#utility.yul\":4783:4903   */\ntag_104:\n    /* \"#utility.yul\":4800:4803   */\n  dup2\n    /* \"#utility.yul\":4793:4798   */\n  dup2\n    /* \"#utility.yul\":4790:4804   */\n  lt\n    /* \"#utility.yul\":4783:4903   */\n  iszero\n  tag_106\n  jumpi\n    /* \"#utility.yul\":4854:4893   */\n  tag_107\n    /* \"#utility.yul\":4891:4892   */\n  0x00\n    /* \"#utility.yul\":4884:4889   */\n  dup3\n    /* \"#utility.yul\":4854:4893   */\n  tag_39\n  jump\t// in\ntag_107:\n    /* \"#utility.yul\":4827:4828   */\n  0x01\n    /* \"#utility.yul\":4820:4825   */\n  dup2\n    /* \"#utility.yul\":4816:4829   */\n  add\n    /* \"#utility.yul\":4807:4829   */\n  swap1\n  pop\n    /* \"#utility.yul\":4783:4903   */\n  jump(tag_104)\ntag_106:\n    /* \"#utility.yul\":4723:4909   */\n  pop\n  pop\n  jump\t// out\n    /* \"#utility.yul\":4915:5458   */\ntag_41:\n    /* \"#utility.yul\":5016:5018   */\n  0x1f\n    /* \"#utility.yul\":5011:5014   */\n  dup3\n    /* \"#utility.yul\":5008:5019   */\n  gt\n    /* \"#utility.yul\":5005:5451   */\n  iszero\n  tag_109\n  jumpi\n    /* \"#utility.yul\":5050:5088   */\n  tag_110\n    /* \"#utility.yul\":5082:5087   */\n  dup2\n    /* \"#utility.yul\":5050:5088   */\n  tag_29\n  jump\t// in\ntag_110:\n    /* \"#utility.yul\":5134:5163   */\n  tag_111\n    /* \"#utility.yul\":5152:5162   */\n  dup5\n    /* \"#utility.yul\":5134:5163   */\n  tag_30\n  jump\t// in\ntag_111:\n    /* \"#utility.yul\":5124:5132   */\n  dup2\n    /* \"#utility.yul\":5120:5164   */\n  add\n    /* \"#utility.yul\":5317:5319   */\n  0x20\n    /* \"#utility.yul\":5305:5315   */\n  dup6\n    /* \"#utility.yul\":5302:5320   */\n  lt\n    /* \"#utility.yul\":5299:5348   */\n  iszero\n  tag_112\n  jumpi\n    /* \"#utility.yul\":5338:5346   */\n  dup2\n    /* \"#utility.yul\":5323:5346   */\n  swap1\n  pop\n    /* \"#utility.yul\":5299:5348   */\ntag_112:\n    /* \"#utility.yul\":5361:5441   */\n  tag_113\n    /* \"#utility.yul\":5417:5439   */\n  tag_114\n    /* \"#utility.yul\":5435:5438   */\n  dup6\n    /* \"#utility.yul\":5417:5439   */\n  tag_30\n  jump\t// in\ntag_114:\n    /* \"#utility.yul\":5407:5415   */\n  dup4\n    /* \"#utility.yul\":5403:5440   */\n  add\n    /* \"#utility.yul\":5390:5401   */\n  dup3\n    /* \"#utility.yul\":5361:5441   */\n  tag_40\n  jump\t// in\ntag_113:\n    /* \"#utility.yul\":5020:5451   */\n  pop\n  pop\n    /* \"#utility.yul\":5005:5451   */\ntag_109:\n    /* \"#utility.yul\":4915:5458   */\n  pop\n  pop\n  pop\n  jump\t// out\n    /* \"#utility.yul\":5464:5581   */\ntag_42:\n    /* \"#utility.yul\":5518:5526   */\n  0x00\n    /* \"#utility.yul\":5568:5573   */\n  dup3\n    /* \"#utility.yul\":5562:5566   */\n  dup3\n    /* \"#utility.yul\":5558:5574   */\n  shr\n    /* \"#utility.yul\":5537:5574   */\n  swap1\n  pop\n    /* \"#utility.yul\":5464:5581   */\n  swap3\n  swap2\n  pop\n  pop\n  jump\t// out\n    /* \"#utility.yul\":5587:5756   */\ntag_43:\n    /* \"#utility.yul\":5631:5637   */\n  0x00\n    /* \"#utility.yul\":5664:5715   */\n  tag_117\n    /* \"#utility.yul\":5712:5713   */\n  0x00\n    /* \"#utility.yul\":5708:5714   */\n  not\n    /* \"#utility.yul\":5700:5705   */\n  dup5\n    /* \"#utility.yul\":5697:5698   */\n  0x08\n    /* \"#utility.yul\":5693:5706   */\n  mul\n    /* \"#utility.yul\":5664:5715   */\n  tag_42\n  jump\t// in\ntag_117:\n    /* \"#utility.yul\":5660:5716   */\n  not\n    /* \"#utility.yul\":5745:5749   */\n  dup1\n    /* \"#utility.yul\":5739:5743   */\n  dup4\n    /* \"#utility.yul\":5735:5750   */\n  and\n    /* \"#utility.yul\":5725:5750   */\n  swap2\n  pop\n    /* \"#utility.yul\":5638:5756   */\n  pop\n    /* \"#utility.yul\":5587:5756   */\n  swap3\n  swap2\n  pop\n  pop\n  jump\t// out\n    /* \"#utility.yul\":5761:6056   */\ntag_44:\n    /* \"#utility.yul\":5837:5841   */\n  0x00\n    /* \"#utility.yul\":5983:6012   */\n  tag_119\n    /* \"#utility.yul\":6008:6011   */\n  dup4\n    /* \"#utility.yul\":6002:6006   */\n  dup4\n    /* \"#utility.yul\":5983:6012   */\n  tag_43\n  jump\t// in\ntag_119:\n    /* \"#utility.yul\":5975:6012   */\n  swap2\n  pop\n    /* \"#utility.yul\":6045:6048   */\n  dup3\n    /* \"#utility.yul\":6042:6043   */\n  0x02\n    /* \"#utility.yul\":6038:6049   */\n  mul\n    /* \"#utility.yul\":6032:6036   */\n  dup3\n    /* \"#utility.yul\":6029:6050   */\n  or\n    /* \"#utility.yul\":6021:6050   */\n  swap1\n  pop\n    /* \"#utility.yul\":5761:6056   */\n  swap3\n  swap2\n  pop\n  pop\n  jump\t// out\n    /* \"#utility.yul\":6061:7456   */\ntag_8:\n    /* \"#utility.yul\":6178:6215   */\n  tag_121\n    /* \"#utility.yul\":6211:6214   */\n  dup3\n    /* \"#utility.yul\":6178:6215   */\n  tag_25\n  jump\t// in\ntag_121:\n    /* \"#utility.yul\":6280:6298   */\n  0xffffffffffffffff\n    /* \"#utility.yul\":6272:6278   */\n  dup2\n    /* \"#utility.yul\":6269:6299   */\n  gt\n    /* \"#utility.yul\":6266:6322   */\n  iszero\n  tag_122\n  jumpi\n    /* \"#utility.yul\":6302:6320   */\n  tag_123\n  tag_26\n  jump\t// in\ntag_123:\n    /* \"#utility.yul\":6266:6322   */\ntag_122:\n    /* \"#utility.yul\":6346:6384   */\n  tag_124\n    /* \"#utility.yul\":6378:6382   */\n  dup3\n    /* \"#utility.yul\":6372:6383   */\n  sload\n    /* \"#utility.yul\":6346:6384   */\n  tag_28\n  jump\t// in\ntag_124:\n    /* \"#utility.yul\":6431:6498   */\n  tag_125\n    /* \"#utility.yul\":6491:6497   */\n  dup3\n    /* \"#utility.yul\":6483:6489   */\n  dup3\n    /* \"#utility.yul\":6477:6481   */\n  dup6\n    /* \"#utility.yul\":6431:6498   */\n  tag_41\n  jump\t// in\ntag_125:\n    /* \"#utility.yul\":6525:6526   */\n  0x00\n    /* \"#utility.yul\":6549:6553   */\n  0x20\n    /* \"#utility.yul\":6536:6553   */\n  swap1\n  pop\n    /* \"#utility.yul\":6581:6583   */\n  0x1f\n    /* \"#utility.yul\":6573:6579   */\n  dup4\n    /* \"#utility.yul\":6570:6584   */\n  gt\n    /* \"#utility.yul\":6598:6599   */\n  0x01\n    /* \"#utility.yul\":6593:7211   */\n  dup2\n  eq\n  tag_127\n  jumpi\n    /* \"#utility.yul\":7255:7256   */\n  0x00\n    /* \"#utility.yul\":7272:7278   */\n  dup5\n    /* \"#utility.yul\":7269:7346   */\n  iszero\n  tag_128\n  jumpi\n    /* \"#utility.yul\":7321:7330   */\n  dup3\n    /* \"#utility.yul\":7316:7319   */\n  dup8\n    /* \"#utility.yul\":7312:7331   */\n  add\n    /* \"#utility.yul\":7306:7332   */\n  mload\n    /* \"#utility.yul\":7297:7332   */\n  swap1\n  pop\n    /* \"#utility.yul\":7269:7346   */\ntag_128:\n    /* \"#utility.yul\":7372:7439   */\n  tag_129\n    /* \"#utility.yul\":7432:7438   */\n  dup6\n    /* \"#utility.yul\":7425:7430   */\n  dup3\n    /* \"#utility.yul\":7372:7439   */\n  tag_44\n  jump\t// in\ntag_129:\n    /* \"#utility.yul\":7366:7370   */\n  dup7\n    /* \"#utility.yul\":7359:7440   */\n  sstore\n    /* \"#utility.yul\":7228:7450   */\n  pop\n    /* \"#utility.yul\":6563:7450   */\n  jump(tag_126)\n    /* \"#utility.yul\":6593:7211   */\ntag_127:\n    /* \"#utility.yul\":6645:6649   */\n  0x1f\n    /* \"#utility.yul\":6641:6650   */\n  not\n    /* \"#utility.yul\":6633:6639   */\n  dup5\n    /* \"#utility.yul\":6629:6651   */\n  and\n    /* \"#utility.yul\":6679:6716   */\n  tag_130\n    /* \"#utility.yul\":6711:6715   */\n  dup7\n    /* \"#utility.yul\":6679:6716   */\n  tag_29\n  jump\t// in\ntag_130:\n    /* \"#utility.yul\":6738:6739   */\n  0x00\n    /* \"#utility.yul\":6752:6960   */\ntag_131:\n    /* \"#utility.yul\":6766:6773   */\n  dup3\n    /* \"#utility.yul\":6763:6764   */\n  dup2\n    /* \"#utility.yul\":6760:6774   */\n  lt\n    /* \"#utility.yul\":6752:6960   */\n  iszero\n  tag_133\n  jumpi\n    /* \"#utility.yul\":6845:6854   */\n  dup5\n    /* \"#utility.yul\":6840:6843   */\n  dup10\n    /* \"#utility.yul\":6836:6855   */\n  add\n    /* \"#utility.yul\":6830:6856   */\n  mload\n    /* \"#utility.yul\":6822:6828   */\n  dup3\n    /* \"#utility.yul\":6815:6857   */\n  sstore\n    /* \"#utility.yul\":6896:6897   */\n  0x01\n    /* \"#utility.yul\":6888:6894   */\n  dup3\n    /* \"#utility.yul\":6884:6898   */\n  add\n    /* \"#utility.yul\":6874:6898   */\n  swap2\n  pop\n    /* \"#utility.yul\":6943:6945   */\n  0x20\n    /* \"#utility.yul\":6932:6941   */\n  dup6\n    /* \"#utility.yul\":6928:6946   */\n  add\n    /* \"#utility.yul\":6915:6946   */\n  swap5\n  pop\n    /* \"#utility.yul\":6789:6793   */\n  0x20\n    /* \"#utility.yul\":6786:6787   */\n  dup2\n    /* \"#utility.yul\":6782:6794   */\n  add\n    /* \"#utility.yul\":6777:6794   */\n  swap1\n  pop\n    /* \"#utility.yul\":6752:6960   */\n  jump(tag_131)\ntag_133:\n    /* \"#utility.yul\":6988:6994   */\n  dup7\n    /* \"#utility.yul\":6979:6986   */\n  dup4\n    /* \"#utility.yul\":6976:6995   */\n  lt\n    /* \"#utility.yul\":6973:7152   */\n  iszero\n  tag_134\n  jumpi\n    /* \"#utility.yul\":7046:7055   */\n  dup5\n    /* \"#utility.yul\":7041:7044   */\n  dup10\n    /* \"#utility.yul\":7037:7056   */\n  add\n    /* \"#utility.yul\":7031:7057   */\n  mload\n    /* \"#utility.yul\":7089:7137   */\n  tag_135\n    /* \"#utility.yul\":7131:7135   */\n  0x1f\n    /* \"#utility.yul\":7123:7129   */\n  dup10\n    /* \"#utility.yul\":7119:7136   */\n  and\n    /* \"#utility.yul\":7108:7117   */\n  dup3\n    /* \"#utility.yul\":7089:7137   */\n  tag_43\n  jump\t// in\ntag_135:\n    /* \"#utility.yul\":7081:7087   */\n  dup4\n    /* \"#utility.yul\":7074:7138   */\n  sstore\n    /* \"#utility.yul\":6996:7152   */\n  pop\n    /* \"#utility.yul\":6973:7152   */\ntag_134:\n    /* \"#utility.yul\":7198:7199   */\n  0x01\n    /* \"#utility.yul\":7194:7195   */\n  0x02\n    /* \"#utility.yul\":7186:7192   */\n  dup9\n    /* \"#utility.yul\":7182:7196   */\n  mul\n    /* \"#utility.yul\":7178:7200   */\n  add\n    /* \"#utility.yul\":7172:7176   */\n  dup9\n    /* \"#utility.yul\":7165:7201   */\n  sstore\n    /* \"#utility.yul\":6600:7211   */\n  pop\n  pop\n  pop\n    /* \"#utility.yul\":6563:7450   */\ntag_126:\n  pop\n    /* \"#utility.yul\":6153:7456   */\n  pop\n  pop\n  pop\n    /* \"#utility.yul\":6061:7456   */\n  pop\n  pop\n  jump\t// out\n    /* \"marriage_license.sol\":177:4885  contract marriage_license is ERC721 {... */\ntag_11:\n  dataSize(sub_0)\n  dup1\n  dataOffset(sub_0)\n  0x00\n  codecopy\n  0x00\n  return\nstop\n\nsub_0: assembly {\n        /* \"marriage_license.sol\":177:4885  contract marriage_license is ERC721 {... */\n      mstore(0x40, 0x80)\n      callvalue\n      dup1\n      iszero\n      tag_1\n      jumpi\n      0x00\n      dup1\n      revert\n    tag_1:\n      pop\n      jumpi(tag_2, lt(calldatasize, 0x04))\n      shr(0xe0, calldataload(0x00))\n      dup1\n      0x7a8363f9\n      gt\n      tag_21\n      jumpi\n      dup1\n      0xb49a5bb2\n      gt\n      tag_22\n      jumpi\n      dup1\n      0xb49a5bb2\n      eq\n      tag_16\n      jumpi\n      dup1\n      0xb88d4fde\n      eq\n      tag_17\n      jumpi\n      dup1\n      0xbd6690f4\n      eq\n      tag_18\n      jumpi\n      dup1\n      0xc87b56dd\n      eq\n      tag_19\n      jumpi\n      dup1\n      0xe985e9c5\n      eq\n      tag_20\n      jumpi\n      jump(tag_2)\n    tag_22:\n      dup1\n      0x7a8363f9\n      eq\n      tag_12\n      jumpi\n      dup1\n      0x95d89b41\n      eq\n      tag_13\n      jumpi\n      dup1\n      0xa22cb465\n      eq\n      tag_14\n      jumpi\n      dup1\n      0xa702314d\n      eq\n      tag_15\n      jumpi\n      jump(tag_2)\n    tag_21:\n      dup1\n      0x23b872dd\n      gt\n      tag_23\n      jumpi\n      dup1\n      0x23b872dd\n      eq\n      tag_7\n      jumpi\n      dup1\n      0x2fc5a6df\n      eq\n      tag_8\n      jumpi\n      dup1\n      0x42842e0e\n      eq\n      tag_9\n      jumpi\n      dup1\n      0x6352211e\n      eq\n      tag_10\n      jumpi\n      dup1\n      0x70a08231\n      eq\n      tag_11\n      jumpi\n      jump(tag_2)\n    tag_23:\n      dup1\n      0x01ffc9a7\n      eq\n      tag_3\n      jumpi\n      dup1\n      0x06fdde03\n      eq\n      tag_4\n      jumpi\n      dup1\n      0x081812fc\n      eq\n      tag_5\n      jumpi\n      dup1\n      0x095ea7b3\n      eq\n      tag_6\n      jumpi\n    tag_2:\n      0x00\n      dup1\n      revert\n        /* \"@openzeppelin/contracts/token/ERC721/ERC721.sol\":1561:1861  function supportsInterface(bytes4 interfaceId) public view virtual override(ERC165, IERC165) returns (bool) {... */\n    tag_3:\n      tag_24\n      0x04\n      dup1\n      calldatasize\n      sub\n      dup2\n      add\n      swap1\n      tag_25\n      swap2\n      swap1\n      tag_26\n      jump\t// in\n    tag_25:\n      tag_27\n      jump\t// in\n    tag_24:\n      mload(0x40)\n      tag_28\n      swap2\n      swap1\n      tag_29\n      jump\t// in\n    tag_28:\n      mload(0x40)\n      dup1\n      swap2\n      sub\n      swap1\n      return\n        /* \"@openzeppelin/contracts/token/ERC721/ERC721.sol\":2365:2454  function name() public view virtual returns (string memory) {... */\n    tag_4:\n      tag_30\n      tag_31\n      jump\t// in\n    tag_30:\n      mload(0x40)\n      tag_32\n      swap2\n      swap1\n      tag_33\n      jump\t// in\n    tag_32:\n      mload(0x40)\n      dup1\n      swap2\n      sub\n      swap1\n      return\n        /* \"@openzeppelin/contracts/token/ERC721/ERC721.sol\":3497:3651  function getApproved(uint256 tokenId) public view virtual returns (address) {... */\n    tag_5:\n      tag_34\n      0x04\n      dup1\n      calldatasize\n      sub\n      dup2\n      add\n      swap1\n      tag_35\n      swap2\n      swap1\n      tag_36\n      jump\t// in\n    tag_35:\n      tag_37\n      jump\t// in\n    tag_34:\n      mload(0x40)\n      tag_38\n      swap2\n      swap1\n      tag_39\n      jump\t// in\n    tag_38:\n      mload(0x40)\n      dup1\n      swap2\n      sub\n      swap1\n      return\n        /* \"@openzeppelin/contracts/token/ERC721/ERC721.sol\":3323:3436  function approve(address to, uint256 tokenId) public virtual {... */\n    tag_6:\n      tag_40\n      0x04\n      dup1\n      calldatasize\n      sub\n      dup2\n      add\n      swap1\n      tag_41\n      swap2\n      swap1\n      tag_42\n      jump\t// in\n    tag_41:\n      tag_43\n      jump\t// in\n    tag_40:\n      stop\n        /* \"@openzeppelin/contracts/token/ERC721/ERC721.sol\":4143:4721  function transferFrom(address from, address to, uint256 tokenId) public virtual {... */\n    tag_7:\n      tag_44\n      0x04\n      dup1\n      calldatasize\n      sub\n      dup2\n      add\n      swap1\n      tag_45\n      swap2\n      swap1\n      tag_46\n      jump\t// in\n    tag_45:\n      tag_47\n      jump\t// in\n    tag_44:\n      stop\n        /* \"marriage_license.sol\":391:415  uint16 public weddingDay */\n    tag_8:\n      tag_48\n      tag_49\n      jump\t// in\n    tag_48:\n      mload(0x40)\n      tag_50\n      swap2\n      swap1\n      tag_51\n      jump\t// in\n    tag_50:\n      mload(0x40)\n      dup1\n      swap2\n      sub\n      swap1\n      return\n        /* \"@openzeppelin/contracts/token/ERC721/ERC721.sol\":4787:4919  function safeTransferFrom(address from, address to, uint256 tokenId) public {... */\n    tag_9:\n      tag_52\n      0x04\n      dup1\n      calldatasize\n      sub\n      dup2\n      add\n      swap1\n      tag_53\n      swap2\n      swap1\n      tag_46\n      jump\t// in\n    tag_53:\n      tag_54\n      jump\t// in\n    tag_52:\n      stop\n        /* \"@openzeppelin/contracts/token/ERC721/ERC721.sol\":2185:2303  function ownerOf(uint256 tokenId) public view virtual returns (address) {... */\n    tag_10:\n      tag_55\n      0x04\n      dup1\n      calldatasize\n      sub\n      dup2\n      add\n      swap1\n      tag_56\n      swap2\n      swap1\n      tag_36\n      jump\t// in\n    tag_56:\n      tag_57\n      jump\t// in\n    tag_55:\n      mload(0x40)\n      tag_58\n      swap2\n      swap1\n      tag_39\n      jump\t// in\n    tag_58:\n      mload(0x40)\n      dup1\n      swap2\n      sub\n      swap1\n      return\n        /* \"@openzeppelin/contracts/token/ERC721/ERC721.sol\":1920:2128  function balanceOf(address owner) public view virtual returns (uint256) {... */\n    tag_11:\n      tag_59\n      0x04\n      dup1\n      calldatasize\n      sub\n      dup2\n      add\n      swap1\n      tag_60\n      swap2\n      swap1\n      tag_61\n      jump\t// in\n    tag_60:\n      tag_62\n      jump\t// in\n    tag_59:\n      mload(0x40)\n      tag_63\n      swap2\n      swap1\n      tag_64\n      jump\t// in\n    tag_63:\n      mload(0x40)\n      dup1\n      swap2\n      sub\n      swap1\n      return\n        /* \"marriage_license.sol\":1818:2284  function createWeddingCertificate(uint256 tokenID1, uint256 tokenID2) public onlySpouse {... */\n    tag_12:\n      tag_65\n      0x04\n      dup1\n      calldatasize\n      sub\n      dup2\n      add\n      swap1\n      tag_66\n      swap2\n      swap1\n      tag_67\n      jump\t// in\n    tag_66:\n      tag_68\n      jump\t// in\n    tag_65:\n      stop\n        /* \"@openzeppelin/contracts/token/ERC721/ERC721.sol\":2518:2611  function symbol() public view virtual returns (string memory) {... */\n    tag_13:\n      tag_69\n      tag_70\n      jump\t// in\n    tag_69:\n      mload(0x40)\n      tag_71\n      swap2\n      swap1\n      tag_33\n      jump\t// in\n    tag_71:\n      mload(0x40)\n      dup1\n      swap2\n      sub\n      swap1\n      return\n        /* \"@openzeppelin/contracts/token/ERC721/ERC721.sol\":3718:3862  function setApprovalForAll(address operator, bool approved) public virtual {... */\n    tag_14:\n      tag_72\n      0x04\n      dup1\n      calldatasize\n      sub\n      dup2\n      add\n      swap1\n      tag_73\n      swap2\n      swap1\n      tag_74\n      jump\t// in\n    tag_73:\n      tag_75\n      jump\t// in\n    tag_72:\n      stop\n        /* \"marriage_license.sol\":363:384  bool public isMarried */\n    tag_15:\n      tag_76\n      tag_77\n      jump\t// in\n    tag_76:\n      mload(0x40)\n      tag_78\n      swap2\n      swap1\n      tag_29\n      jump\t// in\n    tag_78:\n      mload(0x40)\n      dup1\n      swap2\n      sub\n      swap1\n      return\n        /* \"marriage_license.sol\":3283:3766  function divorce(uint256 tokenId) public onlySpouse {... */\n    tag_16:\n      tag_79\n      0x04\n      dup1\n      calldatasize\n      sub\n      dup2\n      add\n      swap1\n      tag_80\n      swap2\n      swap1\n      tag_36\n      jump\t// in\n    tag_80:\n      tag_81\n      jump\t// in\n    tag_79:\n      stop\n        /* \"@openzeppelin/contracts/token/ERC721/ERC721.sol\":4985:5193  function safeTransferFrom(address from, address to, uint256 tokenId, bytes memory data) public virtual {... */\n    tag_17:\n      tag_82\n      0x04\n      dup1\n      calldatasize\n      sub\n      dup2\n      add\n      swap1\n      tag_83\n      swap2\n      swap1\n      tag_84\n      jump\t// in\n    tag_83:\n      tag_85\n      jump\t// in\n    tag_82:\n      stop\n        /* \"marriage_license.sol\":2292:3275  function authorizeAccounts(address authorizeAddress) public onlySpouse {... */\n    tag_18:\n      tag_86\n      0x04\n      dup1\n      calldatasize\n      sub\n      dup2\n      add\n      swap1\n      tag_87\n      swap2\n      swap1\n      tag_61\n      jump\t// in\n    tag_87:\n      tag_88\n      jump\t// in\n    tag_86:\n      stop\n        /* \"@openzeppelin/contracts/token/ERC721/ERC721.sol\":2677:2932  function tokenURI(uint256 tokenId) public view virtual returns (string memory) {... */\n    tag_19:\n      tag_89\n      0x04\n      dup1\n      calldatasize\n      sub\n      dup2\n      add\n      swap1\n      tag_90\n      swap2\n      swap1\n      tag_36\n      jump\t// in\n    tag_90:\n      tag_91\n      jump\t// in\n    tag_89:\n      mload(0x40)\n      tag_92\n      swap2\n      swap1\n      tag_33\n      jump\t// in\n    tag_92:\n      mload(0x40)\n      dup1\n      swap2\n      sub\n      swap1\n      return\n        /* \"@openzeppelin/contracts/token/ERC721/ERC721.sol\":3928:4081  function isApprovedForAll(address owner, address operator) public view virtual returns (bool) {... */\n    tag_20:\n      tag_93\n      0x04\n      dup1\n      calldatasize\n      sub\n      dup2\n      add\n      swap1\n      tag_94\n      swap2\n      swap1\n      tag_95\n      jump\t// in\n    tag_94:\n      tag_96\n      jump\t// in\n    tag_93:\n      mload(0x40)\n      tag_97\n      swap2\n      swap1\n      tag_29\n      jump\t// in\n    tag_97:\n      mload(0x40)\n      dup1\n      swap2\n      sub\n      swap1\n      return\n        /* \"@openzeppelin/contracts/token/ERC721/ERC721.sol\":1561:1861  function supportsInterface(bytes4 interfaceId) public view virtual override(ERC165, IERC165) returns (bool) {... */\n    tag_27:\n        /* \"@openzeppelin/contracts/token/ERC721/ERC721.sol\":1663:1667  bool */\n      0x00\n        /* \"@openzeppelin/contracts/token/ERC721/ERC721.sol\":1713:1738  type(IERC721).interfaceId */\n      0x80ac58cd00000000000000000000000000000000000000000000000000000000\n        /* \"@openzeppelin/contracts/token/ERC721/ERC721.sol\":1698:1738  interfaceId == type(IERC721).interfaceId */\n      not(0xffffffffffffffffffffffffffffffffffffffffffffffffffffffff)\n      and\n        /* \"@openzeppelin/contracts/token/ERC721/ERC721.sol\":1698:1709  interfaceId */\n      dup3\n        /* \"@openzeppelin/contracts/token/ERC721/ERC721.sol\":1698:1738  interfaceId == type(IERC721).interfaceId */\n      not(0xffffffffffffffffffffffffffffffffffffffffffffffffffffffff)\n      and\n      eq\n        /* \"@openzeppelin/contracts/token/ERC721/ERC721.sol\":1698:1802  interfaceId == type(IERC721).interfaceId ||... */\n      dup1\n      tag_99\n      jumpi\n      pop\n        /* \"@openzeppelin/contracts/token/ERC721/ERC721.sol\":1769:1802  type(IERC721Metadata).interfaceId */\n      0x5b5e139f00000000000000000000000000000000000000000000000000000000\n        /* \"@openzeppelin/contracts/token/ERC721/ERC721.sol\":1754:1802  interfaceId == type(IERC721Metadata).interfaceId */\n      not(0xffffffffffffffffffffffffffffffffffffffffffffffffffffffff)\n      and\n        /* \"@openzeppelin/contracts/token/ERC721/ERC721.sol\":1754:1765  interfaceId */\n      dup3\n        /* \"@openzeppelin/contracts/token/ERC721/ERC721.sol\":1754:1802  interfaceId == type(IERC721Metadata).interfaceId */\n      not(0xffffffffffffffffffffffffffffffffffffffffffffffffffffffff)\n      and\n      eq\n        /* \"@openzeppelin/contracts/token/ERC721/ERC721.sol\":1698:1802  interfaceId == type(IERC721).interfaceId ||... */\n    tag_99:\n        /* \"@openzeppelin/contracts/token/ERC721/ERC721.sol\":1698:1854  interfaceId == type(IERC721).interfaceId ||... */\n      dup1\n      tag_100\n      jumpi\n      pop\n        /* \"@openzeppelin/contracts/token/ERC721/ERC721.sol\":1818:1854  super.supportsInterface(interfaceId) */\n      tag_101\n        /* \"@openzeppelin/contracts/token/ERC721/ERC721.sol\":1842:1853  interfaceId */\n      dup3\n        /* \"@openzeppelin/contracts/token/ERC721/ERC721.sol\":1818:1841  super.supportsInterface */\n      tag_102\n        /* \"@openzeppelin/contracts/token/ERC721/ERC721.sol\":1818:1854  super.supportsInterface(interfaceId) */\n      jump\t// in\n    tag_101:\n        /* \"@openzeppelin/contracts/token/ERC721/ERC721.sol\":1698:1854  interfaceId == type(IERC721).interfaceId ||... */\n    tag_100:\n        /* \"@openzeppelin/contracts/token/ERC721/ERC721.sol\":1679:1854  return... */\n      swap1\n      pop\n        /* \"@openzeppelin/contracts/token/ERC721/ERC721.sol\":1561:1861  function supportsInterface(bytes4 interfaceId) public view virtual override(ERC165, IERC165) returns (bool) {... */\n      swap2\n      swap1\n      pop\n      jump\t// out\n        /* \"@openzeppelin/contracts/token/ERC721/ERC721.sol\":2365:2454  function name() public view virtual returns (string memory) {... */\n    tag_31:\n        /* \"@openzeppelin/contracts/token/ERC721/ERC721.sol\":2410:2423  string memory */\n      0x60\n        /* \"@openzeppelin/contracts/token/ERC721/ERC721.sol\":2442:2447  _name */\n      0x00\n        /* \"@openzeppelin/contracts/token/ERC721/ERC721.sol\":2435:2447  return _name */\n      dup1\n      sload\n      tag_104\n      swap1\n      tag_105\n      jump\t// in\n    tag_104:\n      dup1\n      0x1f\n      add\n      0x20\n      dup1\n      swap2\n      div\n      mul\n      0x20\n      add\n      mload(0x40)\n      swap1\n      dup2\n      add\n      0x40\n      mstore\n      dup1\n      swap3\n      swap2\n      swap1\n      dup2\n      dup2\n      mstore\n      0x20\n      add\n      dup3\n      dup1\n      sload\n      tag_106\n      swap1\n      tag_105\n      jump\t// in\n    tag_106:\n      dup1\n      iszero\n      tag_107\n      jumpi\n      dup1\n      0x1f\n      lt\n      tag_108\n      jumpi\n      0x0100\n      dup1\n      dup4\n      sload\n      div\n      mul\n      dup4\n      mstore\n      swap2\n      0x20\n      add\n      swap2\n      jump(tag_107)\n    tag_108:\n      dup3\n      add\n      swap2\n      swap1\n      0x00\n      mstore\n      keccak256(0x00, 0x20)\n      swap1\n    tag_109:\n      dup2\n      sload\n      dup2\n      mstore\n      swap1\n      0x01\n      add\n      swap1\n      0x20\n      add\n      dup1\n      dup4\n      gt\n      tag_109\n      jumpi\n      dup3\n      swap1\n      sub\n      0x1f\n      and\n      dup3\n      add\n      swap2\n    tag_107:\n      pop\n      pop\n      pop\n      pop\n      pop\n      swap1\n      pop\n        /* \"@openzeppelin/contracts/token/ERC721/ERC721.sol\":2365:2454  function name() public view virtual returns (string memory) {... */\n      swap1\n      jump\t// out\n        /* \"@openzeppelin/contracts/token/ERC721/ERC721.sol\":3497:3651  function getApproved(uint256 tokenId) public view virtual returns (address) {... */\n    tag_37:\n        /* \"@openzeppelin/contracts/token/ERC721/ERC721.sol\":3564:3571  address */\n      0x00\n        /* \"@openzeppelin/contracts/token/ERC721/ERC721.sol\":3583:3605  _requireOwned(tokenId) */\n      tag_111\n        /* \"@openzeppelin/contracts/token/ERC721/ERC721.sol\":3597:3604  tokenId */\n      dup3\n        /* \"@openzeppelin/contracts/token/ERC721/ERC721.sol\":3583:3596  _requireOwned */\n      tag_112\n        /* \"@openzeppelin/contracts/token/ERC721/ERC721.sol\":3583:3605  _requireOwned(tokenId) */\n      jump\t// in\n    tag_111:\n      pop\n        /* \"@openzeppelin/contracts/token/ERC721/ERC721.sol\":3623:3644  _getApproved(tokenId) */\n      tag_113\n        /* \"@openzeppelin/contracts/token/ERC721/ERC721.sol\":3636:3643  tokenId */\n      dup3\n        /* \"@openzeppelin/contracts/token/ERC721/ERC721.sol\":3623:3635  _getApproved */\n      tag_114\n        /* \"@openzeppelin/contracts/token/ERC721/ERC721.sol\":3623:3644  _getApproved(tokenId) */\n      jump\t// in\n    tag_113:\n        /* \"@openzeppelin/contracts/token/ERC721/ERC721.sol\":3616:3644  return _getApproved(tokenId) */\n      swap1\n      pop\n        /* \"@openzeppelin/contracts/token/ERC721/ERC721.sol\":3497:3651  function getApproved(uint256 tokenId) public view virtual returns (address) {... */\n      swap2\n      swap1\n      pop\n      jump\t// out\n        /* \"@openzeppelin/contracts/token/ERC721/ERC721.sol\":3323:3436  function approve(address to, uint256 tokenId) public virtual {... */\n    tag_43:\n        /* \"@openzeppelin/contracts/token/ERC721/ERC721.sol\":3394:3429  _approve(to, tokenId, _msgSender()) */\n      tag_116\n        /* \"@openzeppelin/contracts/token/ERC721/ERC721.sol\":3403:3405  to */\n      dup3\n        /* \"@openzeppelin/contracts/token/ERC721/ERC721.sol\":3407:3414  tokenId */\n      dup3\n        /* \"@openzeppelin/contracts/token/ERC721/ERC721.sol\":3416:3428  _msgSender() */\n      tag_117\n        /* \"@openzeppelin/contracts/token/ERC721/ERC721.sol\":3416:3426  _msgSender */\n      tag_118\n        /* \"@openzeppelin/contracts/token/ERC721/ERC721.sol\":3416:3428  _msgSender() */\n      jump\t// in\n    tag_117:\n        /* \"@openzeppelin/contracts/token/ERC721/ERC721.sol\":3394:3402  _approve */\n      tag_119\n        /* \"@openzeppelin/contracts/token/ERC721/ERC721.sol\":3394:3429  _approve(to, tokenId, _msgSender()) */\n      jump\t// in\n    tag_116:\n        /* \"@openzeppelin/contracts/token/ERC721/ERC721.sol\":3323:3436  function approve(address to, uint256 tokenId) public virtual {... */\n      pop\n      pop\n      jump\t// out\n        /* \"@openzeppelin/contracts/token/ERC721/ERC721.sol\":4143:4721  function transferFrom(address from, address to, uint256 tokenId) public virtual {... */\n    tag_47:\n        /* \"@openzeppelin/contracts/token/ERC721/ERC721.sol\":4251:4252  0 */\n      0x00\n        /* \"@openzeppelin/contracts/token/ERC721/ERC721.sol\":4237:4253  to == address(0) */\n      0xffffffffffffffffffffffffffffffffffffffff\n      and\n        /* \"@openzeppelin/contracts/token/ERC721/ERC721.sol\":4237:4239  to */\n      dup3\n        /* \"@openzeppelin/contracts/token/ERC721/ERC721.sol\":4237:4253  to == address(0) */\n      0xffffffffffffffffffffffffffffffffffffffff\n      and\n      sub\n        /* \"@openzeppelin/contracts/token/ERC721/ERC721.sol\":4233:4320  if (to == address(0)) {... */\n      tag_121\n      jumpi\n        /* \"@openzeppelin/contracts/token/ERC721/ERC721.sol\":4306:4307  0 */\n      0x00\n        /* \"@openzeppelin/contracts/token/ERC721/ERC721.sol\":4276:4309  ERC721InvalidReceiver(address(0)) */\n      mload(0x40)\n      0x64a0ae9200000000000000000000000000000000000000000000000000000000\n      dup2\n      mstore\n      0x04\n      add\n      tag_122\n      swap2\n      swap1\n      tag_39\n      jump\t// in\n    tag_122:\n      mload(0x40)\n      dup1\n      swap2\n      sub\n      swap1\n      revert\n        /* \"@openzeppelin/contracts/token/ERC721/ERC721.sol\":4233:4320  if (to == address(0)) {... */\n    tag_121:\n        /* \"@openzeppelin/contracts/token/ERC721/ERC721.sol\":4538:4559  address previousOwner */\n      0x00\n        /* \"@openzeppelin/contracts/token/ERC721/ERC721.sol\":4562:4596  _update(to, tokenId, _msgSender()) */\n      tag_123\n        /* \"@openzeppelin/contracts/token/ERC721/ERC721.sol\":4570:4572  to */\n      dup4\n        /* \"@openzeppelin/contracts/token/ERC721/ERC721.sol\":4574:4581  tokenId */\n      dup4\n        /* \"@openzeppelin/contracts/token/ERC721/ERC721.sol\":4583:4595  _msgSender() */\n      tag_124\n        /* \"@openzeppelin/contracts/token/ERC721/ERC721.sol\":4583:4593  _msgSender */\n      tag_118\n        /* \"@openzeppelin/contracts/token/ERC721/ERC721.sol\":4583:4595  _msgSender() */\n      jump\t// in\n    tag_124:\n        /* \"@openzeppelin/contracts/token/ERC721/ERC721.sol\":4562:4569  _update */\n      tag_125\n        /* \"@openzeppelin/contracts/token/ERC721/ERC721.sol\":4562:4596  _update(to, tokenId, _msgSender()) */\n      jump\t// in\n    tag_123:\n        /* \"@openzeppelin/contracts/token/ERC721/ERC721.sol\":4538:4596  address previousOwner = _update(to, tokenId, _msgSender()) */\n      swap1\n      pop\n        /* \"@openzeppelin/contracts/token/ERC721/ERC721.sol\":4627:4631  from */\n      dup4\n        /* \"@openzeppelin/contracts/token/ERC721/ERC721.sol\":4610:4631  previousOwner != from */\n      0xffffffffffffffffffffffffffffffffffffffff\n      and\n        /* \"@openzeppelin/contracts/token/ERC721/ERC721.sol\":4610:4623  previousOwner */\n      dup2\n        /* \"@openzeppelin/contracts/token/ERC721/ERC721.sol\":4610:4631  previousOwner != from */\n      0xffffffffffffffffffffffffffffffffffffffff\n      and\n      eq\n        /* \"@openzeppelin/contracts/token/ERC721/ERC721.sol\":4606:4715  if (previousOwner != from) {... */\n      tag_126\n      jumpi\n        /* \"@openzeppelin/contracts/token/ERC721/ERC721.sol\":4675:4679  from */\n      dup4\n        /* \"@openzeppelin/contracts/token/ERC721/ERC721.sol\":4681:4688  tokenId */\n      dup3\n        /* \"@openzeppelin/contracts/token/ERC721/ERC721.sol\":4690:4703  previousOwner */\n      dup3\n        /* \"@openzeppelin/contracts/token/ERC721/ERC721.sol\":4654:4704  ERC721IncorrectOwner(from, tokenId, previousOwner) */\n      mload(0x40)\n      0x64283d7b00000000000000000000000000000000000000000000000000000000\n      dup2\n      mstore\n      0x04\n      add\n      tag_127\n      swap4\n      swap3\n      swap2\n      swap1\n      tag_128\n      jump\t// in\n    tag_127:\n      mload(0x40)\n      dup1\n      swap2\n      sub\n      swap1\n      revert\n        /* \"@openzeppelin/contracts/token/ERC721/ERC721.sol\":4606:4715  if (previousOwner != from) {... */\n    tag_126:\n        /* \"@openzeppelin/contracts/token/ERC721/ERC721.sol\":4223:4721  {... */\n      pop\n        /* \"@openzeppelin/contracts/token/ERC721/ERC721.sol\":4143:4721  function transferFrom(address from, address to, uint256 tokenId) public virtual {... */\n      pop\n      pop\n      pop\n      jump\t// out\n        /* \"marriage_license.sol\":391:415  uint16 public weddingDay */\n    tag_49:\n      0x09\n      0x15\n      swap1\n      sload\n      swap1\n      0x0100\n      exp\n      swap1\n      div\n      0xffff\n      and\n      dup2\n      jump\t// out\n        /* \"@openzeppelin/contracts/token/ERC721/ERC721.sol\":4787:4919  function safeTransferFrom(address from, address to, uint256 tokenId) public {... */\n    tag_54:\n        /* \"@openzeppelin/contracts/token/ERC721/ERC721.sol\":4873:4912  safeTransferFrom(from, to, tokenId, \"\") */\n      tag_130\n        /* \"@openzeppelin/contracts/token/ERC721/ERC721.sol\":4890:4894  from */\n      dup4\n        /* \"@openzeppelin/contracts/token/ERC721/ERC721.sol\":4896:4898  to */\n      dup4\n        /* \"@openzeppelin/contracts/token/ERC721/ERC721.sol\":4900:4907  tokenId */\n      dup4\n        /* \"@openzeppelin/contracts/token/ERC721/ERC721.sol\":4873:4912  safeTransferFrom(from, to, tokenId, \"\") */\n      mload(0x40)\n      dup1\n      0x20\n      add\n      0x40\n      mstore\n      dup1\n      0x00\n      dup2\n      mstore\n      pop\n        /* \"@openzeppelin/contracts/token/ERC721/ERC721.sol\":4873:4889  safeTransferFrom */\n      tag_85\n        /* \"@openzeppelin/contracts/token/ERC721/ERC721.sol\":4873:4912  safeTransferFrom(from, to, tokenId, \"\") */\n      jump\t// in\n    tag_130:\n        /* \"@openzeppelin/contracts/token/ERC721/ERC721.sol\":4787:4919  function safeTransferFrom(address from, address to, uint256 tokenId) public {... */\n      pop\n      pop\n      pop\n      jump\t// out\n        /* \"@openzeppelin/contracts/token/ERC721/ERC721.sol\":2185:2303  function ownerOf(uint256 tokenId) public view virtual returns (address) {... */\n    tag_57:\n        /* \"@openzeppelin/contracts/token/ERC721/ERC721.sol\":2248:2255  address */\n      0x00\n        /* \"@openzeppelin/contracts/token/ERC721/ERC721.sol\":2274:2296  _requireOwned(tokenId) */\n      tag_132\n        /* \"@openzeppelin/contracts/token/ERC721/ERC721.sol\":2288:2295  tokenId */\n      dup3\n        /* \"@openzeppelin/contracts/token/ERC721/ERC721.sol\":2274:2287  _requireOwned */\n      tag_112\n        /* \"@openzeppelin/contracts/token/ERC721/ERC721.sol\":2274:2296  _requireOwned(tokenId) */\n      jump\t// in\n    tag_132:\n        /* \"@openzeppelin/contracts/token/ERC721/ERC721.sol\":2267:2296  return _requireOwned(tokenId) */\n      swap1\n      pop\n        /* \"@openzeppelin/contracts/token/ERC721/ERC721.sol\":2185:2303  function ownerOf(uint256 tokenId) public view virtual returns (address) {... */\n      swap2\n      swap1\n      pop\n      jump\t// out\n        /* \"@openzeppelin/contracts/token/ERC721/ERC721.sol\":1920:2128  function balanceOf(address owner) public view virtual returns (uint256) {... */\n    tag_62:\n        /* \"@openzeppelin/contracts/token/ERC721/ERC721.sol\":1983:1990  uint256 */\n      0x00\n        /* \"@openzeppelin/contracts/token/ERC721/ERC721.sol\":2023:2024  0 */\n      dup1\n        /* \"@openzeppelin/contracts/token/ERC721/ERC721.sol\":2006:2025  owner == address(0) */\n      0xffffffffffffffffffffffffffffffffffffffff\n      and\n        /* \"@openzeppelin/contracts/token/ERC721/ERC721.sol\":2006:2011  owner */\n      dup3\n        /* \"@openzeppelin/contracts/token/ERC721/ERC721.sol\":2006:2025  owner == address(0) */\n      0xffffffffffffffffffffffffffffffffffffffff\n      and\n      sub\n        /* \"@openzeppelin/contracts/token/ERC721/ERC721.sol\":2002:2089  if (owner == address(0)) {... */\n      tag_134\n      jumpi\n        /* \"@openzeppelin/contracts/token/ERC721/ERC721.sol\":2075:2076  0 */\n      0x00\n        /* \"@openzeppelin/contracts/token/ERC721/ERC721.sol\":2048:2078  ERC721InvalidOwner(address(0)) */\n      mload(0x40)\n      0x89c62b6400000000000000000000000000000000000000000000000000000000\n      dup2\n      mstore\n      0x04\n      add\n      tag_135\n      swap2\n      swap1\n      tag_39\n      jump\t// in\n    tag_135:\n      mload(0x40)\n      dup1\n      swap2\n      sub\n      swap1\n      revert\n        /* \"@openzeppelin/contracts/token/ERC721/ERC721.sol\":2002:2089  if (owner == address(0)) {... */\n    tag_134:\n        /* \"@openzeppelin/contracts/token/ERC721/ERC721.sol\":2105:2114  _balances */\n      0x03\n        /* \"@openzeppelin/contracts/token/ERC721/ERC721.sol\":2105:2121  _balances[owner] */\n      0x00\n        /* \"@openzeppelin/contracts/token/ERC721/ERC721.sol\":2115:2120  owner */\n      dup4\n        /* \"@openzeppelin/contracts/token/ERC721/ERC721.sol\":2105:2121  _balances[owner] */\n      0xffffffffffffffffffffffffffffffffffffffff\n      and\n      0xffffffffffffffffffffffffffffffffffffffff\n      and\n      dup2\n      mstore\n      0x20\n      add\n      swap1\n      dup2\n      mstore\n      0x20\n      add\n      0x00\n      keccak256\n      sload\n        /* \"@openzeppelin/contracts/token/ERC721/ERC721.sol\":2098:2121  return _balances[owner] */\n      swap1\n      pop\n        /* \"@openzeppelin/contracts/token/ERC721/ERC721.sol\":1920:2128  function balanceOf(address owner) public view virtual returns (uint256) {... */\n      swap2\n      swap1\n      pop\n      jump\t// out\n        /* \"marriage_license.sol\":1818:2284  function createWeddingCertificate(uint256 tokenID1, uint256 tokenID2) public onlySpouse {... */\n    tag_68:\n        /* \"marriage_license.sol\":1387:1394  spouse1 */\n      0x08\n      0x00\n      swap1\n      sload\n      swap1\n      0x0100\n      exp\n      swap1\n      div\n      0xffffffffffffffffffffffffffffffffffffffff\n      and\n        /* \"marriage_license.sol\":1373:1394  msg.sender == spouse1 */\n      0xffffffffffffffffffffffffffffffffffffffff\n      and\n        /* \"marriage_license.sol\":1373:1383  msg.sender */\n      caller\n        /* \"marriage_license.sol\":1373:1394  msg.sender == spouse1 */\n      0xffffffffffffffffffffffffffffffffffffffff\n      and\n      eq\n        /* \"marriage_license.sol\":1373:1419  msg.sender == spouse1 || msg.sender == spouse2 */\n      dup1\n      tag_137\n      jumpi\n      pop\n        /* \"marriage_license.sol\":1412:1419  spouse2 */\n      0x09\n      0x00\n      swap1\n      sload\n      swap1\n      0x0100\n      exp\n      swap1\n      div\n      0xffffffffffffffffffffffffffffffffffffffff\n      and\n        /* \"marriage_license.sol\":1398:1419  msg.sender == spouse2 */\n      0xffffffffffffffffffffffffffffffffffffffff\n      and\n        /* \"marriage_license.sol\":1398:1408  msg.sender */\n      caller\n        /* \"marriage_license.sol\":1398:1419  msg.sender == spouse2 */\n      0xffffffffffffffffffffffffffffffffffffffff\n      and\n      eq\n        /* \"marriage_license.sol\":1373:1419  msg.sender == spouse1 || msg.sender == spouse2 */\n    tag_137:\n        /* \"marriage_license.sol\":1365:1459  require(msg.sender == spouse1 || msg.sender == spouse2, \"Only spouses can call this function\") */\n      tag_138\n      jumpi\n      mload(0x40)\n      0x08c379a000000000000000000000000000000000000000000000000000000000\n      dup2\n      mstore\n      0x04\n      add\n      tag_139\n      swap1\n      tag_140\n      jump\t// in\n    tag_139:\n      mload(0x40)\n      dup1\n      swap2\n      sub\n      swap1\n      revert\n    tag_138:\n        /* \"marriage_license.sol\":1925:1934  isMarried */\n      0x09\n      0x14\n      swap1\n      sload\n      swap1\n      0x0100\n      exp\n      swap1\n      div\n      0xff\n      and\n        /* \"marriage_license.sol\":1917:1996  require(isMarried, \"Cannot produce wedding certificate for non-married people\") */\n      tag_142\n      jumpi\n      mload(0x40)\n      0x08c379a000000000000000000000000000000000000000000000000000000000\n      dup2\n      mstore\n      0x04\n      add\n      tag_143\n      swap1\n      tag_144\n      jump\t// in\n    tag_143:\n      mload(0x40)\n      dup1\n      swap2\n      sub\n      swap1\n      revert\n    tag_142:\n        /* \"marriage_license.sol\":2128:2136  tokenID1 */\n      dup2\n        /* \"marriage_license.sol\":2119:2125  token1 */\n      0x06\n        /* \"marriage_license.sol\":2119:2136  token1 = tokenID1 */\n      dup2\n      swap1\n      sstore\n      pop\n        /* \"marriage_license.sol\":2156:2164  tokenID2 */\n      dup1\n        /* \"marriage_license.sol\":2147:2153  token2 */\n      0x07\n        /* \"marriage_license.sol\":2147:2164  token2 = tokenID2 */\n      dup2\n      swap1\n      sstore\n      pop\n        /* \"marriage_license.sol\":2221:2243  _mint(spouse1, token1) */\n      tag_145\n        /* \"marriage_license.sol\":2227:2234  spouse1 */\n      0x08\n      0x00\n      swap1\n      sload\n      swap1\n      0x0100\n      exp\n      swap1\n      div\n      0xffffffffffffffffffffffffffffffffffffffff\n      and\n        /* \"marriage_license.sol\":2236:2242  token1 */\n      sload(0x06)\n        /* \"marriage_license.sol\":2221:2226  _mint */\n      tag_146\n        /* \"marriage_license.sol\":2221:2243  _mint(spouse1, token1) */\n      jump\t// in\n    tag_145:\n        /* \"marriage_license.sol\":2254:2276  _mint(spouse2, token2) */\n      tag_147\n        /* \"marriage_license.sol\":2260:2267  spouse2 */\n      0x09\n      0x00\n      swap1\n      sload\n      swap1\n      0x0100\n      exp\n      swap1\n      div\n      0xffffffffffffffffffffffffffffffffffffffff\n      and\n        /* \"marriage_license.sol\":2269:2275  token2 */\n      sload(0x07)\n        /* \"marriage_license.sol\":2254:2259  _mint */\n      tag_146\n        /* \"marriage_license.sol\":2254:2276  _mint(spouse2, token2) */\n      jump\t// in\n    tag_147:\n        /* \"marriage_license.sol\":1818:2284  function createWeddingCertificate(uint256 tokenID1, uint256 tokenID2) public onlySpouse {... */\n      pop\n      pop\n      jump\t// out\n        /* \"@openzeppelin/contracts/token/ERC721/ERC721.sol\":2518:2611  function symbol() public view virtual returns (string memory) {... */\n    tag_70:\n        /* \"@openzeppelin/contracts/token/ERC721/ERC721.sol\":2565:2578  string memory */\n      0x60\n        /* \"@openzeppelin/contracts/token/ERC721/ERC721.sol\":2597:2604  _symbol */\n      0x01\n        /* \"@openzeppelin/contracts/token/ERC721/ERC721.sol\":2590:2604  return _symbol */\n      dup1\n      sload\n      tag_149\n      swap1\n      tag_105\n      jump\t// in\n    tag_149:\n      dup1\n      0x1f\n      add\n      0x20\n      dup1\n      swap2\n      div\n      mul\n      0x20\n      add\n      mload(0x40)\n      swap1\n      dup2\n      add\n      0x40\n      mstore\n      dup1\n      swap3\n      swap2\n      swap1\n      dup2\n      dup2\n      mstore\n      0x20\n      add\n      dup3\n      dup1\n      sload\n      tag_150\n      swap1\n      tag_105\n      jump\t// in\n    tag_150:\n      dup1\n      iszero\n      tag_151\n      jumpi\n      dup1\n      0x1f\n      lt\n      tag_152\n      jumpi\n      0x0100\n      dup1\n      dup4\n      sload\n      div\n      mul\n      dup4\n      mstore\n      swap2\n      0x20\n      add\n      swap2\n      jump(tag_151)\n    tag_152:\n      dup3\n      add\n      swap2\n      swap1\n      0x00\n      mstore\n      keccak256(0x00, 0x20)\n      swap1\n    tag_153:\n      dup2\n      sload\n      dup2\n      mstore\n      swap1\n      0x01\n      add\n      swap1\n      0x20\n      add\n      dup1\n      dup4\n      gt\n      tag_153\n      jumpi\n      dup3\n      swap1\n      sub\n      0x1f\n      and\n      dup3\n      add\n      swap2\n    tag_151:\n      pop\n      pop\n      pop\n      pop\n      pop\n      swap1\n      pop\n        /* \"@openzeppelin/contracts/token/ERC721/ERC721.sol\":2518:2611  function symbol() public view virtual returns (string memory) {... */\n      swap1\n      jump\t// out\n        /* \"@openzeppelin/contracts/token/ERC721/ERC721.sol\":3718:3862  function setApprovalForAll(address operator, bool approved) public virtual {... */\n    tag_75:\n        /* \"@openzeppelin/contracts/token/ERC721/ERC721.sol\":3803:3855  _setApprovalForAll(_msgSender(), operator, approved) */\n      tag_155\n        /* \"@openzeppelin/contracts/token/ERC721/ERC721.sol\":3822:3834  _msgSender() */\n      tag_156\n        /* \"@openzeppelin/contracts/token/ERC721/ERC721.sol\":3822:3832  _msgSender */\n      tag_118\n        /* \"@openzeppelin/contracts/token/ERC721/ERC721.sol\":3822:3834  _msgSender() */\n      jump\t// in\n    tag_156:\n        /* \"@openzeppelin/contracts/token/ERC721/ERC721.sol\":3836:3844  operator */\n      dup4\n        /* \"@openzeppelin/contracts/token/ERC721/ERC721.sol\":3846:3854  approved */\n      dup4\n        /* \"@openzeppelin/contracts/token/ERC721/ERC721.sol\":3803:3821  _setApprovalForAll */\n      tag_157\n        /* \"@openzeppelin/contracts/token/ERC721/ERC721.sol\":3803:3855  _setApprovalForAll(_msgSender(), operator, approved) */\n      jump\t// in\n    tag_155:\n        /* \"@openzeppelin/contracts/token/ERC721/ERC721.sol\":3718:3862  function setApprovalForAll(address operator, bool approved) public virtual {... */\n      pop\n      pop\n      jump\t// out\n        /* \"marriage_license.sol\":363:384  bool public isMarried */\n    tag_77:\n      0x09\n      0x14\n      swap1\n      sload\n      swap1\n      0x0100\n      exp\n      swap1\n      div\n      0xff\n      and\n      dup2\n      jump\t// out\n        /* \"marriage_license.sol\":3283:3766  function divorce(uint256 tokenId) public onlySpouse {... */\n    tag_81:\n        /* \"marriage_license.sol\":1387:1394  spouse1 */\n      0x08\n      0x00\n      swap1\n      sload\n      swap1\n      0x0100\n      exp\n      swap1\n      div\n      0xffffffffffffffffffffffffffffffffffffffff\n      and\n        /* \"marriage_license.sol\":1373:1394  msg.sender == spouse1 */\n      0xffffffffffffffffffffffffffffffffffffffff\n      and\n        /* \"marriage_license.sol\":1373:1383  msg.sender */\n      caller\n        /* \"marriage_license.sol\":1373:1394  msg.sender == spouse1 */\n      0xffffffffffffffffffffffffffffffffffffffff\n      and\n      eq\n        /* \"marriage_license.sol\":1373:1419  msg.sender == spouse1 || msg.sender == spouse2 */\n      dup1\n      tag_159\n      jumpi\n      pop\n        /* \"marriage_license.sol\":1412:1419  spouse2 */\n      0x09\n      0x00\n      swap1\n      sload\n      swap1\n      0x0100\n      exp\n      swap1\n      div\n      0xffffffffffffffffffffffffffffffffffffffff\n      and\n        /* \"marriage_license.sol\":1398:1419  msg.sender == spouse2 */\n      0xffffffffffffffffffffffffffffffffffffffff\n      and\n        /* \"marriage_license.sol\":1398:1408  msg.sender */\n      caller\n        /* \"marriage_license.sol\":1398:1419  msg.sender == spouse2 */\n      0xffffffffffffffffffffffffffffffffffffffff\n      and\n      eq\n        /* \"marriage_license.sol\":1373:1419  msg.sender == spouse1 || msg.sender == spouse2 */\n    tag_159:\n        /* \"marriage_license.sol\":1365:1459  require(msg.sender == spouse1 || msg.sender == spouse2, \"Only spouses can call this function\") */\n      tag_160\n      jumpi\n      mload(0x40)\n      0x08c379a000000000000000000000000000000000000000000000000000000000\n      dup2\n      mstore\n      0x04\n      add\n      tag_161\n      swap1\n      tag_140\n      jump\t// in\n    tag_161:\n      mload(0x40)\n      dup1\n      swap2\n      sub\n      swap1\n      revert\n    tag_160:\n        /* \"marriage_license.sol\":3354:3363  isMarried */\n      0x09\n      0x14\n      swap1\n      sload\n      swap1\n      0x0100\n      exp\n      swap1\n      div\n      0xff\n      and\n        /* \"marriage_license.sol\":3346:3401  require(isMarried, \"Non-married people cannot divorce\") */\n      tag_163\n      jumpi\n      mload(0x40)\n      0x08c379a000000000000000000000000000000000000000000000000000000000\n      dup2\n      mstore\n      0x04\n      add\n      tag_164\n      swap1\n      tag_165\n      jump\t// in\n    tag_164:\n      mload(0x40)\n      dup1\n      swap2\n      sub\n      swap1\n      revert\n    tag_163:\n        /* \"marriage_license.sol\":3412:3440  bool enoughParticipantsVoted */\n      0x00\n        /* \"marriage_license.sol\":3443:3486  enoughParticipantsVote(tokenId, msg.sender) */\n      tag_166\n        /* \"marriage_license.sol\":3466:3473  tokenId */\n      dup3\n        /* \"marriage_license.sol\":3475:3485  msg.sender */\n      caller\n        /* \"marriage_license.sol\":3443:3465  enoughParticipantsVote */\n      tag_167\n        /* \"marriage_license.sol\":3443:3486  enoughParticipantsVote(tokenId, msg.sender) */\n      jump\t// in\n    tag_166:\n        /* \"marriage_license.sol\":3412:3486  bool enoughParticipantsVoted = enoughParticipantsVote(tokenId, msg.sender) */\n      swap1\n      pop\n        /* \"marriage_license.sol\":3505:3528  enoughParticipantsVoted */\n      dup1\n        /* \"marriage_license.sol\":3497:3577  require(enoughParticipantsVoted, \"Not enough participants agree to the divorce\") */\n      tag_168\n      jumpi\n      mload(0x40)\n      0x08c379a000000000000000000000000000000000000000000000000000000000\n      dup2\n      mstore\n      0x04\n      add\n      tag_169\n      swap1\n      tag_170\n      jump\t// in\n    tag_169:\n      mload(0x40)\n      dup1\n      swap2\n      sub\n      swap1\n      revert\n    tag_168:\n        /* \"marriage_license.sol\":3624:3637  _burn(token1) */\n      tag_171\n        /* \"marriage_license.sol\":3630:3636  token1 */\n      sload(0x06)\n        /* \"marriage_license.sol\":3624:3629  _burn */\n      tag_172\n        /* \"marriage_license.sol\":3624:3637  _burn(token1) */\n      jump\t// in\n    tag_171:\n        /* \"marriage_license.sol\":3648:3661  _burn(token2) */\n      tag_173\n        /* \"marriage_license.sol\":3654:3660  token2 */\n      sload(0x07)\n        /* \"marriage_license.sol\":3648:3653  _burn */\n      tag_172\n        /* \"marriage_license.sol\":3648:3661  _burn(token2) */\n      jump\t// in\n    tag_173:\n        /* \"marriage_license.sol\":3712:3717  false */\n      0x00\n        /* \"marriage_license.sol\":3700:3709  isMarried */\n      0x09\n      0x14\n        /* \"marriage_license.sol\":3700:3717  isMarried = false */\n      0x0100\n      exp\n      dup2\n      sload\n      dup2\n      0xff\n      mul\n      not\n      and\n      swap1\n      dup4\n      iszero\n      iszero\n      mul\n      or\n      swap1\n      sstore\n      pop\n        /* \"marriage_license.sol\":3750:3757  spouse2 */\n      0x09\n      0x00\n      swap1\n      sload\n      swap1\n      0x0100\n      exp\n      swap1\n      div\n      0xffffffffffffffffffffffffffffffffffffffff\n      and\n        /* \"marriage_license.sol\":3733:3758  Divorce(spouse1, spouse2) */\n      0xffffffffffffffffffffffffffffffffffffffff\n      and\n        /* \"marriage_license.sol\":3741:3748  spouse1 */\n      0x08\n      0x00\n      swap1\n      sload\n      swap1\n      0x0100\n      exp\n      swap1\n      div\n      0xffffffffffffffffffffffffffffffffffffffff\n      and\n        /* \"marriage_license.sol\":3733:3758  Divorce(spouse1, spouse2) */\n      0xffffffffffffffffffffffffffffffffffffffff\n      and\n      0x6077edea937d666f6b546e152b1e3b4c1632f0b238e580d25b0c3a589487bfda\n      mload(0x40)\n      mload(0x40)\n      dup1\n      swap2\n      sub\n      swap1\n      log3\n        /* \"marriage_license.sol\":3335:3766  {... */\n      pop\n        /* \"marriage_license.sol\":3283:3766  function divorce(uint256 tokenId) public onlySpouse {... */\n      pop\n      jump\t// out\n        /* \"@openzeppelin/contracts/token/ERC721/ERC721.sol\":4985:5193  function safeTransferFrom(address from, address to, uint256 tokenId, bytes memory data) public virtual {... */\n    tag_85:\n        /* \"@openzeppelin/contracts/token/ERC721/ERC721.sol\":5098:5129  transferFrom(from, to, tokenId) */\n      tag_175\n        /* \"@openzeppelin/contracts/token/ERC721/ERC721.sol\":5111:5115  from */\n      dup5\n        /* \"@openzeppelin/contracts/token/ERC721/ERC721.sol\":5117:5119  to */\n      dup5\n        /* \"@openzeppelin/contracts/token/ERC721/ERC721.sol\":5121:5128  tokenId */\n      dup5\n        /* \"@openzeppelin/contracts/token/ERC721/ERC721.sol\":5098:5110  transferFrom */\n      tag_47\n        /* \"@openzeppelin/contracts/token/ERC721/ERC721.sol\":5098:5129  transferFrom(from, to, tokenId) */\n      jump\t// in\n    tag_175:\n        /* \"@openzeppelin/contracts/token/ERC721/ERC721.sol\":5139:5186  _checkOnERC721Received(from, to, tokenId, data) */\n      tag_176\n        /* \"@openzeppelin/contracts/token/ERC721/ERC721.sol\":5162:5166  from */\n      dup5\n        /* \"@openzeppelin/contracts/token/ERC721/ERC721.sol\":5168:5170  to */\n      dup5\n        /* \"@openzeppelin/contracts/token/ERC721/ERC721.sol\":5172:5179  tokenId */\n      dup5\n        /* \"@openzeppelin/contracts/token/ERC721/ERC721.sol\":5181:5185  data */\n      dup5\n        /* \"@openzeppelin/contracts/token/ERC721/ERC721.sol\":5139:5161  _checkOnERC721Received */\n      tag_177\n        /* \"@openzeppelin/contracts/token/ERC721/ERC721.sol\":5139:5186  _checkOnERC721Received(from, to, tokenId, data) */\n      jump\t// in\n    tag_176:\n        /* \"@openzeppelin/contracts/token/ERC721/ERC721.sol\":4985:5193  function safeTransferFrom(address from, address to, uint256 tokenId, bytes memory data) public virtual {... */\n      pop\n      pop\n      pop\n      pop\n      jump\t// out\n        /* \"marriage_license.sol\":2292:3275  function authorizeAccounts(address authorizeAddress) public onlySpouse {... */\n    tag_88:\n        /* \"marriage_license.sol\":1387:1394  spouse1 */\n      0x08\n      0x00\n      swap1\n      sload\n      swap1\n      0x0100\n      exp\n      swap1\n      div\n      0xffffffffffffffffffffffffffffffffffffffff\n      and\n        /* \"marriage_license.sol\":1373:1394  msg.sender == spouse1 */\n      0xffffffffffffffffffffffffffffffffffffffff\n      and\n        /* \"marriage_license.sol\":1373:1383  msg.sender */\n      caller\n        /* \"marriage_license.sol\":1373:1394  msg.sender == spouse1 */\n      0xffffffffffffffffffffffffffffffffffffffff\n      and\n      eq\n        /* \"marriage_license.sol\":1373:1419  msg.sender == spouse1 || msg.sender == spouse2 */\n      dup1\n      tag_179\n      jumpi\n      pop\n        /* \"marriage_license.sol\":1412:1419  spouse2 */\n      0x09\n      0x00\n      swap1\n      sload\n      swap1\n      0x0100\n      exp\n      swap1\n      div\n      0xffffffffffffffffffffffffffffffffffffffff\n      and\n        /* \"marriage_license.sol\":1398:1419  msg.sender == spouse2 */\n      0xffffffffffffffffffffffffffffffffffffffff\n      and\n        /* \"marriage_license.sol\":1398:1408  msg.sender */\n      caller\n        /* \"marriage_license.sol\":1398:1419  msg.sender == spouse2 */\n      0xffffffffffffffffffffffffffffffffffffffff\n      and\n      eq\n        /* \"marriage_license.sol\":1373:1419  msg.sender == spouse1 || msg.sender == spouse2 */\n    tag_179:\n        /* \"marriage_license.sol\":1365:1459  require(msg.sender == spouse1 || msg.sender == spouse2, \"Only spouses can call this function\") */\n      tag_180\n      jumpi\n      mload(0x40)\n      0x08c379a000000000000000000000000000000000000000000000000000000000\n      dup2\n      mstore\n      0x04\n      add\n      tag_181\n      swap1\n      tag_140\n      jump\t// in\n    tag_181:\n      mload(0x40)\n      dup1\n      swap2\n      sub\n      swap1\n      revert\n    tag_180:\n        /* \"marriage_license.sol\":2439:2446  uint8 i */\n      0x00\n        /* \"marriage_license.sol\":2435:2576  for(uint8 i = 0; i < 3; i++) {... */\n    tag_183:\n        /* \"marriage_license.sol\":2456:2457  3 */\n      0x03\n        /* \"marriage_license.sol\":2452:2453  i */\n      dup2\n        /* \"marriage_license.sol\":2452:2457  i < 3 */\n      0xff\n      and\n      lt\n        /* \"marriage_license.sol\":2435:2576  for(uint8 i = 0; i < 3; i++) {... */\n      iszero\n      tag_184\n      jumpi\n        /* \"marriage_license.sol\":2513:2529  authorizeAddress */\n      dup2\n        /* \"marriage_license.sol\":2487:2529  authorizedAddresses[i] != authorizeAddress */\n      0xffffffffffffffffffffffffffffffffffffffff\n      and\n        /* \"marriage_license.sol\":2487:2506  authorizedAddresses */\n      0x0c\n        /* \"marriage_license.sol\":2507:2508  i */\n      dup3\n        /* \"marriage_license.sol\":2487:2509  authorizedAddresses[i] */\n      0xff\n      and\n      dup2\n      sload\n      dup2\n      lt\n      tag_186\n      jumpi\n      tag_187\n      tag_188\n      jump\t// in\n    tag_187:\n    tag_186:\n      swap1\n      0x00\n      mstore\n      keccak256(0x00, 0x20)\n      add\n      0x00\n      swap1\n      sload\n      swap1\n      0x0100\n      exp\n      swap1\n      div\n      0xffffffffffffffffffffffffffffffffffffffff\n      and\n        /* \"marriage_license.sol\":2487:2529  authorizedAddresses[i] != authorizeAddress */\n      0xffffffffffffffffffffffffffffffffffffffff\n      and\n      sub\n        /* \"marriage_license.sol\":2479:2564  require(authorizedAddresses[i] != authorizeAddress, \"Cannot re-authorize an address\") */\n      tag_190\n      jumpi\n      mload(0x40)\n      0x08c379a000000000000000000000000000000000000000000000000000000000\n      dup2\n      mstore\n      0x04\n      add\n      tag_191\n      swap1\n      tag_192\n      jump\t// in\n    tag_191:\n      mload(0x40)\n      dup1\n      swap2\n      sub\n      swap1\n      revert\n    tag_190:\n        /* \"marriage_license.sol\":2459:2462  i++ */\n      dup1\n      dup1\n      tag_193\n      swap1\n      tag_194\n      jump\t// in\n    tag_193:\n      swap2\n      pop\n      pop\n        /* \"marriage_license.sol\":2435:2576  for(uint8 i = 0; i < 3; i++) {... */\n      jump(tag_183)\n    tag_184:\n      pop\n        /* \"marriage_license.sol\":2670:2677  spouse1 */\n      0x08\n      0x00\n      swap1\n      sload\n      swap1\n      0x0100\n      exp\n      swap1\n      div\n      0xffffffffffffffffffffffffffffffffffffffff\n      and\n        /* \"marriage_license.sol\":2656:2677  msg.sender == spouse1 */\n      0xffffffffffffffffffffffffffffffffffffffff\n      and\n        /* \"marriage_license.sol\":2656:2666  msg.sender */\n      caller\n        /* \"marriage_license.sol\":2656:2677  msg.sender == spouse1 */\n      0xffffffffffffffffffffffffffffffffffffffff\n      and\n      sub\n        /* \"marriage_license.sol\":2653:2856  if(msg.sender == spouse1) {... */\n      tag_195\n      jumpi\n        /* \"marriage_license.sol\":2738:2739  1 */\n      0x01\n        /* \"marriage_license.sol\":2694:2714  authorizedVotingList */\n      0x0d\n        /* \"marriage_license.sol\":2694:2732  authorizedVotingList[authorizeAddress] */\n      0x00\n        /* \"marriage_license.sol\":2715:2731  authorizeAddress */\n      dup4\n        /* \"marriage_license.sol\":2694:2732  authorizedVotingList[authorizeAddress] */\n      0xffffffffffffffffffffffffffffffffffffffff\n      and\n      0xffffffffffffffffffffffffffffffffffffffff\n      and\n      dup2\n      mstore\n      0x20\n      add\n      swap1\n      dup2\n      mstore\n      0x20\n      add\n      0x00\n      keccak256\n        /* \"marriage_license.sol\":2733:2734  0 */\n      0x00\n        /* \"marriage_license.sol\":2694:2735  authorizedVotingList[authorizeAddress][0] */\n      dup2\n      sload\n      dup2\n      lt\n      tag_196\n      jumpi\n      tag_197\n      tag_188\n      jump\t// in\n    tag_197:\n    tag_196:\n      swap1\n      0x00\n      mstore\n      keccak256(0x00, 0x20)\n      swap1\n      0x20\n      swap2\n      dup3\n      dup3\n      div\n      add\n      swap2\n      swap1\n      mod\n        /* \"marriage_license.sol\":2694:2739  authorizedVotingList[authorizeAddress][0] = 1 */\n      0x0100\n      exp\n      dup2\n      sload\n      dup2\n      0xff\n      mul\n      not\n      and\n      swap1\n      dup4\n      0xff\n      and\n      mul\n      or\n      swap1\n      sstore\n      pop\n        /* \"marriage_license.sol\":2653:2856  if(msg.sender == spouse1) {... */\n      jump(tag_199)\n    tag_195:\n        /* \"marriage_license.sol\":2775:2782  spouse2 */\n      0x09\n      0x00\n      swap1\n      sload\n      swap1\n      0x0100\n      exp\n      swap1\n      div\n      0xffffffffffffffffffffffffffffffffffffffff\n      and\n        /* \"marriage_license.sol\":2761:2782  msg.sender == spouse2 */\n      0xffffffffffffffffffffffffffffffffffffffff\n      and\n        /* \"marriage_license.sol\":2761:2771  msg.sender */\n      caller\n        /* \"marriage_license.sol\":2761:2782  msg.sender == spouse2 */\n      0xffffffffffffffffffffffffffffffffffffffff\n      and\n      sub\n        /* \"marriage_license.sol\":2757:2856  if (msg.sender == spouse2) {... */\n      tag_200\n      jumpi\n        /* \"marriage_license.sol\":2843:2844  1 */\n      0x01\n        /* \"marriage_license.sol\":2799:2819  authorizedVotingList */\n      0x0d\n        /* \"marriage_license.sol\":2799:2837  authorizedVotingList[authorizeAddress] */\n      0x00\n        /* \"marriage_license.sol\":2820:2836  authorizeAddress */\n      dup4\n        /* \"marriage_license.sol\":2799:2837  authorizedVotingList[authorizeAddress] */\n      0xffffffffffffffffffffffffffffffffffffffff\n      and\n      0xffffffffffffffffffffffffffffffffffffffff\n      and\n      dup2\n      mstore\n      0x20\n      add\n      swap1\n      dup2\n      mstore\n      0x20\n      add\n      0x00\n      keccak256\n        /* \"marriage_license.sol\":2838:2839  1 */\n      0x01\n        /* \"marriage_license.sol\":2799:2840  authorizedVotingList[authorizeAddress][1] */\n      dup2\n      sload\n      dup2\n      lt\n      tag_201\n      jumpi\n      tag_202\n      tag_188\n      jump\t// in\n    tag_202:\n    tag_201:\n      swap1\n      0x00\n      mstore\n      keccak256(0x00, 0x20)\n      swap1\n      0x20\n      swap2\n      dup3\n      dup3\n      div\n      add\n      swap2\n      swap1\n      mod\n        /* \"marriage_license.sol\":2799:2844  authorizedVotingList[authorizeAddress][1] = 1 */\n      0x0100\n      exp\n      dup2\n      sload\n      dup2\n      0xff\n      mul\n      not\n      and\n      swap1\n      dup4\n      0xff\n      and\n      mul\n      or\n      swap1\n      sstore\n      pop\n        /* \"marriage_license.sol\":2757:2856  if (msg.sender == spouse2) {... */\n    tag_200:\n        /* \"marriage_license.sol\":2653:2856  if(msg.sender == spouse1) {... */\n    tag_199:\n        /* \"marriage_license.sol\":3094:3095  2 */\n      0x02\n        /* \"marriage_license.sol\":3049:3069  authorizedVotingList */\n      0x0d\n        /* \"marriage_license.sol\":3049:3087  authorizedVotingList[authorizeAddress] */\n      0x00\n        /* \"marriage_license.sol\":3070:3086  authorizeAddress */\n      dup4\n        /* \"marriage_license.sol\":3049:3087  authorizedVotingList[authorizeAddress] */\n      0xffffffffffffffffffffffffffffffffffffffff\n      and\n      0xffffffffffffffffffffffffffffffffffffffff\n      and\n      dup2\n      mstore\n      0x20\n      add\n      swap1\n      dup2\n      mstore\n      0x20\n      add\n      0x00\n      keccak256\n        /* \"marriage_license.sol\":3088:3089  1 */\n      0x01\n        /* \"marriage_license.sol\":3049:3090  authorizedVotingList[authorizeAddress][1] */\n      dup2\n      sload\n      dup2\n      lt\n      tag_204\n      jumpi\n      tag_205\n      tag_188\n      jump\t// in\n    tag_205:\n    tag_204:\n      swap1\n      0x00\n      mstore\n      keccak256(0x00, 0x20)\n      swap1\n      0x20\n      swap2\n      dup3\n      dup3\n      div\n      add\n      swap2\n      swap1\n      mod\n      swap1\n      sload\n      swap1\n      0x0100\n      exp\n      swap1\n      div\n      0xff\n      and\n        /* \"marriage_license.sol\":3007:3027  authorizedVotingList */\n      0x0d\n        /* \"marriage_license.sol\":3007:3045  authorizedVotingList[authorizeAddress] */\n      0x00\n        /* \"marriage_license.sol\":3028:3044  authorizeAddress */\n      dup5\n        /* \"marriage_license.sol\":3007:3045  authorizedVotingList[authorizeAddress] */\n      0xffffffffffffffffffffffffffffffffffffffff\n      and\n      0xffffffffffffffffffffffffffffffffffffffff\n      and\n      dup2\n      mstore\n      0x20\n      add\n      swap1\n      dup2\n      mstore\n      0x20\n      add\n      0x00\n      keccak256\n        /* \"marriage_license.sol\":3046:3047  0 */\n      0x00\n        /* \"marriage_license.sol\":3007:3048  authorizedVotingList[authorizeAddress][0] */\n      dup2\n      sload\n      dup2\n      lt\n      tag_207\n      jumpi\n      tag_208\n      tag_188\n      jump\t// in\n    tag_208:\n    tag_207:\n      swap1\n      0x00\n      mstore\n      keccak256(0x00, 0x20)\n      swap1\n      0x20\n      swap2\n      dup3\n      dup3\n      div\n      add\n      swap2\n      swap1\n      mod\n      swap1\n      sload\n      swap1\n      0x0100\n      exp\n      swap1\n      div\n      0xff\n      and\n        /* \"marriage_license.sol\":3007:3090  authorizedVotingList[authorizeAddress][0]+authorizedVotingList[authorizeAddress][1] */\n      tag_210\n      swap2\n      swap1\n      tag_211\n      jump\t// in\n    tag_210:\n        /* \"marriage_license.sol\":3007:3095  authorizedVotingList[authorizeAddress][0]+authorizedVotingList[authorizeAddress][1] == 2 */\n      0xff\n      and\n      sub\n        /* \"marriage_license.sol\":3004:3268  if(authorizedVotingList[authorizeAddress][0]+authorizedVotingList[authorizeAddress][1] == 2) {... */\n      tag_212\n      jumpi\n        /* \"marriage_license.sol\":3136:3137  1 */\n      0x01\n        /* \"marriage_license.sol\":3112:3132  verifyAddressesToken */\n      0x0b\n      0x00\n        /* \"marriage_license.sol\":3112:3137  verifyAddressesToken += 1 */\n      dup3\n      dup3\n      sload\n      tag_213\n      swap2\n      swap1\n      tag_214\n      jump\t// in\n    tag_213:\n      swap3\n      pop\n      pop\n      dup2\n      swap1\n      sstore\n      pop\n        /* \"marriage_license.sol\":3152:3171  authorizedAddresses */\n      0x0c\n        /* \"marriage_license.sol\":3177:3193  authorizeAddress */\n      dup2\n        /* \"marriage_license.sol\":3152:3194  authorizedAddresses.push(authorizeAddress) */\n      swap1\n      dup1\n      0x01\n      dup2\n      sload\n      add\n      dup1\n      dup3\n      sstore\n      dup1\n      swap2\n      pop\n      pop\n      0x01\n      swap1\n      sub\n      swap1\n      0x00\n      mstore\n      keccak256(0x00, 0x20)\n      add\n      0x00\n      swap1\n      swap2\n      swap1\n      swap2\n      swap1\n      swap2\n      0x0100\n      exp\n      dup2\n      sload\n      dup2\n      0xffffffffffffffffffffffffffffffffffffffff\n      mul\n      not\n      and\n      swap1\n      dup4\n      0xffffffffffffffffffffffffffffffffffffffff\n      and\n      mul\n      or\n      swap1\n      sstore\n      pop\n        /* \"marriage_license.sol\":3211:3256  _mint(authorizeAddress, verifyAddressesToken) */\n      tag_216\n        /* \"marriage_license.sol\":3217:3233  authorizeAddress */\n      dup2\n        /* \"marriage_license.sol\":3235:3255  verifyAddressesToken */\n      sload(0x0b)\n        /* \"marriage_license.sol\":3211:3216  _mint */\n      tag_146\n        /* \"marriage_license.sol\":3211:3256  _mint(authorizeAddress, verifyAddressesToken) */\n      jump\t// in\n    tag_216:\n        /* \"marriage_license.sol\":3004:3268  if(authorizedVotingList[authorizeAddress][0]+authorizedVotingList[authorizeAddress][1] == 2) {... */\n    tag_212:\n        /* \"marriage_license.sol\":2292:3275  function authorizeAccounts(address authorizeAddress) public onlySpouse {... */\n      pop\n      jump\t// out\n        /* \"@openzeppelin/contracts/token/ERC721/ERC721.sol\":2677:2932  function tokenURI(uint256 tokenId) public view virtual returns (string memory) {... */\n    tag_91:\n        /* \"@openzeppelin/contracts/token/ERC721/ERC721.sol\":2741:2754  string memory */\n      0x60\n        /* \"@openzeppelin/contracts/token/ERC721/ERC721.sol\":2766:2788  _requireOwned(tokenId) */\n      tag_218\n        /* \"@openzeppelin/contracts/token/ERC721/ERC721.sol\":2780:2787  tokenId */\n      dup3\n        /* \"@openzeppelin/contracts/token/ERC721/ERC721.sol\":2766:2779  _requireOwned */\n      tag_112\n        /* \"@openzeppelin/contracts/token/ERC721/ERC721.sol\":2766:2788  _requireOwned(tokenId) */\n      jump\t// in\n    tag_218:\n      pop\n        /* \"@openzeppelin/contracts/token/ERC721/ERC721.sol\":2799:2820  string memory baseURI */\n      0x00\n        /* \"@openzeppelin/contracts/token/ERC721/ERC721.sol\":2823:2833  _baseURI() */\n      tag_219\n        /* \"@openzeppelin/contracts/token/ERC721/ERC721.sol\":2823:2831  _baseURI */\n      tag_220\n        /* \"@openzeppelin/contracts/token/ERC721/ERC721.sol\":2823:2833  _baseURI() */\n      jump\t// in\n    tag_219:\n        /* \"@openzeppelin/contracts/token/ERC721/ERC721.sol\":2799:2833  string memory baseURI = _baseURI() */\n      swap1\n      pop\n        /* \"@openzeppelin/contracts/token/ERC721/ERC721.sol\":2874:2875  0 */\n      0x00\n        /* \"@openzeppelin/contracts/token/ERC721/ERC721.sol\":2856:2863  baseURI */\n      dup2\n        /* \"@openzeppelin/contracts/token/ERC721/ERC721.sol\":2850:2871  bytes(baseURI).length */\n      mload\n        /* \"@openzeppelin/contracts/token/ERC721/ERC721.sol\":2850:2875  bytes(baseURI).length > 0 */\n      gt\n        /* \"@openzeppelin/contracts/token/ERC721/ERC721.sol\":2850:2925  bytes(baseURI).length > 0 ? string.concat(baseURI, tokenId.toString()) : \"\" */\n      tag_221\n      jumpi\n      mload(0x40)\n      dup1\n      0x20\n      add\n      0x40\n      mstore\n      dup1\n      0x00\n      dup2\n      mstore\n      pop\n      jump(tag_222)\n    tag_221:\n        /* \"@openzeppelin/contracts/token/ERC721/ERC721.sol\":2892:2899  baseURI */\n      dup1\n        /* \"@openzeppelin/contracts/token/ERC721/ERC721.sol\":2901:2919  tokenId.toString() */\n      tag_223\n        /* \"@openzeppelin/contracts/token/ERC721/ERC721.sol\":2901:2908  tokenId */\n      dup5\n        /* \"@openzeppelin/contracts/token/ERC721/ERC721.sol\":2901:2917  tokenId.toString */\n      tag_224\n        /* \"@openzeppelin/contracts/token/ERC721/ERC721.sol\":2901:2919  tokenId.toString() */\n      jump\t// in\n    tag_223:\n        /* \"@openzeppelin/contracts/token/ERC721/ERC721.sol\":2878:2920  string.concat(baseURI, tokenId.toString()) */\n      add(0x20, mload(0x40))\n      tag_225\n      swap3\n      swap2\n      swap1\n      tag_226\n      jump\t// in\n    tag_225:\n      mload(0x40)\n      0x20\n      dup2\n      dup4\n      sub\n      sub\n      dup2\n      mstore\n      swap1\n      0x40\n      mstore\n        /* \"@openzeppelin/contracts/token/ERC721/ERC721.sol\":2850:2925  bytes(baseURI).length > 0 ? string.concat(baseURI, tokenId.toString()) : \"\" */\n    tag_222:\n        /* \"@openzeppelin/contracts/token/ERC721/ERC721.sol\":2843:2925  return bytes(baseURI).length > 0 ? string.concat(baseURI, tokenId.toString()) : \"\" */\n      swap2\n      pop\n      pop\n        /* \"@openzeppelin/contracts/token/ERC721/ERC721.sol\":2677:2932  function tokenURI(uint256 tokenId) public view virtual returns (string memory) {... */\n      swap2\n      swap1\n      pop\n      jump\t// out\n        /* \"@openzeppelin/contracts/token/ERC721/ERC721.sol\":3928:4081  function isApprovedForAll(address owner, address operator) public view virtual returns (bool) {... */\n    tag_96:\n        /* \"@openzeppelin/contracts/token/ERC721/ERC721.sol\":4016:4020  bool */\n      0x00\n        /* \"@openzeppelin/contracts/token/ERC721/ERC721.sol\":4039:4057  _operatorApprovals */\n      0x05\n        /* \"@openzeppelin/contracts/token/ERC721/ERC721.sol\":4039:4064  _operatorApprovals[owner] */\n      0x00\n        /* \"@openzeppelin/contracts/token/ERC721/ERC721.sol\":4058:4063  owner */\n      dup5\n        /* \"@openzeppelin/contracts/token/ERC721/ERC721.sol\":4039:4064  _operatorApprovals[owner] */\n      0xffffffffffffffffffffffffffffffffffffffff\n      and\n      0xffffffffffffffffffffffffffffffffffffffff\n      and\n      dup2\n      mstore\n      0x20\n      add\n      swap1\n      dup2\n      mstore\n      0x20\n      add\n      0x00\n      keccak256\n        /* \"@openzeppelin/contracts/token/ERC721/ERC721.sol\":4039:4074  _operatorApprovals[owner][operator] */\n      0x00\n        /* \"@openzeppelin/contracts/token/ERC721/ERC721.sol\":4065:4073  operator */\n      dup4\n        /* \"@openzeppelin/contracts/token/ERC721/ERC721.sol\":4039:4074  _operatorApprovals[owner][operator] */\n      0xffffffffffffffffffffffffffffffffffffffff\n      and\n      0xffffffffffffffffffffffffffffffffffffffff\n      and\n      dup2\n      mstore\n      0x20\n      add\n      swap1\n      dup2\n      mstore\n      0x20\n      add\n      0x00\n      keccak256\n      0x00\n      swap1\n      sload\n      swap1\n      0x0100\n      exp\n      swap1\n      div\n      0xff\n      and\n        /* \"@openzeppelin/contracts/token/ERC721/ERC721.sol\":4032:4074  return _operatorApprovals[owner][operator] */\n      swap1\n      pop\n        /* \"@openzeppelin/contracts/token/ERC721/ERC721.sol\":3928:4081  function isApprovedForAll(address owner, address operator) public view virtual returns (bool) {... */\n      swap3\n      swap2\n      pop\n      pop\n      jump\t// out\n        /* \"@openzeppelin/contracts/utils/introspection/ERC165.sol\":762:908  function supportsInterface(bytes4 interfaceId) public view virtual returns (bool) {... */\n    tag_102:\n        /* \"@openzeppelin/contracts/utils/introspection/ERC165.sol\":838:842  bool */\n      0x00\n        /* \"@openzeppelin/contracts/utils/introspection/ERC165.sol\":876:901  type(IERC165).interfaceId */\n      0x01ffc9a700000000000000000000000000000000000000000000000000000000\n        /* \"@openzeppelin/contracts/utils/introspection/ERC165.sol\":861:901  interfaceId == type(IERC165).interfaceId */\n      not(0xffffffffffffffffffffffffffffffffffffffffffffffffffffffff)\n      and\n        /* \"@openzeppelin/contracts/utils/introspection/ERC165.sol\":861:872  interfaceId */\n      dup3\n        /* \"@openzeppelin/contracts/utils/introspection/ERC165.sol\":861:901  interfaceId == type(IERC165).interfaceId */\n      not(0xffffffffffffffffffffffffffffffffffffffffffffffffffffffff)\n      and\n      eq\n        /* \"@openzeppelin/contracts/utils/introspection/ERC165.sol\":854:901  return interfaceId == type(IERC165).interfaceId */\n      swap1\n      pop\n        /* \"@openzeppelin/contracts/utils/introspection/ERC165.sol\":762:908  function supportsInterface(bytes4 interfaceId) public view virtual returns (bool) {... */\n      swap2\n      swap1\n      pop\n      jump\t// out\n        /* \"@openzeppelin/contracts/token/ERC721/ERC721.sol\":16138:16379  function _requireOwned(uint256 tokenId) internal view returns (address) {... */\n    tag_112:\n        /* \"@openzeppelin/contracts/token/ERC721/ERC721.sol\":16201:16208  address */\n      0x00\n        /* \"@openzeppelin/contracts/token/ERC721/ERC721.sol\":16220:16233  address owner */\n      dup1\n        /* \"@openzeppelin/contracts/token/ERC721/ERC721.sol\":16236:16253  _ownerOf(tokenId) */\n      tag_230\n        /* \"@openzeppelin/contracts/token/ERC721/ERC721.sol\":16245:16252  tokenId */\n      dup4\n        /* \"@openzeppelin/contracts/token/ERC721/ERC721.sol\":16236:16244  _ownerOf */\n      tag_231\n        /* \"@openzeppelin/contracts/token/ERC721/ERC721.sol\":16236:16253  _ownerOf(tokenId) */\n      jump\t// in\n    tag_230:\n        /* \"@openzeppelin/contracts/token/ERC721/ERC721.sol\":16220:16253  address owner = _ownerOf(tokenId) */\n      swap1\n      pop\n        /* \"@openzeppelin/contracts/token/ERC721/ERC721.sol\":16284:16285  0 */\n      0x00\n        /* \"@openzeppelin/contracts/token/ERC721/ERC721.sol\":16267:16286  owner == address(0) */\n      0xffffffffffffffffffffffffffffffffffffffff\n      and\n        /* \"@openzeppelin/contracts/token/ERC721/ERC721.sol\":16267:16272  owner */\n      dup2\n        /* \"@openzeppelin/contracts/token/ERC721/ERC721.sol\":16267:16286  owner == address(0) */\n      0xffffffffffffffffffffffffffffffffffffffff\n      and\n      sub\n        /* \"@openzeppelin/contracts/token/ERC721/ERC721.sol\":16263:16351  if (owner == address(0)) {... */\n      tag_232\n      jumpi\n        /* \"@openzeppelin/contracts/token/ERC721/ERC721.sol\":16332:16339  tokenId */\n      dup3\n        /* \"@openzeppelin/contracts/token/ERC721/ERC721.sol\":16309:16340  ERC721NonexistentToken(tokenId) */\n      mload(0x40)\n      0x7e27328900000000000000000000000000000000000000000000000000000000\n      dup2\n      mstore\n      0x04\n      add\n      tag_233\n      swap2\n      swap1\n      tag_64\n      jump\t// in\n    tag_233:\n      mload(0x40)\n      dup1\n      swap2\n      sub\n      swap1\n      revert\n        /* \"@openzeppelin/contracts/token/ERC721/ERC721.sol\":16263:16351  if (owner == address(0)) {... */\n    tag_232:\n        /* \"@openzeppelin/contracts/token/ERC721/ERC721.sol\":16367:16372  owner */\n      dup1\n        /* \"@openzeppelin/contracts/token/ERC721/ERC721.sol\":16360:16372  return owner */\n      swap2\n      pop\n      pop\n        /* \"@openzeppelin/contracts/token/ERC721/ERC721.sol\":16138:16379  function _requireOwned(uint256 tokenId) internal view returns (address) {... */\n      swap2\n      swap1\n      pop\n      jump\t// out\n        /* \"@openzeppelin/contracts/token/ERC721/ERC721.sol\":5938:6065  function _getApproved(uint256 tokenId) internal view virtual returns (address) {... */\n    tag_114:\n        /* \"@openzeppelin/contracts/token/ERC721/ERC721.sol\":6008:6015  address */\n      0x00\n        /* \"@openzeppelin/contracts/token/ERC721/ERC721.sol\":6034:6049  _tokenApprovals */\n      0x04\n        /* \"@openzeppelin/contracts/token/ERC721/ERC721.sol\":6034:6058  _tokenApprovals[tokenId] */\n      0x00\n        /* \"@openzeppelin/contracts/token/ERC721/ERC721.sol\":6050:6057  tokenId */\n      dup4\n        /* \"@openzeppelin/contracts/token/ERC721/ERC721.sol\":6034:6058  _tokenApprovals[tokenId] */\n      dup2\n      mstore\n      0x20\n      add\n      swap1\n      dup2\n      mstore\n      0x20\n      add\n      0x00\n      keccak256\n      0x00\n      swap1\n      sload\n      swap1\n      0x0100\n      exp\n      swap1\n      div\n      0xffffffffffffffffffffffffffffffffffffffff\n      and\n        /* \"@openzeppelin/contracts/token/ERC721/ERC721.sol\":6027:6058  return _tokenApprovals[tokenId] */\n      swap1\n      pop\n        /* \"@openzeppelin/contracts/token/ERC721/ERC721.sol\":5938:6065  function _getApproved(uint256 tokenId) internal view virtual returns (address) {... */\n      swap2\n      swap1\n      pop\n      jump\t// out\n        /* \"@openzeppelin/contracts/utils/Context.sol\":656:752  function _msgSender() internal view virtual returns (address) {... */\n    tag_118:\n        /* \"@openzeppelin/contracts/utils/Context.sol\":709:716  address */\n      0x00\n        /* \"@openzeppelin/contracts/utils/Context.sol\":735:745  msg.sender */\n      caller\n        /* \"@openzeppelin/contracts/utils/Context.sol\":728:745  return msg.sender */\n      swap1\n      pop\n        /* \"@openzeppelin/contracts/utils/Context.sol\":656:752  function _msgSender() internal view virtual returns (address) {... */\n      swap1\n      jump\t// out\n        /* \"@openzeppelin/contracts/token/ERC721/ERC721.sol\":14418:14538  function _approve(address to, uint256 tokenId, address auth) internal {... */\n    tag_119:\n        /* \"@openzeppelin/contracts/token/ERC721/ERC721.sol\":14498:14531  _approve(to, tokenId, auth, true) */\n      tag_237\n        /* \"@openzeppelin/contracts/token/ERC721/ERC721.sol\":14507:14509  to */\n      dup4\n        /* \"@openzeppelin/contracts/token/ERC721/ERC721.sol\":14511:14518  tokenId */\n      dup4\n        /* \"@openzeppelin/contracts/token/ERC721/ERC721.sol\":14520:14524  auth */\n      dup4\n        /* \"@openzeppelin/contracts/token/ERC721/ERC721.sol\":14526:14530  true */\n      0x01\n        /* \"@openzeppelin/contracts/token/ERC721/ERC721.sol\":14498:14506  _approve */\n      tag_238\n        /* \"@openzeppelin/contracts/token/ERC721/ERC721.sol\":14498:14531  _approve(to, tokenId, auth, true) */\n      jump\t// in\n    tag_237:\n        /* \"@openzeppelin/contracts/token/ERC721/ERC721.sol\":14418:14538  function _approve(address to, uint256 tokenId, address auth) internal {... */\n      pop\n      pop\n      pop\n      jump\t// out\n        /* \"@openzeppelin/contracts/token/ERC721/ERC721.sol\":8838:9633  function _update(address to, uint256 tokenId, address auth) internal virtual returns (address) {... */\n    tag_125:\n        /* \"@openzeppelin/contracts/token/ERC721/ERC721.sol\":8924:8931  address */\n      0x00\n        /* \"@openzeppelin/contracts/token/ERC721/ERC721.sol\":8943:8955  address from */\n      dup1\n        /* \"@openzeppelin/contracts/token/ERC721/ERC721.sol\":8958:8975  _ownerOf(tokenId) */\n      tag_240\n        /* \"@openzeppelin/contracts/token/ERC721/ERC721.sol\":8967:8974  tokenId */\n      dup5\n        /* \"@openzeppelin/contracts/token/ERC721/ERC721.sol\":8958:8966  _ownerOf */\n      tag_231\n        /* \"@openzeppelin/contracts/token/ERC721/ERC721.sol\":8958:8975  _ownerOf(tokenId) */\n      jump\t// in\n    tag_240:\n        /* \"@openzeppelin/contracts/token/ERC721/ERC721.sol\":8943:8975  address from = _ownerOf(tokenId) */\n      swap1\n      pop\n        /* \"@openzeppelin/contracts/token/ERC721/ERC721.sol\":9051:9052  0 */\n      0x00\n        /* \"@openzeppelin/contracts/token/ERC721/ERC721.sol\":9035:9053  auth != address(0) */\n      0xffffffffffffffffffffffffffffffffffffffff\n      and\n        /* \"@openzeppelin/contracts/token/ERC721/ERC721.sol\":9035:9039  auth */\n      dup4\n        /* \"@openzeppelin/contracts/token/ERC721/ERC721.sol\":9035:9053  auth != address(0) */\n      0xffffffffffffffffffffffffffffffffffffffff\n      and\n      eq\n        /* \"@openzeppelin/contracts/token/ERC721/ERC721.sol\":9031:9117  if (auth != address(0)) {... */\n      tag_241\n      jumpi\n        /* \"@openzeppelin/contracts/token/ERC721/ERC721.sol\":9069:9106  _checkAuthorized(from, auth, tokenId) */\n      tag_242\n        /* \"@openzeppelin/contracts/token/ERC721/ERC721.sol\":9086:9090  from */\n      dup2\n        /* \"@openzeppelin/contracts/token/ERC721/ERC721.sol\":9092:9096  auth */\n      dup5\n        /* \"@openzeppelin/contracts/token/ERC721/ERC721.sol\":9098:9105  tokenId */\n      dup7\n        /* \"@openzeppelin/contracts/token/ERC721/ERC721.sol\":9069:9085  _checkAuthorized */\n      tag_243\n        /* \"@openzeppelin/contracts/token/ERC721/ERC721.sol\":9069:9106  _checkAuthorized(from, auth, tokenId) */\n      jump\t// in\n    tag_242:\n        /* \"@openzeppelin/contracts/token/ERC721/ERC721.sol\":9031:9117  if (auth != address(0)) {... */\n    tag_241:\n        /* \"@openzeppelin/contracts/token/ERC721/ERC721.sol\":9177:9178  0 */\n      0x00\n        /* \"@openzeppelin/contracts/token/ERC721/ERC721.sol\":9161:9179  from != address(0) */\n      0xffffffffffffffffffffffffffffffffffffffff\n      and\n        /* \"@openzeppelin/contracts/token/ERC721/ERC721.sol\":9161:9165  from */\n      dup2\n        /* \"@openzeppelin/contracts/token/ERC721/ERC721.sol\":9161:9179  from != address(0) */\n      0xffffffffffffffffffffffffffffffffffffffff\n      and\n      eq\n        /* \"@openzeppelin/contracts/token/ERC721/ERC721.sol\":9157:9413  if (from != address(0)) {... */\n      tag_244\n      jumpi\n        /* \"@openzeppelin/contracts/token/ERC721/ERC721.sol\":9277:9325  _approve(address(0), tokenId, address(0), false) */\n      tag_245\n        /* \"@openzeppelin/contracts/token/ERC721/ERC721.sol\":9294:9295  0 */\n      0x00\n        /* \"@openzeppelin/contracts/token/ERC721/ERC721.sol\":9298:9305  tokenId */\n      dup6\n        /* \"@openzeppelin/contracts/token/ERC721/ERC721.sol\":9315:9316  0 */\n      0x00\n        /* \"@openzeppelin/contracts/token/ERC721/ERC721.sol\":9319:9324  false */\n      dup1\n        /* \"@openzeppelin/contracts/token/ERC721/ERC721.sol\":9277:9285  _approve */\n      tag_238\n        /* \"@openzeppelin/contracts/token/ERC721/ERC721.sol\":9277:9325  _approve(address(0), tokenId, address(0), false) */\n      jump\t// in\n    tag_245:\n        /* \"@openzeppelin/contracts/token/ERC721/ERC721.sol\":9387:9388  1 */\n      0x01\n        /* \"@openzeppelin/contracts/token/ERC721/ERC721.sol\":9368:9377  _balances */\n      0x03\n        /* \"@openzeppelin/contracts/token/ERC721/ERC721.sol\":9368:9383  _balances[from] */\n      0x00\n        /* \"@openzeppelin/contracts/token/ERC721/ERC721.sol\":9378:9382  from */\n      dup4\n        /* \"@openzeppelin/contracts/token/ERC721/ERC721.sol\":9368:9383  _balances[from] */\n      0xffffffffffffffffffffffffffffffffffffffff\n      and\n      0xffffffffffffffffffffffffffffffffffffffff\n      and\n      dup2\n      mstore\n      0x20\n      add\n      swap1\n      dup2\n      mstore\n      0x20\n      add\n      0x00\n      keccak256\n      0x00\n        /* \"@openzeppelin/contracts/token/ERC721/ERC721.sol\":9368:9388  _balances[from] -= 1 */\n      dup3\n      dup3\n      sload\n      sub\n      swap3\n      pop\n      pop\n      dup2\n      swap1\n      sstore\n      pop\n        /* \"@openzeppelin/contracts/token/ERC721/ERC721.sol\":9157:9413  if (from != address(0)) {... */\n    tag_244:\n        /* \"@openzeppelin/contracts/token/ERC721/ERC721.sol\":9441:9442  0 */\n      0x00\n        /* \"@openzeppelin/contracts/token/ERC721/ERC721.sol\":9427:9443  to != address(0) */\n      0xffffffffffffffffffffffffffffffffffffffff\n      and\n        /* \"@openzeppelin/contracts/token/ERC721/ERC721.sol\":9427:9429  to */\n      dup6\n        /* \"@openzeppelin/contracts/token/ERC721/ERC721.sol\":9427:9443  to != address(0) */\n      0xffffffffffffffffffffffffffffffffffffffff\n      and\n      eq\n        /* \"@openzeppelin/contracts/token/ERC721/ERC721.sol\":9423:9530  if (to != address(0)) {... */\n      tag_246\n      jumpi\n        /* \"@openzeppelin/contracts/token/ERC721/ERC721.sol\":9504:9505  1 */\n      0x01\n        /* \"@openzeppelin/contracts/token/ERC721/ERC721.sol\":9487:9496  _balances */\n      0x03\n        /* \"@openzeppelin/contracts/token/ERC721/ERC721.sol\":9487:9500  _balances[to] */\n      0x00\n        /* \"@openzeppelin/contracts/token/ERC721/ERC721.sol\":9497:9499  to */\n      dup8\n        /* \"@openzeppelin/contracts/token/ERC721/ERC721.sol\":9487:9500  _balances[to] */\n      0xffffffffffffffffffffffffffffffffffffffff\n      and\n      0xffffffffffffffffffffffffffffffffffffffff\n      and\n      dup2\n      mstore\n      0x20\n      add\n      swap1\n      dup2\n      mstore\n      0x20\n      add\n      0x00\n      keccak256\n      0x00\n        /* \"@openzeppelin/contracts/token/ERC721/ERC721.sol\":9487:9505  _balances[to] += 1 */\n      dup3\n      dup3\n      sload\n      add\n      swap3\n      pop\n      pop\n      dup2\n      swap1\n      sstore\n      pop\n        /* \"@openzeppelin/contracts/token/ERC721/ERC721.sol\":9423:9530  if (to != address(0)) {... */\n    tag_246:\n        /* \"@openzeppelin/contracts/token/ERC721/ERC721.sol\":9559:9561  to */\n      dup5\n        /* \"@openzeppelin/contracts/token/ERC721/ERC721.sol\":9540:9547  _owners */\n      0x02\n        /* \"@openzeppelin/contracts/token/ERC721/ERC721.sol\":9540:9556  _owners[tokenId] */\n      0x00\n        /* \"@openzeppelin/contracts/token/ERC721/ERC721.sol\":9548:9555  tokenId */\n      dup7\n        /* \"@openzeppelin/contracts/token/ERC721/ERC721.sol\":9540:9556  _owners[tokenId] */\n      dup2\n      mstore\n      0x20\n      add\n      swap1\n      dup2\n      mstore\n      0x20\n      add\n      0x00\n      keccak256\n      0x00\n        /* \"@openzeppelin/contracts/token/ERC721/ERC721.sol\":9540:9561  _owners[tokenId] = to */\n      0x0100\n      exp\n      dup2\n      sload\n      dup2\n      0xffffffffffffffffffffffffffffffffffffffff\n      mul\n      not\n      and\n      swap1\n      dup4\n      0xffffffffffffffffffffffffffffffffffffffff\n      and\n      mul\n      or\n      swap1\n      sstore\n      pop\n        /* \"@openzeppelin/contracts/token/ERC721/ERC721.sol\":9596:9603  tokenId */\n      dup4\n        /* \"@openzeppelin/contracts/token/ERC721/ERC721.sol\":9592:9594  to */\n      dup6\n        /* \"@openzeppelin/contracts/token/ERC721/ERC721.sol\":9577:9604  Transfer(from, to, tokenId) */\n      0xffffffffffffffffffffffffffffffffffffffff\n      and\n        /* \"@openzeppelin/contracts/token/ERC721/ERC721.sol\":9586:9590  from */\n      dup3\n        /* \"@openzeppelin/contracts/token/ERC721/ERC721.sol\":9577:9604  Transfer(from, to, tokenId) */\n      0xffffffffffffffffffffffffffffffffffffffff\n      and\n      0xddf252ad1be2c89b69c2b068fc378daa952ba7f163c4a11628f55a4df523b3ef\n      mload(0x40)\n      mload(0x40)\n      dup1\n      swap2\n      sub\n      swap1\n      log4\n        /* \"@openzeppelin/contracts/token/ERC721/ERC721.sol\":9622:9626  from */\n      dup1\n        /* \"@openzeppelin/contracts/token/ERC721/ERC721.sol\":9615:9626  return from */\n      swap2\n      pop\n      pop\n        /* \"@openzeppelin/contracts/token/ERC721/ERC721.sol\":8838:9633  function _update(address to, uint256 tokenId, address auth) internal virtual returns (address) {... */\n      swap4\n      swap3\n      pop\n      pop\n      pop\n      jump\t// out\n        /* \"@openzeppelin/contracts/token/ERC721/ERC721.sol\":9955:10282  function _mint(address to, uint256 tokenId) internal {... */\n    tag_146:\n        /* \"@openzeppelin/contracts/token/ERC721/ERC721.sol\":10036:10037  0 */\n      0x00\n        /* \"@openzeppelin/contracts/token/ERC721/ERC721.sol\":10022:10038  to == address(0) */\n      0xffffffffffffffffffffffffffffffffffffffff\n      and\n        /* \"@openzeppelin/contracts/token/ERC721/ERC721.sol\":10022:10024  to */\n      dup3\n        /* \"@openzeppelin/contracts/token/ERC721/ERC721.sol\":10022:10038  to == address(0) */\n      0xffffffffffffffffffffffffffffffffffffffff\n      and\n      sub\n        /* \"@openzeppelin/contracts/token/ERC721/ERC721.sol\":10018:10105  if (to == address(0)) {... */\n      tag_248\n      jumpi\n        /* \"@openzeppelin/contracts/token/ERC721/ERC721.sol\":10091:10092  0 */\n      0x00\n        /* \"@openzeppelin/contracts/token/ERC721/ERC721.sol\":10061:10094  ERC721InvalidReceiver(address(0)) */\n      mload(0x40)\n      0x64a0ae9200000000000000000000000000000000000000000000000000000000\n      dup2\n      mstore\n      0x04\n      add\n      tag_249\n      swap2\n      swap1\n      tag_39\n      jump\t// in\n    tag_249:\n      mload(0x40)\n      dup1\n      swap2\n      sub\n      swap1\n      revert\n        /* \"@openzeppelin/contracts/token/ERC721/ERC721.sol\":10018:10105  if (to == address(0)) {... */\n    tag_248:\n        /* \"@openzeppelin/contracts/token/ERC721/ERC721.sol\":10114:10135  address previousOwner */\n      0x00\n        /* \"@openzeppelin/contracts/token/ERC721/ERC721.sol\":10138:10170  _update(to, tokenId, address(0)) */\n      tag_250\n        /* \"@openzeppelin/contracts/token/ERC721/ERC721.sol\":10146:10148  to */\n      dup4\n        /* \"@openzeppelin/contracts/token/ERC721/ERC721.sol\":10150:10157  tokenId */\n      dup4\n        /* \"@openzeppelin/contracts/token/ERC721/ERC721.sol\":10167:10168  0 */\n      0x00\n        /* \"@openzeppelin/contracts/token/ERC721/ERC721.sol\":10138:10145  _update */\n      tag_125\n        /* \"@openzeppelin/contracts/token/ERC721/ERC721.sol\":10138:10170  _update(to, tokenId, address(0)) */\n      jump\t// in\n    tag_250:\n        /* \"@openzeppelin/contracts/token/ERC721/ERC721.sol\":10114:10170  address previousOwner = _update(to, tokenId, address(0)) */\n      swap1\n      pop\n        /* \"@openzeppelin/contracts/token/ERC721/ERC721.sol\":10209:10210  0 */\n      0x00\n        /* \"@openzeppelin/contracts/token/ERC721/ERC721.sol\":10184:10211  previousOwner != address(0) */\n      0xffffffffffffffffffffffffffffffffffffffff\n      and\n        /* \"@openzeppelin/contracts/token/ERC721/ERC721.sol\":10184:10197  previousOwner */\n      dup2\n        /* \"@openzeppelin/contracts/token/ERC721/ERC721.sol\":10184:10211  previousOwner != address(0) */\n      0xffffffffffffffffffffffffffffffffffffffff\n      and\n      eq\n        /* \"@openzeppelin/contracts/token/ERC721/ERC721.sol\":10180:10276  if (previousOwner != address(0)) {... */\n      tag_251\n      jumpi\n        /* \"@openzeppelin/contracts/token/ERC721/ERC721.sol\":10262:10263  0 */\n      0x00\n        /* \"@openzeppelin/contracts/token/ERC721/ERC721.sol\":10234:10265  ERC721InvalidSender(address(0)) */\n      mload(0x40)\n      0x73c6ac6e00000000000000000000000000000000000000000000000000000000\n      dup2\n      mstore\n      0x04\n      add\n      tag_252\n      swap2\n      swap1\n      tag_39\n      jump\t// in\n    tag_252:\n      mload(0x40)\n      dup1\n      swap2\n      sub\n      swap1\n      revert\n        /* \"@openzeppelin/contracts/token/ERC721/ERC721.sol\":10180:10276  if (previousOwner != address(0)) {... */\n    tag_251:\n        /* \"@openzeppelin/contracts/token/ERC721/ERC721.sol\":10008:10282  {... */\n      pop\n        /* \"@openzeppelin/contracts/token/ERC721/ERC721.sol\":9955:10282  function _mint(address to, uint256 tokenId) internal {... */\n      pop\n      pop\n      jump\t// out\n        /* \"@openzeppelin/contracts/token/ERC721/ERC721.sol\":15591:15903  function _setApprovalForAll(address owner, address operator, bool approved) internal virtual {... */\n    tag_157:\n        /* \"@openzeppelin/contracts/token/ERC721/ERC721.sol\":15718:15719  0 */\n      0x00\n        /* \"@openzeppelin/contracts/token/ERC721/ERC721.sol\":15698:15720  operator == address(0) */\n      0xffffffffffffffffffffffffffffffffffffffff\n      and\n        /* \"@openzeppelin/contracts/token/ERC721/ERC721.sol\":15698:15706  operator */\n      dup3\n        /* \"@openzeppelin/contracts/token/ERC721/ERC721.sol\":15698:15720  operator == address(0) */\n      0xffffffffffffffffffffffffffffffffffffffff\n      and\n      sub\n        /* \"@openzeppelin/contracts/token/ERC721/ERC721.sol\":15694:15785  if (operator == address(0)) {... */\n      tag_254\n      jumpi\n        /* \"@openzeppelin/contracts/token/ERC721/ERC721.sol\":15765:15773  operator */\n      dup2\n        /* \"@openzeppelin/contracts/token/ERC721/ERC721.sol\":15743:15774  ERC721InvalidOperator(operator) */\n      mload(0x40)\n      0x5b08ba1800000000000000000000000000000000000000000000000000000000\n      dup2\n      mstore\n      0x04\n      add\n      tag_255\n      swap2\n      swap1\n      tag_39\n      jump\t// in\n    tag_255:\n      mload(0x40)\n      dup1\n      swap2\n      sub\n      swap1\n      revert\n        /* \"@openzeppelin/contracts/token/ERC721/ERC721.sol\":15694:15785  if (operator == address(0)) {... */\n    tag_254:\n        /* \"@openzeppelin/contracts/token/ERC721/ERC721.sol\":15832:15840  approved */\n      dup1\n        /* \"@openzeppelin/contracts/token/ERC721/ERC721.sol\":15794:15812  _operatorApprovals */\n      0x05\n        /* \"@openzeppelin/contracts/token/ERC721/ERC721.sol\":15794:15819  _operatorApprovals[owner] */\n      0x00\n        /* \"@openzeppelin/contracts/token/ERC721/ERC721.sol\":15813:15818  owner */\n      dup6\n        /* \"@openzeppelin/contracts/token/ERC721/ERC721.sol\":15794:15819  _operatorApprovals[owner] */\n      0xffffffffffffffffffffffffffffffffffffffff\n      and\n      0xffffffffffffffffffffffffffffffffffffffff\n      and\n      dup2\n      mstore\n      0x20\n      add\n      swap1\n      dup2\n      mstore\n      0x20\n      add\n      0x00\n      keccak256\n        /* \"@openzeppelin/contracts/token/ERC721/ERC721.sol\":15794:15829  _operatorApprovals[owner][operator] */\n      0x00\n        /* \"@openzeppelin/contracts/token/ERC721/ERC721.sol\":15820:15828  operator */\n      dup5\n        /* \"@openzeppelin/contracts/token/ERC721/ERC721.sol\":15794:15829  _operatorApprovals[owner][operator] */\n      0xffffffffffffffffffffffffffffffffffffffff\n      and\n      0xffffffffffffffffffffffffffffffffffffffff\n      and\n      dup2\n      mstore\n      0x20\n      add\n      swap1\n      dup2\n      mstore\n      0x20\n      add\n      0x00\n      keccak256\n      0x00\n        /* \"@openzeppelin/contracts/token/ERC721/ERC721.sol\":15794:15840  _operatorApprovals[owner][operator] = approved */\n      0x0100\n      exp\n      dup2\n      sload\n      dup2\n      0xff\n      mul\n      not\n      and\n      swap1\n      dup4\n      iszero\n      iszero\n      mul\n      or\n      swap1\n      sstore\n      pop\n        /* \"@openzeppelin/contracts/token/ERC721/ERC721.sol\":15877:15885  operator */\n      dup2\n        /* \"@openzeppelin/contracts/token/ERC721/ERC721.sol\":15855:15896  ApprovalForAll(owner, operator, approved) */\n      0xffffffffffffffffffffffffffffffffffffffff\n      and\n        /* \"@openzeppelin/contracts/token/ERC721/ERC721.sol\":15870:15875  owner */\n      dup4\n        /* \"@openzeppelin/contracts/token/ERC721/ERC721.sol\":15855:15896  ApprovalForAll(owner, operator, approved) */\n      0xffffffffffffffffffffffffffffffffffffffff\n      and\n      0x17307eab39ab6107e8899845ad3d59bd9653f200f220920489ca2b5937696c31\n        /* \"@openzeppelin/contracts/token/ERC721/ERC721.sol\":15887:15895  approved */\n      dup4\n        /* \"@openzeppelin/contracts/token/ERC721/ERC721.sol\":15855:15896  ApprovalForAll(owner, operator, approved) */\n      mload(0x40)\n      tag_256\n      swap2\n      swap1\n      tag_29\n      jump\t// in\n    tag_256:\n      mload(0x40)\n      dup1\n      swap2\n      sub\n      swap1\n      log3\n        /* \"@openzeppelin/contracts/token/ERC721/ERC721.sol\":15591:15903  function _setApprovalForAll(address owner, address operator, bool approved) internal virtual {... */\n      pop\n      pop\n      pop\n      jump\t// out\n        /* \"marriage_license.sol\":3774:4880  function enoughParticipantsVote(uint256 token, address sender) internal returns (bool) {... */\n    tag_167:\n        /* \"marriage_license.sol\":3855:3859  bool */\n      0x00\n        /* \"marriage_license.sol\":3941:3958  bool alreadyVoted */\n      dup1\n        /* \"marriage_license.sol\":3961:3966  false */\n      0x00\n        /* \"marriage_license.sol\":3941:3966  bool alreadyVoted = false */\n      swap1\n      pop\n        /* \"marriage_license.sol\":3982:3989  uint8 i */\n      0x00\n        /* \"marriage_license.sol\":3977:4116  for (uint8 i = 0; i < 3; i++) {... */\n    tag_258:\n        /* \"marriage_license.sol\":3999:4000  3 */\n      0x03\n        /* \"marriage_license.sol\":3995:3996  i */\n      dup2\n        /* \"marriage_license.sol\":3995:4000  i < 3 */\n      0xff\n      and\n      lt\n        /* \"marriage_license.sol\":3977:4116  for (uint8 i = 0; i < 3; i++) {... */\n      iszero\n      tag_259\n      jumpi\n        /* \"marriage_license.sol\":4035:4046  tokensVoted */\n      0x0a\n        /* \"marriage_license.sol\":4047:4048  i */\n      dup2\n        /* \"marriage_license.sol\":4035:4049  tokensVoted[i] */\n      0xff\n      and\n      dup2\n      sload\n      dup2\n      lt\n      tag_261\n      jumpi\n      tag_262\n      tag_188\n      jump\t// in\n    tag_262:\n    tag_261:\n      swap1\n      0x00\n      mstore\n      keccak256(0x00, 0x20)\n      add\n      sload\n        /* \"marriage_license.sol\":4026:4031  token */\n      dup6\n        /* \"marriage_license.sol\":4026:4049  token == tokensVoted[i] */\n      sub\n        /* \"marriage_license.sol\":4022:4105  if (token == tokensVoted[i]) {... */\n      tag_264\n      jumpi\n        /* \"marriage_license.sol\":4085:4089  true */\n      0x01\n        /* \"marriage_license.sol\":4070:4089  alreadyVoted = true */\n      swap2\n      pop\n        /* \"marriage_license.sol\":4022:4105  if (token == tokensVoted[i]) {... */\n    tag_264:\n        /* \"marriage_license.sol\":4002:4005  i++ */\n      dup1\n      dup1\n      tag_265\n      swap1\n      tag_194\n      jump\t// in\n    tag_265:\n      swap2\n      pop\n      pop\n        /* \"marriage_license.sol\":3977:4116  for (uint8 i = 0; i < 3; i++) {... */\n      jump(tag_258)\n    tag_259:\n      pop\n        /* \"marriage_license.sol\":4231:4243  alreadyVoted */\n      dup1\n        /* \"marriage_license.sol\":4226:4641  if (!alreadyVoted) {... */\n      tag_266\n      jumpi\n        /* \"marriage_license.sol\":4260:4271  tokensVoted */\n      0x0a\n        /* \"marriage_license.sol\":4277:4282  token */\n      dup5\n        /* \"marriage_license.sol\":4260:4283  tokensVoted.push(token) */\n      swap1\n      dup1\n      0x01\n      dup2\n      sload\n      add\n      dup1\n      dup3\n      sstore\n      dup1\n      swap2\n      pop\n      pop\n      0x01\n      swap1\n      sub\n      swap1\n      0x00\n      mstore\n      keccak256(0x00, 0x20)\n      add\n      0x00\n      swap1\n      swap2\n      swap1\n      swap2\n      swap1\n      swap2\n      pop\n      sstore\n        /* \"marriage_license.sol\":4312:4319  spouse1 */\n      0x08\n      0x00\n      swap1\n      sload\n      swap1\n      0x0100\n      exp\n      swap1\n      div\n      0xffffffffffffffffffffffffffffffffffffffff\n      and\n        /* \"marriage_license.sol\":4302:4319  sender == spouse1 */\n      0xffffffffffffffffffffffffffffffffffffffff\n      and\n        /* \"marriage_license.sol\":4302:4308  sender */\n      dup4\n        /* \"marriage_license.sol\":4302:4319  sender == spouse1 */\n      0xffffffffffffffffffffffffffffffffffffffff\n      and\n      eq\n        /* \"marriage_license.sol\":4302:4340  sender == spouse1 || sender == spouse2 */\n      dup1\n      tag_268\n      jumpi\n      pop\n        /* \"marriage_license.sol\":4333:4340  spouse2 */\n      0x09\n      0x00\n      swap1\n      sload\n      swap1\n      0x0100\n      exp\n      swap1\n      div\n      0xffffffffffffffffffffffffffffffffffffffff\n      and\n        /* \"marriage_license.sol\":4323:4340  sender == spouse2 */\n      0xffffffffffffffffffffffffffffffffffffffff\n      and\n        /* \"marriage_license.sol\":4323:4329  sender */\n      dup4\n        /* \"marriage_license.sol\":4323:4340  sender == spouse2 */\n      0xffffffffffffffffffffffffffffffffffffffff\n      and\n      eq\n        /* \"marriage_license.sol\":4302:4340  sender == spouse1 || sender == spouse2 */\n    tag_268:\n        /* \"marriage_license.sol\":4298:4630  if (sender == spouse1 || sender == spouse2) {... */\n      iszero\n      tag_269\n      jumpi\n        /* \"marriage_license.sol\":4378:4379  1 */\n      0x01\n        /* \"marriage_license.sol\":4361:4374  spouseCounter */\n      0x09\n      0x17\n        /* \"marriage_license.sol\":4361:4379  spouseCounter += 1 */\n      dup3\n      dup3\n      dup3\n      swap1\n      sload\n      swap1\n      0x0100\n      exp\n      swap1\n      div\n      0xff\n      and\n      tag_270\n      swap2\n      swap1\n      tag_211\n      jump\t// in\n    tag_270:\n      swap3\n      pop\n      0x0100\n      exp\n      dup2\n      sload\n      dup2\n      0xff\n      mul\n      not\n      and\n      swap1\n      dup4\n      0xff\n      and\n      mul\n      or\n      swap1\n      sstore\n      pop\n        /* \"marriage_license.sol\":4298:4630  if (sender == spouse1 || sender == spouse2) {... */\n      jump(tag_271)\n    tag_269:\n        /* \"marriage_license.sol\":4437:4444  uint8 i */\n      0x00\n        /* \"marriage_license.sol\":4433:4615  for(uint8 i = 0; i < 3; i++) {... */\n    tag_272:\n        /* \"marriage_license.sol\":4454:4455  3 */\n      0x03\n        /* \"marriage_license.sol\":4450:4451  i */\n      dup2\n        /* \"marriage_license.sol\":4450:4455  i < 3 */\n      0xff\n      and\n      lt\n        /* \"marriage_license.sol\":4433:4615  for(uint8 i = 0; i < 3; i++) {... */\n      iszero\n      tag_273\n      jumpi\n        /* \"marriage_license.sol\":4499:4518  authorizedAddresses */\n      0x0c\n        /* \"marriage_license.sol\":4519:4520  i */\n      dup2\n        /* \"marriage_license.sol\":4499:4521  authorizedAddresses[i] */\n      0xff\n      and\n      dup2\n      sload\n      dup2\n      lt\n      tag_275\n      jumpi\n      tag_276\n      tag_188\n      jump\t// in\n    tag_276:\n    tag_275:\n      swap1\n      0x00\n      mstore\n      keccak256(0x00, 0x20)\n      add\n      0x00\n      swap1\n      sload\n      swap1\n      0x0100\n      exp\n      swap1\n      div\n      0xffffffffffffffffffffffffffffffffffffffff\n      and\n        /* \"marriage_license.sol\":4489:4521  sender == authorizedAddresses[i] */\n      0xffffffffffffffffffffffffffffffffffffffff\n      and\n        /* \"marriage_license.sol\":4489:4495  sender */\n      dup5\n        /* \"marriage_license.sol\":4489:4521  sender == authorizedAddresses[i] */\n      0xffffffffffffffffffffffffffffffffffffffff\n      and\n      sub\n        /* \"marriage_license.sol\":4485:4596  if (sender == authorizedAddresses[i]) {... */\n      tag_278\n      jumpi\n        /* \"marriage_license.sol\":4571:4572  1 */\n      0x01\n        /* \"marriage_license.sol\":4550:4567  authorizedCounter */\n      0x09\n      0x18\n        /* \"marriage_license.sol\":4550:4572  authorizedCounter += 1 */\n      dup3\n      dup3\n      dup3\n      swap1\n      sload\n      swap1\n      0x0100\n      exp\n      swap1\n      div\n      0xff\n      and\n      tag_279\n      swap2\n      swap1\n      tag_211\n      jump\t// in\n    tag_279:\n      swap3\n      pop\n      0x0100\n      exp\n      dup2\n      sload\n      dup2\n      0xff\n      mul\n      not\n      and\n      swap1\n      dup4\n      0xff\n      and\n      mul\n      or\n      swap1\n      sstore\n      pop\n        /* \"marriage_license.sol\":4485:4596  if (sender == authorizedAddresses[i]) {... */\n    tag_278:\n        /* \"marriage_license.sol\":4457:4460  i++ */\n      dup1\n      dup1\n      tag_280\n      swap1\n      tag_194\n      jump\t// in\n    tag_280:\n      swap2\n      pop\n      pop\n        /* \"marriage_license.sol\":4433:4615  for(uint8 i = 0; i < 3; i++) {... */\n      jump(tag_272)\n    tag_273:\n      pop\n        /* \"marriage_license.sol\":4298:4630  if (sender == spouse1 || sender == spouse2) {... */\n    tag_271:\n        /* \"marriage_license.sol\":4226:4641  if (!alreadyVoted) {... */\n    tag_266:\n        /* \"marriage_license.sol\":4760:4761  2 */\n      0x02\n        /* \"marriage_license.sol\":4743:4756  spouseCounter */\n      0x09\n      0x17\n      swap1\n      sload\n      swap1\n      0x0100\n      exp\n      swap1\n      div\n      0xff\n      and\n        /* \"marriage_license.sol\":4743:4761  spouseCounter == 2 */\n      0xff\n      and\n      eq\n        /* \"marriage_license.sol\":4743:4810  spouseCounter == 2 || (spouseCounter == 1 && authorizedCounter > 0) */\n      dup1\n      tag_281\n      jumpi\n      pop\n        /* \"marriage_license.sol\":4783:4784  1 */\n      0x01\n        /* \"marriage_license.sol\":4766:4779  spouseCounter */\n      0x09\n      0x17\n      swap1\n      sload\n      swap1\n      0x0100\n      exp\n      swap1\n      div\n      0xff\n      and\n        /* \"marriage_license.sol\":4766:4784  spouseCounter == 1 */\n      0xff\n      and\n      eq\n        /* \"marriage_license.sol\":4766:4809  spouseCounter == 1 && authorizedCounter > 0 */\n      dup1\n      iszero\n      tag_282\n      jumpi\n      pop\n        /* \"marriage_license.sol\":4808:4809  0 */\n      0x00\n        /* \"marriage_license.sol\":4788:4805  authorizedCounter */\n      0x09\n      0x18\n      swap1\n      sload\n      swap1\n      0x0100\n      exp\n      swap1\n      div\n      0xff\n      and\n        /* \"marriage_license.sol\":4788:4809  authorizedCounter > 0 */\n      0xff\n      and\n      gt\n        /* \"marriage_license.sol\":4766:4809  spouseCounter == 1 && authorizedCounter > 0 */\n    tag_282:\n        /* \"marriage_license.sol\":4743:4810  spouseCounter == 2 || (spouseCounter == 1 && authorizedCounter > 0) */\n    tag_281:\n        /* \"marriage_license.sol\":4739:4850  if (spouseCounter == 2 || (spouseCounter == 1 && authorizedCounter > 0)) {... */\n      iszero\n      tag_283\n      jumpi\n        /* \"marriage_license.sol\":4834:4838  true */\n      0x01\n        /* \"marriage_license.sol\":4827:4838  return true */\n      swap2\n      pop\n      pop\n      jump(tag_257)\n        /* \"marriage_license.sol\":4739:4850  if (spouseCounter == 2 || (spouseCounter == 1 && authorizedCounter > 0)) {... */\n    tag_283:\n        /* \"marriage_license.sol\":4867:4872  false */\n      0x00\n        /* \"marriage_license.sol\":4860:4872  return false */\n      swap2\n      pop\n      pop\n        /* \"marriage_license.sol\":3774:4880  function enoughParticipantsVote(uint256 token, address sender) internal returns (bool) {... */\n    tag_257:\n      swap3\n      swap2\n      pop\n      pop\n      jump\t// out\n        /* \"@openzeppelin/contracts/token/ERC721/ERC721.sol\":11462:11689  function _burn(uint256 tokenId) internal {... */\n    tag_172:\n        /* \"@openzeppelin/contracts/token/ERC721/ERC721.sol\":11513:11534  address previousOwner */\n      0x00\n        /* \"@openzeppelin/contracts/token/ERC721/ERC721.sol\":11537:11577  _update(address(0), tokenId, address(0)) */\n      tag_285\n        /* \"@openzeppelin/contracts/token/ERC721/ERC721.sol\":11553:11554  0 */\n      0x00\n        /* \"@openzeppelin/contracts/token/ERC721/ERC721.sol\":11557:11564  tokenId */\n      dup4\n        /* \"@openzeppelin/contracts/token/ERC721/ERC721.sol\":11574:11575  0 */\n      0x00\n        /* \"@openzeppelin/contracts/token/ERC721/ERC721.sol\":11537:11544  _update */\n      tag_125\n        /* \"@openzeppelin/contracts/token/ERC721/ERC721.sol\":11537:11577  _update(address(0), tokenId, address(0)) */\n      jump\t// in\n    tag_285:\n        /* \"@openzeppelin/contracts/token/ERC721/ERC721.sol\":11513:11577  address previousOwner = _update(address(0), tokenId, address(0)) */\n      swap1\n      pop\n        /* \"@openzeppelin/contracts/token/ERC721/ERC721.sol\":11616:11617  0 */\n      0x00\n        /* \"@openzeppelin/contracts/token/ERC721/ERC721.sol\":11591:11618  previousOwner == address(0) */\n      0xffffffffffffffffffffffffffffffffffffffff\n      and\n        /* \"@openzeppelin/contracts/token/ERC721/ERC721.sol\":11591:11604  previousOwner */\n      dup2\n        /* \"@openzeppelin/contracts/token/ERC721/ERC721.sol\":11591:11618  previousOwner == address(0) */\n      0xffffffffffffffffffffffffffffffffffffffff\n      and\n      sub\n        /* \"@openzeppelin/contracts/token/ERC721/ERC721.sol\":11587:11683  if (previousOwner == address(0)) {... */\n      tag_286\n      jumpi\n        /* \"@openzeppelin/contracts/token/ERC721/ERC721.sol\":11664:11671  tokenId */\n      dup2\n        /* \"@openzeppelin/contracts/token/ERC721/ERC721.sol\":11641:11672  ERC721NonexistentToken(tokenId) */\n      mload(0x40)\n      0x7e27328900000000000000000000000000000000000000000000000000000000\n      dup2\n      mstore\n      0x04\n      add\n      tag_287\n      swap2\n      swap1\n      tag_64\n      jump\t// in\n    tag_287:\n      mload(0x40)\n      dup1\n      swap2\n      sub\n      swap1\n      revert\n        /* \"@openzeppelin/contracts/token/ERC721/ERC721.sol\":11587:11683  if (previousOwner == address(0)) {... */\n    tag_286:\n        /* \"@openzeppelin/contracts/token/ERC721/ERC721.sol\":11503:11689  {... */\n      pop\n        /* \"@openzeppelin/contracts/token/ERC721/ERC721.sol\":11462:11689  function _burn(uint256 tokenId) internal {... */\n      pop\n      jump\t// out\n        /* \"@openzeppelin/contracts/token/ERC721/ERC721.sol\":16918:17700  function _checkOnERC721Received(address from, address to, uint256 tokenId, bytes memory data) private {... */\n    tag_177:\n        /* \"@openzeppelin/contracts/token/ERC721/ERC721.sol\":17051:17052  0 */\n      0x00\n        /* \"@openzeppelin/contracts/token/ERC721/ERC721.sol\":17034:17036  to */\n      dup4\n        /* \"@openzeppelin/contracts/token/ERC721/ERC721.sol\":17034:17048  to.code.length */\n      0xffffffffffffffffffffffffffffffffffffffff\n      and\n      extcodesize\n        /* \"@openzeppelin/contracts/token/ERC721/ERC721.sol\":17034:17052  to.code.length > 0 */\n      gt\n        /* \"@openzeppelin/contracts/token/ERC721/ERC721.sol\":17030:17694  if (to.code.length > 0) {... */\n      iszero\n      tag_289\n      jumpi\n        /* \"@openzeppelin/contracts/token/ERC721/ERC721.sol\":17088:17090  to */\n      dup3\n        /* \"@openzeppelin/contracts/token/ERC721/ERC721.sol\":17072:17108  IERC721Receiver(to).onERC721Received */\n      0xffffffffffffffffffffffffffffffffffffffff\n      and\n      0x150b7a02\n        /* \"@openzeppelin/contracts/token/ERC721/ERC721.sol\":17109:17121  _msgSender() */\n      tag_290\n        /* \"@openzeppelin/contracts/token/ERC721/ERC721.sol\":17109:17119  _msgSender */\n      tag_118\n        /* \"@openzeppelin/contracts/token/ERC721/ERC721.sol\":17109:17121  _msgSender() */\n      jump\t// in\n    tag_290:\n        /* \"@openzeppelin/contracts/token/ERC721/ERC721.sol\":17123:17127  from */\n      dup7\n        /* \"@openzeppelin/contracts/token/ERC721/ERC721.sol\":17129:17136  tokenId */\n      dup6\n        /* \"@openzeppelin/contracts/token/ERC721/ERC721.sol\":17138:17142  data */\n      dup6\n        /* \"@openzeppelin/contracts/token/ERC721/ERC721.sol\":17072:17143  IERC721Receiver(to).onERC721Received(_msgSender(), from, tokenId, data) */\n      mload(0x40)\n      dup6\n      0xffffffff\n      and\n      0xe0\n      shl\n      dup2\n      mstore\n      0x04\n      add\n      tag_291\n      swap5\n      swap4\n      swap3\n      swap2\n      swap1\n      tag_292\n      jump\t// in\n    tag_291:\n      0x20\n      mload(0x40)\n      dup1\n      dup4\n      sub\n      dup2\n      0x00\n      dup8\n      gas\n      call\n      swap3\n      pop\n      pop\n      pop\n      dup1\n      iszero\n      tag_293\n      jumpi\n      pop\n      mload(0x40)\n      returndatasize\n      not(0x1f)\n      0x1f\n      dup3\n      add\n      and\n      dup3\n      add\n      dup1\n      0x40\n      mstore\n      pop\n      dup2\n      add\n      swap1\n      tag_294\n      swap2\n      swap1\n      tag_295\n      jump\t// in\n    tag_294:\n      0x01\n    tag_293:\n        /* \"@openzeppelin/contracts/token/ERC721/ERC721.sol\":17068:17684  try IERC721Receiver(to).onERC721Received(_msgSender(), from, tokenId, data) returns (bytes4 retval) {... */\n      tag_296\n      jumpi\n      returndatasize\n      dup1\n      0x00\n      dup2\n      eq\n      tag_301\n      jumpi\n      mload(0x40)\n      swap2\n      pop\n      and(add(returndatasize, 0x3f), not(0x1f))\n      dup3\n      add\n      0x40\n      mstore\n      returndatasize\n      dup3\n      mstore\n      returndatasize\n      0x00\n      0x20\n      dup5\n      add\n      returndatacopy\n      jump(tag_300)\n    tag_301:\n      0x60\n      swap2\n      pop\n    tag_300:\n      pop\n        /* \"@openzeppelin/contracts/token/ERC721/ERC721.sol\":17398:17399  0 */\n      0x00\n        /* \"@openzeppelin/contracts/token/ERC721/ERC721.sol\":17381:17387  reason */\n      dup2\n        /* \"@openzeppelin/contracts/token/ERC721/ERC721.sol\":17381:17394  reason.length */\n      mload\n        /* \"@openzeppelin/contracts/token/ERC721/ERC721.sol\":17381:17399  reason.length == 0 */\n      sub\n        /* \"@openzeppelin/contracts/token/ERC721/ERC721.sol\":17377:17670  if (reason.length == 0) {... */\n      tag_302\n      jumpi\n        /* \"@openzeppelin/contracts/token/ERC721/ERC721.sol\":17452:17454  to */\n      dup4\n        /* \"@openzeppelin/contracts/token/ERC721/ERC721.sol\":17430:17455  ERC721InvalidReceiver(to) */\n      mload(0x40)\n      0x64a0ae9200000000000000000000000000000000000000000000000000000000\n      dup2\n      mstore\n      0x04\n      add\n      tag_303\n      swap2\n      swap1\n      tag_39\n      jump\t// in\n    tag_303:\n      mload(0x40)\n      dup1\n      swap2\n      sub\n      swap1\n      revert\n        /* \"@openzeppelin/contracts/token/ERC721/ERC721.sol\":17377:17670  if (reason.length == 0) {... */\n    tag_302:\n        /* \"@openzeppelin/contracts/token/ERC721/ERC721.sol\":17622:17628  reason */\n      dup1\n        /* \"@openzeppelin/contracts/token/ERC721/ERC721.sol\":17616:17629  mload(reason) */\n      mload\n        /* \"@openzeppelin/contracts/token/ERC721/ERC721.sol\":17607:17613  reason */\n      dup2\n        /* \"@openzeppelin/contracts/token/ERC721/ERC721.sol\":17603:17605  32 */\n      0x20\n        /* \"@openzeppelin/contracts/token/ERC721/ERC721.sol\":17599:17614  add(32, reason) */\n      add\n        /* \"@openzeppelin/contracts/token/ERC721/ERC721.sol\":17592:17630  revert(add(32, reason), mload(reason)) */\n      revert\n        /* \"@openzeppelin/contracts/token/ERC721/ERC721.sol\":17068:17684  try IERC721Receiver(to).onERC721Received(_msgSender(), from, tokenId, data) returns (bytes4 retval) {... */\n    tag_296:\n        /* \"@openzeppelin/contracts/token/ERC721/ERC721.sol\":17200:17241  IERC721Receiver.onERC721Received.selector */\n      shl(0xe0, 0x150b7a02)\n        /* \"@openzeppelin/contracts/token/ERC721/ERC721.sol\":17190:17241  retval != IERC721Receiver.onERC721Received.selector */\n      not(0xffffffffffffffffffffffffffffffffffffffffffffffffffffffff)\n      and\n        /* \"@openzeppelin/contracts/token/ERC721/ERC721.sol\":17190:17196  retval */\n      dup2\n        /* \"@openzeppelin/contracts/token/ERC721/ERC721.sol\":17190:17241  retval != IERC721Receiver.onERC721Received.selector */\n      not(0xffffffffffffffffffffffffffffffffffffffffffffffffffffffff)\n      and\n      eq\n        /* \"@openzeppelin/contracts/token/ERC721/ERC721.sol\":17186:17316  if (retval != IERC721Receiver.onERC721Received.selector) {... */\n      tag_306\n      jumpi\n        /* \"@openzeppelin/contracts/token/ERC721/ERC721.sol\":17294:17296  to */\n      dup4\n        /* \"@openzeppelin/contracts/token/ERC721/ERC721.sol\":17272:17297  ERC721InvalidReceiver(to) */\n      mload(0x40)\n      0x64a0ae9200000000000000000000000000000000000000000000000000000000\n      dup2\n      mstore\n      0x04\n      add\n      tag_307\n      swap2\n      swap1\n      tag_39\n      jump\t// in\n    tag_307:\n      mload(0x40)\n      dup1\n      swap2\n      sub\n      swap1\n      revert\n        /* \"@openzeppelin/contracts/token/ERC721/ERC721.sol\":17186:17316  if (retval != IERC721Receiver.onERC721Received.selector) {... */\n    tag_306:\n        /* \"@openzeppelin/contracts/token/ERC721/ERC721.sol\":17144:17330  returns (bytes4 retval) {... */\n      pop\n        /* \"@openzeppelin/contracts/token/ERC721/ERC721.sol\":17030:17694  if (to.code.length > 0) {... */\n    tag_289:\n        /* \"@openzeppelin/contracts/token/ERC721/ERC721.sol\":16918:17700  function _checkOnERC721Received(address from, address to, uint256 tokenId, bytes memory data) private {... */\n      pop\n      pop\n      pop\n      pop\n      jump\t// out\n        /* \"@openzeppelin/contracts/token/ERC721/ERC721.sol\":3174:3266  function _baseURI() internal view virtual returns (string memory) {... */\n    tag_220:\n        /* \"@openzeppelin/contracts/token/ERC721/ERC721.sol\":3225:3238  string memory */\n      0x60\n        /* \"@openzeppelin/contracts/token/ERC721/ERC721.sol\":3250:3259  return \"\" */\n      mload(0x40)\n      dup1\n      0x20\n      add\n      0x40\n      mstore\n      dup1\n      0x00\n      dup2\n      mstore\n      pop\n      swap1\n      pop\n        /* \"@openzeppelin/contracts/token/ERC721/ERC721.sol\":3174:3266  function _baseURI() internal view virtual returns (string memory) {... */\n      swap1\n      jump\t// out\n        /* \"@openzeppelin/contracts/utils/Strings.sol\":637:1335  function toString(uint256 value) internal pure returns (string memory) {... */\n    tag_224:\n        /* \"@openzeppelin/contracts/utils/Strings.sol\":693:706  string memory */\n      0x60\n        /* \"@openzeppelin/contracts/utils/Strings.sol\":742:756  uint256 length */\n      0x00\n        /* \"@openzeppelin/contracts/utils/Strings.sol\":779:780  1 */\n      0x01\n        /* \"@openzeppelin/contracts/utils/Strings.sol\":759:776  Math.log10(value) */\n      tag_310\n        /* \"@openzeppelin/contracts/utils/Strings.sol\":770:775  value */\n      dup5\n        /* \"@openzeppelin/contracts/utils/Strings.sol\":759:769  Math.log10 */\n      tag_311\n        /* \"@openzeppelin/contracts/utils/Strings.sol\":759:776  Math.log10(value) */\n      jump\t// in\n    tag_310:\n        /* \"@openzeppelin/contracts/utils/Strings.sol\":759:780  Math.log10(value) + 1 */\n      add\n        /* \"@openzeppelin/contracts/utils/Strings.sol\":742:780  uint256 length = Math.log10(value) + 1 */\n      swap1\n      pop\n        /* \"@openzeppelin/contracts/utils/Strings.sol\":794:814  string memory buffer */\n      0x00\n        /* \"@openzeppelin/contracts/utils/Strings.sol\":828:834  length */\n      dup2\n        /* \"@openzeppelin/contracts/utils/Strings.sol\":817:835  new string(length) */\n      0xffffffffffffffff\n      dup2\n      gt\n      iszero\n      tag_312\n      jumpi\n      tag_313\n      tag_314\n      jump\t// in\n    tag_313:\n    tag_312:\n      mload(0x40)\n      swap1\n      dup1\n      dup3\n      mstore\n      dup1\n      0x1f\n      add\n      not(0x1f)\n      and\n      0x20\n      add\n      dup3\n      add\n      0x40\n      mstore\n      dup1\n      iszero\n      tag_315\n      jumpi\n      dup2\n      0x20\n      add\n      0x01\n      dup3\n      mul\n      dup1\n      calldatasize\n      dup4\n      calldatacopy\n      dup1\n      dup3\n      add\n      swap2\n      pop\n      pop\n      swap1\n      pop\n    tag_315:\n      pop\n        /* \"@openzeppelin/contracts/utils/Strings.sol\":794:835  string memory buffer = new string(length) */\n      swap1\n      pop\n        /* \"@openzeppelin/contracts/utils/Strings.sol\":849:860  uint256 ptr */\n      0x00\n        /* \"@openzeppelin/contracts/utils/Strings.sol\":975:981  length */\n      dup3\n        /* \"@openzeppelin/contracts/utils/Strings.sol\":971:973  32 */\n      0x20\n        /* \"@openzeppelin/contracts/utils/Strings.sol\":967:982  add(32, length) */\n      add\n        /* \"@openzeppelin/contracts/utils/Strings.sol\":959:965  buffer */\n      dup3\n        /* \"@openzeppelin/contracts/utils/Strings.sol\":955:983  add(buffer, add(32, length)) */\n      add\n        /* \"@openzeppelin/contracts/utils/Strings.sol\":948:983  ptr := add(buffer, add(32, length)) */\n      swap1\n      pop\n        /* \"@openzeppelin/contracts/utils/Strings.sol\":1010:1292  while (true) {... */\n    tag_316:\n        /* \"@openzeppelin/contracts/utils/Strings.sol\":1017:1021  true */\n      0x01\n        /* \"@openzeppelin/contracts/utils/Strings.sol\":1010:1292  while (true) {... */\n      iszero\n      tag_317\n      jumpi\n        /* \"@openzeppelin/contracts/utils/Strings.sol\":1041:1046  ptr-- */\n      dup1\n      dup1\n      0x01\n      swap1\n      sub\n      swap2\n      pop\n      pop\n        /* \"@openzeppelin/contracts/utils/Strings.sol\":1180:1190  HEX_DIGITS */\n      0x3031323334353637383961626364656600000000000000000000000000000000\n        /* \"@openzeppelin/contracts/utils/Strings.sol\":1175:1177  10 */\n      0x0a\n        /* \"@openzeppelin/contracts/utils/Strings.sol\":1168:1173  value */\n      dup7\n        /* \"@openzeppelin/contracts/utils/Strings.sol\":1164:1178  mod(value, 10) */\n      mod\n        /* \"@openzeppelin/contracts/utils/Strings.sol\":1159:1191  byte(mod(value, 10), HEX_DIGITS) */\n      byte\n        /* \"@openzeppelin/contracts/utils/Strings.sol\":1154:1157  ptr */\n      dup2\n        /* \"@openzeppelin/contracts/utils/Strings.sol\":1146:1192  mstore8(ptr, byte(mod(value, 10), HEX_DIGITS)) */\n      mstore8\n        /* \"@openzeppelin/contracts/utils/Strings.sol\":1236:1238  10 */\n      0x0a\n        /* \"@openzeppelin/contracts/utils/Strings.sol\":1227:1238  value /= 10 */\n      dup6\n      dup2\n      tag_318\n      jumpi\n      tag_319\n      tag_320\n      jump\t// in\n    tag_319:\n    tag_318:\n      div\n      swap5\n      pop\n        /* \"@openzeppelin/contracts/utils/Strings.sol\":1269:1270  0 */\n      0x00\n        /* \"@openzeppelin/contracts/utils/Strings.sol\":1260:1265  value */\n      dup6\n        /* \"@openzeppelin/contracts/utils/Strings.sol\":1260:1270  value == 0 */\n      sub\n        /* \"@openzeppelin/contracts/utils/Strings.sol\":1010:1292  while (true) {... */\n      tag_316\n        /* \"@openzeppelin/contracts/utils/Strings.sol\":1256:1277  if (value == 0) break */\n      jumpi\n        /* \"@openzeppelin/contracts/utils/Strings.sol\":1010:1292  while (true) {... */\n    tag_317:\n        /* \"@openzeppelin/contracts/utils/Strings.sol\":1312:1318  buffer */\n      dup2\n        /* \"@openzeppelin/contracts/utils/Strings.sol\":1305:1318  return buffer */\n      swap4\n      pop\n      pop\n      pop\n      pop\n        /* \"@openzeppelin/contracts/utils/Strings.sol\":637:1335  function toString(uint256 value) internal pure returns (string memory) {... */\n      swap2\n      swap1\n      pop\n      jump\t// out\n        /* \"@openzeppelin/contracts/token/ERC721/ERC721.sol\":5707:5822  function _ownerOf(uint256 tokenId) internal view virtual returns (address) {... */\n    tag_231:\n        /* \"@openzeppelin/contracts/token/ERC721/ERC721.sol\":5773:5780  address */\n      0x00\n        /* \"@openzeppelin/contracts/token/ERC721/ERC721.sol\":5799:5806  _owners */\n      0x02\n        /* \"@openzeppelin/contracts/token/ERC721/ERC721.sol\":5799:5815  _owners[tokenId] */\n      0x00\n        /* \"@openzeppelin/contracts/token/ERC721/ERC721.sol\":5807:5814  tokenId */\n      dup4\n        /* \"@openzeppelin/contracts/token/ERC721/ERC721.sol\":5799:5815  _owners[tokenId] */\n      dup2\n      mstore\n      0x20\n      add\n      swap1\n      dup2\n      mstore\n      0x20\n      add\n      0x00\n      keccak256\n      0x00\n      swap1\n      sload\n      swap1\n      0x0100\n      exp\n      swap1\n      div\n      0xffffffffffffffffffffffffffffffffffffffff\n      and\n        /* \"@openzeppelin/contracts/token/ERC721/ERC721.sol\":5792:5815  return _owners[tokenId] */\n      swap1\n      pop\n        /* \"@openzeppelin/contracts/token/ERC721/ERC721.sol\":5707:5822  function _ownerOf(uint256 tokenId) internal view virtual returns (address) {... */\n      swap2\n      swap1\n      pop\n      jump\t// out\n        /* \"@openzeppelin/contracts/token/ERC721/ERC721.sol\":14720:15382  function _approve(address to, uint256 tokenId, address auth, bool emitEvent) internal virtual {... */\n    tag_238:\n        /* \"@openzeppelin/contracts/token/ERC721/ERC721.sol\":14880:14889  emitEvent */\n      dup1\n        /* \"@openzeppelin/contracts/token/ERC721/ERC721.sol\":14880:14911  emitEvent || auth != address(0) */\n      dup1\n      tag_324\n      jumpi\n      pop\n        /* \"@openzeppelin/contracts/token/ERC721/ERC721.sol\":14909:14910  0 */\n      0x00\n        /* \"@openzeppelin/contracts/token/ERC721/ERC721.sol\":14893:14911  auth != address(0) */\n      0xffffffffffffffffffffffffffffffffffffffff\n      and\n        /* \"@openzeppelin/contracts/token/ERC721/ERC721.sol\":14893:14897  auth */\n      dup3\n        /* \"@openzeppelin/contracts/token/ERC721/ERC721.sol\":14893:14911  auth != address(0) */\n      0xffffffffffffffffffffffffffffffffffffffff\n      and\n      eq\n      iszero\n        /* \"@openzeppelin/contracts/token/ERC721/ERC721.sol\":14880:14911  emitEvent || auth != address(0) */\n    tag_324:\n        /* \"@openzeppelin/contracts/token/ERC721/ERC721.sol\":14876:15336  if (emitEvent || auth != address(0)) {... */\n      iszero\n      tag_325\n      jumpi\n        /* \"@openzeppelin/contracts/token/ERC721/ERC721.sol\":14927:14940  address owner */\n      0x00\n        /* \"@openzeppelin/contracts/token/ERC721/ERC721.sol\":14943:14965  _requireOwned(tokenId) */\n      tag_326\n        /* \"@openzeppelin/contracts/token/ERC721/ERC721.sol\":14957:14964  tokenId */\n      dup5\n        /* \"@openzeppelin/contracts/token/ERC721/ERC721.sol\":14943:14956  _requireOwned */\n      tag_112\n        /* \"@openzeppelin/contracts/token/ERC721/ERC721.sol\":14943:14965  _requireOwned(tokenId) */\n      jump\t// in\n    tag_326:\n        /* \"@openzeppelin/contracts/token/ERC721/ERC721.sol\":14927:14965  address owner = _requireOwned(tokenId) */\n      swap1\n      pop\n        /* \"@openzeppelin/contracts/token/ERC721/ERC721.sol\":15109:15110  0 */\n      0x00\n        /* \"@openzeppelin/contracts/token/ERC721/ERC721.sol\":15093:15111  auth != address(0) */\n      0xffffffffffffffffffffffffffffffffffffffff\n      and\n        /* \"@openzeppelin/contracts/token/ERC721/ERC721.sol\":15093:15097  auth */\n      dup4\n        /* \"@openzeppelin/contracts/token/ERC721/ERC721.sol\":15093:15111  auth != address(0) */\n      0xffffffffffffffffffffffffffffffffffffffff\n      and\n      eq\n      iszero\n        /* \"@openzeppelin/contracts/token/ERC721/ERC721.sol\":15093:15128  auth != address(0) && owner != auth */\n      dup1\n      iszero\n      tag_327\n      jumpi\n      pop\n        /* \"@openzeppelin/contracts/token/ERC721/ERC721.sol\":15124:15128  auth */\n      dup3\n        /* \"@openzeppelin/contracts/token/ERC721/ERC721.sol\":15115:15128  owner != auth */\n      0xffffffffffffffffffffffffffffffffffffffff\n      and\n        /* \"@openzeppelin/contracts/token/ERC721/ERC721.sol\":15115:15120  owner */\n      dup2\n        /* \"@openzeppelin/contracts/token/ERC721/ERC721.sol\":15115:15128  owner != auth */\n      0xffffffffffffffffffffffffffffffffffffffff\n      and\n      eq\n      iszero\n        /* \"@openzeppelin/contracts/token/ERC721/ERC721.sol\":15093:15128  auth != address(0) && owner != auth */\n    tag_327:\n        /* \"@openzeppelin/contracts/token/ERC721/ERC721.sol\":15093:15162  auth != address(0) && owner != auth && !isApprovedForAll(owner, auth) */\n      dup1\n      iszero\n      tag_328\n      jumpi\n      pop\n        /* \"@openzeppelin/contracts/token/ERC721/ERC721.sol\":15133:15162  isApprovedForAll(owner, auth) */\n      tag_329\n        /* \"@openzeppelin/contracts/token/ERC721/ERC721.sol\":15150:15155  owner */\n      dup2\n        /* \"@openzeppelin/contracts/token/ERC721/ERC721.sol\":15157:15161  auth */\n      dup5\n        /* \"@openzeppelin/contracts/token/ERC721/ERC721.sol\":15133:15149  isApprovedForAll */\n      tag_96\n        /* \"@openzeppelin/contracts/token/ERC721/ERC721.sol\":15133:15162  isApprovedForAll(owner, auth) */\n      jump\t// in\n    tag_329:\n        /* \"@openzeppelin/contracts/token/ERC721/ERC721.sol\":15132:15162  !isApprovedForAll(owner, auth) */\n      iszero\n        /* \"@openzeppelin/contracts/token/ERC721/ERC721.sol\":15093:15162  auth != address(0) && owner != auth && !isApprovedForAll(owner, auth) */\n    tag_328:\n        /* \"@openzeppelin/contracts/token/ERC721/ERC721.sol\":15089:15231  if (auth != address(0) && owner != auth && !isApprovedForAll(owner, auth)) {... */\n      iszero\n      tag_330\n      jumpi\n        /* \"@openzeppelin/contracts/token/ERC721/ERC721.sol\":15211:15215  auth */\n      dup3\n        /* \"@openzeppelin/contracts/token/ERC721/ERC721.sol\":15189:15216  ERC721InvalidApprover(auth) */\n      mload(0x40)\n      0xa9fbf51f00000000000000000000000000000000000000000000000000000000\n      dup2\n      mstore\n      0x04\n      add\n      tag_331\n      swap2\n      swap1\n      tag_39\n      jump\t// in\n    tag_331:\n      mload(0x40)\n      dup1\n      swap2\n      sub\n      swap1\n      revert\n        /* \"@openzeppelin/contracts/token/ERC721/ERC721.sol\":15089:15231  if (auth != address(0) && owner != auth && !isApprovedForAll(owner, auth)) {... */\n    tag_330:\n        /* \"@openzeppelin/contracts/token/ERC721/ERC721.sol\":15249:15258  emitEvent */\n      dup2\n        /* \"@openzeppelin/contracts/token/ERC721/ERC721.sol\":15245:15326  if (emitEvent) {... */\n      iszero\n      tag_332\n      jumpi\n        /* \"@openzeppelin/contracts/token/ERC721/ERC721.sol\":15303:15310  tokenId */\n      dup4\n        /* \"@openzeppelin/contracts/token/ERC721/ERC721.sol\":15299:15301  to */\n      dup6\n        /* \"@openzeppelin/contracts/token/ERC721/ERC721.sol\":15283:15311  Approval(owner, to, tokenId) */\n      0xffffffffffffffffffffffffffffffffffffffff\n      and\n        /* \"@openzeppelin/contracts/token/ERC721/ERC721.sol\":15292:15297  owner */\n      dup3\n        /* \"@openzeppelin/contracts/token/ERC721/ERC721.sol\":15283:15311  Approval(owner, to, tokenId) */\n      0xffffffffffffffffffffffffffffffffffffffff\n      and\n      0x8c5be1e5ebec7d5bd14f71427d1e84f3dd0314c0f7b2291e5b200ac8c7c3b925\n      mload(0x40)\n      mload(0x40)\n      dup1\n      swap2\n      sub\n      swap1\n      log4\n        /* \"@openzeppelin/contracts/token/ERC721/ERC721.sol\":15245:15326  if (emitEvent) {... */\n    tag_332:\n        /* \"@openzeppelin/contracts/token/ERC721/ERC721.sol\":14913:15336  {... */\n      pop\n        /* \"@openzeppelin/contracts/token/ERC721/ERC721.sol\":14876:15336  if (emitEvent || auth != address(0)) {... */\n    tag_325:\n        /* \"@openzeppelin/contracts/token/ERC721/ERC721.sol\":15373:15375  to */\n      dup4\n        /* \"@openzeppelin/contracts/token/ERC721/ERC721.sol\":15346:15361  _tokenApprovals */\n      0x04\n        /* \"@openzeppelin/contracts/token/ERC721/ERC721.sol\":15346:15370  _tokenApprovals[tokenId] */\n      0x00\n        /* \"@openzeppelin/contracts/token/ERC721/ERC721.sol\":15362:15369  tokenId */\n      dup6\n        /* \"@openzeppelin/contracts/token/ERC721/ERC721.sol\":15346:15370  _tokenApprovals[tokenId] */\n      dup2\n      mstore\n      0x20\n      add\n      swap1\n      dup2\n      mstore\n      0x20\n      add\n      0x00\n      keccak256\n      0x00\n        /* \"@openzeppelin/contracts/token/ERC721/ERC721.sol\":15346:15375  _tokenApprovals[tokenId] = to */\n      0x0100\n      exp\n      dup2\n      sload\n      dup2\n      0xffffffffffffffffffffffffffffffffffffffff\n      mul\n      not\n      and\n      swap1\n      dup4\n      0xffffffffffffffffffffffffffffffffffffffff\n      and\n      mul\n      or\n      swap1\n      sstore\n      pop\n        /* \"@openzeppelin/contracts/token/ERC721/ERC721.sol\":14720:15382  function _approve(address to, uint256 tokenId, address auth, bool emitEvent) internal virtual {... */\n      pop\n      pop\n      pop\n      pop\n      jump\t// out\n        /* \"@openzeppelin/contracts/token/ERC721/ERC721.sol\":7082:7450  function _checkAuthorized(address owner, address spender, uint256 tokenId) internal view virtual {... */\n    tag_243:\n        /* \"@openzeppelin/contracts/token/ERC721/ERC721.sol\":7194:7232  _isAuthorized(owner, spender, tokenId) */\n      tag_334\n        /* \"@openzeppelin/contracts/token/ERC721/ERC721.sol\":7208:7213  owner */\n      dup4\n        /* \"@openzeppelin/contracts/token/ERC721/ERC721.sol\":7215:7222  spender */\n      dup4\n        /* \"@openzeppelin/contracts/token/ERC721/ERC721.sol\":7224:7231  tokenId */\n      dup4\n        /* \"@openzeppelin/contracts/token/ERC721/ERC721.sol\":7194:7207  _isAuthorized */\n      tag_335\n        /* \"@openzeppelin/contracts/token/ERC721/ERC721.sol\":7194:7232  _isAuthorized(owner, spender, tokenId) */\n      jump\t// in\n    tag_334:\n        /* \"@openzeppelin/contracts/token/ERC721/ERC721.sol\":7189:7444  if (!_isAuthorized(owner, spender, tokenId)) {... */\n      tag_336\n      jumpi\n        /* \"@openzeppelin/contracts/token/ERC721/ERC721.sol\":7269:7270  0 */\n      0x00\n        /* \"@openzeppelin/contracts/token/ERC721/ERC721.sol\":7252:7271  owner == address(0) */\n      0xffffffffffffffffffffffffffffffffffffffff\n      and\n        /* \"@openzeppelin/contracts/token/ERC721/ERC721.sol\":7252:7257  owner */\n      dup4\n        /* \"@openzeppelin/contracts/token/ERC721/ERC721.sol\":7252:7271  owner == address(0) */\n      0xffffffffffffffffffffffffffffffffffffffff\n      and\n      sub\n        /* \"@openzeppelin/contracts/token/ERC721/ERC721.sol\":7248:7434  if (owner == address(0)) {... */\n      tag_337\n      jumpi\n        /* \"@openzeppelin/contracts/token/ERC721/ERC721.sol\":7321:7328  tokenId */\n      dup1\n        /* \"@openzeppelin/contracts/token/ERC721/ERC721.sol\":7298:7329  ERC721NonexistentToken(tokenId) */\n      mload(0x40)\n      0x7e27328900000000000000000000000000000000000000000000000000000000\n      dup2\n      mstore\n      0x04\n      add\n      tag_338\n      swap2\n      swap1\n      tag_64\n      jump\t// in\n    tag_338:\n      mload(0x40)\n      dup1\n      swap2\n      sub\n      swap1\n      revert\n        /* \"@openzeppelin/contracts/token/ERC721/ERC721.sol\":7248:7434  if (owner == address(0)) {... */\n    tag_337:\n        /* \"@openzeppelin/contracts/token/ERC721/ERC721.sol\":7402:7409  spender */\n      dup2\n        /* \"@openzeppelin/contracts/token/ERC721/ERC721.sol\":7411:7418  tokenId */\n      dup2\n        /* \"@openzeppelin/contracts/token/ERC721/ERC721.sol\":7375:7419  ERC721InsufficientApproval(spender, tokenId) */\n      mload(0x40)\n      0x177e802f00000000000000000000000000000000000000000000000000000000\n      dup2\n      mstore\n      0x04\n      add\n      tag_340\n      swap3\n      swap2\n      swap1\n      tag_341\n      jump\t// in\n    tag_340:\n      mload(0x40)\n      dup1\n      swap2\n      sub\n      swap1\n      revert\n        /* \"@openzeppelin/contracts/token/ERC721/ERC721.sol\":7189:7444  if (!_isAuthorized(owner, spender, tokenId)) {... */\n    tag_336:\n        /* \"@openzeppelin/contracts/token/ERC721/ERC721.sol\":7082:7450  function _checkAuthorized(address owner, address spender, uint256 tokenId) internal view virtual {... */\n      pop\n      pop\n      pop\n      jump\t// out\n        /* \"@openzeppelin/contracts/utils/math/Math.sol\":12214:13130  function log10(uint256 value) internal pure returns (uint256) {... */\n    tag_311:\n        /* \"@openzeppelin/contracts/utils/math/Math.sol\":12267:12274  uint256 */\n      0x00\n        /* \"@openzeppelin/contracts/utils/math/Math.sol\":12286:12300  uint256 result */\n      dup1\n        /* \"@openzeppelin/contracts/utils/math/Math.sol\":12303:12304  0 */\n      0x00\n        /* \"@openzeppelin/contracts/utils/math/Math.sol\":12286:12304  uint256 result = 0 */\n      swap1\n      pop\n        /* \"@openzeppelin/contracts/utils/math/Math.sol\":12351:12359  10 ** 64 */\n      0x184f03e93ff9f4daa797ed6e38ed64bf6a1f010000000000000000\n        /* \"@openzeppelin/contracts/utils/math/Math.sol\":12342:12347  value */\n      dup4\n        /* \"@openzeppelin/contracts/utils/math/Math.sol\":12342:12359  value >= 10 ** 64 */\n      lt\n        /* \"@openzeppelin/contracts/utils/math/Math.sol\":12338:12441  if (value >= 10 ** 64) {... */\n      tag_343\n      jumpi\n        /* \"@openzeppelin/contracts/utils/math/Math.sol\":12388:12396  10 ** 64 */\n      0x184f03e93ff9f4daa797ed6e38ed64bf6a1f010000000000000000\n        /* \"@openzeppelin/contracts/utils/math/Math.sol\":12379:12396  value /= 10 ** 64 */\n      dup4\n      dup2\n      tag_344\n      jumpi\n      tag_345\n      tag_320\n      jump\t// in\n    tag_345:\n    tag_344:\n      div\n      swap3\n      pop\n        /* \"@openzeppelin/contracts/utils/math/Math.sol\":12424:12426  64 */\n      0x40\n        /* \"@openzeppelin/contracts/utils/math/Math.sol\":12414:12426  result += 64 */\n      dup2\n      add\n      swap1\n      pop\n        /* \"@openzeppelin/contracts/utils/math/Math.sol\":12338:12441  if (value >= 10 ** 64) {... */\n    tag_343:\n        /* \"@openzeppelin/contracts/utils/math/Math.sol\":12467:12475  10 ** 32 */\n      0x04ee2d6d415b85acef8100000000\n        /* \"@openzeppelin/contracts/utils/math/Math.sol\":12458:12463  value */\n      dup4\n        /* \"@openzeppelin/contracts/utils/math/Math.sol\":12458:12475  value >= 10 ** 32 */\n      lt\n        /* \"@openzeppelin/contracts/utils/math/Math.sol\":12454:12557  if (value >= 10 ** 32) {... */\n      tag_346\n      jumpi\n        /* \"@openzeppelin/contracts/utils/math/Math.sol\":12504:12512  10 ** 32 */\n      0x04ee2d6d415b85acef8100000000\n        /* \"@openzeppelin/contracts/utils/math/Math.sol\":12495:12512  value /= 10 ** 32 */\n      dup4\n      dup2\n      tag_347\n      jumpi\n      tag_348\n      tag_320\n      jump\t// in\n    tag_348:\n    tag_347:\n      div\n      swap3\n      pop\n        /* \"@openzeppelin/contracts/utils/math/Math.sol\":12540:12542  32 */\n      0x20\n        /* \"@openzeppelin/contracts/utils/math/Math.sol\":12530:12542  result += 32 */\n      dup2\n      add\n      swap1\n      pop\n        /* \"@openzeppelin/contracts/utils/math/Math.sol\":12454:12557  if (value >= 10 ** 32) {... */\n    tag_346:\n        /* \"@openzeppelin/contracts/utils/math/Math.sol\":12583:12591  10 ** 16 */\n      0x2386f26fc10000\n        /* \"@openzeppelin/contracts/utils/math/Math.sol\":12574:12579  value */\n      dup4\n        /* \"@openzeppelin/contracts/utils/math/Math.sol\":12574:12591  value >= 10 ** 16 */\n      lt\n        /* \"@openzeppelin/contracts/utils/math/Math.sol\":12570:12673  if (value >= 10 ** 16) {... */\n      tag_349\n      jumpi\n        /* \"@openzeppelin/contracts/utils/math/Math.sol\":12620:12628  10 ** 16 */\n      0x2386f26fc10000\n        /* \"@openzeppelin/contracts/utils/math/Math.sol\":12611:12628  value /= 10 ** 16 */\n      dup4\n      dup2\n      tag_350\n      jumpi\n      tag_351\n      tag_320\n      jump\t// in\n    tag_351:\n    tag_350:\n      div\n      swap3\n      pop\n        /* \"@openzeppelin/contracts/utils/math/Math.sol\":12656:12658  16 */\n      0x10\n        /* \"@openzeppelin/contracts/utils/math/Math.sol\":12646:12658  result += 16 */\n      dup2\n      add\n      swap1\n      pop\n        /* \"@openzeppelin/contracts/utils/math/Math.sol\":12570:12673  if (value >= 10 ** 16) {... */\n    tag_349:\n        /* \"@openzeppelin/contracts/utils/math/Math.sol\":12699:12706  10 ** 8 */\n      0x05f5e100\n        /* \"@openzeppelin/contracts/utils/math/Math.sol\":12690:12695  value */\n      dup4\n        /* \"@openzeppelin/contracts/utils/math/Math.sol\":12690:12706  value >= 10 ** 8 */\n      lt\n        /* \"@openzeppelin/contracts/utils/math/Math.sol\":12686:12786  if (value >= 10 ** 8) {... */\n      tag_352\n      jumpi\n        /* \"@openzeppelin/contracts/utils/math/Math.sol\":12735:12742  10 ** 8 */\n      0x05f5e100\n        /* \"@openzeppelin/contracts/utils/math/Math.sol\":12726:12742  value /= 10 ** 8 */\n      dup4\n      dup2\n      tag_353\n      jumpi\n      tag_354\n      tag_320\n      jump\t// in\n    tag_354:\n    tag_353:\n      div\n      swap3\n      pop\n        /* \"@openzeppelin/contracts/utils/math/Math.sol\":12770:12771  8 */\n      0x08\n        /* \"@openzeppelin/contracts/utils/math/Math.sol\":12760:12771  result += 8 */\n      dup2\n      add\n      swap1\n      pop\n        /* \"@openzeppelin/contracts/utils/math/Math.sol\":12686:12786  if (value >= 10 ** 8) {... */\n    tag_352:\n        /* \"@openzeppelin/contracts/utils/math/Math.sol\":12812:12819  10 ** 4 */\n      0x2710\n        /* \"@openzeppelin/contracts/utils/math/Math.sol\":12803:12808  value */\n      dup4\n        /* \"@openzeppelin/contracts/utils/math/Math.sol\":12803:12819  value >= 10 ** 4 */\n      lt\n        /* \"@openzeppelin/contracts/utils/math/Math.sol\":12799:12899  if (value >= 10 ** 4) {... */\n      tag_355\n      jumpi\n        /* \"@openzeppelin/contracts/utils/math/Math.sol\":12848:12855  10 ** 4 */\n      0x2710\n        /* \"@openzeppelin/contracts/utils/math/Math.sol\":12839:12855  value /= 10 ** 4 */\n      dup4\n      dup2\n      tag_356\n      jumpi\n      tag_357\n      tag_320\n      jump\t// in\n    tag_357:\n    tag_356:\n      div\n      swap3\n      pop\n        /* \"@openzeppelin/contracts/utils/math/Math.sol\":12883:12884  4 */\n      0x04\n        /* \"@openzeppelin/contracts/utils/math/Math.sol\":12873:12884  result += 4 */\n      dup2\n      add\n      swap1\n      pop\n        /* \"@openzeppelin/contracts/utils/math/Math.sol\":12799:12899  if (value >= 10 ** 4) {... */\n    tag_355:\n        /* \"@openzeppelin/contracts/utils/math/Math.sol\":12925:12932  10 ** 2 */\n      0x64\n        /* \"@openzeppelin/contracts/utils/math/Math.sol\":12916:12921  value */\n      dup4\n        /* \"@openzeppelin/contracts/utils/math/Math.sol\":12916:12932  value >= 10 ** 2 */\n      lt\n        /* \"@openzeppelin/contracts/utils/math/Math.sol\":12912:13012  if (value >= 10 ** 2) {... */\n      tag_358\n      jumpi\n        /* \"@openzeppelin/contracts/utils/math/Math.sol\":12961:12968  10 ** 2 */\n      0x64\n        /* \"@openzeppelin/contracts/utils/math/Math.sol\":12952:12968  value /= 10 ** 2 */\n      dup4\n      dup2\n      tag_359\n      jumpi\n      tag_360\n      tag_320\n      jump\t// in\n    tag_360:\n    tag_359:\n      div\n      swap3\n      pop\n        /* \"@openzeppelin/contracts/utils/math/Math.sol\":12996:12997  2 */\n      0x02\n        /* \"@openzeppelin/contracts/utils/math/Math.sol\":12986:12997  result += 2 */\n      dup2\n      add\n      swap1\n      pop\n        /* \"@openzeppelin/contracts/utils/math/Math.sol\":12912:13012  if (value >= 10 ** 2) {... */\n    tag_358:\n        /* \"@openzeppelin/contracts/utils/math/Math.sol\":13038:13045  10 ** 1 */\n      0x0a\n        /* \"@openzeppelin/contracts/utils/math/Math.sol\":13029:13034  value */\n      dup4\n        /* \"@openzeppelin/contracts/utils/math/Math.sol\":13029:13045  value >= 10 ** 1 */\n      lt\n        /* \"@openzeppelin/contracts/utils/math/Math.sol\":13025:13091  if (value >= 10 ** 1) {... */\n      tag_361\n      jumpi\n        /* \"@openzeppelin/contracts/utils/math/Math.sol\":13075:13076  1 */\n      0x01\n        /* \"@openzeppelin/contracts/utils/math/Math.sol\":13065:13076  result += 1 */\n      dup2\n      add\n      swap1\n      pop\n        /* \"@openzeppelin/contracts/utils/math/Math.sol\":13025:13091  if (value >= 10 ** 1) {... */\n    tag_361:\n        /* \"@openzeppelin/contracts/utils/math/Math.sol\":13117:13123  result */\n      dup1\n        /* \"@openzeppelin/contracts/utils/math/Math.sol\":13110:13123  return result */\n      swap2\n      pop\n      pop\n        /* \"@openzeppelin/contracts/utils/math/Math.sol\":12214:13130  function log10(uint256 value) internal pure returns (uint256) {... */\n      swap2\n      swap1\n      pop\n      jump\t// out\n        /* \"@openzeppelin/contracts/token/ERC721/ERC721.sol\":6376:6648  function _isAuthorized(address owner, address spender, uint256 tokenId) internal view virtual returns (bool) {... */\n    tag_335:\n        /* \"@openzeppelin/contracts/token/ERC721/ERC721.sol\":6479:6483  bool */\n      0x00\n        /* \"@openzeppelin/contracts/token/ERC721/ERC721.sol\":6533:6534  0 */\n      dup1\n        /* \"@openzeppelin/contracts/token/ERC721/ERC721.sol\":6514:6535  spender != address(0) */\n      0xffffffffffffffffffffffffffffffffffffffff\n      and\n        /* \"@openzeppelin/contracts/token/ERC721/ERC721.sol\":6514:6521  spender */\n      dup4\n        /* \"@openzeppelin/contracts/token/ERC721/ERC721.sol\":6514:6535  spender != address(0) */\n      0xffffffffffffffffffffffffffffffffffffffff\n      and\n      eq\n      iszero\n        /* \"@openzeppelin/contracts/token/ERC721/ERC721.sol\":6514:6641  spender != address(0) &&... */\n      dup1\n      iszero\n      tag_363\n      jumpi\n      pop\n        /* \"@openzeppelin/contracts/token/ERC721/ERC721.sol\":6561:6568  spender */\n      dup3\n        /* \"@openzeppelin/contracts/token/ERC721/ERC721.sol\":6552:6568  owner == spender */\n      0xffffffffffffffffffffffffffffffffffffffff\n      and\n        /* \"@openzeppelin/contracts/token/ERC721/ERC721.sol\":6552:6557  owner */\n      dup5\n        /* \"@openzeppelin/contracts/token/ERC721/ERC721.sol\":6552:6568  owner == spender */\n      0xffffffffffffffffffffffffffffffffffffffff\n      and\n      eq\n        /* \"@openzeppelin/contracts/token/ERC721/ERC721.sol\":6552:6604  owner == spender || isApprovedForAll(owner, spender) */\n      dup1\n      tag_364\n      jumpi\n      pop\n        /* \"@openzeppelin/contracts/token/ERC721/ERC721.sol\":6572:6604  isApprovedForAll(owner, spender) */\n      tag_365\n        /* \"@openzeppelin/contracts/token/ERC721/ERC721.sol\":6589:6594  owner */\n      dup5\n        /* \"@openzeppelin/contracts/token/ERC721/ERC721.sol\":6596:6603  spender */\n      dup5\n        /* \"@openzeppelin/contracts/token/ERC721/ERC721.sol\":6572:6588  isApprovedForAll */\n      tag_96\n        /* \"@openzeppelin/contracts/token/ERC721/ERC721.sol\":6572:6604  isApprovedForAll(owner, spender) */\n      jump\t// in\n    tag_365:\n        /* \"@openzeppelin/contracts/token/ERC721/ERC721.sol\":6552:6604  owner == spender || isApprovedForAll(owner, spender) */\n    tag_364:\n        /* \"@openzeppelin/contracts/token/ERC721/ERC721.sol\":6552:6640  owner == spender || isApprovedForAll(owner, spender) || _getApproved(tokenId) == spender */\n      dup1\n      tag_366\n      jumpi\n      pop\n        /* \"@openzeppelin/contracts/token/ERC721/ERC721.sol\":6633:6640  spender */\n      dup3\n        /* \"@openzeppelin/contracts/token/ERC721/ERC721.sol\":6608:6640  _getApproved(tokenId) == spender */\n      0xffffffffffffffffffffffffffffffffffffffff\n      and\n        /* \"@openzeppelin/contracts/token/ERC721/ERC721.sol\":6608:6629  _getApproved(tokenId) */\n      tag_367\n        /* \"@openzeppelin/contracts/token/ERC721/ERC721.sol\":6621:6628  tokenId */\n      dup4\n        /* \"@openzeppelin/contracts/token/ERC721/ERC721.sol\":6608:6620  _getApproved */\n      tag_114\n        /* \"@openzeppelin/contracts/token/ERC721/ERC721.sol\":6608:6629  _getApproved(tokenId) */\n      jump\t// in\n    tag_367:\n        /* \"@openzeppelin/contracts/token/ERC721/ERC721.sol\":6608:6640  _getApproved(tokenId) == spender */\n      0xffffffffffffffffffffffffffffffffffffffff\n      and\n      eq\n        /* \"@openzeppelin/contracts/token/ERC721/ERC721.sol\":6552:6640  owner == spender || isApprovedForAll(owner, spender) || _getApproved(tokenId) == spender */\n    tag_366:\n        /* \"@openzeppelin/contracts/token/ERC721/ERC721.sol\":6514:6641  spender != address(0) &&... */\n    tag_363:\n        /* \"@openzeppelin/contracts/token/ERC721/ERC721.sol\":6495:6641  return... */\n      swap1\n      pop\n        /* \"@openzeppelin/contracts/token/ERC721/ERC721.sol\":6376:6648  function _isAuthorized(address owner, address spender, uint256 tokenId) internal view virtual returns (bool) {... */\n      swap4\n      swap3\n      pop\n      pop\n      pop\n      jump\t// out\n        /* \"#utility.yul\":7:82   */\n    tag_368:\n        /* \"#utility.yul\":40:46   */\n      0x00\n        /* \"#utility.yul\":73:75   */\n      0x40\n        /* \"#utility.yul\":67:76   */\n      mload\n        /* \"#utility.yul\":57:76   */\n      swap1\n      pop\n        /* \"#utility.yul\":7:82   */\n      swap1\n      jump\t// out\n        /* \"#utility.yul\":88:205   */\n    tag_369:\n        /* \"#utility.yul\":197:198   */\n      0x00\n        /* \"#utility.yul\":194:195   */\n      dup1\n        /* \"#utility.yul\":187:199   */\n      revert\n        /* \"#utility.yul\":211:328   */\n    tag_370:\n        /* \"#utility.yul\":320:321   */\n      0x00\n        /* \"#utility.yul\":317:318   */\n      dup1\n        /* \"#utility.yul\":310:322   */\n      revert\n        /* \"#utility.yul\":334:483   */\n    tag_371:\n        /* \"#utility.yul\":370:377   */\n      0x00\n        /* \"#utility.yul\":410:476   */\n      0xffffffff00000000000000000000000000000000000000000000000000000000\n        /* \"#utility.yul\":403:408   */\n      dup3\n        /* \"#utility.yul\":399:477   */\n      and\n        /* \"#utility.yul\":388:477   */\n      swap1\n      pop\n        /* \"#utility.yul\":334:483   */\n      swap2\n      swap1\n      pop\n      jump\t// out\n        /* \"#utility.yul\":489:609   */\n    tag_372:\n        /* \"#utility.yul\":561:584   */\n      tag_427\n        /* \"#utility.yul\":578:583   */\n      dup2\n        /* \"#utility.yul\":561:584   */\n      tag_371\n      jump\t// in\n    tag_427:\n        /* \"#utility.yul\":554:559   */\n      dup2\n        /* \"#utility.yul\":551:585   */\n      eq\n        /* \"#utility.yul\":541:603   */\n      tag_428\n      jumpi\n        /* \"#utility.yul\":599:600   */\n      0x00\n        /* \"#utility.yul\":596:597   */\n      dup1\n        /* \"#utility.yul\":589:601   */\n      revert\n        /* \"#utility.yul\":541:603   */\n    tag_428:\n        /* \"#utility.yul\":489:609   */\n      pop\n      jump\t// out\n        /* \"#utility.yul\":615:752   */\n    tag_373:\n        /* \"#utility.yul\":660:665   */\n      0x00\n        /* \"#utility.yul\":698:704   */\n      dup2\n        /* \"#utility.yul\":685:705   */\n      calldataload\n        /* \"#utility.yul\":676:705   */\n      swap1\n      pop\n        /* \"#utility.yul\":714:746   */\n      tag_430\n        /* \"#utility.yul\":740:745   */\n      dup2\n        /* \"#utility.yul\":714:746   */\n      tag_372\n      jump\t// in\n    tag_430:\n        /* \"#utility.yul\":615:752   */\n      swap3\n      swap2\n      pop\n      pop\n      jump\t// out\n        /* \"#utility.yul\":758:1085   */\n    tag_26:\n        /* \"#utility.yul\":816:822   */\n      0x00\n        /* \"#utility.yul\":865:867   */\n      0x20\n        /* \"#utility.yul\":853:862   */\n      dup3\n        /* \"#utility.yul\":844:851   */\n      dup5\n        /* \"#utility.yul\":840:863   */\n      sub\n        /* \"#utility.yul\":836:868   */\n      slt\n        /* \"#utility.yul\":833:952   */\n      iszero\n      tag_432\n      jumpi\n        /* \"#utility.yul\":871:950   */\n      tag_433\n      tag_369\n      jump\t// in\n    tag_433:\n        /* \"#utility.yul\":833:952   */\n    tag_432:\n        /* \"#utility.yul\":991:992   */\n      0x00\n        /* \"#utility.yul\":1016:1068   */\n      tag_434\n        /* \"#utility.yul\":1060:1067   */\n      dup5\n        /* \"#utility.yul\":1051:1057   */\n      dup3\n        /* \"#utility.yul\":1040:1049   */\n      dup6\n        /* \"#utility.yul\":1036:1058   */\n      add\n        /* \"#utility.yul\":1016:1068   */\n      tag_373\n      jump\t// in\n    tag_434:\n        /* \"#utility.yul\":1006:1068   */\n      swap2\n      pop\n        /* \"#utility.yul\":962:1078   */\n      pop\n        /* \"#utility.yul\":758:1085   */\n      swap3\n      swap2\n      pop\n      pop\n      jump\t// out\n        /* \"#utility.yul\":1091:1181   */\n    tag_374:\n        /* \"#utility.yul\":1125:1132   */\n      0x00\n        /* \"#utility.yul\":1168:1173   */\n      dup2\n        /* \"#utility.yul\":1161:1174   */\n      iszero\n        /* \"#utility.yul\":1154:1175   */\n      iszero\n        /* \"#utility.yul\":1143:1175   */\n      swap1\n      pop\n        /* \"#utility.yul\":1091:1181   */\n      swap2\n      swap1\n      pop\n      jump\t// out\n        /* \"#utility.yul\":1187:1296   */\n    tag_375:\n        /* \"#utility.yul\":1268:1289   */\n      tag_437\n        /* \"#utility.yul\":1283:1288   */\n      dup2\n        /* \"#utility.yul\":1268:1289   */\n      tag_374\n      jump\t// in\n    tag_437:\n        /* \"#utility.yul\":1263:1266   */\n      dup3\n        /* \"#utility.yul\":1256:1290   */\n      mstore\n        /* \"#utility.yul\":1187:1296   */\n      pop\n      pop\n      jump\t// out\n        /* \"#utility.yul\":1302:1512   */\n    tag_29:\n        /* \"#utility.yul\":1389:1393   */\n      0x00\n        /* \"#utility.yul\":1427:1429   */\n      0x20\n        /* \"#utility.yul\":1416:1425   */\n      dup3\n        /* \"#utility.yul\":1412:1430   */\n      add\n        /* \"#utility.yul\":1404:1430   */\n      swap1\n      pop\n        /* \"#utility.yul\":1440:1505   */\n      tag_439\n        /* \"#utility.yul\":1502:1503   */\n      0x00\n        /* \"#utility.yul\":1491:1500   */\n      dup4\n        /* \"#utility.yul\":1487:1504   */\n      add\n        /* \"#utility.yul\":1478:1484   */\n      dup5\n        /* \"#utility.yul\":1440:1505   */\n      tag_375\n      jump\t// in\n    tag_439:\n        /* \"#utility.yul\":1302:1512   */\n      swap3\n      swap2\n      pop\n      pop\n      jump\t// out\n        /* \"#utility.yul\":1518:1617   */\n    tag_376:\n        /* \"#utility.yul\":1570:1576   */\n      0x00\n        /* \"#utility.yul\":1604:1609   */\n      dup2\n        /* \"#utility.yul\":1598:1610   */\n      mload\n        /* \"#utility.yul\":1588:1610   */\n      swap1\n      pop\n        /* \"#utility.yul\":1518:1617   */\n      swap2\n      swap1\n      pop\n      jump\t// out\n        /* \"#utility.yul\":1623:1792   */\n    tag_377:\n        /* \"#utility.yul\":1707:1718   */\n      0x00\n        /* \"#utility.yul\":1741:1747   */\n      dup3\n        /* \"#utility.yul\":1736:1739   */\n      dup3\n        /* \"#utility.yul\":1729:1748   */\n      mstore\n        /* \"#utility.yul\":1781:1785   */\n      0x20\n        /* \"#utility.yul\":1776:1779   */\n      dup3\n        /* \"#utility.yul\":1772:1786   */\n      add\n        /* \"#utility.yul\":1757:1786   */\n      swap1\n      pop\n        /* \"#utility.yul\":1623:1792   */\n      swap3\n      swap2\n      pop\n      pop\n      jump\t// out\n        /* \"#utility.yul\":1798:2044   */\n    tag_378:\n        /* \"#utility.yul\":1879:1880   */\n      0x00\n        /* \"#utility.yul\":1889:2002   */\n    tag_443:\n        /* \"#utility.yul\":1903:1909   */\n      dup4\n        /* \"#utility.yul\":1900:1901   */\n      dup2\n        /* \"#utility.yul\":1897:1910   */\n      lt\n        /* \"#utility.yul\":1889:2002   */\n      iszero\n      tag_445\n      jumpi\n        /* \"#utility.yul\":1988:1989   */\n      dup1\n        /* \"#utility.yul\":1983:1986   */\n      dup3\n        /* \"#utility.yul\":1979:1990   */\n      add\n        /* \"#utility.yul\":1973:1991   */\n      mload\n        /* \"#utility.yul\":1969:1970   */\n      dup2\n        /* \"#utility.yul\":1964:1967   */\n      dup5\n        /* \"#utility.yul\":1960:1971   */\n      add\n        /* \"#utility.yul\":1953:1992   */\n      mstore\n        /* \"#utility.yul\":1925:1927   */\n      0x20\n        /* \"#utility.yul\":1922:1923   */\n      dup2\n        /* \"#utility.yul\":1918:1928   */\n      add\n        /* \"#utility.yul\":1913:1928   */\n      swap1\n      pop\n        /* \"#utility.yul\":1889:2002   */\n      jump(tag_443)\n    tag_445:\n        /* \"#utility.yul\":2036:2037   */\n      0x00\n        /* \"#utility.yul\":2027:2033   */\n      dup5\n        /* \"#utility.yul\":2022:2025   */\n      dup5\n        /* \"#utility.yul\":2018:2034   */\n      add\n        /* \"#utility.yul\":2011:2038   */\n      mstore\n        /* \"#utility.yul\":1860:2044   */\n      pop\n        /* \"#utility.yul\":1798:2044   */\n      pop\n      pop\n      pop\n      jump\t// out\n        /* \"#utility.yul\":2050:2152   */\n    tag_379:\n        /* \"#utility.yul\":2091:2097   */\n      0x00\n        /* \"#utility.yul\":2142:2144   */\n      0x1f\n        /* \"#utility.yul\":2138:2145   */\n      not\n        /* \"#utility.yul\":2133:2135   */\n      0x1f\n        /* \"#utility.yul\":2126:2131   */\n      dup4\n        /* \"#utility.yul\":2122:2136   */\n      add\n        /* \"#utility.yul\":2118:2146   */\n      and\n        /* \"#utility.yul\":2108:2146   */\n      swap1\n      pop\n        /* \"#utility.yul\":2050:2152   */\n      swap2\n      swap1\n      pop\n      jump\t// out\n        /* \"#utility.yul\":2158:2535   */\n    tag_380:\n        /* \"#utility.yul\":2246:2249   */\n      0x00\n        /* \"#utility.yul\":2274:2313   */\n      tag_448\n        /* \"#utility.yul\":2307:2312   */\n      dup3\n        /* \"#utility.yul\":2274:2313   */\n      tag_376\n      jump\t// in\n    tag_448:\n        /* \"#utility.yul\":2329:2400   */\n      tag_449\n        /* \"#utility.yul\":2393:2399   */\n      dup2\n        /* \"#utility.yul\":2388:2391   */\n      dup6\n        /* \"#utility.yul\":2329:2400   */\n      tag_377\n      jump\t// in\n    tag_449:\n        /* \"#utility.yul\":2322:2400   */\n      swap4\n      pop\n        /* \"#utility.yul\":2409:2474   */\n      tag_450\n        /* \"#utility.yul\":2467:2473   */\n      dup2\n        /* \"#utility.yul\":2462:2465   */\n      dup6\n        /* \"#utility.yul\":2455:2459   */\n      0x20\n        /* \"#utility.yul\":2448:2453   */\n      dup7\n        /* \"#utility.yul\":2444:2460   */\n      add\n        /* \"#utility.yul\":2409:2474   */\n      tag_378\n      jump\t// in\n    tag_450:\n        /* \"#utility.yul\":2499:2528   */\n      tag_451\n        /* \"#utility.yul\":2521:2527   */\n      dup2\n        /* \"#utility.yul\":2499:2528   */\n      tag_379\n      jump\t// in\n    tag_451:\n        /* \"#utility.yul\":2494:2497   */\n      dup5\n        /* \"#utility.yul\":2490:2529   */\n      add\n        /* \"#utility.yul\":2483:2529   */\n      swap2\n      pop\n        /* \"#utility.yul\":2250:2535   */\n      pop\n        /* \"#utility.yul\":2158:2535   */\n      swap3\n      swap2\n      pop\n      pop\n      jump\t// out\n        /* \"#utility.yul\":2541:2854   */\n    tag_33:\n        /* \"#utility.yul\":2654:2658   */\n      0x00\n        /* \"#utility.yul\":2692:2694   */\n      0x20\n        /* \"#utility.yul\":2681:2690   */\n      dup3\n        /* \"#utility.yul\":2677:2695   */\n      add\n        /* \"#utility.yul\":2669:2695   */\n      swap1\n      pop\n        /* \"#utility.yul\":2741:2750   */\n      dup2\n        /* \"#utility.yul\":2735:2739   */\n      dup2\n        /* \"#utility.yul\":2731:2751   */\n      sub\n        /* \"#utility.yul\":2727:2728   */\n      0x00\n        /* \"#utility.yul\":2716:2725   */\n      dup4\n        /* \"#utility.yul\":2712:2729   */\n      add\n        /* \"#utility.yul\":2705:2752   */\n      mstore\n        /* \"#utility.yul\":2769:2847   */\n      tag_453\n        /* \"#utility.yul\":2842:2846   */\n      dup2\n        /* \"#utility.yul\":2833:2839   */\n      dup5\n        /* \"#utility.yul\":2769:2847   */\n      tag_380\n      jump\t// in\n    tag_453:\n        /* \"#utility.yul\":2761:2847   */\n      swap1\n      pop\n        /* \"#utility.yul\":2541:2854   */\n      swap3\n      swap2\n      pop\n      pop\n      jump\t// out\n        /* \"#utility.yul\":2860:2937   */\n    tag_381:\n        /* \"#utility.yul\":2897:2904   */\n      0x00\n        /* \"#utility.yul\":2926:2931   */\n      dup2\n        /* \"#utility.yul\":2915:2931   */\n      swap1\n      pop\n        /* \"#utility.yul\":2860:2937   */\n      swap2\n      swap1\n      pop\n      jump\t// out\n        /* \"#utility.yul\":2943:3065   */\n    tag_382:\n        /* \"#utility.yul\":3016:3040   */\n      tag_456\n        /* \"#utility.yul\":3034:3039   */\n      dup2\n        /* \"#utility.yul\":3016:3040   */\n      tag_381\n      jump\t// in\n    tag_456:\n        /* \"#utility.yul\":3009:3014   */\n      dup2\n        /* \"#utility.yul\":3006:3041   */\n      eq\n        /* \"#utility.yul\":2996:3059   */\n      tag_457\n      jumpi\n        /* \"#utility.yul\":3055:3056   */\n      0x00\n        /* \"#utility.yul\":3052:3053   */\n      dup1\n        /* \"#utility.yul\":3045:3057   */\n      revert\n        /* \"#utility.yul\":2996:3059   */\n    tag_457:\n        /* \"#utility.yul\":2943:3065   */\n      pop\n      jump\t// out\n        /* \"#utility.yul\":3071:3210   */\n    tag_383:\n        /* \"#utility.yul\":3117:3122   */\n      0x00\n        /* \"#utility.yul\":3155:3161   */\n      dup2\n        /* \"#utility.yul\":3142:3162   */\n      calldataload\n        /* \"#utility.yul\":3133:3162   */\n      swap1\n      pop\n        /* \"#utility.yul\":3171:3204   */\n      tag_459\n        /* \"#utility.yul\":3198:3203   */\n      dup2\n        /* \"#utility.yul\":3171:3204   */\n      tag_382\n      jump\t// in\n    tag_459:\n        /* \"#utility.yul\":3071:3210   */\n      swap3\n      swap2\n      pop\n      pop\n      jump\t// out\n        /* \"#utility.yul\":3216:3545   */\n    tag_36:\n        /* \"#utility.yul\":3275:3281   */\n      0x00\n        /* \"#utility.yul\":3324:3326   */\n      0x20\n        /* \"#utility.yul\":3312:3321   */\n      dup3\n        /* \"#utility.yul\":3303:3310   */\n      dup5\n        /* \"#utility.yul\":3299:3322   */\n      sub\n        /* \"#utility.yul\":3295:3327   */\n      slt\n        /* \"#utility.yul\":3292:3411   */\n      iszero\n      tag_461\n      jumpi\n        /* \"#utility.yul\":3330:3409   */\n      tag_462\n      tag_369\n      jump\t// in\n    tag_462:\n        /* \"#utility.yul\":3292:3411   */\n    tag_461:\n        /* \"#utility.yul\":3450:3451   */\n      0x00\n        /* \"#utility.yul\":3475:3528   */\n      tag_463\n        /* \"#utility.yul\":3520:3527   */\n      dup5\n        /* \"#utility.yul\":3511:3517   */\n      dup3\n        /* \"#utility.yul\":3500:3509   */\n      dup6\n        /* \"#utility.yul\":3496:3518   */\n      add\n        /* \"#utility.yul\":3475:3528   */\n      tag_383\n      jump\t// in\n    tag_463:\n        /* \"#utility.yul\":3465:3528   */\n      swap2\n      pop\n        /* \"#utility.yul\":3421:3538   */\n      pop\n        /* \"#utility.yul\":3216:3545   */\n      swap3\n      swap2\n      pop\n      pop\n      jump\t// out\n        /* \"#utility.yul\":3551:3677   */\n    tag_384:\n        /* \"#utility.yul\":3588:3595   */\n      0x00\n        /* \"#utility.yul\":3628:3670   */\n      0xffffffffffffffffffffffffffffffffffffffff\n        /* \"#utility.yul\":3621:3626   */\n      dup3\n        /* \"#utility.yul\":3617:3671   */\n      and\n        /* \"#utility.yul\":3606:3671   */\n      swap1\n      pop\n        /* \"#utility.yul\":3551:3677   */\n      swap2\n      swap1\n      pop\n      jump\t// out\n        /* \"#utility.yul\":3683:3779   */\n    tag_385:\n        /* \"#utility.yul\":3720:3727   */\n      0x00\n        /* \"#utility.yul\":3749:3773   */\n      tag_466\n        /* \"#utility.yul\":3767:3772   */\n      dup3\n        /* \"#utility.yul\":3749:3773   */\n      tag_384\n      jump\t// in\n    tag_466:\n        /* \"#utility.yul\":3738:3773   */\n      swap1\n      pop\n        /* \"#utility.yul\":3683:3779   */\n      swap2\n      swap1\n      pop\n      jump\t// out\n        /* \"#utility.yul\":3785:3903   */\n    tag_386:\n        /* \"#utility.yul\":3872:3896   */\n      tag_468\n        /* \"#utility.yul\":3890:3895   */\n      dup2\n        /* \"#utility.yul\":3872:3896   */\n      tag_385\n      jump\t// in\n    tag_468:\n        /* \"#utility.yul\":3867:3870   */\n      dup3\n        /* \"#utility.yul\":3860:3897   */\n      mstore\n        /* \"#utility.yul\":3785:3903   */\n      pop\n      pop\n      jump\t// out\n        /* \"#utility.yul\":3909:4131   */\n    tag_39:\n        /* \"#utility.yul\":4002:4006   */\n      0x00\n        /* \"#utility.yul\":4040:4042   */\n      0x20\n        /* \"#utility.yul\":4029:4038   */\n      dup3\n        /* \"#utility.yul\":4025:4043   */\n      add\n        /* \"#utility.yul\":4017:4043   */\n      swap1\n      pop\n        /* \"#utility.yul\":4053:4124   */\n      tag_470\n        /* \"#utility.yul\":4121:4122   */\n      0x00\n        /* \"#utility.yul\":4110:4119   */\n      dup4\n        /* \"#utility.yul\":4106:4123   */\n      add\n        /* \"#utility.yul\":4097:4103   */\n      dup5\n        /* \"#utility.yul\":4053:4124   */\n      tag_386\n      jump\t// in\n    tag_470:\n        /* \"#utility.yul\":3909:4131   */\n      swap3\n      swap2\n      pop\n      pop\n      jump\t// out\n        /* \"#utility.yul\":4137:4259   */\n    tag_387:\n        /* \"#utility.yul\":4210:4234   */\n      tag_472\n        /* \"#utility.yul\":4228:4233   */\n      dup2\n        /* \"#utility.yul\":4210:4234   */\n      tag_385\n      jump\t// in\n    tag_472:\n        /* \"#utility.yul\":4203:4208   */\n      dup2\n        /* \"#utility.yul\":4200:4235   */\n      eq\n        /* \"#utility.yul\":4190:4253   */\n      tag_473\n      jumpi\n        /* \"#utility.yul\":4249:4250   */\n      0x00\n        /* \"#utility.yul\":4246:4247   */\n      dup1\n        /* \"#utility.yul\":4239:4251   */\n      revert\n        /* \"#utility.yul\":4190:4253   */\n    tag_473:\n        /* \"#utility.yul\":4137:4259   */\n      pop\n      jump\t// out\n        /* \"#utility.yul\":4265:4404   */\n    tag_388:\n        /* \"#utility.yul\":4311:4316   */\n      0x00\n        /* \"#utility.yul\":4349:4355   */\n      dup2\n        /* \"#utility.yul\":4336:4356   */\n      calldataload\n        /* \"#utility.yul\":4327:4356   */\n      swap1\n      pop\n        /* \"#utility.yul\":4365:4398   */\n      tag_475\n        /* \"#utility.yul\":4392:4397   */\n      dup2\n        /* \"#utility.yul\":4365:4398   */\n      tag_387\n      jump\t// in\n    tag_475:\n        /* \"#utility.yul\":4265:4404   */\n      swap3\n      swap2\n      pop\n      pop\n      jump\t// out\n        /* \"#utility.yul\":4410:4884   */\n    tag_42:\n        /* \"#utility.yul\":4478:4484   */\n      0x00\n        /* \"#utility.yul\":4486:4492   */\n      dup1\n        /* \"#utility.yul\":4535:4537   */\n      0x40\n        /* \"#utility.yul\":4523:4532   */\n      dup4\n        /* \"#utility.yul\":4514:4521   */\n      dup6\n        /* \"#utility.yul\":4510:4533   */\n      sub\n        /* \"#utility.yul\":4506:4538   */\n      slt\n        /* \"#utility.yul\":4503:4622   */\n      iszero\n      tag_477\n      jumpi\n        /* \"#utility.yul\":4541:4620   */\n      tag_478\n      tag_369\n      jump\t// in\n    tag_478:\n        /* \"#utility.yul\":4503:4622   */\n    tag_477:\n        /* \"#utility.yul\":4661:4662   */\n      0x00\n        /* \"#utility.yul\":4686:4739   */\n      tag_479\n        /* \"#utility.yul\":4731:4738   */\n      dup6\n        /* \"#utility.yul\":4722:4728   */\n      dup3\n        /* \"#utility.yul\":4711:4720   */\n      dup7\n        /* \"#utility.yul\":4707:4729   */\n      add\n        /* \"#utility.yul\":4686:4739   */\n      tag_388\n      jump\t// in\n    tag_479:\n        /* \"#utility.yul\":4676:4739   */\n      swap3\n      pop\n        /* \"#utility.yul\":4632:4749   */\n      pop\n        /* \"#utility.yul\":4788:4790   */\n      0x20\n        /* \"#utility.yul\":4814:4867   */\n      tag_480\n        /* \"#utility.yul\":4859:4866   */\n      dup6\n        /* \"#utility.yul\":4850:4856   */\n      dup3\n        /* \"#utility.yul\":4839:4848   */\n      dup7\n        /* \"#utility.yul\":4835:4857   */\n      add\n        /* \"#utility.yul\":4814:4867   */\n      tag_383\n      jump\t// in\n    tag_480:\n        /* \"#utility.yul\":4804:4867   */\n      swap2\n      pop\n        /* \"#utility.yul\":4759:4877   */\n      pop\n        /* \"#utility.yul\":4410:4884   */\n      swap3\n      pop\n      swap3\n      swap1\n      pop\n      jump\t// out\n        /* \"#utility.yul\":4890:5509   */\n    tag_46:\n        /* \"#utility.yul\":4967:4973   */\n      0x00\n        /* \"#utility.yul\":4975:4981   */\n      dup1\n        /* \"#utility.yul\":4983:4989   */\n      0x00\n        /* \"#utility.yul\":5032:5034   */\n      0x60\n        /* \"#utility.yul\":5020:5029   */\n      dup5\n        /* \"#utility.yul\":5011:5018   */\n      dup7\n        /* \"#utility.yul\":5007:5030   */\n      sub\n        /* \"#utility.yul\":5003:5035   */\n      slt\n        /* \"#utility.yul\":5000:5119   */\n      iszero\n      tag_482\n      jumpi\n        /* \"#utility.yul\":5038:5117   */\n      tag_483\n      tag_369\n      jump\t// in\n    tag_483:\n        /* \"#utility.yul\":5000:5119   */\n    tag_482:\n        /* \"#utility.yul\":5158:5159   */\n      0x00\n        /* \"#utility.yul\":5183:5236   */\n      tag_484\n        /* \"#utility.yul\":5228:5235   */\n      dup7\n        /* \"#utility.yul\":5219:5225   */\n      dup3\n        /* \"#utility.yul\":5208:5217   */\n      dup8\n        /* \"#utility.yul\":5204:5226   */\n      add\n        /* \"#utility.yul\":5183:5236   */\n      tag_388\n      jump\t// in\n    tag_484:\n        /* \"#utility.yul\":5173:5236   */\n      swap4\n      pop\n        /* \"#utility.yul\":5129:5246   */\n      pop\n        /* \"#utility.yul\":5285:5287   */\n      0x20\n        /* \"#utility.yul\":5311:5364   */\n      tag_485\n        /* \"#utility.yul\":5356:5363   */\n      dup7\n        /* \"#utility.yul\":5347:5353   */\n      dup3\n        /* \"#utility.yul\":5336:5345   */\n      dup8\n        /* \"#utility.yul\":5332:5354   */\n      add\n        /* \"#utility.yul\":5311:5364   */\n      tag_388\n      jump\t// in\n    tag_485:\n        /* \"#utility.yul\":5301:5364   */\n      swap3\n      pop\n        /* \"#utility.yul\":5256:5374   */\n      pop\n        /* \"#utility.yul\":5413:5415   */\n      0x40\n        /* \"#utility.yul\":5439:5492   */\n      tag_486\n        /* \"#utility.yul\":5484:5491   */\n      dup7\n        /* \"#utility.yul\":5475:5481   */\n      dup3\n        /* \"#utility.yul\":5464:5473   */\n      dup8\n        /* \"#utility.yul\":5460:5482   */\n      add\n        /* \"#utility.yul\":5439:5492   */\n      tag_383\n      jump\t// in\n    tag_486:\n        /* \"#utility.yul\":5429:5492   */\n      swap2\n      pop\n        /* \"#utility.yul\":5384:5502   */\n      pop\n        /* \"#utility.yul\":4890:5509   */\n      swap3\n      pop\n      swap3\n      pop\n      swap3\n      jump\t// out\n        /* \"#utility.yul\":5515:5604   */\n    tag_389:\n        /* \"#utility.yul\":5551:5558   */\n      0x00\n        /* \"#utility.yul\":5591:5597   */\n      0xffff\n        /* \"#utility.yul\":5584:5589   */\n      dup3\n        /* \"#utility.yul\":5580:5598   */\n      and\n        /* \"#utility.yul\":5569:5598   */\n      swap1\n      pop\n        /* \"#utility.yul\":5515:5604   */\n      swap2\n      swap1\n      pop\n      jump\t// out\n        /* \"#utility.yul\":5610:5725   */\n    tag_390:\n        /* \"#utility.yul\":5695:5718   */\n      tag_489\n        /* \"#utility.yul\":5712:5717   */\n      dup2\n        /* \"#utility.yul\":5695:5718   */\n      tag_389\n      jump\t// in\n    tag_489:\n        /* \"#utility.yul\":5690:5693   */\n      dup3\n        /* \"#utility.yul\":5683:5719   */\n      mstore\n        /* \"#utility.yul\":5610:5725   */\n      pop\n      pop\n      jump\t// out\n        /* \"#utility.yul\":5731:5949   */\n    tag_51:\n        /* \"#utility.yul\":5822:5826   */\n      0x00\n        /* \"#utility.yul\":5860:5862   */\n      0x20\n        /* \"#utility.yul\":5849:5858   */\n      dup3\n        /* \"#utility.yul\":5845:5863   */\n      add\n        /* \"#utility.yul\":5837:5863   */\n      swap1\n      pop\n        /* \"#utility.yul\":5873:5942   */\n      tag_491\n        /* \"#utility.yul\":5939:5940   */\n      0x00\n        /* \"#utility.yul\":5928:5937   */\n      dup4\n        /* \"#utility.yul\":5924:5941   */\n      add\n        /* \"#utility.yul\":5915:5921   */\n      dup5\n        /* \"#utility.yul\":5873:5942   */\n      tag_390\n      jump\t// in\n    tag_491:\n        /* \"#utility.yul\":5731:5949   */\n      swap3\n      swap2\n      pop\n      pop\n      jump\t// out\n        /* \"#utility.yul\":5955:6284   */\n    tag_61:\n        /* \"#utility.yul\":6014:6020   */\n      0x00\n        /* \"#utility.yul\":6063:6065   */\n      0x20\n        /* \"#utility.yul\":6051:6060   */\n      dup3\n        /* \"#utility.yul\":6042:6049   */\n      dup5\n        /* \"#utility.yul\":6038:6061   */\n      sub\n        /* \"#utility.yul\":6034:6066   */\n      slt\n        /* \"#utility.yul\":6031:6150   */\n      iszero\n      tag_493\n      jumpi\n        /* \"#utility.yul\":6069:6148   */\n      tag_494\n      tag_369\n      jump\t// in\n    tag_494:\n        /* \"#utility.yul\":6031:6150   */\n    tag_493:\n        /* \"#utility.yul\":6189:6190   */\n      0x00\n        /* \"#utility.yul\":6214:6267   */\n      tag_495\n        /* \"#utility.yul\":6259:6266   */\n      dup5\n        /* \"#utility.yul\":6250:6256   */\n      dup3\n        /* \"#utility.yul\":6239:6248   */\n      dup6\n        /* \"#utility.yul\":6235:6257   */\n      add\n        /* \"#utility.yul\":6214:6267   */\n      tag_388\n      jump\t// in\n    tag_495:\n        /* \"#utility.yul\":6204:6267   */\n      swap2\n      pop\n        /* \"#utility.yul\":6160:6277   */\n      pop\n        /* \"#utility.yul\":5955:6284   */\n      swap3\n      swap2\n      pop\n      pop\n      jump\t// out\n        /* \"#utility.yul\":6290:6408   */\n    tag_391:\n        /* \"#utility.yul\":6377:6401   */\n      tag_497\n        /* \"#utility.yul\":6395:6400   */\n      dup2\n        /* \"#utility.yul\":6377:6401   */\n      tag_381\n      jump\t// in\n    tag_497:\n        /* \"#utility.yul\":6372:6375   */\n      dup3\n        /* \"#utility.yul\":6365:6402   */\n      mstore\n        /* \"#utility.yul\":6290:6408   */\n      pop\n      pop\n      jump\t// out\n        /* \"#utility.yul\":6414:6636   */\n    tag_64:\n        /* \"#utility.yul\":6507:6511   */\n      0x00\n        /* \"#utility.yul\":6545:6547   */\n      0x20\n        /* \"#utility.yul\":6534:6543   */\n      dup3\n        /* \"#utility.yul\":6530:6548   */\n      add\n        /* \"#utility.yul\":6522:6548   */\n      swap1\n      pop\n        /* \"#utility.yul\":6558:6629   */\n      tag_499\n        /* \"#utility.yul\":6626:6627   */\n      0x00\n        /* \"#utility.yul\":6615:6624   */\n      dup4\n        /* \"#utility.yul\":6611:6628   */\n      add\n        /* \"#utility.yul\":6602:6608   */\n      dup5\n        /* \"#utility.yul\":6558:6629   */\n      tag_391\n      jump\t// in\n    tag_499:\n        /* \"#utility.yul\":6414:6636   */\n      swap3\n      swap2\n      pop\n      pop\n      jump\t// out\n        /* \"#utility.yul\":6642:7116   */\n    tag_67:\n        /* \"#utility.yul\":6710:6716   */\n      0x00\n        /* \"#utility.yul\":6718:6724   */\n      dup1\n        /* \"#utility.yul\":6767:6769   */\n      0x40\n        /* \"#utility.yul\":6755:6764   */\n      dup4\n        /* \"#utility.yul\":6746:6753   */\n      dup6\n        /* \"#utility.yul\":6742:6765   */\n      sub\n        /* \"#utility.yul\":6738:6770   */\n      slt\n        /* \"#utility.yul\":6735:6854   */\n      iszero\n      tag_501\n      jumpi\n        /* \"#utility.yul\":6773:6852   */\n      tag_502\n      tag_369\n      jump\t// in\n    tag_502:\n        /* \"#utility.yul\":6735:6854   */\n    tag_501:\n        /* \"#utility.yul\":6893:6894   */\n      0x00\n        /* \"#utility.yul\":6918:6971   */\n      tag_503\n        /* \"#utility.yul\":6963:6970   */\n      dup6\n        /* \"#utility.yul\":6954:6960   */\n      dup3\n        /* \"#utility.yul\":6943:6952   */\n      dup7\n        /* \"#utility.yul\":6939:6961   */\n      add\n        /* \"#utility.yul\":6918:6971   */\n      tag_383\n      jump\t// in\n    tag_503:\n        /* \"#utility.yul\":6908:6971   */\n      swap3\n      pop\n        /* \"#utility.yul\":6864:6981   */\n      pop\n        /* \"#utility.yul\":7020:7022   */\n      0x20\n        /* \"#utility.yul\":7046:7099   */\n      tag_504\n        /* \"#utility.yul\":7091:7098   */\n      dup6\n        /* \"#utility.yul\":7082:7088   */\n      dup3\n        /* \"#utility.yul\":7071:7080   */\n      dup7\n        /* \"#utility.yul\":7067:7089   */\n      add\n        /* \"#utility.yul\":7046:7099   */\n      tag_383\n      jump\t// in\n    tag_504:\n        /* \"#utility.yul\":7036:7099   */\n      swap2\n      pop\n        /* \"#utility.yul\":6991:7109   */\n      pop\n        /* \"#utility.yul\":6642:7116   */\n      swap3\n      pop\n      swap3\n      swap1\n      pop\n      jump\t// out\n        /* \"#utility.yul\":7122:7238   */\n    tag_392:\n        /* \"#utility.yul\":7192:7213   */\n      tag_506\n        /* \"#utility.yul\":7207:7212   */\n      dup2\n        /* \"#utility.yul\":7192:7213   */\n      tag_374\n      jump\t// in\n    tag_506:\n        /* \"#utility.yul\":7185:7190   */\n      dup2\n        /* \"#utility.yul\":7182:7214   */\n      eq\n        /* \"#utility.yul\":7172:7232   */\n      tag_507\n      jumpi\n        /* \"#utility.yul\":7228:7229   */\n      0x00\n        /* \"#utility.yul\":7225:7226   */\n      dup1\n        /* \"#utility.yul\":7218:7230   */\n      revert\n        /* \"#utility.yul\":7172:7232   */\n    tag_507:\n        /* \"#utility.yul\":7122:7238   */\n      pop\n      jump\t// out\n        /* \"#utility.yul\":7244:7377   */\n    tag_393:\n        /* \"#utility.yul\":7287:7292   */\n      0x00\n        /* \"#utility.yul\":7325:7331   */\n      dup2\n        /* \"#utility.yul\":7312:7332   */\n      calldataload\n        /* \"#utility.yul\":7303:7332   */\n      swap1\n      pop\n        /* \"#utility.yul\":7341:7371   */\n      tag_509\n        /* \"#utility.yul\":7365:7370   */\n      dup2\n        /* \"#utility.yul\":7341:7371   */\n      tag_392\n      jump\t// in\n    tag_509:\n        /* \"#utility.yul\":7244:7377   */\n      swap3\n      swap2\n      pop\n      pop\n      jump\t// out\n        /* \"#utility.yul\":7383:7851   */\n    tag_74:\n        /* \"#utility.yul\":7448:7454   */\n      0x00\n        /* \"#utility.yul\":7456:7462   */\n      dup1\n        /* \"#utility.yul\":7505:7507   */\n      0x40\n        /* \"#utility.yul\":7493:7502   */\n      dup4\n        /* \"#utility.yul\":7484:7491   */\n      dup6\n        /* \"#utility.yul\":7480:7503   */\n      sub\n        /* \"#utility.yul\":7476:7508   */\n      slt\n        /* \"#utility.yul\":7473:7592   */\n      iszero\n      tag_511\n      jumpi\n        /* \"#utility.yul\":7511:7590   */\n      tag_512\n      tag_369\n      jump\t// in\n    tag_512:\n        /* \"#utility.yul\":7473:7592   */\n    tag_511:\n        /* \"#utility.yul\":7631:7632   */\n      0x00\n        /* \"#utility.yul\":7656:7709   */\n      tag_513\n        /* \"#utility.yul\":7701:7708   */\n      dup6\n        /* \"#utility.yul\":7692:7698   */\n      dup3\n        /* \"#utility.yul\":7681:7690   */\n      dup7\n        /* \"#utility.yul\":7677:7699   */\n      add\n        /* \"#utility.yul\":7656:7709   */\n      tag_388\n      jump\t// in\n    tag_513:\n        /* \"#utility.yul\":7646:7709   */\n      swap3\n      pop\n        /* \"#utility.yul\":7602:7719   */\n      pop\n        /* \"#utility.yul\":7758:7760   */\n      0x20\n        /* \"#utility.yul\":7784:7834   */\n      tag_514\n        /* \"#utility.yul\":7826:7833   */\n      dup6\n        /* \"#utility.yul\":7817:7823   */\n      dup3\n        /* \"#utility.yul\":7806:7815   */\n      dup7\n        /* \"#utility.yul\":7802:7824   */\n      add\n        /* \"#utility.yul\":7784:7834   */\n      tag_393\n      jump\t// in\n    tag_514:\n        /* \"#utility.yul\":7774:7834   */\n      swap2\n      pop\n        /* \"#utility.yul\":7729:7844   */\n      pop\n        /* \"#utility.yul\":7383:7851   */\n      swap3\n      pop\n      swap3\n      swap1\n      pop\n      jump\t// out\n        /* \"#utility.yul\":7857:7974   */\n    tag_394:\n        /* \"#utility.yul\":7966:7967   */\n      0x00\n        /* \"#utility.yul\":7963:7964   */\n      dup1\n        /* \"#utility.yul\":7956:7968   */\n      revert\n        /* \"#utility.yul\":7980:8097   */\n    tag_395:\n        /* \"#utility.yul\":8089:8090   */\n      0x00\n        /* \"#utility.yul\":8086:8087   */\n      dup1\n        /* \"#utility.yul\":8079:8091   */\n      revert\n        /* \"#utility.yul\":8103:8283   */\n    tag_314:\n        /* \"#utility.yul\":8151:8228   */\n      0x4e487b7100000000000000000000000000000000000000000000000000000000\n        /* \"#utility.yul\":8148:8149   */\n      0x00\n        /* \"#utility.yul\":8141:8229   */\n      mstore\n        /* \"#utility.yul\":8248:8252   */\n      0x41\n        /* \"#utility.yul\":8245:8246   */\n      0x04\n        /* \"#utility.yul\":8238:8253   */\n      mstore\n        /* \"#utility.yul\":8272:8276   */\n      0x24\n        /* \"#utility.yul\":8269:8270   */\n      0x00\n        /* \"#utility.yul\":8262:8277   */\n      revert\n        /* \"#utility.yul\":8289:8570   */\n    tag_396:\n        /* \"#utility.yul\":8372:8399   */\n      tag_519\n        /* \"#utility.yul\":8394:8398   */\n      dup3\n        /* \"#utility.yul\":8372:8399   */\n      tag_379\n      jump\t// in\n    tag_519:\n        /* \"#utility.yul\":8364:8370   */\n      dup2\n        /* \"#utility.yul\":8360:8400   */\n      add\n        /* \"#utility.yul\":8502:8508   */\n      dup2\n        /* \"#utility.yul\":8490:8500   */\n      dup2\n        /* \"#utility.yul\":8487:8509   */\n      lt\n        /* \"#utility.yul\":8466:8484   */\n      0xffffffffffffffff\n        /* \"#utility.yul\":8454:8464   */\n      dup3\n        /* \"#utility.yul\":8451:8485   */\n      gt\n        /* \"#utility.yul\":8448:8510   */\n      or\n        /* \"#utility.yul\":8445:8533   */\n      iszero\n      tag_520\n      jumpi\n        /* \"#utility.yul\":8513:8531   */\n      tag_521\n      tag_314\n      jump\t// in\n    tag_521:\n        /* \"#utility.yul\":8445:8533   */\n    tag_520:\n        /* \"#utility.yul\":8553:8563   */\n      dup1\n        /* \"#utility.yul\":8549:8551   */\n      0x40\n        /* \"#utility.yul\":8542:8564   */\n      mstore\n        /* \"#utility.yul\":8332:8570   */\n      pop\n        /* \"#utility.yul\":8289:8570   */\n      pop\n      pop\n      jump\t// out\n        /* \"#utility.yul\":8576:8705   */\n    tag_397:\n        /* \"#utility.yul\":8610:8616   */\n      0x00\n        /* \"#utility.yul\":8637:8657   */\n      tag_523\n      tag_368\n      jump\t// in\n    tag_523:\n        /* \"#utility.yul\":8627:8657   */\n      swap1\n      pop\n        /* \"#utility.yul\":8666:8699   */\n      tag_524\n        /* \"#utility.yul\":8694:8698   */\n      dup3\n        /* \"#utility.yul\":8686:8692   */\n      dup3\n        /* \"#utility.yul\":8666:8699   */\n      tag_396\n      jump\t// in\n    tag_524:\n        /* \"#utility.yul\":8576:8705   */\n      swap2\n      swap1\n      pop\n      jump\t// out\n        /* \"#utility.yul\":8711:9018   */\n    tag_398:\n        /* \"#utility.yul\":8772:8776   */\n      0x00\n        /* \"#utility.yul\":8862:8880   */\n      0xffffffffffffffff\n        /* \"#utility.yul\":8854:8860   */\n      dup3\n        /* \"#utility.yul\":8851:8881   */\n      gt\n        /* \"#utility.yul\":8848:8904   */\n      iszero\n      tag_526\n      jumpi\n        /* \"#utility.yul\":8884:8902   */\n      tag_527\n      tag_314\n      jump\t// in\n    tag_527:\n        /* \"#utility.yul\":8848:8904   */\n    tag_526:\n        /* \"#utility.yul\":8922:8951   */\n      tag_528\n        /* \"#utility.yul\":8944:8950   */\n      dup3\n        /* \"#utility.yul\":8922:8951   */\n      tag_379\n      jump\t// in\n    tag_528:\n        /* \"#utility.yul\":8914:8951   */\n      swap1\n      pop\n        /* \"#utility.yul\":9006:9010   */\n      0x20\n        /* \"#utility.yul\":9000:9004   */\n      dup2\n        /* \"#utility.yul\":8996:9011   */\n      add\n        /* \"#utility.yul\":8988:9011   */\n      swap1\n      pop\n        /* \"#utility.yul\":8711:9018   */\n      swap2\n      swap1\n      pop\n      jump\t// out\n        /* \"#utility.yul\":9024:9170   */\n    tag_399:\n        /* \"#utility.yul\":9121:9127   */\n      dup3\n        /* \"#utility.yul\":9116:9119   */\n      dup2\n        /* \"#utility.yul\":9111:9114   */\n      dup4\n        /* \"#utility.yul\":9098:9128   */\n      calldatacopy\n        /* \"#utility.yul\":9162:9163   */\n      0x00\n        /* \"#utility.yul\":9153:9159   */\n      dup4\n        /* \"#utility.yul\":9148:9151   */\n      dup4\n        /* \"#utility.yul\":9144:9160   */\n      add\n        /* \"#utility.yul\":9137:9164   */\n      mstore\n        /* \"#utility.yul\":9024:9170   */\n      pop\n      pop\n      pop\n      jump\t// out\n        /* \"#utility.yul\":9176:9599   */\n    tag_400:\n        /* \"#utility.yul\":9253:9258   */\n      0x00\n        /* \"#utility.yul\":9278:9343   */\n      tag_531\n        /* \"#utility.yul\":9294:9342   */\n      tag_532\n        /* \"#utility.yul\":9335:9341   */\n      dup5\n        /* \"#utility.yul\":9294:9342   */\n      tag_398\n      jump\t// in\n    tag_532:\n        /* \"#utility.yul\":9278:9343   */\n      tag_397\n      jump\t// in\n    tag_531:\n        /* \"#utility.yul\":9269:9343   */\n      swap1\n      pop\n        /* \"#utility.yul\":9366:9372   */\n      dup3\n        /* \"#utility.yul\":9359:9364   */\n      dup2\n        /* \"#utility.yul\":9352:9373   */\n      mstore\n        /* \"#utility.yul\":9404:9408   */\n      0x20\n        /* \"#utility.yul\":9397:9402   */\n      dup2\n        /* \"#utility.yul\":9393:9409   */\n      add\n        /* \"#utility.yul\":9442:9445   */\n      dup5\n        /* \"#utility.yul\":9433:9439   */\n      dup5\n        /* \"#utility.yul\":9428:9431   */\n      dup5\n        /* \"#utility.yul\":9424:9440   */\n      add\n        /* \"#utility.yul\":9421:9446   */\n      gt\n        /* \"#utility.yul\":9418:9530   */\n      iszero\n      tag_533\n      jumpi\n        /* \"#utility.yul\":9449:9528   */\n      tag_534\n      tag_395\n      jump\t// in\n    tag_534:\n        /* \"#utility.yul\":9418:9530   */\n    tag_533:\n        /* \"#utility.yul\":9539:9593   */\n      tag_535\n        /* \"#utility.yul\":9586:9592   */\n      dup5\n        /* \"#utility.yul\":9581:9584   */\n      dup3\n        /* \"#utility.yul\":9576:9579   */\n      dup6\n        /* \"#utility.yul\":9539:9593   */\n      tag_399\n      jump\t// in\n    tag_535:\n        /* \"#utility.yul\":9259:9599   */\n      pop\n        /* \"#utility.yul\":9176:9599   */\n      swap4\n      swap3\n      pop\n      pop\n      pop\n      jump\t// out\n        /* \"#utility.yul\":9618:9956   */\n    tag_401:\n        /* \"#utility.yul\":9673:9678   */\n      0x00\n        /* \"#utility.yul\":9722:9725   */\n      dup3\n        /* \"#utility.yul\":9715:9719   */\n      0x1f\n        /* \"#utility.yul\":9707:9713   */\n      dup4\n        /* \"#utility.yul\":9703:9720   */\n      add\n        /* \"#utility.yul\":9699:9726   */\n      slt\n        /* \"#utility.yul\":9689:9811   */\n      tag_537\n      jumpi\n        /* \"#utility.yul\":9730:9809   */\n      tag_538\n      tag_394\n      jump\t// in\n    tag_538:\n        /* \"#utility.yul\":9689:9811   */\n    tag_537:\n        /* \"#utility.yul\":9847:9853   */\n      dup2\n        /* \"#utility.yul\":9834:9854   */\n      calldataload\n        /* \"#utility.yul\":9872:9950   */\n      tag_539\n        /* \"#utility.yul\":9946:9949   */\n      dup5\n        /* \"#utility.yul\":9938:9944   */\n      dup3\n        /* \"#utility.yul\":9931:9935   */\n      0x20\n        /* \"#utility.yul\":9923:9929   */\n      dup7\n        /* \"#utility.yul\":9919:9936   */\n      add\n        /* \"#utility.yul\":9872:9950   */\n      tag_400\n      jump\t// in\n    tag_539:\n        /* \"#utility.yul\":9863:9950   */\n      swap2\n      pop\n        /* \"#utility.yul\":9679:9956   */\n      pop\n        /* \"#utility.yul\":9618:9956   */\n      swap3\n      swap2\n      pop\n      pop\n      jump\t// out\n        /* \"#utility.yul\":9962:10905   */\n    tag_84:\n        /* \"#utility.yul\":10057:10063   */\n      0x00\n        /* \"#utility.yul\":10065:10071   */\n      dup1\n        /* \"#utility.yul\":10073:10079   */\n      0x00\n        /* \"#utility.yul\":10081:10087   */\n      dup1\n        /* \"#utility.yul\":10130:10133   */\n      0x80\n        /* \"#utility.yul\":10118:10127   */\n      dup6\n        /* \"#utility.yul\":10109:10116   */\n      dup8\n        /* \"#utility.yul\":10105:10128   */\n      sub\n        /* \"#utility.yul\":10101:10134   */\n      slt\n        /* \"#utility.yul\":10098:10218   */\n      iszero\n      tag_541\n      jumpi\n        /* \"#utility.yul\":10137:10216   */\n      tag_542\n      tag_369\n      jump\t// in\n    tag_542:\n        /* \"#utility.yul\":10098:10218   */\n    tag_541:\n        /* \"#utility.yul\":10257:10258   */\n      0x00\n        /* \"#utility.yul\":10282:10335   */\n      tag_543\n        /* \"#utility.yul\":10327:10334   */\n      dup8\n        /* \"#utility.yul\":10318:10324   */\n      dup3\n        /* \"#utility.yul\":10307:10316   */\n      dup9\n        /* \"#utility.yul\":10303:10325   */\n      add\n        /* \"#utility.yul\":10282:10335   */\n      tag_388\n      jump\t// in\n    tag_543:\n        /* \"#utility.yul\":10272:10335   */\n      swap5\n      pop\n        /* \"#utility.yul\":10228:10345   */\n      pop\n        /* \"#utility.yul\":10384:10386   */\n      0x20\n        /* \"#utility.yul\":10410:10463   */\n      tag_544\n        /* \"#utility.yul\":10455:10462   */\n      dup8\n        /* \"#utility.yul\":10446:10452   */\n      dup3\n        /* \"#utility.yul\":10435:10444   */\n      dup9\n        /* \"#utility.yul\":10431:10453   */\n      add\n        /* \"#utility.yul\":10410:10463   */\n      tag_388\n      jump\t// in\n    tag_544:\n        /* \"#utility.yul\":10400:10463   */\n      swap4\n      pop\n        /* \"#utility.yul\":10355:10473   */\n      pop\n        /* \"#utility.yul\":10512:10514   */\n      0x40\n        /* \"#utility.yul\":10538:10591   */\n      tag_545\n        /* \"#utility.yul\":10583:10590   */\n      dup8\n        /* \"#utility.yul\":10574:10580   */\n      dup3\n        /* \"#utility.yul\":10563:10572   */\n      dup9\n        /* \"#utility.yul\":10559:10581   */\n      add\n        /* \"#utility.yul\":10538:10591   */\n      tag_383\n      jump\t// in\n    tag_545:\n        /* \"#utility.yul\":10528:10591   */\n      swap3\n      pop\n        /* \"#utility.yul\":10483:10601   */\n      pop\n        /* \"#utility.yul\":10668:10670   */\n      0x60\n        /* \"#utility.yul\":10657:10666   */\n      dup6\n        /* \"#utility.yul\":10653:10671   */\n      add\n        /* \"#utility.yul\":10640:10672   */\n      calldataload\n        /* \"#utility.yul\":10699:10717   */\n      0xffffffffffffffff\n        /* \"#utility.yul\":10691:10697   */\n      dup2\n        /* \"#utility.yul\":10688:10718   */\n      gt\n        /* \"#utility.yul\":10685:10802   */\n      iszero\n      tag_546\n      jumpi\n        /* \"#utility.yul\":10721:10800   */\n      tag_547\n      tag_370\n      jump\t// in\n    tag_547:\n        /* \"#utility.yul\":10685:10802   */\n    tag_546:\n        /* \"#utility.yul\":10826:10888   */\n      tag_548\n        /* \"#utility.yul\":10880:10887   */\n      dup8\n        /* \"#utility.yul\":10871:10877   */\n      dup3\n        /* \"#utility.yul\":10860:10869   */\n      dup9\n        /* \"#utility.yul\":10856:10878   */\n      add\n        /* \"#utility.yul\":10826:10888   */\n      tag_401\n      jump\t// in\n    tag_548:\n        /* \"#utility.yul\":10816:10888   */\n      swap2\n      pop\n        /* \"#utility.yul\":10611:10898   */\n      pop\n        /* \"#utility.yul\":9962:10905   */\n      swap3\n      swap6\n      swap2\n      swap5\n      pop\n      swap3\n      pop\n      jump\t// out\n        /* \"#utility.yul\":10911:11385   */\n    tag_95:\n        /* \"#utility.yul\":10979:10985   */\n      0x00\n        /* \"#utility.yul\":10987:10993   */\n      dup1\n        /* \"#utility.yul\":11036:11038   */\n      0x40\n        /* \"#utility.yul\":11024:11033   */\n      dup4\n        /* \"#utility.yul\":11015:11022   */\n      dup6\n        /* \"#utility.yul\":11011:11034   */\n      sub\n        /* \"#utility.yul\":11007:11039   */\n      slt\n        /* \"#utility.yul\":11004:11123   */\n      iszero\n      tag_550\n      jumpi\n        /* \"#utility.yul\":11042:11121   */\n      tag_551\n      tag_369\n      jump\t// in\n    tag_551:\n        /* \"#utility.yul\":11004:11123   */\n    tag_550:\n        /* \"#utility.yul\":11162:11163   */\n      0x00\n        /* \"#utility.yul\":11187:11240   */\n      tag_552\n        /* \"#utility.yul\":11232:11239   */\n      dup6\n        /* \"#utility.yul\":11223:11229   */\n      dup3\n        /* \"#utility.yul\":11212:11221   */\n      dup7\n        /* \"#utility.yul\":11208:11230   */\n      add\n        /* \"#utility.yul\":11187:11240   */\n      tag_388\n      jump\t// in\n    tag_552:\n        /* \"#utility.yul\":11177:11240   */\n      swap3\n      pop\n        /* \"#utility.yul\":11133:11250   */\n      pop\n        /* \"#utility.yul\":11289:11291   */\n      0x20\n        /* \"#utility.yul\":11315:11368   */\n      tag_553\n        /* \"#utility.yul\":11360:11367   */\n      dup6\n        /* \"#utility.yul\":11351:11357   */\n      dup3\n        /* \"#utility.yul\":11340:11349   */\n      dup7\n        /* \"#utility.yul\":11336:11358   */\n      add\n        /* \"#utility.yul\":11315:11368   */\n      tag_388\n      jump\t// in\n    tag_553:\n        /* \"#utility.yul\":11305:11368   */\n      swap2\n      pop\n        /* \"#utility.yul\":11260:11378   */\n      pop\n        /* \"#utility.yul\":10911:11385   */\n      swap3\n      pop\n      swap3\n      swap1\n      pop\n      jump\t// out\n        /* \"#utility.yul\":11391:11571   */\n    tag_402:\n        /* \"#utility.yul\":11439:11516   */\n      0x4e487b7100000000000000000000000000000000000000000000000000000000\n        /* \"#utility.yul\":11436:11437   */\n      0x00\n        /* \"#utility.yul\":11429:11517   */\n      mstore\n        /* \"#utility.yul\":11536:11540   */\n      0x22\n        /* \"#utility.yul\":11533:11534   */\n      0x04\n        /* \"#utility.yul\":11526:11541   */\n      mstore\n        /* \"#utility.yul\":11560:11564   */\n      0x24\n        /* \"#utility.yul\":11557:11558   */\n      0x00\n        /* \"#utility.yul\":11550:11565   */\n      revert\n        /* \"#utility.yul\":11577:11897   */\n    tag_105:\n        /* \"#utility.yul\":11621:11627   */\n      0x00\n        /* \"#utility.yul\":11658:11659   */\n      0x02\n        /* \"#utility.yul\":11652:11656   */\n      dup3\n        /* \"#utility.yul\":11648:11660   */\n      div\n        /* \"#utility.yul\":11638:11660   */\n      swap1\n      pop\n        /* \"#utility.yul\":11705:11706   */\n      0x01\n        /* \"#utility.yul\":11699:11703   */\n      dup3\n        /* \"#utility.yul\":11695:11707   */\n      and\n        /* \"#utility.yul\":11726:11744   */\n      dup1\n        /* \"#utility.yul\":11716:11797   */\n      tag_556\n      jumpi\n        /* \"#utility.yul\":11782:11786   */\n      0x7f\n        /* \"#utility.yul\":11774:11780   */\n      dup3\n        /* \"#utility.yul\":11770:11787   */\n      and\n        /* \"#utility.yul\":11760:11787   */\n      swap2\n      pop\n        /* \"#utility.yul\":11716:11797   */\n    tag_556:\n        /* \"#utility.yul\":11844:11846   */\n      0x20\n        /* \"#utility.yul\":11836:11842   */\n      dup3\n        /* \"#utility.yul\":11833:11847   */\n      lt\n        /* \"#utility.yul\":11813:11831   */\n      dup2\n        /* \"#utility.yul\":11810:11848   */\n      sub\n        /* \"#utility.yul\":11807:11891   */\n      tag_557\n      jumpi\n        /* \"#utility.yul\":11863:11881   */\n      tag_558\n      tag_402\n      jump\t// in\n    tag_558:\n        /* \"#utility.yul\":11807:11891   */\n    tag_557:\n        /* \"#utility.yul\":11628:11897   */\n      pop\n        /* \"#utility.yul\":11577:11897   */\n      swap2\n      swap1\n      pop\n      jump\t// out\n        /* \"#utility.yul\":11903:12345   */\n    tag_128:\n        /* \"#utility.yul\":12052:12056   */\n      0x00\n        /* \"#utility.yul\":12090:12092   */\n      0x60\n        /* \"#utility.yul\":12079:12088   */\n      dup3\n        /* \"#utility.yul\":12075:12093   */\n      add\n        /* \"#utility.yul\":12067:12093   */\n      swap1\n      pop\n        /* \"#utility.yul\":12103:12174   */\n      tag_560\n        /* \"#utility.yul\":12171:12172   */\n      0x00\n        /* \"#utility.yul\":12160:12169   */\n      dup4\n        /* \"#utility.yul\":12156:12173   */\n      add\n        /* \"#utility.yul\":12147:12153   */\n      dup7\n        /* \"#utility.yul\":12103:12174   */\n      tag_386\n      jump\t// in\n    tag_560:\n        /* \"#utility.yul\":12184:12256   */\n      tag_561\n        /* \"#utility.yul\":12252:12254   */\n      0x20\n        /* \"#utility.yul\":12241:12250   */\n      dup4\n        /* \"#utility.yul\":12237:12255   */\n      add\n        /* \"#utility.yul\":12228:12234   */\n      dup6\n        /* \"#utility.yul\":12184:12256   */\n      tag_391\n      jump\t// in\n    tag_561:\n        /* \"#utility.yul\":12266:12338   */\n      tag_562\n        /* \"#utility.yul\":12334:12336   */\n      0x40\n        /* \"#utility.yul\":12323:12332   */\n      dup4\n        /* \"#utility.yul\":12319:12337   */\n      add\n        /* \"#utility.yul\":12310:12316   */\n      dup5\n        /* \"#utility.yul\":12266:12338   */\n      tag_386\n      jump\t// in\n    tag_562:\n        /* \"#utility.yul\":11903:12345   */\n      swap5\n      swap4\n      pop\n      pop\n      pop\n      pop\n      jump\t// out\n        /* \"#utility.yul\":12351:12573   */\n    tag_403:\n        /* \"#utility.yul\":12491:12525   */\n      0x4f6e6c792073706f757365732063616e2063616c6c20746869732066756e6374\n        /* \"#utility.yul\":12487:12488   */\n      0x00\n        /* \"#utility.yul\":12479:12485   */\n      dup3\n        /* \"#utility.yul\":12475:12489   */\n      add\n        /* \"#utility.yul\":12468:12526   */\n      mstore\n        /* \"#utility.yul\":12560:12565   */\n      0x696f6e0000000000000000000000000000000000000000000000000000000000\n        /* \"#utility.yul\":12555:12557   */\n      0x20\n        /* \"#utility.yul\":12547:12553   */\n      dup3\n        /* \"#utility.yul\":12543:12558   */\n      add\n        /* \"#utility.yul\":12536:12566   */\n      mstore\n        /* \"#utility.yul\":12351:12573   */\n      pop\n      jump\t// out\n        /* \"#utility.yul\":12579:12945   */\n    tag_404:\n        /* \"#utility.yul\":12721:12724   */\n      0x00\n        /* \"#utility.yul\":12742:12809   */\n      tag_565\n        /* \"#utility.yul\":12806:12808   */\n      0x23\n        /* \"#utility.yul\":12801:12804   */\n      dup4\n        /* \"#utility.yul\":12742:12809   */\n      tag_377\n      jump\t// in\n    tag_565:\n        /* \"#utility.yul\":12735:12809   */\n      swap2\n      pop\n        /* \"#utility.yul\":12818:12911   */\n      tag_566\n        /* \"#utility.yul\":12907:12910   */\n      dup3\n        /* \"#utility.yul\":12818:12911   */\n      tag_403\n      jump\t// in\n    tag_566:\n        /* \"#utility.yul\":12936:12938   */\n      0x40\n        /* \"#utility.yul\":12931:12934   */\n      dup3\n        /* \"#utility.yul\":12927:12939   */\n      add\n        /* \"#utility.yul\":12920:12939   */\n      swap1\n      pop\n        /* \"#utility.yul\":12579:12945   */\n      swap2\n      swap1\n      pop\n      jump\t// out\n        /* \"#utility.yul\":12951:13370   */\n    tag_140:\n        /* \"#utility.yul\":13117:13121   */\n      0x00\n        /* \"#utility.yul\":13155:13157   */\n      0x20\n        /* \"#utility.yul\":13144:13153   */\n      dup3\n        /* \"#utility.yul\":13140:13158   */\n      add\n        /* \"#utility.yul\":13132:13158   */\n      swap1\n      pop\n        /* \"#utility.yul\":13204:13213   */\n      dup2\n        /* \"#utility.yul\":13198:13202   */\n      dup2\n        /* \"#utility.yul\":13194:13214   */\n      sub\n        /* \"#utility.yul\":13190:13191   */\n      0x00\n        /* \"#utility.yul\":13179:13188   */\n      dup4\n        /* \"#utility.yul\":13175:13192   */\n      add\n        /* \"#utility.yul\":13168:13215   */\n      mstore\n        /* \"#utility.yul\":13232:13363   */\n      tag_568\n        /* \"#utility.yul\":13358:13362   */\n      dup2\n        /* \"#utility.yul\":13232:13363   */\n      tag_404\n      jump\t// in\n    tag_568:\n        /* \"#utility.yul\":13224:13363   */\n      swap1\n      pop\n        /* \"#utility.yul\":12951:13370   */\n      swap2\n      swap1\n      pop\n      jump\t// out\n        /* \"#utility.yul\":13376:13620   */\n    tag_405:\n        /* \"#utility.yul\":13516:13550   */\n      0x43616e6e6f742070726f647563652077656464696e6720636572746966696361\n        /* \"#utility.yul\":13512:13513   */\n      0x00\n        /* \"#utility.yul\":13504:13510   */\n      dup3\n        /* \"#utility.yul\":13500:13514   */\n      add\n        /* \"#utility.yul\":13493:13551   */\n      mstore\n        /* \"#utility.yul\":13585:13612   */\n      0x746520666f72206e6f6e2d6d6172726965642070656f706c6500000000000000\n        /* \"#utility.yul\":13580:13582   */\n      0x20\n        /* \"#utility.yul\":13572:13578   */\n      dup3\n        /* \"#utility.yul\":13568:13583   */\n      add\n        /* \"#utility.yul\":13561:13613   */\n      mstore\n        /* \"#utility.yul\":13376:13620   */\n      pop\n      jump\t// out\n        /* \"#utility.yul\":13626:13992   */\n    tag_406:\n        /* \"#utility.yul\":13768:13771   */\n      0x00\n        /* \"#utility.yul\":13789:13856   */\n      tag_571\n        /* \"#utility.yul\":13853:13855   */\n      0x39\n        /* \"#utility.yul\":13848:13851   */\n      dup4\n        /* \"#utility.yul\":13789:13856   */\n      tag_377\n      jump\t// in\n    tag_571:\n        /* \"#utility.yul\":13782:13856   */\n      swap2\n      pop\n        /* \"#utility.yul\":13865:13958   */\n      tag_572\n        /* \"#utility.yul\":13954:13957   */\n      dup3\n        /* \"#utility.yul\":13865:13958   */\n      tag_405\n      jump\t// in\n    tag_572:\n        /* \"#utility.yul\":13983:13985   */\n      0x40\n        /* \"#utility.yul\":13978:13981   */\n      dup3\n        /* \"#utility.yul\":13974:13986   */\n      add\n        /* \"#utility.yul\":13967:13986   */\n      swap1\n      pop\n        /* \"#utility.yul\":13626:13992   */\n      swap2\n      swap1\n      pop\n      jump\t// out\n        /* \"#utility.yul\":13998:14417   */\n    tag_144:\n        /* \"#utility.yul\":14164:14168   */\n      0x00\n        /* \"#utility.yul\":14202:14204   */\n      0x20\n        /* \"#utility.yul\":14191:14200   */\n      dup3\n        /* \"#utility.yul\":14187:14205   */\n      add\n        /* \"#utility.yul\":14179:14205   */\n      swap1\n      pop\n        /* \"#utility.yul\":14251:14260   */\n      dup2\n        /* \"#utility.yul\":14245:14249   */\n      dup2\n        /* \"#utility.yul\":14241:14261   */\n      sub\n        /* \"#utility.yul\":14237:14238   */\n      0x00\n        /* \"#utility.yul\":14226:14235   */\n      dup4\n        /* \"#utility.yul\":14222:14239   */\n      add\n        /* \"#utility.yul\":14215:14262   */\n      mstore\n        /* \"#utility.yul\":14279:14410   */\n      tag_574\n        /* \"#utility.yul\":14405:14409   */\n      dup2\n        /* \"#utility.yul\":14279:14410   */\n      tag_406\n      jump\t// in\n    tag_574:\n        /* \"#utility.yul\":14271:14410   */\n      swap1\n      pop\n        /* \"#utility.yul\":13998:14417   */\n      swap2\n      swap1\n      pop\n      jump\t// out\n        /* \"#utility.yul\":14423:14643   */\n    tag_407:\n        /* \"#utility.yul\":14563:14597   */\n      0x4e6f6e2d6d6172726965642070656f706c652063616e6e6f74206469766f7263\n        /* \"#utility.yul\":14559:14560   */\n      0x00\n        /* \"#utility.yul\":14551:14557   */\n      dup3\n        /* \"#utility.yul\":14547:14561   */\n      add\n        /* \"#utility.yul\":14540:14598   */\n      mstore\n        /* \"#utility.yul\":14632:14635   */\n      0x6500000000000000000000000000000000000000000000000000000000000000\n        /* \"#utility.yul\":14627:14629   */\n      0x20\n        /* \"#utility.yul\":14619:14625   */\n      dup3\n        /* \"#utility.yul\":14615:14630   */\n      add\n        /* \"#utility.yul\":14608:14636   */\n      mstore\n        /* \"#utility.yul\":14423:14643   */\n      pop\n      jump\t// out\n        /* \"#utility.yul\":14649:15015   */\n    tag_408:\n        /* \"#utility.yul\":14791:14794   */\n      0x00\n        /* \"#utility.yul\":14812:14879   */\n      tag_577\n        /* \"#utility.yul\":14876:14878   */\n      0x21\n        /* \"#utility.yul\":14871:14874   */\n      dup4\n        /* \"#utility.yul\":14812:14879   */\n      tag_377\n      jump\t// in\n    tag_577:\n        /* \"#utility.yul\":14805:14879   */\n      swap2\n      pop\n        /* \"#utility.yul\":14888:14981   */\n      tag_578\n        /* \"#utility.yul\":14977:14980   */\n      dup3\n        /* \"#utility.yul\":14888:14981   */\n      tag_407\n      jump\t// in\n    tag_578:\n        /* \"#utility.yul\":15006:15008   */\n      0x40\n        /* \"#utility.yul\":15001:15004   */\n      dup3\n        /* \"#utility.yul\":14997:15009   */\n      add\n        /* \"#utility.yul\":14990:15009   */\n      swap1\n      pop\n        /* \"#utility.yul\":14649:15015   */\n      swap2\n      swap1\n      pop\n      jump\t// out\n        /* \"#utility.yul\":15021:15440   */\n    tag_165:\n        /* \"#utility.yul\":15187:15191   */\n      0x00\n        /* \"#utility.yul\":15225:15227   */\n      0x20\n        /* \"#utility.yul\":15214:15223   */\n      dup3\n        /* \"#utility.yul\":15210:15228   */\n      add\n        /* \"#utility.yul\":15202:15228   */\n      swap1\n      pop\n        /* \"#utility.yul\":15274:15283   */\n      dup2\n        /* \"#utility.yul\":15268:15272   */\n      dup2\n        /* \"#utility.yul\":15264:15284   */\n      sub\n        /* \"#utility.yul\":15260:15261   */\n      0x00\n        /* \"#utility.yul\":15249:15258   */\n      dup4\n        /* \"#utility.yul\":15245:15262   */\n      add\n        /* \"#utility.yul\":15238:15285   */\n      mstore\n        /* \"#utility.yul\":15302:15433   */\n      tag_580\n        /* \"#utility.yul\":15428:15432   */\n      dup2\n        /* \"#utility.yul\":15302:15433   */\n      tag_408\n      jump\t// in\n    tag_580:\n        /* \"#utility.yul\":15294:15433   */\n      swap1\n      pop\n        /* \"#utility.yul\":15021:15440   */\n      swap2\n      swap1\n      pop\n      jump\t// out\n        /* \"#utility.yul\":15446:15677   */\n    tag_409:\n        /* \"#utility.yul\":15586:15620   */\n      0x4e6f7420656e6f756768207061727469636970616e747320616772656520746f\n        /* \"#utility.yul\":15582:15583   */\n      0x00\n        /* \"#utility.yul\":15574:15580   */\n      dup3\n        /* \"#utility.yul\":15570:15584   */\n      add\n        /* \"#utility.yul\":15563:15621   */\n      mstore\n        /* \"#utility.yul\":15655:15669   */\n      0x20746865206469766f7263650000000000000000000000000000000000000000\n        /* \"#utility.yul\":15650:15652   */\n      0x20\n        /* \"#utility.yul\":15642:15648   */\n      dup3\n        /* \"#utility.yul\":15638:15653   */\n      add\n        /* \"#utility.yul\":15631:15670   */\n      mstore\n        /* \"#utility.yul\":15446:15677   */\n      pop\n      jump\t// out\n        /* \"#utility.yul\":15683:16049   */\n    tag_410:\n        /* \"#utility.yul\":15825:15828   */\n      0x00\n        /* \"#utility.yul\":15846:15913   */\n      tag_583\n        /* \"#utility.yul\":15910:15912   */\n      0x2c\n        /* \"#utility.yul\":15905:15908   */\n      dup4\n        /* \"#utility.yul\":15846:15913   */\n      tag_377\n      jump\t// in\n    tag_583:\n        /* \"#utility.yul\":15839:15913   */\n      swap2\n      pop\n        /* \"#utility.yul\":15922:16015   */\n      tag_584\n        /* \"#utility.yul\":16011:16014   */\n      dup3\n        /* \"#utility.yul\":15922:16015   */\n      tag_409\n      jump\t// in\n    tag_584:\n        /* \"#utility.yul\":16040:16042   */\n      0x40\n        /* \"#utility.yul\":16035:16038   */\n      dup3\n        /* \"#utility.yul\":16031:16043   */\n      add\n        /* \"#utility.yul\":16024:16043   */\n      swap1\n      pop\n        /* \"#utility.yul\":15683:16049   */\n      swap2\n      swap1\n      pop\n      jump\t// out\n        /* \"#utility.yul\":16055:16474   */\n    tag_170:\n        /* \"#utility.yul\":16221:16225   */\n      0x00\n        /* \"#utility.yul\":16259:16261   */\n      0x20\n        /* \"#utility.yul\":16248:16257   */\n      dup3\n        /* \"#utility.yul\":16244:16262   */\n      add\n        /* \"#utility.yul\":16236:16262   */\n      swap1\n      pop\n        /* \"#utility.yul\":16308:16317   */\n      dup2\n        /* \"#utility.yul\":16302:16306   */\n      dup2\n        /* \"#utility.yul\":16298:16318   */\n      sub\n        /* \"#utility.yul\":16294:16295   */\n      0x00\n        /* \"#utility.yul\":16283:16292   */\n      dup4\n        /* \"#utility.yul\":16279:16296   */\n      add\n        /* \"#utility.yul\":16272:16319   */\n      mstore\n        /* \"#utility.yul\":16336:16467   */\n      tag_586\n        /* \"#utility.yul\":16462:16466   */\n      dup2\n        /* \"#utility.yul\":16336:16467   */\n      tag_410\n      jump\t// in\n    tag_586:\n        /* \"#utility.yul\":16328:16467   */\n      swap1\n      pop\n        /* \"#utility.yul\":16055:16474   */\n      swap2\n      swap1\n      pop\n      jump\t// out\n        /* \"#utility.yul\":16480:16660   */\n    tag_188:\n        /* \"#utility.yul\":16528:16605   */\n      0x4e487b7100000000000000000000000000000000000000000000000000000000\n        /* \"#utility.yul\":16525:16526   */\n      0x00\n        /* \"#utility.yul\":16518:16606   */\n      mstore\n        /* \"#utility.yul\":16625:16629   */\n      0x32\n        /* \"#utility.yul\":16622:16623   */\n      0x04\n        /* \"#utility.yul\":16615:16630   */\n      mstore\n        /* \"#utility.yul\":16649:16653   */\n      0x24\n        /* \"#utility.yul\":16646:16647   */\n      0x00\n        /* \"#utility.yul\":16639:16654   */\n      revert\n        /* \"#utility.yul\":16666:16846   */\n    tag_411:\n        /* \"#utility.yul\":16806:16838   */\n      0x43616e6e6f742072652d617574686f72697a6520616e20616464726573730000\n        /* \"#utility.yul\":16802:16803   */\n      0x00\n        /* \"#utility.yul\":16794:16800   */\n      dup3\n        /* \"#utility.yul\":16790:16804   */\n      add\n        /* \"#utility.yul\":16783:16839   */\n      mstore\n        /* \"#utility.yul\":16666:16846   */\n      pop\n      jump\t// out\n        /* \"#utility.yul\":16852:17218   */\n    tag_412:\n        /* \"#utility.yul\":16994:16997   */\n      0x00\n        /* \"#utility.yul\":17015:17082   */\n      tag_590\n        /* \"#utility.yul\":17079:17081   */\n      0x1e\n        /* \"#utility.yul\":17074:17077   */\n      dup4\n        /* \"#utility.yul\":17015:17082   */\n      tag_377\n      jump\t// in\n    tag_590:\n        /* \"#utility.yul\":17008:17082   */\n      swap2\n      pop\n        /* \"#utility.yul\":17091:17184   */\n      tag_591\n        /* \"#utility.yul\":17180:17183   */\n      dup3\n        /* \"#utility.yul\":17091:17184   */\n      tag_411\n      jump\t// in\n    tag_591:\n        /* \"#utility.yul\":17209:17211   */\n      0x20\n        /* \"#utility.yul\":17204:17207   */\n      dup3\n        /* \"#utility.yul\":17200:17212   */\n      add\n        /* \"#utility.yul\":17193:17212   */\n      swap1\n      pop\n        /* \"#utility.yul\":16852:17218   */\n      swap2\n      swap1\n      pop\n      jump\t// out\n        /* \"#utility.yul\":17224:17643   */\n    tag_192:\n        /* \"#utility.yul\":17390:17394   */\n      0x00\n        /* \"#utility.yul\":17428:17430   */\n      0x20\n        /* \"#utility.yul\":17417:17426   */\n      dup3\n        /* \"#utility.yul\":17413:17431   */\n      add\n        /* \"#utility.yul\":17405:17431   */\n      swap1\n      pop\n        /* \"#utility.yul\":17477:17486   */\n      dup2\n        /* \"#utility.yul\":17471:17475   */\n      dup2\n        /* \"#utility.yul\":17467:17487   */\n      sub\n        /* \"#utility.yul\":17463:17464   */\n      0x00\n        /* \"#utility.yul\":17452:17461   */\n      dup4\n        /* \"#utility.yul\":17448:17465   */\n      add\n        /* \"#utility.yul\":17441:17488   */\n      mstore\n        /* \"#utility.yul\":17505:17636   */\n      tag_593\n        /* \"#utility.yul\":17631:17635   */\n      dup2\n        /* \"#utility.yul\":17505:17636   */\n      tag_412\n      jump\t// in\n    tag_593:\n        /* \"#utility.yul\":17497:17636   */\n      swap1\n      pop\n        /* \"#utility.yul\":17224:17643   */\n      swap2\n      swap1\n      pop\n      jump\t// out\n        /* \"#utility.yul\":17649:17829   */\n    tag_413:\n        /* \"#utility.yul\":17697:17774   */\n      0x4e487b7100000000000000000000000000000000000000000000000000000000\n        /* \"#utility.yul\":17694:17695   */\n      0x00\n        /* \"#utility.yul\":17687:17775   */\n      mstore\n        /* \"#utility.yul\":17794:17798   */\n      0x11\n        /* \"#utility.yul\":17791:17792   */\n      0x04\n        /* \"#utility.yul\":17784:17799   */\n      mstore\n        /* \"#utility.yul\":17818:17822   */\n      0x24\n        /* \"#utility.yul\":17815:17816   */\n      0x00\n        /* \"#utility.yul\":17808:17823   */\n      revert\n        /* \"#utility.yul\":17835:17921   */\n    tag_414:\n        /* \"#utility.yul\":17870:17877   */\n      0x00\n        /* \"#utility.yul\":17910:17914   */\n      0xff\n        /* \"#utility.yul\":17903:17908   */\n      dup3\n        /* \"#utility.yul\":17899:17915   */\n      and\n        /* \"#utility.yul\":17888:17915   */\n      swap1\n      pop\n        /* \"#utility.yul\":17835:17921   */\n      swap2\n      swap1\n      pop\n      jump\t// out\n        /* \"#utility.yul\":17927:18094   */\n    tag_194:\n        /* \"#utility.yul\":17964:17967   */\n      0x00\n        /* \"#utility.yul\":17987:18009   */\n      tag_597\n        /* \"#utility.yul\":18003:18008   */\n      dup3\n        /* \"#utility.yul\":17987:18009   */\n      tag_414\n      jump\t// in\n    tag_597:\n        /* \"#utility.yul\":17978:18009   */\n      swap2\n      pop\n        /* \"#utility.yul\":18031:18035   */\n      0xff\n        /* \"#utility.yul\":18024:18029   */\n      dup3\n        /* \"#utility.yul\":18021:18036   */\n      sub\n        /* \"#utility.yul\":18018:18059   */\n      tag_598\n      jumpi\n        /* \"#utility.yul\":18039:18057   */\n      tag_599\n      tag_413\n      jump\t// in\n    tag_599:\n        /* \"#utility.yul\":18018:18059   */\n    tag_598:\n        /* \"#utility.yul\":18086:18087   */\n      0x01\n        /* \"#utility.yul\":18079:18084   */\n      dup3\n        /* \"#utility.yul\":18075:18088   */\n      add\n        /* \"#utility.yul\":18068:18088   */\n      swap1\n      pop\n        /* \"#utility.yul\":17927:18094   */\n      swap2\n      swap1\n      pop\n      jump\t// out\n        /* \"#utility.yul\":18100:18288   */\n    tag_211:\n        /* \"#utility.yul\":18138:18141   */\n      0x00\n        /* \"#utility.yul\":18157:18175   */\n      tag_601\n        /* \"#utility.yul\":18173:18174   */\n      dup3\n        /* \"#utility.yul\":18157:18175   */\n      tag_414\n      jump\t// in\n    tag_601:\n        /* \"#utility.yul\":18152:18175   */\n      swap2\n      pop\n        /* \"#utility.yul\":18189:18207   */\n      tag_602\n        /* \"#utility.yul\":18205:18206   */\n      dup4\n        /* \"#utility.yul\":18189:18207   */\n      tag_414\n      jump\t// in\n    tag_602:\n        /* \"#utility.yul\":18184:18207   */\n      swap3\n      pop\n        /* \"#utility.yul\":18230:18231   */\n      dup3\n        /* \"#utility.yul\":18227:18228   */\n      dup3\n        /* \"#utility.yul\":18223:18232   */\n      add\n        /* \"#utility.yul\":18216:18232   */\n      swap1\n      pop\n        /* \"#utility.yul\":18253:18257   */\n      0xff\n        /* \"#utility.yul\":18248:18251   */\n      dup2\n        /* \"#utility.yul\":18245:18258   */\n      gt\n        /* \"#utility.yul\":18242:18281   */\n      iszero\n      tag_603\n      jumpi\n        /* \"#utility.yul\":18261:18279   */\n      tag_604\n      tag_413\n      jump\t// in\n    tag_604:\n        /* \"#utility.yul\":18242:18281   */\n    tag_603:\n        /* \"#utility.yul\":18100:18288   */\n      swap3\n      swap2\n      pop\n      pop\n      jump\t// out\n        /* \"#utility.yul\":18294:18485   */\n    tag_214:\n        /* \"#utility.yul\":18334:18337   */\n      0x00\n        /* \"#utility.yul\":18353:18373   */\n      tag_606\n        /* \"#utility.yul\":18371:18372   */\n      dup3\n        /* \"#utility.yul\":18353:18373   */\n      tag_381\n      jump\t// in\n    tag_606:\n        /* \"#utility.yul\":18348:18373   */\n      swap2\n      pop\n        /* \"#utility.yul\":18387:18407   */\n      tag_607\n        /* \"#utility.yul\":18405:18406   */\n      dup4\n        /* \"#utility.yul\":18387:18407   */\n      tag_381\n      jump\t// in\n    tag_607:\n        /* \"#utility.yul\":18382:18407   */\n      swap3\n      pop\n        /* \"#utility.yul\":18430:18431   */\n      dup3\n        /* \"#utility.yul\":18427:18428   */\n      dup3\n        /* \"#utility.yul\":18423:18432   */\n      add\n        /* \"#utility.yul\":18416:18432   */\n      swap1\n      pop\n        /* \"#utility.yul\":18451:18454   */\n      dup1\n        /* \"#utility.yul\":18448:18449   */\n      dup3\n        /* \"#utility.yul\":18445:18455   */\n      gt\n        /* \"#utility.yul\":18442:18478   */\n      iszero\n      tag_608\n      jumpi\n        /* \"#utility.yul\":18458:18476   */\n      tag_609\n      tag_413\n      jump\t// in\n    tag_609:\n        /* \"#utility.yul\":18442:18478   */\n    tag_608:\n        /* \"#utility.yul\":18294:18485   */\n      swap3\n      swap2\n      pop\n      pop\n      jump\t// out\n        /* \"#utility.yul\":18491:18639   */\n    tag_415:\n        /* \"#utility.yul\":18593:18604   */\n      0x00\n        /* \"#utility.yul\":18630:18633   */\n      dup2\n        /* \"#utility.yul\":18615:18633   */\n      swap1\n      pop\n        /* \"#utility.yul\":18491:18639   */\n      swap3\n      swap2\n      pop\n      pop\n      jump\t// out\n        /* \"#utility.yul\":18645:19035   */\n    tag_416:\n        /* \"#utility.yul\":18751:18754   */\n      0x00\n        /* \"#utility.yul\":18779:18818   */\n      tag_612\n        /* \"#utility.yul\":18812:18817   */\n      dup3\n        /* \"#utility.yul\":18779:18818   */\n      tag_376\n      jump\t// in\n    tag_612:\n        /* \"#utility.yul\":18834:18923   */\n      tag_613\n        /* \"#utility.yul\":18916:18922   */\n      dup2\n        /* \"#utility.yul\":18911:18914   */\n      dup6\n        /* \"#utility.yul\":18834:18923   */\n      tag_415\n      jump\t// in\n    tag_613:\n        /* \"#utility.yul\":18827:18923   */\n      swap4\n      pop\n        /* \"#utility.yul\":18932:18997   */\n      tag_614\n        /* \"#utility.yul\":18990:18996   */\n      dup2\n        /* \"#utility.yul\":18985:18988   */\n      dup6\n        /* \"#utility.yul\":18978:18982   */\n      0x20\n        /* \"#utility.yul\":18971:18976   */\n      dup7\n        /* \"#utility.yul\":18967:18983   */\n      add\n        /* \"#utility.yul\":18932:18997   */\n      tag_378\n      jump\t// in\n    tag_614:\n        /* \"#utility.yul\":19022:19028   */\n      dup1\n        /* \"#utility.yul\":19017:19020   */\n      dup5\n        /* \"#utility.yul\":19013:19029   */\n      add\n        /* \"#utility.yul\":19006:19029   */\n      swap2\n      pop\n        /* \"#utility.yul\":18755:19035   */\n      pop\n        /* \"#utility.yul\":18645:19035   */\n      swap3\n      swap2\n      pop\n      pop\n      jump\t// out\n        /* \"#utility.yul\":19041:19476   */\n    tag_226:\n        /* \"#utility.yul\":19221:19224   */\n      0x00\n        /* \"#utility.yul\":19243:19338   */\n      tag_616\n        /* \"#utility.yul\":19334:19337   */\n      dup3\n        /* \"#utility.yul\":19325:19331   */\n      dup6\n        /* \"#utility.yul\":19243:19338   */\n      tag_416\n      jump\t// in\n    tag_616:\n        /* \"#utility.yul\":19236:19338   */\n      swap2\n      pop\n        /* \"#utility.yul\":19355:19450   */\n      tag_617\n        /* \"#utility.yul\":19446:19449   */\n      dup3\n        /* \"#utility.yul\":19437:19443   */\n      dup5\n        /* \"#utility.yul\":19355:19450   */\n      tag_416\n      jump\t// in\n    tag_617:\n        /* \"#utility.yul\":19348:19450   */\n      swap2\n      pop\n        /* \"#utility.yul\":19467:19470   */\n      dup2\n        /* \"#utility.yul\":19460:19470   */\n      swap1\n      pop\n        /* \"#utility.yul\":19041:19476   */\n      swap4\n      swap3\n      pop\n      pop\n      pop\n      jump\t// out\n        /* \"#utility.yul\":19482:19580   */\n    tag_417:\n        /* \"#utility.yul\":19533:19539   */\n      0x00\n        /* \"#utility.yul\":19567:19572   */\n      dup2\n        /* \"#utility.yul\":19561:19573   */\n      mload\n        /* \"#utility.yul\":19551:19573   */\n      swap1\n      pop\n        /* \"#utility.yul\":19482:19580   */\n      swap2\n      swap1\n      pop\n      jump\t// out\n        /* \"#utility.yul\":19586:19754   */\n    tag_418:\n        /* \"#utility.yul\":19669:19680   */\n      0x00\n        /* \"#utility.yul\":19703:19709   */\n      dup3\n        /* \"#utility.yul\":19698:19701   */\n      dup3\n        /* \"#utility.yul\":19691:19710   */\n      mstore\n        /* \"#utility.yul\":19743:19747   */\n      0x20\n        /* \"#utility.yul\":19738:19741   */\n      dup3\n        /* \"#utility.yul\":19734:19748   */\n      add\n        /* \"#utility.yul\":19719:19748   */\n      swap1\n      pop\n        /* \"#utility.yul\":19586:19754   */\n      swap3\n      swap2\n      pop\n      pop\n      jump\t// out\n        /* \"#utility.yul\":19760:20133   */\n    tag_419:\n        /* \"#utility.yul\":19846:19849   */\n      0x00\n        /* \"#utility.yul\":19874:19912   */\n      tag_621\n        /* \"#utility.yul\":19906:19911   */\n      dup3\n        /* \"#utility.yul\":19874:19912   */\n      tag_417\n      jump\t// in\n    tag_621:\n        /* \"#utility.yul\":19928:19998   */\n      tag_622\n        /* \"#utility.yul\":19991:19997   */\n      dup2\n        /* \"#utility.yul\":19986:19989   */\n      dup6\n        /* \"#utility.yul\":19928:19998   */\n      tag_418\n      jump\t// in\n    tag_622:\n        /* \"#utility.yul\":19921:19998   */\n      swap4\n      pop\n        /* \"#utility.yul\":20007:20072   */\n      tag_623\n        /* \"#utility.yul\":20065:20071   */\n      dup2\n        /* \"#utility.yul\":20060:20063   */\n      dup6\n        /* \"#utility.yul\":20053:20057   */\n      0x20\n        /* \"#utility.yul\":20046:20051   */\n      dup7\n        /* \"#utility.yul\":20042:20058   */\n      add\n        /* \"#utility.yul\":20007:20072   */\n      tag_378\n      jump\t// in\n    tag_623:\n        /* \"#utility.yul\":20097:20126   */\n      tag_624\n        /* \"#utility.yul\":20119:20125   */\n      dup2\n        /* \"#utility.yul\":20097:20126   */\n      tag_379\n      jump\t// in\n    tag_624:\n        /* \"#utility.yul\":20092:20095   */\n      dup5\n        /* \"#utility.yul\":20088:20127   */\n      add\n        /* \"#utility.yul\":20081:20127   */\n      swap2\n      pop\n        /* \"#utility.yul\":19850:20133   */\n      pop\n        /* \"#utility.yul\":19760:20133   */\n      swap3\n      swap2\n      pop\n      pop\n      jump\t// out\n        /* \"#utility.yul\":20139:20779   */\n    tag_292:\n        /* \"#utility.yul\":20334:20338   */\n      0x00\n        /* \"#utility.yul\":20372:20375   */\n      0x80\n        /* \"#utility.yul\":20361:20370   */\n      dup3\n        /* \"#utility.yul\":20357:20376   */\n      add\n        /* \"#utility.yul\":20349:20376   */\n      swap1\n      pop\n        /* \"#utility.yul\":20386:20457   */\n      tag_626\n        /* \"#utility.yul\":20454:20455   */\n      0x00\n        /* \"#utility.yul\":20443:20452   */\n      dup4\n        /* \"#utility.yul\":20439:20456   */\n      add\n        /* \"#utility.yul\":20430:20436   */\n      dup8\n        /* \"#utility.yul\":20386:20457   */\n      tag_386\n      jump\t// in\n    tag_626:\n        /* \"#utility.yul\":20467:20539   */\n      tag_627\n        /* \"#utility.yul\":20535:20537   */\n      0x20\n        /* \"#utility.yul\":20524:20533   */\n      dup4\n        /* \"#utility.yul\":20520:20538   */\n      add\n        /* \"#utility.yul\":20511:20517   */\n      dup7\n        /* \"#utility.yul\":20467:20539   */\n      tag_386\n      jump\t// in\n    tag_627:\n        /* \"#utility.yul\":20549:20621   */\n      tag_628\n        /* \"#utility.yul\":20617:20619   */\n      0x40\n        /* \"#utility.yul\":20606:20615   */\n      dup4\n        /* \"#utility.yul\":20602:20620   */\n      add\n        /* \"#utility.yul\":20593:20599   */\n      dup6\n        /* \"#utility.yul\":20549:20621   */\n      tag_391\n      jump\t// in\n    tag_628:\n        /* \"#utility.yul\":20668:20677   */\n      dup2\n        /* \"#utility.yul\":20662:20666   */\n      dup2\n        /* \"#utility.yul\":20658:20678   */\n      sub\n        /* \"#utility.yul\":20653:20655   */\n      0x60\n        /* \"#utility.yul\":20642:20651   */\n      dup4\n        /* \"#utility.yul\":20638:20656   */\n      add\n        /* \"#utility.yul\":20631:20679   */\n      mstore\n        /* \"#utility.yul\":20696:20772   */\n      tag_629\n        /* \"#utility.yul\":20767:20771   */\n      dup2\n        /* \"#utility.yul\":20758:20764   */\n      dup5\n        /* \"#utility.yul\":20696:20772   */\n      tag_419\n      jump\t// in\n    tag_629:\n        /* \"#utility.yul\":20688:20772   */\n      swap1\n      pop\n        /* \"#utility.yul\":20139:20779   */\n      swap6\n      swap5\n      pop\n      pop\n      pop\n      pop\n      pop\n      jump\t// out\n        /* \"#utility.yul\":20785:20926   */\n    tag_420:\n        /* \"#utility.yul\":20841:20846   */\n      0x00\n        /* \"#utility.yul\":20872:20878   */\n      dup2\n        /* \"#utility.yul\":20866:20879   */\n      mload\n        /* \"#utility.yul\":20857:20879   */\n      swap1\n      pop\n        /* \"#utility.yul\":20888:20920   */\n      tag_631\n        /* \"#utility.yul\":20914:20919   */\n      dup2\n        /* \"#utility.yul\":20888:20920   */\n      tag_372\n      jump\t// in\n    tag_631:\n        /* \"#utility.yul\":20785:20926   */\n      swap3\n      swap2\n      pop\n      pop\n      jump\t// out\n        /* \"#utility.yul\":20932:21281   */\n    tag_295:\n        /* \"#utility.yul\":21001:21007   */\n      0x00\n        /* \"#utility.yul\":21050:21052   */\n      0x20\n        /* \"#utility.yul\":21038:21047   */\n      dup3\n        /* \"#utility.yul\":21029:21036   */\n      dup5\n        /* \"#utility.yul\":21025:21048   */\n      sub\n        /* \"#utility.yul\":21021:21053   */\n      slt\n        /* \"#utility.yul\":21018:21137   */\n      iszero\n      tag_633\n      jumpi\n        /* \"#utility.yul\":21056:21135   */\n      tag_634\n      tag_369\n      jump\t// in\n    tag_634:\n        /* \"#utility.yul\":21018:21137   */\n    tag_633:\n        /* \"#utility.yul\":21176:21177   */\n      0x00\n        /* \"#utility.yul\":21201:21264   */\n      tag_635\n        /* \"#utility.yul\":21256:21263   */\n      dup5\n        /* \"#utility.yul\":21247:21253   */\n      dup3\n        /* \"#utility.yul\":21236:21245   */\n      dup6\n        /* \"#utility.yul\":21232:21254   */\n      add\n        /* \"#utility.yul\":21201:21264   */\n      tag_420\n      jump\t// in\n    tag_635:\n        /* \"#utility.yul\":21191:21264   */\n      swap2\n      pop\n        /* \"#utility.yul\":21147:21274   */\n      pop\n        /* \"#utility.yul\":20932:21281   */\n      swap3\n      swap2\n      pop\n      pop\n      jump\t// out\n        /* \"#utility.yul\":21287:21467   */\n    tag_320:\n        /* \"#utility.yul\":21335:21412   */\n      0x4e487b7100000000000000000000000000000000000000000000000000000000\n        /* \"#utility.yul\":21332:21333   */\n      0x00\n        /* \"#utility.yul\":21325:21413   */\n      mstore\n        /* \"#utility.yul\":21432:21436   */\n      0x12\n        /* \"#utility.yul\":21429:21430   */\n      0x04\n        /* \"#utility.yul\":21422:21437   */\n      mstore\n        /* \"#utility.yul\":21456:21460   */\n      0x24\n        /* \"#utility.yul\":21453:21454   */\n      0x00\n        /* \"#utility.yul\":21446:21461   */\n      revert\n        /* \"#utility.yul\":21473:21805   */\n    tag_341:\n        /* \"#utility.yul\":21594:21598   */\n      0x00\n        /* \"#utility.yul\":21632:21634   */\n      0x40\n        /* \"#utility.yul\":21621:21630   */\n      dup3\n        /* \"#utility.yul\":21617:21635   */\n      add\n        /* \"#utility.yul\":21609:21635   */\n      swap1\n      pop\n        /* \"#utility.yul\":21645:21716   */\n      tag_638\n        /* \"#utility.yul\":21713:21714   */\n      0x00\n        /* \"#utility.yul\":21702:21711   */\n      dup4\n        /* \"#utility.yul\":21698:21715   */\n      add\n        /* \"#utility.yul\":21689:21695   */\n      dup6\n        /* \"#utility.yul\":21645:21716   */\n      tag_386\n      jump\t// in\n    tag_638:\n        /* \"#utility.yul\":21726:21798   */\n      tag_639\n        /* \"#utility.yul\":21794:21796   */\n      0x20\n        /* \"#utility.yul\":21783:21792   */\n      dup4\n        /* \"#utility.yul\":21779:21797   */\n      add\n        /* \"#utility.yul\":21770:21776   */\n      dup5\n        /* \"#utility.yul\":21726:21798   */\n      tag_391\n      jump\t// in\n    tag_639:\n        /* \"#utility.yul\":21473:21805   */\n      swap4\n      swap3\n      pop\n      pop\n      pop\n      jump\t// out\n\n    auxdata: 0xa264697066735822122069c0697ec132dde69ce41a15ac59a6650ccac1c2719aa0d4c13bfa135e3cc4f564736f6c63430008140033\n}\n",
				"bytecode": {
					"linkReferences": {},
					"object": "608060405234801562000010575f80fd5b50604051620034043803806200340483398181016040528101906200003691906200029f565b6040518060400160405280600781526020017f57656464696e67000000000000000000000000000000000000000000000000008152506040518060400160405280600381526020017f7765640000000000000000000000000000000000000000000000000000000000815250815f9081620000b291906200055c565b508060019081620000c491906200055c565b5050503360085f6101000a81548173ffffffffffffffffffffffffffffffffffffffff021916908373ffffffffffffffffffffffffffffffffffffffff1602179055508260095f6101000a81548173ffffffffffffffffffffffffffffffffffffffff021916908373ffffffffffffffffffffffffffffffffffffffff16021790555080600960156101000a81548161ffff021916908361ffff16021790555081600960146101000a81548160ff0219169083151502179055505f600960176101000a81548160ff021916908360ff1602179055505f600960186101000a81548160ff021916908360ff1602179055505f600b8190555050505062000640565b5f80fd5b5f73ffffffffffffffffffffffffffffffffffffffff82169050919050565b5f620001f382620001c8565b9050919050565b6200020581620001e7565b811462000210575f80fd5b50565b5f815190506200022381620001fa565b92915050565b5f8115159050919050565b6200023f8162000229565b81146200024a575f80fd5b50565b5f815190506200025d8162000234565b92915050565b5f61ffff82169050919050565b6200027b8162000263565b811462000286575f80fd5b50565b5f81519050620002998162000270565b92915050565b5f805f60608486031215620002b957620002b8620001c4565b5b5f620002c88682870162000213565b9350506020620002db868287016200024d565b9250506040620002ee8682870162000289565b9150509250925092565b5f81519050919050565b7f4e487b71000000000000000000000000000000000000000000000000000000005f52604160045260245ffd5b7f4e487b71000000000000000000000000000000000000000000000000000000005f52602260045260245ffd5b5f60028204905060018216806200037457607f821691505b6020821081036200038a57620003896200032f565b5b50919050565b5f819050815f5260205f209050919050565b5f6020601f8301049050919050565b5f82821b905092915050565b5f60088302620003ee7fffffffffffffffffffffffffffffffffffffffffffffffffffffffffffffffff82620003b1565b620003fa8683620003b1565b95508019841693508086168417925050509392505050565b5f819050919050565b5f819050919050565b5f620004446200043e620004388462000412565b6200041b565b62000412565b9050919050565b5f819050919050565b6200045f8362000424565b620004776200046e826200044b565b848454620003bd565b825550505050565b5f90565b6200048d6200047f565b6200049a81848462000454565b505050565b5b81811015620004c157620004b55f8262000483565b600181019050620004a0565b5050565b601f8211156200051057620004da8162000390565b620004e584620003a2565b81016020851015620004f5578190505b6200050d6200050485620003a2565b8301826200049f565b50505b505050565b5f82821c905092915050565b5f620005325f198460080262000515565b1980831691505092915050565b5f6200054c838362000521565b9150826002028217905092915050565b6200056782620002f8565b67ffffffffffffffff81111562000583576200058262000302565b5b6200058f82546200035c565b6200059c828285620004c5565b5f60209050601f831160018114620005d2575f8415620005bd578287015190505b620005c985826200053f565b86555062000638565b601f198416620005e28662000390565b5f5b828110156200060b57848901518255600182019150602085019450602081019050620005e4565b868310156200062b578489015162000627601f89168262000521565b8355505b6001600288020188555050505b505050505050565b612db6806200064e5f395ff3fe608060405234801561000f575f80fd5b5060043610610114575f3560e01c80637a8363f9116100a0578063b49a5bb21161006f578063b49a5bb2146102dc578063b88d4fde146102f8578063bd6690f414610314578063c87b56dd14610330578063e985e9c51461036057610114565b80637a8363f91461026857806395d89b4114610284578063a22cb465146102a2578063a702314d146102be57610114565b806323b872dd116100e757806323b872dd146101b25780632fc5a6df146101ce57806342842e0e146101ec5780636352211e1461020857806370a082311461023857610114565b806301ffc9a71461011857806306fdde0314610148578063081812fc14610166578063095ea7b314610196575b5f80fd5b610132600480360381019061012d919061223f565b610390565b60405161013f9190612284565b60405180910390f35b610150610471565b60405161015d9190612327565b60405180910390f35b610180600480360381019061017b919061237a565b610500565b60405161018d91906123e4565b60405180910390f35b6101b060048036038101906101ab9190612427565b61051b565b005b6101cc60048036038101906101c79190612465565b610531565b005b6101d6610630565b6040516101e391906124d1565b60405180910390f35b61020660048036038101906102019190612465565b610644565b005b610222600480360381019061021d919061237a565b610663565b60405161022f91906123e4565b60405180910390f35b610252600480360381019061024d91906124ea565b610674565b60405161025f9190612524565b60405180910390f35b610282600480360381019061027d919061253d565b61072a565b005b61028c6108cb565b6040516102999190612327565b60405180910390f35b6102bc60048036038101906102b791906125a5565b61095b565b005b6102c6610971565b6040516102d39190612284565b60405180910390f35b6102f660048036038101906102f1919061237a565b610984565b005b610312600480360381019061030d919061270f565b610bd6565b005b61032e600480360381019061032991906124ea565b610bf3565b005b61034a6004803603810190610345919061237a565b6110c1565b6040516103579190612327565b60405180910390f35b61037a6004803603810190610375919061278f565b611127565b6040516103879190612284565b60405180910390f35b5f7f80ac58cd000000000000000000000000000000000000000000000000000000007bffffffffffffffffffffffffffffffffffffffffffffffffffffffff1916827bffffffffffffffffffffffffffffffffffffffffffffffffffffffff1916148061045a57507f5b5e139f000000000000000000000000000000000000000000000000000000007bffffffffffffffffffffffffffffffffffffffffffffffffffffffff1916827bffffffffffffffffffffffffffffffffffffffffffffffffffffffff1916145b8061046a5750610469826111b5565b5b9050919050565b60605f805461047f906127fa565b80601f01602080910402602001604051908101604052809291908181526020018280546104ab906127fa565b80156104f65780601f106104cd576101008083540402835291602001916104f6565b820191905f5260205f20905b8154815290600101906020018083116104d957829003601f168201915b5050505050905090565b5f61050a8261121e565b50610514826112a4565b9050919050565b61052d82826105286112dd565b6112e4565b5050565b5f73ffffffffffffffffffffffffffffffffffffffff168273ffffffffffffffffffffffffffffffffffffffff16036105a1575f6040517f64a0ae9200000000000000000000000000000000000000000000000000000000815260040161059891906123e4565b60405180910390fd5b5f6105b483836105af6112dd565b6112f6565b90508373ffffffffffffffffffffffffffffffffffffffff168173ffffffffffffffffffffffffffffffffffffffff161461062a578382826040517f64283d7b0000000000000000000000000000000000000000000000000000000081526004016106219392919061282a565b60405180910390fd5b50505050565b600960159054906101000a900461ffff1681565b61065e83838360405180602001604052805f815250610bd6565b505050565b5f61066d8261121e565b9050919050565b5f8073ffffffffffffffffffffffffffffffffffffffff168273ffffffffffffffffffffffffffffffffffffffff16036106e5575f6040517f89c62b640000000000000000000000000000000000000000000000000000000081526004016106dc91906123e4565b60405180910390fd5b60035f8373ffffffffffffffffffffffffffffffffffffffff1673ffffffffffffffffffffffffffffffffffffffff1681526020019081526020015f20549050919050565b60085f9054906101000a900473ffffffffffffffffffffffffffffffffffffffff1673ffffffffffffffffffffffffffffffffffffffff163373ffffffffffffffffffffffffffffffffffffffff1614806107d1575060095f9054906101000a900473ffffffffffffffffffffffffffffffffffffffff1673ffffffffffffffffffffffffffffffffffffffff163373ffffffffffffffffffffffffffffffffffffffff16145b610810576040517f08c379a0000000000000000000000000000000000000000000000000000000008152600401610807906128cf565b60405180910390fd5b600960149054906101000a900460ff1661085f576040517f08c379a00000000000000000000000000000000000000000000000000000000081526004016108569061295d565b60405180910390fd5b816006819055508060078190555061089a60085f9054906101000a900473ffffffffffffffffffffffffffffffffffffffff16600654611501565b6108c760095f9054906101000a900473ffffffffffffffffffffffffffffffffffffffff16600754611501565b5050565b6060600180546108da906127fa565b80601f0160208091040260200160405190810160405280929190818152602001828054610906906127fa565b80156109515780601f1061092857610100808354040283529160200191610951565b820191905f5260205f20905b81548152906001019060200180831161093457829003601f168201915b5050505050905090565b61096d6109666112dd565b83836115f4565b5050565b600960149054906101000a900460ff1681565b60085f9054906101000a900473ffffffffffffffffffffffffffffffffffffffff1673ffffffffffffffffffffffffffffffffffffffff163373ffffffffffffffffffffffffffffffffffffffff161480610a2b575060095f9054906101000a900473ffffffffffffffffffffffffffffffffffffffff1673ffffffffffffffffffffffffffffffffffffffff163373ffffffffffffffffffffffffffffffffffffffff16145b610a6a576040517f08c379a0000000000000000000000000000000000000000000000000000000008152600401610a61906128cf565b60405180910390fd5b600960149054906101000a900460ff16610ab9576040517f08c379a0000000000000000000000000000000000000000000000000000000008152600401610ab0906129eb565b60405180910390fd5b5f610ac4823361175d565b905080610b06576040517f08c379a0000000000000000000000000000000000000000000000000000000008152600401610afd90612a79565b60405180910390fd5b610b116006546119f9565b610b1c6007546119f9565b5f600960146101000a81548160ff02191690831515021790555060095f9054906101000a900473ffffffffffffffffffffffffffffffffffffffff1673ffffffffffffffffffffffffffffffffffffffff1660085f9054906101000a900473ffffffffffffffffffffffffffffffffffffffff1673ffffffffffffffffffffffffffffffffffffffff167f6077edea937d666f6b546e152b1e3b4c1632f0b238e580d25b0c3a589487bfda60405160405180910390a35050565b610be1848484610531565b610bed84848484611a7b565b50505050565b60085f9054906101000a900473ffffffffffffffffffffffffffffffffffffffff1673ffffffffffffffffffffffffffffffffffffffff163373ffffffffffffffffffffffffffffffffffffffff161480610c9a575060095f9054906101000a900473ffffffffffffffffffffffffffffffffffffffff1673ffffffffffffffffffffffffffffffffffffffff163373ffffffffffffffffffffffffffffffffffffffff16145b610cd9576040517f08c379a0000000000000000000000000000000000000000000000000000000008152600401610cd0906128cf565b60405180910390fd5b5f5b60038160ff161015610da6578173ffffffffffffffffffffffffffffffffffffffff16600c8260ff1681548110610d1557610d14612a97565b5b905f5260205f20015f9054906101000a900473ffffffffffffffffffffffffffffffffffffffff1673ffffffffffffffffffffffffffffffffffffffff1603610d93576040517f08c379a0000000000000000000000000000000000000000000000000000000008152600401610d8a90612b0e565b60405180910390fd5b8080610d9e90612b65565b915050610cdb565b5060085f9054906101000a900473ffffffffffffffffffffffffffffffffffffffff1673ffffffffffffffffffffffffffffffffffffffff163373ffffffffffffffffffffffffffffffffffffffff1603610e79576001600d5f8373ffffffffffffffffffffffffffffffffffffffff1673ffffffffffffffffffffffffffffffffffffffff1681526020019081526020015f205f81548110610e4c57610e4b612a97565b5b905f5260205f2090602091828204019190066101000a81548160ff021916908360ff160217905550610f49565b60095f9054906101000a900473ffffffffffffffffffffffffffffffffffffffff1673ffffffffffffffffffffffffffffffffffffffff163373ffffffffffffffffffffffffffffffffffffffff1603610f48576001600d5f8373ffffffffffffffffffffffffffffffffffffffff1673ffffffffffffffffffffffffffffffffffffffff1681526020019081526020015f20600181548110610f1f57610f1e612a97565b5b905f5260205f2090602091828204019190066101000a81548160ff021916908360ff1602179055505b5b6002600d5f8373ffffffffffffffffffffffffffffffffffffffff1673ffffffffffffffffffffffffffffffffffffffff1681526020019081526020015f20600181548110610f9b57610f9a612a97565b5b905f5260205f2090602091828204019190069054906101000a900460ff16600d5f8473ffffffffffffffffffffffffffffffffffffffff1673ffffffffffffffffffffffffffffffffffffffff1681526020019081526020015f205f8154811061100857611007612a97565b5b905f5260205f2090602091828204019190069054906101000a900460ff166110309190612b8d565b60ff16036110be576001600b5f82825461104a9190612bc1565b92505081905550600c81908060018154018082558091505060019003905f5260205f20015f9091909190916101000a81548173ffffffffffffffffffffffffffffffffffffffff021916908373ffffffffffffffffffffffffffffffffffffffff1602179055506110bd81600b54611501565b5b50565b60606110cc8261121e565b505f6110d6611c2d565b90505f8151116110f45760405180602001604052805f81525061111f565b806110fe84611c43565b60405160200161110f929190612c2e565b6040516020818303038152906040525b915050919050565b5f60055f8473ffffffffffffffffffffffffffffffffffffffff1673ffffffffffffffffffffffffffffffffffffffff1681526020019081526020015f205f8373ffffffffffffffffffffffffffffffffffffffff1673ffffffffffffffffffffffffffffffffffffffff1681526020019081526020015f205f9054906101000a900460ff16905092915050565b5f7f01ffc9a7000000000000000000000000000000000000000000000000000000007bffffffffffffffffffffffffffffffffffffffffffffffffffffffff1916827bffffffffffffffffffffffffffffffffffffffffffffffffffffffff1916149050919050565b5f8061122983611d0d565b90505f73ffffffffffffffffffffffffffffffffffffffff168173ffffffffffffffffffffffffffffffffffffffff160361129b57826040517f7e2732890000000000000000000000000000000000000000000000000000000081526004016112929190612524565b60405180910390fd5b80915050919050565b5f60045f8381526020019081526020015f205f9054906101000a900473ffffffffffffffffffffffffffffffffffffffff169050919050565b5f33905090565b6112f18383836001611d46565b505050565b5f8061130184611d0d565b90505f73ffffffffffffffffffffffffffffffffffffffff168373ffffffffffffffffffffffffffffffffffffffff161461134257611341818486611f05565b5b5f73ffffffffffffffffffffffffffffffffffffffff168173ffffffffffffffffffffffffffffffffffffffff16146113cd576113815f855f80611d46565b600160035f8373ffffffffffffffffffffffffffffffffffffffff1673ffffffffffffffffffffffffffffffffffffffff1681526020019081526020015f205f82825403925050819055505b5f73ffffffffffffffffffffffffffffffffffffffff168573ffffffffffffffffffffffffffffffffffffffff161461144c57600160035f8773ffffffffffffffffffffffffffffffffffffffff1673ffffffffffffffffffffffffffffffffffffffff1681526020019081526020015f205f82825401925050819055505b8460025f8681526020019081526020015f205f6101000a81548173ffffffffffffffffffffffffffffffffffffffff021916908373ffffffffffffffffffffffffffffffffffffffff160217905550838573ffffffffffffffffffffffffffffffffffffffff168273ffffffffffffffffffffffffffffffffffffffff167fddf252ad1be2c89b69c2b068fc378daa952ba7f163c4a11628f55a4df523b3ef60405160405180910390a4809150509392505050565b5f73ffffffffffffffffffffffffffffffffffffffff168273ffffffffffffffffffffffffffffffffffffffff1603611571575f6040517f64a0ae9200000000000000000000000000000000000000000000000000000000815260040161156891906123e4565b60405180910390fd5b5f61157d83835f6112f6565b90505f73ffffffffffffffffffffffffffffffffffffffff168173ffffffffffffffffffffffffffffffffffffffff16146115ef575f6040517f73c6ac6e0000000000000000000000000000000000000000000000000000000081526004016115e691906123e4565b60405180910390fd5b505050565b5f73ffffffffffffffffffffffffffffffffffffffff168273ffffffffffffffffffffffffffffffffffffffff160361166457816040517f5b08ba1800000000000000000000000000000000000000000000000000000000815260040161165b91906123e4565b60405180910390fd5b8060055f8573ffffffffffffffffffffffffffffffffffffffff1673ffffffffffffffffffffffffffffffffffffffff1681526020019081526020015f205f8473ffffffffffffffffffffffffffffffffffffffff1673ffffffffffffffffffffffffffffffffffffffff1681526020019081526020015f205f6101000a81548160ff0219169083151502179055508173ffffffffffffffffffffffffffffffffffffffff168373ffffffffffffffffffffffffffffffffffffffff167f17307eab39ab6107e8899845ad3d59bd9653f200f220920489ca2b5937696c31836040516117509190612284565b60405180910390a3505050565b5f805f90505f5b60038160ff1610156117ae57600a8160ff168154811061178757611786612a97565b5b905f5260205f200154850361179b57600191505b80806117a690612b65565b915050611764565b508061198f57600a84908060018154018082558091505060019003905f5260205f20015f909190919091505560085f9054906101000a900473ffffffffffffffffffffffffffffffffffffffff1673ffffffffffffffffffffffffffffffffffffffff168373ffffffffffffffffffffffffffffffffffffffff161480611881575060095f9054906101000a900473ffffffffffffffffffffffffffffffffffffffff1673ffffffffffffffffffffffffffffffffffffffff168373ffffffffffffffffffffffffffffffffffffffff16145b156118c2576001600960178282829054906101000a900460ff166118a59190612b8d565b92506101000a81548160ff021916908360ff16021790555061198e565b5f5b60038160ff16101561198c57600c8160ff16815481106118e7576118e6612a97565b5b905f5260205f20015f9054906101000a900473ffffffffffffffffffffffffffffffffffffffff1673ffffffffffffffffffffffffffffffffffffffff168473ffffffffffffffffffffffffffffffffffffffff1603611979576001600960188282829054906101000a900460ff166119609190612b8d565b92506101000a81548160ff021916908360ff1602179055505b808061198490612b65565b9150506118c4565b505b5b6002600960179054906101000a900460ff1660ff1614806119df57506001600960179054906101000a900460ff1660ff161480156119de57505f600960189054906101000a900460ff1660ff16115b5b156119ee5760019150506119f3565b5f9150505b92915050565b5f611a055f835f6112f6565b90505f73ffffffffffffffffffffffffffffffffffffffff168173ffffffffffffffffffffffffffffffffffffffff1603611a7757816040517f7e273289000000000000000000000000000000000000000000000000000000008152600401611a6e9190612524565b60405180910390fd5b5050565b5f8373ffffffffffffffffffffffffffffffffffffffff163b1115611c27578273ffffffffffffffffffffffffffffffffffffffff1663150b7a02611abe6112dd565b8685856040518563ffffffff1660e01b8152600401611ae09493929190612ca3565b6020604051808303815f875af1925050508015611b1b57506040513d601f19601f82011682018060405250810190611b189190612d01565b60015b611b9c573d805f8114611b49576040519150601f19603f3d011682016040523d82523d5f602084013e611b4e565b606091505b505f815103611b9457836040517f64a0ae92000000000000000000000000000000000000000000000000000000008152600401611b8b91906123e4565b60405180910390fd5b805181602001fd5b63150b7a0260e01b7bffffffffffffffffffffffffffffffffffffffffffffffffffffffff1916817bffffffffffffffffffffffffffffffffffffffffffffffffffffffff191614611c2557836040517f64a0ae92000000000000000000000000000000000000000000000000000000008152600401611c1c91906123e4565b60405180910390fd5b505b50505050565b606060405180602001604052805f815250905090565b60605f6001611c5184611fc8565b0190505f8167ffffffffffffffff811115611c6f57611c6e6125eb565b5b6040519080825280601f01601f191660200182016040528015611ca15781602001600182028036833780820191505090505b5090505f82602001820190505b600115611d02578080600190039150507f3031323334353637383961626364656600000000000000000000000000000000600a86061a8153600a8581611cf757611cf6612d2c565b5b0494505f8503611cae575b819350505050919050565b5f60025f8381526020019081526020015f205f9054906101000a900473ffffffffffffffffffffffffffffffffffffffff169050919050565b8080611d7e57505f73ffffffffffffffffffffffffffffffffffffffff168273ffffffffffffffffffffffffffffffffffffffff1614155b15611eb0575f611d8d8461121e565b90505f73ffffffffffffffffffffffffffffffffffffffff168373ffffffffffffffffffffffffffffffffffffffff1614158015611df757508273ffffffffffffffffffffffffffffffffffffffff168173ffffffffffffffffffffffffffffffffffffffff1614155b8015611e0a5750611e088184611127565b155b15611e4c57826040517fa9fbf51f000000000000000000000000000000000000000000000000000000008152600401611e4391906123e4565b60405180910390fd5b8115611eae57838573ffffffffffffffffffffffffffffffffffffffff168273ffffffffffffffffffffffffffffffffffffffff167f8c5be1e5ebec7d5bd14f71427d1e84f3dd0314c0f7b2291e5b200ac8c7c3b92560405160405180910390a45b505b8360045f8581526020019081526020015f205f6101000a81548173ffffffffffffffffffffffffffffffffffffffff021916908373ffffffffffffffffffffffffffffffffffffffff16021790555050505050565b611f10838383612119565b611fc3575f73ffffffffffffffffffffffffffffffffffffffff168373ffffffffffffffffffffffffffffffffffffffff1603611f8457806040517f7e273289000000000000000000000000000000000000000000000000000000008152600401611f7b9190612524565b60405180910390fd5b81816040517f177e802f000000000000000000000000000000000000000000000000000000008152600401611fba929190612d59565b60405180910390fd5b505050565b5f805f90507a184f03e93ff9f4daa797ed6e38ed64bf6a1f0100000000000000008310612024577a184f03e93ff9f4daa797ed6e38ed64bf6a1f010000000000000000838161201a57612019612d2c565b5b0492506040810190505b6d04ee2d6d415b85acef81000000008310612061576d04ee2d6d415b85acef8100000000838161205757612056612d2c565b5b0492506020810190505b662386f26fc10000831061209057662386f26fc10000838161208657612085612d2c565b5b0492506010810190505b6305f5e10083106120b9576305f5e10083816120af576120ae612d2c565b5b0492506008810190505b61271083106120de5761271083816120d4576120d3612d2c565b5b0492506004810190505b6064831061210157606483816120f7576120f6612d2c565b5b0492506002810190505b600a8310612110576001810190505b80915050919050565b5f8073ffffffffffffffffffffffffffffffffffffffff168373ffffffffffffffffffffffffffffffffffffffff16141580156121d057508273ffffffffffffffffffffffffffffffffffffffff168473ffffffffffffffffffffffffffffffffffffffff16148061219157506121908484611127565b5b806121cf57508273ffffffffffffffffffffffffffffffffffffffff166121b7836112a4565b73ffffffffffffffffffffffffffffffffffffffff16145b5b90509392505050565b5f604051905090565b5f80fd5b5f80fd5b5f7fffffffff0000000000000000000000000000000000000000000000000000000082169050919050565b61221e816121ea565b8114612228575f80fd5b50565b5f8135905061223981612215565b92915050565b5f60208284031215612254576122536121e2565b5b5f6122618482850161222b565b91505092915050565b5f8115159050919050565b61227e8161226a565b82525050565b5f6020820190506122975f830184612275565b92915050565b5f81519050919050565b5f82825260208201905092915050565b5f5b838110156122d45780820151818401526020810190506122b9565b5f8484015250505050565b5f601f19601f8301169050919050565b5f6122f98261229d565b61230381856122a7565b93506123138185602086016122b7565b61231c816122df565b840191505092915050565b5f6020820190508181035f83015261233f81846122ef565b905092915050565b5f819050919050565b61235981612347565b8114612363575f80fd5b50565b5f8135905061237481612350565b92915050565b5f6020828403121561238f5761238e6121e2565b5b5f61239c84828501612366565b91505092915050565b5f73ffffffffffffffffffffffffffffffffffffffff82169050919050565b5f6123ce826123a5565b9050919050565b6123de816123c4565b82525050565b5f6020820190506123f75f8301846123d5565b92915050565b612406816123c4565b8114612410575f80fd5b50565b5f81359050612421816123fd565b92915050565b5f806040838503121561243d5761243c6121e2565b5b5f61244a85828601612413565b925050602061245b85828601612366565b9150509250929050565b5f805f6060848603121561247c5761247b6121e2565b5b5f61248986828701612413565b935050602061249a86828701612413565b92505060406124ab86828701612366565b9150509250925092565b5f61ffff82169050919050565b6124cb816124b5565b82525050565b5f6020820190506124e45f8301846124c2565b92915050565b5f602082840312156124ff576124fe6121e2565b5b5f61250c84828501612413565b91505092915050565b61251e81612347565b82525050565b5f6020820190506125375f830184612515565b92915050565b5f8060408385031215612553576125526121e2565b5b5f61256085828601612366565b925050602061257185828601612366565b9150509250929050565b6125848161226a565b811461258e575f80fd5b50565b5f8135905061259f8161257b565b92915050565b5f80604083850312156125bb576125ba6121e2565b5b5f6125c885828601612413565b92505060206125d985828601612591565b9150509250929050565b5f80fd5b5f80fd5b7f4e487b71000000000000000000000000000000000000000000000000000000005f52604160045260245ffd5b612621826122df565b810181811067ffffffffffffffff821117156126405761263f6125eb565b5b80604052505050565b5f6126526121d9565b905061265e8282612618565b919050565b5f67ffffffffffffffff82111561267d5761267c6125eb565b5b612686826122df565b9050602081019050919050565b828183375f83830152505050565b5f6126b36126ae84612663565b612649565b9050828152602081018484840111156126cf576126ce6125e7565b5b6126da848285612693565b509392505050565b5f82601f8301126126f6576126f56125e3565b5b81356127068482602086016126a1565b91505092915050565b5f805f8060808587031215612727576127266121e2565b5b5f61273487828801612413565b945050602061274587828801612413565b935050604061275687828801612366565b925050606085013567ffffffffffffffff811115612777576127766121e6565b5b612783878288016126e2565b91505092959194509250565b5f80604083850312156127a5576127a46121e2565b5b5f6127b285828601612413565b92505060206127c385828601612413565b9150509250929050565b7f4e487b71000000000000000000000000000000000000000000000000000000005f52602260045260245ffd5b5f600282049050600182168061281157607f821691505b602082108103612824576128236127cd565b5b50919050565b5f60608201905061283d5f8301866123d5565b61284a6020830185612515565b61285760408301846123d5565b949350505050565b7f4f6e6c792073706f757365732063616e2063616c6c20746869732066756e63745f8201527f696f6e0000000000000000000000000000000000000000000000000000000000602082015250565b5f6128b96023836122a7565b91506128c48261285f565b604082019050919050565b5f6020820190508181035f8301526128e6816128ad565b9050919050565b7f43616e6e6f742070726f647563652077656464696e67206365727469666963615f8201527f746520666f72206e6f6e2d6d6172726965642070656f706c6500000000000000602082015250565b5f6129476039836122a7565b9150612952826128ed565b604082019050919050565b5f6020820190508181035f8301526129748161293b565b9050919050565b7f4e6f6e2d6d6172726965642070656f706c652063616e6e6f74206469766f72635f8201527f6500000000000000000000000000000000000000000000000000000000000000602082015250565b5f6129d56021836122a7565b91506129e08261297b565b604082019050919050565b5f6020820190508181035f830152612a02816129c9565b9050919050565b7f4e6f7420656e6f756768207061727469636970616e747320616772656520746f5f8201527f20746865206469766f7263650000000000000000000000000000000000000000602082015250565b5f612a63602c836122a7565b9150612a6e82612a09565b604082019050919050565b5f6020820190508181035f830152612a9081612a57565b9050919050565b7f4e487b71000000000000000000000000000000000000000000000000000000005f52603260045260245ffd5b7f43616e6e6f742072652d617574686f72697a6520616e206164647265737300005f82015250565b5f612af8601e836122a7565b9150612b0382612ac4565b602082019050919050565b5f6020820190508181035f830152612b2581612aec565b9050919050565b7f4e487b71000000000000000000000000000000000000000000000000000000005f52601160045260245ffd5b5f60ff82169050919050565b5f612b6f82612b59565b915060ff8203612b8257612b81612b2c565b5b600182019050919050565b5f612b9782612b59565b9150612ba283612b59565b9250828201905060ff811115612bbb57612bba612b2c565b5b92915050565b5f612bcb82612347565b9150612bd683612347565b9250828201905080821115612bee57612bed612b2c565b5b92915050565b5f81905092915050565b5f612c088261229d565b612c128185612bf4565b9350612c228185602086016122b7565b80840191505092915050565b5f612c398285612bfe565b9150612c458284612bfe565b91508190509392505050565b5f81519050919050565b5f82825260208201905092915050565b5f612c7582612c51565b612c7f8185612c5b565b9350612c8f8185602086016122b7565b612c98816122df565b840191505092915050565b5f608082019050612cb65f8301876123d5565b612cc360208301866123d5565b612cd06040830185612515565b8181036060830152612ce28184612c6b565b905095945050505050565b5f81519050612cfb81612215565b92915050565b5f60208284031215612d1657612d156121e2565b5b5f612d2384828501612ced565b91505092915050565b7f4e487b71000000000000000000000000000000000000000000000000000000005f52601260045260245ffd5b5f604082019050612d6c5f8301856123d5565b612d796020830184612515565b939250505056fea264697066735822122069c0697ec132dde69ce41a15ac59a6650ccac1c2719aa0d4c13bfa135e3cc4f564736f6c63430008140033",
					"opcodes": "PUSH1 0x80 PUSH1 0x40 MSTORE CALLVALUE DUP1 ISZERO PUSH3 0x10 JUMPI PUSH0 DUP1 REVERT JUMPDEST POP PUSH1 0x40 MLOAD PUSH3 0x3404 CODESIZE SUB DUP1 PUSH3 0x3404 DUP4 CODECOPY DUP2 DUP2 ADD PUSH1 0x40 MSTORE DUP2 ADD SWAP1 PUSH3 0x36 SWAP2 SWAP1 PUSH3 0x29F JUMP JUMPDEST PUSH1 0x40 MLOAD DUP1 PUSH1 0x40 ADD PUSH1 0x40 MSTORE DUP1 PUSH1 0x7 DUP2 MSTORE PUSH1 0x20 ADD PUSH32 0x57656464696E6700000000000000000000000000000000000000000000000000 DUP2 MSTORE POP PUSH1 0x40 MLOAD DUP1 PUSH1 0x40 ADD PUSH1 0x40 MSTORE DUP1 PUSH1 0x3 DUP2 MSTORE PUSH1 0x20 ADD PUSH32 0x7765640000000000000000000000000000000000000000000000000000000000 DUP2 MSTORE POP DUP2 PUSH0 SWAP1 DUP2 PUSH3 0xB2 SWAP2 SWAP1 PUSH3 0x55C JUMP JUMPDEST POP DUP1 PUSH1 0x1 SWAP1 DUP2 PUSH3 0xC4 SWAP2 SWAP1 PUSH3 0x55C JUMP JUMPDEST POP POP POP CALLER PUSH1 0x8 PUSH0 PUSH2 0x100 EXP DUP2 SLOAD DUP2 PUSH20 0xFFFFFFFFFFFFFFFFFFFFFFFFFFFFFFFFFFFFFFFF MUL NOT AND SWAP1 DUP4 PUSH20 0xFFFFFFFFFFFFFFFFFFFFFFFFFFFFFFFFFFFFFFFF AND MUL OR SWAP1 SSTORE POP DUP3 PUSH1 0x9 PUSH0 PUSH2 0x100 EXP DUP2 SLOAD DUP2 PUSH20 0xFFFFFFFFFFFFFFFFFFFFFFFFFFFFFFFFFFFFFFFF MUL NOT AND SWAP1 DUP4 PUSH20 0xFFFFFFFFFFFFFFFFFFFFFFFFFFFFFFFFFFFFFFFF AND MUL OR SWAP1 SSTORE POP DUP1 PUSH1 0x9 PUSH1 0x15 PUSH2 0x100 EXP DUP2 SLOAD DUP2 PUSH2 0xFFFF MUL NOT AND SWAP1 DUP4 PUSH2 0xFFFF AND MUL OR SWAP1 SSTORE POP DUP2 PUSH1 0x9 PUSH1 0x14 PUSH2 0x100 EXP DUP2 SLOAD DUP2 PUSH1 0xFF MUL NOT AND SWAP1 DUP4 ISZERO ISZERO MUL OR SWAP1 SSTORE POP PUSH0 PUSH1 0x9 PUSH1 0x17 PUSH2 0x100 EXP DUP2 SLOAD DUP2 PUSH1 0xFF MUL NOT AND SWAP1 DUP4 PUSH1 0xFF AND MUL OR SWAP1 SSTORE POP PUSH0 PUSH1 0x9 PUSH1 0x18 PUSH2 0x100 EXP DUP2 SLOAD DUP2 PUSH1 0xFF MUL NOT AND SWAP1 DUP4 PUSH1 0xFF AND MUL OR SWAP1 SSTORE POP PUSH0 PUSH1 0xB DUP2 SWAP1 SSTORE POP POP POP POP PUSH3 0x640 JUMP JUMPDEST PUSH0 DUP1 REVERT JUMPDEST PUSH0 PUSH20 0xFFFFFFFFFFFFFFFFFFFFFFFFFFFFFFFFFFFFFFFF DUP3 AND SWAP1 POP SWAP2 SWAP1 POP JUMP JUMPDEST PUSH0 PUSH3 0x1F3 DUP3 PUSH3 0x1C8 JUMP JUMPDEST SWAP1 POP SWAP2 SWAP1 POP JUMP JUMPDEST PUSH3 0x205 DUP2 PUSH3 0x1E7 JUMP JUMPDEST DUP2 EQ PUSH3 0x210 JUMPI PUSH0 DUP1 REVERT JUMPDEST POP JUMP JUMPDEST PUSH0 DUP2 MLOAD SWAP1 POP PUSH3 0x223 DUP2 PUSH3 0x1FA JUMP JUMPDEST SWAP3 SWAP2 POP POP JUMP JUMPDEST PUSH0 DUP2 ISZERO ISZERO SWAP1 POP SWAP2 SWAP1 POP JUMP JUMPDEST PUSH3 0x23F DUP2 PUSH3 0x229 JUMP JUMPDEST DUP2 EQ PUSH3 0x24A JUMPI PUSH0 DUP1 REVERT JUMPDEST POP JUMP JUMPDEST PUSH0 DUP2 MLOAD SWAP1 POP PUSH3 0x25D DUP2 PUSH3 0x234 JUMP JUMPDEST SWAP3 SWAP2 POP POP JUMP JUMPDEST PUSH0 PUSH2 0xFFFF DUP3 AND SWAP1 POP SWAP2 SWAP1 POP JUMP JUMPDEST PUSH3 0x27B DUP2 PUSH3 0x263 JUMP JUMPDEST DUP2 EQ PUSH3 0x286 JUMPI PUSH0 DUP1 REVERT JUMPDEST POP JUMP JUMPDEST PUSH0 DUP2 MLOAD SWAP1 POP PUSH3 0x299 DUP2 PUSH3 0x270 JUMP JUMPDEST SWAP3 SWAP2 POP POP JUMP JUMPDEST PUSH0 DUP1 PUSH0 PUSH1 0x60 DUP5 DUP7 SUB SLT ISZERO PUSH3 0x2B9 JUMPI PUSH3 0x2B8 PUSH3 0x1C4 JUMP JUMPDEST JUMPDEST PUSH0 PUSH3 0x2C8 DUP7 DUP3 DUP8 ADD PUSH3 0x213 JUMP JUMPDEST SWAP4 POP POP PUSH1 0x20 PUSH3 0x2DB DUP7 DUP3 DUP8 ADD PUSH3 0x24D JUMP JUMPDEST SWAP3 POP POP PUSH1 0x40 PUSH3 0x2EE DUP7 DUP3 DUP8 ADD PUSH3 0x289 JUMP JUMPDEST SWAP2 POP POP SWAP3 POP SWAP3 POP SWAP3 JUMP JUMPDEST PUSH0 DUP2 MLOAD SWAP1 POP SWAP2 SWAP1 POP JUMP JUMPDEST PUSH32 0x4E487B7100000000000000000000000000000000000000000000000000000000 PUSH0 MSTORE PUSH1 0x41 PUSH1 0x4 MSTORE PUSH1 0x24 PUSH0 REVERT JUMPDEST PUSH32 0x4E487B7100000000000000000000000000000000000000000000000000000000 PUSH0 MSTORE PUSH1 0x22 PUSH1 0x4 MSTORE PUSH1 0x24 PUSH0 REVERT JUMPDEST PUSH0 PUSH1 0x2 DUP3 DIV SWAP1 POP PUSH1 0x1 DUP3 AND DUP1 PUSH3 0x374 JUMPI PUSH1 0x7F DUP3 AND SWAP2 POP JUMPDEST PUSH1 0x20 DUP3 LT DUP2 SUB PUSH3 0x38A JUMPI PUSH3 0x389 PUSH3 0x32F JUMP JUMPDEST JUMPDEST POP SWAP2 SWAP1 POP JUMP JUMPDEST PUSH0 DUP2 SWAP1 POP DUP2 PUSH0 MSTORE PUSH1 0x20 PUSH0 KECCAK256 SWAP1 POP SWAP2 SWAP1 POP JUMP JUMPDEST PUSH0 PUSH1 0x20 PUSH1 0x1F DUP4 ADD DIV SWAP1 POP SWAP2 SWAP1 POP JUMP JUMPDEST PUSH0 DUP3 DUP3 SHL SWAP1 POP SWAP3 SWAP2 POP POP JUMP JUMPDEST PUSH0 PUSH1 0x8 DUP4 MUL PUSH3 0x3EE PUSH32 0xFFFFFFFFFFFFFFFFFFFFFFFFFFFFFFFFFFFFFFFFFFFFFFFFFFFFFFFFFFFFFFFF DUP3 PUSH3 0x3B1 JUMP JUMPDEST PUSH3 0x3FA DUP7 DUP4 PUSH3 0x3B1 JUMP JUMPDEST SWAP6 POP DUP1 NOT DUP5 AND SWAP4 POP DUP1 DUP7 AND DUP5 OR SWAP3 POP POP POP SWAP4 SWAP3 POP POP POP JUMP JUMPDEST PUSH0 DUP2 SWAP1 POP SWAP2 SWAP1 POP JUMP JUMPDEST PUSH0 DUP2 SWAP1 POP SWAP2 SWAP1 POP JUMP JUMPDEST PUSH0 PUSH3 0x444 PUSH3 0x43E PUSH3 0x438 DUP5 PUSH3 0x412 JUMP JUMPDEST PUSH3 0x41B JUMP JUMPDEST PUSH3 0x412 JUMP JUMPDEST SWAP1 POP SWAP2 SWAP1 POP JUMP JUMPDEST PUSH0 DUP2 SWAP1 POP SWAP2 SWAP1 POP JUMP JUMPDEST PUSH3 0x45F DUP4 PUSH3 0x424 JUMP JUMPDEST PUSH3 0x477 PUSH3 0x46E DUP3 PUSH3 0x44B JUMP JUMPDEST DUP5 DUP5 SLOAD PUSH3 0x3BD JUMP JUMPDEST DUP3 SSTORE POP POP POP POP JUMP JUMPDEST PUSH0 SWAP1 JUMP JUMPDEST PUSH3 0x48D PUSH3 0x47F JUMP JUMPDEST PUSH3 0x49A DUP2 DUP5 DUP5 PUSH3 0x454 JUMP JUMPDEST POP POP POP JUMP JUMPDEST JUMPDEST DUP2 DUP2 LT ISZERO PUSH3 0x4C1 JUMPI PUSH3 0x4B5 PUSH0 DUP3 PUSH3 0x483 JUMP JUMPDEST PUSH1 0x1 DUP2 ADD SWAP1 POP PUSH3 0x4A0 JUMP JUMPDEST POP POP JUMP JUMPDEST PUSH1 0x1F DUP3 GT ISZERO PUSH3 0x510 JUMPI PUSH3 0x4DA DUP2 PUSH3 0x390 JUMP JUMPDEST PUSH3 0x4E5 DUP5 PUSH3 0x3A2 JUMP JUMPDEST DUP2 ADD PUSH1 0x20 DUP6 LT ISZERO PUSH3 0x4F5 JUMPI DUP2 SWAP1 POP JUMPDEST PUSH3 0x50D PUSH3 0x504 DUP6 PUSH3 0x3A2 JUMP JUMPDEST DUP4 ADD DUP3 PUSH3 0x49F JUMP JUMPDEST POP POP JUMPDEST POP POP POP JUMP JUMPDEST PUSH0 DUP3 DUP3 SHR SWAP1 POP SWAP3 SWAP2 POP POP JUMP JUMPDEST PUSH0 PUSH3 0x532 PUSH0 NOT DUP5 PUSH1 0x8 MUL PUSH3 0x515 JUMP JUMPDEST NOT DUP1 DUP4 AND SWAP2 POP POP SWAP3 SWAP2 POP POP JUMP JUMPDEST PUSH0 PUSH3 0x54C DUP4 DUP4 PUSH3 0x521 JUMP JUMPDEST SWAP2 POP DUP3 PUSH1 0x2 MUL DUP3 OR SWAP1 POP SWAP3 SWAP2 POP POP JUMP JUMPDEST PUSH3 0x567 DUP3 PUSH3 0x2F8 JUMP JUMPDEST PUSH8 0xFFFFFFFFFFFFFFFF DUP2 GT ISZERO PUSH3 0x583 JUMPI PUSH3 0x582 PUSH3 0x302 JUMP JUMPDEST JUMPDEST PUSH3 0x58F DUP3 SLOAD PUSH3 0x35C JUMP JUMPDEST PUSH3 0x59C DUP3 DUP3 DUP6 PUSH3 0x4C5 JUMP JUMPDEST PUSH0 PUSH1 0x20 SWAP1 POP PUSH1 0x1F DUP4 GT PUSH1 0x1 DUP2 EQ PUSH3 0x5D2 JUMPI PUSH0 DUP5 ISZERO PUSH3 0x5BD JUMPI DUP3 DUP8 ADD MLOAD SWAP1 POP JUMPDEST PUSH3 0x5C9 DUP6 DUP3 PUSH3 0x53F JUMP JUMPDEST DUP7 SSTORE POP PUSH3 0x638 JUMP JUMPDEST PUSH1 0x1F NOT DUP5 AND PUSH3 0x5E2 DUP7 PUSH3 0x390 JUMP JUMPDEST PUSH0 JUMPDEST DUP3 DUP2 LT ISZERO PUSH3 0x60B JUMPI DUP5 DUP10 ADD MLOAD DUP3 SSTORE PUSH1 0x1 DUP3 ADD SWAP2 POP PUSH1 0x20 DUP6 ADD SWAP5 POP PUSH1 0x20 DUP2 ADD SWAP1 POP PUSH3 0x5E4 JUMP JUMPDEST DUP7 DUP4 LT ISZERO PUSH3 0x62B JUMPI DUP5 DUP10 ADD MLOAD PUSH3 0x627 PUSH1 0x1F DUP10 AND DUP3 PUSH3 0x521 JUMP JUMPDEST DUP4 SSTORE POP JUMPDEST PUSH1 0x1 PUSH1 0x2 DUP9 MUL ADD DUP9 SSTORE POP POP POP JUMPDEST POP POP POP POP POP POP JUMP JUMPDEST PUSH2 0x2DB6 DUP1 PUSH3 0x64E PUSH0 CODECOPY PUSH0 RETURN INVALID PUSH1 0x80 PUSH1 0x40 MSTORE CALLVALUE DUP1 ISZERO PUSH2 0xF JUMPI PUSH0 DUP1 REVERT JUMPDEST POP PUSH1 0x4 CALLDATASIZE LT PUSH2 0x114 JUMPI PUSH0 CALLDATALOAD PUSH1 0xE0 SHR DUP1 PUSH4 0x7A8363F9 GT PUSH2 0xA0 JUMPI DUP1 PUSH4 0xB49A5BB2 GT PUSH2 0x6F JUMPI DUP1 PUSH4 0xB49A5BB2 EQ PUSH2 0x2DC JUMPI DUP1 PUSH4 0xB88D4FDE EQ PUSH2 0x2F8 JUMPI DUP1 PUSH4 0xBD6690F4 EQ PUSH2 0x314 JUMPI DUP1 PUSH4 0xC87B56DD EQ PUSH2 0x330 JUMPI DUP1 PUSH4 0xE985E9C5 EQ PUSH2 0x360 JUMPI PUSH2 0x114 JUMP JUMPDEST DUP1 PUSH4 0x7A8363F9 EQ PUSH2 0x268 JUMPI DUP1 PUSH4 0x95D89B41 EQ PUSH2 0x284 JUMPI DUP1 PUSH4 0xA22CB465 EQ PUSH2 0x2A2 JUMPI DUP1 PUSH4 0xA702314D EQ PUSH2 0x2BE JUMPI PUSH2 0x114 JUMP JUMPDEST DUP1 PUSH4 0x23B872DD GT PUSH2 0xE7 JUMPI DUP1 PUSH4 0x23B872DD EQ PUSH2 0x1B2 JUMPI DUP1 PUSH4 0x2FC5A6DF EQ PUSH2 0x1CE JUMPI DUP1 PUSH4 0x42842E0E EQ PUSH2 0x1EC JUMPI DUP1 PUSH4 0x6352211E EQ PUSH2 0x208 JUMPI DUP1 PUSH4 0x70A08231 EQ PUSH2 0x238 JUMPI PUSH2 0x114 JUMP JUMPDEST DUP1 PUSH4 0x1FFC9A7 EQ PUSH2 0x118 JUMPI DUP1 PUSH4 0x6FDDE03 EQ PUSH2 0x148 JUMPI DUP1 PUSH4 0x81812FC EQ PUSH2 0x166 JUMPI DUP1 PUSH4 0x95EA7B3 EQ PUSH2 0x196 JUMPI JUMPDEST PUSH0 DUP1 REVERT JUMPDEST PUSH2 0x132 PUSH1 0x4 DUP1 CALLDATASIZE SUB DUP2 ADD SWAP1 PUSH2 0x12D SWAP2 SWAP1 PUSH2 0x223F JUMP JUMPDEST PUSH2 0x390 JUMP JUMPDEST PUSH1 0x40 MLOAD PUSH2 0x13F SWAP2 SWAP1 PUSH2 0x2284 JUMP JUMPDEST PUSH1 0x40 MLOAD DUP1 SWAP2 SUB SWAP1 RETURN JUMPDEST PUSH2 0x150 PUSH2 0x471 JUMP JUMPDEST PUSH1 0x40 MLOAD PUSH2 0x15D SWAP2 SWAP1 PUSH2 0x2327 JUMP JUMPDEST PUSH1 0x40 MLOAD DUP1 SWAP2 SUB SWAP1 RETURN JUMPDEST PUSH2 0x180 PUSH1 0x4 DUP1 CALLDATASIZE SUB DUP2 ADD SWAP1 PUSH2 0x17B SWAP2 SWAP1 PUSH2 0x237A JUMP JUMPDEST PUSH2 0x500 JUMP JUMPDEST PUSH1 0x40 MLOAD PUSH2 0x18D SWAP2 SWAP1 PUSH2 0x23E4 JUMP JUMPDEST PUSH1 0x40 MLOAD DUP1 SWAP2 SUB SWAP1 RETURN JUMPDEST PUSH2 0x1B0 PUSH1 0x4 DUP1 CALLDATASIZE SUB DUP2 ADD SWAP1 PUSH2 0x1AB SWAP2 SWAP1 PUSH2 0x2427 JUMP JUMPDEST PUSH2 0x51B JUMP JUMPDEST STOP JUMPDEST PUSH2 0x1CC PUSH1 0x4 DUP1 CALLDATASIZE SUB DUP2 ADD SWAP1 PUSH2 0x1C7 SWAP2 SWAP1 PUSH2 0x2465 JUMP JUMPDEST PUSH2 0x531 JUMP JUMPDEST STOP JUMPDEST PUSH2 0x1D6 PUSH2 0x630 JUMP JUMPDEST PUSH1 0x40 MLOAD PUSH2 0x1E3 SWAP2 SWAP1 PUSH2 0x24D1 JUMP JUMPDEST PUSH1 0x40 MLOAD DUP1 SWAP2 SUB SWAP1 RETURN JUMPDEST PUSH2 0x206 PUSH1 0x4 DUP1 CALLDATASIZE SUB DUP2 ADD SWAP1 PUSH2 0x201 SWAP2 SWAP1 PUSH2 0x2465 JUMP JUMPDEST PUSH2 0x644 JUMP JUMPDEST STOP JUMPDEST PUSH2 0x222 PUSH1 0x4 DUP1 CALLDATASIZE SUB DUP2 ADD SWAP1 PUSH2 0x21D SWAP2 SWAP1 PUSH2 0x237A JUMP JUMPDEST PUSH2 0x663 JUMP JUMPDEST PUSH1 0x40 MLOAD PUSH2 0x22F SWAP2 SWAP1 PUSH2 0x23E4 JUMP JUMPDEST PUSH1 0x40 MLOAD DUP1 SWAP2 SUB SWAP1 RETURN JUMPDEST PUSH2 0x252 PUSH1 0x4 DUP1 CALLDATASIZE SUB DUP2 ADD SWAP1 PUSH2 0x24D SWAP2 SWAP1 PUSH2 0x24EA JUMP JUMPDEST PUSH2 0x674 JUMP JUMPDEST PUSH1 0x40 MLOAD PUSH2 0x25F SWAP2 SWAP1 PUSH2 0x2524 JUMP JUMPDEST PUSH1 0x40 MLOAD DUP1 SWAP2 SUB SWAP1 RETURN JUMPDEST PUSH2 0x282 PUSH1 0x4 DUP1 CALLDATASIZE SUB DUP2 ADD SWAP1 PUSH2 0x27D SWAP2 SWAP1 PUSH2 0x253D JUMP JUMPDEST PUSH2 0x72A JUMP JUMPDEST STOP JUMPDEST PUSH2 0x28C PUSH2 0x8CB JUMP JUMPDEST PUSH1 0x40 MLOAD PUSH2 0x299 SWAP2 SWAP1 PUSH2 0x2327 JUMP JUMPDEST PUSH1 0x40 MLOAD DUP1 SWAP2 SUB SWAP1 RETURN JUMPDEST PUSH2 0x2BC PUSH1 0x4 DUP1 CALLDATASIZE SUB DUP2 ADD SWAP1 PUSH2 0x2B7 SWAP2 SWAP1 PUSH2 0x25A5 JUMP JUMPDEST PUSH2 0x95B JUMP JUMPDEST STOP JUMPDEST PUSH2 0x2C6 PUSH2 0x971 JUMP JUMPDEST PUSH1 0x40 MLOAD PUSH2 0x2D3 SWAP2 SWAP1 PUSH2 0x2284 JUMP JUMPDEST PUSH1 0x40 MLOAD DUP1 SWAP2 SUB SWAP1 RETURN JUMPDEST PUSH2 0x2F6 PUSH1 0x4 DUP1 CALLDATASIZE SUB DUP2 ADD SWAP1 PUSH2 0x2F1 SWAP2 SWAP1 PUSH2 0x237A JUMP JUMPDEST PUSH2 0x984 JUMP JUMPDEST STOP JUMPDEST PUSH2 0x312 PUSH1 0x4 DUP1 CALLDATASIZE SUB DUP2 ADD SWAP1 PUSH2 0x30D SWAP2 SWAP1 PUSH2 0x270F JUMP JUMPDEST PUSH2 0xBD6 JUMP JUMPDEST STOP JUMPDEST PUSH2 0x32E PUSH1 0x4 DUP1 CALLDATASIZE SUB DUP2 ADD SWAP1 PUSH2 0x329 SWAP2 SWAP1 PUSH2 0x24EA JUMP JUMPDEST PUSH2 0xBF3 JUMP JUMPDEST STOP JUMPDEST PUSH2 0x34A PUSH1 0x4 DUP1 CALLDATASIZE SUB DUP2 ADD SWAP1 PUSH2 0x345 SWAP2 SWAP1 PUSH2 0x237A JUMP JUMPDEST PUSH2 0x10C1 JUMP JUMPDEST PUSH1 0x40 MLOAD PUSH2 0x357 SWAP2 SWAP1 PUSH2 0x2327 JUMP JUMPDEST PUSH1 0x40 MLOAD DUP1 SWAP2 SUB SWAP1 RETURN JUMPDEST PUSH2 0x37A PUSH1 0x4 DUP1 CALLDATASIZE SUB DUP2 ADD SWAP1 PUSH2 0x375 SWAP2 SWAP1 PUSH2 0x278F JUMP JUMPDEST PUSH2 0x1127 JUMP JUMPDEST PUSH1 0x40 MLOAD PUSH2 0x387 SWAP2 SWAP1 PUSH2 0x2284 JUMP JUMPDEST PUSH1 0x40 MLOAD DUP1 SWAP2 SUB SWAP1 RETURN JUMPDEST PUSH0 PUSH32 0x80AC58CD00000000000000000000000000000000000000000000000000000000 PUSH28 0xFFFFFFFFFFFFFFFFFFFFFFFFFFFFFFFFFFFFFFFFFFFFFFFFFFFFFFFF NOT AND DUP3 PUSH28 0xFFFFFFFFFFFFFFFFFFFFFFFFFFFFFFFFFFFFFFFFFFFFFFFFFFFFFFFF NOT AND EQ DUP1 PUSH2 0x45A JUMPI POP PUSH32 0x5B5E139F00000000000000000000000000000000000000000000000000000000 PUSH28 0xFFFFFFFFFFFFFFFFFFFFFFFFFFFFFFFFFFFFFFFFFFFFFFFFFFFFFFFF NOT AND DUP3 PUSH28 0xFFFFFFFFFFFFFFFFFFFFFFFFFFFFFFFFFFFFFFFFFFFFFFFFFFFFFFFF NOT AND EQ JUMPDEST DUP1 PUSH2 0x46A JUMPI POP PUSH2 0x469 DUP3 PUSH2 0x11B5 JUMP JUMPDEST JUMPDEST SWAP1 POP SWAP2 SWAP1 POP JUMP JUMPDEST PUSH1 0x60 PUSH0 DUP1 SLOAD PUSH2 0x47F SWAP1 PUSH2 0x27FA JUMP JUMPDEST DUP1 PUSH1 0x1F ADD PUSH1 0x20 DUP1 SWAP2 DIV MUL PUSH1 0x20 ADD PUSH1 0x40 MLOAD SWAP1 DUP2 ADD PUSH1 0x40 MSTORE DUP1 SWAP3 SWAP2 SWAP1 DUP2 DUP2 MSTORE PUSH1 0x20 ADD DUP3 DUP1 SLOAD PUSH2 0x4AB SWAP1 PUSH2 0x27FA JUMP JUMPDEST DUP1 ISZERO PUSH2 0x4F6 JUMPI DUP1 PUSH1 0x1F LT PUSH2 0x4CD JUMPI PUSH2 0x100 DUP1 DUP4 SLOAD DIV MUL DUP4 MSTORE SWAP2 PUSH1 0x20 ADD SWAP2 PUSH2 0x4F6 JUMP JUMPDEST DUP3 ADD SWAP2 SWAP1 PUSH0 MSTORE PUSH1 0x20 PUSH0 KECCAK256 SWAP1 JUMPDEST DUP2 SLOAD DUP2 MSTORE SWAP1 PUSH1 0x1 ADD SWAP1 PUSH1 0x20 ADD DUP1 DUP4 GT PUSH2 0x4D9 JUMPI DUP3 SWAP1 SUB PUSH1 0x1F AND DUP3 ADD SWAP2 JUMPDEST POP POP POP POP POP SWAP1 POP SWAP1 JUMP JUMPDEST PUSH0 PUSH2 0x50A DUP3 PUSH2 0x121E JUMP JUMPDEST POP PUSH2 0x514 DUP3 PUSH2 0x12A4 JUMP JUMPDEST SWAP1 POP SWAP2 SWAP1 POP JUMP JUMPDEST PUSH2 0x52D DUP3 DUP3 PUSH2 0x528 PUSH2 0x12DD JUMP JUMPDEST PUSH2 0x12E4 JUMP JUMPDEST POP POP JUMP JUMPDEST PUSH0 PUSH20 0xFFFFFFFFFFFFFFFFFFFFFFFFFFFFFFFFFFFFFFFF AND DUP3 PUSH20 0xFFFFFFFFFFFFFFFFFFFFFFFFFFFFFFFFFFFFFFFF AND SUB PUSH2 0x5A1 JUMPI PUSH0 PUSH1 0x40 MLOAD PUSH32 0x64A0AE9200000000000000000000000000000000000000000000000000000000 DUP2 MSTORE PUSH1 0x4 ADD PUSH2 0x598 SWAP2 SWAP1 PUSH2 0x23E4 JUMP JUMPDEST PUSH1 0x40 MLOAD DUP1 SWAP2 SUB SWAP1 REVERT JUMPDEST PUSH0 PUSH2 0x5B4 DUP4 DUP4 PUSH2 0x5AF PUSH2 0x12DD JUMP JUMPDEST PUSH2 0x12F6 JUMP JUMPDEST SWAP1 POP DUP4 PUSH20 0xFFFFFFFFFFFFFFFFFFFFFFFFFFFFFFFFFFFFFFFF AND DUP2 PUSH20 0xFFFFFFFFFFFFFFFFFFFFFFFFFFFFFFFFFFFFFFFF AND EQ PUSH2 0x62A JUMPI DUP4 DUP3 DUP3 PUSH1 0x40 MLOAD PUSH32 0x64283D7B00000000000000000000000000000000000000000000000000000000 DUP2 MSTORE PUSH1 0x4 ADD PUSH2 0x621 SWAP4 SWAP3 SWAP2 SWAP1 PUSH2 0x282A JUMP JUMPDEST PUSH1 0x40 MLOAD DUP1 SWAP2 SUB SWAP1 REVERT JUMPDEST POP POP POP POP JUMP JUMPDEST PUSH1 0x9 PUSH1 0x15 SWAP1 SLOAD SWAP1 PUSH2 0x100 EXP SWAP1 DIV PUSH2 0xFFFF AND DUP2 JUMP JUMPDEST PUSH2 0x65E DUP4 DUP4 DUP4 PUSH1 0x40 MLOAD DUP1 PUSH1 0x20 ADD PUSH1 0x40 MSTORE DUP1 PUSH0 DUP2 MSTORE POP PUSH2 0xBD6 JUMP JUMPDEST POP POP POP JUMP JUMPDEST PUSH0 PUSH2 0x66D DUP3 PUSH2 0x121E JUMP JUMPDEST SWAP1 POP SWAP2 SWAP1 POP JUMP JUMPDEST PUSH0 DUP1 PUSH20 0xFFFFFFFFFFFFFFFFFFFFFFFFFFFFFFFFFFFFFFFF AND DUP3 PUSH20 0xFFFFFFFFFFFFFFFFFFFFFFFFFFFFFFFFFFFFFFFF AND SUB PUSH2 0x6E5 JUMPI PUSH0 PUSH1 0x40 MLOAD PUSH32 0x89C62B6400000000000000000000000000000000000000000000000000000000 DUP2 MSTORE PUSH1 0x4 ADD PUSH2 0x6DC SWAP2 SWAP1 PUSH2 0x23E4 JUMP JUMPDEST PUSH1 0x40 MLOAD DUP1 SWAP2 SUB SWAP1 REVERT JUMPDEST PUSH1 0x3 PUSH0 DUP4 PUSH20 0xFFFFFFFFFFFFFFFFFFFFFFFFFFFFFFFFFFFFFFFF AND PUSH20 0xFFFFFFFFFFFFFFFFFFFFFFFFFFFFFFFFFFFFFFFF AND DUP2 MSTORE PUSH1 0x20 ADD SWAP1 DUP2 MSTORE PUSH1 0x20 ADD PUSH0 KECCAK256 SLOAD SWAP1 POP SWAP2 SWAP1 POP JUMP JUMPDEST PUSH1 0x8 PUSH0 SWAP1 SLOAD SWAP1 PUSH2 0x100 EXP SWAP1 DIV PUSH20 0xFFFFFFFFFFFFFFFFFFFFFFFFFFFFFFFFFFFFFFFF AND PUSH20 0xFFFFFFFFFFFFFFFFFFFFFFFFFFFFFFFFFFFFFFFF AND CALLER PUSH20 0xFFFFFFFFFFFFFFFFFFFFFFFFFFFFFFFFFFFFFFFF AND EQ DUP1 PUSH2 0x7D1 JUMPI POP PUSH1 0x9 PUSH0 SWAP1 SLOAD SWAP1 PUSH2 0x100 EXP SWAP1 DIV PUSH20 0xFFFFFFFFFFFFFFFFFFFFFFFFFFFFFFFFFFFFFFFF AND PUSH20 0xFFFFFFFFFFFFFFFFFFFFFFFFFFFFFFFFFFFFFFFF AND CALLER PUSH20 0xFFFFFFFFFFFFFFFFFFFFFFFFFFFFFFFFFFFFFFFF AND EQ JUMPDEST PUSH2 0x810 JUMPI PUSH1 0x40 MLOAD PUSH32 0x8C379A000000000000000000000000000000000000000000000000000000000 DUP2 MSTORE PUSH1 0x4 ADD PUSH2 0x807 SWAP1 PUSH2 0x28CF JUMP JUMPDEST PUSH1 0x40 MLOAD DUP1 SWAP2 SUB SWAP1 REVERT JUMPDEST PUSH1 0x9 PUSH1 0x14 SWAP1 SLOAD SWAP1 PUSH2 0x100 EXP SWAP1 DIV PUSH1 0xFF AND PUSH2 0x85F JUMPI PUSH1 0x40 MLOAD PUSH32 0x8C379A000000000000000000000000000000000000000000000000000000000 DUP2 MSTORE PUSH1 0x4 ADD PUSH2 0x856 SWAP1 PUSH2 0x295D JUMP JUMPDEST PUSH1 0x40 MLOAD DUP1 SWAP2 SUB SWAP1 REVERT JUMPDEST DUP2 PUSH1 0x6 DUP2 SWAP1 SSTORE POP DUP1 PUSH1 0x7 DUP2 SWAP1 SSTORE POP PUSH2 0x89A PUSH1 0x8 PUSH0 SWAP1 SLOAD SWAP1 PUSH2 0x100 EXP SWAP1 DIV PUSH20 0xFFFFFFFFFFFFFFFFFFFFFFFFFFFFFFFFFFFFFFFF AND PUSH1 0x6 SLOAD PUSH2 0x1501 JUMP JUMPDEST PUSH2 0x8C7 PUSH1 0x9 PUSH0 SWAP1 SLOAD SWAP1 PUSH2 0x100 EXP SWAP1 DIV PUSH20 0xFFFFFFFFFFFFFFFFFFFFFFFFFFFFFFFFFFFFFFFF AND PUSH1 0x7 SLOAD PUSH2 0x1501 JUMP JUMPDEST POP POP JUMP JUMPDEST PUSH1 0x60 PUSH1 0x1 DUP1 SLOAD PUSH2 0x8DA SWAP1 PUSH2 0x27FA JUMP JUMPDEST DUP1 PUSH1 0x1F ADD PUSH1 0x20 DUP1 SWAP2 DIV MUL PUSH1 0x20 ADD PUSH1 0x40 MLOAD SWAP1 DUP2 ADD PUSH1 0x40 MSTORE DUP1 SWAP3 SWAP2 SWAP1 DUP2 DUP2 MSTORE PUSH1 0x20 ADD DUP3 DUP1 SLOAD PUSH2 0x906 SWAP1 PUSH2 0x27FA JUMP JUMPDEST DUP1 ISZERO PUSH2 0x951 JUMPI DUP1 PUSH1 0x1F LT PUSH2 0x928 JUMPI PUSH2 0x100 DUP1 DUP4 SLOAD DIV MUL DUP4 MSTORE SWAP2 PUSH1 0x20 ADD SWAP2 PUSH2 0x951 JUMP JUMPDEST DUP3 ADD SWAP2 SWAP1 PUSH0 MSTORE PUSH1 0x20 PUSH0 KECCAK256 SWAP1 JUMPDEST DUP2 SLOAD DUP2 MSTORE SWAP1 PUSH1 0x1 ADD SWAP1 PUSH1 0x20 ADD DUP1 DUP4 GT PUSH2 0x934 JUMPI DUP3 SWAP1 SUB PUSH1 0x1F AND DUP3 ADD SWAP2 JUMPDEST POP POP POP POP POP SWAP1 POP SWAP1 JUMP JUMPDEST PUSH2 0x96D PUSH2 0x966 PUSH2 0x12DD JUMP JUMPDEST DUP4 DUP4 PUSH2 0x15F4 JUMP JUMPDEST POP POP JUMP JUMPDEST PUSH1 0x9 PUSH1 0x14 SWAP1 SLOAD SWAP1 PUSH2 0x100 EXP SWAP1 DIV PUSH1 0xFF AND DUP2 JUMP JUMPDEST PUSH1 0x8 PUSH0 SWAP1 SLOAD SWAP1 PUSH2 0x100 EXP SWAP1 DIV PUSH20 0xFFFFFFFFFFFFFFFFFFFFFFFFFFFFFFFFFFFFFFFF AND PUSH20 0xFFFFFFFFFFFFFFFFFFFFFFFFFFFFFFFFFFFFFFFF AND CALLER PUSH20 0xFFFFFFFFFFFFFFFFFFFFFFFFFFFFFFFFFFFFFFFF AND EQ DUP1 PUSH2 0xA2B JUMPI POP PUSH1 0x9 PUSH0 SWAP1 SLOAD SWAP1 PUSH2 0x100 EXP SWAP1 DIV PUSH20 0xFFFFFFFFFFFFFFFFFFFFFFFFFFFFFFFFFFFFFFFF AND PUSH20 0xFFFFFFFFFFFFFFFFFFFFFFFFFFFFFFFFFFFFFFFF AND CALLER PUSH20 0xFFFFFFFFFFFFFFFFFFFFFFFFFFFFFFFFFFFFFFFF AND EQ JUMPDEST PUSH2 0xA6A JUMPI PUSH1 0x40 MLOAD PUSH32 0x8C379A000000000000000000000000000000000000000000000000000000000 DUP2 MSTORE PUSH1 0x4 ADD PUSH2 0xA61 SWAP1 PUSH2 0x28CF JUMP JUMPDEST PUSH1 0x40 MLOAD DUP1 SWAP2 SUB SWAP1 REVERT JUMPDEST PUSH1 0x9 PUSH1 0x14 SWAP1 SLOAD SWAP1 PUSH2 0x100 EXP SWAP1 DIV PUSH1 0xFF AND PUSH2 0xAB9 JUMPI PUSH1 0x40 MLOAD PUSH32 0x8C379A000000000000000000000000000000000000000000000000000000000 DUP2 MSTORE PUSH1 0x4 ADD PUSH2 0xAB0 SWAP1 PUSH2 0x29EB JUMP JUMPDEST PUSH1 0x40 MLOAD DUP1 SWAP2 SUB SWAP1 REVERT JUMPDEST PUSH0 PUSH2 0xAC4 DUP3 CALLER PUSH2 0x175D JUMP JUMPDEST SWAP1 POP DUP1 PUSH2 0xB06 JUMPI PUSH1 0x40 MLOAD PUSH32 0x8C379A000000000000000000000000000000000000000000000000000000000 DUP2 MSTORE PUSH1 0x4 ADD PUSH2 0xAFD SWAP1 PUSH2 0x2A79 JUMP JUMPDEST PUSH1 0x40 MLOAD DUP1 SWAP2 SUB SWAP1 REVERT JUMPDEST PUSH2 0xB11 PUSH1 0x6 SLOAD PUSH2 0x19F9 JUMP JUMPDEST PUSH2 0xB1C PUSH1 0x7 SLOAD PUSH2 0x19F9 JUMP JUMPDEST PUSH0 PUSH1 0x9 PUSH1 0x14 PUSH2 0x100 EXP DUP2 SLOAD DUP2 PUSH1 0xFF MUL NOT AND SWAP1 DUP4 ISZERO ISZERO MUL OR SWAP1 SSTORE POP PUSH1 0x9 PUSH0 SWAP1 SLOAD SWAP1 PUSH2 0x100 EXP SWAP1 DIV PUSH20 0xFFFFFFFFFFFFFFFFFFFFFFFFFFFFFFFFFFFFFFFF AND PUSH20 0xFFFFFFFFFFFFFFFFFFFFFFFFFFFFFFFFFFFFFFFF AND PUSH1 0x8 PUSH0 SWAP1 SLOAD SWAP1 PUSH2 0x100 EXP SWAP1 DIV PUSH20 0xFFFFFFFFFFFFFFFFFFFFFFFFFFFFFFFFFFFFFFFF AND PUSH20 0xFFFFFFFFFFFFFFFFFFFFFFFFFFFFFFFFFFFFFFFF AND PUSH32 0x6077EDEA937D666F6B546E152B1E3B4C1632F0B238E580D25B0C3A589487BFDA PUSH1 0x40 MLOAD PUSH1 0x40 MLOAD DUP1 SWAP2 SUB SWAP1 LOG3 POP POP JUMP JUMPDEST PUSH2 0xBE1 DUP5 DUP5 DUP5 PUSH2 0x531 JUMP JUMPDEST PUSH2 0xBED DUP5 DUP5 DUP5 DUP5 PUSH2 0x1A7B JUMP JUMPDEST POP POP POP POP JUMP JUMPDEST PUSH1 0x8 PUSH0 SWAP1 SLOAD SWAP1 PUSH2 0x100 EXP SWAP1 DIV PUSH20 0xFFFFFFFFFFFFFFFFFFFFFFFFFFFFFFFFFFFFFFFF AND PUSH20 0xFFFFFFFFFFFFFFFFFFFFFFFFFFFFFFFFFFFFFFFF AND CALLER PUSH20 0xFFFFFFFFFFFFFFFFFFFFFFFFFFFFFFFFFFFFFFFF AND EQ DUP1 PUSH2 0xC9A JUMPI POP PUSH1 0x9 PUSH0 SWAP1 SLOAD SWAP1 PUSH2 0x100 EXP SWAP1 DIV PUSH20 0xFFFFFFFFFFFFFFFFFFFFFFFFFFFFFFFFFFFFFFFF AND PUSH20 0xFFFFFFFFFFFFFFFFFFFFFFFFFFFFFFFFFFFFFFFF AND CALLER PUSH20 0xFFFFFFFFFFFFFFFFFFFFFFFFFFFFFFFFFFFFFFFF AND EQ JUMPDEST PUSH2 0xCD9 JUMPI PUSH1 0x40 MLOAD PUSH32 0x8C379A000000000000000000000000000000000000000000000000000000000 DUP2 MSTORE PUSH1 0x4 ADD PUSH2 0xCD0 SWAP1 PUSH2 0x28CF JUMP JUMPDEST PUSH1 0x40 MLOAD DUP1 SWAP2 SUB SWAP1 REVERT JUMPDEST PUSH0 JUMPDEST PUSH1 0x3 DUP2 PUSH1 0xFF AND LT ISZERO PUSH2 0xDA6 JUMPI DUP2 PUSH20 0xFFFFFFFFFFFFFFFFFFFFFFFFFFFFFFFFFFFFFFFF AND PUSH1 0xC DUP3 PUSH1 0xFF AND DUP2 SLOAD DUP2 LT PUSH2 0xD15 JUMPI PUSH2 0xD14 PUSH2 0x2A97 JUMP JUMPDEST JUMPDEST SWAP1 PUSH0 MSTORE PUSH1 0x20 PUSH0 KECCAK256 ADD PUSH0 SWAP1 SLOAD SWAP1 PUSH2 0x100 EXP SWAP1 DIV PUSH20 0xFFFFFFFFFFFFFFFFFFFFFFFFFFFFFFFFFFFFFFFF AND PUSH20 0xFFFFFFFFFFFFFFFFFFFFFFFFFFFFFFFFFFFFFFFF AND SUB PUSH2 0xD93 JUMPI PUSH1 0x40 MLOAD PUSH32 0x8C379A000000000000000000000000000000000000000000000000000000000 DUP2 MSTORE PUSH1 0x4 ADD PUSH2 0xD8A SWAP1 PUSH2 0x2B0E JUMP JUMPDEST PUSH1 0x40 MLOAD DUP1 SWAP2 SUB SWAP1 REVERT JUMPDEST DUP1 DUP1 PUSH2 0xD9E SWAP1 PUSH2 0x2B65 JUMP JUMPDEST SWAP2 POP POP PUSH2 0xCDB JUMP JUMPDEST POP PUSH1 0x8 PUSH0 SWAP1 SLOAD SWAP1 PUSH2 0x100 EXP SWAP1 DIV PUSH20 0xFFFFFFFFFFFFFFFFFFFFFFFFFFFFFFFFFFFFFFFF AND PUSH20 0xFFFFFFFFFFFFFFFFFFFFFFFFFFFFFFFFFFFFFFFF AND CALLER PUSH20 0xFFFFFFFFFFFFFFFFFFFFFFFFFFFFFFFFFFFFFFFF AND SUB PUSH2 0xE79 JUMPI PUSH1 0x1 PUSH1 0xD PUSH0 DUP4 PUSH20 0xFFFFFFFFFFFFFFFFFFFFFFFFFFFFFFFFFFFFFFFF AND PUSH20 0xFFFFFFFFFFFFFFFFFFFFFFFFFFFFFFFFFFFFFFFF AND DUP2 MSTORE PUSH1 0x20 ADD SWAP1 DUP2 MSTORE PUSH1 0x20 ADD PUSH0 KECCAK256 PUSH0 DUP2 SLOAD DUP2 LT PUSH2 0xE4C JUMPI PUSH2 0xE4B PUSH2 0x2A97 JUMP JUMPDEST JUMPDEST SWAP1 PUSH0 MSTORE PUSH1 0x20 PUSH0 KECCAK256 SWAP1 PUSH1 0x20 SWAP2 DUP3 DUP3 DIV ADD SWAP2 SWAP1 MOD PUSH2 0x100 EXP DUP2 SLOAD DUP2 PUSH1 0xFF MUL NOT AND SWAP1 DUP4 PUSH1 0xFF AND MUL OR SWAP1 SSTORE POP PUSH2 0xF49 JUMP JUMPDEST PUSH1 0x9 PUSH0 SWAP1 SLOAD SWAP1 PUSH2 0x100 EXP SWAP1 DIV PUSH20 0xFFFFFFFFFFFFFFFFFFFFFFFFFFFFFFFFFFFFFFFF AND PUSH20 0xFFFFFFFFFFFFFFFFFFFFFFFFFFFFFFFFFFFFFFFF AND CALLER PUSH20 0xFFFFFFFFFFFFFFFFFFFFFFFFFFFFFFFFFFFFFFFF AND SUB PUSH2 0xF48 JUMPI PUSH1 0x1 PUSH1 0xD PUSH0 DUP4 PUSH20 0xFFFFFFFFFFFFFFFFFFFFFFFFFFFFFFFFFFFFFFFF AND PUSH20 0xFFFFFFFFFFFFFFFFFFFFFFFFFFFFFFFFFFFFFFFF AND DUP2 MSTORE PUSH1 0x20 ADD SWAP1 DUP2 MSTORE PUSH1 0x20 ADD PUSH0 KECCAK256 PUSH1 0x1 DUP2 SLOAD DUP2 LT PUSH2 0xF1F JUMPI PUSH2 0xF1E PUSH2 0x2A97 JUMP JUMPDEST JUMPDEST SWAP1 PUSH0 MSTORE PUSH1 0x20 PUSH0 KECCAK256 SWAP1 PUSH1 0x20 SWAP2 DUP3 DUP3 DIV ADD SWAP2 SWAP1 MOD PUSH2 0x100 EXP DUP2 SLOAD DUP2 PUSH1 0xFF MUL NOT AND SWAP1 DUP4 PUSH1 0xFF AND MUL OR SWAP1 SSTORE POP JUMPDEST JUMPDEST PUSH1 0x2 PUSH1 0xD PUSH0 DUP4 PUSH20 0xFFFFFFFFFFFFFFFFFFFFFFFFFFFFFFFFFFFFFFFF AND PUSH20 0xFFFFFFFFFFFFFFFFFFFFFFFFFFFFFFFFFFFFFFFF AND DUP2 MSTORE PUSH1 0x20 ADD SWAP1 DUP2 MSTORE PUSH1 0x20 ADD PUSH0 KECCAK256 PUSH1 0x1 DUP2 SLOAD DUP2 LT PUSH2 0xF9B JUMPI PUSH2 0xF9A PUSH2 0x2A97 JUMP JUMPDEST JUMPDEST SWAP1 PUSH0 MSTORE PUSH1 0x20 PUSH0 KECCAK256 SWAP1 PUSH1 0x20 SWAP2 DUP3 DUP3 DIV ADD SWAP2 SWAP1 MOD SWAP1 SLOAD SWAP1 PUSH2 0x100 EXP SWAP1 DIV PUSH1 0xFF AND PUSH1 0xD PUSH0 DUP5 PUSH20 0xFFFFFFFFFFFFFFFFFFFFFFFFFFFFFFFFFFFFFFFF AND PUSH20 0xFFFFFFFFFFFFFFFFFFFFFFFFFFFFFFFFFFFFFFFF AND DUP2 MSTORE PUSH1 0x20 ADD SWAP1 DUP2 MSTORE PUSH1 0x20 ADD PUSH0 KECCAK256 PUSH0 DUP2 SLOAD DUP2 LT PUSH2 0x1008 JUMPI PUSH2 0x1007 PUSH2 0x2A97 JUMP JUMPDEST JUMPDEST SWAP1 PUSH0 MSTORE PUSH1 0x20 PUSH0 KECCAK256 SWAP1 PUSH1 0x20 SWAP2 DUP3 DUP3 DIV ADD SWAP2 SWAP1 MOD SWAP1 SLOAD SWAP1 PUSH2 0x100 EXP SWAP1 DIV PUSH1 0xFF AND PUSH2 0x1030 SWAP2 SWAP1 PUSH2 0x2B8D JUMP JUMPDEST PUSH1 0xFF AND SUB PUSH2 0x10BE JUMPI PUSH1 0x1 PUSH1 0xB PUSH0 DUP3 DUP3 SLOAD PUSH2 0x104A SWAP2 SWAP1 PUSH2 0x2BC1 JUMP JUMPDEST SWAP3 POP POP DUP2 SWAP1 SSTORE POP PUSH1 0xC DUP2 SWAP1 DUP1 PUSH1 0x1 DUP2 SLOAD ADD DUP1 DUP3 SSTORE DUP1 SWAP2 POP POP PUSH1 0x1 SWAP1 SUB SWAP1 PUSH0 MSTORE PUSH1 0x20 PUSH0 KECCAK256 ADD PUSH0 SWAP1 SWAP2 SWAP1 SWAP2 SWAP1 SWAP2 PUSH2 0x100 EXP DUP2 SLOAD DUP2 PUSH20 0xFFFFFFFFFFFFFFFFFFFFFFFFFFFFFFFFFFFFFFFF MUL NOT AND SWAP1 DUP4 PUSH20 0xFFFFFFFFFFFFFFFFFFFFFFFFFFFFFFFFFFFFFFFF AND MUL OR SWAP1 SSTORE POP PUSH2 0x10BD DUP2 PUSH1 0xB SLOAD PUSH2 0x1501 JUMP JUMPDEST JUMPDEST POP JUMP JUMPDEST PUSH1 0x60 PUSH2 0x10CC DUP3 PUSH2 0x121E JUMP JUMPDEST POP PUSH0 PUSH2 0x10D6 PUSH2 0x1C2D JUMP JUMPDEST SWAP1 POP PUSH0 DUP2 MLOAD GT PUSH2 0x10F4 JUMPI PUSH1 0x40 MLOAD DUP1 PUSH1 0x20 ADD PUSH1 0x40 MSTORE DUP1 PUSH0 DUP2 MSTORE POP PUSH2 0x111F JUMP JUMPDEST DUP1 PUSH2 0x10FE DUP5 PUSH2 0x1C43 JUMP JUMPDEST PUSH1 0x40 MLOAD PUSH1 0x20 ADD PUSH2 0x110F SWAP3 SWAP2 SWAP1 PUSH2 0x2C2E JUMP JUMPDEST PUSH1 0x40 MLOAD PUSH1 0x20 DUP2 DUP4 SUB SUB DUP2 MSTORE SWAP1 PUSH1 0x40 MSTORE JUMPDEST SWAP2 POP POP SWAP2 SWAP1 POP JUMP JUMPDEST PUSH0 PUSH1 0x5 PUSH0 DUP5 PUSH20 0xFFFFFFFFFFFFFFFFFFFFFFFFFFFFFFFFFFFFFFFF AND PUSH20 0xFFFFFFFFFFFFFFFFFFFFFFFFFFFFFFFFFFFFFFFF AND DUP2 MSTORE PUSH1 0x20 ADD SWAP1 DUP2 MSTORE PUSH1 0x20 ADD PUSH0 KECCAK256 PUSH0 DUP4 PUSH20 0xFFFFFFFFFFFFFFFFFFFFFFFFFFFFFFFFFFFFFFFF AND PUSH20 0xFFFFFFFFFFFFFFFFFFFFFFFFFFFFFFFFFFFFFFFF AND DUP2 MSTORE PUSH1 0x20 ADD SWAP1 DUP2 MSTORE PUSH1 0x20 ADD PUSH0 KECCAK256 PUSH0 SWAP1 SLOAD SWAP1 PUSH2 0x100 EXP SWAP1 DIV PUSH1 0xFF AND SWAP1 POP SWAP3 SWAP2 POP POP JUMP JUMPDEST PUSH0 PUSH32 0x1FFC9A700000000000000000000000000000000000000000000000000000000 PUSH28 0xFFFFFFFFFFFFFFFFFFFFFFFFFFFFFFFFFFFFFFFFFFFFFFFFFFFFFFFF NOT AND DUP3 PUSH28 0xFFFFFFFFFFFFFFFFFFFFFFFFFFFFFFFFFFFFFFFFFFFFFFFFFFFFFFFF NOT AND EQ SWAP1 POP SWAP2 SWAP1 POP JUMP JUMPDEST PUSH0 DUP1 PUSH2 0x1229 DUP4 PUSH2 0x1D0D JUMP JUMPDEST SWAP1 POP PUSH0 PUSH20 0xFFFFFFFFFFFFFFFFFFFFFFFFFFFFFFFFFFFFFFFF AND DUP2 PUSH20 0xFFFFFFFFFFFFFFFFFFFFFFFFFFFFFFFFFFFFFFFF AND SUB PUSH2 0x129B JUMPI DUP3 PUSH1 0x40 MLOAD PUSH32 0x7E27328900000000000000000000000000000000000000000000000000000000 DUP2 MSTORE PUSH1 0x4 ADD PUSH2 0x1292 SWAP2 SWAP1 PUSH2 0x2524 JUMP JUMPDEST PUSH1 0x40 MLOAD DUP1 SWAP2 SUB SWAP1 REVERT JUMPDEST DUP1 SWAP2 POP POP SWAP2 SWAP1 POP JUMP JUMPDEST PUSH0 PUSH1 0x4 PUSH0 DUP4 DUP2 MSTORE PUSH1 0x20 ADD SWAP1 DUP2 MSTORE PUSH1 0x20 ADD PUSH0 KECCAK256 PUSH0 SWAP1 SLOAD SWAP1 PUSH2 0x100 EXP SWAP1 DIV PUSH20 0xFFFFFFFFFFFFFFFFFFFFFFFFFFFFFFFFFFFFFFFF AND SWAP1 POP SWAP2 SWAP1 POP JUMP JUMPDEST PUSH0 CALLER SWAP1 POP SWAP1 JUMP JUMPDEST PUSH2 0x12F1 DUP4 DUP4 DUP4 PUSH1 0x1 PUSH2 0x1D46 JUMP JUMPDEST POP POP POP JUMP JUMPDEST PUSH0 DUP1 PUSH2 0x1301 DUP5 PUSH2 0x1D0D JUMP JUMPDEST SWAP1 POP PUSH0 PUSH20 0xFFFFFFFFFFFFFFFFFFFFFFFFFFFFFFFFFFFFFFFF AND DUP4 PUSH20 0xFFFFFFFFFFFFFFFFFFFFFFFFFFFFFFFFFFFFFFFF AND EQ PUSH2 0x1342 JUMPI PUSH2 0x1341 DUP2 DUP5 DUP7 PUSH2 0x1F05 JUMP JUMPDEST JUMPDEST PUSH0 PUSH20 0xFFFFFFFFFFFFFFFFFFFFFFFFFFFFFFFFFFFFFFFF AND DUP2 PUSH20 0xFFFFFFFFFFFFFFFFFFFFFFFFFFFFFFFFFFFFFFFF AND EQ PUSH2 0x13CD JUMPI PUSH2 0x1381 PUSH0 DUP6 PUSH0 DUP1 PUSH2 0x1D46 JUMP JUMPDEST PUSH1 0x1 PUSH1 0x3 PUSH0 DUP4 PUSH20 0xFFFFFFFFFFFFFFFFFFFFFFFFFFFFFFFFFFFFFFFF AND PUSH20 0xFFFFFFFFFFFFFFFFFFFFFFFFFFFFFFFFFFFFFFFF AND DUP2 MSTORE PUSH1 0x20 ADD SWAP1 DUP2 MSTORE PUSH1 0x20 ADD PUSH0 KECCAK256 PUSH0 DUP3 DUP3 SLOAD SUB SWAP3 POP POP DUP2 SWAP1 SSTORE POP JUMPDEST PUSH0 PUSH20 0xFFFFFFFFFFFFFFFFFFFFFFFFFFFFFFFFFFFFFFFF AND DUP6 PUSH20 0xFFFFFFFFFFFFFFFFFFFFFFFFFFFFFFFFFFFFFFFF AND EQ PUSH2 0x144C JUMPI PUSH1 0x1 PUSH1 0x3 PUSH0 DUP8 PUSH20 0xFFFFFFFFFFFFFFFFFFFFFFFFFFFFFFFFFFFFFFFF AND PUSH20 0xFFFFFFFFFFFFFFFFFFFFFFFFFFFFFFFFFFFFFFFF AND DUP2 MSTORE PUSH1 0x20 ADD SWAP1 DUP2 MSTORE PUSH1 0x20 ADD PUSH0 KECCAK256 PUSH0 DUP3 DUP3 SLOAD ADD SWAP3 POP POP DUP2 SWAP1 SSTORE POP JUMPDEST DUP5 PUSH1 0x2 PUSH0 DUP7 DUP2 MSTORE PUSH1 0x20 ADD SWAP1 DUP2 MSTORE PUSH1 0x20 ADD PUSH0 KECCAK256 PUSH0 PUSH2 0x100 EXP DUP2 SLOAD DUP2 PUSH20 0xFFFFFFFFFFFFFFFFFFFFFFFFFFFFFFFFFFFFFFFF MUL NOT AND SWAP1 DUP4 PUSH20 0xFFFFFFFFFFFFFFFFFFFFFFFFFFFFFFFFFFFFFFFF AND MUL OR SWAP1 SSTORE POP DUP4 DUP6 PUSH20 0xFFFFFFFFFFFFFFFFFFFFFFFFFFFFFFFFFFFFFFFF AND DUP3 PUSH20 0xFFFFFFFFFFFFFFFFFFFFFFFFFFFFFFFFFFFFFFFF AND PUSH32 0xDDF252AD1BE2C89B69C2B068FC378DAA952BA7F163C4A11628F55A4DF523B3EF PUSH1 0x40 MLOAD PUSH1 0x40 MLOAD DUP1 SWAP2 SUB SWAP1 LOG4 DUP1 SWAP2 POP POP SWAP4 SWAP3 POP POP POP JUMP JUMPDEST PUSH0 PUSH20 0xFFFFFFFFFFFFFFFFFFFFFFFFFFFFFFFFFFFFFFFF AND DUP3 PUSH20 0xFFFFFFFFFFFFFFFFFFFFFFFFFFFFFFFFFFFFFFFF AND SUB PUSH2 0x1571 JUMPI PUSH0 PUSH1 0x40 MLOAD PUSH32 0x64A0AE9200000000000000000000000000000000000000000000000000000000 DUP2 MSTORE PUSH1 0x4 ADD PUSH2 0x1568 SWAP2 SWAP1 PUSH2 0x23E4 JUMP JUMPDEST PUSH1 0x40 MLOAD DUP1 SWAP2 SUB SWAP1 REVERT JUMPDEST PUSH0 PUSH2 0x157D DUP4 DUP4 PUSH0 PUSH2 0x12F6 JUMP JUMPDEST SWAP1 POP PUSH0 PUSH20 0xFFFFFFFFFFFFFFFFFFFFFFFFFFFFFFFFFFFFFFFF AND DUP2 PUSH20 0xFFFFFFFFFFFFFFFFFFFFFFFFFFFFFFFFFFFFFFFF AND EQ PUSH2 0x15EF JUMPI PUSH0 PUSH1 0x40 MLOAD PUSH32 0x73C6AC6E00000000000000000000000000000000000000000000000000000000 DUP2 MSTORE PUSH1 0x4 ADD PUSH2 0x15E6 SWAP2 SWAP1 PUSH2 0x23E4 JUMP JUMPDEST PUSH1 0x40 MLOAD DUP1 SWAP2 SUB SWAP1 REVERT JUMPDEST POP POP POP JUMP JUMPDEST PUSH0 PUSH20 0xFFFFFFFFFFFFFFFFFFFFFFFFFFFFFFFFFFFFFFFF AND DUP3 PUSH20 0xFFFFFFFFFFFFFFFFFFFFFFFFFFFFFFFFFFFFFFFF AND SUB PUSH2 0x1664 JUMPI DUP2 PUSH1 0x40 MLOAD PUSH32 0x5B08BA1800000000000000000000000000000000000000000000000000000000 DUP2 MSTORE PUSH1 0x4 ADD PUSH2 0x165B SWAP2 SWAP1 PUSH2 0x23E4 JUMP JUMPDEST PUSH1 0x40 MLOAD DUP1 SWAP2 SUB SWAP1 REVERT JUMPDEST DUP1 PUSH1 0x5 PUSH0 DUP6 PUSH20 0xFFFFFFFFFFFFFFFFFFFFFFFFFFFFFFFFFFFFFFFF AND PUSH20 0xFFFFFFFFFFFFFFFFFFFFFFFFFFFFFFFFFFFFFFFF AND DUP2 MSTORE PUSH1 0x20 ADD SWAP1 DUP2 MSTORE PUSH1 0x20 ADD PUSH0 KECCAK256 PUSH0 DUP5 PUSH20 0xFFFFFFFFFFFFFFFFFFFFFFFFFFFFFFFFFFFFFFFF AND PUSH20 0xFFFFFFFFFFFFFFFFFFFFFFFFFFFFFFFFFFFFFFFF AND DUP2 MSTORE PUSH1 0x20 ADD SWAP1 DUP2 MSTORE PUSH1 0x20 ADD PUSH0 KECCAK256 PUSH0 PUSH2 0x100 EXP DUP2 SLOAD DUP2 PUSH1 0xFF MUL NOT AND SWAP1 DUP4 ISZERO ISZERO MUL OR SWAP1 SSTORE POP DUP2 PUSH20 0xFFFFFFFFFFFFFFFFFFFFFFFFFFFFFFFFFFFFFFFF AND DUP4 PUSH20 0xFFFFFFFFFFFFFFFFFFFFFFFFFFFFFFFFFFFFFFFF AND PUSH32 0x17307EAB39AB6107E8899845AD3D59BD9653F200F220920489CA2B5937696C31 DUP4 PUSH1 0x40 MLOAD PUSH2 0x1750 SWAP2 SWAP1 PUSH2 0x2284 JUMP JUMPDEST PUSH1 0x40 MLOAD DUP1 SWAP2 SUB SWAP1 LOG3 POP POP POP JUMP JUMPDEST PUSH0 DUP1 PUSH0 SWAP1 POP PUSH0 JUMPDEST PUSH1 0x3 DUP2 PUSH1 0xFF AND LT ISZERO PUSH2 0x17AE JUMPI PUSH1 0xA DUP2 PUSH1 0xFF AND DUP2 SLOAD DUP2 LT PUSH2 0x1787 JUMPI PUSH2 0x1786 PUSH2 0x2A97 JUMP JUMPDEST JUMPDEST SWAP1 PUSH0 MSTORE PUSH1 0x20 PUSH0 KECCAK256 ADD SLOAD DUP6 SUB PUSH2 0x179B JUMPI PUSH1 0x1 SWAP2 POP JUMPDEST DUP1 DUP1 PUSH2 0x17A6 SWAP1 PUSH2 0x2B65 JUMP JUMPDEST SWAP2 POP POP PUSH2 0x1764 JUMP JUMPDEST POP DUP1 PUSH2 0x198F JUMPI PUSH1 0xA DUP5 SWAP1 DUP1 PUSH1 0x1 DUP2 SLOAD ADD DUP1 DUP3 SSTORE DUP1 SWAP2 POP POP PUSH1 0x1 SWAP1 SUB SWAP1 PUSH0 MSTORE PUSH1 0x20 PUSH0 KECCAK256 ADD PUSH0 SWAP1 SWAP2 SWAP1 SWAP2 SWAP1 SWAP2 POP SSTORE PUSH1 0x8 PUSH0 SWAP1 SLOAD SWAP1 PUSH2 0x100 EXP SWAP1 DIV PUSH20 0xFFFFFFFFFFFFFFFFFFFFFFFFFFFFFFFFFFFFFFFF AND PUSH20 0xFFFFFFFFFFFFFFFFFFFFFFFFFFFFFFFFFFFFFFFF AND DUP4 PUSH20 0xFFFFFFFFFFFFFFFFFFFFFFFFFFFFFFFFFFFFFFFF AND EQ DUP1 PUSH2 0x1881 JUMPI POP PUSH1 0x9 PUSH0 SWAP1 SLOAD SWAP1 PUSH2 0x100 EXP SWAP1 DIV PUSH20 0xFFFFFFFFFFFFFFFFFFFFFFFFFFFFFFFFFFFFFFFF AND PUSH20 0xFFFFFFFFFFFFFFFFFFFFFFFFFFFFFFFFFFFFFFFF AND DUP4 PUSH20 0xFFFFFFFFFFFFFFFFFFFFFFFFFFFFFFFFFFFFFFFF AND EQ JUMPDEST ISZERO PUSH2 0x18C2 JUMPI PUSH1 0x1 PUSH1 0x9 PUSH1 0x17 DUP3 DUP3 DUP3 SWAP1 SLOAD SWAP1 PUSH2 0x100 EXP SWAP1 DIV PUSH1 0xFF AND PUSH2 0x18A5 SWAP2 SWAP1 PUSH2 0x2B8D JUMP JUMPDEST SWAP3 POP PUSH2 0x100 EXP DUP2 SLOAD DUP2 PUSH1 0xFF MUL NOT AND SWAP1 DUP4 PUSH1 0xFF AND MUL OR SWAP1 SSTORE POP PUSH2 0x198E JUMP JUMPDEST PUSH0 JUMPDEST PUSH1 0x3 DUP2 PUSH1 0xFF AND LT ISZERO PUSH2 0x198C JUMPI PUSH1 0xC DUP2 PUSH1 0xFF AND DUP2 SLOAD DUP2 LT PUSH2 0x18E7 JUMPI PUSH2 0x18E6 PUSH2 0x2A97 JUMP JUMPDEST JUMPDEST SWAP1 PUSH0 MSTORE PUSH1 0x20 PUSH0 KECCAK256 ADD PUSH0 SWAP1 SLOAD SWAP1 PUSH2 0x100 EXP SWAP1 DIV PUSH20 0xFFFFFFFFFFFFFFFFFFFFFFFFFFFFFFFFFFFFFFFF AND PUSH20 0xFFFFFFFFFFFFFFFFFFFFFFFFFFFFFFFFFFFFFFFF AND DUP5 PUSH20 0xFFFFFFFFFFFFFFFFFFFFFFFFFFFFFFFFFFFFFFFF AND SUB PUSH2 0x1979 JUMPI PUSH1 0x1 PUSH1 0x9 PUSH1 0x18 DUP3 DUP3 DUP3 SWAP1 SLOAD SWAP1 PUSH2 0x100 EXP SWAP1 DIV PUSH1 0xFF AND PUSH2 0x1960 SWAP2 SWAP1 PUSH2 0x2B8D JUMP JUMPDEST SWAP3 POP PUSH2 0x100 EXP DUP2 SLOAD DUP2 PUSH1 0xFF MUL NOT AND SWAP1 DUP4 PUSH1 0xFF AND MUL OR SWAP1 SSTORE POP JUMPDEST DUP1 DUP1 PUSH2 0x1984 SWAP1 PUSH2 0x2B65 JUMP JUMPDEST SWAP2 POP POP PUSH2 0x18C4 JUMP JUMPDEST POP JUMPDEST JUMPDEST PUSH1 0x2 PUSH1 0x9 PUSH1 0x17 SWAP1 SLOAD SWAP1 PUSH2 0x100 EXP SWAP1 DIV PUSH1 0xFF AND PUSH1 0xFF AND EQ DUP1 PUSH2 0x19DF JUMPI POP PUSH1 0x1 PUSH1 0x9 PUSH1 0x17 SWAP1 SLOAD SWAP1 PUSH2 0x100 EXP SWAP1 DIV PUSH1 0xFF AND PUSH1 0xFF AND EQ DUP1 ISZERO PUSH2 0x19DE JUMPI POP PUSH0 PUSH1 0x9 PUSH1 0x18 SWAP1 SLOAD SWAP1 PUSH2 0x100 EXP SWAP1 DIV PUSH1 0xFF AND PUSH1 0xFF AND GT JUMPDEST JUMPDEST ISZERO PUSH2 0x19EE JUMPI PUSH1 0x1 SWAP2 POP POP PUSH2 0x19F3 JUMP JUMPDEST PUSH0 SWAP2 POP POP JUMPDEST SWAP3 SWAP2 POP POP JUMP JUMPDEST PUSH0 PUSH2 0x1A05 PUSH0 DUP4 PUSH0 PUSH2 0x12F6 JUMP JUMPDEST SWAP1 POP PUSH0 PUSH20 0xFFFFFFFFFFFFFFFFFFFFFFFFFFFFFFFFFFFFFFFF AND DUP2 PUSH20 0xFFFFFFFFFFFFFFFFFFFFFFFFFFFFFFFFFFFFFFFF AND SUB PUSH2 0x1A77 JUMPI DUP2 PUSH1 0x40 MLOAD PUSH32 0x7E27328900000000000000000000000000000000000000000000000000000000 DUP2 MSTORE PUSH1 0x4 ADD PUSH2 0x1A6E SWAP2 SWAP1 PUSH2 0x2524 JUMP JUMPDEST PUSH1 0x40 MLOAD DUP1 SWAP2 SUB SWAP1 REVERT JUMPDEST POP POP JUMP JUMPDEST PUSH0 DUP4 PUSH20 0xFFFFFFFFFFFFFFFFFFFFFFFFFFFFFFFFFFFFFFFF AND EXTCODESIZE GT ISZERO PUSH2 0x1C27 JUMPI DUP3 PUSH20 0xFFFFFFFFFFFFFFFFFFFFFFFFFFFFFFFFFFFFFFFF AND PUSH4 0x150B7A02 PUSH2 0x1ABE PUSH2 0x12DD JUMP JUMPDEST DUP7 DUP6 DUP6 PUSH1 0x40 MLOAD DUP6 PUSH4 0xFFFFFFFF AND PUSH1 0xE0 SHL DUP2 MSTORE PUSH1 0x4 ADD PUSH2 0x1AE0 SWAP5 SWAP4 SWAP3 SWAP2 SWAP1 PUSH2 0x2CA3 JUMP JUMPDEST PUSH1 0x20 PUSH1 0x40 MLOAD DUP1 DUP4 SUB DUP2 PUSH0 DUP8 GAS CALL SWAP3 POP POP POP DUP1 ISZERO PUSH2 0x1B1B JUMPI POP PUSH1 0x40 MLOAD RETURNDATASIZE PUSH1 0x1F NOT PUSH1 0x1F DUP3 ADD AND DUP3 ADD DUP1 PUSH1 0x40 MSTORE POP DUP2 ADD SWAP1 PUSH2 0x1B18 SWAP2 SWAP1 PUSH2 0x2D01 JUMP JUMPDEST PUSH1 0x1 JUMPDEST PUSH2 0x1B9C JUMPI RETURNDATASIZE DUP1 PUSH0 DUP2 EQ PUSH2 0x1B49 JUMPI PUSH1 0x40 MLOAD SWAP2 POP PUSH1 0x1F NOT PUSH1 0x3F RETURNDATASIZE ADD AND DUP3 ADD PUSH1 0x40 MSTORE RETURNDATASIZE DUP3 MSTORE RETURNDATASIZE PUSH0 PUSH1 0x20 DUP5 ADD RETURNDATACOPY PUSH2 0x1B4E JUMP JUMPDEST PUSH1 0x60 SWAP2 POP JUMPDEST POP PUSH0 DUP2 MLOAD SUB PUSH2 0x1B94 JUMPI DUP4 PUSH1 0x40 MLOAD PUSH32 0x64A0AE9200000000000000000000000000000000000000000000000000000000 DUP2 MSTORE PUSH1 0x4 ADD PUSH2 0x1B8B SWAP2 SWAP1 PUSH2 0x23E4 JUMP JUMPDEST PUSH1 0x40 MLOAD DUP1 SWAP2 SUB SWAP1 REVERT JUMPDEST DUP1 MLOAD DUP2 PUSH1 0x20 ADD REVERT JUMPDEST PUSH4 0x150B7A02 PUSH1 0xE0 SHL PUSH28 0xFFFFFFFFFFFFFFFFFFFFFFFFFFFFFFFFFFFFFFFFFFFFFFFFFFFFFFFF NOT AND DUP2 PUSH28 0xFFFFFFFFFFFFFFFFFFFFFFFFFFFFFFFFFFFFFFFFFFFFFFFFFFFFFFFF NOT AND EQ PUSH2 0x1C25 JUMPI DUP4 PUSH1 0x40 MLOAD PUSH32 0x64A0AE9200000000000000000000000000000000000000000000000000000000 DUP2 MSTORE PUSH1 0x4 ADD PUSH2 0x1C1C SWAP2 SWAP1 PUSH2 0x23E4 JUMP JUMPDEST PUSH1 0x40 MLOAD DUP1 SWAP2 SUB SWAP1 REVERT JUMPDEST POP JUMPDEST POP POP POP POP JUMP JUMPDEST PUSH1 0x60 PUSH1 0x40 MLOAD DUP1 PUSH1 0x20 ADD PUSH1 0x40 MSTORE DUP1 PUSH0 DUP2 MSTORE POP SWAP1 POP SWAP1 JUMP JUMPDEST PUSH1 0x60 PUSH0 PUSH1 0x1 PUSH2 0x1C51 DUP5 PUSH2 0x1FC8 JUMP JUMPDEST ADD SWAP1 POP PUSH0 DUP2 PUSH8 0xFFFFFFFFFFFFFFFF DUP2 GT ISZERO PUSH2 0x1C6F JUMPI PUSH2 0x1C6E PUSH2 0x25EB JUMP JUMPDEST JUMPDEST PUSH1 0x40 MLOAD SWAP1 DUP1 DUP3 MSTORE DUP1 PUSH1 0x1F ADD PUSH1 0x1F NOT AND PUSH1 0x20 ADD DUP3 ADD PUSH1 0x40 MSTORE DUP1 ISZERO PUSH2 0x1CA1 JUMPI DUP2 PUSH1 0x20 ADD PUSH1 0x1 DUP3 MUL DUP1 CALLDATASIZE DUP4 CALLDATACOPY DUP1 DUP3 ADD SWAP2 POP POP SWAP1 POP JUMPDEST POP SWAP1 POP PUSH0 DUP3 PUSH1 0x20 ADD DUP3 ADD SWAP1 POP JUMPDEST PUSH1 0x1 ISZERO PUSH2 0x1D02 JUMPI DUP1 DUP1 PUSH1 0x1 SWAP1 SUB SWAP2 POP POP PUSH32 0x3031323334353637383961626364656600000000000000000000000000000000 PUSH1 0xA DUP7 MOD BYTE DUP2 MSTORE8 PUSH1 0xA DUP6 DUP2 PUSH2 0x1CF7 JUMPI PUSH2 0x1CF6 PUSH2 0x2D2C JUMP JUMPDEST JUMPDEST DIV SWAP5 POP PUSH0 DUP6 SUB PUSH2 0x1CAE JUMPI JUMPDEST DUP2 SWAP4 POP POP POP POP SWAP2 SWAP1 POP JUMP JUMPDEST PUSH0 PUSH1 0x2 PUSH0 DUP4 DUP2 MSTORE PUSH1 0x20 ADD SWAP1 DUP2 MSTORE PUSH1 0x20 ADD PUSH0 KECCAK256 PUSH0 SWAP1 SLOAD SWAP1 PUSH2 0x100 EXP SWAP1 DIV PUSH20 0xFFFFFFFFFFFFFFFFFFFFFFFFFFFFFFFFFFFFFFFF AND SWAP1 POP SWAP2 SWAP1 POP JUMP JUMPDEST DUP1 DUP1 PUSH2 0x1D7E JUMPI POP PUSH0 PUSH20 0xFFFFFFFFFFFFFFFFFFFFFFFFFFFFFFFFFFFFFFFF AND DUP3 PUSH20 0xFFFFFFFFFFFFFFFFFFFFFFFFFFFFFFFFFFFFFFFF AND EQ ISZERO JUMPDEST ISZERO PUSH2 0x1EB0 JUMPI PUSH0 PUSH2 0x1D8D DUP5 PUSH2 0x121E JUMP JUMPDEST SWAP1 POP PUSH0 PUSH20 0xFFFFFFFFFFFFFFFFFFFFFFFFFFFFFFFFFFFFFFFF AND DUP4 PUSH20 0xFFFFFFFFFFFFFFFFFFFFFFFFFFFFFFFFFFFFFFFF AND EQ ISZERO DUP1 ISZERO PUSH2 0x1DF7 JUMPI POP DUP3 PUSH20 0xFFFFFFFFFFFFFFFFFFFFFFFFFFFFFFFFFFFFFFFF AND DUP2 PUSH20 0xFFFFFFFFFFFFFFFFFFFFFFFFFFFFFFFFFFFFFFFF AND EQ ISZERO JUMPDEST DUP1 ISZERO PUSH2 0x1E0A JUMPI POP PUSH2 0x1E08 DUP2 DUP5 PUSH2 0x1127 JUMP JUMPDEST ISZERO JUMPDEST ISZERO PUSH2 0x1E4C JUMPI DUP3 PUSH1 0x40 MLOAD PUSH32 0xA9FBF51F00000000000000000000000000000000000000000000000000000000 DUP2 MSTORE PUSH1 0x4 ADD PUSH2 0x1E43 SWAP2 SWAP1 PUSH2 0x23E4 JUMP JUMPDEST PUSH1 0x40 MLOAD DUP1 SWAP2 SUB SWAP1 REVERT JUMPDEST DUP2 ISZERO PUSH2 0x1EAE JUMPI DUP4 DUP6 PUSH20 0xFFFFFFFFFFFFFFFFFFFFFFFFFFFFFFFFFFFFFFFF AND DUP3 PUSH20 0xFFFFFFFFFFFFFFFFFFFFFFFFFFFFFFFFFFFFFFFF AND PUSH32 0x8C5BE1E5EBEC7D5BD14F71427D1E84F3DD0314C0F7B2291E5B200AC8C7C3B925 PUSH1 0x40 MLOAD PUSH1 0x40 MLOAD DUP1 SWAP2 SUB SWAP1 LOG4 JUMPDEST POP JUMPDEST DUP4 PUSH1 0x4 PUSH0 DUP6 DUP2 MSTORE PUSH1 0x20 ADD SWAP1 DUP2 MSTORE PUSH1 0x20 ADD PUSH0 KECCAK256 PUSH0 PUSH2 0x100 EXP DUP2 SLOAD DUP2 PUSH20 0xFFFFFFFFFFFFFFFFFFFFFFFFFFFFFFFFFFFFFFFF MUL NOT AND SWAP1 DUP4 PUSH20 0xFFFFFFFFFFFFFFFFFFFFFFFFFFFFFFFFFFFFFFFF AND MUL OR SWAP1 SSTORE POP POP POP POP POP JUMP JUMPDEST PUSH2 0x1F10 DUP4 DUP4 DUP4 PUSH2 0x2119 JUMP JUMPDEST PUSH2 0x1FC3 JUMPI PUSH0 PUSH20 0xFFFFFFFFFFFFFFFFFFFFFFFFFFFFFFFFFFFFFFFF AND DUP4 PUSH20 0xFFFFFFFFFFFFFFFFFFFFFFFFFFFFFFFFFFFFFFFF AND SUB PUSH2 0x1F84 JUMPI DUP1 PUSH1 0x40 MLOAD PUSH32 0x7E27328900000000000000000000000000000000000000000000000000000000 DUP2 MSTORE PUSH1 0x4 ADD PUSH2 0x1F7B SWAP2 SWAP1 PUSH2 0x2524 JUMP JUMPDEST PUSH1 0x40 MLOAD DUP1 SWAP2 SUB SWAP1 REVERT JUMPDEST DUP2 DUP2 PUSH1 0x40 MLOAD PUSH32 0x177E802F00000000000000000000000000000000000000000000000000000000 DUP2 MSTORE PUSH1 0x4 ADD PUSH2 0x1FBA SWAP3 SWAP2 SWAP1 PUSH2 0x2D59 JUMP JUMPDEST PUSH1 0x40 MLOAD DUP1 SWAP2 SUB SWAP1 REVERT JUMPDEST POP POP POP JUMP JUMPDEST PUSH0 DUP1 PUSH0 SWAP1 POP PUSH27 0x184F03E93FF9F4DAA797ED6E38ED64BF6A1F010000000000000000 DUP4 LT PUSH2 0x2024 JUMPI PUSH27 0x184F03E93FF9F4DAA797ED6E38ED64BF6A1F010000000000000000 DUP4 DUP2 PUSH2 0x201A JUMPI PUSH2 0x2019 PUSH2 0x2D2C JUMP JUMPDEST JUMPDEST DIV SWAP3 POP PUSH1 0x40 DUP2 ADD SWAP1 POP JUMPDEST PUSH14 0x4EE2D6D415B85ACEF8100000000 DUP4 LT PUSH2 0x2061 JUMPI PUSH14 0x4EE2D6D415B85ACEF8100000000 DUP4 DUP2 PUSH2 0x2057 JUMPI PUSH2 0x2056 PUSH2 0x2D2C JUMP JUMPDEST JUMPDEST DIV SWAP3 POP PUSH1 0x20 DUP2 ADD SWAP1 POP JUMPDEST PUSH7 0x2386F26FC10000 DUP4 LT PUSH2 0x2090 JUMPI PUSH7 0x2386F26FC10000 DUP4 DUP2 PUSH2 0x2086 JUMPI PUSH2 0x2085 PUSH2 0x2D2C JUMP JUMPDEST JUMPDEST DIV SWAP3 POP PUSH1 0x10 DUP2 ADD SWAP1 POP JUMPDEST PUSH4 0x5F5E100 DUP4 LT PUSH2 0x20B9 JUMPI PUSH4 0x5F5E100 DUP4 DUP2 PUSH2 0x20AF JUMPI PUSH2 0x20AE PUSH2 0x2D2C JUMP JUMPDEST JUMPDEST DIV SWAP3 POP PUSH1 0x8 DUP2 ADD SWAP1 POP JUMPDEST PUSH2 0x2710 DUP4 LT PUSH2 0x20DE JUMPI PUSH2 0x2710 DUP4 DUP2 PUSH2 0x20D4 JUMPI PUSH2 0x20D3 PUSH2 0x2D2C JUMP JUMPDEST JUMPDEST DIV SWAP3 POP PUSH1 0x4 DUP2 ADD SWAP1 POP JUMPDEST PUSH1 0x64 DUP4 LT PUSH2 0x2101 JUMPI PUSH1 0x64 DUP4 DUP2 PUSH2 0x20F7 JUMPI PUSH2 0x20F6 PUSH2 0x2D2C JUMP JUMPDEST JUMPDEST DIV SWAP3 POP PUSH1 0x2 DUP2 ADD SWAP1 POP JUMPDEST PUSH1 0xA DUP4 LT PUSH2 0x2110 JUMPI PUSH1 0x1 DUP2 ADD SWAP1 POP JUMPDEST DUP1 SWAP2 POP POP SWAP2 SWAP1 POP JUMP JUMPDEST PUSH0 DUP1 PUSH20 0xFFFFFFFFFFFFFFFFFFFFFFFFFFFFFFFFFFFFFFFF AND DUP4 PUSH20 0xFFFFFFFFFFFFFFFFFFFFFFFFFFFFFFFFFFFFFFFF AND EQ ISZERO DUP1 ISZERO PUSH2 0x21D0 JUMPI POP DUP3 PUSH20 0xFFFFFFFFFFFFFFFFFFFFFFFFFFFFFFFFFFFFFFFF AND DUP5 PUSH20 0xFFFFFFFFFFFFFFFFFFFFFFFFFFFFFFFFFFFFFFFF AND EQ DUP1 PUSH2 0x2191 JUMPI POP PUSH2 0x2190 DUP5 DUP5 PUSH2 0x1127 JUMP JUMPDEST JUMPDEST DUP1 PUSH2 0x21CF JUMPI POP DUP3 PUSH20 0xFFFFFFFFFFFFFFFFFFFFFFFFFFFFFFFFFFFFFFFF AND PUSH2 0x21B7 DUP4 PUSH2 0x12A4 JUMP JUMPDEST PUSH20 0xFFFFFFFFFFFFFFFFFFFFFFFFFFFFFFFFFFFFFFFF AND EQ JUMPDEST JUMPDEST SWAP1 POP SWAP4 SWAP3 POP POP POP JUMP JUMPDEST PUSH0 PUSH1 0x40 MLOAD SWAP1 POP SWAP1 JUMP JUMPDEST PUSH0 DUP1 REVERT JUMPDEST PUSH0 DUP1 REVERT JUMPDEST PUSH0 PUSH32 0xFFFFFFFF00000000000000000000000000000000000000000000000000000000 DUP3 AND SWAP1 POP SWAP2 SWAP1 POP JUMP JUMPDEST PUSH2 0x221E DUP2 PUSH2 0x21EA JUMP JUMPDEST DUP2 EQ PUSH2 0x2228 JUMPI PUSH0 DUP1 REVERT JUMPDEST POP JUMP JUMPDEST PUSH0 DUP2 CALLDATALOAD SWAP1 POP PUSH2 0x2239 DUP2 PUSH2 0x2215 JUMP JUMPDEST SWAP3 SWAP2 POP POP JUMP JUMPDEST PUSH0 PUSH1 0x20 DUP3 DUP5 SUB SLT ISZERO PUSH2 0x2254 JUMPI PUSH2 0x2253 PUSH2 0x21E2 JUMP JUMPDEST JUMPDEST PUSH0 PUSH2 0x2261 DUP5 DUP3 DUP6 ADD PUSH2 0x222B JUMP JUMPDEST SWAP2 POP POP SWAP3 SWAP2 POP POP JUMP JUMPDEST PUSH0 DUP2 ISZERO ISZERO SWAP1 POP SWAP2 SWAP1 POP JUMP JUMPDEST PUSH2 0x227E DUP2 PUSH2 0x226A JUMP JUMPDEST DUP3 MSTORE POP POP JUMP JUMPDEST PUSH0 PUSH1 0x20 DUP3 ADD SWAP1 POP PUSH2 0x2297 PUSH0 DUP4 ADD DUP5 PUSH2 0x2275 JUMP JUMPDEST SWAP3 SWAP2 POP POP JUMP JUMPDEST PUSH0 DUP2 MLOAD SWAP1 POP SWAP2 SWAP1 POP JUMP JUMPDEST PUSH0 DUP3 DUP3 MSTORE PUSH1 0x20 DUP3 ADD SWAP1 POP SWAP3 SWAP2 POP POP JUMP JUMPDEST PUSH0 JUMPDEST DUP4 DUP2 LT ISZERO PUSH2 0x22D4 JUMPI DUP1 DUP3 ADD MLOAD DUP2 DUP5 ADD MSTORE PUSH1 0x20 DUP2 ADD SWAP1 POP PUSH2 0x22B9 JUMP JUMPDEST PUSH0 DUP5 DUP5 ADD MSTORE POP POP POP POP JUMP JUMPDEST PUSH0 PUSH1 0x1F NOT PUSH1 0x1F DUP4 ADD AND SWAP1 POP SWAP2 SWAP1 POP JUMP JUMPDEST PUSH0 PUSH2 0x22F9 DUP3 PUSH2 0x229D JUMP JUMPDEST PUSH2 0x2303 DUP2 DUP6 PUSH2 0x22A7 JUMP JUMPDEST SWAP4 POP PUSH2 0x2313 DUP2 DUP6 PUSH1 0x20 DUP7 ADD PUSH2 0x22B7 JUMP JUMPDEST PUSH2 0x231C DUP2 PUSH2 0x22DF JUMP JUMPDEST DUP5 ADD SWAP2 POP POP SWAP3 SWAP2 POP POP JUMP JUMPDEST PUSH0 PUSH1 0x20 DUP3 ADD SWAP1 POP DUP2 DUP2 SUB PUSH0 DUP4 ADD MSTORE PUSH2 0x233F DUP2 DUP5 PUSH2 0x22EF JUMP JUMPDEST SWAP1 POP SWAP3 SWAP2 POP POP JUMP JUMPDEST PUSH0 DUP2 SWAP1 POP SWAP2 SWAP1 POP JUMP JUMPDEST PUSH2 0x2359 DUP2 PUSH2 0x2347 JUMP JUMPDEST DUP2 EQ PUSH2 0x2363 JUMPI PUSH0 DUP1 REVERT JUMPDEST POP JUMP JUMPDEST PUSH0 DUP2 CALLDATALOAD SWAP1 POP PUSH2 0x2374 DUP2 PUSH2 0x2350 JUMP JUMPDEST SWAP3 SWAP2 POP POP JUMP JUMPDEST PUSH0 PUSH1 0x20 DUP3 DUP5 SUB SLT ISZERO PUSH2 0x238F JUMPI PUSH2 0x238E PUSH2 0x21E2 JUMP JUMPDEST JUMPDEST PUSH0 PUSH2 0x239C DUP5 DUP3 DUP6 ADD PUSH2 0x2366 JUMP JUMPDEST SWAP2 POP POP SWAP3 SWAP2 POP POP JUMP JUMPDEST PUSH0 PUSH20 0xFFFFFFFFFFFFFFFFFFFFFFFFFFFFFFFFFFFFFFFF DUP3 AND SWAP1 POP SWAP2 SWAP1 POP JUMP JUMPDEST PUSH0 PUSH2 0x23CE DUP3 PUSH2 0x23A5 JUMP JUMPDEST SWAP1 POP SWAP2 SWAP1 POP JUMP JUMPDEST PUSH2 0x23DE DUP2 PUSH2 0x23C4 JUMP JUMPDEST DUP3 MSTORE POP POP JUMP JUMPDEST PUSH0 PUSH1 0x20 DUP3 ADD SWAP1 POP PUSH2 0x23F7 PUSH0 DUP4 ADD DUP5 PUSH2 0x23D5 JUMP JUMPDEST SWAP3 SWAP2 POP POP JUMP JUMPDEST PUSH2 0x2406 DUP2 PUSH2 0x23C4 JUMP JUMPDEST DUP2 EQ PUSH2 0x2410 JUMPI PUSH0 DUP1 REVERT JUMPDEST POP JUMP JUMPDEST PUSH0 DUP2 CALLDATALOAD SWAP1 POP PUSH2 0x2421 DUP2 PUSH2 0x23FD JUMP JUMPDEST SWAP3 SWAP2 POP POP JUMP JUMPDEST PUSH0 DUP1 PUSH1 0x40 DUP4 DUP6 SUB SLT ISZERO PUSH2 0x243D JUMPI PUSH2 0x243C PUSH2 0x21E2 JUMP JUMPDEST JUMPDEST PUSH0 PUSH2 0x244A DUP6 DUP3 DUP7 ADD PUSH2 0x2413 JUMP JUMPDEST SWAP3 POP POP PUSH1 0x20 PUSH2 0x245B DUP6 DUP3 DUP7 ADD PUSH2 0x2366 JUMP JUMPDEST SWAP2 POP POP SWAP3 POP SWAP3 SWAP1 POP JUMP JUMPDEST PUSH0 DUP1 PUSH0 PUSH1 0x60 DUP5 DUP7 SUB SLT ISZERO PUSH2 0x247C JUMPI PUSH2 0x247B PUSH2 0x21E2 JUMP JUMPDEST JUMPDEST PUSH0 PUSH2 0x2489 DUP7 DUP3 DUP8 ADD PUSH2 0x2413 JUMP JUMPDEST SWAP4 POP POP PUSH1 0x20 PUSH2 0x249A DUP7 DUP3 DUP8 ADD PUSH2 0x2413 JUMP JUMPDEST SWAP3 POP POP PUSH1 0x40 PUSH2 0x24AB DUP7 DUP3 DUP8 ADD PUSH2 0x2366 JUMP JUMPDEST SWAP2 POP POP SWAP3 POP SWAP3 POP SWAP3 JUMP JUMPDEST PUSH0 PUSH2 0xFFFF DUP3 AND SWAP1 POP SWAP2 SWAP1 POP JUMP JUMPDEST PUSH2 0x24CB DUP2 PUSH2 0x24B5 JUMP JUMPDEST DUP3 MSTORE POP POP JUMP JUMPDEST PUSH0 PUSH1 0x20 DUP3 ADD SWAP1 POP PUSH2 0x24E4 PUSH0 DUP4 ADD DUP5 PUSH2 0x24C2 JUMP JUMPDEST SWAP3 SWAP2 POP POP JUMP JUMPDEST PUSH0 PUSH1 0x20 DUP3 DUP5 SUB SLT ISZERO PUSH2 0x24FF JUMPI PUSH2 0x24FE PUSH2 0x21E2 JUMP JUMPDEST JUMPDEST PUSH0 PUSH2 0x250C DUP5 DUP3 DUP6 ADD PUSH2 0x2413 JUMP JUMPDEST SWAP2 POP POP SWAP3 SWAP2 POP POP JUMP JUMPDEST PUSH2 0x251E DUP2 PUSH2 0x2347 JUMP JUMPDEST DUP3 MSTORE POP POP JUMP JUMPDEST PUSH0 PUSH1 0x20 DUP3 ADD SWAP1 POP PUSH2 0x2537 PUSH0 DUP4 ADD DUP5 PUSH2 0x2515 JUMP JUMPDEST SWAP3 SWAP2 POP POP JUMP JUMPDEST PUSH0 DUP1 PUSH1 0x40 DUP4 DUP6 SUB SLT ISZERO PUSH2 0x2553 JUMPI PUSH2 0x2552 PUSH2 0x21E2 JUMP JUMPDEST JUMPDEST PUSH0 PUSH2 0x2560 DUP6 DUP3 DUP7 ADD PUSH2 0x2366 JUMP JUMPDEST SWAP3 POP POP PUSH1 0x20 PUSH2 0x2571 DUP6 DUP3 DUP7 ADD PUSH2 0x2366 JUMP JUMPDEST SWAP2 POP POP SWAP3 POP SWAP3 SWAP1 POP JUMP JUMPDEST PUSH2 0x2584 DUP2 PUSH2 0x226A JUMP JUMPDEST DUP2 EQ PUSH2 0x258E JUMPI PUSH0 DUP1 REVERT JUMPDEST POP JUMP JUMPDEST PUSH0 DUP2 CALLDATALOAD SWAP1 POP PUSH2 0x259F DUP2 PUSH2 0x257B JUMP JUMPDEST SWAP3 SWAP2 POP POP JUMP JUMPDEST PUSH0 DUP1 PUSH1 0x40 DUP4 DUP6 SUB SLT ISZERO PUSH2 0x25BB JUMPI PUSH2 0x25BA PUSH2 0x21E2 JUMP JUMPDEST JUMPDEST PUSH0 PUSH2 0x25C8 DUP6 DUP3 DUP7 ADD PUSH2 0x2413 JUMP JUMPDEST SWAP3 POP POP PUSH1 0x20 PUSH2 0x25D9 DUP6 DUP3 DUP7 ADD PUSH2 0x2591 JUMP JUMPDEST SWAP2 POP POP SWAP3 POP SWAP3 SWAP1 POP JUMP JUMPDEST PUSH0 DUP1 REVERT JUMPDEST PUSH0 DUP1 REVERT JUMPDEST PUSH32 0x4E487B7100000000000000000000000000000000000000000000000000000000 PUSH0 MSTORE PUSH1 0x41 PUSH1 0x4 MSTORE PUSH1 0x24 PUSH0 REVERT JUMPDEST PUSH2 0x2621 DUP3 PUSH2 0x22DF JUMP JUMPDEST DUP2 ADD DUP2 DUP2 LT PUSH8 0xFFFFFFFFFFFFFFFF DUP3 GT OR ISZERO PUSH2 0x2640 JUMPI PUSH2 0x263F PUSH2 0x25EB JUMP JUMPDEST JUMPDEST DUP1 PUSH1 0x40 MSTORE POP POP POP JUMP JUMPDEST PUSH0 PUSH2 0x2652 PUSH2 0x21D9 JUMP JUMPDEST SWAP1 POP PUSH2 0x265E DUP3 DUP3 PUSH2 0x2618 JUMP JUMPDEST SWAP2 SWAP1 POP JUMP JUMPDEST PUSH0 PUSH8 0xFFFFFFFFFFFFFFFF DUP3 GT ISZERO PUSH2 0x267D JUMPI PUSH2 0x267C PUSH2 0x25EB JUMP JUMPDEST JUMPDEST PUSH2 0x2686 DUP3 PUSH2 0x22DF JUMP JUMPDEST SWAP1 POP PUSH1 0x20 DUP2 ADD SWAP1 POP SWAP2 SWAP1 POP JUMP JUMPDEST DUP3 DUP2 DUP4 CALLDATACOPY PUSH0 DUP4 DUP4 ADD MSTORE POP POP POP JUMP JUMPDEST PUSH0 PUSH2 0x26B3 PUSH2 0x26AE DUP5 PUSH2 0x2663 JUMP JUMPDEST PUSH2 0x2649 JUMP JUMPDEST SWAP1 POP DUP3 DUP2 MSTORE PUSH1 0x20 DUP2 ADD DUP5 DUP5 DUP5 ADD GT ISZERO PUSH2 0x26CF JUMPI PUSH2 0x26CE PUSH2 0x25E7 JUMP JUMPDEST JUMPDEST PUSH2 0x26DA DUP5 DUP3 DUP6 PUSH2 0x2693 JUMP JUMPDEST POP SWAP4 SWAP3 POP POP POP JUMP JUMPDEST PUSH0 DUP3 PUSH1 0x1F DUP4 ADD SLT PUSH2 0x26F6 JUMPI PUSH2 0x26F5 PUSH2 0x25E3 JUMP JUMPDEST JUMPDEST DUP2 CALLDATALOAD PUSH2 0x2706 DUP5 DUP3 PUSH1 0x20 DUP7 ADD PUSH2 0x26A1 JUMP JUMPDEST SWAP2 POP POP SWAP3 SWAP2 POP POP JUMP JUMPDEST PUSH0 DUP1 PUSH0 DUP1 PUSH1 0x80 DUP6 DUP8 SUB SLT ISZERO PUSH2 0x2727 JUMPI PUSH2 0x2726 PUSH2 0x21E2 JUMP JUMPDEST JUMPDEST PUSH0 PUSH2 0x2734 DUP8 DUP3 DUP9 ADD PUSH2 0x2413 JUMP JUMPDEST SWAP5 POP POP PUSH1 0x20 PUSH2 0x2745 DUP8 DUP3 DUP9 ADD PUSH2 0x2413 JUMP JUMPDEST SWAP4 POP POP PUSH1 0x40 PUSH2 0x2756 DUP8 DUP3 DUP9 ADD PUSH2 0x2366 JUMP JUMPDEST SWAP3 POP POP PUSH1 0x60 DUP6 ADD CALLDATALOAD PUSH8 0xFFFFFFFFFFFFFFFF DUP2 GT ISZERO PUSH2 0x2777 JUMPI PUSH2 0x2776 PUSH2 0x21E6 JUMP JUMPDEST JUMPDEST PUSH2 0x2783 DUP8 DUP3 DUP9 ADD PUSH2 0x26E2 JUMP JUMPDEST SWAP2 POP POP SWAP3 SWAP6 SWAP2 SWAP5 POP SWAP3 POP JUMP JUMPDEST PUSH0 DUP1 PUSH1 0x40 DUP4 DUP6 SUB SLT ISZERO PUSH2 0x27A5 JUMPI PUSH2 0x27A4 PUSH2 0x21E2 JUMP JUMPDEST JUMPDEST PUSH0 PUSH2 0x27B2 DUP6 DUP3 DUP7 ADD PUSH2 0x2413 JUMP JUMPDEST SWAP3 POP POP PUSH1 0x20 PUSH2 0x27C3 DUP6 DUP3 DUP7 ADD PUSH2 0x2413 JUMP JUMPDEST SWAP2 POP POP SWAP3 POP SWAP3 SWAP1 POP JUMP JUMPDEST PUSH32 0x4E487B7100000000000000000000000000000000000000000000000000000000 PUSH0 MSTORE PUSH1 0x22 PUSH1 0x4 MSTORE PUSH1 0x24 PUSH0 REVERT JUMPDEST PUSH0 PUSH1 0x2 DUP3 DIV SWAP1 POP PUSH1 0x1 DUP3 AND DUP1 PUSH2 0x2811 JUMPI PUSH1 0x7F DUP3 AND SWAP2 POP JUMPDEST PUSH1 0x20 DUP3 LT DUP2 SUB PUSH2 0x2824 JUMPI PUSH2 0x2823 PUSH2 0x27CD JUMP JUMPDEST JUMPDEST POP SWAP2 SWAP1 POP JUMP JUMPDEST PUSH0 PUSH1 0x60 DUP3 ADD SWAP1 POP PUSH2 0x283D PUSH0 DUP4 ADD DUP7 PUSH2 0x23D5 JUMP JUMPDEST PUSH2 0x284A PUSH1 0x20 DUP4 ADD DUP6 PUSH2 0x2515 JUMP JUMPDEST PUSH2 0x2857 PUSH1 0x40 DUP4 ADD DUP5 PUSH2 0x23D5 JUMP JUMPDEST SWAP5 SWAP4 POP POP POP POP JUMP JUMPDEST PUSH32 0x4F6E6C792073706F757365732063616E2063616C6C20746869732066756E6374 PUSH0 DUP3 ADD MSTORE PUSH32 0x696F6E0000000000000000000000000000000000000000000000000000000000 PUSH1 0x20 DUP3 ADD MSTORE POP JUMP JUMPDEST PUSH0 PUSH2 0x28B9 PUSH1 0x23 DUP4 PUSH2 0x22A7 JUMP JUMPDEST SWAP2 POP PUSH2 0x28C4 DUP3 PUSH2 0x285F JUMP JUMPDEST PUSH1 0x40 DUP3 ADD SWAP1 POP SWAP2 SWAP1 POP JUMP JUMPDEST PUSH0 PUSH1 0x20 DUP3 ADD SWAP1 POP DUP2 DUP2 SUB PUSH0 DUP4 ADD MSTORE PUSH2 0x28E6 DUP2 PUSH2 0x28AD JUMP JUMPDEST SWAP1 POP SWAP2 SWAP1 POP JUMP JUMPDEST PUSH32 0x43616E6E6F742070726F647563652077656464696E6720636572746966696361 PUSH0 DUP3 ADD MSTORE PUSH32 0x746520666F72206E6F6E2D6D6172726965642070656F706C6500000000000000 PUSH1 0x20 DUP3 ADD MSTORE POP JUMP JUMPDEST PUSH0 PUSH2 0x2947 PUSH1 0x39 DUP4 PUSH2 0x22A7 JUMP JUMPDEST SWAP2 POP PUSH2 0x2952 DUP3 PUSH2 0x28ED JUMP JUMPDEST PUSH1 0x40 DUP3 ADD SWAP1 POP SWAP2 SWAP1 POP JUMP JUMPDEST PUSH0 PUSH1 0x20 DUP3 ADD SWAP1 POP DUP2 DUP2 SUB PUSH0 DUP4 ADD MSTORE PUSH2 0x2974 DUP2 PUSH2 0x293B JUMP JUMPDEST SWAP1 POP SWAP2 SWAP1 POP JUMP JUMPDEST PUSH32 0x4E6F6E2D6D6172726965642070656F706C652063616E6E6F74206469766F7263 PUSH0 DUP3 ADD MSTORE PUSH32 0x6500000000000000000000000000000000000000000000000000000000000000 PUSH1 0x20 DUP3 ADD MSTORE POP JUMP JUMPDEST PUSH0 PUSH2 0x29D5 PUSH1 0x21 DUP4 PUSH2 0x22A7 JUMP JUMPDEST SWAP2 POP PUSH2 0x29E0 DUP3 PUSH2 0x297B JUMP JUMPDEST PUSH1 0x40 DUP3 ADD SWAP1 POP SWAP2 SWAP1 POP JUMP JUMPDEST PUSH0 PUSH1 0x20 DUP3 ADD SWAP1 POP DUP2 DUP2 SUB PUSH0 DUP4 ADD MSTORE PUSH2 0x2A02 DUP2 PUSH2 0x29C9 JUMP JUMPDEST SWAP1 POP SWAP2 SWAP1 POP JUMP JUMPDEST PUSH32 0x4E6F7420656E6F756768207061727469636970616E747320616772656520746F PUSH0 DUP3 ADD MSTORE PUSH32 0x20746865206469766F7263650000000000000000000000000000000000000000 PUSH1 0x20 DUP3 ADD MSTORE POP JUMP JUMPDEST PUSH0 PUSH2 0x2A63 PUSH1 0x2C DUP4 PUSH2 0x22A7 JUMP JUMPDEST SWAP2 POP PUSH2 0x2A6E DUP3 PUSH2 0x2A09 JUMP JUMPDEST PUSH1 0x40 DUP3 ADD SWAP1 POP SWAP2 SWAP1 POP JUMP JUMPDEST PUSH0 PUSH1 0x20 DUP3 ADD SWAP1 POP DUP2 DUP2 SUB PUSH0 DUP4 ADD MSTORE PUSH2 0x2A90 DUP2 PUSH2 0x2A57 JUMP JUMPDEST SWAP1 POP SWAP2 SWAP1 POP JUMP JUMPDEST PUSH32 0x4E487B7100000000000000000000000000000000000000000000000000000000 PUSH0 MSTORE PUSH1 0x32 PUSH1 0x4 MSTORE PUSH1 0x24 PUSH0 REVERT JUMPDEST PUSH32 0x43616E6E6F742072652D617574686F72697A6520616E20616464726573730000 PUSH0 DUP3 ADD MSTORE POP JUMP JUMPDEST PUSH0 PUSH2 0x2AF8 PUSH1 0x1E DUP4 PUSH2 0x22A7 JUMP JUMPDEST SWAP2 POP PUSH2 0x2B03 DUP3 PUSH2 0x2AC4 JUMP JUMPDEST PUSH1 0x20 DUP3 ADD SWAP1 POP SWAP2 SWAP1 POP JUMP JUMPDEST PUSH0 PUSH1 0x20 DUP3 ADD SWAP1 POP DUP2 DUP2 SUB PUSH0 DUP4 ADD MSTORE PUSH2 0x2B25 DUP2 PUSH2 0x2AEC JUMP JUMPDEST SWAP1 POP SWAP2 SWAP1 POP JUMP JUMPDEST PUSH32 0x4E487B7100000000000000000000000000000000000000000000000000000000 PUSH0 MSTORE PUSH1 0x11 PUSH1 0x4 MSTORE PUSH1 0x24 PUSH0 REVERT JUMPDEST PUSH0 PUSH1 0xFF DUP3 AND SWAP1 POP SWAP2 SWAP1 POP JUMP JUMPDEST PUSH0 PUSH2 0x2B6F DUP3 PUSH2 0x2B59 JUMP JUMPDEST SWAP2 POP PUSH1 0xFF DUP3 SUB PUSH2 0x2B82 JUMPI PUSH2 0x2B81 PUSH2 0x2B2C JUMP JUMPDEST JUMPDEST PUSH1 0x1 DUP3 ADD SWAP1 POP SWAP2 SWAP1 POP JUMP JUMPDEST PUSH0 PUSH2 0x2B97 DUP3 PUSH2 0x2B59 JUMP JUMPDEST SWAP2 POP PUSH2 0x2BA2 DUP4 PUSH2 0x2B59 JUMP JUMPDEST SWAP3 POP DUP3 DUP3 ADD SWAP1 POP PUSH1 0xFF DUP2 GT ISZERO PUSH2 0x2BBB JUMPI PUSH2 0x2BBA PUSH2 0x2B2C JUMP JUMPDEST JUMPDEST SWAP3 SWAP2 POP POP JUMP JUMPDEST PUSH0 PUSH2 0x2BCB DUP3 PUSH2 0x2347 JUMP JUMPDEST SWAP2 POP PUSH2 0x2BD6 DUP4 PUSH2 0x2347 JUMP JUMPDEST SWAP3 POP DUP3 DUP3 ADD SWAP1 POP DUP1 DUP3 GT ISZERO PUSH2 0x2BEE JUMPI PUSH2 0x2BED PUSH2 0x2B2C JUMP JUMPDEST JUMPDEST SWAP3 SWAP2 POP POP JUMP JUMPDEST PUSH0 DUP2 SWAP1 POP SWAP3 SWAP2 POP POP JUMP JUMPDEST PUSH0 PUSH2 0x2C08 DUP3 PUSH2 0x229D JUMP JUMPDEST PUSH2 0x2C12 DUP2 DUP6 PUSH2 0x2BF4 JUMP JUMPDEST SWAP4 POP PUSH2 0x2C22 DUP2 DUP6 PUSH1 0x20 DUP7 ADD PUSH2 0x22B7 JUMP JUMPDEST DUP1 DUP5 ADD SWAP2 POP POP SWAP3 SWAP2 POP POP JUMP JUMPDEST PUSH0 PUSH2 0x2C39 DUP3 DUP6 PUSH2 0x2BFE JUMP JUMPDEST SWAP2 POP PUSH2 0x2C45 DUP3 DUP5 PUSH2 0x2BFE JUMP JUMPDEST SWAP2 POP DUP2 SWAP1 POP SWAP4 SWAP3 POP POP POP JUMP JUMPDEST PUSH0 DUP2 MLOAD SWAP1 POP SWAP2 SWAP1 POP JUMP JUMPDEST PUSH0 DUP3 DUP3 MSTORE PUSH1 0x20 DUP3 ADD SWAP1 POP SWAP3 SWAP2 POP POP JUMP JUMPDEST PUSH0 PUSH2 0x2C75 DUP3 PUSH2 0x2C51 JUMP JUMPDEST PUSH2 0x2C7F DUP2 DUP6 PUSH2 0x2C5B JUMP JUMPDEST SWAP4 POP PUSH2 0x2C8F DUP2 DUP6 PUSH1 0x20 DUP7 ADD PUSH2 0x22B7 JUMP JUMPDEST PUSH2 0x2C98 DUP2 PUSH2 0x22DF JUMP JUMPDEST DUP5 ADD SWAP2 POP POP SWAP3 SWAP2 POP POP JUMP JUMPDEST PUSH0 PUSH1 0x80 DUP3 ADD SWAP1 POP PUSH2 0x2CB6 PUSH0 DUP4 ADD DUP8 PUSH2 0x23D5 JUMP JUMPDEST PUSH2 0x2CC3 PUSH1 0x20 DUP4 ADD DUP7 PUSH2 0x23D5 JUMP JUMPDEST PUSH2 0x2CD0 PUSH1 0x40 DUP4 ADD DUP6 PUSH2 0x2515 JUMP JUMPDEST DUP2 DUP2 SUB PUSH1 0x60 DUP4 ADD MSTORE PUSH2 0x2CE2 DUP2 DUP5 PUSH2 0x2C6B JUMP JUMPDEST SWAP1 POP SWAP6 SWAP5 POP POP POP POP POP JUMP JUMPDEST PUSH0 DUP2 MLOAD SWAP1 POP PUSH2 0x2CFB DUP2 PUSH2 0x2215 JUMP JUMPDEST SWAP3 SWAP2 POP POP JUMP JUMPDEST PUSH0 PUSH1 0x20 DUP3 DUP5 SUB SLT ISZERO PUSH2 0x2D16 JUMPI PUSH2 0x2D15 PUSH2 0x21E2 JUMP JUMPDEST JUMPDEST PUSH0 PUSH2 0x2D23 DUP5 DUP3 DUP6 ADD PUSH2 0x2CED JUMP JUMPDEST SWAP2 POP POP SWAP3 SWAP2 POP POP JUMP JUMPDEST PUSH32 0x4E487B7100000000000000000000000000000000000000000000000000000000 PUSH0 MSTORE PUSH1 0x12 PUSH1 0x4 MSTORE PUSH1 0x24 PUSH0 REVERT JUMPDEST PUSH0 PUSH1 0x40 DUP3 ADD SWAP1 POP PUSH2 0x2D6C PUSH0 DUP4 ADD DUP6 PUSH2 0x23D5 JUMP JUMPDEST PUSH2 0x2D79 PUSH1 0x20 DUP4 ADD DUP5 PUSH2 0x2515 JUMP JUMPDEST SWAP4 SWAP3 POP POP POP JUMP INVALID LOG2 PUSH5 0x6970667358 0x22 SLT KECCAK256 PUSH10 0xC0697EC132DDE69CE41A ISZERO 0xAC MSIZE 0xA6 PUSH6 0xCCAC1C2719A LOG0 0xD4 0xC1 EXTCODESIZE STATICCALL SGT 0x5E EXTCODECOPY 0xC4 CREATE2 PUSH5 0x736F6C6343 STOP ADDMOD EQ STOP CALLER "
				},
				"gasEstimates": {
					"creation": {
						"codeDepositCost": "2340400",
						"executionCost": "infinite",
						"totalCost": "infinite"
					},
					"external": {
						"approve(address,uint256)": "infinite",
						"authorizeAccounts(address)": "infinite",
						"balanceOf(address)": "infinite",
						"createWeddingCertificate(uint256,uint256)": "infinite",
						"divorce(uint256)": "infinite",
						"getApproved(uint256)": "infinite",
						"isApprovedForAll(address,address)": "infinite",
						"isMarried()": "2606",
						"name()": "infinite",
						"ownerOf(uint256)": "infinite",
						"safeTransferFrom(address,address,uint256)": "infinite",
						"safeTransferFrom(address,address,uint256,bytes)": "infinite",
						"setApprovalForAll(address,bool)": "infinite",
						"supportsInterface(bytes4)": "787",
						"symbol()": "infinite",
						"tokenURI(uint256)": "infinite",
						"transferFrom(address,address,uint256)": "infinite",
						"weddingDay()": "2562"
					},
					"internal": {
						"TransferFrom()": "infinite",
						"enoughParticipantsVote(uint256,address)": "infinite"
					}
				},
				"methodIdentifiers": {
					"approve(address,uint256)": "095ea7b3",
					"authorizeAccounts(address)": "bd6690f4",
					"balanceOf(address)": "70a08231",
					"createWeddingCertificate(uint256,uint256)": "7a8363f9",
					"divorce(uint256)": "b49a5bb2",
					"getApproved(uint256)": "081812fc",
					"isApprovedForAll(address,address)": "e985e9c5",
					"isMarried()": "a702314d",
					"name()": "06fdde03",
					"ownerOf(uint256)": "6352211e",
					"safeTransferFrom(address,address,uint256)": "42842e0e",
					"safeTransferFrom(address,address,uint256,bytes)": "b88d4fde",
					"setApprovalForAll(address,bool)": "a22cb465",
					"supportsInterface(bytes4)": "01ffc9a7",
					"symbol()": "95d89b41",
					"tokenURI(uint256)": "c87b56dd",
					"transferFrom(address,address,uint256)": "23b872dd",
					"weddingDay()": "2fc5a6df"
				}
			},
			"storageLayout": {
				"storage": [
					{
						"astId": 317,
						"contract": "marriage_license.sol:marriage_license",
						"label": "_name",
						"offset": 0,
						"slot": "0",
						"type": "t_string_storage"
					},
					{
						"astId": 319,
						"contract": "marriage_license.sol:marriage_license",
						"label": "_symbol",
						"offset": 0,
						"slot": "1",
						"type": "t_string_storage"
					},
					{
						"astId": 323,
						"contract": "marriage_license.sol:marriage_license",
						"label": "_owners",
						"offset": 0,
						"slot": "2",
						"type": "t_mapping(t_uint256,t_address)"
					},
					{
						"astId": 327,
						"contract": "marriage_license.sol:marriage_license",
						"label": "_balances",
						"offset": 0,
						"slot": "3",
						"type": "t_mapping(t_address,t_uint256)"
					},
					{
						"astId": 331,
						"contract": "marriage_license.sol:marriage_license",
						"label": "_tokenApprovals",
						"offset": 0,
						"slot": "4",
						"type": "t_mapping(t_uint256,t_address)"
					},
					{
						"astId": 337,
						"contract": "marriage_license.sol:marriage_license",
						"label": "_operatorApprovals",
						"offset": 0,
						"slot": "5",
						"type": "t_mapping(t_address,t_mapping(t_address,t_bool))"
					},
					{
						"astId": 2936,
						"contract": "marriage_license.sol:marriage_license",
						"label": "token1",
						"offset": 0,
						"slot": "6",
						"type": "t_uint256"
					},
					{
						"astId": 2938,
						"contract": "marriage_license.sol:marriage_license",
						"label": "token2",
						"offset": 0,
						"slot": "7",
						"type": "t_uint256"
					},
					{
						"astId": 2940,
						"contract": "marriage_license.sol:marriage_license",
						"label": "spouse1",
						"offset": 0,
						"slot": "8",
						"type": "t_address"
					},
					{
						"astId": 2942,
						"contract": "marriage_license.sol:marriage_license",
						"label": "spouse2",
						"offset": 0,
						"slot": "9",
						"type": "t_address"
					},
					{
						"astId": 2944,
						"contract": "marriage_license.sol:marriage_license",
						"label": "isMarried",
						"offset": 20,
						"slot": "9",
						"type": "t_bool"
					},
					{
						"astId": 2946,
						"contract": "marriage_license.sol:marriage_license",
						"label": "weddingDay",
						"offset": 21,
						"slot": "9",
						"type": "t_uint16"
					},
					{
						"astId": 2948,
						"contract": "marriage_license.sol:marriage_license",
						"label": "spouseCounter",
						"offset": 23,
						"slot": "9",
						"type": "t_uint8"
					},
					{
						"astId": 2950,
						"contract": "marriage_license.sol:marriage_license",
						"label": "authorizedCounter",
						"offset": 24,
						"slot": "9",
						"type": "t_uint8"
					},
					{
						"astId": 2953,
						"contract": "marriage_license.sol:marriage_license",
						"label": "tokensVoted",
						"offset": 0,
						"slot": "10",
						"type": "t_array(t_uint256)dyn_storage"
					},
					{
						"astId": 2955,
						"contract": "marriage_license.sol:marriage_license",
						"label": "verifyAddressesToken",
						"offset": 0,
						"slot": "11",
						"type": "t_uint256"
					},
					{
						"astId": 2958,
						"contract": "marriage_license.sol:marriage_license",
						"label": "authorizedAddresses",
						"offset": 0,
						"slot": "12",
						"type": "t_array(t_address)dyn_storage"
					},
					{
						"astId": 2963,
						"contract": "marriage_license.sol:marriage_license",
						"label": "authorizedVotingList",
						"offset": 0,
						"slot": "13",
						"type": "t_mapping(t_address,t_array(t_uint8)dyn_storage)"
					}
				],
				"types": {
					"t_address": {
						"encoding": "inplace",
						"label": "address",
						"numberOfBytes": "20"
					},
					"t_array(t_address)dyn_storage": {
						"base": "t_address",
						"encoding": "dynamic_array",
						"label": "address[]",
						"numberOfBytes": "32"
					},
					"t_array(t_uint256)dyn_storage": {
						"base": "t_uint256",
						"encoding": "dynamic_array",
						"label": "uint256[]",
						"numberOfBytes": "32"
					},
					"t_array(t_uint8)dyn_storage": {
						"base": "t_uint8",
						"encoding": "dynamic_array",
						"label": "uint8[]",
						"numberOfBytes": "32"
					},
					"t_bool": {
						"encoding": "inplace",
						"label": "bool",
						"numberOfBytes": "1"
					},
					"t_mapping(t_address,t_array(t_uint8)dyn_storage)": {
						"encoding": "mapping",
						"key": "t_address",
						"label": "mapping(address => uint8[])",
						"numberOfBytes": "32",
						"value": "t_array(t_uint8)dyn_storage"
					},
					"t_mapping(t_address,t_bool)": {
						"encoding": "mapping",
						"key": "t_address",
						"label": "mapping(address => bool)",
						"numberOfBytes": "32",
						"value": "t_bool"
					},
					"t_mapping(t_address,t_mapping(t_address,t_bool))": {
						"encoding": "mapping",
						"key": "t_address",
						"label": "mapping(address => mapping(address => bool))",
						"numberOfBytes": "32",
						"value": "t_mapping(t_address,t_bool)"
					},
					"t_mapping(t_address,t_uint256)": {
						"encoding": "mapping",
						"key": "t_address",
						"label": "mapping(address => uint256)",
						"numberOfBytes": "32",
						"value": "t_uint256"
					},
					"t_mapping(t_uint256,t_address)": {
						"encoding": "mapping",
						"key": "t_uint256",
						"label": "mapping(uint256 => address)",
						"numberOfBytes": "32",
						"value": "t_address"
					},
					"t_string_storage": {
						"encoding": "bytes",
						"label": "string",
						"numberOfBytes": "32"
					},
					"t_uint16": {
						"encoding": "inplace",
						"label": "uint16",
						"numberOfBytes": "2"
					},
					"t_uint256": {
						"encoding": "inplace",
						"label": "uint256",
						"numberOfBytes": "32"
					},
					"t_uint8": {
						"encoding": "inplace",
						"label": "uint8",
						"numberOfBytes": "1"
					}
				}
			},
			"userdoc": {
				"kind": "user",
				"methods": {},
				"version": 1
			}
		}
	}
}