{
	"marrige.sol": {
		"MarriageContract": {
			"abi": [
				{
					"inputs": [],
					"stateMutability": "nonpayable",
					"type": "constructor"
				},
				{
					"anonymous": false,
					"inputs": [
						{
							"indexed": true,
							"internalType": "address",
							"name": "spouse1",
							"type": "address"
						},
						{
							"indexed": true,
							"internalType": "address",
							"name": "spouse2",
							"type": "address"
						}
					],
					"name": "Engaged",
					"type": "event"
				},
				{
					"anonymous": false,
					"inputs": [
						{
							"indexed": true,
							"internalType": "address",
							"name": "spouse1",
							"type": "address"
						},
						{
							"indexed": true,
							"internalType": "address",
							"name": "spouse2",
							"type": "address"
						}
					],
					"name": "Married",
					"type": "event"
				},
				{
					"inputs": [
						{
							"internalType": "address",
							"name": "_participant",
							"type": "address"
						}
					],
					"name": "addParticipant",
					"outputs": [],
					"stateMutability": "nonpayable",
					"type": "function"
				},
				{
					"inputs": [],
					"name": "currentState",
					"outputs": [
						{
							"internalType": "enum MarriageContract.State",
							"name": "",
							"type": "uint8"
						}
					],
					"stateMutability": "view",
					"type": "function"
				},
				{
					"inputs": [
						{
							"internalType": "address",
							"name": "_spouse2",
							"type": "address"
						}
					],
					"name": "engage",
					"outputs": [],
					"stateMutability": "nonpayable",
					"type": "function"
				},
				{
					"inputs": [],
					"name": "getCurrentState",
					"outputs": [
						{
							"internalType": "enum MarriageContract.State",
							"name": "",
							"type": "uint8"
						}
					],
					"stateMutability": "view",
					"type": "function"
				},
				{
					"inputs": [
						{
							"internalType": "uint256",
							"name": "index",
							"type": "uint256"
						}
					],
					"name": "getParticipantByIndex",
					"outputs": [
						{
							"internalType": "address",
							"name": "",
							"type": "address"
						}
					],
					"stateMutability": "view",
					"type": "function"
				},
				{
					"inputs": [],
					"name": "getParticipantCount",
					"outputs": [
						{
							"internalType": "uint256",
							"name": "",
							"type": "uint256"
						}
					],
					"stateMutability": "view",
					"type": "function"
				},
				{
					"inputs": [],
					"name": "isEngaged",
					"outputs": [
						{
							"internalType": "bool",
							"name": "",
							"type": "bool"
						}
					],
					"stateMutability": "view",
					"type": "function"
				},
				{
					"inputs": [],
					"name": "isMarried",
					"outputs": [
						{
							"internalType": "bool",
							"name": "",
							"type": "bool"
						}
					],
					"stateMutability": "view",
					"type": "function"
				},
				{
					"inputs": [],
					"name": "marry",
					"outputs": [],
					"stateMutability": "nonpayable",
					"type": "function"
				},
				{
					"inputs": [
						{
							"internalType": "uint256",
							"name": "",
							"type": "uint256"
						}
					],
					"name": "participants",
					"outputs": [
						{
							"internalType": "address",
							"name": "",
							"type": "address"
						}
					],
					"stateMutability": "view",
					"type": "function"
				},
				{
					"inputs": [],
					"name": "transitionToAborted",
					"outputs": [],
					"stateMutability": "nonpayable",
					"type": "function"
				},
				{
					"inputs": [],
					"name": "transitionToInvalid",
					"outputs": [],
					"stateMutability": "nonpayable",
					"type": "function"
				},
				{
					"inputs": [],
					"name": "transitionToRegistered",
					"outputs": [],
					"stateMutability": "nonpayable",
					"type": "function"
				},
				{
					"inputs": [],
					"name": "transitionToWed",
					"outputs": [],
					"stateMutability": "nonpayable",
					"type": "function"
				},
				{
					"inputs": [],
					"name": "weddingDay",
					"outputs": [
						{
							"internalType": "uint16",
							"name": "",
							"type": "uint16"
						}
					],
					"stateMutability": "view",
					"type": "function"
				}
			],
			"devdoc": {
				"kind": "dev",
				"methods": {},
				"version": 1
			},
			"evm": {
				"assembly": "    /* \"marrige.sol\":58:2542  contract MarriageContract {... */\n  mstore(0x40, 0x80)\n    /* \"marrige.sol\":1372:1477  constructor() {... */\n  callvalue\n  dup1\n  iszero\n  tag_1\n  jumpi\n  0x00\n  dup1\n  revert\ntag_1:\n  pop\n    /* \"marrige.sol\":1406:1416  msg.sender */\n  caller\n    /* \"marrige.sol\":1396:1403  spouse1 */\n  0x00\n  dup1\n    /* \"marrige.sol\":1396:1416  spouse1 = msg.sender */\n  0x0100\n  exp\n  dup2\n  sload\n  dup2\n  0xffffffffffffffffffffffffffffffffffffffff\n  mul\n  not\n  and\n  swap1\n  dup4\n  0xffffffffffffffffffffffffffffffffffffffff\n  and\n  mul\n  or\n  swap1\n  sstore\n  pop\n    /* \"marrige.sol\":1438:1443  false */\n  0x00\n    /* \"marrige.sol\":1426:1435  isEngaged */\n  0x01\n  0x14\n    /* \"marrige.sol\":1426:1443  isEngaged = false */\n  0x0100\n  exp\n  dup2\n  sload\n  dup2\n  0xff\n  mul\n  not\n  and\n  swap1\n  dup4\n  iszero\n  iszero\n  mul\n  or\n  swap1\n  sstore\n  pop\n    /* \"marrige.sol\":1465:1470  false */\n  0x00\n    /* \"marrige.sol\":1453:1462  isMarried */\n  0x01\n  0x15\n    /* \"marrige.sol\":1453:1470  isMarried = false */\n  0x0100\n  exp\n  dup2\n  sload\n  dup2\n  0xff\n  mul\n  not\n  and\n  swap1\n  dup4\n  iszero\n  iszero\n  mul\n  or\n  swap1\n  sstore\n  pop\n    /* \"marrige.sol\":58:2542  contract MarriageContract {... */\n  dataSize(sub_0)\n  dup1\n  dataOffset(sub_0)\n  0x00\n  codecopy\n  0x00\n  return\nstop\n\nsub_0: assembly {\n        /* \"marrige.sol\":58:2542  contract MarriageContract {... */\n      mstore(0x40, 0x80)\n      callvalue\n      dup1\n      iszero\n      tag_1\n      jumpi\n      0x00\n      dup1\n      revert\n    tag_1:\n      pop\n      jumpi(tag_2, lt(calldatasize, 0x04))\n      shr(0xe0, calldataload(0x00))\n      dup1\n      0x6ac1733f\n      gt\n      tag_18\n      jumpi\n      dup1\n      0xad605729\n      gt\n      tag_19\n      jumpi\n      dup1\n      0xad605729\n      eq\n      tag_14\n      jumpi\n      dup1\n      0xc21f5d84\n      eq\n      tag_15\n      jumpi\n      dup1\n      0xc36a160d\n      eq\n      tag_16\n      jumpi\n      dup1\n      0xdfafe10f\n      eq\n      tag_17\n      jumpi\n      jump(tag_2)\n    tag_19:\n      dup1\n      0x6ac1733f\n      eq\n      tag_10\n      jumpi\n      dup1\n      0x85b9a11f\n      eq\n      tag_11\n      jumpi\n      dup1\n      0x90f1e756\n      eq\n      tag_12\n      jumpi\n      dup1\n      0xa702314d\n      eq\n      tag_13\n      jumpi\n      jump(tag_2)\n    tag_18:\n      dup1\n      0x35c1d349\n      gt\n      tag_20\n      jumpi\n      dup1\n      0x35c1d349\n      eq\n      tag_6\n      jumpi\n      dup1\n      0x378aa701\n      eq\n      tag_7\n      jumpi\n      dup1\n      0x61b58b46\n      eq\n      tag_8\n      jumpi\n      dup1\n      0x65a4cabc\n      eq\n      tag_9\n      jumpi\n      jump(tag_2)\n    tag_20:\n      dup1\n      0x0c3f6acf\n      eq\n      tag_3\n      jumpi\n      dup1\n      0x17e15d28\n      eq\n      tag_4\n      jumpi\n      dup1\n      0x2fc5a6df\n      eq\n      tag_5\n      jumpi\n    tag_2:\n      0x00\n      dup1\n      revert\n        /* \"marrige.sol\":374:399  State public currentState */\n    tag_3:\n      tag_21\n      tag_22\n      jump\t// in\n    tag_21:\n      mload(0x40)\n      tag_23\n      swap2\n      swap1\n      tag_24\n      jump\t// in\n    tag_23:\n      mload(0x40)\n      dup1\n      swap2\n      sub\n      swap1\n      return\n        /* \"marrige.sol\":577:768  function transitionToAborted() public {... */\n    tag_4:\n      tag_25\n      tag_26\n      jump\t// in\n    tag_25:\n      stop\n        /* \"marrige.sol\":223:247  uint16 public weddingDay */\n    tag_5:\n      tag_27\n      tag_28\n      jump\t// in\n    tag_27:\n      mload(0x40)\n      tag_29\n      swap2\n      swap1\n      tag_30\n      jump\t// in\n    tag_29:\n      mload(0x40)\n      dup1\n      swap2\n      sub\n      swap1\n      return\n        /* \"marrige.sol\":254:283  address[] public participants */\n    tag_6:\n      tag_31\n      0x04\n      dup1\n      calldatasize\n      sub\n      dup2\n      add\n      swap1\n      tag_32\n      swap2\n      swap1\n      tag_33\n      jump\t// in\n    tag_32:\n      tag_34\n      jump\t// in\n    tag_31:\n      mload(0x40)\n      tag_35\n      swap2\n      swap1\n      tag_36\n      jump\t// in\n    tag_35:\n      mload(0x40)\n      dup1\n      swap2\n      sub\n      swap1\n      return\n        /* \"marrige.sol\":1097:1188  function getCurrentState() public view returns (State) {... */\n    tag_7:\n      tag_37\n      tag_38\n      jump\t// in\n    tag_37:\n      mload(0x40)\n      tag_39\n      swap2\n      swap1\n      tag_24\n      jump\t// in\n    tag_39:\n      mload(0x40)\n      dup1\n      swap2\n      sub\n      swap1\n      return\n        /* \"marrige.sol\":1880:2064  function getParticipantByIndex(uint index) public view returns (address) {... */\n    tag_8:\n      tag_40\n      0x04\n      dup1\n      calldatasize\n      sub\n      dup2\n      add\n      swap1\n      tag_41\n      swap2\n      swap1\n      tag_33\n      jump\t// in\n    tag_41:\n      tag_42\n      jump\t// in\n    tag_40:\n      mload(0x40)\n      tag_43\n      swap2\n      swap1\n      tag_36\n      jump\t// in\n    tag_43:\n      mload(0x40)\n      dup1\n      swap2\n      sub\n      swap1\n      return\n        /* \"marrige.sol\":406:571  function transitionToRegistered() public {... */\n    tag_9:\n      tag_44\n      tag_45\n      jump\t// in\n    tag_44:\n      stop\n        /* \"marrige.sol\":2098:2356  function engage(address _spouse2) public {... */\n    tag_10:\n      tag_46\n      0x04\n      dup1\n      calldatasize\n      sub\n      dup2\n      add\n      swap1\n      tag_47\n      swap2\n      swap1\n      tag_48\n      jump\t// in\n    tag_47:\n      tag_49\n      jump\t// in\n    tag_46:\n      stop\n        /* \"marrige.sol\":2362:2540  function marry() public onlySpouse {... */\n    tag_11:\n      tag_50\n      tag_51\n      jump\t// in\n    tag_50:\n      stop\n        /* \"marrige.sol\":168:189  bool public isEngaged */\n    tag_12:\n      tag_52\n      tag_53\n      jump\t// in\n    tag_52:\n      mload(0x40)\n      tag_54\n      swap2\n      swap1\n      tag_55\n      jump\t// in\n    tag_54:\n      mload(0x40)\n      dup1\n      swap2\n      sub\n      swap1\n      return\n        /* \"marrige.sol\":195:216  bool public isMarried */\n    tag_13:\n      tag_56\n      tag_57\n      jump\t// in\n    tag_56:\n      mload(0x40)\n      tag_58\n      swap2\n      swap1\n      tag_55\n      jump\t// in\n    tag_58:\n      mload(0x40)\n      dup1\n      swap2\n      sub\n      swap1\n      return\n        /* \"marrige.sol\":1774:1875  function getParticipantCount() public view returns (uint) {... */\n    tag_14:\n      tag_59\n      tag_60\n      jump\t// in\n    tag_59:\n      mload(0x40)\n      tag_61\n      swap2\n      swap1\n      tag_62\n      jump\t// in\n    tag_61:\n      mload(0x40)\n      dup1\n      swap2\n      sub\n      swap1\n      return\n        /* \"marrige.sol\":773:927  function transitionToWed() public {... */\n    tag_15:\n      tag_63\n      tag_64\n      jump\t// in\n    tag_63:\n      stop\n        /* \"marrige.sol\":932:1091  function transitionToInvalid() public {... */\n    tag_16:\n      tag_65\n      tag_66\n      jump\t// in\n    tag_65:\n      stop\n        /* \"marrige.sol\":1667:1768  function addParticipant(address _participant) public {... */\n    tag_17:\n      tag_67\n      0x04\n      dup1\n      calldatasize\n      sub\n      dup2\n      add\n      swap1\n      tag_68\n      swap2\n      swap1\n      tag_48\n      jump\t// in\n    tag_68:\n      tag_69\n      jump\t// in\n    tag_67:\n      stop\n        /* \"marrige.sol\":374:399  State public currentState */\n    tag_22:\n      0x03\n      0x00\n      swap1\n      sload\n      swap1\n      0x0100\n      exp\n      swap1\n      div\n      0xff\n      and\n      dup2\n      jump\t// out\n        /* \"marrige.sol\":577:768  function transitionToAborted() public {... */\n    tag_26:\n        /* \"marrige.sol\":649:665  State.Registered */\n      0x01\n        /* \"marrige.sol\":633:665  currentState == State.Registered */\n      0x04\n      dup2\n      gt\n      iszero\n      tag_71\n      jumpi\n      tag_72\n      tag_73\n      jump\t// in\n    tag_72:\n    tag_71:\n        /* \"marrige.sol\":633:645  currentState */\n      0x03\n      0x00\n      swap1\n      sload\n      swap1\n      0x0100\n      exp\n      swap1\n      div\n      0xff\n      and\n        /* \"marrige.sol\":633:665  currentState == State.Registered */\n      0x04\n      dup2\n      gt\n      iszero\n      tag_74\n      jumpi\n      tag_75\n      tag_73\n      jump\t// in\n    tag_75:\n    tag_74:\n      eq\n        /* \"marrige.sol\":633:694  currentState == State.Registered || currentState == State.Wed */\n      dup1\n      tag_76\n      jumpi\n      pop\n        /* \"marrige.sol\":685:694  State.Wed */\n      0x03\n        /* \"marrige.sol\":669:694  currentState == State.Wed */\n      0x04\n      dup2\n      gt\n      iszero\n      tag_77\n      jumpi\n      tag_78\n      tag_73\n      jump\t// in\n    tag_78:\n    tag_77:\n        /* \"marrige.sol\":669:681  currentState */\n      0x03\n      0x00\n      swap1\n      sload\n      swap1\n      0x0100\n      exp\n      swap1\n      div\n      0xff\n      and\n        /* \"marrige.sol\":669:694  currentState == State.Wed */\n      0x04\n      dup2\n      gt\n      iszero\n      tag_79\n      jumpi\n      tag_80\n      tag_73\n      jump\t// in\n    tag_80:\n    tag_79:\n      eq\n        /* \"marrige.sol\":633:694  currentState == State.Registered || currentState == State.Wed */\n    tag_76:\n        /* \"marrige.sol\":625:723  require(currentState == State.Registered || currentState == State.Wed, \"Invalid state transition\") */\n      tag_81\n      jumpi\n      mload(0x40)\n      0x08c379a000000000000000000000000000000000000000000000000000000000\n      dup2\n      mstore\n      0x04\n      add\n      tag_82\n      swap1\n      tag_83\n      jump\t// in\n    tag_82:\n      mload(0x40)\n      dup1\n      swap2\n      sub\n      swap1\n      revert\n    tag_81:\n        /* \"marrige.sol\":748:761  State.Aborted */\n      0x02\n        /* \"marrige.sol\":733:745  currentState */\n      0x03\n      0x00\n        /* \"marrige.sol\":733:761  currentState = State.Aborted */\n      0x0100\n      exp\n      dup2\n      sload\n      dup2\n      0xff\n      mul\n      not\n      and\n      swap1\n      dup4\n      0x04\n      dup2\n      gt\n      iszero\n      tag_84\n      jumpi\n      tag_85\n      tag_73\n      jump\t// in\n    tag_85:\n    tag_84:\n      mul\n      or\n      swap1\n      sstore\n      pop\n        /* \"marrige.sol\":577:768  function transitionToAborted() public {... */\n      jump\t// out\n        /* \"marrige.sol\":223:247  uint16 public weddingDay */\n    tag_28:\n      0x01\n      0x16\n      swap1\n      sload\n      swap1\n      0x0100\n      exp\n      swap1\n      div\n      0xffff\n      and\n      dup2\n      jump\t// out\n        /* \"marrige.sol\":254:283  address[] public participants */\n    tag_34:\n      0x02\n      dup2\n      dup2\n      sload\n      dup2\n      lt\n      tag_86\n      jumpi\n      0x00\n      dup1\n      revert\n    tag_86:\n      swap1\n      0x00\n      mstore\n      keccak256(0x00, 0x20)\n      add\n      0x00\n      swap2\n      pop\n      sload\n      swap1\n      0x0100\n      exp\n      swap1\n      div\n      0xffffffffffffffffffffffffffffffffffffffff\n      and\n      dup2\n      jump\t// out\n        /* \"marrige.sol\":1097:1188  function getCurrentState() public view returns (State) {... */\n    tag_38:\n        /* \"marrige.sol\":1145:1150  State */\n      0x00\n        /* \"marrige.sol\":1169:1181  currentState */\n      0x03\n      0x00\n      swap1\n      sload\n      swap1\n      0x0100\n      exp\n      swap1\n      div\n      0xff\n      and\n        /* \"marrige.sol\":1162:1181  return currentState */\n      swap1\n      pop\n        /* \"marrige.sol\":1097:1188  function getCurrentState() public view returns (State) {... */\n      swap1\n      jump\t// out\n        /* \"marrige.sol\":1880:2064  function getParticipantByIndex(uint index) public view returns (address) {... */\n    tag_42:\n        /* \"marrige.sol\":1944:1951  address */\n      0x00\n        /* \"marrige.sol\":1979:1991  participants */\n      0x02\n        /* \"marrige.sol\":1979:1998  participants.length */\n      dup1\n      sload\n      swap1\n      pop\n        /* \"marrige.sol\":1971:1976  index */\n      dup3\n        /* \"marrige.sol\":1971:1998  index < participants.length */\n      lt\n        /* \"marrige.sol\":1963:2021  require(index < participants.length, \"Index out of range\") */\n      tag_90\n      jumpi\n      mload(0x40)\n      0x08c379a000000000000000000000000000000000000000000000000000000000\n      dup2\n      mstore\n      0x04\n      add\n      tag_91\n      swap1\n      tag_92\n      jump\t// in\n    tag_91:\n      mload(0x40)\n      dup1\n      swap2\n      sub\n      swap1\n      revert\n    tag_90:\n        /* \"marrige.sol\":2038:2050  participants */\n      0x02\n        /* \"marrige.sol\":2051:2056  index */\n      dup3\n        /* \"marrige.sol\":2038:2057  participants[index] */\n      dup2\n      sload\n      dup2\n      lt\n      tag_93\n      jumpi\n      tag_94\n      tag_95\n      jump\t// in\n    tag_94:\n    tag_93:\n      swap1\n      0x00\n      mstore\n      keccak256(0x00, 0x20)\n      add\n      0x00\n      swap1\n      sload\n      swap1\n      0x0100\n      exp\n      swap1\n      div\n      0xffffffffffffffffffffffffffffffffffffffff\n      and\n        /* \"marrige.sol\":2031:2057  return participants[index] */\n      swap1\n      pop\n        /* \"marrige.sol\":1880:2064  function getParticipantByIndex(uint index) public view returns (address) {... */\n      swap2\n      swap1\n      pop\n      jump\t// out\n        /* \"marrige.sol\":406:571  function transitionToRegistered() public {... */\n    tag_45:\n        /* \"marrige.sol\":481:494  State.Created */\n      0x00\n        /* \"marrige.sol\":465:494  currentState == State.Created */\n      0x04\n      dup2\n      gt\n      iszero\n      tag_98\n      jumpi\n      tag_99\n      tag_73\n      jump\t// in\n    tag_99:\n    tag_98:\n        /* \"marrige.sol\":465:477  currentState */\n      0x03\n      0x00\n      swap1\n      sload\n      swap1\n      0x0100\n      exp\n      swap1\n      div\n      0xff\n      and\n        /* \"marrige.sol\":465:494  currentState == State.Created */\n      0x04\n      dup2\n      gt\n      iszero\n      tag_100\n      jumpi\n      tag_101\n      tag_73\n      jump\t// in\n    tag_101:\n    tag_100:\n      eq\n        /* \"marrige.sol\":457:523  require(currentState == State.Created, \"Invalid state transition\") */\n      tag_102\n      jumpi\n      mload(0x40)\n      0x08c379a000000000000000000000000000000000000000000000000000000000\n      dup2\n      mstore\n      0x04\n      add\n      tag_103\n      swap1\n      tag_83\n      jump\t// in\n    tag_103:\n      mload(0x40)\n      dup1\n      swap2\n      sub\n      swap1\n      revert\n    tag_102:\n        /* \"marrige.sol\":548:564  State.Registered */\n      0x01\n        /* \"marrige.sol\":533:545  currentState */\n      0x03\n      0x00\n        /* \"marrige.sol\":533:564  currentState = State.Registered */\n      0x0100\n      exp\n      dup2\n      sload\n      dup2\n      0xff\n      mul\n      not\n      and\n      swap1\n      dup4\n      0x04\n      dup2\n      gt\n      iszero\n      tag_104\n      jumpi\n      tag_105\n      tag_73\n      jump\t// in\n    tag_105:\n    tag_104:\n      mul\n      or\n      swap1\n      sstore\n      pop\n        /* \"marrige.sol\":406:571  function transitionToRegistered() public {... */\n      jump\t// out\n        /* \"marrige.sol\":2098:2356  function engage(address _spouse2) public {... */\n    tag_49:\n        /* \"marrige.sol\":2158:2167  isEngaged */\n      0x01\n      0x14\n      swap1\n      sload\n      swap1\n      0x0100\n      exp\n      swap1\n      div\n      0xff\n      and\n        /* \"marrige.sol\":2157:2167  !isEngaged */\n      iszero\n        /* \"marrige.sol\":2149:2187  require(!isEngaged, \"Already engaged\") */\n      tag_107\n      jumpi\n      mload(0x40)\n      0x08c379a000000000000000000000000000000000000000000000000000000000\n      dup2\n      mstore\n      0x04\n      add\n      tag_108\n      swap1\n      tag_109\n      jump\t// in\n    tag_108:\n      mload(0x40)\n      dup1\n      swap2\n      sub\n      swap1\n      revert\n    tag_107:\n        /* \"marrige.sol\":2219:2227  _spouse2 */\n      dup1\n        /* \"marrige.sol\":2205:2227  msg.sender != _spouse2 */\n      0xffffffffffffffffffffffffffffffffffffffff\n      and\n        /* \"marrige.sol\":2205:2215  msg.sender */\n      caller\n        /* \"marrige.sol\":2205:2227  msg.sender != _spouse2 */\n      0xffffffffffffffffffffffffffffffffffffffff\n      and\n      sub\n        /* \"marrige.sol\":2197:2253  require(msg.sender != _spouse2, \"Cannot marry yourself\") */\n      tag_110\n      jumpi\n      mload(0x40)\n      0x08c379a000000000000000000000000000000000000000000000000000000000\n      dup2\n      mstore\n      0x04\n      add\n      tag_111\n      swap1\n      tag_112\n      jump\t// in\n    tag_111:\n      mload(0x40)\n      dup1\n      swap2\n      sub\n      swap1\n      revert\n    tag_110:\n        /* \"marrige.sol\":2274:2282  _spouse2 */\n      dup1\n        /* \"marrige.sol\":2264:2271  spouse2 */\n      0x01\n      0x00\n        /* \"marrige.sol\":2264:2282  spouse2 = _spouse2 */\n      0x0100\n      exp\n      dup2\n      sload\n      dup2\n      0xffffffffffffffffffffffffffffffffffffffff\n      mul\n      not\n      and\n      swap1\n      dup4\n      0xffffffffffffffffffffffffffffffffffffffff\n      and\n      mul\n      or\n      swap1\n      sstore\n      pop\n        /* \"marrige.sol\":2304:2308  true */\n      0x01\n        /* \"marrige.sol\":2292:2301  isEngaged */\n      dup1\n      0x14\n        /* \"marrige.sol\":2292:2308  isEngaged = true */\n      0x0100\n      exp\n      dup2\n      sload\n      dup2\n      0xff\n      mul\n      not\n      and\n      swap1\n      dup4\n      iszero\n      iszero\n      mul\n      or\n      swap1\n      sstore\n      pop\n        /* \"marrige.sol\":2341:2348  spouse2 */\n      0x01\n      0x00\n      swap1\n      sload\n      swap1\n      0x0100\n      exp\n      swap1\n      div\n      0xffffffffffffffffffffffffffffffffffffffff\n      and\n        /* \"marrige.sol\":2324:2349  Engaged(spouse1, spouse2) */\n      0xffffffffffffffffffffffffffffffffffffffff\n      and\n        /* \"marrige.sol\":2332:2339  spouse1 */\n      0x00\n      dup1\n      sload\n      swap1\n      0x0100\n      exp\n      swap1\n      div\n      0xffffffffffffffffffffffffffffffffffffffff\n      and\n        /* \"marrige.sol\":2324:2349  Engaged(spouse1, spouse2) */\n      0xffffffffffffffffffffffffffffffffffffffff\n      and\n      0x0655a45d06bbb71039d6dc070f5dbb8143a5c0bce1efcea7dec3b66237d9edd5\n      mload(0x40)\n      mload(0x40)\n      dup1\n      swap2\n      sub\n      swap1\n      log3\n        /* \"marrige.sol\":2098:2356  function engage(address _spouse2) public {... */\n      pop\n      jump\t// out\n        /* \"marrige.sol\":2362:2540  function marry() public onlySpouse {... */\n    tag_51:\n        /* \"marrige.sol\":1538:1545  spouse1 */\n      0x00\n      dup1\n      sload\n      swap1\n      0x0100\n      exp\n      swap1\n      div\n      0xffffffffffffffffffffffffffffffffffffffff\n      and\n        /* \"marrige.sol\":1524:1545  msg.sender == spouse1 */\n      0xffffffffffffffffffffffffffffffffffffffff\n      and\n        /* \"marrige.sol\":1524:1534  msg.sender */\n      caller\n        /* \"marrige.sol\":1524:1545  msg.sender == spouse1 */\n      0xffffffffffffffffffffffffffffffffffffffff\n      and\n      eq\n        /* \"marrige.sol\":1524:1570  msg.sender == spouse1 || msg.sender == spouse2 */\n      dup1\n      tag_114\n      jumpi\n      pop\n        /* \"marrige.sol\":1563:1570  spouse2 */\n      0x01\n      0x00\n      swap1\n      sload\n      swap1\n      0x0100\n      exp\n      swap1\n      div\n      0xffffffffffffffffffffffffffffffffffffffff\n      and\n        /* \"marrige.sol\":1549:1570  msg.sender == spouse2 */\n      0xffffffffffffffffffffffffffffffffffffffff\n      and\n        /* \"marrige.sol\":1549:1559  msg.sender */\n      caller\n        /* \"marrige.sol\":1549:1570  msg.sender == spouse2 */\n      0xffffffffffffffffffffffffffffffffffffffff\n      and\n      eq\n        /* \"marrige.sol\":1524:1570  msg.sender == spouse1 || msg.sender == spouse2 */\n    tag_114:\n        /* \"marrige.sol\":1516:1610  require(msg.sender == spouse1 || msg.sender == spouse2, \"Only spouses can call this function\") */\n      tag_115\n      jumpi\n      mload(0x40)\n      0x08c379a000000000000000000000000000000000000000000000000000000000\n      dup2\n      mstore\n      0x04\n      add\n      tag_116\n      swap1\n      tag_117\n      jump\t// in\n    tag_116:\n      mload(0x40)\n      dup1\n      swap2\n      sub\n      swap1\n      revert\n    tag_115:\n        /* \"marrige.sol\":2415:2424  isEngaged */\n      0x01\n      0x14\n      swap1\n      sload\n      swap1\n      0x0100\n      exp\n      swap1\n      div\n      0xff\n      and\n        /* \"marrige.sol\":2407:2466  require(isEngaged, \"Both spouses must be engaged to marry\") */\n      tag_119\n      jumpi\n      mload(0x40)\n      0x08c379a000000000000000000000000000000000000000000000000000000000\n      dup2\n      mstore\n      0x04\n      add\n      tag_120\n      swap1\n      tag_121\n      jump\t// in\n    tag_120:\n      mload(0x40)\n      dup1\n      swap2\n      sub\n      swap1\n      revert\n    tag_119:\n        /* \"marrige.sol\":2489:2493  true */\n      0x01\n        /* \"marrige.sol\":2477:2486  isMarried */\n      dup1\n      0x15\n        /* \"marrige.sol\":2477:2493  isMarried = true */\n      0x0100\n      exp\n      dup2\n      sload\n      dup2\n      0xff\n      mul\n      not\n      and\n      swap1\n      dup4\n      iszero\n      iszero\n      mul\n      or\n      swap1\n      sstore\n      pop\n        /* \"marrige.sol\":2525:2532  spouse2 */\n      0x01\n      0x00\n      swap1\n      sload\n      swap1\n      0x0100\n      exp\n      swap1\n      div\n      0xffffffffffffffffffffffffffffffffffffffff\n      and\n        /* \"marrige.sol\":2508:2533  Married(spouse1, spouse2) */\n      0xffffffffffffffffffffffffffffffffffffffff\n      and\n        /* \"marrige.sol\":2516:2523  spouse1 */\n      0x00\n      dup1\n      sload\n      swap1\n      0x0100\n      exp\n      swap1\n      div\n      0xffffffffffffffffffffffffffffffffffffffff\n      and\n        /* \"marrige.sol\":2508:2533  Married(spouse1, spouse2) */\n      0xffffffffffffffffffffffffffffffffffffffff\n      and\n      0xc89ef770a4ad395ebdc22b63de541b88daf19f335056f203fa06e4154b62bb7b\n      mload(0x40)\n      mload(0x40)\n      dup1\n      swap2\n      sub\n      swap1\n      log3\n        /* \"marrige.sol\":2362:2540  function marry() public onlySpouse {... */\n      jump\t// out\n        /* \"marrige.sol\":168:189  bool public isEngaged */\n    tag_53:\n      0x01\n      0x14\n      swap1\n      sload\n      swap1\n      0x0100\n      exp\n      swap1\n      div\n      0xff\n      and\n      dup2\n      jump\t// out\n        /* \"marrige.sol\":195:216  bool public isMarried */\n    tag_57:\n      0x01\n      0x15\n      swap1\n      sload\n      swap1\n      0x0100\n      exp\n      swap1\n      div\n      0xff\n      and\n      dup2\n      jump\t// out\n        /* \"marrige.sol\":1774:1875  function getParticipantCount() public view returns (uint) {... */\n    tag_60:\n        /* \"marrige.sol\":1826:1830  uint */\n      0x00\n        /* \"marrige.sol\":1849:1861  participants */\n      0x02\n        /* \"marrige.sol\":1849:1868  participants.length */\n      dup1\n      sload\n      swap1\n      pop\n        /* \"marrige.sol\":1842:1868  return participants.length */\n      swap1\n      pop\n        /* \"marrige.sol\":1774:1875  function getParticipantCount() public view returns (uint) {... */\n      swap1\n      jump\t// out\n        /* \"marrige.sol\":773:927  function transitionToWed() public {... */\n    tag_64:\n        /* \"marrige.sol\":841:857  State.Registered */\n      0x01\n        /* \"marrige.sol\":825:857  currentState == State.Registered */\n      0x04\n      dup2\n      gt\n      iszero\n      tag_124\n      jumpi\n      tag_125\n      tag_73\n      jump\t// in\n    tag_125:\n    tag_124:\n        /* \"marrige.sol\":825:837  currentState */\n      0x03\n      0x00\n      swap1\n      sload\n      swap1\n      0x0100\n      exp\n      swap1\n      div\n      0xff\n      and\n        /* \"marrige.sol\":825:857  currentState == State.Registered */\n      0x04\n      dup2\n      gt\n      iszero\n      tag_126\n      jumpi\n      tag_127\n      tag_73\n      jump\t// in\n    tag_127:\n    tag_126:\n      eq\n        /* \"marrige.sol\":817:886  require(currentState == State.Registered, \"Invalid state transition\") */\n      tag_128\n      jumpi\n      mload(0x40)\n      0x08c379a000000000000000000000000000000000000000000000000000000000\n      dup2\n      mstore\n      0x04\n      add\n      tag_129\n      swap1\n      tag_83\n      jump\t// in\n    tag_129:\n      mload(0x40)\n      dup1\n      swap2\n      sub\n      swap1\n      revert\n    tag_128:\n        /* \"marrige.sol\":911:920  State.Wed */\n      0x03\n        /* \"marrige.sol\":896:908  currentState */\n      dup1\n      0x00\n        /* \"marrige.sol\":896:920  currentState = State.Wed */\n      0x0100\n      exp\n      dup2\n      sload\n      dup2\n      0xff\n      mul\n      not\n      and\n      swap1\n      dup4\n      0x04\n      dup2\n      gt\n      iszero\n      tag_130\n      jumpi\n      tag_131\n      tag_73\n      jump\t// in\n    tag_131:\n    tag_130:\n      mul\n      or\n      swap1\n      sstore\n      pop\n        /* \"marrige.sol\":773:927  function transitionToWed() public {... */\n      jump\t// out\n        /* \"marrige.sol\":932:1091  function transitionToInvalid() public {... */\n    tag_66:\n        /* \"marrige.sol\":1004:1017  State.Aborted */\n      0x02\n        /* \"marrige.sol\":988:1017  currentState != State.Aborted */\n      0x04\n      dup2\n      gt\n      iszero\n      tag_133\n      jumpi\n      tag_134\n      tag_73\n      jump\t// in\n    tag_134:\n    tag_133:\n        /* \"marrige.sol\":988:1000  currentState */\n      0x03\n      0x00\n      swap1\n      sload\n      swap1\n      0x0100\n      exp\n      swap1\n      div\n      0xff\n      and\n        /* \"marrige.sol\":988:1017  currentState != State.Aborted */\n      0x04\n      dup2\n      gt\n      iszero\n      tag_135\n      jumpi\n      tag_136\n      tag_73\n      jump\t// in\n    tag_136:\n    tag_135:\n      sub\n        /* \"marrige.sol\":980:1046  require(currentState != State.Aborted, \"invalid state transition\") */\n      tag_137\n      jumpi\n      mload(0x40)\n      0x08c379a000000000000000000000000000000000000000000000000000000000\n      dup2\n      mstore\n      0x04\n      add\n      tag_138\n      swap1\n      tag_139\n      jump\t// in\n    tag_138:\n      mload(0x40)\n      dup1\n      swap2\n      sub\n      swap1\n      revert\n    tag_137:\n        /* \"marrige.sol\":1071:1084  State.Invalid */\n      0x04\n        /* \"marrige.sol\":1056:1068  currentState */\n      0x03\n      0x00\n        /* \"marrige.sol\":1056:1084  currentState = State.Invalid */\n      0x0100\n      exp\n      dup2\n      sload\n      dup2\n      0xff\n      mul\n      not\n      and\n      swap1\n      dup4\n      0x04\n      dup2\n      gt\n      iszero\n      tag_140\n      jumpi\n      tag_141\n      tag_73\n      jump\t// in\n    tag_141:\n    tag_140:\n      mul\n      or\n      swap1\n      sstore\n      pop\n        /* \"marrige.sol\":932:1091  function transitionToInvalid() public {... */\n      jump\t// out\n        /* \"marrige.sol\":1667:1768  function addParticipant(address _participant) public {... */\n    tag_69:\n        /* \"marrige.sol\":1730:1742  participants */\n      0x02\n        /* \"marrige.sol\":1748:1760  _participant */\n      dup2\n        /* \"marrige.sol\":1730:1761  participants.push(_participant) */\n      swap1\n      dup1\n      0x01\n      dup2\n      sload\n      add\n      dup1\n      dup3\n      sstore\n      dup1\n      swap2\n      pop\n      pop\n      0x01\n      swap1\n      sub\n      swap1\n      0x00\n      mstore\n      keccak256(0x00, 0x20)\n      add\n      0x00\n      swap1\n      swap2\n      swap1\n      swap2\n      swap1\n      swap2\n      0x0100\n      exp\n      dup2\n      sload\n      dup2\n      0xffffffffffffffffffffffffffffffffffffffff\n      mul\n      not\n      and\n      swap1\n      dup4\n      0xffffffffffffffffffffffffffffffffffffffff\n      and\n      mul\n      or\n      swap1\n      sstore\n      pop\n        /* \"marrige.sol\":1667:1768  function addParticipant(address _participant) public {... */\n      pop\n      jump\t// out\n        /* \"#utility.yul\":7:187   */\n    tag_73:\n        /* \"#utility.yul\":55:132   */\n      0x4e487b7100000000000000000000000000000000000000000000000000000000\n        /* \"#utility.yul\":52:53   */\n      0x00\n        /* \"#utility.yul\":45:133   */\n      mstore\n        /* \"#utility.yul\":152:156   */\n      0x21\n        /* \"#utility.yul\":149:150   */\n      0x04\n        /* \"#utility.yul\":142:157   */\n      mstore\n        /* \"#utility.yul\":176:180   */\n      0x24\n        /* \"#utility.yul\":173:174   */\n      0x00\n        /* \"#utility.yul\":166:181   */\n      revert\n        /* \"#utility.yul\":193:306   */\n    tag_144:\n        /* \"#utility.yul\":274:275   */\n      0x05\n        /* \"#utility.yul\":267:272   */\n      dup2\n        /* \"#utility.yul\":264:276   */\n      lt\n        /* \"#utility.yul\":254:300   */\n      tag_182\n      jumpi\n        /* \"#utility.yul\":280:298   */\n      tag_183\n      tag_73\n      jump\t// in\n    tag_183:\n        /* \"#utility.yul\":254:300   */\n    tag_182:\n        /* \"#utility.yul\":193:306   */\n      pop\n      jump\t// out\n        /* \"#utility.yul\":312:439   */\n    tag_145:\n        /* \"#utility.yul\":357:364   */\n      0x00\n        /* \"#utility.yul\":386:391   */\n      dup2\n        /* \"#utility.yul\":375:391   */\n      swap1\n      pop\n        /* \"#utility.yul\":392:433   */\n      tag_185\n        /* \"#utility.yul\":427:432   */\n      dup3\n        /* \"#utility.yul\":392:433   */\n      tag_144\n      jump\t// in\n    tag_185:\n        /* \"#utility.yul\":312:439   */\n      swap2\n      swap1\n      pop\n      jump\t// out\n        /* \"#utility.yul\":445:572   */\n    tag_146:\n        /* \"#utility.yul\":501:510   */\n      0x00\n        /* \"#utility.yul\":534:566   */\n      tag_187\n        /* \"#utility.yul\":560:565   */\n      dup3\n        /* \"#utility.yul\":534:566   */\n      tag_145\n      jump\t// in\n    tag_187:\n        /* \"#utility.yul\":521:566   */\n      swap1\n      pop\n        /* \"#utility.yul\":445:572   */\n      swap2\n      swap1\n      pop\n      jump\t// out\n        /* \"#utility.yul\":578:721   */\n    tag_147:\n        /* \"#utility.yul\":671:714   */\n      tag_189\n        /* \"#utility.yul\":708:713   */\n      dup2\n        /* \"#utility.yul\":671:714   */\n      tag_146\n      jump\t// in\n    tag_189:\n        /* \"#utility.yul\":666:669   */\n      dup3\n        /* \"#utility.yul\":659:715   */\n      mstore\n        /* \"#utility.yul\":578:721   */\n      pop\n      pop\n      jump\t// out\n        /* \"#utility.yul\":727:961   */\n    tag_24:\n        /* \"#utility.yul\":826:830   */\n      0x00\n        /* \"#utility.yul\":864:866   */\n      0x20\n        /* \"#utility.yul\":853:862   */\n      dup3\n        /* \"#utility.yul\":849:867   */\n      add\n        /* \"#utility.yul\":841:867   */\n      swap1\n      pop\n        /* \"#utility.yul\":877:954   */\n      tag_191\n        /* \"#utility.yul\":951:952   */\n      0x00\n        /* \"#utility.yul\":940:949   */\n      dup4\n        /* \"#utility.yul\":936:953   */\n      add\n        /* \"#utility.yul\":927:933   */\n      dup5\n        /* \"#utility.yul\":877:954   */\n      tag_147\n      jump\t// in\n    tag_191:\n        /* \"#utility.yul\":727:961   */\n      swap3\n      swap2\n      pop\n      pop\n      jump\t// out\n        /* \"#utility.yul\":967:1056   */\n    tag_148:\n        /* \"#utility.yul\":1003:1010   */\n      0x00\n        /* \"#utility.yul\":1043:1049   */\n      0xffff\n        /* \"#utility.yul\":1036:1041   */\n      dup3\n        /* \"#utility.yul\":1032:1050   */\n      and\n        /* \"#utility.yul\":1021:1050   */\n      swap1\n      pop\n        /* \"#utility.yul\":967:1056   */\n      swap2\n      swap1\n      pop\n      jump\t// out\n        /* \"#utility.yul\":1062:1177   */\n    tag_149:\n        /* \"#utility.yul\":1147:1170   */\n      tag_194\n        /* \"#utility.yul\":1164:1169   */\n      dup2\n        /* \"#utility.yul\":1147:1170   */\n      tag_148\n      jump\t// in\n    tag_194:\n        /* \"#utility.yul\":1142:1145   */\n      dup3\n        /* \"#utility.yul\":1135:1171   */\n      mstore\n        /* \"#utility.yul\":1062:1177   */\n      pop\n      pop\n      jump\t// out\n        /* \"#utility.yul\":1183:1401   */\n    tag_30:\n        /* \"#utility.yul\":1274:1278   */\n      0x00\n        /* \"#utility.yul\":1312:1314   */\n      0x20\n        /* \"#utility.yul\":1301:1310   */\n      dup3\n        /* \"#utility.yul\":1297:1315   */\n      add\n        /* \"#utility.yul\":1289:1315   */\n      swap1\n      pop\n        /* \"#utility.yul\":1325:1394   */\n      tag_196\n        /* \"#utility.yul\":1391:1392   */\n      0x00\n        /* \"#utility.yul\":1380:1389   */\n      dup4\n        /* \"#utility.yul\":1376:1393   */\n      add\n        /* \"#utility.yul\":1367:1373   */\n      dup5\n        /* \"#utility.yul\":1325:1394   */\n      tag_149\n      jump\t// in\n    tag_196:\n        /* \"#utility.yul\":1183:1401   */\n      swap3\n      swap2\n      pop\n      pop\n      jump\t// out\n        /* \"#utility.yul\":1488:1605   */\n    tag_151:\n        /* \"#utility.yul\":1597:1598   */\n      0x00\n        /* \"#utility.yul\":1594:1595   */\n      dup1\n        /* \"#utility.yul\":1587:1599   */\n      revert\n        /* \"#utility.yul\":1734:1811   */\n    tag_153:\n        /* \"#utility.yul\":1771:1778   */\n      0x00\n        /* \"#utility.yul\":1800:1805   */\n      dup2\n        /* \"#utility.yul\":1789:1805   */\n      swap1\n      pop\n        /* \"#utility.yul\":1734:1811   */\n      swap2\n      swap1\n      pop\n      jump\t// out\n        /* \"#utility.yul\":1817:1939   */\n    tag_154:\n        /* \"#utility.yul\":1890:1914   */\n      tag_202\n        /* \"#utility.yul\":1908:1913   */\n      dup2\n        /* \"#utility.yul\":1890:1914   */\n      tag_153\n      jump\t// in\n    tag_202:\n        /* \"#utility.yul\":1883:1888   */\n      dup2\n        /* \"#utility.yul\":1880:1915   */\n      eq\n        /* \"#utility.yul\":1870:1933   */\n      tag_203\n      jumpi\n        /* \"#utility.yul\":1929:1930   */\n      0x00\n        /* \"#utility.yul\":1926:1927   */\n      dup1\n        /* \"#utility.yul\":1919:1931   */\n      revert\n        /* \"#utility.yul\":1870:1933   */\n    tag_203:\n        /* \"#utility.yul\":1817:1939   */\n      pop\n      jump\t// out\n        /* \"#utility.yul\":1945:2084   */\n    tag_155:\n        /* \"#utility.yul\":1991:1996   */\n      0x00\n        /* \"#utility.yul\":2029:2035   */\n      dup2\n        /* \"#utility.yul\":2016:2036   */\n      calldataload\n        /* \"#utility.yul\":2007:2036   */\n      swap1\n      pop\n        /* \"#utility.yul\":2045:2078   */\n      tag_205\n        /* \"#utility.yul\":2072:2077   */\n      dup2\n        /* \"#utility.yul\":2045:2078   */\n      tag_154\n      jump\t// in\n    tag_205:\n        /* \"#utility.yul\":1945:2084   */\n      swap3\n      swap2\n      pop\n      pop\n      jump\t// out\n        /* \"#utility.yul\":2090:2419   */\n    tag_33:\n        /* \"#utility.yul\":2149:2155   */\n      0x00\n        /* \"#utility.yul\":2198:2200   */\n      0x20\n        /* \"#utility.yul\":2186:2195   */\n      dup3\n        /* \"#utility.yul\":2177:2184   */\n      dup5\n        /* \"#utility.yul\":2173:2196   */\n      sub\n        /* \"#utility.yul\":2169:2201   */\n      slt\n        /* \"#utility.yul\":2166:2285   */\n      iszero\n      tag_207\n      jumpi\n        /* \"#utility.yul\":2204:2283   */\n      tag_208\n      tag_151\n      jump\t// in\n    tag_208:\n        /* \"#utility.yul\":2166:2285   */\n    tag_207:\n        /* \"#utility.yul\":2324:2325   */\n      0x00\n        /* \"#utility.yul\":2349:2402   */\n      tag_209\n        /* \"#utility.yul\":2394:2401   */\n      dup5\n        /* \"#utility.yul\":2385:2391   */\n      dup3\n        /* \"#utility.yul\":2374:2383   */\n      dup6\n        /* \"#utility.yul\":2370:2392   */\n      add\n        /* \"#utility.yul\":2349:2402   */\n      tag_155\n      jump\t// in\n    tag_209:\n        /* \"#utility.yul\":2339:2402   */\n      swap2\n      pop\n        /* \"#utility.yul\":2295:2412   */\n      pop\n        /* \"#utility.yul\":2090:2419   */\n      swap3\n      swap2\n      pop\n      pop\n      jump\t// out\n        /* \"#utility.yul\":2425:2551   */\n    tag_156:\n        /* \"#utility.yul\":2462:2469   */\n      0x00\n        /* \"#utility.yul\":2502:2544   */\n      0xffffffffffffffffffffffffffffffffffffffff\n        /* \"#utility.yul\":2495:2500   */\n      dup3\n        /* \"#utility.yul\":2491:2545   */\n      and\n        /* \"#utility.yul\":2480:2545   */\n      swap1\n      pop\n        /* \"#utility.yul\":2425:2551   */\n      swap2\n      swap1\n      pop\n      jump\t// out\n        /* \"#utility.yul\":2557:2653   */\n    tag_157:\n        /* \"#utility.yul\":2594:2601   */\n      0x00\n        /* \"#utility.yul\":2623:2647   */\n      tag_212\n        /* \"#utility.yul\":2641:2646   */\n      dup3\n        /* \"#utility.yul\":2623:2647   */\n      tag_156\n      jump\t// in\n    tag_212:\n        /* \"#utility.yul\":2612:2647   */\n      swap1\n      pop\n        /* \"#utility.yul\":2557:2653   */\n      swap2\n      swap1\n      pop\n      jump\t// out\n        /* \"#utility.yul\":2659:2777   */\n    tag_158:\n        /* \"#utility.yul\":2746:2770   */\n      tag_214\n        /* \"#utility.yul\":2764:2769   */\n      dup2\n        /* \"#utility.yul\":2746:2770   */\n      tag_157\n      jump\t// in\n    tag_214:\n        /* \"#utility.yul\":2741:2744   */\n      dup3\n        /* \"#utility.yul\":2734:2771   */\n      mstore\n        /* \"#utility.yul\":2659:2777   */\n      pop\n      pop\n      jump\t// out\n        /* \"#utility.yul\":2783:3005   */\n    tag_36:\n        /* \"#utility.yul\":2876:2880   */\n      0x00\n        /* \"#utility.yul\":2914:2916   */\n      0x20\n        /* \"#utility.yul\":2903:2912   */\n      dup3\n        /* \"#utility.yul\":2899:2917   */\n      add\n        /* \"#utility.yul\":2891:2917   */\n      swap1\n      pop\n        /* \"#utility.yul\":2927:2998   */\n      tag_216\n        /* \"#utility.yul\":2995:2996   */\n      0x00\n        /* \"#utility.yul\":2984:2993   */\n      dup4\n        /* \"#utility.yul\":2980:2997   */\n      add\n        /* \"#utility.yul\":2971:2977   */\n      dup5\n        /* \"#utility.yul\":2927:2998   */\n      tag_158\n      jump\t// in\n    tag_216:\n        /* \"#utility.yul\":2783:3005   */\n      swap3\n      swap2\n      pop\n      pop\n      jump\t// out\n        /* \"#utility.yul\":3011:3133   */\n    tag_159:\n        /* \"#utility.yul\":3084:3108   */\n      tag_218\n        /* \"#utility.yul\":3102:3107   */\n      dup2\n        /* \"#utility.yul\":3084:3108   */\n      tag_157\n      jump\t// in\n    tag_218:\n        /* \"#utility.yul\":3077:3082   */\n      dup2\n        /* \"#utility.yul\":3074:3109   */\n      eq\n        /* \"#utility.yul\":3064:3127   */\n      tag_219\n      jumpi\n        /* \"#utility.yul\":3123:3124   */\n      0x00\n        /* \"#utility.yul\":3120:3121   */\n      dup1\n        /* \"#utility.yul\":3113:3125   */\n      revert\n        /* \"#utility.yul\":3064:3127   */\n    tag_219:\n        /* \"#utility.yul\":3011:3133   */\n      pop\n      jump\t// out\n        /* \"#utility.yul\":3139:3278   */\n    tag_160:\n        /* \"#utility.yul\":3185:3190   */\n      0x00\n        /* \"#utility.yul\":3223:3229   */\n      dup2\n        /* \"#utility.yul\":3210:3230   */\n      calldataload\n        /* \"#utility.yul\":3201:3230   */\n      swap1\n      pop\n        /* \"#utility.yul\":3239:3272   */\n      tag_221\n        /* \"#utility.yul\":3266:3271   */\n      dup2\n        /* \"#utility.yul\":3239:3272   */\n      tag_159\n      jump\t// in\n    tag_221:\n        /* \"#utility.yul\":3139:3278   */\n      swap3\n      swap2\n      pop\n      pop\n      jump\t// out\n        /* \"#utility.yul\":3284:3613   */\n    tag_48:\n        /* \"#utility.yul\":3343:3349   */\n      0x00\n        /* \"#utility.yul\":3392:3394   */\n      0x20\n        /* \"#utility.yul\":3380:3389   */\n      dup3\n        /* \"#utility.yul\":3371:3378   */\n      dup5\n        /* \"#utility.yul\":3367:3390   */\n      sub\n        /* \"#utility.yul\":3363:3395   */\n      slt\n        /* \"#utility.yul\":3360:3479   */\n      iszero\n      tag_223\n      jumpi\n        /* \"#utility.yul\":3398:3477   */\n      tag_224\n      tag_151\n      jump\t// in\n    tag_224:\n        /* \"#utility.yul\":3360:3479   */\n    tag_223:\n        /* \"#utility.yul\":3518:3519   */\n      0x00\n        /* \"#utility.yul\":3543:3596   */\n      tag_225\n        /* \"#utility.yul\":3588:3595   */\n      dup5\n        /* \"#utility.yul\":3579:3585   */\n      dup3\n        /* \"#utility.yul\":3568:3577   */\n      dup6\n        /* \"#utility.yul\":3564:3586   */\n      add\n        /* \"#utility.yul\":3543:3596   */\n      tag_160\n      jump\t// in\n    tag_225:\n        /* \"#utility.yul\":3533:3596   */\n      swap2\n      pop\n        /* \"#utility.yul\":3489:3606   */\n      pop\n        /* \"#utility.yul\":3284:3613   */\n      swap3\n      swap2\n      pop\n      pop\n      jump\t// out\n        /* \"#utility.yul\":3619:3709   */\n    tag_161:\n        /* \"#utility.yul\":3653:3660   */\n      0x00\n        /* \"#utility.yul\":3696:3701   */\n      dup2\n        /* \"#utility.yul\":3689:3702   */\n      iszero\n        /* \"#utility.yul\":3682:3703   */\n      iszero\n        /* \"#utility.yul\":3671:3703   */\n      swap1\n      pop\n        /* \"#utility.yul\":3619:3709   */\n      swap2\n      swap1\n      pop\n      jump\t// out\n        /* \"#utility.yul\":3715:3824   */\n    tag_162:\n        /* \"#utility.yul\":3796:3817   */\n      tag_228\n        /* \"#utility.yul\":3811:3816   */\n      dup2\n        /* \"#utility.yul\":3796:3817   */\n      tag_161\n      jump\t// in\n    tag_228:\n        /* \"#utility.yul\":3791:3794   */\n      dup3\n        /* \"#utility.yul\":3784:3818   */\n      mstore\n        /* \"#utility.yul\":3715:3824   */\n      pop\n      pop\n      jump\t// out\n        /* \"#utility.yul\":3830:4040   */\n    tag_55:\n        /* \"#utility.yul\":3917:3921   */\n      0x00\n        /* \"#utility.yul\":3955:3957   */\n      0x20\n        /* \"#utility.yul\":3944:3953   */\n      dup3\n        /* \"#utility.yul\":3940:3958   */\n      add\n        /* \"#utility.yul\":3932:3958   */\n      swap1\n      pop\n        /* \"#utility.yul\":3968:4033   */\n      tag_230\n        /* \"#utility.yul\":4030:4031   */\n      0x00\n        /* \"#utility.yul\":4019:4028   */\n      dup4\n        /* \"#utility.yul\":4015:4032   */\n      add\n        /* \"#utility.yul\":4006:4012   */\n      dup5\n        /* \"#utility.yul\":3968:4033   */\n      tag_162\n      jump\t// in\n    tag_230:\n        /* \"#utility.yul\":3830:4040   */\n      swap3\n      swap2\n      pop\n      pop\n      jump\t// out\n        /* \"#utility.yul\":4046:4164   */\n    tag_163:\n        /* \"#utility.yul\":4133:4157   */\n      tag_232\n        /* \"#utility.yul\":4151:4156   */\n      dup2\n        /* \"#utility.yul\":4133:4157   */\n      tag_153\n      jump\t// in\n    tag_232:\n        /* \"#utility.yul\":4128:4131   */\n      dup3\n        /* \"#utility.yul\":4121:4158   */\n      mstore\n        /* \"#utility.yul\":4046:4164   */\n      pop\n      pop\n      jump\t// out\n        /* \"#utility.yul\":4170:4392   */\n    tag_62:\n        /* \"#utility.yul\":4263:4267   */\n      0x00\n        /* \"#utility.yul\":4301:4303   */\n      0x20\n        /* \"#utility.yul\":4290:4299   */\n      dup3\n        /* \"#utility.yul\":4286:4304   */\n      add\n        /* \"#utility.yul\":4278:4304   */\n      swap1\n      pop\n        /* \"#utility.yul\":4314:4385   */\n      tag_234\n        /* \"#utility.yul\":4382:4383   */\n      0x00\n        /* \"#utility.yul\":4371:4380   */\n      dup4\n        /* \"#utility.yul\":4367:4384   */\n      add\n        /* \"#utility.yul\":4358:4364   */\n      dup5\n        /* \"#utility.yul\":4314:4385   */\n      tag_163\n      jump\t// in\n    tag_234:\n        /* \"#utility.yul\":4170:4392   */\n      swap3\n      swap2\n      pop\n      pop\n      jump\t// out\n        /* \"#utility.yul\":4398:4567   */\n    tag_164:\n        /* \"#utility.yul\":4482:4493   */\n      0x00\n        /* \"#utility.yul\":4516:4522   */\n      dup3\n        /* \"#utility.yul\":4511:4514   */\n      dup3\n        /* \"#utility.yul\":4504:4523   */\n      mstore\n        /* \"#utility.yul\":4556:4560   */\n      0x20\n        /* \"#utility.yul\":4551:4554   */\n      dup3\n        /* \"#utility.yul\":4547:4561   */\n      add\n        /* \"#utility.yul\":4532:4561   */\n      swap1\n      pop\n        /* \"#utility.yul\":4398:4567   */\n      swap3\n      swap2\n      pop\n      pop\n      jump\t// out\n        /* \"#utility.yul\":4573:4747   */\n    tag_165:\n        /* \"#utility.yul\":4713:4739   */\n      0x496e76616c6964207374617465207472616e736974696f6e0000000000000000\n        /* \"#utility.yul\":4709:4710   */\n      0x00\n        /* \"#utility.yul\":4701:4707   */\n      dup3\n        /* \"#utility.yul\":4697:4711   */\n      add\n        /* \"#utility.yul\":4690:4740   */\n      mstore\n        /* \"#utility.yul\":4573:4747   */\n      pop\n      jump\t// out\n        /* \"#utility.yul\":4753:5119   */\n    tag_166:\n        /* \"#utility.yul\":4895:4898   */\n      0x00\n        /* \"#utility.yul\":4916:4983   */\n      tag_238\n        /* \"#utility.yul\":4980:4982   */\n      0x18\n        /* \"#utility.yul\":4975:4978   */\n      dup4\n        /* \"#utility.yul\":4916:4983   */\n      tag_164\n      jump\t// in\n    tag_238:\n        /* \"#utility.yul\":4909:4983   */\n      swap2\n      pop\n        /* \"#utility.yul\":4992:5085   */\n      tag_239\n        /* \"#utility.yul\":5081:5084   */\n      dup3\n        /* \"#utility.yul\":4992:5085   */\n      tag_165\n      jump\t// in\n    tag_239:\n        /* \"#utility.yul\":5110:5112   */\n      0x20\n        /* \"#utility.yul\":5105:5108   */\n      dup3\n        /* \"#utility.yul\":5101:5113   */\n      add\n        /* \"#utility.yul\":5094:5113   */\n      swap1\n      pop\n        /* \"#utility.yul\":4753:5119   */\n      swap2\n      swap1\n      pop\n      jump\t// out\n        /* \"#utility.yul\":5125:5544   */\n    tag_83:\n        /* \"#utility.yul\":5291:5295   */\n      0x00\n        /* \"#utility.yul\":5329:5331   */\n      0x20\n        /* \"#utility.yul\":5318:5327   */\n      dup3\n        /* \"#utility.yul\":5314:5332   */\n      add\n        /* \"#utility.yul\":5306:5332   */\n      swap1\n      pop\n        /* \"#utility.yul\":5378:5387   */\n      dup2\n        /* \"#utility.yul\":5372:5376   */\n      dup2\n        /* \"#utility.yul\":5368:5388   */\n      sub\n        /* \"#utility.yul\":5364:5365   */\n      0x00\n        /* \"#utility.yul\":5353:5362   */\n      dup4\n        /* \"#utility.yul\":5349:5366   */\n      add\n        /* \"#utility.yul\":5342:5389   */\n      mstore\n        /* \"#utility.yul\":5406:5537   */\n      tag_241\n        /* \"#utility.yul\":5532:5536   */\n      dup2\n        /* \"#utility.yul\":5406:5537   */\n      tag_166\n      jump\t// in\n    tag_241:\n        /* \"#utility.yul\":5398:5537   */\n      swap1\n      pop\n        /* \"#utility.yul\":5125:5544   */\n      swap2\n      swap1\n      pop\n      jump\t// out\n        /* \"#utility.yul\":5550:5718   */\n    tag_167:\n        /* \"#utility.yul\":5690:5710   */\n      0x496e646578206f7574206f662072616e67650000000000000000000000000000\n        /* \"#utility.yul\":5686:5687   */\n      0x00\n        /* \"#utility.yul\":5678:5684   */\n      dup3\n        /* \"#utility.yul\":5674:5688   */\n      add\n        /* \"#utility.yul\":5667:5711   */\n      mstore\n        /* \"#utility.yul\":5550:5718   */\n      pop\n      jump\t// out\n        /* \"#utility.yul\":5724:6090   */\n    tag_168:\n        /* \"#utility.yul\":5866:5869   */\n      0x00\n        /* \"#utility.yul\":5887:5954   */\n      tag_244\n        /* \"#utility.yul\":5951:5953   */\n      0x12\n        /* \"#utility.yul\":5946:5949   */\n      dup4\n        /* \"#utility.yul\":5887:5954   */\n      tag_164\n      jump\t// in\n    tag_244:\n        /* \"#utility.yul\":5880:5954   */\n      swap2\n      pop\n        /* \"#utility.yul\":5963:6056   */\n      tag_245\n        /* \"#utility.yul\":6052:6055   */\n      dup3\n        /* \"#utility.yul\":5963:6056   */\n      tag_167\n      jump\t// in\n    tag_245:\n        /* \"#utility.yul\":6081:6083   */\n      0x20\n        /* \"#utility.yul\":6076:6079   */\n      dup3\n        /* \"#utility.yul\":6072:6084   */\n      add\n        /* \"#utility.yul\":6065:6084   */\n      swap1\n      pop\n        /* \"#utility.yul\":5724:6090   */\n      swap2\n      swap1\n      pop\n      jump\t// out\n        /* \"#utility.yul\":6096:6515   */\n    tag_92:\n        /* \"#utility.yul\":6262:6266   */\n      0x00\n        /* \"#utility.yul\":6300:6302   */\n      0x20\n        /* \"#utility.yul\":6289:6298   */\n      dup3\n        /* \"#utility.yul\":6285:6303   */\n      add\n        /* \"#utility.yul\":6277:6303   */\n      swap1\n      pop\n        /* \"#utility.yul\":6349:6358   */\n      dup2\n        /* \"#utility.yul\":6343:6347   */\n      dup2\n        /* \"#utility.yul\":6339:6359   */\n      sub\n        /* \"#utility.yul\":6335:6336   */\n      0x00\n        /* \"#utility.yul\":6324:6333   */\n      dup4\n        /* \"#utility.yul\":6320:6337   */\n      add\n        /* \"#utility.yul\":6313:6360   */\n      mstore\n        /* \"#utility.yul\":6377:6508   */\n      tag_247\n        /* \"#utility.yul\":6503:6507   */\n      dup2\n        /* \"#utility.yul\":6377:6508   */\n      tag_168\n      jump\t// in\n    tag_247:\n        /* \"#utility.yul\":6369:6508   */\n      swap1\n      pop\n        /* \"#utility.yul\":6096:6515   */\n      swap2\n      swap1\n      pop\n      jump\t// out\n        /* \"#utility.yul\":6521:6701   */\n    tag_95:\n        /* \"#utility.yul\":6569:6646   */\n      0x4e487b7100000000000000000000000000000000000000000000000000000000\n        /* \"#utility.yul\":6566:6567   */\n      0x00\n        /* \"#utility.yul\":6559:6647   */\n      mstore\n        /* \"#utility.yul\":6666:6670   */\n      0x32\n        /* \"#utility.yul\":6663:6664   */\n      0x04\n        /* \"#utility.yul\":6656:6671   */\n      mstore\n        /* \"#utility.yul\":6690:6694   */\n      0x24\n        /* \"#utility.yul\":6687:6688   */\n      0x00\n        /* \"#utility.yul\":6680:6695   */\n      revert\n        /* \"#utility.yul\":6707:6872   */\n    tag_169:\n        /* \"#utility.yul\":6847:6864   */\n      0x416c726561647920656e67616765640000000000000000000000000000000000\n        /* \"#utility.yul\":6843:6844   */\n      0x00\n        /* \"#utility.yul\":6835:6841   */\n      dup3\n        /* \"#utility.yul\":6831:6845   */\n      add\n        /* \"#utility.yul\":6824:6865   */\n      mstore\n        /* \"#utility.yul\":6707:6872   */\n      pop\n      jump\t// out\n        /* \"#utility.yul\":6878:7244   */\n    tag_170:\n        /* \"#utility.yul\":7020:7023   */\n      0x00\n        /* \"#utility.yul\":7041:7108   */\n      tag_251\n        /* \"#utility.yul\":7105:7107   */\n      0x0f\n        /* \"#utility.yul\":7100:7103   */\n      dup4\n        /* \"#utility.yul\":7041:7108   */\n      tag_164\n      jump\t// in\n    tag_251:\n        /* \"#utility.yul\":7034:7108   */\n      swap2\n      pop\n        /* \"#utility.yul\":7117:7210   */\n      tag_252\n        /* \"#utility.yul\":7206:7209   */\n      dup3\n        /* \"#utility.yul\":7117:7210   */\n      tag_169\n      jump\t// in\n    tag_252:\n        /* \"#utility.yul\":7235:7237   */\n      0x20\n        /* \"#utility.yul\":7230:7233   */\n      dup3\n        /* \"#utility.yul\":7226:7238   */\n      add\n        /* \"#utility.yul\":7219:7238   */\n      swap1\n      pop\n        /* \"#utility.yul\":6878:7244   */\n      swap2\n      swap1\n      pop\n      jump\t// out\n        /* \"#utility.yul\":7250:7669   */\n    tag_109:\n        /* \"#utility.yul\":7416:7420   */\n      0x00\n        /* \"#utility.yul\":7454:7456   */\n      0x20\n        /* \"#utility.yul\":7443:7452   */\n      dup3\n        /* \"#utility.yul\":7439:7457   */\n      add\n        /* \"#utility.yul\":7431:7457   */\n      swap1\n      pop\n        /* \"#utility.yul\":7503:7512   */\n      dup2\n        /* \"#utility.yul\":7497:7501   */\n      dup2\n        /* \"#utility.yul\":7493:7513   */\n      sub\n        /* \"#utility.yul\":7489:7490   */\n      0x00\n        /* \"#utility.yul\":7478:7487   */\n      dup4\n        /* \"#utility.yul\":7474:7491   */\n      add\n        /* \"#utility.yul\":7467:7514   */\n      mstore\n        /* \"#utility.yul\":7531:7662   */\n      tag_254\n        /* \"#utility.yul\":7657:7661   */\n      dup2\n        /* \"#utility.yul\":7531:7662   */\n      tag_170\n      jump\t// in\n    tag_254:\n        /* \"#utility.yul\":7523:7662   */\n      swap1\n      pop\n        /* \"#utility.yul\":7250:7669   */\n      swap2\n      swap1\n      pop\n      jump\t// out\n        /* \"#utility.yul\":7675:7846   */\n    tag_171:\n        /* \"#utility.yul\":7815:7838   */\n      0x43616e6e6f74206d6172727920796f757273656c660000000000000000000000\n        /* \"#utility.yul\":7811:7812   */\n      0x00\n        /* \"#utility.yul\":7803:7809   */\n      dup3\n        /* \"#utility.yul\":7799:7813   */\n      add\n        /* \"#utility.yul\":7792:7839   */\n      mstore\n        /* \"#utility.yul\":7675:7846   */\n      pop\n      jump\t// out\n        /* \"#utility.yul\":7852:8218   */\n    tag_172:\n        /* \"#utility.yul\":7994:7997   */\n      0x00\n        /* \"#utility.yul\":8015:8082   */\n      tag_257\n        /* \"#utility.yul\":8079:8081   */\n      0x15\n        /* \"#utility.yul\":8074:8077   */\n      dup4\n        /* \"#utility.yul\":8015:8082   */\n      tag_164\n      jump\t// in\n    tag_257:\n        /* \"#utility.yul\":8008:8082   */\n      swap2\n      pop\n        /* \"#utility.yul\":8091:8184   */\n      tag_258\n        /* \"#utility.yul\":8180:8183   */\n      dup3\n        /* \"#utility.yul\":8091:8184   */\n      tag_171\n      jump\t// in\n    tag_258:\n        /* \"#utility.yul\":8209:8211   */\n      0x20\n        /* \"#utility.yul\":8204:8207   */\n      dup3\n        /* \"#utility.yul\":8200:8212   */\n      add\n        /* \"#utility.yul\":8193:8212   */\n      swap1\n      pop\n        /* \"#utility.yul\":7852:8218   */\n      swap2\n      swap1\n      pop\n      jump\t// out\n        /* \"#utility.yul\":8224:8643   */\n    tag_112:\n        /* \"#utility.yul\":8390:8394   */\n      0x00\n        /* \"#utility.yul\":8428:8430   */\n      0x20\n        /* \"#utility.yul\":8417:8426   */\n      dup3\n        /* \"#utility.yul\":8413:8431   */\n      add\n        /* \"#utility.yul\":8405:8431   */\n      swap1\n      pop\n        /* \"#utility.yul\":8477:8486   */\n      dup2\n        /* \"#utility.yul\":8471:8475   */\n      dup2\n        /* \"#utility.yul\":8467:8487   */\n      sub\n        /* \"#utility.yul\":8463:8464   */\n      0x00\n        /* \"#utility.yul\":8452:8461   */\n      dup4\n        /* \"#utility.yul\":8448:8465   */\n      add\n        /* \"#utility.yul\":8441:8488   */\n      mstore\n        /* \"#utility.yul\":8505:8636   */\n      tag_260\n        /* \"#utility.yul\":8631:8635   */\n      dup2\n        /* \"#utility.yul\":8505:8636   */\n      tag_172\n      jump\t// in\n    tag_260:\n        /* \"#utility.yul\":8497:8636   */\n      swap1\n      pop\n        /* \"#utility.yul\":8224:8643   */\n      swap2\n      swap1\n      pop\n      jump\t// out\n        /* \"#utility.yul\":8649:8871   */\n    tag_173:\n        /* \"#utility.yul\":8789:8823   */\n      0x4f6e6c792073706f757365732063616e2063616c6c20746869732066756e6374\n        /* \"#utility.yul\":8785:8786   */\n      0x00\n        /* \"#utility.yul\":8777:8783   */\n      dup3\n        /* \"#utility.yul\":8773:8787   */\n      add\n        /* \"#utility.yul\":8766:8824   */\n      mstore\n        /* \"#utility.yul\":8858:8863   */\n      0x696f6e0000000000000000000000000000000000000000000000000000000000\n        /* \"#utility.yul\":8853:8855   */\n      0x20\n        /* \"#utility.yul\":8845:8851   */\n      dup3\n        /* \"#utility.yul\":8841:8856   */\n      add\n        /* \"#utility.yul\":8834:8864   */\n      mstore\n        /* \"#utility.yul\":8649:8871   */\n      pop\n      jump\t// out\n        /* \"#utility.yul\":8877:9243   */\n    tag_174:\n        /* \"#utility.yul\":9019:9022   */\n      0x00\n        /* \"#utility.yul\":9040:9107   */\n      tag_263\n        /* \"#utility.yul\":9104:9106   */\n      0x23\n        /* \"#utility.yul\":9099:9102   */\n      dup4\n        /* \"#utility.yul\":9040:9107   */\n      tag_164\n      jump\t// in\n    tag_263:\n        /* \"#utility.yul\":9033:9107   */\n      swap2\n      pop\n        /* \"#utility.yul\":9116:9209   */\n      tag_264\n        /* \"#utility.yul\":9205:9208   */\n      dup3\n        /* \"#utility.yul\":9116:9209   */\n      tag_173\n      jump\t// in\n    tag_264:\n        /* \"#utility.yul\":9234:9236   */\n      0x40\n        /* \"#utility.yul\":9229:9232   */\n      dup3\n        /* \"#utility.yul\":9225:9237   */\n      add\n        /* \"#utility.yul\":9218:9237   */\n      swap1\n      pop\n        /* \"#utility.yul\":8877:9243   */\n      swap2\n      swap1\n      pop\n      jump\t// out\n        /* \"#utility.yul\":9249:9668   */\n    tag_117:\n        /* \"#utility.yul\":9415:9419   */\n      0x00\n        /* \"#utility.yul\":9453:9455   */\n      0x20\n        /* \"#utility.yul\":9442:9451   */\n      dup3\n        /* \"#utility.yul\":9438:9456   */\n      add\n        /* \"#utility.yul\":9430:9456   */\n      swap1\n      pop\n        /* \"#utility.yul\":9502:9511   */\n      dup2\n        /* \"#utility.yul\":9496:9500   */\n      dup2\n        /* \"#utility.yul\":9492:9512   */\n      sub\n        /* \"#utility.yul\":9488:9489   */\n      0x00\n        /* \"#utility.yul\":9477:9486   */\n      dup4\n        /* \"#utility.yul\":9473:9490   */\n      add\n        /* \"#utility.yul\":9466:9513   */\n      mstore\n        /* \"#utility.yul\":9530:9661   */\n      tag_266\n        /* \"#utility.yul\":9656:9660   */\n      dup2\n        /* \"#utility.yul\":9530:9661   */\n      tag_174\n      jump\t// in\n    tag_266:\n        /* \"#utility.yul\":9522:9661   */\n      swap1\n      pop\n        /* \"#utility.yul\":9249:9668   */\n      swap2\n      swap1\n      pop\n      jump\t// out\n        /* \"#utility.yul\":9674:9898   */\n    tag_175:\n        /* \"#utility.yul\":9814:9848   */\n      0x426f74682073706f75736573206d75737420626520656e676167656420746f20\n        /* \"#utility.yul\":9810:9811   */\n      0x00\n        /* \"#utility.yul\":9802:9808   */\n      dup3\n        /* \"#utility.yul\":9798:9812   */\n      add\n        /* \"#utility.yul\":9791:9849   */\n      mstore\n        /* \"#utility.yul\":9883:9890   */\n      0x6d61727279000000000000000000000000000000000000000000000000000000\n        /* \"#utility.yul\":9878:9880   */\n      0x20\n        /* \"#utility.yul\":9870:9876   */\n      dup3\n        /* \"#utility.yul\":9866:9881   */\n      add\n        /* \"#utility.yul\":9859:9891   */\n      mstore\n        /* \"#utility.yul\":9674:9898   */\n      pop\n      jump\t// out\n        /* \"#utility.yul\":9904:10270   */\n    tag_176:\n        /* \"#utility.yul\":10046:10049   */\n      0x00\n        /* \"#utility.yul\":10067:10134   */\n      tag_269\n        /* \"#utility.yul\":10131:10133   */\n      0x25\n        /* \"#utility.yul\":10126:10129   */\n      dup4\n        /* \"#utility.yul\":10067:10134   */\n      tag_164\n      jump\t// in\n    tag_269:\n        /* \"#utility.yul\":10060:10134   */\n      swap2\n      pop\n        /* \"#utility.yul\":10143:10236   */\n      tag_270\n        /* \"#utility.yul\":10232:10235   */\n      dup3\n        /* \"#utility.yul\":10143:10236   */\n      tag_175\n      jump\t// in\n    tag_270:\n        /* \"#utility.yul\":10261:10263   */\n      0x40\n        /* \"#utility.yul\":10256:10259   */\n      dup3\n        /* \"#utility.yul\":10252:10264   */\n      add\n        /* \"#utility.yul\":10245:10264   */\n      swap1\n      pop\n        /* \"#utility.yul\":9904:10270   */\n      swap2\n      swap1\n      pop\n      jump\t// out\n        /* \"#utility.yul\":10276:10695   */\n    tag_121:\n        /* \"#utility.yul\":10442:10446   */\n      0x00\n        /* \"#utility.yul\":10480:10482   */\n      0x20\n        /* \"#utility.yul\":10469:10478   */\n      dup3\n        /* \"#utility.yul\":10465:10483   */\n      add\n        /* \"#utility.yul\":10457:10483   */\n      swap1\n      pop\n        /* \"#utility.yul\":10529:10538   */\n      dup2\n        /* \"#utility.yul\":10523:10527   */\n      dup2\n        /* \"#utility.yul\":10519:10539   */\n      sub\n        /* \"#utility.yul\":10515:10516   */\n      0x00\n        /* \"#utility.yul\":10504:10513   */\n      dup4\n        /* \"#utility.yul\":10500:10517   */\n      add\n        /* \"#utility.yul\":10493:10540   */\n      mstore\n        /* \"#utility.yul\":10557:10688   */\n      tag_272\n        /* \"#utility.yul\":10683:10687   */\n      dup2\n        /* \"#utility.yul\":10557:10688   */\n      tag_176\n      jump\t// in\n    tag_272:\n        /* \"#utility.yul\":10549:10688   */\n      swap1\n      pop\n        /* \"#utility.yul\":10276:10695   */\n      swap2\n      swap1\n      pop\n      jump\t// out\n        /* \"#utility.yul\":10701:10875   */\n    tag_177:\n        /* \"#utility.yul\":10841:10867   */\n      0x696e76616c6964207374617465207472616e736974696f6e0000000000000000\n        /* \"#utility.yul\":10837:10838   */\n      0x00\n        /* \"#utility.yul\":10829:10835   */\n      dup3\n        /* \"#utility.yul\":10825:10839   */\n      add\n        /* \"#utility.yul\":10818:10868   */\n      mstore\n        /* \"#utility.yul\":10701:10875   */\n      pop\n      jump\t// out\n        /* \"#utility.yul\":10881:11247   */\n    tag_178:\n        /* \"#utility.yul\":11023:11026   */\n      0x00\n        /* \"#utility.yul\":11044:11111   */\n      tag_275\n        /* \"#utility.yul\":11108:11110   */\n      0x18\n        /* \"#utility.yul\":11103:11106   */\n      dup4\n        /* \"#utility.yul\":11044:11111   */\n      tag_164\n      jump\t// in\n    tag_275:\n        /* \"#utility.yul\":11037:11111   */\n      swap2\n      pop\n        /* \"#utility.yul\":11120:11213   */\n      tag_276\n        /* \"#utility.yul\":11209:11212   */\n      dup3\n        /* \"#utility.yul\":11120:11213   */\n      tag_177\n      jump\t// in\n    tag_276:\n        /* \"#utility.yul\":11238:11240   */\n      0x20\n        /* \"#utility.yul\":11233:11236   */\n      dup3\n        /* \"#utility.yul\":11229:11241   */\n      add\n        /* \"#utility.yul\":11222:11241   */\n      swap1\n      pop\n        /* \"#utility.yul\":10881:11247   */\n      swap2\n      swap1\n      pop\n      jump\t// out\n        /* \"#utility.yul\":11253:11672   */\n    tag_139:\n        /* \"#utility.yul\":11419:11423   */\n      0x00\n        /* \"#utility.yul\":11457:11459   */\n      0x20\n        /* \"#utility.yul\":11446:11455   */\n      dup3\n        /* \"#utility.yul\":11442:11460   */\n      add\n        /* \"#utility.yul\":11434:11460   */\n      swap1\n      pop\n        /* \"#utility.yul\":11506:11515   */\n      dup2\n        /* \"#utility.yul\":11500:11504   */\n      dup2\n        /* \"#utility.yul\":11496:11516   */\n      sub\n        /* \"#utility.yul\":11492:11493   */\n      0x00\n        /* \"#utility.yul\":11481:11490   */\n      dup4\n        /* \"#utility.yul\":11477:11494   */\n      add\n        /* \"#utility.yul\":11470:11517   */\n      mstore\n        /* \"#utility.yul\":11534:11665   */\n      tag_278\n        /* \"#utility.yul\":11660:11664   */\n      dup2\n        /* \"#utility.yul\":11534:11665   */\n      tag_178\n      jump\t// in\n    tag_278:\n        /* \"#utility.yul\":11526:11665   */\n      swap1\n      pop\n        /* \"#utility.yul\":11253:11672   */\n      swap2\n      swap1\n      pop\n      jump\t// out\n\n    auxdata: 0xa26469706673582212204e02edd870a9fe9b121c1806722c5028a050daa7d6157e89ea0402f9b35db86f64736f6c63430008140033\n}\n",
				"bytecode": {
					"linkReferences": {},
					"object": "608060405234801561000f575f80fd5b50335f806101000a81548173ffffffffffffffffffffffffffffffffffffffff021916908373ffffffffffffffffffffffffffffffffffffffff1602179055505f600160146101000a81548160ff0219169083151502179055505f600160156101000a81548160ff02191690831515021790555061102a806100905f395ff3fe608060405234801561000f575f80fd5b50600436106100f3575f3560e01c80636ac1733f11610095578063ad60572911610064578063ad60572914610227578063c21f5d8414610245578063c36a160d1461024f578063dfafe10f14610259576100f3565b80636ac1733f146101c557806385b9a11f146101e157806390f1e756146101eb578063a702314d14610209576100f3565b806335c1d349116100d157806335c1d3491461013d578063378aa7011461016d57806361b58b461461018b57806365a4cabc146101bb576100f3565b80630c3f6acf146100f757806317e15d28146101155780632fc5a6df1461011f575b5f80fd5b6100ff610275565b60405161010c9190610adb565b60405180910390f35b61011d610287565b005b610127610365565b6040516101349190610b10565b60405180910390f35b61015760048036038101906101529190610b60565b610379565b6040516101649190610bca565b60405180910390f35b6101756103b4565b6040516101829190610adb565b60405180910390f35b6101a560048036038101906101a09190610b60565b6103c9565b6040516101b29190610bca565b60405180910390f35b6101c3610454565b005b6101df60048036038101906101da9190610c0d565b6104f4565b005b6101e96106a9565b005b6101f3610892565b6040516102009190610c52565b60405180910390f35b6102116108a5565b60405161021e9190610c52565b60405180910390f35b61022f6108b8565b60405161023c9190610c7a565b60405180910390f35b61024d6108c4565b005b610257610964565b005b610273600480360381019061026e9190610c0d565b610a05565b005b60035f9054906101000a900460ff1681565b6001600481111561029b5761029a610a68565b5b60035f9054906101000a900460ff1660048111156102bc576102bb610a68565b5b14806102fa5750600360048111156102d7576102d6610a68565b5b60035f9054906101000a900460ff1660048111156102f8576102f7610a68565b5b145b610339576040517f08c379a000000000000000000000000000000000000000000000000000000000815260040161033090610ced565b60405180910390fd5b600260035f6101000a81548160ff0219169083600481111561035e5761035d610a68565b5b0217905550565b600160169054906101000a900461ffff1681565b60028181548110610388575f80fd5b905f5260205f20015f915054906101000a900473ffffffffffffffffffffffffffffffffffffffff1681565b5f60035f9054906101000a900460ff16905090565b5f6002805490508210610411576040517f08c379a000000000000000000000000000000000000000000000000000000000815260040161040890610d55565b60405180910390fd5b6002828154811061042557610424610d73565b5b905f5260205f20015f9054906101000a900473ffffffffffffffffffffffffffffffffffffffff169050919050565b5f600481111561046757610466610a68565b5b60035f9054906101000a900460ff16600481111561048857610487610a68565b5b146104c8576040517f08c379a00000000000000000000000000000000000000000000000000000000081526004016104bf90610ced565b60405180910390fd5b600160035f6101000a81548160ff021916908360048111156104ed576104ec610a68565b5b0217905550565b600160149054906101000a900460ff1615610544576040517f08c379a000000000000000000000000000000000000000000000000000000000815260040161053b90610dea565b60405180910390fd5b8073ffffffffffffffffffffffffffffffffffffffff163373ffffffffffffffffffffffffffffffffffffffff16036105b2576040517f08c379a00000000000000000000000000000000000000000000000000000000081526004016105a990610e52565b60405180910390fd5b8060015f6101000a81548173ffffffffffffffffffffffffffffffffffffffff021916908373ffffffffffffffffffffffffffffffffffffffff16021790555060018060146101000a81548160ff02191690831515021790555060015f9054906101000a900473ffffffffffffffffffffffffffffffffffffffff1673ffffffffffffffffffffffffffffffffffffffff165f8054906101000a900473ffffffffffffffffffffffffffffffffffffffff1673ffffffffffffffffffffffffffffffffffffffff167f0655a45d06bbb71039d6dc070f5dbb8143a5c0bce1efcea7dec3b66237d9edd560405160405180910390a350565b5f8054906101000a900473ffffffffffffffffffffffffffffffffffffffff1673ffffffffffffffffffffffffffffffffffffffff163373ffffffffffffffffffffffffffffffffffffffff16148061074e575060015f9054906101000a900473ffffffffffffffffffffffffffffffffffffffff1673ffffffffffffffffffffffffffffffffffffffff163373ffffffffffffffffffffffffffffffffffffffff16145b61078d576040517f08c379a000000000000000000000000000000000000000000000000000000000815260040161078490610ee0565b60405180910390fd5b600160149054906101000a900460ff166107dc576040517f08c379a00000000000000000000000000000000000000000000000000000000081526004016107d390610f6e565b60405180910390fd5b60018060156101000a81548160ff02191690831515021790555060015f9054906101000a900473ffffffffffffffffffffffffffffffffffffffff1673ffffffffffffffffffffffffffffffffffffffff165f8054906101000a900473ffffffffffffffffffffffffffffffffffffffff1673ffffffffffffffffffffffffffffffffffffffff167fc89ef770a4ad395ebdc22b63de541b88daf19f335056f203fa06e4154b62bb7b60405160405180910390a3565b600160149054906101000a900460ff1681565b600160159054906101000a900460ff1681565b5f600280549050905090565b600160048111156108d8576108d7610a68565b5b60035f9054906101000a900460ff1660048111156108f9576108f8610a68565b5b14610939576040517f08c379a000000000000000000000000000000000000000000000000000000000815260040161093090610ced565b60405180910390fd5b6003805f6101000a81548160ff0219169083600481111561095d5761095c610a68565b5b0217905550565b6002600481111561097857610977610a68565b5b60035f9054906101000a900460ff16600481111561099957610998610a68565b5b036109d9576040517f08c379a00000000000000000000000000000000000000000000000000000000081526004016109d090610fd6565b60405180910390fd5b600460035f6101000a81548160ff021916908360048111156109fe576109fd610a68565b5b0217905550565b600281908060018154018082558091505060019003905f5260205f20015f9091909190916101000a81548173ffffffffffffffffffffffffffffffffffffffff021916908373ffffffffffffffffffffffffffffffffffffffff16021790555050565b7f4e487b71000000000000000000000000000000000000000000000000000000005f52602160045260245ffd5b60058110610aa657610aa5610a68565b5b50565b5f819050610ab682610a95565b919050565b5f610ac582610aa9565b9050919050565b610ad581610abb565b82525050565b5f602082019050610aee5f830184610acc565b92915050565b5f61ffff82169050919050565b610b0a81610af4565b82525050565b5f602082019050610b235f830184610b01565b92915050565b5f80fd5b5f819050919050565b610b3f81610b2d565b8114610b49575f80fd5b50565b5f81359050610b5a81610b36565b92915050565b5f60208284031215610b7557610b74610b29565b5b5f610b8284828501610b4c565b91505092915050565b5f73ffffffffffffffffffffffffffffffffffffffff82169050919050565b5f610bb482610b8b565b9050919050565b610bc481610baa565b82525050565b5f602082019050610bdd5f830184610bbb565b92915050565b610bec81610baa565b8114610bf6575f80fd5b50565b5f81359050610c0781610be3565b92915050565b5f60208284031215610c2257610c21610b29565b5b5f610c2f84828501610bf9565b91505092915050565b5f8115159050919050565b610c4c81610c38565b82525050565b5f602082019050610c655f830184610c43565b92915050565b610c7481610b2d565b82525050565b5f602082019050610c8d5f830184610c6b565b92915050565b5f82825260208201905092915050565b7f496e76616c6964207374617465207472616e736974696f6e00000000000000005f82015250565b5f610cd7601883610c93565b9150610ce282610ca3565b602082019050919050565b5f6020820190508181035f830152610d0481610ccb565b9050919050565b7f496e646578206f7574206f662072616e676500000000000000000000000000005f82015250565b5f610d3f601283610c93565b9150610d4a82610d0b565b602082019050919050565b5f6020820190508181035f830152610d6c81610d33565b9050919050565b7f4e487b71000000000000000000000000000000000000000000000000000000005f52603260045260245ffd5b7f416c726561647920656e676167656400000000000000000000000000000000005f82015250565b5f610dd4600f83610c93565b9150610ddf82610da0565b602082019050919050565b5f6020820190508181035f830152610e0181610dc8565b9050919050565b7f43616e6e6f74206d6172727920796f757273656c6600000000000000000000005f82015250565b5f610e3c601583610c93565b9150610e4782610e08565b602082019050919050565b5f6020820190508181035f830152610e6981610e30565b9050919050565b7f4f6e6c792073706f757365732063616e2063616c6c20746869732066756e63745f8201527f696f6e0000000000000000000000000000000000000000000000000000000000602082015250565b5f610eca602383610c93565b9150610ed582610e70565b604082019050919050565b5f6020820190508181035f830152610ef781610ebe565b9050919050565b7f426f74682073706f75736573206d75737420626520656e676167656420746f205f8201527f6d61727279000000000000000000000000000000000000000000000000000000602082015250565b5f610f58602583610c93565b9150610f6382610efe565b604082019050919050565b5f6020820190508181035f830152610f8581610f4c565b9050919050565b7f696e76616c6964207374617465207472616e736974696f6e00000000000000005f82015250565b5f610fc0601883610c93565b9150610fcb82610f8c565b602082019050919050565b5f6020820190508181035f830152610fed81610fb4565b905091905056fea26469706673582212204e02edd870a9fe9b121c1806722c5028a050daa7d6157e89ea0402f9b35db86f64736f6c63430008140033",
					"opcodes": "PUSH1 0x80 PUSH1 0x40 MSTORE CALLVALUE DUP1 ISZERO PUSH2 0xF JUMPI PUSH0 DUP1 REVERT JUMPDEST POP CALLER PUSH0 DUP1 PUSH2 0x100 EXP DUP2 SLOAD DUP2 PUSH20 0xFFFFFFFFFFFFFFFFFFFFFFFFFFFFFFFFFFFFFFFF MUL NOT AND SWAP1 DUP4 PUSH20 0xFFFFFFFFFFFFFFFFFFFFFFFFFFFFFFFFFFFFFFFF AND MUL OR SWAP1 SSTORE POP PUSH0 PUSH1 0x1 PUSH1 0x14 PUSH2 0x100 EXP DUP2 SLOAD DUP2 PUSH1 0xFF MUL NOT AND SWAP1 DUP4 ISZERO ISZERO MUL OR SWAP1 SSTORE POP PUSH0 PUSH1 0x1 PUSH1 0x15 PUSH2 0x100 EXP DUP2 SLOAD DUP2 PUSH1 0xFF MUL NOT AND SWAP1 DUP4 ISZERO ISZERO MUL OR SWAP1 SSTORE POP PUSH2 0x102A DUP1 PUSH2 0x90 PUSH0 CODECOPY PUSH0 RETURN INVALID PUSH1 0x80 PUSH1 0x40 MSTORE CALLVALUE DUP1 ISZERO PUSH2 0xF JUMPI PUSH0 DUP1 REVERT JUMPDEST POP PUSH1 0x4 CALLDATASIZE LT PUSH2 0xF3 JUMPI PUSH0 CALLDATALOAD PUSH1 0xE0 SHR DUP1 PUSH4 0x6AC1733F GT PUSH2 0x95 JUMPI DUP1 PUSH4 0xAD605729 GT PUSH2 0x64 JUMPI DUP1 PUSH4 0xAD605729 EQ PUSH2 0x227 JUMPI DUP1 PUSH4 0xC21F5D84 EQ PUSH2 0x245 JUMPI DUP1 PUSH4 0xC36A160D EQ PUSH2 0x24F JUMPI DUP1 PUSH4 0xDFAFE10F EQ PUSH2 0x259 JUMPI PUSH2 0xF3 JUMP JUMPDEST DUP1 PUSH4 0x6AC1733F EQ PUSH2 0x1C5 JUMPI DUP1 PUSH4 0x85B9A11F EQ PUSH2 0x1E1 JUMPI DUP1 PUSH4 0x90F1E756 EQ PUSH2 0x1EB JUMPI DUP1 PUSH4 0xA702314D EQ PUSH2 0x209 JUMPI PUSH2 0xF3 JUMP JUMPDEST DUP1 PUSH4 0x35C1D349 GT PUSH2 0xD1 JUMPI DUP1 PUSH4 0x35C1D349 EQ PUSH2 0x13D JUMPI DUP1 PUSH4 0x378AA701 EQ PUSH2 0x16D JUMPI DUP1 PUSH4 0x61B58B46 EQ PUSH2 0x18B JUMPI DUP1 PUSH4 0x65A4CABC EQ PUSH2 0x1BB JUMPI PUSH2 0xF3 JUMP JUMPDEST DUP1 PUSH4 0xC3F6ACF EQ PUSH2 0xF7 JUMPI DUP1 PUSH4 0x17E15D28 EQ PUSH2 0x115 JUMPI DUP1 PUSH4 0x2FC5A6DF EQ PUSH2 0x11F JUMPI JUMPDEST PUSH0 DUP1 REVERT JUMPDEST PUSH2 0xFF PUSH2 0x275 JUMP JUMPDEST PUSH1 0x40 MLOAD PUSH2 0x10C SWAP2 SWAP1 PUSH2 0xADB JUMP JUMPDEST PUSH1 0x40 MLOAD DUP1 SWAP2 SUB SWAP1 RETURN JUMPDEST PUSH2 0x11D PUSH2 0x287 JUMP JUMPDEST STOP JUMPDEST PUSH2 0x127 PUSH2 0x365 JUMP JUMPDEST PUSH1 0x40 MLOAD PUSH2 0x134 SWAP2 SWAP1 PUSH2 0xB10 JUMP JUMPDEST PUSH1 0x40 MLOAD DUP1 SWAP2 SUB SWAP1 RETURN JUMPDEST PUSH2 0x157 PUSH1 0x4 DUP1 CALLDATASIZE SUB DUP2 ADD SWAP1 PUSH2 0x152 SWAP2 SWAP1 PUSH2 0xB60 JUMP JUMPDEST PUSH2 0x379 JUMP JUMPDEST PUSH1 0x40 MLOAD PUSH2 0x164 SWAP2 SWAP1 PUSH2 0xBCA JUMP JUMPDEST PUSH1 0x40 MLOAD DUP1 SWAP2 SUB SWAP1 RETURN JUMPDEST PUSH2 0x175 PUSH2 0x3B4 JUMP JUMPDEST PUSH1 0x40 MLOAD PUSH2 0x182 SWAP2 SWAP1 PUSH2 0xADB JUMP JUMPDEST PUSH1 0x40 MLOAD DUP1 SWAP2 SUB SWAP1 RETURN JUMPDEST PUSH2 0x1A5 PUSH1 0x4 DUP1 CALLDATASIZE SUB DUP2 ADD SWAP1 PUSH2 0x1A0 SWAP2 SWAP1 PUSH2 0xB60 JUMP JUMPDEST PUSH2 0x3C9 JUMP JUMPDEST PUSH1 0x40 MLOAD PUSH2 0x1B2 SWAP2 SWAP1 PUSH2 0xBCA JUMP JUMPDEST PUSH1 0x40 MLOAD DUP1 SWAP2 SUB SWAP1 RETURN JUMPDEST PUSH2 0x1C3 PUSH2 0x454 JUMP JUMPDEST STOP JUMPDEST PUSH2 0x1DF PUSH1 0x4 DUP1 CALLDATASIZE SUB DUP2 ADD SWAP1 PUSH2 0x1DA SWAP2 SWAP1 PUSH2 0xC0D JUMP JUMPDEST PUSH2 0x4F4 JUMP JUMPDEST STOP JUMPDEST PUSH2 0x1E9 PUSH2 0x6A9 JUMP JUMPDEST STOP JUMPDEST PUSH2 0x1F3 PUSH2 0x892 JUMP JUMPDEST PUSH1 0x40 MLOAD PUSH2 0x200 SWAP2 SWAP1 PUSH2 0xC52 JUMP JUMPDEST PUSH1 0x40 MLOAD DUP1 SWAP2 SUB SWAP1 RETURN JUMPDEST PUSH2 0x211 PUSH2 0x8A5 JUMP JUMPDEST PUSH1 0x40 MLOAD PUSH2 0x21E SWAP2 SWAP1 PUSH2 0xC52 JUMP JUMPDEST PUSH1 0x40 MLOAD DUP1 SWAP2 SUB SWAP1 RETURN JUMPDEST PUSH2 0x22F PUSH2 0x8B8 JUMP JUMPDEST PUSH1 0x40 MLOAD PUSH2 0x23C SWAP2 SWAP1 PUSH2 0xC7A JUMP JUMPDEST PUSH1 0x40 MLOAD DUP1 SWAP2 SUB SWAP1 RETURN JUMPDEST PUSH2 0x24D PUSH2 0x8C4 JUMP JUMPDEST STOP JUMPDEST PUSH2 0x257 PUSH2 0x964 JUMP JUMPDEST STOP JUMPDEST PUSH2 0x273 PUSH1 0x4 DUP1 CALLDATASIZE SUB DUP2 ADD SWAP1 PUSH2 0x26E SWAP2 SWAP1 PUSH2 0xC0D JUMP JUMPDEST PUSH2 0xA05 JUMP JUMPDEST STOP JUMPDEST PUSH1 0x3 PUSH0 SWAP1 SLOAD SWAP1 PUSH2 0x100 EXP SWAP1 DIV PUSH1 0xFF AND DUP2 JUMP JUMPDEST PUSH1 0x1 PUSH1 0x4 DUP2 GT ISZERO PUSH2 0x29B JUMPI PUSH2 0x29A PUSH2 0xA68 JUMP JUMPDEST JUMPDEST PUSH1 0x3 PUSH0 SWAP1 SLOAD SWAP1 PUSH2 0x100 EXP SWAP1 DIV PUSH1 0xFF AND PUSH1 0x4 DUP2 GT ISZERO PUSH2 0x2BC JUMPI PUSH2 0x2BB PUSH2 0xA68 JUMP JUMPDEST JUMPDEST EQ DUP1 PUSH2 0x2FA JUMPI POP PUSH1 0x3 PUSH1 0x4 DUP2 GT ISZERO PUSH2 0x2D7 JUMPI PUSH2 0x2D6 PUSH2 0xA68 JUMP JUMPDEST JUMPDEST PUSH1 0x3 PUSH0 SWAP1 SLOAD SWAP1 PUSH2 0x100 EXP SWAP1 DIV PUSH1 0xFF AND PUSH1 0x4 DUP2 GT ISZERO PUSH2 0x2F8 JUMPI PUSH2 0x2F7 PUSH2 0xA68 JUMP JUMPDEST JUMPDEST EQ JUMPDEST PUSH2 0x339 JUMPI PUSH1 0x40 MLOAD PUSH32 0x8C379A000000000000000000000000000000000000000000000000000000000 DUP2 MSTORE PUSH1 0x4 ADD PUSH2 0x330 SWAP1 PUSH2 0xCED JUMP JUMPDEST PUSH1 0x40 MLOAD DUP1 SWAP2 SUB SWAP1 REVERT JUMPDEST PUSH1 0x2 PUSH1 0x3 PUSH0 PUSH2 0x100 EXP DUP2 SLOAD DUP2 PUSH1 0xFF MUL NOT AND SWAP1 DUP4 PUSH1 0x4 DUP2 GT ISZERO PUSH2 0x35E JUMPI PUSH2 0x35D PUSH2 0xA68 JUMP JUMPDEST JUMPDEST MUL OR SWAP1 SSTORE POP JUMP JUMPDEST PUSH1 0x1 PUSH1 0x16 SWAP1 SLOAD SWAP1 PUSH2 0x100 EXP SWAP1 DIV PUSH2 0xFFFF AND DUP2 JUMP JUMPDEST PUSH1 0x2 DUP2 DUP2 SLOAD DUP2 LT PUSH2 0x388 JUMPI PUSH0 DUP1 REVERT JUMPDEST SWAP1 PUSH0 MSTORE PUSH1 0x20 PUSH0 KECCAK256 ADD PUSH0 SWAP2 POP SLOAD SWAP1 PUSH2 0x100 EXP SWAP1 DIV PUSH20 0xFFFFFFFFFFFFFFFFFFFFFFFFFFFFFFFFFFFFFFFF AND DUP2 JUMP JUMPDEST PUSH0 PUSH1 0x3 PUSH0 SWAP1 SLOAD SWAP1 PUSH2 0x100 EXP SWAP1 DIV PUSH1 0xFF AND SWAP1 POP SWAP1 JUMP JUMPDEST PUSH0 PUSH1 0x2 DUP1 SLOAD SWAP1 POP DUP3 LT PUSH2 0x411 JUMPI PUSH1 0x40 MLOAD PUSH32 0x8C379A000000000000000000000000000000000000000000000000000000000 DUP2 MSTORE PUSH1 0x4 ADD PUSH2 0x408 SWAP1 PUSH2 0xD55 JUMP JUMPDEST PUSH1 0x40 MLOAD DUP1 SWAP2 SUB SWAP1 REVERT JUMPDEST PUSH1 0x2 DUP3 DUP2 SLOAD DUP2 LT PUSH2 0x425 JUMPI PUSH2 0x424 PUSH2 0xD73 JUMP JUMPDEST JUMPDEST SWAP1 PUSH0 MSTORE PUSH1 0x20 PUSH0 KECCAK256 ADD PUSH0 SWAP1 SLOAD SWAP1 PUSH2 0x100 EXP SWAP1 DIV PUSH20 0xFFFFFFFFFFFFFFFFFFFFFFFFFFFFFFFFFFFFFFFF AND SWAP1 POP SWAP2 SWAP1 POP JUMP JUMPDEST PUSH0 PUSH1 0x4 DUP2 GT ISZERO PUSH2 0x467 JUMPI PUSH2 0x466 PUSH2 0xA68 JUMP JUMPDEST JUMPDEST PUSH1 0x3 PUSH0 SWAP1 SLOAD SWAP1 PUSH2 0x100 EXP SWAP1 DIV PUSH1 0xFF AND PUSH1 0x4 DUP2 GT ISZERO PUSH2 0x488 JUMPI PUSH2 0x487 PUSH2 0xA68 JUMP JUMPDEST JUMPDEST EQ PUSH2 0x4C8 JUMPI PUSH1 0x40 MLOAD PUSH32 0x8C379A000000000000000000000000000000000000000000000000000000000 DUP2 MSTORE PUSH1 0x4 ADD PUSH2 0x4BF SWAP1 PUSH2 0xCED JUMP JUMPDEST PUSH1 0x40 MLOAD DUP1 SWAP2 SUB SWAP1 REVERT JUMPDEST PUSH1 0x1 PUSH1 0x3 PUSH0 PUSH2 0x100 EXP DUP2 SLOAD DUP2 PUSH1 0xFF MUL NOT AND SWAP1 DUP4 PUSH1 0x4 DUP2 GT ISZERO PUSH2 0x4ED JUMPI PUSH2 0x4EC PUSH2 0xA68 JUMP JUMPDEST JUMPDEST MUL OR SWAP1 SSTORE POP JUMP JUMPDEST PUSH1 0x1 PUSH1 0x14 SWAP1 SLOAD SWAP1 PUSH2 0x100 EXP SWAP1 DIV PUSH1 0xFF AND ISZERO PUSH2 0x544 JUMPI PUSH1 0x40 MLOAD PUSH32 0x8C379A000000000000000000000000000000000000000000000000000000000 DUP2 MSTORE PUSH1 0x4 ADD PUSH2 0x53B SWAP1 PUSH2 0xDEA JUMP JUMPDEST PUSH1 0x40 MLOAD DUP1 SWAP2 SUB SWAP1 REVERT JUMPDEST DUP1 PUSH20 0xFFFFFFFFFFFFFFFFFFFFFFFFFFFFFFFFFFFFFFFF AND CALLER PUSH20 0xFFFFFFFFFFFFFFFFFFFFFFFFFFFFFFFFFFFFFFFF AND SUB PUSH2 0x5B2 JUMPI PUSH1 0x40 MLOAD PUSH32 0x8C379A000000000000000000000000000000000000000000000000000000000 DUP2 MSTORE PUSH1 0x4 ADD PUSH2 0x5A9 SWAP1 PUSH2 0xE52 JUMP JUMPDEST PUSH1 0x40 MLOAD DUP1 SWAP2 SUB SWAP1 REVERT JUMPDEST DUP1 PUSH1 0x1 PUSH0 PUSH2 0x100 EXP DUP2 SLOAD DUP2 PUSH20 0xFFFFFFFFFFFFFFFFFFFFFFFFFFFFFFFFFFFFFFFF MUL NOT AND SWAP1 DUP4 PUSH20 0xFFFFFFFFFFFFFFFFFFFFFFFFFFFFFFFFFFFFFFFF AND MUL OR SWAP1 SSTORE POP PUSH1 0x1 DUP1 PUSH1 0x14 PUSH2 0x100 EXP DUP2 SLOAD DUP2 PUSH1 0xFF MUL NOT AND SWAP1 DUP4 ISZERO ISZERO MUL OR SWAP1 SSTORE POP PUSH1 0x1 PUSH0 SWAP1 SLOAD SWAP1 PUSH2 0x100 EXP SWAP1 DIV PUSH20 0xFFFFFFFFFFFFFFFFFFFFFFFFFFFFFFFFFFFFFFFF AND PUSH20 0xFFFFFFFFFFFFFFFFFFFFFFFFFFFFFFFFFFFFFFFF AND PUSH0 DUP1 SLOAD SWAP1 PUSH2 0x100 EXP SWAP1 DIV PUSH20 0xFFFFFFFFFFFFFFFFFFFFFFFFFFFFFFFFFFFFFFFF AND PUSH20 0xFFFFFFFFFFFFFFFFFFFFFFFFFFFFFFFFFFFFFFFF AND PUSH32 0x655A45D06BBB71039D6DC070F5DBB8143A5C0BCE1EFCEA7DEC3B66237D9EDD5 PUSH1 0x40 MLOAD PUSH1 0x40 MLOAD DUP1 SWAP2 SUB SWAP1 LOG3 POP JUMP JUMPDEST PUSH0 DUP1 SLOAD SWAP1 PUSH2 0x100 EXP SWAP1 DIV PUSH20 0xFFFFFFFFFFFFFFFFFFFFFFFFFFFFFFFFFFFFFFFF AND PUSH20 0xFFFFFFFFFFFFFFFFFFFFFFFFFFFFFFFFFFFFFFFF AND CALLER PUSH20 0xFFFFFFFFFFFFFFFFFFFFFFFFFFFFFFFFFFFFFFFF AND EQ DUP1 PUSH2 0x74E JUMPI POP PUSH1 0x1 PUSH0 SWAP1 SLOAD SWAP1 PUSH2 0x100 EXP SWAP1 DIV PUSH20 0xFFFFFFFFFFFFFFFFFFFFFFFFFFFFFFFFFFFFFFFF AND PUSH20 0xFFFFFFFFFFFFFFFFFFFFFFFFFFFFFFFFFFFFFFFF AND CALLER PUSH20 0xFFFFFFFFFFFFFFFFFFFFFFFFFFFFFFFFFFFFFFFF AND EQ JUMPDEST PUSH2 0x78D JUMPI PUSH1 0x40 MLOAD PUSH32 0x8C379A000000000000000000000000000000000000000000000000000000000 DUP2 MSTORE PUSH1 0x4 ADD PUSH2 0x784 SWAP1 PUSH2 0xEE0 JUMP JUMPDEST PUSH1 0x40 MLOAD DUP1 SWAP2 SUB SWAP1 REVERT JUMPDEST PUSH1 0x1 PUSH1 0x14 SWAP1 SLOAD SWAP1 PUSH2 0x100 EXP SWAP1 DIV PUSH1 0xFF AND PUSH2 0x7DC JUMPI PUSH1 0x40 MLOAD PUSH32 0x8C379A000000000000000000000000000000000000000000000000000000000 DUP2 MSTORE PUSH1 0x4 ADD PUSH2 0x7D3 SWAP1 PUSH2 0xF6E JUMP JUMPDEST PUSH1 0x40 MLOAD DUP1 SWAP2 SUB SWAP1 REVERT JUMPDEST PUSH1 0x1 DUP1 PUSH1 0x15 PUSH2 0x100 EXP DUP2 SLOAD DUP2 PUSH1 0xFF MUL NOT AND SWAP1 DUP4 ISZERO ISZERO MUL OR SWAP1 SSTORE POP PUSH1 0x1 PUSH0 SWAP1 SLOAD SWAP1 PUSH2 0x100 EXP SWAP1 DIV PUSH20 0xFFFFFFFFFFFFFFFFFFFFFFFFFFFFFFFFFFFFFFFF AND PUSH20 0xFFFFFFFFFFFFFFFFFFFFFFFFFFFFFFFFFFFFFFFF AND PUSH0 DUP1 SLOAD SWAP1 PUSH2 0x100 EXP SWAP1 DIV PUSH20 0xFFFFFFFFFFFFFFFFFFFFFFFFFFFFFFFFFFFFFFFF AND PUSH20 0xFFFFFFFFFFFFFFFFFFFFFFFFFFFFFFFFFFFFFFFF AND PUSH32 0xC89EF770A4AD395EBDC22B63DE541B88DAF19F335056F203FA06E4154B62BB7B PUSH1 0x40 MLOAD PUSH1 0x40 MLOAD DUP1 SWAP2 SUB SWAP1 LOG3 JUMP JUMPDEST PUSH1 0x1 PUSH1 0x14 SWAP1 SLOAD SWAP1 PUSH2 0x100 EXP SWAP1 DIV PUSH1 0xFF AND DUP2 JUMP JUMPDEST PUSH1 0x1 PUSH1 0x15 SWAP1 SLOAD SWAP1 PUSH2 0x100 EXP SWAP1 DIV PUSH1 0xFF AND DUP2 JUMP JUMPDEST PUSH0 PUSH1 0x2 DUP1 SLOAD SWAP1 POP SWAP1 POP SWAP1 JUMP JUMPDEST PUSH1 0x1 PUSH1 0x4 DUP2 GT ISZERO PUSH2 0x8D8 JUMPI PUSH2 0x8D7 PUSH2 0xA68 JUMP JUMPDEST JUMPDEST PUSH1 0x3 PUSH0 SWAP1 SLOAD SWAP1 PUSH2 0x100 EXP SWAP1 DIV PUSH1 0xFF AND PUSH1 0x4 DUP2 GT ISZERO PUSH2 0x8F9 JUMPI PUSH2 0x8F8 PUSH2 0xA68 JUMP JUMPDEST JUMPDEST EQ PUSH2 0x939 JUMPI PUSH1 0x40 MLOAD PUSH32 0x8C379A000000000000000000000000000000000000000000000000000000000 DUP2 MSTORE PUSH1 0x4 ADD PUSH2 0x930 SWAP1 PUSH2 0xCED JUMP JUMPDEST PUSH1 0x40 MLOAD DUP1 SWAP2 SUB SWAP1 REVERT JUMPDEST PUSH1 0x3 DUP1 PUSH0 PUSH2 0x100 EXP DUP2 SLOAD DUP2 PUSH1 0xFF MUL NOT AND SWAP1 DUP4 PUSH1 0x4 DUP2 GT ISZERO PUSH2 0x95D JUMPI PUSH2 0x95C PUSH2 0xA68 JUMP JUMPDEST JUMPDEST MUL OR SWAP1 SSTORE POP JUMP JUMPDEST PUSH1 0x2 PUSH1 0x4 DUP2 GT ISZERO PUSH2 0x978 JUMPI PUSH2 0x977 PUSH2 0xA68 JUMP JUMPDEST JUMPDEST PUSH1 0x3 PUSH0 SWAP1 SLOAD SWAP1 PUSH2 0x100 EXP SWAP1 DIV PUSH1 0xFF AND PUSH1 0x4 DUP2 GT ISZERO PUSH2 0x999 JUMPI PUSH2 0x998 PUSH2 0xA68 JUMP JUMPDEST JUMPDEST SUB PUSH2 0x9D9 JUMPI PUSH1 0x40 MLOAD PUSH32 0x8C379A000000000000000000000000000000000000000000000000000000000 DUP2 MSTORE PUSH1 0x4 ADD PUSH2 0x9D0 SWAP1 PUSH2 0xFD6 JUMP JUMPDEST PUSH1 0x40 MLOAD DUP1 SWAP2 SUB SWAP1 REVERT JUMPDEST PUSH1 0x4 PUSH1 0x3 PUSH0 PUSH2 0x100 EXP DUP2 SLOAD DUP2 PUSH1 0xFF MUL NOT AND SWAP1 DUP4 PUSH1 0x4 DUP2 GT ISZERO PUSH2 0x9FE JUMPI PUSH2 0x9FD PUSH2 0xA68 JUMP JUMPDEST JUMPDEST MUL OR SWAP1 SSTORE POP JUMP JUMPDEST PUSH1 0x2 DUP2 SWAP1 DUP1 PUSH1 0x1 DUP2 SLOAD ADD DUP1 DUP3 SSTORE DUP1 SWAP2 POP POP PUSH1 0x1 SWAP1 SUB SWAP1 PUSH0 MSTORE PUSH1 0x20 PUSH0 KECCAK256 ADD PUSH0 SWAP1 SWAP2 SWAP1 SWAP2 SWAP1 SWAP2 PUSH2 0x100 EXP DUP2 SLOAD DUP2 PUSH20 0xFFFFFFFFFFFFFFFFFFFFFFFFFFFFFFFFFFFFFFFF MUL NOT AND SWAP1 DUP4 PUSH20 0xFFFFFFFFFFFFFFFFFFFFFFFFFFFFFFFFFFFFFFFF AND MUL OR SWAP1 SSTORE POP POP JUMP JUMPDEST PUSH32 0x4E487B7100000000000000000000000000000000000000000000000000000000 PUSH0 MSTORE PUSH1 0x21 PUSH1 0x4 MSTORE PUSH1 0x24 PUSH0 REVERT JUMPDEST PUSH1 0x5 DUP2 LT PUSH2 0xAA6 JUMPI PUSH2 0xAA5 PUSH2 0xA68 JUMP JUMPDEST JUMPDEST POP JUMP JUMPDEST PUSH0 DUP2 SWAP1 POP PUSH2 0xAB6 DUP3 PUSH2 0xA95 JUMP JUMPDEST SWAP2 SWAP1 POP JUMP JUMPDEST PUSH0 PUSH2 0xAC5 DUP3 PUSH2 0xAA9 JUMP JUMPDEST SWAP1 POP SWAP2 SWAP1 POP JUMP JUMPDEST PUSH2 0xAD5 DUP2 PUSH2 0xABB JUMP JUMPDEST DUP3 MSTORE POP POP JUMP JUMPDEST PUSH0 PUSH1 0x20 DUP3 ADD SWAP1 POP PUSH2 0xAEE PUSH0 DUP4 ADD DUP5 PUSH2 0xACC JUMP JUMPDEST SWAP3 SWAP2 POP POP JUMP JUMPDEST PUSH0 PUSH2 0xFFFF DUP3 AND SWAP1 POP SWAP2 SWAP1 POP JUMP JUMPDEST PUSH2 0xB0A DUP2 PUSH2 0xAF4 JUMP JUMPDEST DUP3 MSTORE POP POP JUMP JUMPDEST PUSH0 PUSH1 0x20 DUP3 ADD SWAP1 POP PUSH2 0xB23 PUSH0 DUP4 ADD DUP5 PUSH2 0xB01 JUMP JUMPDEST SWAP3 SWAP2 POP POP JUMP JUMPDEST PUSH0 DUP1 REVERT JUMPDEST PUSH0 DUP2 SWAP1 POP SWAP2 SWAP1 POP JUMP JUMPDEST PUSH2 0xB3F DUP2 PUSH2 0xB2D JUMP JUMPDEST DUP2 EQ PUSH2 0xB49 JUMPI PUSH0 DUP1 REVERT JUMPDEST POP JUMP JUMPDEST PUSH0 DUP2 CALLDATALOAD SWAP1 POP PUSH2 0xB5A DUP2 PUSH2 0xB36 JUMP JUMPDEST SWAP3 SWAP2 POP POP JUMP JUMPDEST PUSH0 PUSH1 0x20 DUP3 DUP5 SUB SLT ISZERO PUSH2 0xB75 JUMPI PUSH2 0xB74 PUSH2 0xB29 JUMP JUMPDEST JUMPDEST PUSH0 PUSH2 0xB82 DUP5 DUP3 DUP6 ADD PUSH2 0xB4C JUMP JUMPDEST SWAP2 POP POP SWAP3 SWAP2 POP POP JUMP JUMPDEST PUSH0 PUSH20 0xFFFFFFFFFFFFFFFFFFFFFFFFFFFFFFFFFFFFFFFF DUP3 AND SWAP1 POP SWAP2 SWAP1 POP JUMP JUMPDEST PUSH0 PUSH2 0xBB4 DUP3 PUSH2 0xB8B JUMP JUMPDEST SWAP1 POP SWAP2 SWAP1 POP JUMP JUMPDEST PUSH2 0xBC4 DUP2 PUSH2 0xBAA JUMP JUMPDEST DUP3 MSTORE POP POP JUMP JUMPDEST PUSH0 PUSH1 0x20 DUP3 ADD SWAP1 POP PUSH2 0xBDD PUSH0 DUP4 ADD DUP5 PUSH2 0xBBB JUMP JUMPDEST SWAP3 SWAP2 POP POP JUMP JUMPDEST PUSH2 0xBEC DUP2 PUSH2 0xBAA JUMP JUMPDEST DUP2 EQ PUSH2 0xBF6 JUMPI PUSH0 DUP1 REVERT JUMPDEST POP JUMP JUMPDEST PUSH0 DUP2 CALLDATALOAD SWAP1 POP PUSH2 0xC07 DUP2 PUSH2 0xBE3 JUMP JUMPDEST SWAP3 SWAP2 POP POP JUMP JUMPDEST PUSH0 PUSH1 0x20 DUP3 DUP5 SUB SLT ISZERO PUSH2 0xC22 JUMPI PUSH2 0xC21 PUSH2 0xB29 JUMP JUMPDEST JUMPDEST PUSH0 PUSH2 0xC2F DUP5 DUP3 DUP6 ADD PUSH2 0xBF9 JUMP JUMPDEST SWAP2 POP POP SWAP3 SWAP2 POP POP JUMP JUMPDEST PUSH0 DUP2 ISZERO ISZERO SWAP1 POP SWAP2 SWAP1 POP JUMP JUMPDEST PUSH2 0xC4C DUP2 PUSH2 0xC38 JUMP JUMPDEST DUP3 MSTORE POP POP JUMP JUMPDEST PUSH0 PUSH1 0x20 DUP3 ADD SWAP1 POP PUSH2 0xC65 PUSH0 DUP4 ADD DUP5 PUSH2 0xC43 JUMP JUMPDEST SWAP3 SWAP2 POP POP JUMP JUMPDEST PUSH2 0xC74 DUP2 PUSH2 0xB2D JUMP JUMPDEST DUP3 MSTORE POP POP JUMP JUMPDEST PUSH0 PUSH1 0x20 DUP3 ADD SWAP1 POP PUSH2 0xC8D PUSH0 DUP4 ADD DUP5 PUSH2 0xC6B JUMP JUMPDEST SWAP3 SWAP2 POP POP JUMP JUMPDEST PUSH0 DUP3 DUP3 MSTORE PUSH1 0x20 DUP3 ADD SWAP1 POP SWAP3 SWAP2 POP POP JUMP JUMPDEST PUSH32 0x496E76616C6964207374617465207472616E736974696F6E0000000000000000 PUSH0 DUP3 ADD MSTORE POP JUMP JUMPDEST PUSH0 PUSH2 0xCD7 PUSH1 0x18 DUP4 PUSH2 0xC93 JUMP JUMPDEST SWAP2 POP PUSH2 0xCE2 DUP3 PUSH2 0xCA3 JUMP JUMPDEST PUSH1 0x20 DUP3 ADD SWAP1 POP SWAP2 SWAP1 POP JUMP JUMPDEST PUSH0 PUSH1 0x20 DUP3 ADD SWAP1 POP DUP2 DUP2 SUB PUSH0 DUP4 ADD MSTORE PUSH2 0xD04 DUP2 PUSH2 0xCCB JUMP JUMPDEST SWAP1 POP SWAP2 SWAP1 POP JUMP JUMPDEST PUSH32 0x496E646578206F7574206F662072616E67650000000000000000000000000000 PUSH0 DUP3 ADD MSTORE POP JUMP JUMPDEST PUSH0 PUSH2 0xD3F PUSH1 0x12 DUP4 PUSH2 0xC93 JUMP JUMPDEST SWAP2 POP PUSH2 0xD4A DUP3 PUSH2 0xD0B JUMP JUMPDEST PUSH1 0x20 DUP3 ADD SWAP1 POP SWAP2 SWAP1 POP JUMP JUMPDEST PUSH0 PUSH1 0x20 DUP3 ADD SWAP1 POP DUP2 DUP2 SUB PUSH0 DUP4 ADD MSTORE PUSH2 0xD6C DUP2 PUSH2 0xD33 JUMP JUMPDEST SWAP1 POP SWAP2 SWAP1 POP JUMP JUMPDEST PUSH32 0x4E487B7100000000000000000000000000000000000000000000000000000000 PUSH0 MSTORE PUSH1 0x32 PUSH1 0x4 MSTORE PUSH1 0x24 PUSH0 REVERT JUMPDEST PUSH32 0x416C726561647920656E67616765640000000000000000000000000000000000 PUSH0 DUP3 ADD MSTORE POP JUMP JUMPDEST PUSH0 PUSH2 0xDD4 PUSH1 0xF DUP4 PUSH2 0xC93 JUMP JUMPDEST SWAP2 POP PUSH2 0xDDF DUP3 PUSH2 0xDA0 JUMP JUMPDEST PUSH1 0x20 DUP3 ADD SWAP1 POP SWAP2 SWAP1 POP JUMP JUMPDEST PUSH0 PUSH1 0x20 DUP3 ADD SWAP1 POP DUP2 DUP2 SUB PUSH0 DUP4 ADD MSTORE PUSH2 0xE01 DUP2 PUSH2 0xDC8 JUMP JUMPDEST SWAP1 POP SWAP2 SWAP1 POP JUMP JUMPDEST PUSH32 0x43616E6E6F74206D6172727920796F757273656C660000000000000000000000 PUSH0 DUP3 ADD MSTORE POP JUMP JUMPDEST PUSH0 PUSH2 0xE3C PUSH1 0x15 DUP4 PUSH2 0xC93 JUMP JUMPDEST SWAP2 POP PUSH2 0xE47 DUP3 PUSH2 0xE08 JUMP JUMPDEST PUSH1 0x20 DUP3 ADD SWAP1 POP SWAP2 SWAP1 POP JUMP JUMPDEST PUSH0 PUSH1 0x20 DUP3 ADD SWAP1 POP DUP2 DUP2 SUB PUSH0 DUP4 ADD MSTORE PUSH2 0xE69 DUP2 PUSH2 0xE30 JUMP JUMPDEST SWAP1 POP SWAP2 SWAP1 POP JUMP JUMPDEST PUSH32 0x4F6E6C792073706F757365732063616E2063616C6C20746869732066756E6374 PUSH0 DUP3 ADD MSTORE PUSH32 0x696F6E0000000000000000000000000000000000000000000000000000000000 PUSH1 0x20 DUP3 ADD MSTORE POP JUMP JUMPDEST PUSH0 PUSH2 0xECA PUSH1 0x23 DUP4 PUSH2 0xC93 JUMP JUMPDEST SWAP2 POP PUSH2 0xED5 DUP3 PUSH2 0xE70 JUMP JUMPDEST PUSH1 0x40 DUP3 ADD SWAP1 POP SWAP2 SWAP1 POP JUMP JUMPDEST PUSH0 PUSH1 0x20 DUP3 ADD SWAP1 POP DUP2 DUP2 SUB PUSH0 DUP4 ADD MSTORE PUSH2 0xEF7 DUP2 PUSH2 0xEBE JUMP JUMPDEST SWAP1 POP SWAP2 SWAP1 POP JUMP JUMPDEST PUSH32 0x426F74682073706F75736573206D75737420626520656E676167656420746F20 PUSH0 DUP3 ADD MSTORE PUSH32 0x6D61727279000000000000000000000000000000000000000000000000000000 PUSH1 0x20 DUP3 ADD MSTORE POP JUMP JUMPDEST PUSH0 PUSH2 0xF58 PUSH1 0x25 DUP4 PUSH2 0xC93 JUMP JUMPDEST SWAP2 POP PUSH2 0xF63 DUP3 PUSH2 0xEFE JUMP JUMPDEST PUSH1 0x40 DUP3 ADD SWAP1 POP SWAP2 SWAP1 POP JUMP JUMPDEST PUSH0 PUSH1 0x20 DUP3 ADD SWAP1 POP DUP2 DUP2 SUB PUSH0 DUP4 ADD MSTORE PUSH2 0xF85 DUP2 PUSH2 0xF4C JUMP JUMPDEST SWAP1 POP SWAP2 SWAP1 POP JUMP JUMPDEST PUSH32 0x696E76616C6964207374617465207472616E736974696F6E0000000000000000 PUSH0 DUP3 ADD MSTORE POP JUMP JUMPDEST PUSH0 PUSH2 0xFC0 PUSH1 0x18 DUP4 PUSH2 0xC93 JUMP JUMPDEST SWAP2 POP PUSH2 0xFCB DUP3 PUSH2 0xF8C JUMP JUMPDEST PUSH1 0x20 DUP3 ADD SWAP1 POP SWAP2 SWAP1 POP JUMP JUMPDEST PUSH0 PUSH1 0x20 DUP3 ADD SWAP1 POP DUP2 DUP2 SUB PUSH0 DUP4 ADD MSTORE PUSH2 0xFED DUP2 PUSH2 0xFB4 JUMP JUMPDEST SWAP1 POP SWAP2 SWAP1 POP JUMP INVALID LOG2 PUSH5 0x6970667358 0x22 SLT KECCAK256 0x4E MUL 0xED 0xD8 PUSH17 0xA9FE9B121C1806722C5028A050DAA7D615 PUSH31 0x89EA0402F9B35DB86F64736F6C634300081400330000000000000000000000 "
				},
				"gasEstimates": {
					"creation": {
						"codeDepositCost": "827600",
						"executionCost": "73759",
						"totalCost": "901359"
					},
					"external": {
						"addParticipant(address)": "49113",
						"currentState()": "2578",
						"engage(address)": "57107",
						"getCurrentState()": "2606",
						"getParticipantByIndex(uint256)": "7152",
						"getParticipantCount()": "2462",
						"isEngaged()": "2584",
						"isMarried()": "2606",
						"marry()": "36860",
						"participants(uint256)": "4967",
						"transitionToAborted()": "28900",
						"transitionToInvalid()": "26705",
						"transitionToRegistered()": "26727",
						"transitionToWed()": "26683",
						"weddingDay()": "2585"
					}
				},
				"methodIdentifiers": {
					"addParticipant(address)": "dfafe10f",
					"currentState()": "0c3f6acf",
					"engage(address)": "6ac1733f",
					"getCurrentState()": "378aa701",
					"getParticipantByIndex(uint256)": "61b58b46",
					"getParticipantCount()": "ad605729",
					"isEngaged()": "90f1e756",
					"isMarried()": "a702314d",
					"marry()": "85b9a11f",
					"participants(uint256)": "35c1d349",
					"transitionToAborted()": "17e15d28",
					"transitionToInvalid()": "c36a160d",
					"transitionToRegistered()": "65a4cabc",
					"transitionToWed()": "c21f5d84",
					"weddingDay()": "2fc5a6df"
				}
			},
			"storageLayout": {
				"storage": [
					{
						"astId": 3,
						"contract": "marrige.sol:MarriageContract",
						"label": "spouse1",
						"offset": 0,
						"slot": "0",
						"type": "t_address"
					},
					{
						"astId": 5,
						"contract": "marrige.sol:MarriageContract",
						"label": "spouse2",
						"offset": 0,
						"slot": "1",
						"type": "t_address"
					},
					{
						"astId": 7,
						"contract": "marrige.sol:MarriageContract",
						"label": "isEngaged",
						"offset": 20,
						"slot": "1",
						"type": "t_bool"
					},
					{
						"astId": 9,
						"contract": "marrige.sol:MarriageContract",
						"label": "isMarried",
						"offset": 21,
						"slot": "1",
						"type": "t_bool"
					},
					{
						"astId": 11,
						"contract": "marrige.sol:MarriageContract",
						"label": "weddingDay",
						"offset": 22,
						"slot": "1",
						"type": "t_uint16"
					},
					{
						"astId": 14,
						"contract": "marrige.sol:MarriageContract",
						"label": "participants",
						"offset": 0,
						"slot": "2",
						"type": "t_array(t_address)dyn_storage"
					},
					{
						"astId": 23,
						"contract": "marrige.sol:MarriageContract",
						"label": "currentState",
						"offset": 0,
						"slot": "3",
						"type": "t_enum(State)20"
					}
				],
				"types": {
					"t_address": {
						"encoding": "inplace",
						"label": "address",
						"numberOfBytes": "20"
					},
					"t_array(t_address)dyn_storage": {
						"base": "t_address",
						"encoding": "dynamic_array",
						"label": "address[]",
						"numberOfBytes": "32"
					},
					"t_bool": {
						"encoding": "inplace",
						"label": "bool",
						"numberOfBytes": "1"
					},
					"t_enum(State)20": {
						"encoding": "inplace",
						"label": "enum MarriageContract.State",
						"numberOfBytes": "1"
					},
					"t_uint16": {
						"encoding": "inplace",
						"label": "uint16",
						"numberOfBytes": "2"
					}
				}
			},
			"userdoc": {
				"kind": "user",
				"methods": {},
				"version": 1
			}
		}
	}
}