{
	"data": {
		"bytecode": {
			"linkReferences": {},
			"object": "608060405234801562000010575f80fd5b50335f806101000a81548173ffffffffffffffffffffffffffffffffffffffff021916908373ffffffffffffffffffffffffffffffffffffffff1602179055505f600460146101000a81548160ff0219169083600481111562000078576200007762000083565b5b0217905550620000b0565b7f4e487b71000000000000000000000000000000000000000000000000000000005f52602160045260245ffd5b6130f380620000be5f395ff3fe608060405234801561000f575f80fd5b5060043610610135575f3560e01c806385b9a11f116100b6578063af3b19e51161007a578063af3b19e5146102f0578063be04c2d0146102fa578063d6b225be14610304578063df5d5f3714610322578063f1288c1d14610352578063fb6a90f81461037057610135565b806385b9a11f1461027057806388f2370d1461027a57806391c37fc11461028457806391f8bb6c146102a2578063a17cf962146102c057610135565b8063391f37cc116100fd578063391f37cc1461020657806349705bbb146102105780634f8675591461022c57806353605f48146102485780636d955eb51461026657610135565b8063036ee850146101395780630461c19b146101575780630c3f6acf14610187578063181b3fdb146101a55780632a6247e5146101d6575b5f80fd5b61014161038e565b60405161014e9190611f50565b60405180910390f35b610171600480360381019061016c9190611fb3565b6103a1565b60405161017e9190611fed565b60405180910390f35b61018f6103cd565b60405161019c9190612079565b60405180910390f35b6101bf60048036038101906101ba91906120ec565b6103e0565b6040516101cd929190612131565b60405180910390f35b6101f060048036038101906101eb919061218b565b610418565b6040516101fd91906121c5565b60405180910390f35b61020e610453565b005b61022a600480360381019061022591906121de565b610713565b005b6102466004803603810190610241919061236c565b610907565b005b610250610cba565b60405161025d91906121c5565b60405180910390f35b61026e610cdf565b005b610278610f00565b005b610282611284565b005b61028c6117a6565b604051610299919061240e565b60405180910390f35b6102aa6117cb565b6040516102b79190611fed565b60405180910390f35b6102da60048036038101906102d591906120ec565b6117e1565b6040516102e79190612427565b60405180910390f35b6102f86117fe565b005b610302611954565b005b61030c611b05565b6040516103199190611f50565b60405180910390f35b61033c600480360381019061033791906120ec565b611b18565b6040516103499190612427565b60405180910390f35b61035a611b35565b6040516103679190612460565b60405180910390f35b610378611b5a565b60405161038591906121c5565b60405180910390f35b60075f9054906101000a900461ffff1681565b5f806201518090505f8182856103b791906124d3565b6103c19190612503565b90508092505050919050565b600460149054906101000a900460ff1681565b6008602052805f5260405f205f91509050805f015f9054906101000a900460ff1690805f0160019054906101000a900460ff16905082565b60058181548110610427575f80fd5b905f5260205f20015f915054906101000a900473ffffffffffffffffffffffffffffffffffffffff1681565b5f8054906101000a900473ffffffffffffffffffffffffffffffffffffffff1673ffffffffffffffffffffffffffffffffffffffff163373ffffffffffffffffffffffffffffffffffffffff1614806104f8575060015f9054906101000a900473ffffffffffffffffffffffffffffffffffffffff1673ffffffffffffffffffffffffffffffffffffffff163373ffffffffffffffffffffffffffffffffffffffff16145b610537576040517f08c379a000000000000000000000000000000000000000000000000000000000815260040161052e906125bf565b60405180910390fd5b6001600481111561054b5761054a612006565b5b600460149054906101000a900460ff16600481111561056d5761056c612006565b5b146105ad576040517f08c379a00000000000000000000000000000000000000000000000000000000081526004016105a490612627565b60405180910390fd5b6001151560065f3373ffffffffffffffffffffffffffffffffffffffff1673ffffffffffffffffffffffffffffffffffffffff1681526020019081526020015f205f9054906101000a900460ff1615150361063d576040517f08c379a00000000000000000000000000000000000000000000000000000000081526004016106349061268f565b60405180910390fd5b5f60058054905011610684576040517f08c379a000000000000000000000000000000000000000000000000000000000815260040161067b906126f7565b60405180910390fd5b600160065f3373ffffffffffffffffffffffffffffffffffffffff1673ffffffffffffffffffffffffffffffffffffffff1681526020019081526020015f205f6101000a81548160ff0219169083151502179055507f33b84f319a927039abe58f2ec6b683ba73c74a309bc9288c3e37562b9727126e6005604051610709919061282b565b60405180910390a1565b8173ffffffffffffffffffffffffffffffffffffffff163373ffffffffffffffffffffffffffffffffffffffff1603610781576040517f08c379a000000000000000000000000000000000000000000000000000000000815260040161077890612895565b60405180910390fd5b61078a82611b7d565b6107c9576040517f08c379a00000000000000000000000000000000000000000000000000000000081526004016107c0906128fd565b60405180910390fd5b80600160146101000a81548163ffffffff021916908363ffffffff160217905550335f806101000a81548173ffffffffffffffffffffffffffffffffffffffff021916908373ffffffffffffffffffffffffffffffffffffffff1602179055508160015f6101000a81548173ffffffffffffffffffffffffffffffffffffffff021916908373ffffffffffffffffffffffffffffffffffffffff16021790555060015f9054906101000a900473ffffffffffffffffffffffffffffffffffffffff1673ffffffffffffffffffffffffffffffffffffffff165f8054906101000a900473ffffffffffffffffffffffffffffffffffffffff1673ffffffffffffffffffffffffffffffffffffffff167fb9667c497613d36d751e12ac344149b1a6ab6a60acccdc58e623735e937faf2c60405160405180910390a35050565b5f8054906101000a900473ffffffffffffffffffffffffffffffffffffffff1673ffffffffffffffffffffffffffffffffffffffff163373ffffffffffffffffffffffffffffffffffffffff1614806109ac575060015f9054906101000a900473ffffffffffffffffffffffffffffffffffffffff1673ffffffffffffffffffffffffffffffffffffffff163373ffffffffffffffffffffffffffffffffffffffff16145b6109eb576040517f08c379a00000000000000000000000000000000000000000000000000000000081526004016109e2906125bf565b60405180910390fd5b600160048111156109ff576109fe612006565b5b600460149054906101000a900460ff166004811115610a2157610a20612006565b5b14610a61576040517f08c379a0000000000000000000000000000000000000000000000000000000008152600401610a5890612627565b60405180910390fd5b6001151560065f805f9054906101000a900473ffffffffffffffffffffffffffffffffffffffff1673ffffffffffffffffffffffffffffffffffffffff1673ffffffffffffffffffffffffffffffffffffffff1681526020019081526020015f205f9054906101000a900460ff16151514158015610b4e57506001151560065f60015f9054906101000a900473ffffffffffffffffffffffffffffffffffffffff1673ffffffffffffffffffffffffffffffffffffffff1673ffffffffffffffffffffffffffffffffffffffff1681526020019081526020015f205f9054906101000a900460ff16151514155b610b8d576040517f08c379a0000000000000000000000000000000000000000000000000000000008152600401610b849061298b565b60405180910390fd5b5f5b81518160ff161015610c1357610bc1828260ff1681518110610bb457610bb36129a9565b5b6020026020010151611b7d565b610c00576040517f08c379a0000000000000000000000000000000000000000000000000000000008152600401610bf790612a20565b60405180910390fd5b8080610c0b90612a4a565b915050610b8f565b508060059080519060200190610c2a929190611e92565b50600160065f3373ffffffffffffffffffffffffffffffffffffffff1673ffffffffffffffffffffffffffffffffffffffff1681526020019081526020015f205f6101000a81548160ff0219169083151502179055507f2380a2acf6c01a4e0f0091094fb2420ce1a1a2d5fe40975245cf97eb76dfda6381604051610caf9190612af3565b60405180910390a150565b60015f9054906101000a900473ffffffffffffffffffffffffffffffffffffffff1681565b5f8054906101000a900473ffffffffffffffffffffffffffffffffffffffff1673ffffffffffffffffffffffffffffffffffffffff163373ffffffffffffffffffffffffffffffffffffffff161480610d84575060015f9054906101000a900473ffffffffffffffffffffffffffffffffffffffff1673ffffffffffffffffffffffffffffffffffffffff163373ffffffffffffffffffffffffffffffffffffffff16145b610dc3576040517f08c379a0000000000000000000000000000000000000000000000000000000008152600401610dba906125bf565b60405180910390fd5b60016004811115610dd757610dd6612006565b5b600460149054906101000a900460ff166004811115610df957610df8612006565b5b14610e39576040517f08c379a0000000000000000000000000000000000000000000000000000000008152600401610e3090612b83565b60405180910390fd5b6002600460146101000a81548160ff02191690836004811115610e5f57610e5e612006565b5b021790555060015f9054906101000a900473ffffffffffffffffffffffffffffffffffffffff1673ffffffffffffffffffffffffffffffffffffffff165f8054906101000a900473ffffffffffffffffffffffffffffffffffffffff1673ffffffffffffffffffffffffffffffffffffffff167f5c194a9036770a0cd11eaa73e90e3025e63cccc66eae51902f3f0aeea62df5a960405160405180910390a3565b5f8054906101000a900473ffffffffffffffffffffffffffffffffffffffff1673ffffffffffffffffffffffffffffffffffffffff163373ffffffffffffffffffffffffffffffffffffffff161480610fa5575060015f9054906101000a900473ffffffffffffffffffffffffffffffffffffffff1673ffffffffffffffffffffffffffffffffffffffff163373ffffffffffffffffffffffffffffffffffffffff16145b610fe4576040517f08c379a0000000000000000000000000000000000000000000000000000000008152600401610fdb906125bf565b60405180910390fd5b60016004811115610ff857610ff7612006565b5b600460149054906101000a900460ff16600481111561101a57611019612006565b5b1461105a576040517f08c379a000000000000000000000000000000000000000000000000000000000815260040161105190612c11565b60405180910390fd5b60025f805f9054906101000a900473ffffffffffffffffffffffffffffffffffffffff1673ffffffffffffffffffffffffffffffffffffffff1673ffffffffffffffffffffffffffffffffffffffff1681526020019081526020015f205f9054906101000a900460ff168015611137575060025f60015f9054906101000a900473ffffffffffffffffffffffffffffffffffffffff1673ffffffffffffffffffffffffffffffffffffffff1673ffffffffffffffffffffffffffffffffffffffff1681526020019081526020015f205f9054906101000a900460ff165b611176576040517f08c379a000000000000000000000000000000000000000000000000000000000815260040161116d90612c9f565b60405180910390fd5b61117e611bb5565b6111bd576040517f08c379a00000000000000000000000000000000000000000000000000000000081526004016111b490612d2d565b60405180910390fd5b6003600460146101000a81548160ff021916908360048111156111e3576111e2612006565b5b021790555060015f9054906101000a900473ffffffffffffffffffffffffffffffffffffffff1673ffffffffffffffffffffffffffffffffffffffff165f8054906101000a900473ffffffffffffffffffffffffffffffffffffffff1673ffffffffffffffffffffffffffffffffffffffff167fc89ef770a4ad395ebdc22b63de541b88daf19f335056f203fa06e4154b62bb7b60405160405180910390a3565b5f805b6005805490508161ffff1610156114b4573373ffffffffffffffffffffffffffffffffffffffff1660058261ffff16815481106112c7576112c66129a9565b5b905f5260205f20015f9054906101000a900473ffffffffffffffffffffffffffffffffffffffff1673ffffffffffffffffffffffffffffffffffffffff16036114a1576001915060085f3373ffffffffffffffffffffffffffffffffffffffff1673ffffffffffffffffffffffffffffffffffffffff1681526020019081526020015f205f015f9054906101000a900460ff161561139a576040517f08c379a000000000000000000000000000000000000000000000000000000000815260040161139190612d95565b60405180910390fd5b60405180604001604052806001151581526020016001151581525060085f3373ffffffffffffffffffffffffffffffffffffffff1673ffffffffffffffffffffffffffffffffffffffff1681526020019081526020015f205f820151815f015f6101000a81548160ff0219169083151502179055506020820151815f0160016101000a81548160ff02191690831515021790555090505060095f81819054906101000a900461ffff168092919061145090612db3565b91906101000a81548161ffff021916908361ffff16021790555050600260058054905061147d9190612ddc565b60095f9054906101000a900461ffff1661ffff1611156114a05761149f611c08565b5b5b80806114ac90612db3565b915050611287565b50806114f5576040517f08c379a00000000000000000000000000000000000000000000000000000000081526004016114ec90612e7c565b60405180910390fd5b60065f805f9054906101000a900473ffffffffffffffffffffffffffffffffffffffff1673ffffffffffffffffffffffffffffffffffffffff1673ffffffffffffffffffffffffffffffffffffffff1681526020019081526020015f205f9054906101000a900460ff1680156115d2575060065f60015f9054906101000a900473ffffffffffffffffffffffffffffffffffffffff1673ffffffffffffffffffffffffffffffffffffffff1673ffffffffffffffffffffffffffffffffffffffff1681526020019081526020015f205f9054906101000a900460ff165b611611576040517f08c379a000000000000000000000000000000000000000000000000000000000815260040161160890612f0a565b60405180910390fd5b60085f3373ffffffffffffffffffffffffffffffffffffffff1673ffffffffffffffffffffffffffffffffffffffff1681526020019081526020015f205f015f9054906101000a900460ff161561169d576040517f08c379a000000000000000000000000000000000000000000000000000000000815260040161169490612d95565b60405180910390fd5b60405180604001604052806001151581526020016001151581525060085f3373ffffffffffffffffffffffffffffffffffffffff1673ffffffffffffffffffffffffffffffffffffffff1681526020019081526020015f205f820151815f015f6101000a81548160ff0219169083151502179055506020820151815f0160016101000a81548160ff02191690831515021790555090505060095f81819054906101000a900461ffff168092919061175390612db3565b91906101000a81548161ffff021916908361ffff1602179055505060026005805490506117809190612ddc565b60095f9054906101000a900461ffff1661ffff1611156117a3576117a2611c08565b5b50565b60045f9054906101000a900473ffffffffffffffffffffffffffffffffffffffff1681565b600160149054906101000a900463ffffffff1681565b6006602052805f5260405f205f915054906101000a900460ff1681565b60015f9054906101000a900473ffffffffffffffffffffffffffffffffffffffff1673ffffffffffffffffffffffffffffffffffffffff163373ffffffffffffffffffffffffffffffffffffffff161461188d576040517f08c379a000000000000000000000000000000000000000000000000000000000815260040161188490612f98565b60405180910390fd5b6001600460146101000a81548160ff021916908360048111156118b3576118b2612006565b5b021790555060015f9054906101000a900473ffffffffffffffffffffffffffffffffffffffff1673ffffffffffffffffffffffffffffffffffffffff165f8054906101000a900473ffffffffffffffffffffffffffffffffffffffff1673ffffffffffffffffffffffffffffffffffffffff167f0655a45d06bbb71039d6dc070f5dbb8143a5c0bce1efcea7dec3b66237d9edd560405160405180910390a3565b5f8054906101000a900473ffffffffffffffffffffffffffffffffffffffff1673ffffffffffffffffffffffffffffffffffffffff163373ffffffffffffffffffffffffffffffffffffffff1614806119f9575060015f9054906101000a900473ffffffffffffffffffffffffffffffffffffffff1673ffffffffffffffffffffffffffffffffffffffff163373ffffffffffffffffffffffffffffffffffffffff16145b611a38576040517f08c379a0000000000000000000000000000000000000000000000000000000008152600401611a2f906125bf565b60405180910390fd5b60016004811115611a4c57611a4b612006565b5b600460149054906101000a900460ff166004811115611a6e57611a6d612006565b5b14611aae576040517f08c379a0000000000000000000000000000000000000000000000000000000008152600401611aa590613000565b60405180910390fd5b600160025f3373ffffffffffffffffffffffffffffffffffffffff1673ffffffffffffffffffffffffffffffffffffffff1681526020019081526020015f205f6101000a81548160ff021916908315150217905550565b60095f9054906101000a900461ffff1681565b6002602052805f5260405f205f915054906101000a900460ff1681565b60035f9054906101000a900473ffffffffffffffffffffffffffffffffffffffff1681565b5f8054906101000a900473ffffffffffffffffffffffffffffffffffffffff1681565b5f8073ffffffffffffffffffffffffffffffffffffffff168273ffffffffffffffffffffffffffffffffffffffff1614159050919050565b5f80611bd2600160149054906101000a900463ffffffff166103a1565b90505f6201518082611be4919061301e565b90508163ffffffff164210158015611c0157508063ffffffff1642105b9250505090565b60026004811115611c1c57611c1b612006565b5b600460149054906101000a900460ff166004811115611c3e57611c3d612006565b5b03611c7e576040517f08c379a0000000000000000000000000000000000000000000000000000000008152600401611c759061309f565b60405180910390fd5b60048060146101000a81548160ff02191690836004811115611ca357611ca2612006565b5b021790555060035f9054906101000a900473ffffffffffffffffffffffffffffffffffffffff1673ffffffffffffffffffffffffffffffffffffffff1663f1a499e25f8054906101000a900473ffffffffffffffffffffffffffffffffffffffff166040518263ffffffff1660e01b8152600401611d2191906121c5565b5f604051808303815f87803b158015611d38575f80fd5b505af1158015611d4a573d5f803e3d5ffd5b5050505060035f9054906101000a900473ffffffffffffffffffffffffffffffffffffffff1673ffffffffffffffffffffffffffffffffffffffff1663f1a499e260015f9054906101000a900473ffffffffffffffffffffffffffffffffffffffff166040518263ffffffff1660e01b8152600401611dc991906121c5565b5f604051808303815f87803b158015611de0575f80fd5b505af1158015611df2573d5f803e3d5ffd5b5050505060015f9054906101000a900473ffffffffffffffffffffffffffffffffffffffff1673ffffffffffffffffffffffffffffffffffffffff165f8054906101000a900473ffffffffffffffffffffffffffffffffffffffff1673ffffffffffffffffffffffffffffffffffffffff167fef2ff083bcc8a022f43f0f90d8baf5d39dd6139f8be9943a343a61247527790d60405160405180910390a3565b828054828255905f5260205f20908101928215611f08579160200282015b82811115611f07578251825f6101000a81548173ffffffffffffffffffffffffffffffffffffffff021916908373ffffffffffffffffffffffffffffffffffffffff16021790555091602001919060010190611eb0565b5b509050611f159190611f19565b5090565b5b80821115611f30575f815f905550600101611f1a565b5090565b5f61ffff82169050919050565b611f4a81611f34565b82525050565b5f602082019050611f635f830184611f41565b92915050565b5f604051905090565b5f80fd5b5f80fd5b5f63ffffffff82169050919050565b611f9281611f7a565b8114611f9c575f80fd5b50565b5f81359050611fad81611f89565b92915050565b5f60208284031215611fc857611fc7611f72565b5b5f611fd584828501611f9f565b91505092915050565b611fe781611f7a565b82525050565b5f6020820190506120005f830184611fde565b92915050565b7f4e487b71000000000000000000000000000000000000000000000000000000005f52602160045260245ffd5b6005811061204457612043612006565b5b50565b5f81905061205482612033565b919050565b5f61206382612047565b9050919050565b61207381612059565b82525050565b5f60208201905061208c5f83018461206a565b92915050565b5f73ffffffffffffffffffffffffffffffffffffffff82169050919050565b5f6120bb82612092565b9050919050565b6120cb816120b1565b81146120d5575f80fd5b50565b5f813590506120e6816120c2565b92915050565b5f6020828403121561210157612100611f72565b5b5f61210e848285016120d8565b91505092915050565b5f8115159050919050565b61212b81612117565b82525050565b5f6040820190506121445f830185612122565b6121516020830184612122565b9392505050565b5f819050919050565b61216a81612158565b8114612174575f80fd5b50565b5f8135905061218581612161565b92915050565b5f602082840312156121a05761219f611f72565b5b5f6121ad84828501612177565b91505092915050565b6121bf816120b1565b82525050565b5f6020820190506121d85f8301846121b6565b92915050565b5f80604083850312156121f4576121f3611f72565b5b5f612201858286016120d8565b925050602061221285828601611f9f565b9150509250929050565b5f80fd5b5f601f19601f8301169050919050565b7f4e487b71000000000000000000000000000000000000000000000000000000005f52604160045260245ffd5b61226682612220565b810181811067ffffffffffffffff8211171561228557612284612230565b5b80604052505050565b5f612297611f69565b90506122a3828261225d565b919050565b5f67ffffffffffffffff8211156122c2576122c1612230565b5b602082029050602081019050919050565b5f80fd5b5f6122e96122e4846122a8565b61228e565b9050808382526020820190506020840283018581111561230c5761230b6122d3565b5b835b81811015612335578061232188826120d8565b84526020840193505060208101905061230e565b5050509392505050565b5f82601f8301126123535761235261221c565b5b81356123638482602086016122d7565b91505092915050565b5f6020828403121561238157612380611f72565b5b5f82013567ffffffffffffffff81111561239e5761239d611f76565b5b6123aa8482850161233f565b91505092915050565b5f819050919050565b5f6123d66123d16123cc84612092565b6123b3565b612092565b9050919050565b5f6123e7826123bc565b9050919050565b5f6123f8826123dd565b9050919050565b612408816123ee565b82525050565b5f6020820190506124215f8301846123ff565b92915050565b5f60208201905061243a5f830184612122565b92915050565b5f61244a826123dd565b9050919050565b61245a81612440565b82525050565b5f6020820190506124735f830184612451565b92915050565b7f4e487b71000000000000000000000000000000000000000000000000000000005f52601260045260245ffd5b7f4e487b71000000000000000000000000000000000000000000000000000000005f52601160045260245ffd5b5f6124dd82611f7a565b91506124e883611f7a565b9250826124f8576124f7612479565b5b828204905092915050565b5f61250d82611f7a565b915061251883611f7a565b925082820261252681611f7a565b9150808214612538576125376124a6565b5b5092915050565b5f82825260208201905092915050565b7f4f6e6c792073706f757365732063616e2063616c6c20746869732066756e63745f8201527f696f6e0000000000000000000000000000000000000000000000000000000000602082015250565b5f6125a960238361253f565b91506125b48261254f565b604082019050919050565b5f6020820190508181035f8301526125d68161259d565b9050919050565b7f496e76616c696420656e676167656d656e7420737461747573000000000000005f82015250565b5f61261160198361253f565b915061261c826125dd565b602082019050919050565b5f6020820190508181035f83015261263e81612605565b9050919050565b7f4775657374206c69737420616c726561647920636f6e6669726d6564000000005f82015250565b5f612679601c8361253f565b915061268482612645565b602082019050919050565b5f6020820190508181035f8301526126a68161266d565b9050919050565b7f4e6f207061727469636970616e74732070726f706f73656400000000000000005f82015250565b5f6126e160188361253f565b91506126ec826126ad565b602082019050919050565b5f6020820190508181035f83015261270e816126d5565b9050919050565b5f81549050919050565b5f82825260208201905092915050565b5f819050815f5260205f209050919050565b61274a816120b1565b82525050565b5f61275b8383612741565b60208301905092915050565b5f815f1c9050919050565b5f73ffffffffffffffffffffffffffffffffffffffff82169050919050565b5f6127a361279e83612767565b612772565b9050919050565b5f6127b58254612791565b9050919050565b5f600182019050919050565b5f6127d282612715565b6127dc818561271f565b93506127e78361272f565b805f5b8381101561281e576127fb826127aa565b6128058882612750565b9750612810836127bc565b9250506001810190506127ea565b5085935050505092915050565b5f6020820190508181035f83015261284381846127c8565b905092915050565b7f43616e6e6f74206d6172727920796f757273656c6600000000000000000000005f82015250565b5f61287f60158361253f565b915061288a8261284b565b602082019050919050565b5f6020820190508181035f8301526128ac81612873565b9050919050565b7f496e76616c6964206164647265737300000000000000000000000000000000005f82015250565b5f6128e7600f8361253f565b91506128f2826128b3565b602082019050919050565b5f6020820190508181035f830152612914816128db565b9050919050565b7f53706f7573657320616c726561647920616772656564206f6e207061727469635f8201527f69706174696f6e206c6973740000000000000000000000000000000000000000602082015250565b5f612975602c8361253f565b91506129808261291b565b604082019050919050565b5f6020820190508181035f8301526129a281612969565b9050919050565b7f4e487b71000000000000000000000000000000000000000000000000000000005f52603260045260245ffd5b7f43616e6e6f7420696e7669746520616e20696e76616c696420616464726573735f82015250565b5f612a0a60208361253f565b9150612a15826129d6565b602082019050919050565b5f6020820190508181035f830152612a37816129fe565b9050919050565b5f60ff82169050919050565b5f612a5482612a3e565b915060ff8203612a6757612a666124a6565b5b600182019050919050565b5f81519050919050565b5f819050602082019050919050565b5f602082019050919050565b5f612aa182612a72565b612aab818561271f565b9350612ab683612a7c565b805f5b83811015612ae6578151612acd8882612750565b9750612ad883612a8b565b925050600181019050612ab9565b5085935050505092915050565b5f6020820190508181035f830152612b0b8184612a97565b905092915050565b7f596f752063616e74207265766f6b6520616e20756e61637469766520656e67615f8201527f67656d656e740000000000000000000000000000000000000000000000000000602082015250565b5f612b6d60268361253f565b9150612b7882612b13565b604082019050919050565b5f6020820190508181035f830152612b9a81612b61565b9050919050565b7f426f74682073706f75736573206d75737420626520656e676167656420746f205f8201527f6d61727279000000000000000000000000000000000000000000000000000000602082015250565b5f612bfb60258361253f565b9150612c0682612ba1565b604082019050919050565b5f6020820190508181035f830152612c2881612bef565b9050919050565b7f426f74682073706f75736573206d75737420736179204920646f20746f2067655f8201527f74206d6172726965640000000000000000000000000000000000000000000000602082015250565b5f612c8960298361253f565b9150612c9482612c2f565b604082019050919050565b5f6020820190508181035f830152612cb681612c7d565b9050919050565b7f43616e7420676574206d61727269656420696620697473206e6f7420796f75725f8201527f2077656464696e67206461790000000000000000000000000000000000000000602082015250565b5f612d17602c8361253f565b9150612d2282612cbd565b604082019050919050565b5f6020820190508181035f830152612d4481612d0b565b9050919050565b7f47756573742068617320616c726561647920766f7465640000000000000000005f82015250565b5f612d7f60178361253f565b9150612d8a82612d4b565b602082019050919050565b5f6020820190508181035f830152612dac81612d73565b9050919050565b5f612dbd82611f34565b915061ffff8203612dd157612dd06124a6565b5b600182019050919050565b5f612de682612158565b9150612df183612158565b925082612e0157612e00612479565b5b828204905092915050565b7f596f7520617265206e6f742061206775657374206174207468697320776564645f8201527f696e670000000000000000000000000000000000000000000000000000000000602082015250565b5f612e6660238361253f565b9150612e7182612e0c565b604082019050919050565b5f6020820190508181035f830152612e9381612e5a565b9050919050565b7f596f752068617665206e6f74206265656e20696e766974656420627920626f745f8201527f682073706f757365730000000000000000000000000000000000000000000000602082015250565b5f612ef460298361253f565b9150612eff82612e9a565b604082019050919050565b5f6020820190508181035f830152612f2181612ee8565b9050919050565b7f4f6e6c7920736f6d656f6e652070726f706f73656420746f2063616e206163635f8201527f6570740000000000000000000000000000000000000000000000000000000000602082015250565b5f612f8260238361253f565b9150612f8d82612f28565b604082019050919050565b5f6020820190508181035f830152612faf81612f76565b9050919050565b7f596f75206d75737420626520656e676167656420746f20736179204920646f005f82015250565b5f612fea601f8361253f565b9150612ff582612fb6565b602082019050919050565b5f6020820190508181035f83015261301781612fde565b9050919050565b5f61302882611f7a565b915061303383611f7a565b9250828201905063ffffffff81111561304f5761304e6124a6565b5b92915050565b7f696e76616c6964207374617465207472616e736974696f6e00000000000000005f82015250565b5f61308960188361253f565b915061309482613055565b602082019050919050565b5f6020820190508181035f8301526130b68161307d565b905091905056fea26469706673582212201bb062337c201a4c3817350d895b5b4fb340ef3f87e3be832d7724e5647de53764736f6c63430008140033",
			"opcodes": "PUSH1 0x80 PUSH1 0x40 MSTORE CALLVALUE DUP1 ISZERO PUSH3 0x10 JUMPI PUSH0 DUP1 REVERT JUMPDEST POP CALLER PUSH0 DUP1 PUSH2 0x100 EXP DUP2 SLOAD DUP2 PUSH20 0xFFFFFFFFFFFFFFFFFFFFFFFFFFFFFFFFFFFFFFFF MUL NOT AND SWAP1 DUP4 PUSH20 0xFFFFFFFFFFFFFFFFFFFFFFFFFFFFFFFFFFFFFFFF AND MUL OR SWAP1 SSTORE POP PUSH0 PUSH1 0x4 PUSH1 0x14 PUSH2 0x100 EXP DUP2 SLOAD DUP2 PUSH1 0xFF MUL NOT AND SWAP1 DUP4 PUSH1 0x4 DUP2 GT ISZERO PUSH3 0x78 JUMPI PUSH3 0x77 PUSH3 0x83 JUMP JUMPDEST JUMPDEST MUL OR SWAP1 SSTORE POP PUSH3 0xB0 JUMP JUMPDEST PUSH32 0x4E487B7100000000000000000000000000000000000000000000000000000000 PUSH0 MSTORE PUSH1 0x21 PUSH1 0x4 MSTORE PUSH1 0x24 PUSH0 REVERT JUMPDEST PUSH2 0x30F3 DUP1 PUSH3 0xBE PUSH0 CODECOPY PUSH0 RETURN INVALID PUSH1 0x80 PUSH1 0x40 MSTORE CALLVALUE DUP1 ISZERO PUSH2 0xF JUMPI PUSH0 DUP1 REVERT JUMPDEST POP PUSH1 0x4 CALLDATASIZE LT PUSH2 0x135 JUMPI PUSH0 CALLDATALOAD PUSH1 0xE0 SHR DUP1 PUSH4 0x85B9A11F GT PUSH2 0xB6 JUMPI DUP1 PUSH4 0xAF3B19E5 GT PUSH2 0x7A JUMPI DUP1 PUSH4 0xAF3B19E5 EQ PUSH2 0x2F0 JUMPI DUP1 PUSH4 0xBE04C2D0 EQ PUSH2 0x2FA JUMPI DUP1 PUSH4 0xD6B225BE EQ PUSH2 0x304 JUMPI DUP1 PUSH4 0xDF5D5F37 EQ PUSH2 0x322 JUMPI DUP1 PUSH4 0xF1288C1D EQ PUSH2 0x352 JUMPI DUP1 PUSH4 0xFB6A90F8 EQ PUSH2 0x370 JUMPI PUSH2 0x135 JUMP JUMPDEST DUP1 PUSH4 0x85B9A11F EQ PUSH2 0x270 JUMPI DUP1 PUSH4 0x88F2370D EQ PUSH2 0x27A JUMPI DUP1 PUSH4 0x91C37FC1 EQ PUSH2 0x284 JUMPI DUP1 PUSH4 0x91F8BB6C EQ PUSH2 0x2A2 JUMPI DUP1 PUSH4 0xA17CF962 EQ PUSH2 0x2C0 JUMPI PUSH2 0x135 JUMP JUMPDEST DUP1 PUSH4 0x391F37CC GT PUSH2 0xFD JUMPI DUP1 PUSH4 0x391F37CC EQ PUSH2 0x206 JUMPI DUP1 PUSH4 0x49705BBB EQ PUSH2 0x210 JUMPI DUP1 PUSH4 0x4F867559 EQ PUSH2 0x22C JUMPI DUP1 PUSH4 0x53605F48 EQ PUSH2 0x248 JUMPI DUP1 PUSH4 0x6D955EB5 EQ PUSH2 0x266 JUMPI PUSH2 0x135 JUMP JUMPDEST DUP1 PUSH4 0x36EE850 EQ PUSH2 0x139 JUMPI DUP1 PUSH4 0x461C19B EQ PUSH2 0x157 JUMPI DUP1 PUSH4 0xC3F6ACF EQ PUSH2 0x187 JUMPI DUP1 PUSH4 0x181B3FDB EQ PUSH2 0x1A5 JUMPI DUP1 PUSH4 0x2A6247E5 EQ PUSH2 0x1D6 JUMPI JUMPDEST PUSH0 DUP1 REVERT JUMPDEST PUSH2 0x141 PUSH2 0x38E JUMP JUMPDEST PUSH1 0x40 MLOAD PUSH2 0x14E SWAP2 SWAP1 PUSH2 0x1F50 JUMP JUMPDEST PUSH1 0x40 MLOAD DUP1 SWAP2 SUB SWAP1 RETURN JUMPDEST PUSH2 0x171 PUSH1 0x4 DUP1 CALLDATASIZE SUB DUP2 ADD SWAP1 PUSH2 0x16C SWAP2 SWAP1 PUSH2 0x1FB3 JUMP JUMPDEST PUSH2 0x3A1 JUMP JUMPDEST PUSH1 0x40 MLOAD PUSH2 0x17E SWAP2 SWAP1 PUSH2 0x1FED JUMP JUMPDEST PUSH1 0x40 MLOAD DUP1 SWAP2 SUB SWAP1 RETURN JUMPDEST PUSH2 0x18F PUSH2 0x3CD JUMP JUMPDEST PUSH1 0x40 MLOAD PUSH2 0x19C SWAP2 SWAP1 PUSH2 0x2079 JUMP JUMPDEST PUSH1 0x40 MLOAD DUP1 SWAP2 SUB SWAP1 RETURN JUMPDEST PUSH2 0x1BF PUSH1 0x4 DUP1 CALLDATASIZE SUB DUP2 ADD SWAP1 PUSH2 0x1BA SWAP2 SWAP1 PUSH2 0x20EC JUMP JUMPDEST PUSH2 0x3E0 JUMP JUMPDEST PUSH1 0x40 MLOAD PUSH2 0x1CD SWAP3 SWAP2 SWAP1 PUSH2 0x2131 JUMP JUMPDEST PUSH1 0x40 MLOAD DUP1 SWAP2 SUB SWAP1 RETURN JUMPDEST PUSH2 0x1F0 PUSH1 0x4 DUP1 CALLDATASIZE SUB DUP2 ADD SWAP1 PUSH2 0x1EB SWAP2 SWAP1 PUSH2 0x218B JUMP JUMPDEST PUSH2 0x418 JUMP JUMPDEST PUSH1 0x40 MLOAD PUSH2 0x1FD SWAP2 SWAP1 PUSH2 0x21C5 JUMP JUMPDEST PUSH1 0x40 MLOAD DUP1 SWAP2 SUB SWAP1 RETURN JUMPDEST PUSH2 0x20E PUSH2 0x453 JUMP JUMPDEST STOP JUMPDEST PUSH2 0x22A PUSH1 0x4 DUP1 CALLDATASIZE SUB DUP2 ADD SWAP1 PUSH2 0x225 SWAP2 SWAP1 PUSH2 0x21DE JUMP JUMPDEST PUSH2 0x713 JUMP JUMPDEST STOP JUMPDEST PUSH2 0x246 PUSH1 0x4 DUP1 CALLDATASIZE SUB DUP2 ADD SWAP1 PUSH2 0x241 SWAP2 SWAP1 PUSH2 0x236C JUMP JUMPDEST PUSH2 0x907 JUMP JUMPDEST STOP JUMPDEST PUSH2 0x250 PUSH2 0xCBA JUMP JUMPDEST PUSH1 0x40 MLOAD PUSH2 0x25D SWAP2 SWAP1 PUSH2 0x21C5 JUMP JUMPDEST PUSH1 0x40 MLOAD DUP1 SWAP2 SUB SWAP1 RETURN JUMPDEST PUSH2 0x26E PUSH2 0xCDF JUMP JUMPDEST STOP JUMPDEST PUSH2 0x278 PUSH2 0xF00 JUMP JUMPDEST STOP JUMPDEST PUSH2 0x282 PUSH2 0x1284 JUMP JUMPDEST STOP JUMPDEST PUSH2 0x28C PUSH2 0x17A6 JUMP JUMPDEST PUSH1 0x40 MLOAD PUSH2 0x299 SWAP2 SWAP1 PUSH2 0x240E JUMP JUMPDEST PUSH1 0x40 MLOAD DUP1 SWAP2 SUB SWAP1 RETURN JUMPDEST PUSH2 0x2AA PUSH2 0x17CB JUMP JUMPDEST PUSH1 0x40 MLOAD PUSH2 0x2B7 SWAP2 SWAP1 PUSH2 0x1FED JUMP JUMPDEST PUSH1 0x40 MLOAD DUP1 SWAP2 SUB SWAP1 RETURN JUMPDEST PUSH2 0x2DA PUSH1 0x4 DUP1 CALLDATASIZE SUB DUP2 ADD SWAP1 PUSH2 0x2D5 SWAP2 SWAP1 PUSH2 0x20EC JUMP JUMPDEST PUSH2 0x17E1 JUMP JUMPDEST PUSH1 0x40 MLOAD PUSH2 0x2E7 SWAP2 SWAP1 PUSH2 0x2427 JUMP JUMPDEST PUSH1 0x40 MLOAD DUP1 SWAP2 SUB SWAP1 RETURN JUMPDEST PUSH2 0x2F8 PUSH2 0x17FE JUMP JUMPDEST STOP JUMPDEST PUSH2 0x302 PUSH2 0x1954 JUMP JUMPDEST STOP JUMPDEST PUSH2 0x30C PUSH2 0x1B05 JUMP JUMPDEST PUSH1 0x40 MLOAD PUSH2 0x319 SWAP2 SWAP1 PUSH2 0x1F50 JUMP JUMPDEST PUSH1 0x40 MLOAD DUP1 SWAP2 SUB SWAP1 RETURN JUMPDEST PUSH2 0x33C PUSH1 0x4 DUP1 CALLDATASIZE SUB DUP2 ADD SWAP1 PUSH2 0x337 SWAP2 SWAP1 PUSH2 0x20EC JUMP JUMPDEST PUSH2 0x1B18 JUMP JUMPDEST PUSH1 0x40 MLOAD PUSH2 0x349 SWAP2 SWAP1 PUSH2 0x2427 JUMP JUMPDEST PUSH1 0x40 MLOAD DUP1 SWAP2 SUB SWAP1 RETURN JUMPDEST PUSH2 0x35A PUSH2 0x1B35 JUMP JUMPDEST PUSH1 0x40 MLOAD PUSH2 0x367 SWAP2 SWAP1 PUSH2 0x2460 JUMP JUMPDEST PUSH1 0x40 MLOAD DUP1 SWAP2 SUB SWAP1 RETURN JUMPDEST PUSH2 0x378 PUSH2 0x1B5A JUMP JUMPDEST PUSH1 0x40 MLOAD PUSH2 0x385 SWAP2 SWAP1 PUSH2 0x21C5 JUMP JUMPDEST PUSH1 0x40 MLOAD DUP1 SWAP2 SUB SWAP1 RETURN JUMPDEST PUSH1 0x7 PUSH0 SWAP1 SLOAD SWAP1 PUSH2 0x100 EXP SWAP1 DIV PUSH2 0xFFFF AND DUP2 JUMP JUMPDEST PUSH0 DUP1 PUSH3 0x15180 SWAP1 POP PUSH0 DUP2 DUP3 DUP6 PUSH2 0x3B7 SWAP2 SWAP1 PUSH2 0x24D3 JUMP JUMPDEST PUSH2 0x3C1 SWAP2 SWAP1 PUSH2 0x2503 JUMP JUMPDEST SWAP1 POP DUP1 SWAP3 POP POP POP SWAP2 SWAP1 POP JUMP JUMPDEST PUSH1 0x4 PUSH1 0x14 SWAP1 SLOAD SWAP1 PUSH2 0x100 EXP SWAP1 DIV PUSH1 0xFF AND DUP2 JUMP JUMPDEST PUSH1 0x8 PUSH1 0x20 MSTORE DUP1 PUSH0 MSTORE PUSH1 0x40 PUSH0 KECCAK256 PUSH0 SWAP2 POP SWAP1 POP DUP1 PUSH0 ADD PUSH0 SWAP1 SLOAD SWAP1 PUSH2 0x100 EXP SWAP1 DIV PUSH1 0xFF AND SWAP1 DUP1 PUSH0 ADD PUSH1 0x1 SWAP1 SLOAD SWAP1 PUSH2 0x100 EXP SWAP1 DIV PUSH1 0xFF AND SWAP1 POP DUP3 JUMP JUMPDEST PUSH1 0x5 DUP2 DUP2 SLOAD DUP2 LT PUSH2 0x427 JUMPI PUSH0 DUP1 REVERT JUMPDEST SWAP1 PUSH0 MSTORE PUSH1 0x20 PUSH0 KECCAK256 ADD PUSH0 SWAP2 POP SLOAD SWAP1 PUSH2 0x100 EXP SWAP1 DIV PUSH20 0xFFFFFFFFFFFFFFFFFFFFFFFFFFFFFFFFFFFFFFFF AND DUP2 JUMP JUMPDEST PUSH0 DUP1 SLOAD SWAP1 PUSH2 0x100 EXP SWAP1 DIV PUSH20 0xFFFFFFFFFFFFFFFFFFFFFFFFFFFFFFFFFFFFFFFF AND PUSH20 0xFFFFFFFFFFFFFFFFFFFFFFFFFFFFFFFFFFFFFFFF AND CALLER PUSH20 0xFFFFFFFFFFFFFFFFFFFFFFFFFFFFFFFFFFFFFFFF AND EQ DUP1 PUSH2 0x4F8 JUMPI POP PUSH1 0x1 PUSH0 SWAP1 SLOAD SWAP1 PUSH2 0x100 EXP SWAP1 DIV PUSH20 0xFFFFFFFFFFFFFFFFFFFFFFFFFFFFFFFFFFFFFFFF AND PUSH20 0xFFFFFFFFFFFFFFFFFFFFFFFFFFFFFFFFFFFFFFFF AND CALLER PUSH20 0xFFFFFFFFFFFFFFFFFFFFFFFFFFFFFFFFFFFFFFFF AND EQ JUMPDEST PUSH2 0x537 JUMPI PUSH1 0x40 MLOAD PUSH32 0x8C379A000000000000000000000000000000000000000000000000000000000 DUP2 MSTORE PUSH1 0x4 ADD PUSH2 0x52E SWAP1 PUSH2 0x25BF JUMP JUMPDEST PUSH1 0x40 MLOAD DUP1 SWAP2 SUB SWAP1 REVERT JUMPDEST PUSH1 0x1 PUSH1 0x4 DUP2 GT ISZERO PUSH2 0x54B JUMPI PUSH2 0x54A PUSH2 0x2006 JUMP JUMPDEST JUMPDEST PUSH1 0x4 PUSH1 0x14 SWAP1 SLOAD SWAP1 PUSH2 0x100 EXP SWAP1 DIV PUSH1 0xFF AND PUSH1 0x4 DUP2 GT ISZERO PUSH2 0x56D JUMPI PUSH2 0x56C PUSH2 0x2006 JUMP JUMPDEST JUMPDEST EQ PUSH2 0x5AD JUMPI PUSH1 0x40 MLOAD PUSH32 0x8C379A000000000000000000000000000000000000000000000000000000000 DUP2 MSTORE PUSH1 0x4 ADD PUSH2 0x5A4 SWAP1 PUSH2 0x2627 JUMP JUMPDEST PUSH1 0x40 MLOAD DUP1 SWAP2 SUB SWAP1 REVERT JUMPDEST PUSH1 0x1 ISZERO ISZERO PUSH1 0x6 PUSH0 CALLER PUSH20 0xFFFFFFFFFFFFFFFFFFFFFFFFFFFFFFFFFFFFFFFF AND PUSH20 0xFFFFFFFFFFFFFFFFFFFFFFFFFFFFFFFFFFFFFFFF AND DUP2 MSTORE PUSH1 0x20 ADD SWAP1 DUP2 MSTORE PUSH1 0x20 ADD PUSH0 KECCAK256 PUSH0 SWAP1 SLOAD SWAP1 PUSH2 0x100 EXP SWAP1 DIV PUSH1 0xFF AND ISZERO ISZERO SUB PUSH2 0x63D JUMPI PUSH1 0x40 MLOAD PUSH32 0x8C379A000000000000000000000000000000000000000000000000000000000 DUP2 MSTORE PUSH1 0x4 ADD PUSH2 0x634 SWAP1 PUSH2 0x268F JUMP JUMPDEST PUSH1 0x40 MLOAD DUP1 SWAP2 SUB SWAP1 REVERT JUMPDEST PUSH0 PUSH1 0x5 DUP1 SLOAD SWAP1 POP GT PUSH2 0x684 JUMPI PUSH1 0x40 MLOAD PUSH32 0x8C379A000000000000000000000000000000000000000000000000000000000 DUP2 MSTORE PUSH1 0x4 ADD PUSH2 0x67B SWAP1 PUSH2 0x26F7 JUMP JUMPDEST PUSH1 0x40 MLOAD DUP1 SWAP2 SUB SWAP1 REVERT JUMPDEST PUSH1 0x1 PUSH1 0x6 PUSH0 CALLER PUSH20 0xFFFFFFFFFFFFFFFFFFFFFFFFFFFFFFFFFFFFFFFF AND PUSH20 0xFFFFFFFFFFFFFFFFFFFFFFFFFFFFFFFFFFFFFFFF AND DUP2 MSTORE PUSH1 0x20 ADD SWAP1 DUP2 MSTORE PUSH1 0x20 ADD PUSH0 KECCAK256 PUSH0 PUSH2 0x100 EXP DUP2 SLOAD DUP2 PUSH1 0xFF MUL NOT AND SWAP1 DUP4 ISZERO ISZERO MUL OR SWAP1 SSTORE POP PUSH32 0x33B84F319A927039ABE58F2EC6B683BA73C74A309BC9288C3E37562B9727126E PUSH1 0x5 PUSH1 0x40 MLOAD PUSH2 0x709 SWAP2 SWAP1 PUSH2 0x282B JUMP JUMPDEST PUSH1 0x40 MLOAD DUP1 SWAP2 SUB SWAP1 LOG1 JUMP JUMPDEST DUP2 PUSH20 0xFFFFFFFFFFFFFFFFFFFFFFFFFFFFFFFFFFFFFFFF AND CALLER PUSH20 0xFFFFFFFFFFFFFFFFFFFFFFFFFFFFFFFFFFFFFFFF AND SUB PUSH2 0x781 JUMPI PUSH1 0x40 MLOAD PUSH32 0x8C379A000000000000000000000000000000000000000000000000000000000 DUP2 MSTORE PUSH1 0x4 ADD PUSH2 0x778 SWAP1 PUSH2 0x2895 JUMP JUMPDEST PUSH1 0x40 MLOAD DUP1 SWAP2 SUB SWAP1 REVERT JUMPDEST PUSH2 0x78A DUP3 PUSH2 0x1B7D JUMP JUMPDEST PUSH2 0x7C9 JUMPI PUSH1 0x40 MLOAD PUSH32 0x8C379A000000000000000000000000000000000000000000000000000000000 DUP2 MSTORE PUSH1 0x4 ADD PUSH2 0x7C0 SWAP1 PUSH2 0x28FD JUMP JUMPDEST PUSH1 0x40 MLOAD DUP1 SWAP2 SUB SWAP1 REVERT JUMPDEST DUP1 PUSH1 0x1 PUSH1 0x14 PUSH2 0x100 EXP DUP2 SLOAD DUP2 PUSH4 0xFFFFFFFF MUL NOT AND SWAP1 DUP4 PUSH4 0xFFFFFFFF AND MUL OR SWAP1 SSTORE POP CALLER PUSH0 DUP1 PUSH2 0x100 EXP DUP2 SLOAD DUP2 PUSH20 0xFFFFFFFFFFFFFFFFFFFFFFFFFFFFFFFFFFFFFFFF MUL NOT AND SWAP1 DUP4 PUSH20 0xFFFFFFFFFFFFFFFFFFFFFFFFFFFFFFFFFFFFFFFF AND MUL OR SWAP1 SSTORE POP DUP2 PUSH1 0x1 PUSH0 PUSH2 0x100 EXP DUP2 SLOAD DUP2 PUSH20 0xFFFFFFFFFFFFFFFFFFFFFFFFFFFFFFFFFFFFFFFF MUL NOT AND SWAP1 DUP4 PUSH20 0xFFFFFFFFFFFFFFFFFFFFFFFFFFFFFFFFFFFFFFFF AND MUL OR SWAP1 SSTORE POP PUSH1 0x1 PUSH0 SWAP1 SLOAD SWAP1 PUSH2 0x100 EXP SWAP1 DIV PUSH20 0xFFFFFFFFFFFFFFFFFFFFFFFFFFFFFFFFFFFFFFFF AND PUSH20 0xFFFFFFFFFFFFFFFFFFFFFFFFFFFFFFFFFFFFFFFF AND PUSH0 DUP1 SLOAD SWAP1 PUSH2 0x100 EXP SWAP1 DIV PUSH20 0xFFFFFFFFFFFFFFFFFFFFFFFFFFFFFFFFFFFFFFFF AND PUSH20 0xFFFFFFFFFFFFFFFFFFFFFFFFFFFFFFFFFFFFFFFF AND PUSH32 0xB9667C497613D36D751E12AC344149B1A6AB6A60ACCCDC58E623735E937FAF2C PUSH1 0x40 MLOAD PUSH1 0x40 MLOAD DUP1 SWAP2 SUB SWAP1 LOG3 POP POP JUMP JUMPDEST PUSH0 DUP1 SLOAD SWAP1 PUSH2 0x100 EXP SWAP1 DIV PUSH20 0xFFFFFFFFFFFFFFFFFFFFFFFFFFFFFFFFFFFFFFFF AND PUSH20 0xFFFFFFFFFFFFFFFFFFFFFFFFFFFFFFFFFFFFFFFF AND CALLER PUSH20 0xFFFFFFFFFFFFFFFFFFFFFFFFFFFFFFFFFFFFFFFF AND EQ DUP1 PUSH2 0x9AC JUMPI POP PUSH1 0x1 PUSH0 SWAP1 SLOAD SWAP1 PUSH2 0x100 EXP SWAP1 DIV PUSH20 0xFFFFFFFFFFFFFFFFFFFFFFFFFFFFFFFFFFFFFFFF AND PUSH20 0xFFFFFFFFFFFFFFFFFFFFFFFFFFFFFFFFFFFFFFFF AND CALLER PUSH20 0xFFFFFFFFFFFFFFFFFFFFFFFFFFFFFFFFFFFFFFFF AND EQ JUMPDEST PUSH2 0x9EB JUMPI PUSH1 0x40 MLOAD PUSH32 0x8C379A000000000000000000000000000000000000000000000000000000000 DUP2 MSTORE PUSH1 0x4 ADD PUSH2 0x9E2 SWAP1 PUSH2 0x25BF JUMP JUMPDEST PUSH1 0x40 MLOAD DUP1 SWAP2 SUB SWAP1 REVERT JUMPDEST PUSH1 0x1 PUSH1 0x4 DUP2 GT ISZERO PUSH2 0x9FF JUMPI PUSH2 0x9FE PUSH2 0x2006 JUMP JUMPDEST JUMPDEST PUSH1 0x4 PUSH1 0x14 SWAP1 SLOAD SWAP1 PUSH2 0x100 EXP SWAP1 DIV PUSH1 0xFF AND PUSH1 0x4 DUP2 GT ISZERO PUSH2 0xA21 JUMPI PUSH2 0xA20 PUSH2 0x2006 JUMP JUMPDEST JUMPDEST EQ PUSH2 0xA61 JUMPI PUSH1 0x40 MLOAD PUSH32 0x8C379A000000000000000000000000000000000000000000000000000000000 DUP2 MSTORE PUSH1 0x4 ADD PUSH2 0xA58 SWAP1 PUSH2 0x2627 JUMP JUMPDEST PUSH1 0x40 MLOAD DUP1 SWAP2 SUB SWAP1 REVERT JUMPDEST PUSH1 0x1 ISZERO ISZERO PUSH1 0x6 PUSH0 DUP1 PUSH0 SWAP1 SLOAD SWAP1 PUSH2 0x100 EXP SWAP1 DIV PUSH20 0xFFFFFFFFFFFFFFFFFFFFFFFFFFFFFFFFFFFFFFFF AND PUSH20 0xFFFFFFFFFFFFFFFFFFFFFFFFFFFFFFFFFFFFFFFF AND PUSH20 0xFFFFFFFFFFFFFFFFFFFFFFFFFFFFFFFFFFFFFFFF AND DUP2 MSTORE PUSH1 0x20 ADD SWAP1 DUP2 MSTORE PUSH1 0x20 ADD PUSH0 KECCAK256 PUSH0 SWAP1 SLOAD SWAP1 PUSH2 0x100 EXP SWAP1 DIV PUSH1 0xFF AND ISZERO ISZERO EQ ISZERO DUP1 ISZERO PUSH2 0xB4E JUMPI POP PUSH1 0x1 ISZERO ISZERO PUSH1 0x6 PUSH0 PUSH1 0x1 PUSH0 SWAP1 SLOAD SWAP1 PUSH2 0x100 EXP SWAP1 DIV PUSH20 0xFFFFFFFFFFFFFFFFFFFFFFFFFFFFFFFFFFFFFFFF AND PUSH20 0xFFFFFFFFFFFFFFFFFFFFFFFFFFFFFFFFFFFFFFFF AND PUSH20 0xFFFFFFFFFFFFFFFFFFFFFFFFFFFFFFFFFFFFFFFF AND DUP2 MSTORE PUSH1 0x20 ADD SWAP1 DUP2 MSTORE PUSH1 0x20 ADD PUSH0 KECCAK256 PUSH0 SWAP1 SLOAD SWAP1 PUSH2 0x100 EXP SWAP1 DIV PUSH1 0xFF AND ISZERO ISZERO EQ ISZERO JUMPDEST PUSH2 0xB8D JUMPI PUSH1 0x40 MLOAD PUSH32 0x8C379A000000000000000000000000000000000000000000000000000000000 DUP2 MSTORE PUSH1 0x4 ADD PUSH2 0xB84 SWAP1 PUSH2 0x298B JUMP JUMPDEST PUSH1 0x40 MLOAD DUP1 SWAP2 SUB SWAP1 REVERT JUMPDEST PUSH0 JUMPDEST DUP2 MLOAD DUP2 PUSH1 0xFF AND LT ISZERO PUSH2 0xC13 JUMPI PUSH2 0xBC1 DUP3 DUP3 PUSH1 0xFF AND DUP2 MLOAD DUP2 LT PUSH2 0xBB4 JUMPI PUSH2 0xBB3 PUSH2 0x29A9 JUMP JUMPDEST JUMPDEST PUSH1 0x20 MUL PUSH1 0x20 ADD ADD MLOAD PUSH2 0x1B7D JUMP JUMPDEST PUSH2 0xC00 JUMPI PUSH1 0x40 MLOAD PUSH32 0x8C379A000000000000000000000000000000000000000000000000000000000 DUP2 MSTORE PUSH1 0x4 ADD PUSH2 0xBF7 SWAP1 PUSH2 0x2A20 JUMP JUMPDEST PUSH1 0x40 MLOAD DUP1 SWAP2 SUB SWAP1 REVERT JUMPDEST DUP1 DUP1 PUSH2 0xC0B SWAP1 PUSH2 0x2A4A JUMP JUMPDEST SWAP2 POP POP PUSH2 0xB8F JUMP JUMPDEST POP DUP1 PUSH1 0x5 SWAP1 DUP1 MLOAD SWAP1 PUSH1 0x20 ADD SWAP1 PUSH2 0xC2A SWAP3 SWAP2 SWAP1 PUSH2 0x1E92 JUMP JUMPDEST POP PUSH1 0x1 PUSH1 0x6 PUSH0 CALLER PUSH20 0xFFFFFFFFFFFFFFFFFFFFFFFFFFFFFFFFFFFFFFFF AND PUSH20 0xFFFFFFFFFFFFFFFFFFFFFFFFFFFFFFFFFFFFFFFF AND DUP2 MSTORE PUSH1 0x20 ADD SWAP1 DUP2 MSTORE PUSH1 0x20 ADD PUSH0 KECCAK256 PUSH0 PUSH2 0x100 EXP DUP2 SLOAD DUP2 PUSH1 0xFF MUL NOT AND SWAP1 DUP4 ISZERO ISZERO MUL OR SWAP1 SSTORE POP PUSH32 0x2380A2ACF6C01A4E0F0091094FB2420CE1A1A2D5FE40975245CF97EB76DFDA63 DUP2 PUSH1 0x40 MLOAD PUSH2 0xCAF SWAP2 SWAP1 PUSH2 0x2AF3 JUMP JUMPDEST PUSH1 0x40 MLOAD DUP1 SWAP2 SUB SWAP1 LOG1 POP JUMP JUMPDEST PUSH1 0x1 PUSH0 SWAP1 SLOAD SWAP1 PUSH2 0x100 EXP SWAP1 DIV PUSH20 0xFFFFFFFFFFFFFFFFFFFFFFFFFFFFFFFFFFFFFFFF AND DUP2 JUMP JUMPDEST PUSH0 DUP1 SLOAD SWAP1 PUSH2 0x100 EXP SWAP1 DIV PUSH20 0xFFFFFFFFFFFFFFFFFFFFFFFFFFFFFFFFFFFFFFFF AND PUSH20 0xFFFFFFFFFFFFFFFFFFFFFFFFFFFFFFFFFFFFFFFF AND CALLER PUSH20 0xFFFFFFFFFFFFFFFFFFFFFFFFFFFFFFFFFFFFFFFF AND EQ DUP1 PUSH2 0xD84 JUMPI POP PUSH1 0x1 PUSH0 SWAP1 SLOAD SWAP1 PUSH2 0x100 EXP SWAP1 DIV PUSH20 0xFFFFFFFFFFFFFFFFFFFFFFFFFFFFFFFFFFFFFFFF AND PUSH20 0xFFFFFFFFFFFFFFFFFFFFFFFFFFFFFFFFFFFFFFFF AND CALLER PUSH20 0xFFFFFFFFFFFFFFFFFFFFFFFFFFFFFFFFFFFFFFFF AND EQ JUMPDEST PUSH2 0xDC3 JUMPI PUSH1 0x40 MLOAD PUSH32 0x8C379A000000000000000000000000000000000000000000000000000000000 DUP2 MSTORE PUSH1 0x4 ADD PUSH2 0xDBA SWAP1 PUSH2 0x25BF JUMP JUMPDEST PUSH1 0x40 MLOAD DUP1 SWAP2 SUB SWAP1 REVERT JUMPDEST PUSH1 0x1 PUSH1 0x4 DUP2 GT ISZERO PUSH2 0xDD7 JUMPI PUSH2 0xDD6 PUSH2 0x2006 JUMP JUMPDEST JUMPDEST PUSH1 0x4 PUSH1 0x14 SWAP1 SLOAD SWAP1 PUSH2 0x100 EXP SWAP1 DIV PUSH1 0xFF AND PUSH1 0x4 DUP2 GT ISZERO PUSH2 0xDF9 JUMPI PUSH2 0xDF8 PUSH2 0x2006 JUMP JUMPDEST JUMPDEST EQ PUSH2 0xE39 JUMPI PUSH1 0x40 MLOAD PUSH32 0x8C379A000000000000000000000000000000000000000000000000000000000 DUP2 MSTORE PUSH1 0x4 ADD PUSH2 0xE30 SWAP1 PUSH2 0x2B83 JUMP JUMPDEST PUSH1 0x40 MLOAD DUP1 SWAP2 SUB SWAP1 REVERT JUMPDEST PUSH1 0x2 PUSH1 0x4 PUSH1 0x14 PUSH2 0x100 EXP DUP2 SLOAD DUP2 PUSH1 0xFF MUL NOT AND SWAP1 DUP4 PUSH1 0x4 DUP2 GT ISZERO PUSH2 0xE5F JUMPI PUSH2 0xE5E PUSH2 0x2006 JUMP JUMPDEST JUMPDEST MUL OR SWAP1 SSTORE POP PUSH1 0x1 PUSH0 SWAP1 SLOAD SWAP1 PUSH2 0x100 EXP SWAP1 DIV PUSH20 0xFFFFFFFFFFFFFFFFFFFFFFFFFFFFFFFFFFFFFFFF AND PUSH20 0xFFFFFFFFFFFFFFFFFFFFFFFFFFFFFFFFFFFFFFFF AND PUSH0 DUP1 SLOAD SWAP1 PUSH2 0x100 EXP SWAP1 DIV PUSH20 0xFFFFFFFFFFFFFFFFFFFFFFFFFFFFFFFFFFFFFFFF AND PUSH20 0xFFFFFFFFFFFFFFFFFFFFFFFFFFFFFFFFFFFFFFFF AND PUSH32 0x5C194A9036770A0CD11EAA73E90E3025E63CCCC66EAE51902F3F0AEEA62DF5A9 PUSH1 0x40 MLOAD PUSH1 0x40 MLOAD DUP1 SWAP2 SUB SWAP1 LOG3 JUMP JUMPDEST PUSH0 DUP1 SLOAD SWAP1 PUSH2 0x100 EXP SWAP1 DIV PUSH20 0xFFFFFFFFFFFFFFFFFFFFFFFFFFFFFFFFFFFFFFFF AND PUSH20 0xFFFFFFFFFFFFFFFFFFFFFFFFFFFFFFFFFFFFFFFF AND CALLER PUSH20 0xFFFFFFFFFFFFFFFFFFFFFFFFFFFFFFFFFFFFFFFF AND EQ DUP1 PUSH2 0xFA5 JUMPI POP PUSH1 0x1 PUSH0 SWAP1 SLOAD SWAP1 PUSH2 0x100 EXP SWAP1 DIV PUSH20 0xFFFFFFFFFFFFFFFFFFFFFFFFFFFFFFFFFFFFFFFF AND PUSH20 0xFFFFFFFFFFFFFFFFFFFFFFFFFFFFFFFFFFFFFFFF AND CALLER PUSH20 0xFFFFFFFFFFFFFFFFFFFFFFFFFFFFFFFFFFFFFFFF AND EQ JUMPDEST PUSH2 0xFE4 JUMPI PUSH1 0x40 MLOAD PUSH32 0x8C379A000000000000000000000000000000000000000000000000000000000 DUP2 MSTORE PUSH1 0x4 ADD PUSH2 0xFDB SWAP1 PUSH2 0x25BF JUMP JUMPDEST PUSH1 0x40 MLOAD DUP1 SWAP2 SUB SWAP1 REVERT JUMPDEST PUSH1 0x1 PUSH1 0x4 DUP2 GT ISZERO PUSH2 0xFF8 JUMPI PUSH2 0xFF7 PUSH2 0x2006 JUMP JUMPDEST JUMPDEST PUSH1 0x4 PUSH1 0x14 SWAP1 SLOAD SWAP1 PUSH2 0x100 EXP SWAP1 DIV PUSH1 0xFF AND PUSH1 0x4 DUP2 GT ISZERO PUSH2 0x101A JUMPI PUSH2 0x1019 PUSH2 0x2006 JUMP JUMPDEST JUMPDEST EQ PUSH2 0x105A JUMPI PUSH1 0x40 MLOAD PUSH32 0x8C379A000000000000000000000000000000000000000000000000000000000 DUP2 MSTORE PUSH1 0x4 ADD PUSH2 0x1051 SWAP1 PUSH2 0x2C11 JUMP JUMPDEST PUSH1 0x40 MLOAD DUP1 SWAP2 SUB SWAP1 REVERT JUMPDEST PUSH1 0x2 PUSH0 DUP1 PUSH0 SWAP1 SLOAD SWAP1 PUSH2 0x100 EXP SWAP1 DIV PUSH20 0xFFFFFFFFFFFFFFFFFFFFFFFFFFFFFFFFFFFFFFFF AND PUSH20 0xFFFFFFFFFFFFFFFFFFFFFFFFFFFFFFFFFFFFFFFF AND PUSH20 0xFFFFFFFFFFFFFFFFFFFFFFFFFFFFFFFFFFFFFFFF AND DUP2 MSTORE PUSH1 0x20 ADD SWAP1 DUP2 MSTORE PUSH1 0x20 ADD PUSH0 KECCAK256 PUSH0 SWAP1 SLOAD SWAP1 PUSH2 0x100 EXP SWAP1 DIV PUSH1 0xFF AND DUP1 ISZERO PUSH2 0x1137 JUMPI POP PUSH1 0x2 PUSH0 PUSH1 0x1 PUSH0 SWAP1 SLOAD SWAP1 PUSH2 0x100 EXP SWAP1 DIV PUSH20 0xFFFFFFFFFFFFFFFFFFFFFFFFFFFFFFFFFFFFFFFF AND PUSH20 0xFFFFFFFFFFFFFFFFFFFFFFFFFFFFFFFFFFFFFFFF AND PUSH20 0xFFFFFFFFFFFFFFFFFFFFFFFFFFFFFFFFFFFFFFFF AND DUP2 MSTORE PUSH1 0x20 ADD SWAP1 DUP2 MSTORE PUSH1 0x20 ADD PUSH0 KECCAK256 PUSH0 SWAP1 SLOAD SWAP1 PUSH2 0x100 EXP SWAP1 DIV PUSH1 0xFF AND JUMPDEST PUSH2 0x1176 JUMPI PUSH1 0x40 MLOAD PUSH32 0x8C379A000000000000000000000000000000000000000000000000000000000 DUP2 MSTORE PUSH1 0x4 ADD PUSH2 0x116D SWAP1 PUSH2 0x2C9F JUMP JUMPDEST PUSH1 0x40 MLOAD DUP1 SWAP2 SUB SWAP1 REVERT JUMPDEST PUSH2 0x117E PUSH2 0x1BB5 JUMP JUMPDEST PUSH2 0x11BD JUMPI PUSH1 0x40 MLOAD PUSH32 0x8C379A000000000000000000000000000000000000000000000000000000000 DUP2 MSTORE PUSH1 0x4 ADD PUSH2 0x11B4 SWAP1 PUSH2 0x2D2D JUMP JUMPDEST PUSH1 0x40 MLOAD DUP1 SWAP2 SUB SWAP1 REVERT JUMPDEST PUSH1 0x3 PUSH1 0x4 PUSH1 0x14 PUSH2 0x100 EXP DUP2 SLOAD DUP2 PUSH1 0xFF MUL NOT AND SWAP1 DUP4 PUSH1 0x4 DUP2 GT ISZERO PUSH2 0x11E3 JUMPI PUSH2 0x11E2 PUSH2 0x2006 JUMP JUMPDEST JUMPDEST MUL OR SWAP1 SSTORE POP PUSH1 0x1 PUSH0 SWAP1 SLOAD SWAP1 PUSH2 0x100 EXP SWAP1 DIV PUSH20 0xFFFFFFFFFFFFFFFFFFFFFFFFFFFFFFFFFFFFFFFF AND PUSH20 0xFFFFFFFFFFFFFFFFFFFFFFFFFFFFFFFFFFFFFFFF AND PUSH0 DUP1 SLOAD SWAP1 PUSH2 0x100 EXP SWAP1 DIV PUSH20 0xFFFFFFFFFFFFFFFFFFFFFFFFFFFFFFFFFFFFFFFF AND PUSH20 0xFFFFFFFFFFFFFFFFFFFFFFFFFFFFFFFFFFFFFFFF AND PUSH32 0xC89EF770A4AD395EBDC22B63DE541B88DAF19F335056F203FA06E4154B62BB7B PUSH1 0x40 MLOAD PUSH1 0x40 MLOAD DUP1 SWAP2 SUB SWAP1 LOG3 JUMP JUMPDEST PUSH0 DUP1 JUMPDEST PUSH1 0x5 DUP1 SLOAD SWAP1 POP DUP2 PUSH2 0xFFFF AND LT ISZERO PUSH2 0x14B4 JUMPI CALLER PUSH20 0xFFFFFFFFFFFFFFFFFFFFFFFFFFFFFFFFFFFFFFFF AND PUSH1 0x5 DUP3 PUSH2 0xFFFF AND DUP2 SLOAD DUP2 LT PUSH2 0x12C7 JUMPI PUSH2 0x12C6 PUSH2 0x29A9 JUMP JUMPDEST JUMPDEST SWAP1 PUSH0 MSTORE PUSH1 0x20 PUSH0 KECCAK256 ADD PUSH0 SWAP1 SLOAD SWAP1 PUSH2 0x100 EXP SWAP1 DIV PUSH20 0xFFFFFFFFFFFFFFFFFFFFFFFFFFFFFFFFFFFFFFFF AND PUSH20 0xFFFFFFFFFFFFFFFFFFFFFFFFFFFFFFFFFFFFFFFF AND SUB PUSH2 0x14A1 JUMPI PUSH1 0x1 SWAP2 POP PUSH1 0x8 PUSH0 CALLER PUSH20 0xFFFFFFFFFFFFFFFFFFFFFFFFFFFFFFFFFFFFFFFF AND PUSH20 0xFFFFFFFFFFFFFFFFFFFFFFFFFFFFFFFFFFFFFFFF AND DUP2 MSTORE PUSH1 0x20 ADD SWAP1 DUP2 MSTORE PUSH1 0x20 ADD PUSH0 KECCAK256 PUSH0 ADD PUSH0 SWAP1 SLOAD SWAP1 PUSH2 0x100 EXP SWAP1 DIV PUSH1 0xFF AND ISZERO PUSH2 0x139A JUMPI PUSH1 0x40 MLOAD PUSH32 0x8C379A000000000000000000000000000000000000000000000000000000000 DUP2 MSTORE PUSH1 0x4 ADD PUSH2 0x1391 SWAP1 PUSH2 0x2D95 JUMP JUMPDEST PUSH1 0x40 MLOAD DUP1 SWAP2 SUB SWAP1 REVERT JUMPDEST PUSH1 0x40 MLOAD DUP1 PUSH1 0x40 ADD PUSH1 0x40 MSTORE DUP1 PUSH1 0x1 ISZERO ISZERO DUP2 MSTORE PUSH1 0x20 ADD PUSH1 0x1 ISZERO ISZERO DUP2 MSTORE POP PUSH1 0x8 PUSH0 CALLER PUSH20 0xFFFFFFFFFFFFFFFFFFFFFFFFFFFFFFFFFFFFFFFF AND PUSH20 0xFFFFFFFFFFFFFFFFFFFFFFFFFFFFFFFFFFFFFFFF AND DUP2 MSTORE PUSH1 0x20 ADD SWAP1 DUP2 MSTORE PUSH1 0x20 ADD PUSH0 KECCAK256 PUSH0 DUP3 ADD MLOAD DUP2 PUSH0 ADD PUSH0 PUSH2 0x100 EXP DUP2 SLOAD DUP2 PUSH1 0xFF MUL NOT AND SWAP1 DUP4 ISZERO ISZERO MUL OR SWAP1 SSTORE POP PUSH1 0x20 DUP3 ADD MLOAD DUP2 PUSH0 ADD PUSH1 0x1 PUSH2 0x100 EXP DUP2 SLOAD DUP2 PUSH1 0xFF MUL NOT AND SWAP1 DUP4 ISZERO ISZERO MUL OR SWAP1 SSTORE POP SWAP1 POP POP PUSH1 0x9 PUSH0 DUP2 DUP2 SWAP1 SLOAD SWAP1 PUSH2 0x100 EXP SWAP1 DIV PUSH2 0xFFFF AND DUP1 SWAP3 SWAP2 SWAP1 PUSH2 0x1450 SWAP1 PUSH2 0x2DB3 JUMP JUMPDEST SWAP2 SWAP1 PUSH2 0x100 EXP DUP2 SLOAD DUP2 PUSH2 0xFFFF MUL NOT AND SWAP1 DUP4 PUSH2 0xFFFF AND MUL OR SWAP1 SSTORE POP POP PUSH1 0x2 PUSH1 0x5 DUP1 SLOAD SWAP1 POP PUSH2 0x147D SWAP2 SWAP1 PUSH2 0x2DDC JUMP JUMPDEST PUSH1 0x9 PUSH0 SWAP1 SLOAD SWAP1 PUSH2 0x100 EXP SWAP1 DIV PUSH2 0xFFFF AND PUSH2 0xFFFF AND GT ISZERO PUSH2 0x14A0 JUMPI PUSH2 0x149F PUSH2 0x1C08 JUMP JUMPDEST JUMPDEST JUMPDEST DUP1 DUP1 PUSH2 0x14AC SWAP1 PUSH2 0x2DB3 JUMP JUMPDEST SWAP2 POP POP PUSH2 0x1287 JUMP JUMPDEST POP DUP1 PUSH2 0x14F5 JUMPI PUSH1 0x40 MLOAD PUSH32 0x8C379A000000000000000000000000000000000000000000000000000000000 DUP2 MSTORE PUSH1 0x4 ADD PUSH2 0x14EC SWAP1 PUSH2 0x2E7C JUMP JUMPDEST PUSH1 0x40 MLOAD DUP1 SWAP2 SUB SWAP1 REVERT JUMPDEST PUSH1 0x6 PUSH0 DUP1 PUSH0 SWAP1 SLOAD SWAP1 PUSH2 0x100 EXP SWAP1 DIV PUSH20 0xFFFFFFFFFFFFFFFFFFFFFFFFFFFFFFFFFFFFFFFF AND PUSH20 0xFFFFFFFFFFFFFFFFFFFFFFFFFFFFFFFFFFFFFFFF AND PUSH20 0xFFFFFFFFFFFFFFFFFFFFFFFFFFFFFFFFFFFFFFFF AND DUP2 MSTORE PUSH1 0x20 ADD SWAP1 DUP2 MSTORE PUSH1 0x20 ADD PUSH0 KECCAK256 PUSH0 SWAP1 SLOAD SWAP1 PUSH2 0x100 EXP SWAP1 DIV PUSH1 0xFF AND DUP1 ISZERO PUSH2 0x15D2 JUMPI POP PUSH1 0x6 PUSH0 PUSH1 0x1 PUSH0 SWAP1 SLOAD SWAP1 PUSH2 0x100 EXP SWAP1 DIV PUSH20 0xFFFFFFFFFFFFFFFFFFFFFFFFFFFFFFFFFFFFFFFF AND PUSH20 0xFFFFFFFFFFFFFFFFFFFFFFFFFFFFFFFFFFFFFFFF AND PUSH20 0xFFFFFFFFFFFFFFFFFFFFFFFFFFFFFFFFFFFFFFFF AND DUP2 MSTORE PUSH1 0x20 ADD SWAP1 DUP2 MSTORE PUSH1 0x20 ADD PUSH0 KECCAK256 PUSH0 SWAP1 SLOAD SWAP1 PUSH2 0x100 EXP SWAP1 DIV PUSH1 0xFF AND JUMPDEST PUSH2 0x1611 JUMPI PUSH1 0x40 MLOAD PUSH32 0x8C379A000000000000000000000000000000000000000000000000000000000 DUP2 MSTORE PUSH1 0x4 ADD PUSH2 0x1608 SWAP1 PUSH2 0x2F0A JUMP JUMPDEST PUSH1 0x40 MLOAD DUP1 SWAP2 SUB SWAP1 REVERT JUMPDEST PUSH1 0x8 PUSH0 CALLER PUSH20 0xFFFFFFFFFFFFFFFFFFFFFFFFFFFFFFFFFFFFFFFF AND PUSH20 0xFFFFFFFFFFFFFFFFFFFFFFFFFFFFFFFFFFFFFFFF AND DUP2 MSTORE PUSH1 0x20 ADD SWAP1 DUP2 MSTORE PUSH1 0x20 ADD PUSH0 KECCAK256 PUSH0 ADD PUSH0 SWAP1 SLOAD SWAP1 PUSH2 0x100 EXP SWAP1 DIV PUSH1 0xFF AND ISZERO PUSH2 0x169D JUMPI PUSH1 0x40 MLOAD PUSH32 0x8C379A000000000000000000000000000000000000000000000000000000000 DUP2 MSTORE PUSH1 0x4 ADD PUSH2 0x1694 SWAP1 PUSH2 0x2D95 JUMP JUMPDEST PUSH1 0x40 MLOAD DUP1 SWAP2 SUB SWAP1 REVERT JUMPDEST PUSH1 0x40 MLOAD DUP1 PUSH1 0x40 ADD PUSH1 0x40 MSTORE DUP1 PUSH1 0x1 ISZERO ISZERO DUP2 MSTORE PUSH1 0x20 ADD PUSH1 0x1 ISZERO ISZERO DUP2 MSTORE POP PUSH1 0x8 PUSH0 CALLER PUSH20 0xFFFFFFFFFFFFFFFFFFFFFFFFFFFFFFFFFFFFFFFF AND PUSH20 0xFFFFFFFFFFFFFFFFFFFFFFFFFFFFFFFFFFFFFFFF AND DUP2 MSTORE PUSH1 0x20 ADD SWAP1 DUP2 MSTORE PUSH1 0x20 ADD PUSH0 KECCAK256 PUSH0 DUP3 ADD MLOAD DUP2 PUSH0 ADD PUSH0 PUSH2 0x100 EXP DUP2 SLOAD DUP2 PUSH1 0xFF MUL NOT AND SWAP1 DUP4 ISZERO ISZERO MUL OR SWAP1 SSTORE POP PUSH1 0x20 DUP3 ADD MLOAD DUP2 PUSH0 ADD PUSH1 0x1 PUSH2 0x100 EXP DUP2 SLOAD DUP2 PUSH1 0xFF MUL NOT AND SWAP1 DUP4 ISZERO ISZERO MUL OR SWAP1 SSTORE POP SWAP1 POP POP PUSH1 0x9 PUSH0 DUP2 DUP2 SWAP1 SLOAD SWAP1 PUSH2 0x100 EXP SWAP1 DIV PUSH2 0xFFFF AND DUP1 SWAP3 SWAP2 SWAP1 PUSH2 0x1753 SWAP1 PUSH2 0x2DB3 JUMP JUMPDEST SWAP2 SWAP1 PUSH2 0x100 EXP DUP2 SLOAD DUP2 PUSH2 0xFFFF MUL NOT AND SWAP1 DUP4 PUSH2 0xFFFF AND MUL OR SWAP1 SSTORE POP POP PUSH1 0x2 PUSH1 0x5 DUP1 SLOAD SWAP1 POP PUSH2 0x1780 SWAP2 SWAP1 PUSH2 0x2DDC JUMP JUMPDEST PUSH1 0x9 PUSH0 SWAP1 SLOAD SWAP1 PUSH2 0x100 EXP SWAP1 DIV PUSH2 0xFFFF AND PUSH2 0xFFFF AND GT ISZERO PUSH2 0x17A3 JUMPI PUSH2 0x17A2 PUSH2 0x1C08 JUMP JUMPDEST JUMPDEST POP JUMP JUMPDEST PUSH1 0x4 PUSH0 SWAP1 SLOAD SWAP1 PUSH2 0x100 EXP SWAP1 DIV PUSH20 0xFFFFFFFFFFFFFFFFFFFFFFFFFFFFFFFFFFFFFFFF AND DUP2 JUMP JUMPDEST PUSH1 0x1 PUSH1 0x14 SWAP1 SLOAD SWAP1 PUSH2 0x100 EXP SWAP1 DIV PUSH4 0xFFFFFFFF AND DUP2 JUMP JUMPDEST PUSH1 0x6 PUSH1 0x20 MSTORE DUP1 PUSH0 MSTORE PUSH1 0x40 PUSH0 KECCAK256 PUSH0 SWAP2 POP SLOAD SWAP1 PUSH2 0x100 EXP SWAP1 DIV PUSH1 0xFF AND DUP2 JUMP JUMPDEST PUSH1 0x1 PUSH0 SWAP1 SLOAD SWAP1 PUSH2 0x100 EXP SWAP1 DIV PUSH20 0xFFFFFFFFFFFFFFFFFFFFFFFFFFFFFFFFFFFFFFFF AND PUSH20 0xFFFFFFFFFFFFFFFFFFFFFFFFFFFFFFFFFFFFFFFF AND CALLER PUSH20 0xFFFFFFFFFFFFFFFFFFFFFFFFFFFFFFFFFFFFFFFF AND EQ PUSH2 0x188D JUMPI PUSH1 0x40 MLOAD PUSH32 0x8C379A000000000000000000000000000000000000000000000000000000000 DUP2 MSTORE PUSH1 0x4 ADD PUSH2 0x1884 SWAP1 PUSH2 0x2F98 JUMP JUMPDEST PUSH1 0x40 MLOAD DUP1 SWAP2 SUB SWAP1 REVERT JUMPDEST PUSH1 0x1 PUSH1 0x4 PUSH1 0x14 PUSH2 0x100 EXP DUP2 SLOAD DUP2 PUSH1 0xFF MUL NOT AND SWAP1 DUP4 PUSH1 0x4 DUP2 GT ISZERO PUSH2 0x18B3 JUMPI PUSH2 0x18B2 PUSH2 0x2006 JUMP JUMPDEST JUMPDEST MUL OR SWAP1 SSTORE POP PUSH1 0x1 PUSH0 SWAP1 SLOAD SWAP1 PUSH2 0x100 EXP SWAP1 DIV PUSH20 0xFFFFFFFFFFFFFFFFFFFFFFFFFFFFFFFFFFFFFFFF AND PUSH20 0xFFFFFFFFFFFFFFFFFFFFFFFFFFFFFFFFFFFFFFFF AND PUSH0 DUP1 SLOAD SWAP1 PUSH2 0x100 EXP SWAP1 DIV PUSH20 0xFFFFFFFFFFFFFFFFFFFFFFFFFFFFFFFFFFFFFFFF AND PUSH20 0xFFFFFFFFFFFFFFFFFFFFFFFFFFFFFFFFFFFFFFFF AND PUSH32 0x655A45D06BBB71039D6DC070F5DBB8143A5C0BCE1EFCEA7DEC3B66237D9EDD5 PUSH1 0x40 MLOAD PUSH1 0x40 MLOAD DUP1 SWAP2 SUB SWAP1 LOG3 JUMP JUMPDEST PUSH0 DUP1 SLOAD SWAP1 PUSH2 0x100 EXP SWAP1 DIV PUSH20 0xFFFFFFFFFFFFFFFFFFFFFFFFFFFFFFFFFFFFFFFF AND PUSH20 0xFFFFFFFFFFFFFFFFFFFFFFFFFFFFFFFFFFFFFFFF AND CALLER PUSH20 0xFFFFFFFFFFFFFFFFFFFFFFFFFFFFFFFFFFFFFFFF AND EQ DUP1 PUSH2 0x19F9 JUMPI POP PUSH1 0x1 PUSH0 SWAP1 SLOAD SWAP1 PUSH2 0x100 EXP SWAP1 DIV PUSH20 0xFFFFFFFFFFFFFFFFFFFFFFFFFFFFFFFFFFFFFFFF AND PUSH20 0xFFFFFFFFFFFFFFFFFFFFFFFFFFFFFFFFFFFFFFFF AND CALLER PUSH20 0xFFFFFFFFFFFFFFFFFFFFFFFFFFFFFFFFFFFFFFFF AND EQ JUMPDEST PUSH2 0x1A38 JUMPI PUSH1 0x40 MLOAD PUSH32 0x8C379A000000000000000000000000000000000000000000000000000000000 DUP2 MSTORE PUSH1 0x4 ADD PUSH2 0x1A2F SWAP1 PUSH2 0x25BF JUMP JUMPDEST PUSH1 0x40 MLOAD DUP1 SWAP2 SUB SWAP1 REVERT JUMPDEST PUSH1 0x1 PUSH1 0x4 DUP2 GT ISZERO PUSH2 0x1A4C JUMPI PUSH2 0x1A4B PUSH2 0x2006 JUMP JUMPDEST JUMPDEST PUSH1 0x4 PUSH1 0x14 SWAP1 SLOAD SWAP1 PUSH2 0x100 EXP SWAP1 DIV PUSH1 0xFF AND PUSH1 0x4 DUP2 GT ISZERO PUSH2 0x1A6E JUMPI PUSH2 0x1A6D PUSH2 0x2006 JUMP JUMPDEST JUMPDEST EQ PUSH2 0x1AAE JUMPI PUSH1 0x40 MLOAD PUSH32 0x8C379A000000000000000000000000000000000000000000000000000000000 DUP2 MSTORE PUSH1 0x4 ADD PUSH2 0x1AA5 SWAP1 PUSH2 0x3000 JUMP JUMPDEST PUSH1 0x40 MLOAD DUP1 SWAP2 SUB SWAP1 REVERT JUMPDEST PUSH1 0x1 PUSH1 0x2 PUSH0 CALLER PUSH20 0xFFFFFFFFFFFFFFFFFFFFFFFFFFFFFFFFFFFFFFFF AND PUSH20 0xFFFFFFFFFFFFFFFFFFFFFFFFFFFFFFFFFFFFFFFF AND DUP2 MSTORE PUSH1 0x20 ADD SWAP1 DUP2 MSTORE PUSH1 0x20 ADD PUSH0 KECCAK256 PUSH0 PUSH2 0x100 EXP DUP2 SLOAD DUP2 PUSH1 0xFF MUL NOT AND SWAP1 DUP4 ISZERO ISZERO MUL OR SWAP1 SSTORE POP JUMP JUMPDEST PUSH1 0x9 PUSH0 SWAP1 SLOAD SWAP1 PUSH2 0x100 EXP SWAP1 DIV PUSH2 0xFFFF AND DUP2 JUMP JUMPDEST PUSH1 0x2 PUSH1 0x20 MSTORE DUP1 PUSH0 MSTORE PUSH1 0x40 PUSH0 KECCAK256 PUSH0 SWAP2 POP SLOAD SWAP1 PUSH2 0x100 EXP SWAP1 DIV PUSH1 0xFF AND DUP2 JUMP JUMPDEST PUSH1 0x3 PUSH0 SWAP1 SLOAD SWAP1 PUSH2 0x100 EXP SWAP1 DIV PUSH20 0xFFFFFFFFFFFFFFFFFFFFFFFFFFFFFFFFFFFFFFFF AND DUP2 JUMP JUMPDEST PUSH0 DUP1 SLOAD SWAP1 PUSH2 0x100 EXP SWAP1 DIV PUSH20 0xFFFFFFFFFFFFFFFFFFFFFFFFFFFFFFFFFFFFFFFF AND DUP2 JUMP JUMPDEST PUSH0 DUP1 PUSH20 0xFFFFFFFFFFFFFFFFFFFFFFFFFFFFFFFFFFFFFFFF AND DUP3 PUSH20 0xFFFFFFFFFFFFFFFFFFFFFFFFFFFFFFFFFFFFFFFF AND EQ ISZERO SWAP1 POP SWAP2 SWAP1 POP JUMP JUMPDEST PUSH0 DUP1 PUSH2 0x1BD2 PUSH1 0x1 PUSH1 0x14 SWAP1 SLOAD SWAP1 PUSH2 0x100 EXP SWAP1 DIV PUSH4 0xFFFFFFFF AND PUSH2 0x3A1 JUMP JUMPDEST SWAP1 POP PUSH0 PUSH3 0x15180 DUP3 PUSH2 0x1BE4 SWAP2 SWAP1 PUSH2 0x301E JUMP JUMPDEST SWAP1 POP DUP2 PUSH4 0xFFFFFFFF AND TIMESTAMP LT ISZERO DUP1 ISZERO PUSH2 0x1C01 JUMPI POP DUP1 PUSH4 0xFFFFFFFF AND TIMESTAMP LT JUMPDEST SWAP3 POP POP POP SWAP1 JUMP JUMPDEST PUSH1 0x2 PUSH1 0x4 DUP2 GT ISZERO PUSH2 0x1C1C JUMPI PUSH2 0x1C1B PUSH2 0x2006 JUMP JUMPDEST JUMPDEST PUSH1 0x4 PUSH1 0x14 SWAP1 SLOAD SWAP1 PUSH2 0x100 EXP SWAP1 DIV PUSH1 0xFF AND PUSH1 0x4 DUP2 GT ISZERO PUSH2 0x1C3E JUMPI PUSH2 0x1C3D PUSH2 0x2006 JUMP JUMPDEST JUMPDEST SUB PUSH2 0x1C7E JUMPI PUSH1 0x40 MLOAD PUSH32 0x8C379A000000000000000000000000000000000000000000000000000000000 DUP2 MSTORE PUSH1 0x4 ADD PUSH2 0x1C75 SWAP1 PUSH2 0x309F JUMP JUMPDEST PUSH1 0x40 MLOAD DUP1 SWAP2 SUB SWAP1 REVERT JUMPDEST PUSH1 0x4 DUP1 PUSH1 0x14 PUSH2 0x100 EXP DUP2 SLOAD DUP2 PUSH1 0xFF MUL NOT AND SWAP1 DUP4 PUSH1 0x4 DUP2 GT ISZERO PUSH2 0x1CA3 JUMPI PUSH2 0x1CA2 PUSH2 0x2006 JUMP JUMPDEST JUMPDEST MUL OR SWAP1 SSTORE POP PUSH1 0x3 PUSH0 SWAP1 SLOAD SWAP1 PUSH2 0x100 EXP SWAP1 DIV PUSH20 0xFFFFFFFFFFFFFFFFFFFFFFFFFFFFFFFFFFFFFFFF AND PUSH20 0xFFFFFFFFFFFFFFFFFFFFFFFFFFFFFFFFFFFFFFFF AND PUSH4 0xF1A499E2 PUSH0 DUP1 SLOAD SWAP1 PUSH2 0x100 EXP SWAP1 DIV PUSH20 0xFFFFFFFFFFFFFFFFFFFFFFFFFFFFFFFFFFFFFFFF AND PUSH1 0x40 MLOAD DUP3 PUSH4 0xFFFFFFFF AND PUSH1 0xE0 SHL DUP2 MSTORE PUSH1 0x4 ADD PUSH2 0x1D21 SWAP2 SWAP1 PUSH2 0x21C5 JUMP JUMPDEST PUSH0 PUSH1 0x40 MLOAD DUP1 DUP4 SUB DUP2 PUSH0 DUP8 DUP1 EXTCODESIZE ISZERO DUP1 ISZERO PUSH2 0x1D38 JUMPI PUSH0 DUP1 REVERT JUMPDEST POP GAS CALL ISZERO DUP1 ISZERO PUSH2 0x1D4A JUMPI RETURNDATASIZE PUSH0 DUP1 RETURNDATACOPY RETURNDATASIZE PUSH0 REVERT JUMPDEST POP POP POP POP PUSH1 0x3 PUSH0 SWAP1 SLOAD SWAP1 PUSH2 0x100 EXP SWAP1 DIV PUSH20 0xFFFFFFFFFFFFFFFFFFFFFFFFFFFFFFFFFFFFFFFF AND PUSH20 0xFFFFFFFFFFFFFFFFFFFFFFFFFFFFFFFFFFFFFFFF AND PUSH4 0xF1A499E2 PUSH1 0x1 PUSH0 SWAP1 SLOAD SWAP1 PUSH2 0x100 EXP SWAP1 DIV PUSH20 0xFFFFFFFFFFFFFFFFFFFFFFFFFFFFFFFFFFFFFFFF AND PUSH1 0x40 MLOAD DUP3 PUSH4 0xFFFFFFFF AND PUSH1 0xE0 SHL DUP2 MSTORE PUSH1 0x4 ADD PUSH2 0x1DC9 SWAP2 SWAP1 PUSH2 0x21C5 JUMP JUMPDEST PUSH0 PUSH1 0x40 MLOAD DUP1 DUP4 SUB DUP2 PUSH0 DUP8 DUP1 EXTCODESIZE ISZERO DUP1 ISZERO PUSH2 0x1DE0 JUMPI PUSH0 DUP1 REVERT JUMPDEST POP GAS CALL ISZERO DUP1 ISZERO PUSH2 0x1DF2 JUMPI RETURNDATASIZE PUSH0 DUP1 RETURNDATACOPY RETURNDATASIZE PUSH0 REVERT JUMPDEST POP POP POP POP PUSH1 0x1 PUSH0 SWAP1 SLOAD SWAP1 PUSH2 0x100 EXP SWAP1 DIV PUSH20 0xFFFFFFFFFFFFFFFFFFFFFFFFFFFFFFFFFFFFFFFF AND PUSH20 0xFFFFFFFFFFFFFFFFFFFFFFFFFFFFFFFFFFFFFFFF AND PUSH0 DUP1 SLOAD SWAP1 PUSH2 0x100 EXP SWAP1 DIV PUSH20 0xFFFFFFFFFFFFFFFFFFFFFFFFFFFFFFFFFFFFFFFF AND PUSH20 0xFFFFFFFFFFFFFFFFFFFFFFFFFFFFFFFFFFFFFFFF AND PUSH32 0xEF2FF083BCC8A022F43F0F90D8BAF5D39DD6139F8BE9943A343A61247527790D PUSH1 0x40 MLOAD PUSH1 0x40 MLOAD DUP1 SWAP2 SUB SWAP1 LOG3 JUMP JUMPDEST DUP3 DUP1 SLOAD DUP3 DUP3 SSTORE SWAP1 PUSH0 MSTORE PUSH1 0x20 PUSH0 KECCAK256 SWAP1 DUP2 ADD SWAP3 DUP3 ISZERO PUSH2 0x1F08 JUMPI SWAP2 PUSH1 0x20 MUL DUP3 ADD JUMPDEST DUP3 DUP2 GT ISZERO PUSH2 0x1F07 JUMPI DUP3 MLOAD DUP3 PUSH0 PUSH2 0x100 EXP DUP2 SLOAD DUP2 PUSH20 0xFFFFFFFFFFFFFFFFFFFFFFFFFFFFFFFFFFFFFFFF MUL NOT AND SWAP1 DUP4 PUSH20 0xFFFFFFFFFFFFFFFFFFFFFFFFFFFFFFFFFFFFFFFF AND MUL OR SWAP1 SSTORE POP SWAP2 PUSH1 0x20 ADD SWAP2 SWAP1 PUSH1 0x1 ADD SWAP1 PUSH2 0x1EB0 JUMP JUMPDEST JUMPDEST POP SWAP1 POP PUSH2 0x1F15 SWAP2 SWAP1 PUSH2 0x1F19 JUMP JUMPDEST POP SWAP1 JUMP JUMPDEST JUMPDEST DUP1 DUP3 GT ISZERO PUSH2 0x1F30 JUMPI PUSH0 DUP2 PUSH0 SWAP1 SSTORE POP PUSH1 0x1 ADD PUSH2 0x1F1A JUMP JUMPDEST POP SWAP1 JUMP JUMPDEST PUSH0 PUSH2 0xFFFF DUP3 AND SWAP1 POP SWAP2 SWAP1 POP JUMP JUMPDEST PUSH2 0x1F4A DUP2 PUSH2 0x1F34 JUMP JUMPDEST DUP3 MSTORE POP POP JUMP JUMPDEST PUSH0 PUSH1 0x20 DUP3 ADD SWAP1 POP PUSH2 0x1F63 PUSH0 DUP4 ADD DUP5 PUSH2 0x1F41 JUMP JUMPDEST SWAP3 SWAP2 POP POP JUMP JUMPDEST PUSH0 PUSH1 0x40 MLOAD SWAP1 POP SWAP1 JUMP JUMPDEST PUSH0 DUP1 REVERT JUMPDEST PUSH0 DUP1 REVERT JUMPDEST PUSH0 PUSH4 0xFFFFFFFF DUP3 AND SWAP1 POP SWAP2 SWAP1 POP JUMP JUMPDEST PUSH2 0x1F92 DUP2 PUSH2 0x1F7A JUMP JUMPDEST DUP2 EQ PUSH2 0x1F9C JUMPI PUSH0 DUP1 REVERT JUMPDEST POP JUMP JUMPDEST PUSH0 DUP2 CALLDATALOAD SWAP1 POP PUSH2 0x1FAD DUP2 PUSH2 0x1F89 JUMP JUMPDEST SWAP3 SWAP2 POP POP JUMP JUMPDEST PUSH0 PUSH1 0x20 DUP3 DUP5 SUB SLT ISZERO PUSH2 0x1FC8 JUMPI PUSH2 0x1FC7 PUSH2 0x1F72 JUMP JUMPDEST JUMPDEST PUSH0 PUSH2 0x1FD5 DUP5 DUP3 DUP6 ADD PUSH2 0x1F9F JUMP JUMPDEST SWAP2 POP POP SWAP3 SWAP2 POP POP JUMP JUMPDEST PUSH2 0x1FE7 DUP2 PUSH2 0x1F7A JUMP JUMPDEST DUP3 MSTORE POP POP JUMP JUMPDEST PUSH0 PUSH1 0x20 DUP3 ADD SWAP1 POP PUSH2 0x2000 PUSH0 DUP4 ADD DUP5 PUSH2 0x1FDE JUMP JUMPDEST SWAP3 SWAP2 POP POP JUMP JUMPDEST PUSH32 0x4E487B7100000000000000000000000000000000000000000000000000000000 PUSH0 MSTORE PUSH1 0x21 PUSH1 0x4 MSTORE PUSH1 0x24 PUSH0 REVERT JUMPDEST PUSH1 0x5 DUP2 LT PUSH2 0x2044 JUMPI PUSH2 0x2043 PUSH2 0x2006 JUMP JUMPDEST JUMPDEST POP JUMP JUMPDEST PUSH0 DUP2 SWAP1 POP PUSH2 0x2054 DUP3 PUSH2 0x2033 JUMP JUMPDEST SWAP2 SWAP1 POP JUMP JUMPDEST PUSH0 PUSH2 0x2063 DUP3 PUSH2 0x2047 JUMP JUMPDEST SWAP1 POP SWAP2 SWAP1 POP JUMP JUMPDEST PUSH2 0x2073 DUP2 PUSH2 0x2059 JUMP JUMPDEST DUP3 MSTORE POP POP JUMP JUMPDEST PUSH0 PUSH1 0x20 DUP3 ADD SWAP1 POP PUSH2 0x208C PUSH0 DUP4 ADD DUP5 PUSH2 0x206A JUMP JUMPDEST SWAP3 SWAP2 POP POP JUMP JUMPDEST PUSH0 PUSH20 0xFFFFFFFFFFFFFFFFFFFFFFFFFFFFFFFFFFFFFFFF DUP3 AND SWAP1 POP SWAP2 SWAP1 POP JUMP JUMPDEST PUSH0 PUSH2 0x20BB DUP3 PUSH2 0x2092 JUMP JUMPDEST SWAP1 POP SWAP2 SWAP1 POP JUMP JUMPDEST PUSH2 0x20CB DUP2 PUSH2 0x20B1 JUMP JUMPDEST DUP2 EQ PUSH2 0x20D5 JUMPI PUSH0 DUP1 REVERT JUMPDEST POP JUMP JUMPDEST PUSH0 DUP2 CALLDATALOAD SWAP1 POP PUSH2 0x20E6 DUP2 PUSH2 0x20C2 JUMP JUMPDEST SWAP3 SWAP2 POP POP JUMP JUMPDEST PUSH0 PUSH1 0x20 DUP3 DUP5 SUB SLT ISZERO PUSH2 0x2101 JUMPI PUSH2 0x2100 PUSH2 0x1F72 JUMP JUMPDEST JUMPDEST PUSH0 PUSH2 0x210E DUP5 DUP3 DUP6 ADD PUSH2 0x20D8 JUMP JUMPDEST SWAP2 POP POP SWAP3 SWAP2 POP POP JUMP JUMPDEST PUSH0 DUP2 ISZERO ISZERO SWAP1 POP SWAP2 SWAP1 POP JUMP JUMPDEST PUSH2 0x212B DUP2 PUSH2 0x2117 JUMP JUMPDEST DUP3 MSTORE POP POP JUMP JUMPDEST PUSH0 PUSH1 0x40 DUP3 ADD SWAP1 POP PUSH2 0x2144 PUSH0 DUP4 ADD DUP6 PUSH2 0x2122 JUMP JUMPDEST PUSH2 0x2151 PUSH1 0x20 DUP4 ADD DUP5 PUSH2 0x2122 JUMP JUMPDEST SWAP4 SWAP3 POP POP POP JUMP JUMPDEST PUSH0 DUP2 SWAP1 POP SWAP2 SWAP1 POP JUMP JUMPDEST PUSH2 0x216A DUP2 PUSH2 0x2158 JUMP JUMPDEST DUP2 EQ PUSH2 0x2174 JUMPI PUSH0 DUP1 REVERT JUMPDEST POP JUMP JUMPDEST PUSH0 DUP2 CALLDATALOAD SWAP1 POP PUSH2 0x2185 DUP2 PUSH2 0x2161 JUMP JUMPDEST SWAP3 SWAP2 POP POP JUMP JUMPDEST PUSH0 PUSH1 0x20 DUP3 DUP5 SUB SLT ISZERO PUSH2 0x21A0 JUMPI PUSH2 0x219F PUSH2 0x1F72 JUMP JUMPDEST JUMPDEST PUSH0 PUSH2 0x21AD DUP5 DUP3 DUP6 ADD PUSH2 0x2177 JUMP JUMPDEST SWAP2 POP POP SWAP3 SWAP2 POP POP JUMP JUMPDEST PUSH2 0x21BF DUP2 PUSH2 0x20B1 JUMP JUMPDEST DUP3 MSTORE POP POP JUMP JUMPDEST PUSH0 PUSH1 0x20 DUP3 ADD SWAP1 POP PUSH2 0x21D8 PUSH0 DUP4 ADD DUP5 PUSH2 0x21B6 JUMP JUMPDEST SWAP3 SWAP2 POP POP JUMP JUMPDEST PUSH0 DUP1 PUSH1 0x40 DUP4 DUP6 SUB SLT ISZERO PUSH2 0x21F4 JUMPI PUSH2 0x21F3 PUSH2 0x1F72 JUMP JUMPDEST JUMPDEST PUSH0 PUSH2 0x2201 DUP6 DUP3 DUP7 ADD PUSH2 0x20D8 JUMP JUMPDEST SWAP3 POP POP PUSH1 0x20 PUSH2 0x2212 DUP6 DUP3 DUP7 ADD PUSH2 0x1F9F JUMP JUMPDEST SWAP2 POP POP SWAP3 POP SWAP3 SWAP1 POP JUMP JUMPDEST PUSH0 DUP1 REVERT JUMPDEST PUSH0 PUSH1 0x1F NOT PUSH1 0x1F DUP4 ADD AND SWAP1 POP SWAP2 SWAP1 POP JUMP JUMPDEST PUSH32 0x4E487B7100000000000000000000000000000000000000000000000000000000 PUSH0 MSTORE PUSH1 0x41 PUSH1 0x4 MSTORE PUSH1 0x24 PUSH0 REVERT JUMPDEST PUSH2 0x2266 DUP3 PUSH2 0x2220 JUMP JUMPDEST DUP2 ADD DUP2 DUP2 LT PUSH8 0xFFFFFFFFFFFFFFFF DUP3 GT OR ISZERO PUSH2 0x2285 JUMPI PUSH2 0x2284 PUSH2 0x2230 JUMP JUMPDEST JUMPDEST DUP1 PUSH1 0x40 MSTORE POP POP POP JUMP JUMPDEST PUSH0 PUSH2 0x2297 PUSH2 0x1F69 JUMP JUMPDEST SWAP1 POP PUSH2 0x22A3 DUP3 DUP3 PUSH2 0x225D JUMP JUMPDEST SWAP2 SWAP1 POP JUMP JUMPDEST PUSH0 PUSH8 0xFFFFFFFFFFFFFFFF DUP3 GT ISZERO PUSH2 0x22C2 JUMPI PUSH2 0x22C1 PUSH2 0x2230 JUMP JUMPDEST JUMPDEST PUSH1 0x20 DUP3 MUL SWAP1 POP PUSH1 0x20 DUP2 ADD SWAP1 POP SWAP2 SWAP1 POP JUMP JUMPDEST PUSH0 DUP1 REVERT JUMPDEST PUSH0 PUSH2 0x22E9 PUSH2 0x22E4 DUP5 PUSH2 0x22A8 JUMP JUMPDEST PUSH2 0x228E JUMP JUMPDEST SWAP1 POP DUP1 DUP4 DUP3 MSTORE PUSH1 0x20 DUP3 ADD SWAP1 POP PUSH1 0x20 DUP5 MUL DUP4 ADD DUP6 DUP2 GT ISZERO PUSH2 0x230C JUMPI PUSH2 0x230B PUSH2 0x22D3 JUMP JUMPDEST JUMPDEST DUP4 JUMPDEST DUP2 DUP2 LT ISZERO PUSH2 0x2335 JUMPI DUP1 PUSH2 0x2321 DUP9 DUP3 PUSH2 0x20D8 JUMP JUMPDEST DUP5 MSTORE PUSH1 0x20 DUP5 ADD SWAP4 POP POP PUSH1 0x20 DUP2 ADD SWAP1 POP PUSH2 0x230E JUMP JUMPDEST POP POP POP SWAP4 SWAP3 POP POP POP JUMP JUMPDEST PUSH0 DUP3 PUSH1 0x1F DUP4 ADD SLT PUSH2 0x2353 JUMPI PUSH2 0x2352 PUSH2 0x221C JUMP JUMPDEST JUMPDEST DUP2 CALLDATALOAD PUSH2 0x2363 DUP5 DUP3 PUSH1 0x20 DUP7 ADD PUSH2 0x22D7 JUMP JUMPDEST SWAP2 POP POP SWAP3 SWAP2 POP POP JUMP JUMPDEST PUSH0 PUSH1 0x20 DUP3 DUP5 SUB SLT ISZERO PUSH2 0x2381 JUMPI PUSH2 0x2380 PUSH2 0x1F72 JUMP JUMPDEST JUMPDEST PUSH0 DUP3 ADD CALLDATALOAD PUSH8 0xFFFFFFFFFFFFFFFF DUP2 GT ISZERO PUSH2 0x239E JUMPI PUSH2 0x239D PUSH2 0x1F76 JUMP JUMPDEST JUMPDEST PUSH2 0x23AA DUP5 DUP3 DUP6 ADD PUSH2 0x233F JUMP JUMPDEST SWAP2 POP POP SWAP3 SWAP2 POP POP JUMP JUMPDEST PUSH0 DUP2 SWAP1 POP SWAP2 SWAP1 POP JUMP JUMPDEST PUSH0 PUSH2 0x23D6 PUSH2 0x23D1 PUSH2 0x23CC DUP5 PUSH2 0x2092 JUMP JUMPDEST PUSH2 0x23B3 JUMP JUMPDEST PUSH2 0x2092 JUMP JUMPDEST SWAP1 POP SWAP2 SWAP1 POP JUMP JUMPDEST PUSH0 PUSH2 0x23E7 DUP3 PUSH2 0x23BC JUMP JUMPDEST SWAP1 POP SWAP2 SWAP1 POP JUMP JUMPDEST PUSH0 PUSH2 0x23F8 DUP3 PUSH2 0x23DD JUMP JUMPDEST SWAP1 POP SWAP2 SWAP1 POP JUMP JUMPDEST PUSH2 0x2408 DUP2 PUSH2 0x23EE JUMP JUMPDEST DUP3 MSTORE POP POP JUMP JUMPDEST PUSH0 PUSH1 0x20 DUP3 ADD SWAP1 POP PUSH2 0x2421 PUSH0 DUP4 ADD DUP5 PUSH2 0x23FF JUMP JUMPDEST SWAP3 SWAP2 POP POP JUMP JUMPDEST PUSH0 PUSH1 0x20 DUP3 ADD SWAP1 POP PUSH2 0x243A PUSH0 DUP4 ADD DUP5 PUSH2 0x2122 JUMP JUMPDEST SWAP3 SWAP2 POP POP JUMP JUMPDEST PUSH0 PUSH2 0x244A DUP3 PUSH2 0x23DD JUMP JUMPDEST SWAP1 POP SWAP2 SWAP1 POP JUMP JUMPDEST PUSH2 0x245A DUP2 PUSH2 0x2440 JUMP JUMPDEST DUP3 MSTORE POP POP JUMP JUMPDEST PUSH0 PUSH1 0x20 DUP3 ADD SWAP1 POP PUSH2 0x2473 PUSH0 DUP4 ADD DUP5 PUSH2 0x2451 JUMP JUMPDEST SWAP3 SWAP2 POP POP JUMP JUMPDEST PUSH32 0x4E487B7100000000000000000000000000000000000000000000000000000000 PUSH0 MSTORE PUSH1 0x12 PUSH1 0x4 MSTORE PUSH1 0x24 PUSH0 REVERT JUMPDEST PUSH32 0x4E487B7100000000000000000000000000000000000000000000000000000000 PUSH0 MSTORE PUSH1 0x11 PUSH1 0x4 MSTORE PUSH1 0x24 PUSH0 REVERT JUMPDEST PUSH0 PUSH2 0x24DD DUP3 PUSH2 0x1F7A JUMP JUMPDEST SWAP2 POP PUSH2 0x24E8 DUP4 PUSH2 0x1F7A JUMP JUMPDEST SWAP3 POP DUP3 PUSH2 0x24F8 JUMPI PUSH2 0x24F7 PUSH2 0x2479 JUMP JUMPDEST JUMPDEST DUP3 DUP3 DIV SWAP1 POP SWAP3 SWAP2 POP POP JUMP JUMPDEST PUSH0 PUSH2 0x250D DUP3 PUSH2 0x1F7A JUMP JUMPDEST SWAP2 POP PUSH2 0x2518 DUP4 PUSH2 0x1F7A JUMP JUMPDEST SWAP3 POP DUP3 DUP3 MUL PUSH2 0x2526 DUP2 PUSH2 0x1F7A JUMP JUMPDEST SWAP2 POP DUP1 DUP3 EQ PUSH2 0x2538 JUMPI PUSH2 0x2537 PUSH2 0x24A6 JUMP JUMPDEST JUMPDEST POP SWAP3 SWAP2 POP POP JUMP JUMPDEST PUSH0 DUP3 DUP3 MSTORE PUSH1 0x20 DUP3 ADD SWAP1 POP SWAP3 SWAP2 POP POP JUMP JUMPDEST PUSH32 0x4F6E6C792073706F757365732063616E2063616C6C20746869732066756E6374 PUSH0 DUP3 ADD MSTORE PUSH32 0x696F6E0000000000000000000000000000000000000000000000000000000000 PUSH1 0x20 DUP3 ADD MSTORE POP JUMP JUMPDEST PUSH0 PUSH2 0x25A9 PUSH1 0x23 DUP4 PUSH2 0x253F JUMP JUMPDEST SWAP2 POP PUSH2 0x25B4 DUP3 PUSH2 0x254F JUMP JUMPDEST PUSH1 0x40 DUP3 ADD SWAP1 POP SWAP2 SWAP1 POP JUMP JUMPDEST PUSH0 PUSH1 0x20 DUP3 ADD SWAP1 POP DUP2 DUP2 SUB PUSH0 DUP4 ADD MSTORE PUSH2 0x25D6 DUP2 PUSH2 0x259D JUMP JUMPDEST SWAP1 POP SWAP2 SWAP1 POP JUMP JUMPDEST PUSH32 0x496E76616C696420656E676167656D656E742073746174757300000000000000 PUSH0 DUP3 ADD MSTORE POP JUMP JUMPDEST PUSH0 PUSH2 0x2611 PUSH1 0x19 DUP4 PUSH2 0x253F JUMP JUMPDEST SWAP2 POP PUSH2 0x261C DUP3 PUSH2 0x25DD JUMP JUMPDEST PUSH1 0x20 DUP3 ADD SWAP1 POP SWAP2 SWAP1 POP JUMP JUMPDEST PUSH0 PUSH1 0x20 DUP3 ADD SWAP1 POP DUP2 DUP2 SUB PUSH0 DUP4 ADD MSTORE PUSH2 0x263E DUP2 PUSH2 0x2605 JUMP JUMPDEST SWAP1 POP SWAP2 SWAP1 POP JUMP JUMPDEST PUSH32 0x4775657374206C69737420616C726561647920636F6E6669726D656400000000 PUSH0 DUP3 ADD MSTORE POP JUMP JUMPDEST PUSH0 PUSH2 0x2679 PUSH1 0x1C DUP4 PUSH2 0x253F JUMP JUMPDEST SWAP2 POP PUSH2 0x2684 DUP3 PUSH2 0x2645 JUMP JUMPDEST PUSH1 0x20 DUP3 ADD SWAP1 POP SWAP2 SWAP1 POP JUMP JUMPDEST PUSH0 PUSH1 0x20 DUP3 ADD SWAP1 POP DUP2 DUP2 SUB PUSH0 DUP4 ADD MSTORE PUSH2 0x26A6 DUP2 PUSH2 0x266D JUMP JUMPDEST SWAP1 POP SWAP2 SWAP1 POP JUMP JUMPDEST PUSH32 0x4E6F207061727469636970616E74732070726F706F7365640000000000000000 PUSH0 DUP3 ADD MSTORE POP JUMP JUMPDEST PUSH0 PUSH2 0x26E1 PUSH1 0x18 DUP4 PUSH2 0x253F JUMP JUMPDEST SWAP2 POP PUSH2 0x26EC DUP3 PUSH2 0x26AD JUMP JUMPDEST PUSH1 0x20 DUP3 ADD SWAP1 POP SWAP2 SWAP1 POP JUMP JUMPDEST PUSH0 PUSH1 0x20 DUP3 ADD SWAP1 POP DUP2 DUP2 SUB PUSH0 DUP4 ADD MSTORE PUSH2 0x270E DUP2 PUSH2 0x26D5 JUMP JUMPDEST SWAP1 POP SWAP2 SWAP1 POP JUMP JUMPDEST PUSH0 DUP2 SLOAD SWAP1 POP SWAP2 SWAP1 POP JUMP JUMPDEST PUSH0 DUP3 DUP3 MSTORE PUSH1 0x20 DUP3 ADD SWAP1 POP SWAP3 SWAP2 POP POP JUMP JUMPDEST PUSH0 DUP2 SWAP1 POP DUP2 PUSH0 MSTORE PUSH1 0x20 PUSH0 KECCAK256 SWAP1 POP SWAP2 SWAP1 POP JUMP JUMPDEST PUSH2 0x274A DUP2 PUSH2 0x20B1 JUMP JUMPDEST DUP3 MSTORE POP POP JUMP JUMPDEST PUSH0 PUSH2 0x275B DUP4 DUP4 PUSH2 0x2741 JUMP JUMPDEST PUSH1 0x20 DUP4 ADD SWAP1 POP SWAP3 SWAP2 POP POP JUMP JUMPDEST PUSH0 DUP2 PUSH0 SHR SWAP1 POP SWAP2 SWAP1 POP JUMP JUMPDEST PUSH0 PUSH20 0xFFFFFFFFFFFFFFFFFFFFFFFFFFFFFFFFFFFFFFFF DUP3 AND SWAP1 POP SWAP2 SWAP1 POP JUMP JUMPDEST PUSH0 PUSH2 0x27A3 PUSH2 0x279E DUP4 PUSH2 0x2767 JUMP JUMPDEST PUSH2 0x2772 JUMP JUMPDEST SWAP1 POP SWAP2 SWAP1 POP JUMP JUMPDEST PUSH0 PUSH2 0x27B5 DUP3 SLOAD PUSH2 0x2791 JUMP JUMPDEST SWAP1 POP SWAP2 SWAP1 POP JUMP JUMPDEST PUSH0 PUSH1 0x1 DUP3 ADD SWAP1 POP SWAP2 SWAP1 POP JUMP JUMPDEST PUSH0 PUSH2 0x27D2 DUP3 PUSH2 0x2715 JUMP JUMPDEST PUSH2 0x27DC DUP2 DUP6 PUSH2 0x271F JUMP JUMPDEST SWAP4 POP PUSH2 0x27E7 DUP4 PUSH2 0x272F JUMP JUMPDEST DUP1 PUSH0 JUMPDEST DUP4 DUP2 LT ISZERO PUSH2 0x281E JUMPI PUSH2 0x27FB DUP3 PUSH2 0x27AA JUMP JUMPDEST PUSH2 0x2805 DUP9 DUP3 PUSH2 0x2750 JUMP JUMPDEST SWAP8 POP PUSH2 0x2810 DUP4 PUSH2 0x27BC JUMP JUMPDEST SWAP3 POP POP PUSH1 0x1 DUP2 ADD SWAP1 POP PUSH2 0x27EA JUMP JUMPDEST POP DUP6 SWAP4 POP POP POP POP SWAP3 SWAP2 POP POP JUMP JUMPDEST PUSH0 PUSH1 0x20 DUP3 ADD SWAP1 POP DUP2 DUP2 SUB PUSH0 DUP4 ADD MSTORE PUSH2 0x2843 DUP2 DUP5 PUSH2 0x27C8 JUMP JUMPDEST SWAP1 POP SWAP3 SWAP2 POP POP JUMP JUMPDEST PUSH32 0x43616E6E6F74206D6172727920796F757273656C660000000000000000000000 PUSH0 DUP3 ADD MSTORE POP JUMP JUMPDEST PUSH0 PUSH2 0x287F PUSH1 0x15 DUP4 PUSH2 0x253F JUMP JUMPDEST SWAP2 POP PUSH2 0x288A DUP3 PUSH2 0x284B JUMP JUMPDEST PUSH1 0x20 DUP3 ADD SWAP1 POP SWAP2 SWAP1 POP JUMP JUMPDEST PUSH0 PUSH1 0x20 DUP3 ADD SWAP1 POP DUP2 DUP2 SUB PUSH0 DUP4 ADD MSTORE PUSH2 0x28AC DUP2 PUSH2 0x2873 JUMP JUMPDEST SWAP1 POP SWAP2 SWAP1 POP JUMP JUMPDEST PUSH32 0x496E76616C696420616464726573730000000000000000000000000000000000 PUSH0 DUP3 ADD MSTORE POP JUMP JUMPDEST PUSH0 PUSH2 0x28E7 PUSH1 0xF DUP4 PUSH2 0x253F JUMP JUMPDEST SWAP2 POP PUSH2 0x28F2 DUP3 PUSH2 0x28B3 JUMP JUMPDEST PUSH1 0x20 DUP3 ADD SWAP1 POP SWAP2 SWAP1 POP JUMP JUMPDEST PUSH0 PUSH1 0x20 DUP3 ADD SWAP1 POP DUP2 DUP2 SUB PUSH0 DUP4 ADD MSTORE PUSH2 0x2914 DUP2 PUSH2 0x28DB JUMP JUMPDEST SWAP1 POP SWAP2 SWAP1 POP JUMP JUMPDEST PUSH32 0x53706F7573657320616C726561647920616772656564206F6E20706172746963 PUSH0 DUP3 ADD MSTORE PUSH32 0x69706174696F6E206C6973740000000000000000000000000000000000000000 PUSH1 0x20 DUP3 ADD MSTORE POP JUMP JUMPDEST PUSH0 PUSH2 0x2975 PUSH1 0x2C DUP4 PUSH2 0x253F JUMP JUMPDEST SWAP2 POP PUSH2 0x2980 DUP3 PUSH2 0x291B JUMP JUMPDEST PUSH1 0x40 DUP3 ADD SWAP1 POP SWAP2 SWAP1 POP JUMP JUMPDEST PUSH0 PUSH1 0x20 DUP3 ADD SWAP1 POP DUP2 DUP2 SUB PUSH0 DUP4 ADD MSTORE PUSH2 0x29A2 DUP2 PUSH2 0x2969 JUMP JUMPDEST SWAP1 POP SWAP2 SWAP1 POP JUMP JUMPDEST PUSH32 0x4E487B7100000000000000000000000000000000000000000000000000000000 PUSH0 MSTORE PUSH1 0x32 PUSH1 0x4 MSTORE PUSH1 0x24 PUSH0 REVERT JUMPDEST PUSH32 0x43616E6E6F7420696E7669746520616E20696E76616C69642061646472657373 PUSH0 DUP3 ADD MSTORE POP JUMP JUMPDEST PUSH0 PUSH2 0x2A0A PUSH1 0x20 DUP4 PUSH2 0x253F JUMP JUMPDEST SWAP2 POP PUSH2 0x2A15 DUP3 PUSH2 0x29D6 JUMP JUMPDEST PUSH1 0x20 DUP3 ADD SWAP1 POP SWAP2 SWAP1 POP JUMP JUMPDEST PUSH0 PUSH1 0x20 DUP3 ADD SWAP1 POP DUP2 DUP2 SUB PUSH0 DUP4 ADD MSTORE PUSH2 0x2A37 DUP2 PUSH2 0x29FE JUMP JUMPDEST SWAP1 POP SWAP2 SWAP1 POP JUMP JUMPDEST PUSH0 PUSH1 0xFF DUP3 AND SWAP1 POP SWAP2 SWAP1 POP JUMP JUMPDEST PUSH0 PUSH2 0x2A54 DUP3 PUSH2 0x2A3E JUMP JUMPDEST SWAP2 POP PUSH1 0xFF DUP3 SUB PUSH2 0x2A67 JUMPI PUSH2 0x2A66 PUSH2 0x24A6 JUMP JUMPDEST JUMPDEST PUSH1 0x1 DUP3 ADD SWAP1 POP SWAP2 SWAP1 POP JUMP JUMPDEST PUSH0 DUP2 MLOAD SWAP1 POP SWAP2 SWAP1 POP JUMP JUMPDEST PUSH0 DUP2 SWAP1 POP PUSH1 0x20 DUP3 ADD SWAP1 POP SWAP2 SWAP1 POP JUMP JUMPDEST PUSH0 PUSH1 0x20 DUP3 ADD SWAP1 POP SWAP2 SWAP1 POP JUMP JUMPDEST PUSH0 PUSH2 0x2AA1 DUP3 PUSH2 0x2A72 JUMP JUMPDEST PUSH2 0x2AAB DUP2 DUP6 PUSH2 0x271F JUMP JUMPDEST SWAP4 POP PUSH2 0x2AB6 DUP4 PUSH2 0x2A7C JUMP JUMPDEST DUP1 PUSH0 JUMPDEST DUP4 DUP2 LT ISZERO PUSH2 0x2AE6 JUMPI DUP2 MLOAD PUSH2 0x2ACD DUP9 DUP3 PUSH2 0x2750 JUMP JUMPDEST SWAP8 POP PUSH2 0x2AD8 DUP4 PUSH2 0x2A8B JUMP JUMPDEST SWAP3 POP POP PUSH1 0x1 DUP2 ADD SWAP1 POP PUSH2 0x2AB9 JUMP JUMPDEST POP DUP6 SWAP4 POP POP POP POP SWAP3 SWAP2 POP POP JUMP JUMPDEST PUSH0 PUSH1 0x20 DUP3 ADD SWAP1 POP DUP2 DUP2 SUB PUSH0 DUP4 ADD MSTORE PUSH2 0x2B0B DUP2 DUP5 PUSH2 0x2A97 JUMP JUMPDEST SWAP1 POP SWAP3 SWAP2 POP POP JUMP JUMPDEST PUSH32 0x596F752063616E74207265766F6B6520616E20756E61637469766520656E6761 PUSH0 DUP3 ADD MSTORE PUSH32 0x67656D656E740000000000000000000000000000000000000000000000000000 PUSH1 0x20 DUP3 ADD MSTORE POP JUMP JUMPDEST PUSH0 PUSH2 0x2B6D PUSH1 0x26 DUP4 PUSH2 0x253F JUMP JUMPDEST SWAP2 POP PUSH2 0x2B78 DUP3 PUSH2 0x2B13 JUMP JUMPDEST PUSH1 0x40 DUP3 ADD SWAP1 POP SWAP2 SWAP1 POP JUMP JUMPDEST PUSH0 PUSH1 0x20 DUP3 ADD SWAP1 POP DUP2 DUP2 SUB PUSH0 DUP4 ADD MSTORE PUSH2 0x2B9A DUP2 PUSH2 0x2B61 JUMP JUMPDEST SWAP1 POP SWAP2 SWAP1 POP JUMP JUMPDEST PUSH32 0x426F74682073706F75736573206D75737420626520656E676167656420746F20 PUSH0 DUP3 ADD MSTORE PUSH32 0x6D61727279000000000000000000000000000000000000000000000000000000 PUSH1 0x20 DUP3 ADD MSTORE POP JUMP JUMPDEST PUSH0 PUSH2 0x2BFB PUSH1 0x25 DUP4 PUSH2 0x253F JUMP JUMPDEST SWAP2 POP PUSH2 0x2C06 DUP3 PUSH2 0x2BA1 JUMP JUMPDEST PUSH1 0x40 DUP3 ADD SWAP1 POP SWAP2 SWAP1 POP JUMP JUMPDEST PUSH0 PUSH1 0x20 DUP3 ADD SWAP1 POP DUP2 DUP2 SUB PUSH0 DUP4 ADD MSTORE PUSH2 0x2C28 DUP2 PUSH2 0x2BEF JUMP JUMPDEST SWAP1 POP SWAP2 SWAP1 POP JUMP JUMPDEST PUSH32 0x426F74682073706F75736573206D75737420736179204920646F20746F206765 PUSH0 DUP3 ADD MSTORE PUSH32 0x74206D6172726965640000000000000000000000000000000000000000000000 PUSH1 0x20 DUP3 ADD MSTORE POP JUMP JUMPDEST PUSH0 PUSH2 0x2C89 PUSH1 0x29 DUP4 PUSH2 0x253F JUMP JUMPDEST SWAP2 POP PUSH2 0x2C94 DUP3 PUSH2 0x2C2F JUMP JUMPDEST PUSH1 0x40 DUP3 ADD SWAP1 POP SWAP2 SWAP1 POP JUMP JUMPDEST PUSH0 PUSH1 0x20 DUP3 ADD SWAP1 POP DUP2 DUP2 SUB PUSH0 DUP4 ADD MSTORE PUSH2 0x2CB6 DUP2 PUSH2 0x2C7D JUMP JUMPDEST SWAP1 POP SWAP2 SWAP1 POP JUMP JUMPDEST PUSH32 0x43616E7420676574206D61727269656420696620697473206E6F7420796F7572 PUSH0 DUP3 ADD MSTORE PUSH32 0x2077656464696E67206461790000000000000000000000000000000000000000 PUSH1 0x20 DUP3 ADD MSTORE POP JUMP JUMPDEST PUSH0 PUSH2 0x2D17 PUSH1 0x2C DUP4 PUSH2 0x253F JUMP JUMPDEST SWAP2 POP PUSH2 0x2D22 DUP3 PUSH2 0x2CBD JUMP JUMPDEST PUSH1 0x40 DUP3 ADD SWAP1 POP SWAP2 SWAP1 POP JUMP JUMPDEST PUSH0 PUSH1 0x20 DUP3 ADD SWAP1 POP DUP2 DUP2 SUB PUSH0 DUP4 ADD MSTORE PUSH2 0x2D44 DUP2 PUSH2 0x2D0B JUMP JUMPDEST SWAP1 POP SWAP2 SWAP1 POP JUMP JUMPDEST PUSH32 0x47756573742068617320616C726561647920766F746564000000000000000000 PUSH0 DUP3 ADD MSTORE POP JUMP JUMPDEST PUSH0 PUSH2 0x2D7F PUSH1 0x17 DUP4 PUSH2 0x253F JUMP JUMPDEST SWAP2 POP PUSH2 0x2D8A DUP3 PUSH2 0x2D4B JUMP JUMPDEST PUSH1 0x20 DUP3 ADD SWAP1 POP SWAP2 SWAP1 POP JUMP JUMPDEST PUSH0 PUSH1 0x20 DUP3 ADD SWAP1 POP DUP2 DUP2 SUB PUSH0 DUP4 ADD MSTORE PUSH2 0x2DAC DUP2 PUSH2 0x2D73 JUMP JUMPDEST SWAP1 POP SWAP2 SWAP1 POP JUMP JUMPDEST PUSH0 PUSH2 0x2DBD DUP3 PUSH2 0x1F34 JUMP JUMPDEST SWAP2 POP PUSH2 0xFFFF DUP3 SUB PUSH2 0x2DD1 JUMPI PUSH2 0x2DD0 PUSH2 0x24A6 JUMP JUMPDEST JUMPDEST PUSH1 0x1 DUP3 ADD SWAP1 POP SWAP2 SWAP1 POP JUMP JUMPDEST PUSH0 PUSH2 0x2DE6 DUP3 PUSH2 0x2158 JUMP JUMPDEST SWAP2 POP PUSH2 0x2DF1 DUP4 PUSH2 0x2158 JUMP JUMPDEST SWAP3 POP DUP3 PUSH2 0x2E01 JUMPI PUSH2 0x2E00 PUSH2 0x2479 JUMP JUMPDEST JUMPDEST DUP3 DUP3 DIV SWAP1 POP SWAP3 SWAP2 POP POP JUMP JUMPDEST PUSH32 0x596F7520617265206E6F74206120677565737420617420746869732077656464 PUSH0 DUP3 ADD MSTORE PUSH32 0x696E670000000000000000000000000000000000000000000000000000000000 PUSH1 0x20 DUP3 ADD MSTORE POP JUMP JUMPDEST PUSH0 PUSH2 0x2E66 PUSH1 0x23 DUP4 PUSH2 0x253F JUMP JUMPDEST SWAP2 POP PUSH2 0x2E71 DUP3 PUSH2 0x2E0C JUMP JUMPDEST PUSH1 0x40 DUP3 ADD SWAP1 POP SWAP2 SWAP1 POP JUMP JUMPDEST PUSH0 PUSH1 0x20 DUP3 ADD SWAP1 POP DUP2 DUP2 SUB PUSH0 DUP4 ADD MSTORE PUSH2 0x2E93 DUP2 PUSH2 0x2E5A JUMP JUMPDEST SWAP1 POP SWAP2 SWAP1 POP JUMP JUMPDEST PUSH32 0x596F752068617665206E6F74206265656E20696E766974656420627920626F74 PUSH0 DUP3 ADD MSTORE PUSH32 0x682073706F757365730000000000000000000000000000000000000000000000 PUSH1 0x20 DUP3 ADD MSTORE POP JUMP JUMPDEST PUSH0 PUSH2 0x2EF4 PUSH1 0x29 DUP4 PUSH2 0x253F JUMP JUMPDEST SWAP2 POP PUSH2 0x2EFF DUP3 PUSH2 0x2E9A JUMP JUMPDEST PUSH1 0x40 DUP3 ADD SWAP1 POP SWAP2 SWAP1 POP JUMP JUMPDEST PUSH0 PUSH1 0x20 DUP3 ADD SWAP1 POP DUP2 DUP2 SUB PUSH0 DUP4 ADD MSTORE PUSH2 0x2F21 DUP2 PUSH2 0x2EE8 JUMP JUMPDEST SWAP1 POP SWAP2 SWAP1 POP JUMP JUMPDEST PUSH32 0x4F6E6C7920736F6D656F6E652070726F706F73656420746F2063616E20616363 PUSH0 DUP3 ADD MSTORE PUSH32 0x6570740000000000000000000000000000000000000000000000000000000000 PUSH1 0x20 DUP3 ADD MSTORE POP JUMP JUMPDEST PUSH0 PUSH2 0x2F82 PUSH1 0x23 DUP4 PUSH2 0x253F JUMP JUMPDEST SWAP2 POP PUSH2 0x2F8D DUP3 PUSH2 0x2F28 JUMP JUMPDEST PUSH1 0x40 DUP3 ADD SWAP1 POP SWAP2 SWAP1 POP JUMP JUMPDEST PUSH0 PUSH1 0x20 DUP3 ADD SWAP1 POP DUP2 DUP2 SUB PUSH0 DUP4 ADD MSTORE PUSH2 0x2FAF DUP2 PUSH2 0x2F76 JUMP JUMPDEST SWAP1 POP SWAP2 SWAP1 POP JUMP JUMPDEST PUSH32 0x596F75206D75737420626520656E676167656420746F20736179204920646F00 PUSH0 DUP3 ADD MSTORE POP JUMP JUMPDEST PUSH0 PUSH2 0x2FEA PUSH1 0x1F DUP4 PUSH2 0x253F JUMP JUMPDEST SWAP2 POP PUSH2 0x2FF5 DUP3 PUSH2 0x2FB6 JUMP JUMPDEST PUSH1 0x20 DUP3 ADD SWAP1 POP SWAP2 SWAP1 POP JUMP JUMPDEST PUSH0 PUSH1 0x20 DUP3 ADD SWAP1 POP DUP2 DUP2 SUB PUSH0 DUP4 ADD MSTORE PUSH2 0x3017 DUP2 PUSH2 0x2FDE JUMP JUMPDEST SWAP1 POP SWAP2 SWAP1 POP JUMP JUMPDEST PUSH0 PUSH2 0x3028 DUP3 PUSH2 0x1F7A JUMP JUMPDEST SWAP2 POP PUSH2 0x3033 DUP4 PUSH2 0x1F7A JUMP JUMPDEST SWAP3 POP DUP3 DUP3 ADD SWAP1 POP PUSH4 0xFFFFFFFF DUP2 GT ISZERO PUSH2 0x304F JUMPI PUSH2 0x304E PUSH2 0x24A6 JUMP JUMPDEST JUMPDEST SWAP3 SWAP2 POP POP JUMP JUMPDEST PUSH32 0x696E76616C6964207374617465207472616E736974696F6E0000000000000000 PUSH0 DUP3 ADD MSTORE POP JUMP JUMPDEST PUSH0 PUSH2 0x3089 PUSH1 0x18 DUP4 PUSH2 0x253F JUMP JUMPDEST SWAP2 POP PUSH2 0x3094 DUP3 PUSH2 0x3055 JUMP JUMPDEST PUSH1 0x20 DUP3 ADD SWAP1 POP SWAP2 SWAP1 POP JUMP JUMPDEST PUSH0 PUSH1 0x20 DUP3 ADD SWAP1 POP DUP2 DUP2 SUB PUSH0 DUP4 ADD MSTORE PUSH2 0x30B6 DUP2 PUSH2 0x307D JUMP JUMPDEST SWAP1 POP SWAP2 SWAP1 POP JUMP INVALID LOG2 PUSH5 0x6970667358 0x22 SLT KECCAK256 SHL 0xB0 PUSH3 0x337C20 BYTE 0x4C CODESIZE OR CALLDATALOAD 0xD DUP10 JUMPDEST JUMPDEST 0x4F 0xB3 BLOCKHASH 0xEF EXTCODEHASH DUP8 0xE3 0xBE DUP4 0x2D PUSH24 0x24E5647DE53764736F6C6343000814003300000000000000 "
		},
		"gasEstimates": {
			"creation": {
				"codeDepositCost": "2506200",
				"executionCost": "51314",
				"totalCost": "2557514"
			},
			"external": {
				"acceptProposal()": "32483",
				"againstVotes()": "2532",
				"confirmParticipations()": "infinite",
				"confirmedParticipations(address)": "2944",
				"currentState()": "2673",
				"getDateFromTimestamp(uint32)": "infinite",
				"guestVotes(address)": "infinite",
				"marriageRegistery()": "infinite",
				"marriegeLicense()": "infinite",
				"marry()": "infinite",
				"participations(uint256)": "5056",
				"propose(address,uint32)": "79445",
				"proposeParticipations(address[])": "infinite",
				"revokeEngagement()": "37004",
				"sayIDo()": "31141",
				"spouse1()": "2637",
				"spouse2()": "2597",
				"spouseSaidIDo(address)": "2921",
				"voteAgainstWedding()": "infinite",
				"votingDeadline()": "2490",
				"weddingDate()": "2606"
			},
			"internal": {
				"InvalidateWedding()": "infinite",
				"isWeddingDay()": "infinite",
				"validAddress(address)": "48"
			}
		},
		"methodIdentifiers": {
			"acceptProposal()": "af3b19e5",
			"againstVotes()": "d6b225be",
			"confirmParticipations()": "391f37cc",
			"confirmedParticipations(address)": "a17cf962",
			"currentState()": "0c3f6acf",
			"getDateFromTimestamp(uint32)": "0461c19b",
			"guestVotes(address)": "181b3fdb",
			"marriageRegistery()": "f1288c1d",
			"marriegeLicense()": "91c37fc1",
			"marry()": "85b9a11f",
			"participations(uint256)": "2a6247e5",
			"propose(address,uint32)": "49705bbb",
			"proposeParticipations(address[])": "4f867559",
			"revokeEngagement()": "6d955eb5",
			"sayIDo()": "be04c2d0",
			"spouse1()": "fb6a90f8",
			"spouse2()": "53605f48",
			"spouseSaidIDo(address)": "df5d5f37",
			"voteAgainstWedding()": "88f2370d",
			"votingDeadline()": "036ee850",
			"weddingDate()": "91f8bb6c"
		}
	},
	"abi": [
		{
			"inputs": [],
			"stateMutability": "nonpayable",
			"type": "constructor"
		},
		{
			"anonymous": false,
			"inputs": [
				{
					"indexed": true,
					"internalType": "address",
					"name": "spouse1",
					"type": "address"
				},
				{
					"indexed": true,
					"internalType": "address",
					"name": "spouse2",
					"type": "address"
				}
			],
			"name": "Engaged",
			"type": "event"
		},
		{
			"anonymous": false,
			"inputs": [
				{
					"indexed": true,
					"internalType": "address",
					"name": "spouse1",
					"type": "address"
				},
				{
					"indexed": true,
					"internalType": "address",
					"name": "spouse2",
					"type": "address"
				}
			],
			"name": "EngagementRevoked",
			"type": "event"
		},
		{
			"anonymous": false,
			"inputs": [
				{
					"indexed": true,
					"internalType": "address",
					"name": "spouse1",
					"type": "address"
				},
				{
					"indexed": true,
					"internalType": "address",
					"name": "spouse2",
					"type": "address"
				}
			],
			"name": "Married",
			"type": "event"
		},
		{
			"anonymous": false,
			"inputs": [
				{
					"indexed": false,
					"internalType": "address[]",
					"name": "participants",
					"type": "address[]"
				}
			],
			"name": "ParticipationsInvited",
			"type": "event"
		},
		{
			"anonymous": false,
			"inputs": [
				{
					"indexed": false,
					"internalType": "address[]",
					"name": "participants",
					"type": "address[]"
				}
			],
			"name": "ParticipationsProposed",
			"type": "event"
		},
		{
			"anonymous": false,
			"inputs": [
				{
					"indexed": true,
					"internalType": "uint256",
					"name": "engagementId",
					"type": "uint256"
				},
				{
					"indexed": true,
					"internalType": "address",
					"name": "spouse1",
					"type": "address"
				},
				{
					"indexed": true,
					"internalType": "address",
					"name": "spouse2",
					"type": "address"
				},
				{
					"indexed": false,
					"internalType": "string",
					"name": "ipfsHash",
					"type": "string"
				}
			],
			"name": "WeddingCertificateIssued",
			"type": "event"
		},
		{
			"anonymous": false,
			"inputs": [
				{
					"indexed": true,
					"internalType": "address",
					"name": "spouse1",
					"type": "address"
				},
				{
					"indexed": true,
					"internalType": "address",
					"name": "spouse2",
					"type": "address"
				}
			],
			"name": "WeddingCompleted",
			"type": "event"
		},
		{
			"anonymous": false,
			"inputs": [
				{
					"indexed": true,
					"internalType": "address",
					"name": "spouse1",
					"type": "address"
				},
				{
					"indexed": true,
					"internalType": "address",
					"name": "spouse2",
					"type": "address"
				}
			],
			"name": "WeddingInvalid",
			"type": "event"
		},
		{
			"anonymous": false,
			"inputs": [
				{
					"indexed": true,
					"internalType": "address",
					"name": "spouse1",
					"type": "address"
				},
				{
					"indexed": true,
					"internalType": "address",
					"name": "spouse2",
					"type": "address"
				}
			],
			"name": "proposalInitiated",
			"type": "event"
		},
		{
			"inputs": [],
			"name": "acceptProposal",
			"outputs": [],
			"stateMutability": "nonpayable",
			"type": "function"
		},
		{
			"inputs": [],
			"name": "againstVotes",
			"outputs": [
				{
					"internalType": "uint16",
					"name": "",
					"type": "uint16"
				}
			],
			"stateMutability": "view",
			"type": "function"
		},
		{
			"inputs": [],
			"name": "confirmParticipations",
			"outputs": [],
			"stateMutability": "nonpayable",
			"type": "function"
		},
		{
			"inputs": [
				{
					"internalType": "address",
					"name": "",
					"type": "address"
				}
			],
			"name": "confirmedParticipations",
			"outputs": [
				{
					"internalType": "bool",
					"name": "",
					"type": "bool"
				}
			],
			"stateMutability": "view",
			"type": "function"
		},
		{
			"inputs": [],
			"name": "currentState",
			"outputs": [
				{
					"internalType": "enum MarriageContract.State",
					"name": "",
					"type": "uint8"
				}
			],
			"stateMutability": "view",
			"type": "function"
		},
		{
			"inputs": [
				{
					"internalType": "uint32",
					"name": "timestamp",
					"type": "uint32"
				}
			],
			"name": "getDateFromTimestamp",
			"outputs": [
				{
					"internalType": "uint32",
					"name": "",
					"type": "uint32"
				}
			],
			"stateMutability": "pure",
			"type": "function"
		},
		{
			"inputs": [
				{
					"internalType": "address",
					"name": "",
					"type": "address"
				}
			],
			"name": "guestVotes",
			"outputs": [
				{
					"internalType": "bool",
					"name": "hasVoted",
					"type": "bool"
				},
				{
					"internalType": "bool",
					"name": "voteAgainst",
					"type": "bool"
				}
			],
			"stateMutability": "view",
			"type": "function"
		},
		{
			"inputs": [],
			"name": "marriageRegistery",
			"outputs": [
				{
					"internalType": "contract MarriageRegistry",
					"name": "",
					"type": "address"
				}
			],
			"stateMutability": "view",
			"type": "function"
		},
		{
			"inputs": [],
			"name": "marriegeLicense",
			"outputs": [
				{
					"internalType": "contract MarriageLicense",
					"name": "",
					"type": "address"
				}
			],
			"stateMutability": "view",
			"type": "function"
		},
		{
			"inputs": [],
			"name": "marry",
			"outputs": [],
			"stateMutability": "nonpayable",
			"type": "function"
		},
		{
			"inputs": [
				{
					"internalType": "uint256",
					"name": "",
					"type": "uint256"
				}
			],
			"name": "participations",
			"outputs": [
				{
					"internalType": "address",
					"name": "",
					"type": "address"
				}
			],
			"stateMutability": "view",
			"type": "function"
		},
		{
			"inputs": [
				{
					"internalType": "address",
					"name": "_spouse2",
					"type": "address"
				},
				{
					"internalType": "uint32",
					"name": "_weddingDate",
					"type": "uint32"
				}
			],
			"name": "propose",
			"outputs": [],
			"stateMutability": "nonpayable",
			"type": "function"
		},
		{
			"inputs": [
				{
					"internalType": "address[]",
					"name": "_guests",
					"type": "address[]"
				}
			],
			"name": "proposeParticipations",
			"outputs": [],
			"stateMutability": "nonpayable",
			"type": "function"
		},
		{
			"inputs": [],
			"name": "revokeEngagement",
			"outputs": [],
			"stateMutability": "nonpayable",
			"type": "function"
		},
		{
			"inputs": [],
			"name": "sayIDo",
			"outputs": [],
			"stateMutability": "nonpayable",
			"type": "function"
		},
		{
			"inputs": [],
			"name": "spouse1",
			"outputs": [
				{
					"internalType": "address",
					"name": "",
					"type": "address"
				}
			],
			"stateMutability": "view",
			"type": "function"
		},
		{
			"inputs": [],
			"name": "spouse2",
			"outputs": [
				{
					"internalType": "address",
					"name": "",
					"type": "address"
				}
			],
			"stateMutability": "view",
			"type": "function"
		},
		{
			"inputs": [
				{
					"internalType": "address",
					"name": "",
					"type": "address"
				}
			],
			"name": "spouseSaidIDo",
			"outputs": [
				{
					"internalType": "bool",
					"name": "",
					"type": "bool"
				}
			],
			"stateMutability": "view",
			"type": "function"
		},
		{
			"inputs": [],
			"name": "voteAgainstWedding",
			"outputs": [],
			"stateMutability": "nonpayable",
			"type": "function"
		},
		{
			"inputs": [],
			"name": "votingDeadline",
			"outputs": [
				{
					"internalType": "uint16",
					"name": "",
					"type": "uint16"
				}
			],
			"stateMutability": "view",
			"type": "function"
		},
		{
			"inputs": [],
			"name": "weddingDate",
			"outputs": [
				{
					"internalType": "uint32",
					"name": "",
					"type": "uint32"
				}
			],
			"stateMutability": "view",
			"type": "function"
		}
	]
}