{
	"data": {
		"bytecode": {
			"linkReferences": {},
			"object": "608060405234801562000010575f80fd5b50335f806101000a81548173ffffffffffffffffffffffffffffffffffffffff021916908373ffffffffffffffffffffffffffffffffffffffff1602179055505f60025f3373ffffffffffffffffffffffffffffffffffffffff1673ffffffffffffffffffffffffffffffffffffffff1681526020019081526020015f205f6101000a81548160ff0219169083151502179055505f600560146101000a81548160ff02191690836004811115620000cc57620000cb620000d7565b5b021790555062000104565b7f4e487b71000000000000000000000000000000000000000000000000000000005f52602160045260245ffd5b613a8480620001125f395ff3fe608060405234801561000f575f80fd5b506004361061014b575f3560e01c80636d955eb5116100c1578063a17cf9621161007a578063a17cf96214610340578063af3b19e514610370578063be04c2d01461037a578063d6b225be14610384578063df5d5f37146103a2578063fb6a90f8146103d25761014b565b80636d955eb5146102ca578063804cf062146102d457806385b9a11f146102f057806388f2370d146102fa57806391c37fc11461030457806391f8bb6c146103225761014b565b80632a6247e5116101135780632a6247e51461021c578063391f37cc1461024c57806349705bbb146102565780634f8675591461027257806353605f481461028e578063595e8651146102ac5761014b565b8063036ee8501461014f5780630461c19b1461016d5780630757eda61461019d5780630c3f6acf146101cd578063181b3fdb146101eb575b5f80fd5b6101576103f0565b6040516101649190612580565b60405180910390f35b610187600480360381019061018291906125e3565b610403565b604051610194919061261d565b60405180910390f35b6101b760048036038101906101b29190612690565b61042f565b6040516101c491906126d5565b60405180910390f35b6101d561044c565b6040516101e29190612761565b60405180910390f35b61020560048036038101906102009190612690565b61045f565b60405161021392919061277a565b60405180910390f35b610236600480360381019061023191906127d4565b610497565b604051610243919061280e565b60405180910390f35b6102546104d2565b005b610270600480360381019061026b9190612827565b61078c565b005b61028c600480360381019061028791906129b5565b610abe565b005b610296610e71565b6040516102a3919061280e565b60405180910390f35b6102b4610e96565b6040516102c19190612a57565b60405180910390f35b6102d2610ebb565b005b6102ee60048036038101906102e991906125e3565b6110dc565b005b6102f86113aa565b005b6103026116e7565b005b61030c611b38565b6040516103199190612a90565b60405180910390f35b61032a611b5d565b604051610337919061261d565b60405180910390f35b61035a60048036038101906103559190612690565b611b73565b60405161036791906126d5565b60405180910390f35b610378611b90565b005b610382611f61565b005b61038c612159565b6040516103999190612580565b60405180910390f35b6103bc60048036038101906103b79190612690565b61216c565b6040516103c991906126d5565b60405180910390f35b6103da612189565b6040516103e7919061280e565b60405180910390f35b60085f9054906101000a900461ffff1681565b5f806201518090505f8182856104199190612b03565b6104239190612b33565b90508092505050919050565b6002602052805f5260405f205f915054906101000a900460ff1681565b600560149054906101000a900460ff1681565b6009602052805f5260405f205f91509050805f015f9054906101000a900460ff1690805f0160019054906101000a900460ff16905082565b600681815481106104a6575f80fd5b905f5260205f20015f915054906101000a900473ffffffffffffffffffffffffffffffffffffffff1681565b5f8054906101000a900473ffffffffffffffffffffffffffffffffffffffff1673ffffffffffffffffffffffffffffffffffffffff163373ffffffffffffffffffffffffffffffffffffffff161480610577575060015f9054906101000a900473ffffffffffffffffffffffffffffffffffffffff1673ffffffffffffffffffffffffffffffffffffffff163373ffffffffffffffffffffffffffffffffffffffff16145b6105b6576040517f08c379a00000000000000000000000000000000000000000000000000000000081526004016105ad90612bef565b60405180910390fd5b600160048111156105ca576105c96126ee565b5b600560149054906101000a900460ff1660048111156105ec576105eb6126ee565b5b1461062c576040517f08c379a000000000000000000000000000000000000000000000000000000000815260040161062390612c57565b60405180910390fd5b60075f3373ffffffffffffffffffffffffffffffffffffffff1673ffffffffffffffffffffffffffffffffffffffff1681526020019081526020015f205f9054906101000a900460ff16156106b6576040517f08c379a00000000000000000000000000000000000000000000000000000000081526004016106ad90612cbf565b60405180910390fd5b5f600680549050116106fd576040517f08c379a00000000000000000000000000000000000000000000000000000000081526004016106f490612d27565b60405180910390fd5b600160075f3373ffffffffffffffffffffffffffffffffffffffff1673ffffffffffffffffffffffffffffffffffffffff1681526020019081526020015f205f6101000a81548160ff0219169083151502179055507f33b84f319a927039abe58f2ec6b683ba73c74a309bc9288c3e37562b9727126e60066040516107829190612e5b565b60405180910390a1565b8173ffffffffffffffffffffffffffffffffffffffff163373ffffffffffffffffffffffffffffffffffffffff16036107fa576040517f08c379a00000000000000000000000000000000000000000000000000000000081526004016107f190612ec5565b60405180910390fd5b610803826121ac565b610842576040517f08c379a000000000000000000000000000000000000000000000000000000000815260040161083990612f2d565b60405180910390fd5b600a4261084f9190612f4b565b8163ffffffff1611610896576040517f08c379a000000000000000000000000000000000000000000000000000000000815260040161088d90612fee565b60405180910390fd5b80600160146101000a81548163ffffffff021916908363ffffffff160217905550335f806101000a81548173ffffffffffffffffffffffffffffffffffffffff021916908373ffffffffffffffffffffffffffffffffffffffff1602179055508160015f6101000a81548173ffffffffffffffffffffffffffffffffffffffff021916908373ffffffffffffffffffffffffffffffffffffffff160217905550600160025f805f9054906101000a900473ffffffffffffffffffffffffffffffffffffffff1673ffffffffffffffffffffffffffffffffffffffff1673ffffffffffffffffffffffffffffffffffffffff1681526020019081526020015f205f6101000a81548160ff0219169083151502179055505f60025f60015f9054906101000a900473ffffffffffffffffffffffffffffffffffffffff1673ffffffffffffffffffffffffffffffffffffffff1673ffffffffffffffffffffffffffffffffffffffff1681526020019081526020015f205f6101000a81548160ff02191690831515021790555060015f9054906101000a900473ffffffffffffffffffffffffffffffffffffffff1673ffffffffffffffffffffffffffffffffffffffff165f8054906101000a900473ffffffffffffffffffffffffffffffffffffffff1673ffffffffffffffffffffffffffffffffffffffff167fb9667c497613d36d751e12ac344149b1a6ab6a60acccdc58e623735e937faf2c60405160405180910390a35050565b5f8054906101000a900473ffffffffffffffffffffffffffffffffffffffff1673ffffffffffffffffffffffffffffffffffffffff163373ffffffffffffffffffffffffffffffffffffffff161480610b63575060015f9054906101000a900473ffffffffffffffffffffffffffffffffffffffff1673ffffffffffffffffffffffffffffffffffffffff163373ffffffffffffffffffffffffffffffffffffffff16145b610ba2576040517f08c379a0000000000000000000000000000000000000000000000000000000008152600401610b9990612bef565b60405180910390fd5b60016004811115610bb657610bb56126ee565b5b600560149054906101000a900460ff166004811115610bd857610bd76126ee565b5b14610c18576040517f08c379a0000000000000000000000000000000000000000000000000000000008152600401610c0f90612c57565b60405180910390fd5b6001151560075f805f9054906101000a900473ffffffffffffffffffffffffffffffffffffffff1673ffffffffffffffffffffffffffffffffffffffff1673ffffffffffffffffffffffffffffffffffffffff1681526020019081526020015f205f9054906101000a900460ff16151514158015610d0557506001151560075f60015f9054906101000a900473ffffffffffffffffffffffffffffffffffffffff1673ffffffffffffffffffffffffffffffffffffffff1673ffffffffffffffffffffffffffffffffffffffff1681526020019081526020015f205f9054906101000a900460ff16151514155b610d44576040517f08c379a0000000000000000000000000000000000000000000000000000000008152600401610d3b9061307c565b60405180910390fd5b5f5b81518160ff161015610dca57610d78828260ff1681518110610d6b57610d6a61309a565b5b60200260200101516121ac565b610db7576040517f08c379a0000000000000000000000000000000000000000000000000000000008152600401610dae90613111565b60405180910390fd5b8080610dc29061313b565b915050610d46565b508060069080519060200190610de19291906124c2565b50600160075f3373ffffffffffffffffffffffffffffffffffffffff1673ffffffffffffffffffffffffffffffffffffffff1681526020019081526020015f205f6101000a81548160ff0219169083151502179055507f2380a2acf6c01a4e0f0091094fb2420ce1a1a2d5fe40975245cf97eb76dfda6381604051610e6691906131e4565b60405180910390a150565b60015f9054906101000a900473ffffffffffffffffffffffffffffffffffffffff1681565b60045f9054906101000a900473ffffffffffffffffffffffffffffffffffffffff1681565b5f8054906101000a900473ffffffffffffffffffffffffffffffffffffffff1673ffffffffffffffffffffffffffffffffffffffff163373ffffffffffffffffffffffffffffffffffffffff161480610f60575060015f9054906101000a900473ffffffffffffffffffffffffffffffffffffffff1673ffffffffffffffffffffffffffffffffffffffff163373ffffffffffffffffffffffffffffffffffffffff16145b610f9f576040517f08c379a0000000000000000000000000000000000000000000000000000000008152600401610f9690612bef565b60405180910390fd5b60016004811115610fb357610fb26126ee565b5b600560149054906101000a900460ff166004811115610fd557610fd46126ee565b5b14611015576040517f08c379a000000000000000000000000000000000000000000000000000000000815260040161100c90613274565b60405180910390fd5b6002600560146101000a81548160ff0219169083600481111561103b5761103a6126ee565b5b021790555060015f9054906101000a900473ffffffffffffffffffffffffffffffffffffffff1673ffffffffffffffffffffffffffffffffffffffff165f8054906101000a900473ffffffffffffffffffffffffffffffffffffffff1673ffffffffffffffffffffffffffffffffffffffff167f5c194a9036770a0cd11eaa73e90e3025e63cccc66eae51902f3f0aeea62df5a960405160405180910390a3565b6001801461111f576040517f08c379a0000000000000000000000000000000000000000000000000000000008152600401611116906132dc565b60405180910390fd5b60015f9054906101000a900473ffffffffffffffffffffffffffffffffffffffff1673ffffffffffffffffffffffffffffffffffffffff163373ffffffffffffffffffffffffffffffffffffffff16146111ae576040517f08c379a00000000000000000000000000000000000000000000000000000000081526004016111a59061336a565b60405180910390fd5b600a426111bb9190612f4b565b8163ffffffff1611611202576040517f08c379a00000000000000000000000000000000000000000000000000000000081526004016111f990612fee565b60405180910390fd5b80600160146101000a81548163ffffffff021916908363ffffffff1602179055505f60025f805f9054906101000a900473ffffffffffffffffffffffffffffffffffffffff1673ffffffffffffffffffffffffffffffffffffffff1673ffffffffffffffffffffffffffffffffffffffff1681526020019081526020015f205f6101000a81548160ff021916908315150217905550600160025f60015f9054906101000a900473ffffffffffffffffffffffffffffffffffffffff1673ffffffffffffffffffffffffffffffffffffffff1673ffffffffffffffffffffffffffffffffffffffff1681526020019081526020015f205f6101000a81548160ff02191690831515021790555060015f9054906101000a900473ffffffffffffffffffffffffffffffffffffffff1673ffffffffffffffffffffffffffffffffffffffff165f8054906101000a900473ffffffffffffffffffffffffffffffffffffffff1673ffffffffffffffffffffffffffffffffffffffff167fb9667c497613d36d751e12ac344149b1a6ab6a60acccdc58e623735e937faf2c60405160405180910390a350565b5f8054906101000a900473ffffffffffffffffffffffffffffffffffffffff1673ffffffffffffffffffffffffffffffffffffffff163373ffffffffffffffffffffffffffffffffffffffff16148061144f575060015f9054906101000a900473ffffffffffffffffffffffffffffffffffffffff1673ffffffffffffffffffffffffffffffffffffffff163373ffffffffffffffffffffffffffffffffffffffff16145b61148e576040517f08c379a000000000000000000000000000000000000000000000000000000000815260040161148590612bef565b60405180910390fd5b600160048111156114a2576114a16126ee565b5b600560149054906101000a900460ff1660048111156114c4576114c36126ee565b5b14611504576040517f08c379a00000000000000000000000000000000000000000000000000000000081526004016114fb906133f8565b60405180910390fd5b60035f805f9054906101000a900473ffffffffffffffffffffffffffffffffffffffff1673ffffffffffffffffffffffffffffffffffffffff1673ffffffffffffffffffffffffffffffffffffffff1681526020019081526020015f205f9054906101000a900460ff1680156115e1575060035f60015f9054906101000a900473ffffffffffffffffffffffffffffffffffffffff1673ffffffffffffffffffffffffffffffffffffffff1673ffffffffffffffffffffffffffffffffffffffff1681526020019081526020015f205f9054906101000a900460ff165b611620576040517f08c379a000000000000000000000000000000000000000000000000000000000815260040161161790613486565b60405180910390fd5b6003600560146101000a81548160ff02191690836004811115611646576116456126ee565b5b021790555060015f9054906101000a900473ffffffffffffffffffffffffffffffffffffffff1673ffffffffffffffffffffffffffffffffffffffff165f8054906101000a900473ffffffffffffffffffffffffffffffffffffffff1673ffffffffffffffffffffffffffffffffffffffff167fc89ef770a4ad395ebdc22b63de541b88daf19f335056f203fa06e4154b62bb7b60405160405180910390a3565b5f805b6006805490508161ffff161015611789573373ffffffffffffffffffffffffffffffffffffffff1660068261ffff168154811061172a5761172961309a565b5b905f5260205f20015f9054906101000a900473ffffffffffffffffffffffffffffffffffffffff1673ffffffffffffffffffffffffffffffffffffffff16036117765760019150611789565b8080611781906134a4565b9150506116ea565b50806117ca576040517f08c379a00000000000000000000000000000000000000000000000000000000081526004016117c19061353d565b60405180910390fd5b60075f805f9054906101000a900473ffffffffffffffffffffffffffffffffffffffff1673ffffffffffffffffffffffffffffffffffffffff1673ffffffffffffffffffffffffffffffffffffffff1681526020019081526020015f205f9054906101000a900460ff1680156118a7575060075f60015f9054906101000a900473ffffffffffffffffffffffffffffffffffffffff1673ffffffffffffffffffffffffffffffffffffffff1673ffffffffffffffffffffffffffffffffffffffff1681526020019081526020015f205f9054906101000a900460ff165b6118e6576040517f08c379a00000000000000000000000000000000000000000000000000000000081526004016118dd906135cb565b60405180910390fd5b60095f3373ffffffffffffffffffffffffffffffffffffffff1673ffffffffffffffffffffffffffffffffffffffff1681526020019081526020015f205f015f9054906101000a900460ff1615611972576040517f08c379a000000000000000000000000000000000000000000000000000000000815260040161196990613633565b60405180910390fd5b60036004811115611986576119856126ee565b5b600560149054906101000a900460ff1660048111156119a8576119a76126ee565b5b146119e8576040517f08c379a00000000000000000000000000000000000000000000000000000000081526004016119df906136c1565b60405180910390fd5b6119f06121e4565b611a2f576040517f08c379a0000000000000000000000000000000000000000000000000000000008152600401611a269061374f565b60405180910390fd5b60405180604001604052806001151581526020016001151581525060095f3373ffffffffffffffffffffffffffffffffffffffff1673ffffffffffffffffffffffffffffffffffffffff1681526020019081526020015f205f820151815f015f6101000a81548160ff0219169083151502179055506020820151815f0160016101000a81548160ff021916908315150217905550905050600a5f81819054906101000a900461ffff1680929190611ae5906134a4565b91906101000a81548161ffff021916908361ffff160217905550506002600680549050611b12919061376d565b600a5f9054906101000a900461ffff1661ffff161115611b3557611b34612237565b5b50565b60055f9054906101000a900473ffffffffffffffffffffffffffffffffffffffff1681565b600160149054906101000a900463ffffffff1681565b6007602052805f5260405f205f915054906101000a900460ff1681565b60018014611bd3576040517f08c379a0000000000000000000000000000000000000000000000000000000008152600401611bca906132dc565b60405180910390fd5b60025f805f9054906101000a900473ffffffffffffffffffffffffffffffffffffffff1673ffffffffffffffffffffffffffffffffffffffff1673ffffffffffffffffffffffffffffffffffffffff1681526020019081526020015f205f9054906101000a900460ff1615611d9b5760015f9054906101000a900473ffffffffffffffffffffffffffffffffffffffff1673ffffffffffffffffffffffffffffffffffffffff163373ffffffffffffffffffffffffffffffffffffffff1614611cd1576040517f08c379a0000000000000000000000000000000000000000000000000000000008152600401611cc89061380d565b60405180910390fd5b60015f9054906101000a900473ffffffffffffffffffffffffffffffffffffffff1673ffffffffffffffffffffffffffffffffffffffff165f8054906101000a900473ffffffffffffffffffffffffffffffffffffffff1673ffffffffffffffffffffffffffffffffffffffff167f0655a45d06bbb71039d6dc070f5dbb8143a5c0bce1efcea7dec3b66237d9edd560405160405180910390a36001600560146101000a81548160ff02191690836004811115611d9157611d906126ee565b5b0217905550611f5f565b60025f60015f9054906101000a900473ffffffffffffffffffffffffffffffffffffffff1673ffffffffffffffffffffffffffffffffffffffff1673ffffffffffffffffffffffffffffffffffffffff1681526020019081526020015f205f9054906101000a900460ff1615611f5e575f8054906101000a900473ffffffffffffffffffffffffffffffffffffffff1673ffffffffffffffffffffffffffffffffffffffff163373ffffffffffffffffffffffffffffffffffffffff1614611e98576040517f08c379a0000000000000000000000000000000000000000000000000000000008152600401611e8f9061389b565b60405180910390fd5b60015f9054906101000a900473ffffffffffffffffffffffffffffffffffffffff1673ffffffffffffffffffffffffffffffffffffffff165f8054906101000a900473ffffffffffffffffffffffffffffffffffffffff1673ffffffffffffffffffffffffffffffffffffffff167f0655a45d06bbb71039d6dc070f5dbb8143a5c0bce1efcea7dec3b66237d9edd560405160405180910390a36001600560146101000a81548160ff02191690836004811115611f5857611f576126ee565b5b02179055505b5b565b5f8054906101000a900473ffffffffffffffffffffffffffffffffffffffff1673ffffffffffffffffffffffffffffffffffffffff163373ffffffffffffffffffffffffffffffffffffffff161480612006575060015f9054906101000a900473ffffffffffffffffffffffffffffffffffffffff1673ffffffffffffffffffffffffffffffffffffffff163373ffffffffffffffffffffffffffffffffffffffff16145b612045576040517f08c379a000000000000000000000000000000000000000000000000000000000815260040161203c90612bef565b60405180910390fd5b60016004811115612059576120586126ee565b5b600560149054906101000a900460ff16600481111561207b5761207a6126ee565b5b146120bb576040517f08c379a00000000000000000000000000000000000000000000000000000000081526004016120b290613903565b60405180910390fd5b6120c36121e4565b612102576040517f08c379a00000000000000000000000000000000000000000000000000000000081526004016120f990613991565b60405180910390fd5b600160035f3373ffffffffffffffffffffffffffffffffffffffff1673ffffffffffffffffffffffffffffffffffffffff1681526020019081526020015f205f6101000a81548160ff021916908315150217905550565b600a5f9054906101000a900461ffff1681565b6003602052805f5260405f205f915054906101000a900460ff1681565b5f8054906101000a900473ffffffffffffffffffffffffffffffffffffffff1681565b5f8073ffffffffffffffffffffffffffffffffffffffff168273ffffffffffffffffffffffffffffffffffffffff1614159050919050565b5f80612201600160149054906101000a900463ffffffff16610403565b90505f620151808261221391906139af565b90508163ffffffff16421015801561223057508063ffffffff1642105b9250505090565b6002600481111561224b5761224a6126ee565b5b600560149054906101000a900460ff16600481111561226d5761226c6126ee565b5b036122ad576040517f08c379a00000000000000000000000000000000000000000000000000000000081526004016122a490613a30565b60405180910390fd5b6004600560146101000a81548160ff021916908360048111156122d3576122d26126ee565b5b021790555060045f9054906101000a900473ffffffffffffffffffffffffffffffffffffffff1673ffffffffffffffffffffffffffffffffffffffff1663f1a499e25f8054906101000a900473ffffffffffffffffffffffffffffffffffffffff166040518263ffffffff1660e01b8152600401612351919061280e565b5f604051808303815f87803b158015612368575f80fd5b505af115801561237a573d5f803e3d5ffd5b5050505060045f9054906101000a900473ffffffffffffffffffffffffffffffffffffffff1673ffffffffffffffffffffffffffffffffffffffff1663f1a499e260015f9054906101000a900473ffffffffffffffffffffffffffffffffffffffff166040518263ffffffff1660e01b81526004016123f9919061280e565b5f604051808303815f87803b158015612410575f80fd5b505af1158015612422573d5f803e3d5ffd5b5050505060015f9054906101000a900473ffffffffffffffffffffffffffffffffffffffff1673ffffffffffffffffffffffffffffffffffffffff165f8054906101000a900473ffffffffffffffffffffffffffffffffffffffff1673ffffffffffffffffffffffffffffffffffffffff167fef2ff083bcc8a022f43f0f90d8baf5d39dd6139f8be9943a343a61247527790d60405160405180910390a3565b828054828255905f5260205f20908101928215612538579160200282015b82811115612537578251825f6101000a81548173ffffffffffffffffffffffffffffffffffffffff021916908373ffffffffffffffffffffffffffffffffffffffff160217905550916020019190600101906124e0565b5b5090506125459190612549565b5090565b5b80821115612560575f815f90555060010161254a565b5090565b5f61ffff82169050919050565b61257a81612564565b82525050565b5f6020820190506125935f830184612571565b92915050565b5f604051905090565b5f80fd5b5f80fd5b5f63ffffffff82169050919050565b6125c2816125aa565b81146125cc575f80fd5b50565b5f813590506125dd816125b9565b92915050565b5f602082840312156125f8576125f76125a2565b5b5f612605848285016125cf565b91505092915050565b612617816125aa565b82525050565b5f6020820190506126305f83018461260e565b92915050565b5f73ffffffffffffffffffffffffffffffffffffffff82169050919050565b5f61265f82612636565b9050919050565b61266f81612655565b8114612679575f80fd5b50565b5f8135905061268a81612666565b92915050565b5f602082840312156126a5576126a46125a2565b5b5f6126b28482850161267c565b91505092915050565b5f8115159050919050565b6126cf816126bb565b82525050565b5f6020820190506126e85f8301846126c6565b92915050565b7f4e487b71000000000000000000000000000000000000000000000000000000005f52602160045260245ffd5b6005811061272c5761272b6126ee565b5b50565b5f81905061273c8261271b565b919050565b5f61274b8261272f565b9050919050565b61275b81612741565b82525050565b5f6020820190506127745f830184612752565b92915050565b5f60408201905061278d5f8301856126c6565b61279a60208301846126c6565b9392505050565b5f819050919050565b6127b3816127a1565b81146127bd575f80fd5b50565b5f813590506127ce816127aa565b92915050565b5f602082840312156127e9576127e86125a2565b5b5f6127f6848285016127c0565b91505092915050565b61280881612655565b82525050565b5f6020820190506128215f8301846127ff565b92915050565b5f806040838503121561283d5761283c6125a2565b5b5f61284a8582860161267c565b925050602061285b858286016125cf565b9150509250929050565b5f80fd5b5f601f19601f8301169050919050565b7f4e487b71000000000000000000000000000000000000000000000000000000005f52604160045260245ffd5b6128af82612869565b810181811067ffffffffffffffff821117156128ce576128cd612879565b5b80604052505050565b5f6128e0612599565b90506128ec82826128a6565b919050565b5f67ffffffffffffffff82111561290b5761290a612879565b5b602082029050602081019050919050565b5f80fd5b5f61293261292d846128f1565b6128d7565b905080838252602082019050602084028301858111156129555761295461291c565b5b835b8181101561297e578061296a888261267c565b845260208401935050602081019050612957565b5050509392505050565b5f82601f83011261299c5761299b612865565b5b81356129ac848260208601612920565b91505092915050565b5f602082840312156129ca576129c96125a2565b5b5f82013567ffffffffffffffff8111156129e7576129e66125a6565b5b6129f384828501612988565b91505092915050565b5f819050919050565b5f612a1f612a1a612a1584612636565b6129fc565b612636565b9050919050565b5f612a3082612a05565b9050919050565b5f612a4182612a26565b9050919050565b612a5181612a37565b82525050565b5f602082019050612a6a5f830184612a48565b92915050565b5f612a7a82612a26565b9050919050565b612a8a81612a70565b82525050565b5f602082019050612aa35f830184612a81565b92915050565b7f4e487b71000000000000000000000000000000000000000000000000000000005f52601260045260245ffd5b7f4e487b71000000000000000000000000000000000000000000000000000000005f52601160045260245ffd5b5f612b0d826125aa565b9150612b18836125aa565b925082612b2857612b27612aa9565b5b828204905092915050565b5f612b3d826125aa565b9150612b48836125aa565b9250828202612b56816125aa565b9150808214612b6857612b67612ad6565b5b5092915050565b5f82825260208201905092915050565b7f4f6e6c792073706f757365732063616e2063616c6c20746869732066756e63745f8201527f696f6e0000000000000000000000000000000000000000000000000000000000602082015250565b5f612bd9602383612b6f565b9150612be482612b7f565b604082019050919050565b5f6020820190508181035f830152612c0681612bcd565b9050919050565b7f496e76616c696420656e676167656d656e7420737461747573000000000000005f82015250565b5f612c41601983612b6f565b9150612c4c82612c0d565b602082019050919050565b5f6020820190508181035f830152612c6e81612c35565b9050919050565b7f4775657374206c69737420616c726561647920636f6e6669726d6564000000005f82015250565b5f612ca9601c83612b6f565b9150612cb482612c75565b602082019050919050565b5f6020820190508181035f830152612cd681612c9d565b9050919050565b7f4e6f207061727469636970616e74732070726f706f73656400000000000000005f82015250565b5f612d11601883612b6f565b9150612d1c82612cdd565b602082019050919050565b5f6020820190508181035f830152612d3e81612d05565b9050919050565b5f81549050919050565b5f82825260208201905092915050565b5f819050815f5260205f209050919050565b612d7a81612655565b82525050565b5f612d8b8383612d71565b60208301905092915050565b5f815f1c9050919050565b5f73ffffffffffffffffffffffffffffffffffffffff82169050919050565b5f612dd3612dce83612d97565b612da2565b9050919050565b5f612de58254612dc1565b9050919050565b5f600182019050919050565b5f612e0282612d45565b612e0c8185612d4f565b9350612e1783612d5f565b805f5b83811015612e4e57612e2b82612dda565b612e358882612d80565b9750612e4083612dec565b925050600181019050612e1a565b5085935050505092915050565b5f6020820190508181035f830152612e738184612df8565b905092915050565b7f43616e6e6f74206d6172727920796f757273656c6600000000000000000000005f82015250565b5f612eaf601583612b6f565b9150612eba82612e7b565b602082019050919050565b5f6020820190508181035f830152612edc81612ea3565b9050919050565b7f496e76616c6964206164647265737300000000000000000000000000000000005f82015250565b5f612f17600f83612b6f565b9150612f2282612ee3565b602082019050919050565b5f6020820190508181035f830152612f4481612f0b565b9050919050565b5f612f55826127a1565b9150612f60836127a1565b9250828201905080821115612f7857612f77612ad6565b5b92915050565b7f43616e6e6f74207365742064617465206f662077656464696e6720746f2062655f8201527f206c657373207468616e203130207365636f6e647320696e20616476616e6365602082015250565b5f612fd8604083612b6f565b9150612fe382612f7e565b604082019050919050565b5f6020820190508181035f83015261300581612fcc565b9050919050565b7f53706f7573657320616c726561647920616772656564206f6e207061727469635f8201527f69706174696f6e206c6973740000000000000000000000000000000000000000602082015250565b5f613066602c83612b6f565b91506130718261300c565b604082019050919050565b5f6020820190508181035f8301526130938161305a565b9050919050565b7f4e487b71000000000000000000000000000000000000000000000000000000005f52603260045260245ffd5b7f43616e6e6f7420696e7669746520616e20696e76616c696420616464726573735f82015250565b5f6130fb602083612b6f565b9150613106826130c7565b602082019050919050565b5f6020820190508181035f830152613128816130ef565b9050919050565b5f60ff82169050919050565b5f6131458261312f565b915060ff820361315857613157612ad6565b5b600182019050919050565b5f81519050919050565b5f819050602082019050919050565b5f602082019050919050565b5f61319282613163565b61319c8185612d4f565b93506131a78361316d565b805f5b838110156131d75781516131be8882612d80565b97506131c98361317c565b9250506001810190506131aa565b5085935050505092915050565b5f6020820190508181035f8301526131fc8184613188565b905092915050565b7f596f752063616e2774207265766f6b6520616e20756e61637469766520656e675f8201527f6167656d656e7400000000000000000000000000000000000000000000000000602082015250565b5f61325e602783612b6f565b915061326982613204565b604082019050919050565b5f6020820190508181035f83015261328b81613252565b9050919050565b7f79617900000000000000000000000000000000000000000000000000000000005f82015250565b5f6132c6600383612b6f565b91506132d182613292565b602082019050919050565b5f6020820190508181035f8301526132f3816132ba565b9050919050565b7f536f6d656f6e65206f74686572207468616e2073706f757365322063616e6e6f5f8201527f742070726f706f73652061206e65772077656464696e67206461746500000000602082015250565b5f613354603c83612b6f565b915061335f826132fa565b604082019050919050565b5f6020820190508181035f83015261338181613348565b9050919050565b7f426f74682073706f75736573206d75737420626520656e676167656420746f205f8201527f6d61727279000000000000000000000000000000000000000000000000000000602082015250565b5f6133e2602583612b6f565b91506133ed82613388565b604082019050919050565b5f6020820190508181035f83015261340f816133d6565b9050919050565b7f426f74682073706f75736573206d75737420736179204920646f20746f2067655f8201527f74206d6172726965640000000000000000000000000000000000000000000000602082015250565b5f613470602983612b6f565b915061347b82613416565b604082019050919050565b5f6020820190508181035f83015261349d81613464565b9050919050565b5f6134ae82612564565b915061ffff82036134c2576134c1612ad6565b5b600182019050919050565b7f596f7520617265206e6f742061206775657374206174207468697320776564645f8201527f696e670000000000000000000000000000000000000000000000000000000000602082015250565b5f613527602383612b6f565b9150613532826134cd565b604082019050919050565b5f6020820190508181035f8301526135548161351b565b9050919050565b7f596f752068617665206e6f74206265656e20696e766974656420627920626f745f8201527f682073706f757365730000000000000000000000000000000000000000000000602082015250565b5f6135b5602983612b6f565b91506135c08261355b565b604082019050919050565b5f6020820190508181035f8301526135e2816135a9565b9050919050565b7f47756573742068617320616c726561647920766f7465640000000000000000005f82015250565b5f61361d601783612b6f565b9150613628826135e9565b602082019050919050565b5f6020820190508181035f83015261364a81613611565b9050919050565b7f43616e27742073746f702061206d61727269616765207468617420646f6573205f8201527f6e6f742065786973740000000000000000000000000000000000000000000000602082015250565b5f6136ab602983612b6f565b91506136b682613651565b604082019050919050565b5f6020820190508181035f8301526136d88161369f565b9050919050565b7f537065616b206f6e207468652077656464696e6720646179206f7220666f72655f8201527f76657220686f6c6420796f757220706561636500000000000000000000000000602082015250565b5f613739603383612b6f565b9150613744826136df565b604082019050919050565b5f6020820190508181035f8301526137668161372d565b9050919050565b5f613777826127a1565b9150613782836127a1565b92508261379257613791612aa9565b5b828204905092915050565b7f4f6e6c792073706f757365322063616e206163636570742073706f75736531275f8201527f732070726f706f73616c00000000000000000000000000000000000000000000602082015250565b5f6137f7602a83612b6f565b91506138028261379d565b604082019050919050565b5f6020820190508181035f830152613824816137eb565b9050919050565b7f4f6e6c792073706f757365312063616e206163636570742073706f75736532275f8201527f732070726f706f73616c00000000000000000000000000000000000000000000602082015250565b5f613885602a83612b6f565b91506138908261382b565b604082019050919050565b5f6020820190508181035f8301526138b281613879565b9050919050565b7f596f75206d75737420626520656e676167656420746f20736179204920646f005f82015250565b5f6138ed601f83612b6f565b91506138f8826138b9565b602082019050919050565b5f6020820190508181035f83015261391a816138e1565b9050919050565b7f43616e6e6f7420736179204920646f206265666f7265207468652077656464695f8201527f6e67206461790000000000000000000000000000000000000000000000000000602082015250565b5f61397b602683612b6f565b915061398682613921565b604082019050919050565b5f6020820190508181035f8301526139a88161396f565b9050919050565b5f6139b9826125aa565b91506139c4836125aa565b9250828201905063ffffffff8111156139e0576139df612ad6565b5b92915050565b7f696e76616c6964207374617465207472616e736974696f6e00000000000000005f82015250565b5f613a1a601883612b6f565b9150613a25826139e6565b602082019050919050565b5f6020820190508181035f830152613a4781613a0e565b905091905056fea264697066735822122049dbe11a4e7aee9b2bab188f5311b266c0549f3d343d9040686693b5fd4417e064736f6c63430008140033",
			"opcodes": "PUSH1 0x80 PUSH1 0x40 MSTORE CALLVALUE DUP1 ISZERO PUSH3 0x10 JUMPI PUSH0 DUP1 REVERT JUMPDEST POP CALLER PUSH0 DUP1 PUSH2 0x100 EXP DUP2 SLOAD DUP2 PUSH20 0xFFFFFFFFFFFFFFFFFFFFFFFFFFFFFFFFFFFFFFFF MUL NOT AND SWAP1 DUP4 PUSH20 0xFFFFFFFFFFFFFFFFFFFFFFFFFFFFFFFFFFFFFFFF AND MUL OR SWAP1 SSTORE POP PUSH0 PUSH1 0x2 PUSH0 CALLER PUSH20 0xFFFFFFFFFFFFFFFFFFFFFFFFFFFFFFFFFFFFFFFF AND PUSH20 0xFFFFFFFFFFFFFFFFFFFFFFFFFFFFFFFFFFFFFFFF AND DUP2 MSTORE PUSH1 0x20 ADD SWAP1 DUP2 MSTORE PUSH1 0x20 ADD PUSH0 KECCAK256 PUSH0 PUSH2 0x100 EXP DUP2 SLOAD DUP2 PUSH1 0xFF MUL NOT AND SWAP1 DUP4 ISZERO ISZERO MUL OR SWAP1 SSTORE POP PUSH0 PUSH1 0x5 PUSH1 0x14 PUSH2 0x100 EXP DUP2 SLOAD DUP2 PUSH1 0xFF MUL NOT AND SWAP1 DUP4 PUSH1 0x4 DUP2 GT ISZERO PUSH3 0xCC JUMPI PUSH3 0xCB PUSH3 0xD7 JUMP JUMPDEST JUMPDEST MUL OR SWAP1 SSTORE POP PUSH3 0x104 JUMP JUMPDEST PUSH32 0x4E487B7100000000000000000000000000000000000000000000000000000000 PUSH0 MSTORE PUSH1 0x21 PUSH1 0x4 MSTORE PUSH1 0x24 PUSH0 REVERT JUMPDEST PUSH2 0x3A84 DUP1 PUSH3 0x112 PUSH0 CODECOPY PUSH0 RETURN INVALID PUSH1 0x80 PUSH1 0x40 MSTORE CALLVALUE DUP1 ISZERO PUSH2 0xF JUMPI PUSH0 DUP1 REVERT JUMPDEST POP PUSH1 0x4 CALLDATASIZE LT PUSH2 0x14B JUMPI PUSH0 CALLDATALOAD PUSH1 0xE0 SHR DUP1 PUSH4 0x6D955EB5 GT PUSH2 0xC1 JUMPI DUP1 PUSH4 0xA17CF962 GT PUSH2 0x7A JUMPI DUP1 PUSH4 0xA17CF962 EQ PUSH2 0x340 JUMPI DUP1 PUSH4 0xAF3B19E5 EQ PUSH2 0x370 JUMPI DUP1 PUSH4 0xBE04C2D0 EQ PUSH2 0x37A JUMPI DUP1 PUSH4 0xD6B225BE EQ PUSH2 0x384 JUMPI DUP1 PUSH4 0xDF5D5F37 EQ PUSH2 0x3A2 JUMPI DUP1 PUSH4 0xFB6A90F8 EQ PUSH2 0x3D2 JUMPI PUSH2 0x14B JUMP JUMPDEST DUP1 PUSH4 0x6D955EB5 EQ PUSH2 0x2CA JUMPI DUP1 PUSH4 0x804CF062 EQ PUSH2 0x2D4 JUMPI DUP1 PUSH4 0x85B9A11F EQ PUSH2 0x2F0 JUMPI DUP1 PUSH4 0x88F2370D EQ PUSH2 0x2FA JUMPI DUP1 PUSH4 0x91C37FC1 EQ PUSH2 0x304 JUMPI DUP1 PUSH4 0x91F8BB6C EQ PUSH2 0x322 JUMPI PUSH2 0x14B JUMP JUMPDEST DUP1 PUSH4 0x2A6247E5 GT PUSH2 0x113 JUMPI DUP1 PUSH4 0x2A6247E5 EQ PUSH2 0x21C JUMPI DUP1 PUSH4 0x391F37CC EQ PUSH2 0x24C JUMPI DUP1 PUSH4 0x49705BBB EQ PUSH2 0x256 JUMPI DUP1 PUSH4 0x4F867559 EQ PUSH2 0x272 JUMPI DUP1 PUSH4 0x53605F48 EQ PUSH2 0x28E JUMPI DUP1 PUSH4 0x595E8651 EQ PUSH2 0x2AC JUMPI PUSH2 0x14B JUMP JUMPDEST DUP1 PUSH4 0x36EE850 EQ PUSH2 0x14F JUMPI DUP1 PUSH4 0x461C19B EQ PUSH2 0x16D JUMPI DUP1 PUSH4 0x757EDA6 EQ PUSH2 0x19D JUMPI DUP1 PUSH4 0xC3F6ACF EQ PUSH2 0x1CD JUMPI DUP1 PUSH4 0x181B3FDB EQ PUSH2 0x1EB JUMPI JUMPDEST PUSH0 DUP1 REVERT JUMPDEST PUSH2 0x157 PUSH2 0x3F0 JUMP JUMPDEST PUSH1 0x40 MLOAD PUSH2 0x164 SWAP2 SWAP1 PUSH2 0x2580 JUMP JUMPDEST PUSH1 0x40 MLOAD DUP1 SWAP2 SUB SWAP1 RETURN JUMPDEST PUSH2 0x187 PUSH1 0x4 DUP1 CALLDATASIZE SUB DUP2 ADD SWAP1 PUSH2 0x182 SWAP2 SWAP1 PUSH2 0x25E3 JUMP JUMPDEST PUSH2 0x403 JUMP JUMPDEST PUSH1 0x40 MLOAD PUSH2 0x194 SWAP2 SWAP1 PUSH2 0x261D JUMP JUMPDEST PUSH1 0x40 MLOAD DUP1 SWAP2 SUB SWAP1 RETURN JUMPDEST PUSH2 0x1B7 PUSH1 0x4 DUP1 CALLDATASIZE SUB DUP2 ADD SWAP1 PUSH2 0x1B2 SWAP2 SWAP1 PUSH2 0x2690 JUMP JUMPDEST PUSH2 0x42F JUMP JUMPDEST PUSH1 0x40 MLOAD PUSH2 0x1C4 SWAP2 SWAP1 PUSH2 0x26D5 JUMP JUMPDEST PUSH1 0x40 MLOAD DUP1 SWAP2 SUB SWAP1 RETURN JUMPDEST PUSH2 0x1D5 PUSH2 0x44C JUMP JUMPDEST PUSH1 0x40 MLOAD PUSH2 0x1E2 SWAP2 SWAP1 PUSH2 0x2761 JUMP JUMPDEST PUSH1 0x40 MLOAD DUP1 SWAP2 SUB SWAP1 RETURN JUMPDEST PUSH2 0x205 PUSH1 0x4 DUP1 CALLDATASIZE SUB DUP2 ADD SWAP1 PUSH2 0x200 SWAP2 SWAP1 PUSH2 0x2690 JUMP JUMPDEST PUSH2 0x45F JUMP JUMPDEST PUSH1 0x40 MLOAD PUSH2 0x213 SWAP3 SWAP2 SWAP1 PUSH2 0x277A JUMP JUMPDEST PUSH1 0x40 MLOAD DUP1 SWAP2 SUB SWAP1 RETURN JUMPDEST PUSH2 0x236 PUSH1 0x4 DUP1 CALLDATASIZE SUB DUP2 ADD SWAP1 PUSH2 0x231 SWAP2 SWAP1 PUSH2 0x27D4 JUMP JUMPDEST PUSH2 0x497 JUMP JUMPDEST PUSH1 0x40 MLOAD PUSH2 0x243 SWAP2 SWAP1 PUSH2 0x280E JUMP JUMPDEST PUSH1 0x40 MLOAD DUP1 SWAP2 SUB SWAP1 RETURN JUMPDEST PUSH2 0x254 PUSH2 0x4D2 JUMP JUMPDEST STOP JUMPDEST PUSH2 0x270 PUSH1 0x4 DUP1 CALLDATASIZE SUB DUP2 ADD SWAP1 PUSH2 0x26B SWAP2 SWAP1 PUSH2 0x2827 JUMP JUMPDEST PUSH2 0x78C JUMP JUMPDEST STOP JUMPDEST PUSH2 0x28C PUSH1 0x4 DUP1 CALLDATASIZE SUB DUP2 ADD SWAP1 PUSH2 0x287 SWAP2 SWAP1 PUSH2 0x29B5 JUMP JUMPDEST PUSH2 0xABE JUMP JUMPDEST STOP JUMPDEST PUSH2 0x296 PUSH2 0xE71 JUMP JUMPDEST PUSH1 0x40 MLOAD PUSH2 0x2A3 SWAP2 SWAP1 PUSH2 0x280E JUMP JUMPDEST PUSH1 0x40 MLOAD DUP1 SWAP2 SUB SWAP1 RETURN JUMPDEST PUSH2 0x2B4 PUSH2 0xE96 JUMP JUMPDEST PUSH1 0x40 MLOAD PUSH2 0x2C1 SWAP2 SWAP1 PUSH2 0x2A57 JUMP JUMPDEST PUSH1 0x40 MLOAD DUP1 SWAP2 SUB SWAP1 RETURN JUMPDEST PUSH2 0x2D2 PUSH2 0xEBB JUMP JUMPDEST STOP JUMPDEST PUSH2 0x2EE PUSH1 0x4 DUP1 CALLDATASIZE SUB DUP2 ADD SWAP1 PUSH2 0x2E9 SWAP2 SWAP1 PUSH2 0x25E3 JUMP JUMPDEST PUSH2 0x10DC JUMP JUMPDEST STOP JUMPDEST PUSH2 0x2F8 PUSH2 0x13AA JUMP JUMPDEST STOP JUMPDEST PUSH2 0x302 PUSH2 0x16E7 JUMP JUMPDEST STOP JUMPDEST PUSH2 0x30C PUSH2 0x1B38 JUMP JUMPDEST PUSH1 0x40 MLOAD PUSH2 0x319 SWAP2 SWAP1 PUSH2 0x2A90 JUMP JUMPDEST PUSH1 0x40 MLOAD DUP1 SWAP2 SUB SWAP1 RETURN JUMPDEST PUSH2 0x32A PUSH2 0x1B5D JUMP JUMPDEST PUSH1 0x40 MLOAD PUSH2 0x337 SWAP2 SWAP1 PUSH2 0x261D JUMP JUMPDEST PUSH1 0x40 MLOAD DUP1 SWAP2 SUB SWAP1 RETURN JUMPDEST PUSH2 0x35A PUSH1 0x4 DUP1 CALLDATASIZE SUB DUP2 ADD SWAP1 PUSH2 0x355 SWAP2 SWAP1 PUSH2 0x2690 JUMP JUMPDEST PUSH2 0x1B73 JUMP JUMPDEST PUSH1 0x40 MLOAD PUSH2 0x367 SWAP2 SWAP1 PUSH2 0x26D5 JUMP JUMPDEST PUSH1 0x40 MLOAD DUP1 SWAP2 SUB SWAP1 RETURN JUMPDEST PUSH2 0x378 PUSH2 0x1B90 JUMP JUMPDEST STOP JUMPDEST PUSH2 0x382 PUSH2 0x1F61 JUMP JUMPDEST STOP JUMPDEST PUSH2 0x38C PUSH2 0x2159 JUMP JUMPDEST PUSH1 0x40 MLOAD PUSH2 0x399 SWAP2 SWAP1 PUSH2 0x2580 JUMP JUMPDEST PUSH1 0x40 MLOAD DUP1 SWAP2 SUB SWAP1 RETURN JUMPDEST PUSH2 0x3BC PUSH1 0x4 DUP1 CALLDATASIZE SUB DUP2 ADD SWAP1 PUSH2 0x3B7 SWAP2 SWAP1 PUSH2 0x2690 JUMP JUMPDEST PUSH2 0x216C JUMP JUMPDEST PUSH1 0x40 MLOAD PUSH2 0x3C9 SWAP2 SWAP1 PUSH2 0x26D5 JUMP JUMPDEST PUSH1 0x40 MLOAD DUP1 SWAP2 SUB SWAP1 RETURN JUMPDEST PUSH2 0x3DA PUSH2 0x2189 JUMP JUMPDEST PUSH1 0x40 MLOAD PUSH2 0x3E7 SWAP2 SWAP1 PUSH2 0x280E JUMP JUMPDEST PUSH1 0x40 MLOAD DUP1 SWAP2 SUB SWAP1 RETURN JUMPDEST PUSH1 0x8 PUSH0 SWAP1 SLOAD SWAP1 PUSH2 0x100 EXP SWAP1 DIV PUSH2 0xFFFF AND DUP2 JUMP JUMPDEST PUSH0 DUP1 PUSH3 0x15180 SWAP1 POP PUSH0 DUP2 DUP3 DUP6 PUSH2 0x419 SWAP2 SWAP1 PUSH2 0x2B03 JUMP JUMPDEST PUSH2 0x423 SWAP2 SWAP1 PUSH2 0x2B33 JUMP JUMPDEST SWAP1 POP DUP1 SWAP3 POP POP POP SWAP2 SWAP1 POP JUMP JUMPDEST PUSH1 0x2 PUSH1 0x20 MSTORE DUP1 PUSH0 MSTORE PUSH1 0x40 PUSH0 KECCAK256 PUSH0 SWAP2 POP SLOAD SWAP1 PUSH2 0x100 EXP SWAP1 DIV PUSH1 0xFF AND DUP2 JUMP JUMPDEST PUSH1 0x5 PUSH1 0x14 SWAP1 SLOAD SWAP1 PUSH2 0x100 EXP SWAP1 DIV PUSH1 0xFF AND DUP2 JUMP JUMPDEST PUSH1 0x9 PUSH1 0x20 MSTORE DUP1 PUSH0 MSTORE PUSH1 0x40 PUSH0 KECCAK256 PUSH0 SWAP2 POP SWAP1 POP DUP1 PUSH0 ADD PUSH0 SWAP1 SLOAD SWAP1 PUSH2 0x100 EXP SWAP1 DIV PUSH1 0xFF AND SWAP1 DUP1 PUSH0 ADD PUSH1 0x1 SWAP1 SLOAD SWAP1 PUSH2 0x100 EXP SWAP1 DIV PUSH1 0xFF AND SWAP1 POP DUP3 JUMP JUMPDEST PUSH1 0x6 DUP2 DUP2 SLOAD DUP2 LT PUSH2 0x4A6 JUMPI PUSH0 DUP1 REVERT JUMPDEST SWAP1 PUSH0 MSTORE PUSH1 0x20 PUSH0 KECCAK256 ADD PUSH0 SWAP2 POP SLOAD SWAP1 PUSH2 0x100 EXP SWAP1 DIV PUSH20 0xFFFFFFFFFFFFFFFFFFFFFFFFFFFFFFFFFFFFFFFF AND DUP2 JUMP JUMPDEST PUSH0 DUP1 SLOAD SWAP1 PUSH2 0x100 EXP SWAP1 DIV PUSH20 0xFFFFFFFFFFFFFFFFFFFFFFFFFFFFFFFFFFFFFFFF AND PUSH20 0xFFFFFFFFFFFFFFFFFFFFFFFFFFFFFFFFFFFFFFFF AND CALLER PUSH20 0xFFFFFFFFFFFFFFFFFFFFFFFFFFFFFFFFFFFFFFFF AND EQ DUP1 PUSH2 0x577 JUMPI POP PUSH1 0x1 PUSH0 SWAP1 SLOAD SWAP1 PUSH2 0x100 EXP SWAP1 DIV PUSH20 0xFFFFFFFFFFFFFFFFFFFFFFFFFFFFFFFFFFFFFFFF AND PUSH20 0xFFFFFFFFFFFFFFFFFFFFFFFFFFFFFFFFFFFFFFFF AND CALLER PUSH20 0xFFFFFFFFFFFFFFFFFFFFFFFFFFFFFFFFFFFFFFFF AND EQ JUMPDEST PUSH2 0x5B6 JUMPI PUSH1 0x40 MLOAD PUSH32 0x8C379A000000000000000000000000000000000000000000000000000000000 DUP2 MSTORE PUSH1 0x4 ADD PUSH2 0x5AD SWAP1 PUSH2 0x2BEF JUMP JUMPDEST PUSH1 0x40 MLOAD DUP1 SWAP2 SUB SWAP1 REVERT JUMPDEST PUSH1 0x1 PUSH1 0x4 DUP2 GT ISZERO PUSH2 0x5CA JUMPI PUSH2 0x5C9 PUSH2 0x26EE JUMP JUMPDEST JUMPDEST PUSH1 0x5 PUSH1 0x14 SWAP1 SLOAD SWAP1 PUSH2 0x100 EXP SWAP1 DIV PUSH1 0xFF AND PUSH1 0x4 DUP2 GT ISZERO PUSH2 0x5EC JUMPI PUSH2 0x5EB PUSH2 0x26EE JUMP JUMPDEST JUMPDEST EQ PUSH2 0x62C JUMPI PUSH1 0x40 MLOAD PUSH32 0x8C379A000000000000000000000000000000000000000000000000000000000 DUP2 MSTORE PUSH1 0x4 ADD PUSH2 0x623 SWAP1 PUSH2 0x2C57 JUMP JUMPDEST PUSH1 0x40 MLOAD DUP1 SWAP2 SUB SWAP1 REVERT JUMPDEST PUSH1 0x7 PUSH0 CALLER PUSH20 0xFFFFFFFFFFFFFFFFFFFFFFFFFFFFFFFFFFFFFFFF AND PUSH20 0xFFFFFFFFFFFFFFFFFFFFFFFFFFFFFFFFFFFFFFFF AND DUP2 MSTORE PUSH1 0x20 ADD SWAP1 DUP2 MSTORE PUSH1 0x20 ADD PUSH0 KECCAK256 PUSH0 SWAP1 SLOAD SWAP1 PUSH2 0x100 EXP SWAP1 DIV PUSH1 0xFF AND ISZERO PUSH2 0x6B6 JUMPI PUSH1 0x40 MLOAD PUSH32 0x8C379A000000000000000000000000000000000000000000000000000000000 DUP2 MSTORE PUSH1 0x4 ADD PUSH2 0x6AD SWAP1 PUSH2 0x2CBF JUMP JUMPDEST PUSH1 0x40 MLOAD DUP1 SWAP2 SUB SWAP1 REVERT JUMPDEST PUSH0 PUSH1 0x6 DUP1 SLOAD SWAP1 POP GT PUSH2 0x6FD JUMPI PUSH1 0x40 MLOAD PUSH32 0x8C379A000000000000000000000000000000000000000000000000000000000 DUP2 MSTORE PUSH1 0x4 ADD PUSH2 0x6F4 SWAP1 PUSH2 0x2D27 JUMP JUMPDEST PUSH1 0x40 MLOAD DUP1 SWAP2 SUB SWAP1 REVERT JUMPDEST PUSH1 0x1 PUSH1 0x7 PUSH0 CALLER PUSH20 0xFFFFFFFFFFFFFFFFFFFFFFFFFFFFFFFFFFFFFFFF AND PUSH20 0xFFFFFFFFFFFFFFFFFFFFFFFFFFFFFFFFFFFFFFFF AND DUP2 MSTORE PUSH1 0x20 ADD SWAP1 DUP2 MSTORE PUSH1 0x20 ADD PUSH0 KECCAK256 PUSH0 PUSH2 0x100 EXP DUP2 SLOAD DUP2 PUSH1 0xFF MUL NOT AND SWAP1 DUP4 ISZERO ISZERO MUL OR SWAP1 SSTORE POP PUSH32 0x33B84F319A927039ABE58F2EC6B683BA73C74A309BC9288C3E37562B9727126E PUSH1 0x6 PUSH1 0x40 MLOAD PUSH2 0x782 SWAP2 SWAP1 PUSH2 0x2E5B JUMP JUMPDEST PUSH1 0x40 MLOAD DUP1 SWAP2 SUB SWAP1 LOG1 JUMP JUMPDEST DUP2 PUSH20 0xFFFFFFFFFFFFFFFFFFFFFFFFFFFFFFFFFFFFFFFF AND CALLER PUSH20 0xFFFFFFFFFFFFFFFFFFFFFFFFFFFFFFFFFFFFFFFF AND SUB PUSH2 0x7FA JUMPI PUSH1 0x40 MLOAD PUSH32 0x8C379A000000000000000000000000000000000000000000000000000000000 DUP2 MSTORE PUSH1 0x4 ADD PUSH2 0x7F1 SWAP1 PUSH2 0x2EC5 JUMP JUMPDEST PUSH1 0x40 MLOAD DUP1 SWAP2 SUB SWAP1 REVERT JUMPDEST PUSH2 0x803 DUP3 PUSH2 0x21AC JUMP JUMPDEST PUSH2 0x842 JUMPI PUSH1 0x40 MLOAD PUSH32 0x8C379A000000000000000000000000000000000000000000000000000000000 DUP2 MSTORE PUSH1 0x4 ADD PUSH2 0x839 SWAP1 PUSH2 0x2F2D JUMP JUMPDEST PUSH1 0x40 MLOAD DUP1 SWAP2 SUB SWAP1 REVERT JUMPDEST PUSH1 0xA TIMESTAMP PUSH2 0x84F SWAP2 SWAP1 PUSH2 0x2F4B JUMP JUMPDEST DUP2 PUSH4 0xFFFFFFFF AND GT PUSH2 0x896 JUMPI PUSH1 0x40 MLOAD PUSH32 0x8C379A000000000000000000000000000000000000000000000000000000000 DUP2 MSTORE PUSH1 0x4 ADD PUSH2 0x88D SWAP1 PUSH2 0x2FEE JUMP JUMPDEST PUSH1 0x40 MLOAD DUP1 SWAP2 SUB SWAP1 REVERT JUMPDEST DUP1 PUSH1 0x1 PUSH1 0x14 PUSH2 0x100 EXP DUP2 SLOAD DUP2 PUSH4 0xFFFFFFFF MUL NOT AND SWAP1 DUP4 PUSH4 0xFFFFFFFF AND MUL OR SWAP1 SSTORE POP CALLER PUSH0 DUP1 PUSH2 0x100 EXP DUP2 SLOAD DUP2 PUSH20 0xFFFFFFFFFFFFFFFFFFFFFFFFFFFFFFFFFFFFFFFF MUL NOT AND SWAP1 DUP4 PUSH20 0xFFFFFFFFFFFFFFFFFFFFFFFFFFFFFFFFFFFFFFFF AND MUL OR SWAP1 SSTORE POP DUP2 PUSH1 0x1 PUSH0 PUSH2 0x100 EXP DUP2 SLOAD DUP2 PUSH20 0xFFFFFFFFFFFFFFFFFFFFFFFFFFFFFFFFFFFFFFFF MUL NOT AND SWAP1 DUP4 PUSH20 0xFFFFFFFFFFFFFFFFFFFFFFFFFFFFFFFFFFFFFFFF AND MUL OR SWAP1 SSTORE POP PUSH1 0x1 PUSH1 0x2 PUSH0 DUP1 PUSH0 SWAP1 SLOAD SWAP1 PUSH2 0x100 EXP SWAP1 DIV PUSH20 0xFFFFFFFFFFFFFFFFFFFFFFFFFFFFFFFFFFFFFFFF AND PUSH20 0xFFFFFFFFFFFFFFFFFFFFFFFFFFFFFFFFFFFFFFFF AND PUSH20 0xFFFFFFFFFFFFFFFFFFFFFFFFFFFFFFFFFFFFFFFF AND DUP2 MSTORE PUSH1 0x20 ADD SWAP1 DUP2 MSTORE PUSH1 0x20 ADD PUSH0 KECCAK256 PUSH0 PUSH2 0x100 EXP DUP2 SLOAD DUP2 PUSH1 0xFF MUL NOT AND SWAP1 DUP4 ISZERO ISZERO MUL OR SWAP1 SSTORE POP PUSH0 PUSH1 0x2 PUSH0 PUSH1 0x1 PUSH0 SWAP1 SLOAD SWAP1 PUSH2 0x100 EXP SWAP1 DIV PUSH20 0xFFFFFFFFFFFFFFFFFFFFFFFFFFFFFFFFFFFFFFFF AND PUSH20 0xFFFFFFFFFFFFFFFFFFFFFFFFFFFFFFFFFFFFFFFF AND PUSH20 0xFFFFFFFFFFFFFFFFFFFFFFFFFFFFFFFFFFFFFFFF AND DUP2 MSTORE PUSH1 0x20 ADD SWAP1 DUP2 MSTORE PUSH1 0x20 ADD PUSH0 KECCAK256 PUSH0 PUSH2 0x100 EXP DUP2 SLOAD DUP2 PUSH1 0xFF MUL NOT AND SWAP1 DUP4 ISZERO ISZERO MUL OR SWAP1 SSTORE POP PUSH1 0x1 PUSH0 SWAP1 SLOAD SWAP1 PUSH2 0x100 EXP SWAP1 DIV PUSH20 0xFFFFFFFFFFFFFFFFFFFFFFFFFFFFFFFFFFFFFFFF AND PUSH20 0xFFFFFFFFFFFFFFFFFFFFFFFFFFFFFFFFFFFFFFFF AND PUSH0 DUP1 SLOAD SWAP1 PUSH2 0x100 EXP SWAP1 DIV PUSH20 0xFFFFFFFFFFFFFFFFFFFFFFFFFFFFFFFFFFFFFFFF AND PUSH20 0xFFFFFFFFFFFFFFFFFFFFFFFFFFFFFFFFFFFFFFFF AND PUSH32 0xB9667C497613D36D751E12AC344149B1A6AB6A60ACCCDC58E623735E937FAF2C PUSH1 0x40 MLOAD PUSH1 0x40 MLOAD DUP1 SWAP2 SUB SWAP1 LOG3 POP POP JUMP JUMPDEST PUSH0 DUP1 SLOAD SWAP1 PUSH2 0x100 EXP SWAP1 DIV PUSH20 0xFFFFFFFFFFFFFFFFFFFFFFFFFFFFFFFFFFFFFFFF AND PUSH20 0xFFFFFFFFFFFFFFFFFFFFFFFFFFFFFFFFFFFFFFFF AND CALLER PUSH20 0xFFFFFFFFFFFFFFFFFFFFFFFFFFFFFFFFFFFFFFFF AND EQ DUP1 PUSH2 0xB63 JUMPI POP PUSH1 0x1 PUSH0 SWAP1 SLOAD SWAP1 PUSH2 0x100 EXP SWAP1 DIV PUSH20 0xFFFFFFFFFFFFFFFFFFFFFFFFFFFFFFFFFFFFFFFF AND PUSH20 0xFFFFFFFFFFFFFFFFFFFFFFFFFFFFFFFFFFFFFFFF AND CALLER PUSH20 0xFFFFFFFFFFFFFFFFFFFFFFFFFFFFFFFFFFFFFFFF AND EQ JUMPDEST PUSH2 0xBA2 JUMPI PUSH1 0x40 MLOAD PUSH32 0x8C379A000000000000000000000000000000000000000000000000000000000 DUP2 MSTORE PUSH1 0x4 ADD PUSH2 0xB99 SWAP1 PUSH2 0x2BEF JUMP JUMPDEST PUSH1 0x40 MLOAD DUP1 SWAP2 SUB SWAP1 REVERT JUMPDEST PUSH1 0x1 PUSH1 0x4 DUP2 GT ISZERO PUSH2 0xBB6 JUMPI PUSH2 0xBB5 PUSH2 0x26EE JUMP JUMPDEST JUMPDEST PUSH1 0x5 PUSH1 0x14 SWAP1 SLOAD SWAP1 PUSH2 0x100 EXP SWAP1 DIV PUSH1 0xFF AND PUSH1 0x4 DUP2 GT ISZERO PUSH2 0xBD8 JUMPI PUSH2 0xBD7 PUSH2 0x26EE JUMP JUMPDEST JUMPDEST EQ PUSH2 0xC18 JUMPI PUSH1 0x40 MLOAD PUSH32 0x8C379A000000000000000000000000000000000000000000000000000000000 DUP2 MSTORE PUSH1 0x4 ADD PUSH2 0xC0F SWAP1 PUSH2 0x2C57 JUMP JUMPDEST PUSH1 0x40 MLOAD DUP1 SWAP2 SUB SWAP1 REVERT JUMPDEST PUSH1 0x1 ISZERO ISZERO PUSH1 0x7 PUSH0 DUP1 PUSH0 SWAP1 SLOAD SWAP1 PUSH2 0x100 EXP SWAP1 DIV PUSH20 0xFFFFFFFFFFFFFFFFFFFFFFFFFFFFFFFFFFFFFFFF AND PUSH20 0xFFFFFFFFFFFFFFFFFFFFFFFFFFFFFFFFFFFFFFFF AND PUSH20 0xFFFFFFFFFFFFFFFFFFFFFFFFFFFFFFFFFFFFFFFF AND DUP2 MSTORE PUSH1 0x20 ADD SWAP1 DUP2 MSTORE PUSH1 0x20 ADD PUSH0 KECCAK256 PUSH0 SWAP1 SLOAD SWAP1 PUSH2 0x100 EXP SWAP1 DIV PUSH1 0xFF AND ISZERO ISZERO EQ ISZERO DUP1 ISZERO PUSH2 0xD05 JUMPI POP PUSH1 0x1 ISZERO ISZERO PUSH1 0x7 PUSH0 PUSH1 0x1 PUSH0 SWAP1 SLOAD SWAP1 PUSH2 0x100 EXP SWAP1 DIV PUSH20 0xFFFFFFFFFFFFFFFFFFFFFFFFFFFFFFFFFFFFFFFF AND PUSH20 0xFFFFFFFFFFFFFFFFFFFFFFFFFFFFFFFFFFFFFFFF AND PUSH20 0xFFFFFFFFFFFFFFFFFFFFFFFFFFFFFFFFFFFFFFFF AND DUP2 MSTORE PUSH1 0x20 ADD SWAP1 DUP2 MSTORE PUSH1 0x20 ADD PUSH0 KECCAK256 PUSH0 SWAP1 SLOAD SWAP1 PUSH2 0x100 EXP SWAP1 DIV PUSH1 0xFF AND ISZERO ISZERO EQ ISZERO JUMPDEST PUSH2 0xD44 JUMPI PUSH1 0x40 MLOAD PUSH32 0x8C379A000000000000000000000000000000000000000000000000000000000 DUP2 MSTORE PUSH1 0x4 ADD PUSH2 0xD3B SWAP1 PUSH2 0x307C JUMP JUMPDEST PUSH1 0x40 MLOAD DUP1 SWAP2 SUB SWAP1 REVERT JUMPDEST PUSH0 JUMPDEST DUP2 MLOAD DUP2 PUSH1 0xFF AND LT ISZERO PUSH2 0xDCA JUMPI PUSH2 0xD78 DUP3 DUP3 PUSH1 0xFF AND DUP2 MLOAD DUP2 LT PUSH2 0xD6B JUMPI PUSH2 0xD6A PUSH2 0x309A JUMP JUMPDEST JUMPDEST PUSH1 0x20 MUL PUSH1 0x20 ADD ADD MLOAD PUSH2 0x21AC JUMP JUMPDEST PUSH2 0xDB7 JUMPI PUSH1 0x40 MLOAD PUSH32 0x8C379A000000000000000000000000000000000000000000000000000000000 DUP2 MSTORE PUSH1 0x4 ADD PUSH2 0xDAE SWAP1 PUSH2 0x3111 JUMP JUMPDEST PUSH1 0x40 MLOAD DUP1 SWAP2 SUB SWAP1 REVERT JUMPDEST DUP1 DUP1 PUSH2 0xDC2 SWAP1 PUSH2 0x313B JUMP JUMPDEST SWAP2 POP POP PUSH2 0xD46 JUMP JUMPDEST POP DUP1 PUSH1 0x6 SWAP1 DUP1 MLOAD SWAP1 PUSH1 0x20 ADD SWAP1 PUSH2 0xDE1 SWAP3 SWAP2 SWAP1 PUSH2 0x24C2 JUMP JUMPDEST POP PUSH1 0x1 PUSH1 0x7 PUSH0 CALLER PUSH20 0xFFFFFFFFFFFFFFFFFFFFFFFFFFFFFFFFFFFFFFFF AND PUSH20 0xFFFFFFFFFFFFFFFFFFFFFFFFFFFFFFFFFFFFFFFF AND DUP2 MSTORE PUSH1 0x20 ADD SWAP1 DUP2 MSTORE PUSH1 0x20 ADD PUSH0 KECCAK256 PUSH0 PUSH2 0x100 EXP DUP2 SLOAD DUP2 PUSH1 0xFF MUL NOT AND SWAP1 DUP4 ISZERO ISZERO MUL OR SWAP1 SSTORE POP PUSH32 0x2380A2ACF6C01A4E0F0091094FB2420CE1A1A2D5FE40975245CF97EB76DFDA63 DUP2 PUSH1 0x40 MLOAD PUSH2 0xE66 SWAP2 SWAP1 PUSH2 0x31E4 JUMP JUMPDEST PUSH1 0x40 MLOAD DUP1 SWAP2 SUB SWAP1 LOG1 POP JUMP JUMPDEST PUSH1 0x1 PUSH0 SWAP1 SLOAD SWAP1 PUSH2 0x100 EXP SWAP1 DIV PUSH20 0xFFFFFFFFFFFFFFFFFFFFFFFFFFFFFFFFFFFFFFFF AND DUP2 JUMP JUMPDEST PUSH1 0x4 PUSH0 SWAP1 SLOAD SWAP1 PUSH2 0x100 EXP SWAP1 DIV PUSH20 0xFFFFFFFFFFFFFFFFFFFFFFFFFFFFFFFFFFFFFFFF AND DUP2 JUMP JUMPDEST PUSH0 DUP1 SLOAD SWAP1 PUSH2 0x100 EXP SWAP1 DIV PUSH20 0xFFFFFFFFFFFFFFFFFFFFFFFFFFFFFFFFFFFFFFFF AND PUSH20 0xFFFFFFFFFFFFFFFFFFFFFFFFFFFFFFFFFFFFFFFF AND CALLER PUSH20 0xFFFFFFFFFFFFFFFFFFFFFFFFFFFFFFFFFFFFFFFF AND EQ DUP1 PUSH2 0xF60 JUMPI POP PUSH1 0x1 PUSH0 SWAP1 SLOAD SWAP1 PUSH2 0x100 EXP SWAP1 DIV PUSH20 0xFFFFFFFFFFFFFFFFFFFFFFFFFFFFFFFFFFFFFFFF AND PUSH20 0xFFFFFFFFFFFFFFFFFFFFFFFFFFFFFFFFFFFFFFFF AND CALLER PUSH20 0xFFFFFFFFFFFFFFFFFFFFFFFFFFFFFFFFFFFFFFFF AND EQ JUMPDEST PUSH2 0xF9F JUMPI PUSH1 0x40 MLOAD PUSH32 0x8C379A000000000000000000000000000000000000000000000000000000000 DUP2 MSTORE PUSH1 0x4 ADD PUSH2 0xF96 SWAP1 PUSH2 0x2BEF JUMP JUMPDEST PUSH1 0x40 MLOAD DUP1 SWAP2 SUB SWAP1 REVERT JUMPDEST PUSH1 0x1 PUSH1 0x4 DUP2 GT ISZERO PUSH2 0xFB3 JUMPI PUSH2 0xFB2 PUSH2 0x26EE JUMP JUMPDEST JUMPDEST PUSH1 0x5 PUSH1 0x14 SWAP1 SLOAD SWAP1 PUSH2 0x100 EXP SWAP1 DIV PUSH1 0xFF AND PUSH1 0x4 DUP2 GT ISZERO PUSH2 0xFD5 JUMPI PUSH2 0xFD4 PUSH2 0x26EE JUMP JUMPDEST JUMPDEST EQ PUSH2 0x1015 JUMPI PUSH1 0x40 MLOAD PUSH32 0x8C379A000000000000000000000000000000000000000000000000000000000 DUP2 MSTORE PUSH1 0x4 ADD PUSH2 0x100C SWAP1 PUSH2 0x3274 JUMP JUMPDEST PUSH1 0x40 MLOAD DUP1 SWAP2 SUB SWAP1 REVERT JUMPDEST PUSH1 0x2 PUSH1 0x5 PUSH1 0x14 PUSH2 0x100 EXP DUP2 SLOAD DUP2 PUSH1 0xFF MUL NOT AND SWAP1 DUP4 PUSH1 0x4 DUP2 GT ISZERO PUSH2 0x103B JUMPI PUSH2 0x103A PUSH2 0x26EE JUMP JUMPDEST JUMPDEST MUL OR SWAP1 SSTORE POP PUSH1 0x1 PUSH0 SWAP1 SLOAD SWAP1 PUSH2 0x100 EXP SWAP1 DIV PUSH20 0xFFFFFFFFFFFFFFFFFFFFFFFFFFFFFFFFFFFFFFFF AND PUSH20 0xFFFFFFFFFFFFFFFFFFFFFFFFFFFFFFFFFFFFFFFF AND PUSH0 DUP1 SLOAD SWAP1 PUSH2 0x100 EXP SWAP1 DIV PUSH20 0xFFFFFFFFFFFFFFFFFFFFFFFFFFFFFFFFFFFFFFFF AND PUSH20 0xFFFFFFFFFFFFFFFFFFFFFFFFFFFFFFFFFFFFFFFF AND PUSH32 0x5C194A9036770A0CD11EAA73E90E3025E63CCCC66EAE51902F3F0AEEA62DF5A9 PUSH1 0x40 MLOAD PUSH1 0x40 MLOAD DUP1 SWAP2 SUB SWAP1 LOG3 JUMP JUMPDEST PUSH1 0x1 DUP1 EQ PUSH2 0x111F JUMPI PUSH1 0x40 MLOAD PUSH32 0x8C379A000000000000000000000000000000000000000000000000000000000 DUP2 MSTORE PUSH1 0x4 ADD PUSH2 0x1116 SWAP1 PUSH2 0x32DC JUMP JUMPDEST PUSH1 0x40 MLOAD DUP1 SWAP2 SUB SWAP1 REVERT JUMPDEST PUSH1 0x1 PUSH0 SWAP1 SLOAD SWAP1 PUSH2 0x100 EXP SWAP1 DIV PUSH20 0xFFFFFFFFFFFFFFFFFFFFFFFFFFFFFFFFFFFFFFFF AND PUSH20 0xFFFFFFFFFFFFFFFFFFFFFFFFFFFFFFFFFFFFFFFF AND CALLER PUSH20 0xFFFFFFFFFFFFFFFFFFFFFFFFFFFFFFFFFFFFFFFF AND EQ PUSH2 0x11AE JUMPI PUSH1 0x40 MLOAD PUSH32 0x8C379A000000000000000000000000000000000000000000000000000000000 DUP2 MSTORE PUSH1 0x4 ADD PUSH2 0x11A5 SWAP1 PUSH2 0x336A JUMP JUMPDEST PUSH1 0x40 MLOAD DUP1 SWAP2 SUB SWAP1 REVERT JUMPDEST PUSH1 0xA TIMESTAMP PUSH2 0x11BB SWAP2 SWAP1 PUSH2 0x2F4B JUMP JUMPDEST DUP2 PUSH4 0xFFFFFFFF AND GT PUSH2 0x1202 JUMPI PUSH1 0x40 MLOAD PUSH32 0x8C379A000000000000000000000000000000000000000000000000000000000 DUP2 MSTORE PUSH1 0x4 ADD PUSH2 0x11F9 SWAP1 PUSH2 0x2FEE JUMP JUMPDEST PUSH1 0x40 MLOAD DUP1 SWAP2 SUB SWAP1 REVERT JUMPDEST DUP1 PUSH1 0x1 PUSH1 0x14 PUSH2 0x100 EXP DUP2 SLOAD DUP2 PUSH4 0xFFFFFFFF MUL NOT AND SWAP1 DUP4 PUSH4 0xFFFFFFFF AND MUL OR SWAP1 SSTORE POP PUSH0 PUSH1 0x2 PUSH0 DUP1 PUSH0 SWAP1 SLOAD SWAP1 PUSH2 0x100 EXP SWAP1 DIV PUSH20 0xFFFFFFFFFFFFFFFFFFFFFFFFFFFFFFFFFFFFFFFF AND PUSH20 0xFFFFFFFFFFFFFFFFFFFFFFFFFFFFFFFFFFFFFFFF AND PUSH20 0xFFFFFFFFFFFFFFFFFFFFFFFFFFFFFFFFFFFFFFFF AND DUP2 MSTORE PUSH1 0x20 ADD SWAP1 DUP2 MSTORE PUSH1 0x20 ADD PUSH0 KECCAK256 PUSH0 PUSH2 0x100 EXP DUP2 SLOAD DUP2 PUSH1 0xFF MUL NOT AND SWAP1 DUP4 ISZERO ISZERO MUL OR SWAP1 SSTORE POP PUSH1 0x1 PUSH1 0x2 PUSH0 PUSH1 0x1 PUSH0 SWAP1 SLOAD SWAP1 PUSH2 0x100 EXP SWAP1 DIV PUSH20 0xFFFFFFFFFFFFFFFFFFFFFFFFFFFFFFFFFFFFFFFF AND PUSH20 0xFFFFFFFFFFFFFFFFFFFFFFFFFFFFFFFFFFFFFFFF AND PUSH20 0xFFFFFFFFFFFFFFFFFFFFFFFFFFFFFFFFFFFFFFFF AND DUP2 MSTORE PUSH1 0x20 ADD SWAP1 DUP2 MSTORE PUSH1 0x20 ADD PUSH0 KECCAK256 PUSH0 PUSH2 0x100 EXP DUP2 SLOAD DUP2 PUSH1 0xFF MUL NOT AND SWAP1 DUP4 ISZERO ISZERO MUL OR SWAP1 SSTORE POP PUSH1 0x1 PUSH0 SWAP1 SLOAD SWAP1 PUSH2 0x100 EXP SWAP1 DIV PUSH20 0xFFFFFFFFFFFFFFFFFFFFFFFFFFFFFFFFFFFFFFFF AND PUSH20 0xFFFFFFFFFFFFFFFFFFFFFFFFFFFFFFFFFFFFFFFF AND PUSH0 DUP1 SLOAD SWAP1 PUSH2 0x100 EXP SWAP1 DIV PUSH20 0xFFFFFFFFFFFFFFFFFFFFFFFFFFFFFFFFFFFFFFFF AND PUSH20 0xFFFFFFFFFFFFFFFFFFFFFFFFFFFFFFFFFFFFFFFF AND PUSH32 0xB9667C497613D36D751E12AC344149B1A6AB6A60ACCCDC58E623735E937FAF2C PUSH1 0x40 MLOAD PUSH1 0x40 MLOAD DUP1 SWAP2 SUB SWAP1 LOG3 POP JUMP JUMPDEST PUSH0 DUP1 SLOAD SWAP1 PUSH2 0x100 EXP SWAP1 DIV PUSH20 0xFFFFFFFFFFFFFFFFFFFFFFFFFFFFFFFFFFFFFFFF AND PUSH20 0xFFFFFFFFFFFFFFFFFFFFFFFFFFFFFFFFFFFFFFFF AND CALLER PUSH20 0xFFFFFFFFFFFFFFFFFFFFFFFFFFFFFFFFFFFFFFFF AND EQ DUP1 PUSH2 0x144F JUMPI POP PUSH1 0x1 PUSH0 SWAP1 SLOAD SWAP1 PUSH2 0x100 EXP SWAP1 DIV PUSH20 0xFFFFFFFFFFFFFFFFFFFFFFFFFFFFFFFFFFFFFFFF AND PUSH20 0xFFFFFFFFFFFFFFFFFFFFFFFFFFFFFFFFFFFFFFFF AND CALLER PUSH20 0xFFFFFFFFFFFFFFFFFFFFFFFFFFFFFFFFFFFFFFFF AND EQ JUMPDEST PUSH2 0x148E JUMPI PUSH1 0x40 MLOAD PUSH32 0x8C379A000000000000000000000000000000000000000000000000000000000 DUP2 MSTORE PUSH1 0x4 ADD PUSH2 0x1485 SWAP1 PUSH2 0x2BEF JUMP JUMPDEST PUSH1 0x40 MLOAD DUP1 SWAP2 SUB SWAP1 REVERT JUMPDEST PUSH1 0x1 PUSH1 0x4 DUP2 GT ISZERO PUSH2 0x14A2 JUMPI PUSH2 0x14A1 PUSH2 0x26EE JUMP JUMPDEST JUMPDEST PUSH1 0x5 PUSH1 0x14 SWAP1 SLOAD SWAP1 PUSH2 0x100 EXP SWAP1 DIV PUSH1 0xFF AND PUSH1 0x4 DUP2 GT ISZERO PUSH2 0x14C4 JUMPI PUSH2 0x14C3 PUSH2 0x26EE JUMP JUMPDEST JUMPDEST EQ PUSH2 0x1504 JUMPI PUSH1 0x40 MLOAD PUSH32 0x8C379A000000000000000000000000000000000000000000000000000000000 DUP2 MSTORE PUSH1 0x4 ADD PUSH2 0x14FB SWAP1 PUSH2 0x33F8 JUMP JUMPDEST PUSH1 0x40 MLOAD DUP1 SWAP2 SUB SWAP1 REVERT JUMPDEST PUSH1 0x3 PUSH0 DUP1 PUSH0 SWAP1 SLOAD SWAP1 PUSH2 0x100 EXP SWAP1 DIV PUSH20 0xFFFFFFFFFFFFFFFFFFFFFFFFFFFFFFFFFFFFFFFF AND PUSH20 0xFFFFFFFFFFFFFFFFFFFFFFFFFFFFFFFFFFFFFFFF AND PUSH20 0xFFFFFFFFFFFFFFFFFFFFFFFFFFFFFFFFFFFFFFFF AND DUP2 MSTORE PUSH1 0x20 ADD SWAP1 DUP2 MSTORE PUSH1 0x20 ADD PUSH0 KECCAK256 PUSH0 SWAP1 SLOAD SWAP1 PUSH2 0x100 EXP SWAP1 DIV PUSH1 0xFF AND DUP1 ISZERO PUSH2 0x15E1 JUMPI POP PUSH1 0x3 PUSH0 PUSH1 0x1 PUSH0 SWAP1 SLOAD SWAP1 PUSH2 0x100 EXP SWAP1 DIV PUSH20 0xFFFFFFFFFFFFFFFFFFFFFFFFFFFFFFFFFFFFFFFF AND PUSH20 0xFFFFFFFFFFFFFFFFFFFFFFFFFFFFFFFFFFFFFFFF AND PUSH20 0xFFFFFFFFFFFFFFFFFFFFFFFFFFFFFFFFFFFFFFFF AND DUP2 MSTORE PUSH1 0x20 ADD SWAP1 DUP2 MSTORE PUSH1 0x20 ADD PUSH0 KECCAK256 PUSH0 SWAP1 SLOAD SWAP1 PUSH2 0x100 EXP SWAP1 DIV PUSH1 0xFF AND JUMPDEST PUSH2 0x1620 JUMPI PUSH1 0x40 MLOAD PUSH32 0x8C379A000000000000000000000000000000000000000000000000000000000 DUP2 MSTORE PUSH1 0x4 ADD PUSH2 0x1617 SWAP1 PUSH2 0x3486 JUMP JUMPDEST PUSH1 0x40 MLOAD DUP1 SWAP2 SUB SWAP1 REVERT JUMPDEST PUSH1 0x3 PUSH1 0x5 PUSH1 0x14 PUSH2 0x100 EXP DUP2 SLOAD DUP2 PUSH1 0xFF MUL NOT AND SWAP1 DUP4 PUSH1 0x4 DUP2 GT ISZERO PUSH2 0x1646 JUMPI PUSH2 0x1645 PUSH2 0x26EE JUMP JUMPDEST JUMPDEST MUL OR SWAP1 SSTORE POP PUSH1 0x1 PUSH0 SWAP1 SLOAD SWAP1 PUSH2 0x100 EXP SWAP1 DIV PUSH20 0xFFFFFFFFFFFFFFFFFFFFFFFFFFFFFFFFFFFFFFFF AND PUSH20 0xFFFFFFFFFFFFFFFFFFFFFFFFFFFFFFFFFFFFFFFF AND PUSH0 DUP1 SLOAD SWAP1 PUSH2 0x100 EXP SWAP1 DIV PUSH20 0xFFFFFFFFFFFFFFFFFFFFFFFFFFFFFFFFFFFFFFFF AND PUSH20 0xFFFFFFFFFFFFFFFFFFFFFFFFFFFFFFFFFFFFFFFF AND PUSH32 0xC89EF770A4AD395EBDC22B63DE541B88DAF19F335056F203FA06E4154B62BB7B PUSH1 0x40 MLOAD PUSH1 0x40 MLOAD DUP1 SWAP2 SUB SWAP1 LOG3 JUMP JUMPDEST PUSH0 DUP1 JUMPDEST PUSH1 0x6 DUP1 SLOAD SWAP1 POP DUP2 PUSH2 0xFFFF AND LT ISZERO PUSH2 0x1789 JUMPI CALLER PUSH20 0xFFFFFFFFFFFFFFFFFFFFFFFFFFFFFFFFFFFFFFFF AND PUSH1 0x6 DUP3 PUSH2 0xFFFF AND DUP2 SLOAD DUP2 LT PUSH2 0x172A JUMPI PUSH2 0x1729 PUSH2 0x309A JUMP JUMPDEST JUMPDEST SWAP1 PUSH0 MSTORE PUSH1 0x20 PUSH0 KECCAK256 ADD PUSH0 SWAP1 SLOAD SWAP1 PUSH2 0x100 EXP SWAP1 DIV PUSH20 0xFFFFFFFFFFFFFFFFFFFFFFFFFFFFFFFFFFFFFFFF AND PUSH20 0xFFFFFFFFFFFFFFFFFFFFFFFFFFFFFFFFFFFFFFFF AND SUB PUSH2 0x1776 JUMPI PUSH1 0x1 SWAP2 POP PUSH2 0x1789 JUMP JUMPDEST DUP1 DUP1 PUSH2 0x1781 SWAP1 PUSH2 0x34A4 JUMP JUMPDEST SWAP2 POP POP PUSH2 0x16EA JUMP JUMPDEST POP DUP1 PUSH2 0x17CA JUMPI PUSH1 0x40 MLOAD PUSH32 0x8C379A000000000000000000000000000000000000000000000000000000000 DUP2 MSTORE PUSH1 0x4 ADD PUSH2 0x17C1 SWAP1 PUSH2 0x353D JUMP JUMPDEST PUSH1 0x40 MLOAD DUP1 SWAP2 SUB SWAP1 REVERT JUMPDEST PUSH1 0x7 PUSH0 DUP1 PUSH0 SWAP1 SLOAD SWAP1 PUSH2 0x100 EXP SWAP1 DIV PUSH20 0xFFFFFFFFFFFFFFFFFFFFFFFFFFFFFFFFFFFFFFFF AND PUSH20 0xFFFFFFFFFFFFFFFFFFFFFFFFFFFFFFFFFFFFFFFF AND PUSH20 0xFFFFFFFFFFFFFFFFFFFFFFFFFFFFFFFFFFFFFFFF AND DUP2 MSTORE PUSH1 0x20 ADD SWAP1 DUP2 MSTORE PUSH1 0x20 ADD PUSH0 KECCAK256 PUSH0 SWAP1 SLOAD SWAP1 PUSH2 0x100 EXP SWAP1 DIV PUSH1 0xFF AND DUP1 ISZERO PUSH2 0x18A7 JUMPI POP PUSH1 0x7 PUSH0 PUSH1 0x1 PUSH0 SWAP1 SLOAD SWAP1 PUSH2 0x100 EXP SWAP1 DIV PUSH20 0xFFFFFFFFFFFFFFFFFFFFFFFFFFFFFFFFFFFFFFFF AND PUSH20 0xFFFFFFFFFFFFFFFFFFFFFFFFFFFFFFFFFFFFFFFF AND PUSH20 0xFFFFFFFFFFFFFFFFFFFFFFFFFFFFFFFFFFFFFFFF AND DUP2 MSTORE PUSH1 0x20 ADD SWAP1 DUP2 MSTORE PUSH1 0x20 ADD PUSH0 KECCAK256 PUSH0 SWAP1 SLOAD SWAP1 PUSH2 0x100 EXP SWAP1 DIV PUSH1 0xFF AND JUMPDEST PUSH2 0x18E6 JUMPI PUSH1 0x40 MLOAD PUSH32 0x8C379A000000000000000000000000000000000000000000000000000000000 DUP2 MSTORE PUSH1 0x4 ADD PUSH2 0x18DD SWAP1 PUSH2 0x35CB JUMP JUMPDEST PUSH1 0x40 MLOAD DUP1 SWAP2 SUB SWAP1 REVERT JUMPDEST PUSH1 0x9 PUSH0 CALLER PUSH20 0xFFFFFFFFFFFFFFFFFFFFFFFFFFFFFFFFFFFFFFFF AND PUSH20 0xFFFFFFFFFFFFFFFFFFFFFFFFFFFFFFFFFFFFFFFF AND DUP2 MSTORE PUSH1 0x20 ADD SWAP1 DUP2 MSTORE PUSH1 0x20 ADD PUSH0 KECCAK256 PUSH0 ADD PUSH0 SWAP1 SLOAD SWAP1 PUSH2 0x100 EXP SWAP1 DIV PUSH1 0xFF AND ISZERO PUSH2 0x1972 JUMPI PUSH1 0x40 MLOAD PUSH32 0x8C379A000000000000000000000000000000000000000000000000000000000 DUP2 MSTORE PUSH1 0x4 ADD PUSH2 0x1969 SWAP1 PUSH2 0x3633 JUMP JUMPDEST PUSH1 0x40 MLOAD DUP1 SWAP2 SUB SWAP1 REVERT JUMPDEST PUSH1 0x3 PUSH1 0x4 DUP2 GT ISZERO PUSH2 0x1986 JUMPI PUSH2 0x1985 PUSH2 0x26EE JUMP JUMPDEST JUMPDEST PUSH1 0x5 PUSH1 0x14 SWAP1 SLOAD SWAP1 PUSH2 0x100 EXP SWAP1 DIV PUSH1 0xFF AND PUSH1 0x4 DUP2 GT ISZERO PUSH2 0x19A8 JUMPI PUSH2 0x19A7 PUSH2 0x26EE JUMP JUMPDEST JUMPDEST EQ PUSH2 0x19E8 JUMPI PUSH1 0x40 MLOAD PUSH32 0x8C379A000000000000000000000000000000000000000000000000000000000 DUP2 MSTORE PUSH1 0x4 ADD PUSH2 0x19DF SWAP1 PUSH2 0x36C1 JUMP JUMPDEST PUSH1 0x40 MLOAD DUP1 SWAP2 SUB SWAP1 REVERT JUMPDEST PUSH2 0x19F0 PUSH2 0x21E4 JUMP JUMPDEST PUSH2 0x1A2F JUMPI PUSH1 0x40 MLOAD PUSH32 0x8C379A000000000000000000000000000000000000000000000000000000000 DUP2 MSTORE PUSH1 0x4 ADD PUSH2 0x1A26 SWAP1 PUSH2 0x374F JUMP JUMPDEST PUSH1 0x40 MLOAD DUP1 SWAP2 SUB SWAP1 REVERT JUMPDEST PUSH1 0x40 MLOAD DUP1 PUSH1 0x40 ADD PUSH1 0x40 MSTORE DUP1 PUSH1 0x1 ISZERO ISZERO DUP2 MSTORE PUSH1 0x20 ADD PUSH1 0x1 ISZERO ISZERO DUP2 MSTORE POP PUSH1 0x9 PUSH0 CALLER PUSH20 0xFFFFFFFFFFFFFFFFFFFFFFFFFFFFFFFFFFFFFFFF AND PUSH20 0xFFFFFFFFFFFFFFFFFFFFFFFFFFFFFFFFFFFFFFFF AND DUP2 MSTORE PUSH1 0x20 ADD SWAP1 DUP2 MSTORE PUSH1 0x20 ADD PUSH0 KECCAK256 PUSH0 DUP3 ADD MLOAD DUP2 PUSH0 ADD PUSH0 PUSH2 0x100 EXP DUP2 SLOAD DUP2 PUSH1 0xFF MUL NOT AND SWAP1 DUP4 ISZERO ISZERO MUL OR SWAP1 SSTORE POP PUSH1 0x20 DUP3 ADD MLOAD DUP2 PUSH0 ADD PUSH1 0x1 PUSH2 0x100 EXP DUP2 SLOAD DUP2 PUSH1 0xFF MUL NOT AND SWAP1 DUP4 ISZERO ISZERO MUL OR SWAP1 SSTORE POP SWAP1 POP POP PUSH1 0xA PUSH0 DUP2 DUP2 SWAP1 SLOAD SWAP1 PUSH2 0x100 EXP SWAP1 DIV PUSH2 0xFFFF AND DUP1 SWAP3 SWAP2 SWAP1 PUSH2 0x1AE5 SWAP1 PUSH2 0x34A4 JUMP JUMPDEST SWAP2 SWAP1 PUSH2 0x100 EXP DUP2 SLOAD DUP2 PUSH2 0xFFFF MUL NOT AND SWAP1 DUP4 PUSH2 0xFFFF AND MUL OR SWAP1 SSTORE POP POP PUSH1 0x2 PUSH1 0x6 DUP1 SLOAD SWAP1 POP PUSH2 0x1B12 SWAP2 SWAP1 PUSH2 0x376D JUMP JUMPDEST PUSH1 0xA PUSH0 SWAP1 SLOAD SWAP1 PUSH2 0x100 EXP SWAP1 DIV PUSH2 0xFFFF AND PUSH2 0xFFFF AND GT ISZERO PUSH2 0x1B35 JUMPI PUSH2 0x1B34 PUSH2 0x2237 JUMP JUMPDEST JUMPDEST POP JUMP JUMPDEST PUSH1 0x5 PUSH0 SWAP1 SLOAD SWAP1 PUSH2 0x100 EXP SWAP1 DIV PUSH20 0xFFFFFFFFFFFFFFFFFFFFFFFFFFFFFFFFFFFFFFFF AND DUP2 JUMP JUMPDEST PUSH1 0x1 PUSH1 0x14 SWAP1 SLOAD SWAP1 PUSH2 0x100 EXP SWAP1 DIV PUSH4 0xFFFFFFFF AND DUP2 JUMP JUMPDEST PUSH1 0x7 PUSH1 0x20 MSTORE DUP1 PUSH0 MSTORE PUSH1 0x40 PUSH0 KECCAK256 PUSH0 SWAP2 POP SLOAD SWAP1 PUSH2 0x100 EXP SWAP1 DIV PUSH1 0xFF AND DUP2 JUMP JUMPDEST PUSH1 0x1 DUP1 EQ PUSH2 0x1BD3 JUMPI PUSH1 0x40 MLOAD PUSH32 0x8C379A000000000000000000000000000000000000000000000000000000000 DUP2 MSTORE PUSH1 0x4 ADD PUSH2 0x1BCA SWAP1 PUSH2 0x32DC JUMP JUMPDEST PUSH1 0x40 MLOAD DUP1 SWAP2 SUB SWAP1 REVERT JUMPDEST PUSH1 0x2 PUSH0 DUP1 PUSH0 SWAP1 SLOAD SWAP1 PUSH2 0x100 EXP SWAP1 DIV PUSH20 0xFFFFFFFFFFFFFFFFFFFFFFFFFFFFFFFFFFFFFFFF AND PUSH20 0xFFFFFFFFFFFFFFFFFFFFFFFFFFFFFFFFFFFFFFFF AND PUSH20 0xFFFFFFFFFFFFFFFFFFFFFFFFFFFFFFFFFFFFFFFF AND DUP2 MSTORE PUSH1 0x20 ADD SWAP1 DUP2 MSTORE PUSH1 0x20 ADD PUSH0 KECCAK256 PUSH0 SWAP1 SLOAD SWAP1 PUSH2 0x100 EXP SWAP1 DIV PUSH1 0xFF AND ISZERO PUSH2 0x1D9B JUMPI PUSH1 0x1 PUSH0 SWAP1 SLOAD SWAP1 PUSH2 0x100 EXP SWAP1 DIV PUSH20 0xFFFFFFFFFFFFFFFFFFFFFFFFFFFFFFFFFFFFFFFF AND PUSH20 0xFFFFFFFFFFFFFFFFFFFFFFFFFFFFFFFFFFFFFFFF AND CALLER PUSH20 0xFFFFFFFFFFFFFFFFFFFFFFFFFFFFFFFFFFFFFFFF AND EQ PUSH2 0x1CD1 JUMPI PUSH1 0x40 MLOAD PUSH32 0x8C379A000000000000000000000000000000000000000000000000000000000 DUP2 MSTORE PUSH1 0x4 ADD PUSH2 0x1CC8 SWAP1 PUSH2 0x380D JUMP JUMPDEST PUSH1 0x40 MLOAD DUP1 SWAP2 SUB SWAP1 REVERT JUMPDEST PUSH1 0x1 PUSH0 SWAP1 SLOAD SWAP1 PUSH2 0x100 EXP SWAP1 DIV PUSH20 0xFFFFFFFFFFFFFFFFFFFFFFFFFFFFFFFFFFFFFFFF AND PUSH20 0xFFFFFFFFFFFFFFFFFFFFFFFFFFFFFFFFFFFFFFFF AND PUSH0 DUP1 SLOAD SWAP1 PUSH2 0x100 EXP SWAP1 DIV PUSH20 0xFFFFFFFFFFFFFFFFFFFFFFFFFFFFFFFFFFFFFFFF AND PUSH20 0xFFFFFFFFFFFFFFFFFFFFFFFFFFFFFFFFFFFFFFFF AND PUSH32 0x655A45D06BBB71039D6DC070F5DBB8143A5C0BCE1EFCEA7DEC3B66237D9EDD5 PUSH1 0x40 MLOAD PUSH1 0x40 MLOAD DUP1 SWAP2 SUB SWAP1 LOG3 PUSH1 0x1 PUSH1 0x5 PUSH1 0x14 PUSH2 0x100 EXP DUP2 SLOAD DUP2 PUSH1 0xFF MUL NOT AND SWAP1 DUP4 PUSH1 0x4 DUP2 GT ISZERO PUSH2 0x1D91 JUMPI PUSH2 0x1D90 PUSH2 0x26EE JUMP JUMPDEST JUMPDEST MUL OR SWAP1 SSTORE POP PUSH2 0x1F5F JUMP JUMPDEST PUSH1 0x2 PUSH0 PUSH1 0x1 PUSH0 SWAP1 SLOAD SWAP1 PUSH2 0x100 EXP SWAP1 DIV PUSH20 0xFFFFFFFFFFFFFFFFFFFFFFFFFFFFFFFFFFFFFFFF AND PUSH20 0xFFFFFFFFFFFFFFFFFFFFFFFFFFFFFFFFFFFFFFFF AND PUSH20 0xFFFFFFFFFFFFFFFFFFFFFFFFFFFFFFFFFFFFFFFF AND DUP2 MSTORE PUSH1 0x20 ADD SWAP1 DUP2 MSTORE PUSH1 0x20 ADD PUSH0 KECCAK256 PUSH0 SWAP1 SLOAD SWAP1 PUSH2 0x100 EXP SWAP1 DIV PUSH1 0xFF AND ISZERO PUSH2 0x1F5E JUMPI PUSH0 DUP1 SLOAD SWAP1 PUSH2 0x100 EXP SWAP1 DIV PUSH20 0xFFFFFFFFFFFFFFFFFFFFFFFFFFFFFFFFFFFFFFFF AND PUSH20 0xFFFFFFFFFFFFFFFFFFFFFFFFFFFFFFFFFFFFFFFF AND CALLER PUSH20 0xFFFFFFFFFFFFFFFFFFFFFFFFFFFFFFFFFFFFFFFF AND EQ PUSH2 0x1E98 JUMPI PUSH1 0x40 MLOAD PUSH32 0x8C379A000000000000000000000000000000000000000000000000000000000 DUP2 MSTORE PUSH1 0x4 ADD PUSH2 0x1E8F SWAP1 PUSH2 0x389B JUMP JUMPDEST PUSH1 0x40 MLOAD DUP1 SWAP2 SUB SWAP1 REVERT JUMPDEST PUSH1 0x1 PUSH0 SWAP1 SLOAD SWAP1 PUSH2 0x100 EXP SWAP1 DIV PUSH20 0xFFFFFFFFFFFFFFFFFFFFFFFFFFFFFFFFFFFFFFFF AND PUSH20 0xFFFFFFFFFFFFFFFFFFFFFFFFFFFFFFFFFFFFFFFF AND PUSH0 DUP1 SLOAD SWAP1 PUSH2 0x100 EXP SWAP1 DIV PUSH20 0xFFFFFFFFFFFFFFFFFFFFFFFFFFFFFFFFFFFFFFFF AND PUSH20 0xFFFFFFFFFFFFFFFFFFFFFFFFFFFFFFFFFFFFFFFF AND PUSH32 0x655A45D06BBB71039D6DC070F5DBB8143A5C0BCE1EFCEA7DEC3B66237D9EDD5 PUSH1 0x40 MLOAD PUSH1 0x40 MLOAD DUP1 SWAP2 SUB SWAP1 LOG3 PUSH1 0x1 PUSH1 0x5 PUSH1 0x14 PUSH2 0x100 EXP DUP2 SLOAD DUP2 PUSH1 0xFF MUL NOT AND SWAP1 DUP4 PUSH1 0x4 DUP2 GT ISZERO PUSH2 0x1F58 JUMPI PUSH2 0x1F57 PUSH2 0x26EE JUMP JUMPDEST JUMPDEST MUL OR SWAP1 SSTORE POP JUMPDEST JUMPDEST JUMP JUMPDEST PUSH0 DUP1 SLOAD SWAP1 PUSH2 0x100 EXP SWAP1 DIV PUSH20 0xFFFFFFFFFFFFFFFFFFFFFFFFFFFFFFFFFFFFFFFF AND PUSH20 0xFFFFFFFFFFFFFFFFFFFFFFFFFFFFFFFFFFFFFFFF AND CALLER PUSH20 0xFFFFFFFFFFFFFFFFFFFFFFFFFFFFFFFFFFFFFFFF AND EQ DUP1 PUSH2 0x2006 JUMPI POP PUSH1 0x1 PUSH0 SWAP1 SLOAD SWAP1 PUSH2 0x100 EXP SWAP1 DIV PUSH20 0xFFFFFFFFFFFFFFFFFFFFFFFFFFFFFFFFFFFFFFFF AND PUSH20 0xFFFFFFFFFFFFFFFFFFFFFFFFFFFFFFFFFFFFFFFF AND CALLER PUSH20 0xFFFFFFFFFFFFFFFFFFFFFFFFFFFFFFFFFFFFFFFF AND EQ JUMPDEST PUSH2 0x2045 JUMPI PUSH1 0x40 MLOAD PUSH32 0x8C379A000000000000000000000000000000000000000000000000000000000 DUP2 MSTORE PUSH1 0x4 ADD PUSH2 0x203C SWAP1 PUSH2 0x2BEF JUMP JUMPDEST PUSH1 0x40 MLOAD DUP1 SWAP2 SUB SWAP1 REVERT JUMPDEST PUSH1 0x1 PUSH1 0x4 DUP2 GT ISZERO PUSH2 0x2059 JUMPI PUSH2 0x2058 PUSH2 0x26EE JUMP JUMPDEST JUMPDEST PUSH1 0x5 PUSH1 0x14 SWAP1 SLOAD SWAP1 PUSH2 0x100 EXP SWAP1 DIV PUSH1 0xFF AND PUSH1 0x4 DUP2 GT ISZERO PUSH2 0x207B JUMPI PUSH2 0x207A PUSH2 0x26EE JUMP JUMPDEST JUMPDEST EQ PUSH2 0x20BB JUMPI PUSH1 0x40 MLOAD PUSH32 0x8C379A000000000000000000000000000000000000000000000000000000000 DUP2 MSTORE PUSH1 0x4 ADD PUSH2 0x20B2 SWAP1 PUSH2 0x3903 JUMP JUMPDEST PUSH1 0x40 MLOAD DUP1 SWAP2 SUB SWAP1 REVERT JUMPDEST PUSH2 0x20C3 PUSH2 0x21E4 JUMP JUMPDEST PUSH2 0x2102 JUMPI PUSH1 0x40 MLOAD PUSH32 0x8C379A000000000000000000000000000000000000000000000000000000000 DUP2 MSTORE PUSH1 0x4 ADD PUSH2 0x20F9 SWAP1 PUSH2 0x3991 JUMP JUMPDEST PUSH1 0x40 MLOAD DUP1 SWAP2 SUB SWAP1 REVERT JUMPDEST PUSH1 0x1 PUSH1 0x3 PUSH0 CALLER PUSH20 0xFFFFFFFFFFFFFFFFFFFFFFFFFFFFFFFFFFFFFFFF AND PUSH20 0xFFFFFFFFFFFFFFFFFFFFFFFFFFFFFFFFFFFFFFFF AND DUP2 MSTORE PUSH1 0x20 ADD SWAP1 DUP2 MSTORE PUSH1 0x20 ADD PUSH0 KECCAK256 PUSH0 PUSH2 0x100 EXP DUP2 SLOAD DUP2 PUSH1 0xFF MUL NOT AND SWAP1 DUP4 ISZERO ISZERO MUL OR SWAP1 SSTORE POP JUMP JUMPDEST PUSH1 0xA PUSH0 SWAP1 SLOAD SWAP1 PUSH2 0x100 EXP SWAP1 DIV PUSH2 0xFFFF AND DUP2 JUMP JUMPDEST PUSH1 0x3 PUSH1 0x20 MSTORE DUP1 PUSH0 MSTORE PUSH1 0x40 PUSH0 KECCAK256 PUSH0 SWAP2 POP SLOAD SWAP1 PUSH2 0x100 EXP SWAP1 DIV PUSH1 0xFF AND DUP2 JUMP JUMPDEST PUSH0 DUP1 SLOAD SWAP1 PUSH2 0x100 EXP SWAP1 DIV PUSH20 0xFFFFFFFFFFFFFFFFFFFFFFFFFFFFFFFFFFFFFFFF AND DUP2 JUMP JUMPDEST PUSH0 DUP1 PUSH20 0xFFFFFFFFFFFFFFFFFFFFFFFFFFFFFFFFFFFFFFFF AND DUP3 PUSH20 0xFFFFFFFFFFFFFFFFFFFFFFFFFFFFFFFFFFFFFFFF AND EQ ISZERO SWAP1 POP SWAP2 SWAP1 POP JUMP JUMPDEST PUSH0 DUP1 PUSH2 0x2201 PUSH1 0x1 PUSH1 0x14 SWAP1 SLOAD SWAP1 PUSH2 0x100 EXP SWAP1 DIV PUSH4 0xFFFFFFFF AND PUSH2 0x403 JUMP JUMPDEST SWAP1 POP PUSH0 PUSH3 0x15180 DUP3 PUSH2 0x2213 SWAP2 SWAP1 PUSH2 0x39AF JUMP JUMPDEST SWAP1 POP DUP2 PUSH4 0xFFFFFFFF AND TIMESTAMP LT ISZERO DUP1 ISZERO PUSH2 0x2230 JUMPI POP DUP1 PUSH4 0xFFFFFFFF AND TIMESTAMP LT JUMPDEST SWAP3 POP POP POP SWAP1 JUMP JUMPDEST PUSH1 0x2 PUSH1 0x4 DUP2 GT ISZERO PUSH2 0x224B JUMPI PUSH2 0x224A PUSH2 0x26EE JUMP JUMPDEST JUMPDEST PUSH1 0x5 PUSH1 0x14 SWAP1 SLOAD SWAP1 PUSH2 0x100 EXP SWAP1 DIV PUSH1 0xFF AND PUSH1 0x4 DUP2 GT ISZERO PUSH2 0x226D JUMPI PUSH2 0x226C PUSH2 0x26EE JUMP JUMPDEST JUMPDEST SUB PUSH2 0x22AD JUMPI PUSH1 0x40 MLOAD PUSH32 0x8C379A000000000000000000000000000000000000000000000000000000000 DUP2 MSTORE PUSH1 0x4 ADD PUSH2 0x22A4 SWAP1 PUSH2 0x3A30 JUMP JUMPDEST PUSH1 0x40 MLOAD DUP1 SWAP2 SUB SWAP1 REVERT JUMPDEST PUSH1 0x4 PUSH1 0x5 PUSH1 0x14 PUSH2 0x100 EXP DUP2 SLOAD DUP2 PUSH1 0xFF MUL NOT AND SWAP1 DUP4 PUSH1 0x4 DUP2 GT ISZERO PUSH2 0x22D3 JUMPI PUSH2 0x22D2 PUSH2 0x26EE JUMP JUMPDEST JUMPDEST MUL OR SWAP1 SSTORE POP PUSH1 0x4 PUSH0 SWAP1 SLOAD SWAP1 PUSH2 0x100 EXP SWAP1 DIV PUSH20 0xFFFFFFFFFFFFFFFFFFFFFFFFFFFFFFFFFFFFFFFF AND PUSH20 0xFFFFFFFFFFFFFFFFFFFFFFFFFFFFFFFFFFFFFFFF AND PUSH4 0xF1A499E2 PUSH0 DUP1 SLOAD SWAP1 PUSH2 0x100 EXP SWAP1 DIV PUSH20 0xFFFFFFFFFFFFFFFFFFFFFFFFFFFFFFFFFFFFFFFF AND PUSH1 0x40 MLOAD DUP3 PUSH4 0xFFFFFFFF AND PUSH1 0xE0 SHL DUP2 MSTORE PUSH1 0x4 ADD PUSH2 0x2351 SWAP2 SWAP1 PUSH2 0x280E JUMP JUMPDEST PUSH0 PUSH1 0x40 MLOAD DUP1 DUP4 SUB DUP2 PUSH0 DUP8 DUP1 EXTCODESIZE ISZERO DUP1 ISZERO PUSH2 0x2368 JUMPI PUSH0 DUP1 REVERT JUMPDEST POP GAS CALL ISZERO DUP1 ISZERO PUSH2 0x237A JUMPI RETURNDATASIZE PUSH0 DUP1 RETURNDATACOPY RETURNDATASIZE PUSH0 REVERT JUMPDEST POP POP POP POP PUSH1 0x4 PUSH0 SWAP1 SLOAD SWAP1 PUSH2 0x100 EXP SWAP1 DIV PUSH20 0xFFFFFFFFFFFFFFFFFFFFFFFFFFFFFFFFFFFFFFFF AND PUSH20 0xFFFFFFFFFFFFFFFFFFFFFFFFFFFFFFFFFFFFFFFF AND PUSH4 0xF1A499E2 PUSH1 0x1 PUSH0 SWAP1 SLOAD SWAP1 PUSH2 0x100 EXP SWAP1 DIV PUSH20 0xFFFFFFFFFFFFFFFFFFFFFFFFFFFFFFFFFFFFFFFF AND PUSH1 0x40 MLOAD DUP3 PUSH4 0xFFFFFFFF AND PUSH1 0xE0 SHL DUP2 MSTORE PUSH1 0x4 ADD PUSH2 0x23F9 SWAP2 SWAP1 PUSH2 0x280E JUMP JUMPDEST PUSH0 PUSH1 0x40 MLOAD DUP1 DUP4 SUB DUP2 PUSH0 DUP8 DUP1 EXTCODESIZE ISZERO DUP1 ISZERO PUSH2 0x2410 JUMPI PUSH0 DUP1 REVERT JUMPDEST POP GAS CALL ISZERO DUP1 ISZERO PUSH2 0x2422 JUMPI RETURNDATASIZE PUSH0 DUP1 RETURNDATACOPY RETURNDATASIZE PUSH0 REVERT JUMPDEST POP POP POP POP PUSH1 0x1 PUSH0 SWAP1 SLOAD SWAP1 PUSH2 0x100 EXP SWAP1 DIV PUSH20 0xFFFFFFFFFFFFFFFFFFFFFFFFFFFFFFFFFFFFFFFF AND PUSH20 0xFFFFFFFFFFFFFFFFFFFFFFFFFFFFFFFFFFFFFFFF AND PUSH0 DUP1 SLOAD SWAP1 PUSH2 0x100 EXP SWAP1 DIV PUSH20 0xFFFFFFFFFFFFFFFFFFFFFFFFFFFFFFFFFFFFFFFF AND PUSH20 0xFFFFFFFFFFFFFFFFFFFFFFFFFFFFFFFFFFFFFFFF AND PUSH32 0xEF2FF083BCC8A022F43F0F90D8BAF5D39DD6139F8BE9943A343A61247527790D PUSH1 0x40 MLOAD PUSH1 0x40 MLOAD DUP1 SWAP2 SUB SWAP1 LOG3 JUMP JUMPDEST DUP3 DUP1 SLOAD DUP3 DUP3 SSTORE SWAP1 PUSH0 MSTORE PUSH1 0x20 PUSH0 KECCAK256 SWAP1 DUP2 ADD SWAP3 DUP3 ISZERO PUSH2 0x2538 JUMPI SWAP2 PUSH1 0x20 MUL DUP3 ADD JUMPDEST DUP3 DUP2 GT ISZERO PUSH2 0x2537 JUMPI DUP3 MLOAD DUP3 PUSH0 PUSH2 0x100 EXP DUP2 SLOAD DUP2 PUSH20 0xFFFFFFFFFFFFFFFFFFFFFFFFFFFFFFFFFFFFFFFF MUL NOT AND SWAP1 DUP4 PUSH20 0xFFFFFFFFFFFFFFFFFFFFFFFFFFFFFFFFFFFFFFFF AND MUL OR SWAP1 SSTORE POP SWAP2 PUSH1 0x20 ADD SWAP2 SWAP1 PUSH1 0x1 ADD SWAP1 PUSH2 0x24E0 JUMP JUMPDEST JUMPDEST POP SWAP1 POP PUSH2 0x2545 SWAP2 SWAP1 PUSH2 0x2549 JUMP JUMPDEST POP SWAP1 JUMP JUMPDEST JUMPDEST DUP1 DUP3 GT ISZERO PUSH2 0x2560 JUMPI PUSH0 DUP2 PUSH0 SWAP1 SSTORE POP PUSH1 0x1 ADD PUSH2 0x254A JUMP JUMPDEST POP SWAP1 JUMP JUMPDEST PUSH0 PUSH2 0xFFFF DUP3 AND SWAP1 POP SWAP2 SWAP1 POP JUMP JUMPDEST PUSH2 0x257A DUP2 PUSH2 0x2564 JUMP JUMPDEST DUP3 MSTORE POP POP JUMP JUMPDEST PUSH0 PUSH1 0x20 DUP3 ADD SWAP1 POP PUSH2 0x2593 PUSH0 DUP4 ADD DUP5 PUSH2 0x2571 JUMP JUMPDEST SWAP3 SWAP2 POP POP JUMP JUMPDEST PUSH0 PUSH1 0x40 MLOAD SWAP1 POP SWAP1 JUMP JUMPDEST PUSH0 DUP1 REVERT JUMPDEST PUSH0 DUP1 REVERT JUMPDEST PUSH0 PUSH4 0xFFFFFFFF DUP3 AND SWAP1 POP SWAP2 SWAP1 POP JUMP JUMPDEST PUSH2 0x25C2 DUP2 PUSH2 0x25AA JUMP JUMPDEST DUP2 EQ PUSH2 0x25CC JUMPI PUSH0 DUP1 REVERT JUMPDEST POP JUMP JUMPDEST PUSH0 DUP2 CALLDATALOAD SWAP1 POP PUSH2 0x25DD DUP2 PUSH2 0x25B9 JUMP JUMPDEST SWAP3 SWAP2 POP POP JUMP JUMPDEST PUSH0 PUSH1 0x20 DUP3 DUP5 SUB SLT ISZERO PUSH2 0x25F8 JUMPI PUSH2 0x25F7 PUSH2 0x25A2 JUMP JUMPDEST JUMPDEST PUSH0 PUSH2 0x2605 DUP5 DUP3 DUP6 ADD PUSH2 0x25CF JUMP JUMPDEST SWAP2 POP POP SWAP3 SWAP2 POP POP JUMP JUMPDEST PUSH2 0x2617 DUP2 PUSH2 0x25AA JUMP JUMPDEST DUP3 MSTORE POP POP JUMP JUMPDEST PUSH0 PUSH1 0x20 DUP3 ADD SWAP1 POP PUSH2 0x2630 PUSH0 DUP4 ADD DUP5 PUSH2 0x260E JUMP JUMPDEST SWAP3 SWAP2 POP POP JUMP JUMPDEST PUSH0 PUSH20 0xFFFFFFFFFFFFFFFFFFFFFFFFFFFFFFFFFFFFFFFF DUP3 AND SWAP1 POP SWAP2 SWAP1 POP JUMP JUMPDEST PUSH0 PUSH2 0x265F DUP3 PUSH2 0x2636 JUMP JUMPDEST SWAP1 POP SWAP2 SWAP1 POP JUMP JUMPDEST PUSH2 0x266F DUP2 PUSH2 0x2655 JUMP JUMPDEST DUP2 EQ PUSH2 0x2679 JUMPI PUSH0 DUP1 REVERT JUMPDEST POP JUMP JUMPDEST PUSH0 DUP2 CALLDATALOAD SWAP1 POP PUSH2 0x268A DUP2 PUSH2 0x2666 JUMP JUMPDEST SWAP3 SWAP2 POP POP JUMP JUMPDEST PUSH0 PUSH1 0x20 DUP3 DUP5 SUB SLT ISZERO PUSH2 0x26A5 JUMPI PUSH2 0x26A4 PUSH2 0x25A2 JUMP JUMPDEST JUMPDEST PUSH0 PUSH2 0x26B2 DUP5 DUP3 DUP6 ADD PUSH2 0x267C JUMP JUMPDEST SWAP2 POP POP SWAP3 SWAP2 POP POP JUMP JUMPDEST PUSH0 DUP2 ISZERO ISZERO SWAP1 POP SWAP2 SWAP1 POP JUMP JUMPDEST PUSH2 0x26CF DUP2 PUSH2 0x26BB JUMP JUMPDEST DUP3 MSTORE POP POP JUMP JUMPDEST PUSH0 PUSH1 0x20 DUP3 ADD SWAP1 POP PUSH2 0x26E8 PUSH0 DUP4 ADD DUP5 PUSH2 0x26C6 JUMP JUMPDEST SWAP3 SWAP2 POP POP JUMP JUMPDEST PUSH32 0x4E487B7100000000000000000000000000000000000000000000000000000000 PUSH0 MSTORE PUSH1 0x21 PUSH1 0x4 MSTORE PUSH1 0x24 PUSH0 REVERT JUMPDEST PUSH1 0x5 DUP2 LT PUSH2 0x272C JUMPI PUSH2 0x272B PUSH2 0x26EE JUMP JUMPDEST JUMPDEST POP JUMP JUMPDEST PUSH0 DUP2 SWAP1 POP PUSH2 0x273C DUP3 PUSH2 0x271B JUMP JUMPDEST SWAP2 SWAP1 POP JUMP JUMPDEST PUSH0 PUSH2 0x274B DUP3 PUSH2 0x272F JUMP JUMPDEST SWAP1 POP SWAP2 SWAP1 POP JUMP JUMPDEST PUSH2 0x275B DUP2 PUSH2 0x2741 JUMP JUMPDEST DUP3 MSTORE POP POP JUMP JUMPDEST PUSH0 PUSH1 0x20 DUP3 ADD SWAP1 POP PUSH2 0x2774 PUSH0 DUP4 ADD DUP5 PUSH2 0x2752 JUMP JUMPDEST SWAP3 SWAP2 POP POP JUMP JUMPDEST PUSH0 PUSH1 0x40 DUP3 ADD SWAP1 POP PUSH2 0x278D PUSH0 DUP4 ADD DUP6 PUSH2 0x26C6 JUMP JUMPDEST PUSH2 0x279A PUSH1 0x20 DUP4 ADD DUP5 PUSH2 0x26C6 JUMP JUMPDEST SWAP4 SWAP3 POP POP POP JUMP JUMPDEST PUSH0 DUP2 SWAP1 POP SWAP2 SWAP1 POP JUMP JUMPDEST PUSH2 0x27B3 DUP2 PUSH2 0x27A1 JUMP JUMPDEST DUP2 EQ PUSH2 0x27BD JUMPI PUSH0 DUP1 REVERT JUMPDEST POP JUMP JUMPDEST PUSH0 DUP2 CALLDATALOAD SWAP1 POP PUSH2 0x27CE DUP2 PUSH2 0x27AA JUMP JUMPDEST SWAP3 SWAP2 POP POP JUMP JUMPDEST PUSH0 PUSH1 0x20 DUP3 DUP5 SUB SLT ISZERO PUSH2 0x27E9 JUMPI PUSH2 0x27E8 PUSH2 0x25A2 JUMP JUMPDEST JUMPDEST PUSH0 PUSH2 0x27F6 DUP5 DUP3 DUP6 ADD PUSH2 0x27C0 JUMP JUMPDEST SWAP2 POP POP SWAP3 SWAP2 POP POP JUMP JUMPDEST PUSH2 0x2808 DUP2 PUSH2 0x2655 JUMP JUMPDEST DUP3 MSTORE POP POP JUMP JUMPDEST PUSH0 PUSH1 0x20 DUP3 ADD SWAP1 POP PUSH2 0x2821 PUSH0 DUP4 ADD DUP5 PUSH2 0x27FF JUMP JUMPDEST SWAP3 SWAP2 POP POP JUMP JUMPDEST PUSH0 DUP1 PUSH1 0x40 DUP4 DUP6 SUB SLT ISZERO PUSH2 0x283D JUMPI PUSH2 0x283C PUSH2 0x25A2 JUMP JUMPDEST JUMPDEST PUSH0 PUSH2 0x284A DUP6 DUP3 DUP7 ADD PUSH2 0x267C JUMP JUMPDEST SWAP3 POP POP PUSH1 0x20 PUSH2 0x285B DUP6 DUP3 DUP7 ADD PUSH2 0x25CF JUMP JUMPDEST SWAP2 POP POP SWAP3 POP SWAP3 SWAP1 POP JUMP JUMPDEST PUSH0 DUP1 REVERT JUMPDEST PUSH0 PUSH1 0x1F NOT PUSH1 0x1F DUP4 ADD AND SWAP1 POP SWAP2 SWAP1 POP JUMP JUMPDEST PUSH32 0x4E487B7100000000000000000000000000000000000000000000000000000000 PUSH0 MSTORE PUSH1 0x41 PUSH1 0x4 MSTORE PUSH1 0x24 PUSH0 REVERT JUMPDEST PUSH2 0x28AF DUP3 PUSH2 0x2869 JUMP JUMPDEST DUP2 ADD DUP2 DUP2 LT PUSH8 0xFFFFFFFFFFFFFFFF DUP3 GT OR ISZERO PUSH2 0x28CE JUMPI PUSH2 0x28CD PUSH2 0x2879 JUMP JUMPDEST JUMPDEST DUP1 PUSH1 0x40 MSTORE POP POP POP JUMP JUMPDEST PUSH0 PUSH2 0x28E0 PUSH2 0x2599 JUMP JUMPDEST SWAP1 POP PUSH2 0x28EC DUP3 DUP3 PUSH2 0x28A6 JUMP JUMPDEST SWAP2 SWAP1 POP JUMP JUMPDEST PUSH0 PUSH8 0xFFFFFFFFFFFFFFFF DUP3 GT ISZERO PUSH2 0x290B JUMPI PUSH2 0x290A PUSH2 0x2879 JUMP JUMPDEST JUMPDEST PUSH1 0x20 DUP3 MUL SWAP1 POP PUSH1 0x20 DUP2 ADD SWAP1 POP SWAP2 SWAP1 POP JUMP JUMPDEST PUSH0 DUP1 REVERT JUMPDEST PUSH0 PUSH2 0x2932 PUSH2 0x292D DUP5 PUSH2 0x28F1 JUMP JUMPDEST PUSH2 0x28D7 JUMP JUMPDEST SWAP1 POP DUP1 DUP4 DUP3 MSTORE PUSH1 0x20 DUP3 ADD SWAP1 POP PUSH1 0x20 DUP5 MUL DUP4 ADD DUP6 DUP2 GT ISZERO PUSH2 0x2955 JUMPI PUSH2 0x2954 PUSH2 0x291C JUMP JUMPDEST JUMPDEST DUP4 JUMPDEST DUP2 DUP2 LT ISZERO PUSH2 0x297E JUMPI DUP1 PUSH2 0x296A DUP9 DUP3 PUSH2 0x267C JUMP JUMPDEST DUP5 MSTORE PUSH1 0x20 DUP5 ADD SWAP4 POP POP PUSH1 0x20 DUP2 ADD SWAP1 POP PUSH2 0x2957 JUMP JUMPDEST POP POP POP SWAP4 SWAP3 POP POP POP JUMP JUMPDEST PUSH0 DUP3 PUSH1 0x1F DUP4 ADD SLT PUSH2 0x299C JUMPI PUSH2 0x299B PUSH2 0x2865 JUMP JUMPDEST JUMPDEST DUP2 CALLDATALOAD PUSH2 0x29AC DUP5 DUP3 PUSH1 0x20 DUP7 ADD PUSH2 0x2920 JUMP JUMPDEST SWAP2 POP POP SWAP3 SWAP2 POP POP JUMP JUMPDEST PUSH0 PUSH1 0x20 DUP3 DUP5 SUB SLT ISZERO PUSH2 0x29CA JUMPI PUSH2 0x29C9 PUSH2 0x25A2 JUMP JUMPDEST JUMPDEST PUSH0 DUP3 ADD CALLDATALOAD PUSH8 0xFFFFFFFFFFFFFFFF DUP2 GT ISZERO PUSH2 0x29E7 JUMPI PUSH2 0x29E6 PUSH2 0x25A6 JUMP JUMPDEST JUMPDEST PUSH2 0x29F3 DUP5 DUP3 DUP6 ADD PUSH2 0x2988 JUMP JUMPDEST SWAP2 POP POP SWAP3 SWAP2 POP POP JUMP JUMPDEST PUSH0 DUP2 SWAP1 POP SWAP2 SWAP1 POP JUMP JUMPDEST PUSH0 PUSH2 0x2A1F PUSH2 0x2A1A PUSH2 0x2A15 DUP5 PUSH2 0x2636 JUMP JUMPDEST PUSH2 0x29FC JUMP JUMPDEST PUSH2 0x2636 JUMP JUMPDEST SWAP1 POP SWAP2 SWAP1 POP JUMP JUMPDEST PUSH0 PUSH2 0x2A30 DUP3 PUSH2 0x2A05 JUMP JUMPDEST SWAP1 POP SWAP2 SWAP1 POP JUMP JUMPDEST PUSH0 PUSH2 0x2A41 DUP3 PUSH2 0x2A26 JUMP JUMPDEST SWAP1 POP SWAP2 SWAP1 POP JUMP JUMPDEST PUSH2 0x2A51 DUP2 PUSH2 0x2A37 JUMP JUMPDEST DUP3 MSTORE POP POP JUMP JUMPDEST PUSH0 PUSH1 0x20 DUP3 ADD SWAP1 POP PUSH2 0x2A6A PUSH0 DUP4 ADD DUP5 PUSH2 0x2A48 JUMP JUMPDEST SWAP3 SWAP2 POP POP JUMP JUMPDEST PUSH0 PUSH2 0x2A7A DUP3 PUSH2 0x2A26 JUMP JUMPDEST SWAP1 POP SWAP2 SWAP1 POP JUMP JUMPDEST PUSH2 0x2A8A DUP2 PUSH2 0x2A70 JUMP JUMPDEST DUP3 MSTORE POP POP JUMP JUMPDEST PUSH0 PUSH1 0x20 DUP3 ADD SWAP1 POP PUSH2 0x2AA3 PUSH0 DUP4 ADD DUP5 PUSH2 0x2A81 JUMP JUMPDEST SWAP3 SWAP2 POP POP JUMP JUMPDEST PUSH32 0x4E487B7100000000000000000000000000000000000000000000000000000000 PUSH0 MSTORE PUSH1 0x12 PUSH1 0x4 MSTORE PUSH1 0x24 PUSH0 REVERT JUMPDEST PUSH32 0x4E487B7100000000000000000000000000000000000000000000000000000000 PUSH0 MSTORE PUSH1 0x11 PUSH1 0x4 MSTORE PUSH1 0x24 PUSH0 REVERT JUMPDEST PUSH0 PUSH2 0x2B0D DUP3 PUSH2 0x25AA JUMP JUMPDEST SWAP2 POP PUSH2 0x2B18 DUP4 PUSH2 0x25AA JUMP JUMPDEST SWAP3 POP DUP3 PUSH2 0x2B28 JUMPI PUSH2 0x2B27 PUSH2 0x2AA9 JUMP JUMPDEST JUMPDEST DUP3 DUP3 DIV SWAP1 POP SWAP3 SWAP2 POP POP JUMP JUMPDEST PUSH0 PUSH2 0x2B3D DUP3 PUSH2 0x25AA JUMP JUMPDEST SWAP2 POP PUSH2 0x2B48 DUP4 PUSH2 0x25AA JUMP JUMPDEST SWAP3 POP DUP3 DUP3 MUL PUSH2 0x2B56 DUP2 PUSH2 0x25AA JUMP JUMPDEST SWAP2 POP DUP1 DUP3 EQ PUSH2 0x2B68 JUMPI PUSH2 0x2B67 PUSH2 0x2AD6 JUMP JUMPDEST JUMPDEST POP SWAP3 SWAP2 POP POP JUMP JUMPDEST PUSH0 DUP3 DUP3 MSTORE PUSH1 0x20 DUP3 ADD SWAP1 POP SWAP3 SWAP2 POP POP JUMP JUMPDEST PUSH32 0x4F6E6C792073706F757365732063616E2063616C6C20746869732066756E6374 PUSH0 DUP3 ADD MSTORE PUSH32 0x696F6E0000000000000000000000000000000000000000000000000000000000 PUSH1 0x20 DUP3 ADD MSTORE POP JUMP JUMPDEST PUSH0 PUSH2 0x2BD9 PUSH1 0x23 DUP4 PUSH2 0x2B6F JUMP JUMPDEST SWAP2 POP PUSH2 0x2BE4 DUP3 PUSH2 0x2B7F JUMP JUMPDEST PUSH1 0x40 DUP3 ADD SWAP1 POP SWAP2 SWAP1 POP JUMP JUMPDEST PUSH0 PUSH1 0x20 DUP3 ADD SWAP1 POP DUP2 DUP2 SUB PUSH0 DUP4 ADD MSTORE PUSH2 0x2C06 DUP2 PUSH2 0x2BCD JUMP JUMPDEST SWAP1 POP SWAP2 SWAP1 POP JUMP JUMPDEST PUSH32 0x496E76616C696420656E676167656D656E742073746174757300000000000000 PUSH0 DUP3 ADD MSTORE POP JUMP JUMPDEST PUSH0 PUSH2 0x2C41 PUSH1 0x19 DUP4 PUSH2 0x2B6F JUMP JUMPDEST SWAP2 POP PUSH2 0x2C4C DUP3 PUSH2 0x2C0D JUMP JUMPDEST PUSH1 0x20 DUP3 ADD SWAP1 POP SWAP2 SWAP1 POP JUMP JUMPDEST PUSH0 PUSH1 0x20 DUP3 ADD SWAP1 POP DUP2 DUP2 SUB PUSH0 DUP4 ADD MSTORE PUSH2 0x2C6E DUP2 PUSH2 0x2C35 JUMP JUMPDEST SWAP1 POP SWAP2 SWAP1 POP JUMP JUMPDEST PUSH32 0x4775657374206C69737420616C726561647920636F6E6669726D656400000000 PUSH0 DUP3 ADD MSTORE POP JUMP JUMPDEST PUSH0 PUSH2 0x2CA9 PUSH1 0x1C DUP4 PUSH2 0x2B6F JUMP JUMPDEST SWAP2 POP PUSH2 0x2CB4 DUP3 PUSH2 0x2C75 JUMP JUMPDEST PUSH1 0x20 DUP3 ADD SWAP1 POP SWAP2 SWAP1 POP JUMP JUMPDEST PUSH0 PUSH1 0x20 DUP3 ADD SWAP1 POP DUP2 DUP2 SUB PUSH0 DUP4 ADD MSTORE PUSH2 0x2CD6 DUP2 PUSH2 0x2C9D JUMP JUMPDEST SWAP1 POP SWAP2 SWAP1 POP JUMP JUMPDEST PUSH32 0x4E6F207061727469636970616E74732070726F706F7365640000000000000000 PUSH0 DUP3 ADD MSTORE POP JUMP JUMPDEST PUSH0 PUSH2 0x2D11 PUSH1 0x18 DUP4 PUSH2 0x2B6F JUMP JUMPDEST SWAP2 POP PUSH2 0x2D1C DUP3 PUSH2 0x2CDD JUMP JUMPDEST PUSH1 0x20 DUP3 ADD SWAP1 POP SWAP2 SWAP1 POP JUMP JUMPDEST PUSH0 PUSH1 0x20 DUP3 ADD SWAP1 POP DUP2 DUP2 SUB PUSH0 DUP4 ADD MSTORE PUSH2 0x2D3E DUP2 PUSH2 0x2D05 JUMP JUMPDEST SWAP1 POP SWAP2 SWAP1 POP JUMP JUMPDEST PUSH0 DUP2 SLOAD SWAP1 POP SWAP2 SWAP1 POP JUMP JUMPDEST PUSH0 DUP3 DUP3 MSTORE PUSH1 0x20 DUP3 ADD SWAP1 POP SWAP3 SWAP2 POP POP JUMP JUMPDEST PUSH0 DUP2 SWAP1 POP DUP2 PUSH0 MSTORE PUSH1 0x20 PUSH0 KECCAK256 SWAP1 POP SWAP2 SWAP1 POP JUMP JUMPDEST PUSH2 0x2D7A DUP2 PUSH2 0x2655 JUMP JUMPDEST DUP3 MSTORE POP POP JUMP JUMPDEST PUSH0 PUSH2 0x2D8B DUP4 DUP4 PUSH2 0x2D71 JUMP JUMPDEST PUSH1 0x20 DUP4 ADD SWAP1 POP SWAP3 SWAP2 POP POP JUMP JUMPDEST PUSH0 DUP2 PUSH0 SHR SWAP1 POP SWAP2 SWAP1 POP JUMP JUMPDEST PUSH0 PUSH20 0xFFFFFFFFFFFFFFFFFFFFFFFFFFFFFFFFFFFFFFFF DUP3 AND SWAP1 POP SWAP2 SWAP1 POP JUMP JUMPDEST PUSH0 PUSH2 0x2DD3 PUSH2 0x2DCE DUP4 PUSH2 0x2D97 JUMP JUMPDEST PUSH2 0x2DA2 JUMP JUMPDEST SWAP1 POP SWAP2 SWAP1 POP JUMP JUMPDEST PUSH0 PUSH2 0x2DE5 DUP3 SLOAD PUSH2 0x2DC1 JUMP JUMPDEST SWAP1 POP SWAP2 SWAP1 POP JUMP JUMPDEST PUSH0 PUSH1 0x1 DUP3 ADD SWAP1 POP SWAP2 SWAP1 POP JUMP JUMPDEST PUSH0 PUSH2 0x2E02 DUP3 PUSH2 0x2D45 JUMP JUMPDEST PUSH2 0x2E0C DUP2 DUP6 PUSH2 0x2D4F JUMP JUMPDEST SWAP4 POP PUSH2 0x2E17 DUP4 PUSH2 0x2D5F JUMP JUMPDEST DUP1 PUSH0 JUMPDEST DUP4 DUP2 LT ISZERO PUSH2 0x2E4E JUMPI PUSH2 0x2E2B DUP3 PUSH2 0x2DDA JUMP JUMPDEST PUSH2 0x2E35 DUP9 DUP3 PUSH2 0x2D80 JUMP JUMPDEST SWAP8 POP PUSH2 0x2E40 DUP4 PUSH2 0x2DEC JUMP JUMPDEST SWAP3 POP POP PUSH1 0x1 DUP2 ADD SWAP1 POP PUSH2 0x2E1A JUMP JUMPDEST POP DUP6 SWAP4 POP POP POP POP SWAP3 SWAP2 POP POP JUMP JUMPDEST PUSH0 PUSH1 0x20 DUP3 ADD SWAP1 POP DUP2 DUP2 SUB PUSH0 DUP4 ADD MSTORE PUSH2 0x2E73 DUP2 DUP5 PUSH2 0x2DF8 JUMP JUMPDEST SWAP1 POP SWAP3 SWAP2 POP POP JUMP JUMPDEST PUSH32 0x43616E6E6F74206D6172727920796F757273656C660000000000000000000000 PUSH0 DUP3 ADD MSTORE POP JUMP JUMPDEST PUSH0 PUSH2 0x2EAF PUSH1 0x15 DUP4 PUSH2 0x2B6F JUMP JUMPDEST SWAP2 POP PUSH2 0x2EBA DUP3 PUSH2 0x2E7B JUMP JUMPDEST PUSH1 0x20 DUP3 ADD SWAP1 POP SWAP2 SWAP1 POP JUMP JUMPDEST PUSH0 PUSH1 0x20 DUP3 ADD SWAP1 POP DUP2 DUP2 SUB PUSH0 DUP4 ADD MSTORE PUSH2 0x2EDC DUP2 PUSH2 0x2EA3 JUMP JUMPDEST SWAP1 POP SWAP2 SWAP1 POP JUMP JUMPDEST PUSH32 0x496E76616C696420616464726573730000000000000000000000000000000000 PUSH0 DUP3 ADD MSTORE POP JUMP JUMPDEST PUSH0 PUSH2 0x2F17 PUSH1 0xF DUP4 PUSH2 0x2B6F JUMP JUMPDEST SWAP2 POP PUSH2 0x2F22 DUP3 PUSH2 0x2EE3 JUMP JUMPDEST PUSH1 0x20 DUP3 ADD SWAP1 POP SWAP2 SWAP1 POP JUMP JUMPDEST PUSH0 PUSH1 0x20 DUP3 ADD SWAP1 POP DUP2 DUP2 SUB PUSH0 DUP4 ADD MSTORE PUSH2 0x2F44 DUP2 PUSH2 0x2F0B JUMP JUMPDEST SWAP1 POP SWAP2 SWAP1 POP JUMP JUMPDEST PUSH0 PUSH2 0x2F55 DUP3 PUSH2 0x27A1 JUMP JUMPDEST SWAP2 POP PUSH2 0x2F60 DUP4 PUSH2 0x27A1 JUMP JUMPDEST SWAP3 POP DUP3 DUP3 ADD SWAP1 POP DUP1 DUP3 GT ISZERO PUSH2 0x2F78 JUMPI PUSH2 0x2F77 PUSH2 0x2AD6 JUMP JUMPDEST JUMPDEST SWAP3 SWAP2 POP POP JUMP JUMPDEST PUSH32 0x43616E6E6F74207365742064617465206F662077656464696E6720746F206265 PUSH0 DUP3 ADD MSTORE PUSH32 0x206C657373207468616E203130207365636F6E647320696E20616476616E6365 PUSH1 0x20 DUP3 ADD MSTORE POP JUMP JUMPDEST PUSH0 PUSH2 0x2FD8 PUSH1 0x40 DUP4 PUSH2 0x2B6F JUMP JUMPDEST SWAP2 POP PUSH2 0x2FE3 DUP3 PUSH2 0x2F7E JUMP JUMPDEST PUSH1 0x40 DUP3 ADD SWAP1 POP SWAP2 SWAP1 POP JUMP JUMPDEST PUSH0 PUSH1 0x20 DUP3 ADD SWAP1 POP DUP2 DUP2 SUB PUSH0 DUP4 ADD MSTORE PUSH2 0x3005 DUP2 PUSH2 0x2FCC JUMP JUMPDEST SWAP1 POP SWAP2 SWAP1 POP JUMP JUMPDEST PUSH32 0x53706F7573657320616C726561647920616772656564206F6E20706172746963 PUSH0 DUP3 ADD MSTORE PUSH32 0x69706174696F6E206C6973740000000000000000000000000000000000000000 PUSH1 0x20 DUP3 ADD MSTORE POP JUMP JUMPDEST PUSH0 PUSH2 0x3066 PUSH1 0x2C DUP4 PUSH2 0x2B6F JUMP JUMPDEST SWAP2 POP PUSH2 0x3071 DUP3 PUSH2 0x300C JUMP JUMPDEST PUSH1 0x40 DUP3 ADD SWAP1 POP SWAP2 SWAP1 POP JUMP JUMPDEST PUSH0 PUSH1 0x20 DUP3 ADD SWAP1 POP DUP2 DUP2 SUB PUSH0 DUP4 ADD MSTORE PUSH2 0x3093 DUP2 PUSH2 0x305A JUMP JUMPDEST SWAP1 POP SWAP2 SWAP1 POP JUMP JUMPDEST PUSH32 0x4E487B7100000000000000000000000000000000000000000000000000000000 PUSH0 MSTORE PUSH1 0x32 PUSH1 0x4 MSTORE PUSH1 0x24 PUSH0 REVERT JUMPDEST PUSH32 0x43616E6E6F7420696E7669746520616E20696E76616C69642061646472657373 PUSH0 DUP3 ADD MSTORE POP JUMP JUMPDEST PUSH0 PUSH2 0x30FB PUSH1 0x20 DUP4 PUSH2 0x2B6F JUMP JUMPDEST SWAP2 POP PUSH2 0x3106 DUP3 PUSH2 0x30C7 JUMP JUMPDEST PUSH1 0x20 DUP3 ADD SWAP1 POP SWAP2 SWAP1 POP JUMP JUMPDEST PUSH0 PUSH1 0x20 DUP3 ADD SWAP1 POP DUP2 DUP2 SUB PUSH0 DUP4 ADD MSTORE PUSH2 0x3128 DUP2 PUSH2 0x30EF JUMP JUMPDEST SWAP1 POP SWAP2 SWAP1 POP JUMP JUMPDEST PUSH0 PUSH1 0xFF DUP3 AND SWAP1 POP SWAP2 SWAP1 POP JUMP JUMPDEST PUSH0 PUSH2 0x3145 DUP3 PUSH2 0x312F JUMP JUMPDEST SWAP2 POP PUSH1 0xFF DUP3 SUB PUSH2 0x3158 JUMPI PUSH2 0x3157 PUSH2 0x2AD6 JUMP JUMPDEST JUMPDEST PUSH1 0x1 DUP3 ADD SWAP1 POP SWAP2 SWAP1 POP JUMP JUMPDEST PUSH0 DUP2 MLOAD SWAP1 POP SWAP2 SWAP1 POP JUMP JUMPDEST PUSH0 DUP2 SWAP1 POP PUSH1 0x20 DUP3 ADD SWAP1 POP SWAP2 SWAP1 POP JUMP JUMPDEST PUSH0 PUSH1 0x20 DUP3 ADD SWAP1 POP SWAP2 SWAP1 POP JUMP JUMPDEST PUSH0 PUSH2 0x3192 DUP3 PUSH2 0x3163 JUMP JUMPDEST PUSH2 0x319C DUP2 DUP6 PUSH2 0x2D4F JUMP JUMPDEST SWAP4 POP PUSH2 0x31A7 DUP4 PUSH2 0x316D JUMP JUMPDEST DUP1 PUSH0 JUMPDEST DUP4 DUP2 LT ISZERO PUSH2 0x31D7 JUMPI DUP2 MLOAD PUSH2 0x31BE DUP9 DUP3 PUSH2 0x2D80 JUMP JUMPDEST SWAP8 POP PUSH2 0x31C9 DUP4 PUSH2 0x317C JUMP JUMPDEST SWAP3 POP POP PUSH1 0x1 DUP2 ADD SWAP1 POP PUSH2 0x31AA JUMP JUMPDEST POP DUP6 SWAP4 POP POP POP POP SWAP3 SWAP2 POP POP JUMP JUMPDEST PUSH0 PUSH1 0x20 DUP3 ADD SWAP1 POP DUP2 DUP2 SUB PUSH0 DUP4 ADD MSTORE PUSH2 0x31FC DUP2 DUP5 PUSH2 0x3188 JUMP JUMPDEST SWAP1 POP SWAP3 SWAP2 POP POP JUMP JUMPDEST PUSH32 0x596F752063616E2774207265766F6B6520616E20756E61637469766520656E67 PUSH0 DUP3 ADD MSTORE PUSH32 0x6167656D656E7400000000000000000000000000000000000000000000000000 PUSH1 0x20 DUP3 ADD MSTORE POP JUMP JUMPDEST PUSH0 PUSH2 0x325E PUSH1 0x27 DUP4 PUSH2 0x2B6F JUMP JUMPDEST SWAP2 POP PUSH2 0x3269 DUP3 PUSH2 0x3204 JUMP JUMPDEST PUSH1 0x40 DUP3 ADD SWAP1 POP SWAP2 SWAP1 POP JUMP JUMPDEST PUSH0 PUSH1 0x20 DUP3 ADD SWAP1 POP DUP2 DUP2 SUB PUSH0 DUP4 ADD MSTORE PUSH2 0x328B DUP2 PUSH2 0x3252 JUMP JUMPDEST SWAP1 POP SWAP2 SWAP1 POP JUMP JUMPDEST PUSH32 0x7961790000000000000000000000000000000000000000000000000000000000 PUSH0 DUP3 ADD MSTORE POP JUMP JUMPDEST PUSH0 PUSH2 0x32C6 PUSH1 0x3 DUP4 PUSH2 0x2B6F JUMP JUMPDEST SWAP2 POP PUSH2 0x32D1 DUP3 PUSH2 0x3292 JUMP JUMPDEST PUSH1 0x20 DUP3 ADD SWAP1 POP SWAP2 SWAP1 POP JUMP JUMPDEST PUSH0 PUSH1 0x20 DUP3 ADD SWAP1 POP DUP2 DUP2 SUB PUSH0 DUP4 ADD MSTORE PUSH2 0x32F3 DUP2 PUSH2 0x32BA JUMP JUMPDEST SWAP1 POP SWAP2 SWAP1 POP JUMP JUMPDEST PUSH32 0x536F6D656F6E65206F74686572207468616E2073706F757365322063616E6E6F PUSH0 DUP3 ADD MSTORE PUSH32 0x742070726F706F73652061206E65772077656464696E67206461746500000000 PUSH1 0x20 DUP3 ADD MSTORE POP JUMP JUMPDEST PUSH0 PUSH2 0x3354 PUSH1 0x3C DUP4 PUSH2 0x2B6F JUMP JUMPDEST SWAP2 POP PUSH2 0x335F DUP3 PUSH2 0x32FA JUMP JUMPDEST PUSH1 0x40 DUP3 ADD SWAP1 POP SWAP2 SWAP1 POP JUMP JUMPDEST PUSH0 PUSH1 0x20 DUP3 ADD SWAP1 POP DUP2 DUP2 SUB PUSH0 DUP4 ADD MSTORE PUSH2 0x3381 DUP2 PUSH2 0x3348 JUMP JUMPDEST SWAP1 POP SWAP2 SWAP1 POP JUMP JUMPDEST PUSH32 0x426F74682073706F75736573206D75737420626520656E676167656420746F20 PUSH0 DUP3 ADD MSTORE PUSH32 0x6D61727279000000000000000000000000000000000000000000000000000000 PUSH1 0x20 DUP3 ADD MSTORE POP JUMP JUMPDEST PUSH0 PUSH2 0x33E2 PUSH1 0x25 DUP4 PUSH2 0x2B6F JUMP JUMPDEST SWAP2 POP PUSH2 0x33ED DUP3 PUSH2 0x3388 JUMP JUMPDEST PUSH1 0x40 DUP3 ADD SWAP1 POP SWAP2 SWAP1 POP JUMP JUMPDEST PUSH0 PUSH1 0x20 DUP3 ADD SWAP1 POP DUP2 DUP2 SUB PUSH0 DUP4 ADD MSTORE PUSH2 0x340F DUP2 PUSH2 0x33D6 JUMP JUMPDEST SWAP1 POP SWAP2 SWAP1 POP JUMP JUMPDEST PUSH32 0x426F74682073706F75736573206D75737420736179204920646F20746F206765 PUSH0 DUP3 ADD MSTORE PUSH32 0x74206D6172726965640000000000000000000000000000000000000000000000 PUSH1 0x20 DUP3 ADD MSTORE POP JUMP JUMPDEST PUSH0 PUSH2 0x3470 PUSH1 0x29 DUP4 PUSH2 0x2B6F JUMP JUMPDEST SWAP2 POP PUSH2 0x347B DUP3 PUSH2 0x3416 JUMP JUMPDEST PUSH1 0x40 DUP3 ADD SWAP1 POP SWAP2 SWAP1 POP JUMP JUMPDEST PUSH0 PUSH1 0x20 DUP3 ADD SWAP1 POP DUP2 DUP2 SUB PUSH0 DUP4 ADD MSTORE PUSH2 0x349D DUP2 PUSH2 0x3464 JUMP JUMPDEST SWAP1 POP SWAP2 SWAP1 POP JUMP JUMPDEST PUSH0 PUSH2 0x34AE DUP3 PUSH2 0x2564 JUMP JUMPDEST SWAP2 POP PUSH2 0xFFFF DUP3 SUB PUSH2 0x34C2 JUMPI PUSH2 0x34C1 PUSH2 0x2AD6 JUMP JUMPDEST JUMPDEST PUSH1 0x1 DUP3 ADD SWAP1 POP SWAP2 SWAP1 POP JUMP JUMPDEST PUSH32 0x596F7520617265206E6F74206120677565737420617420746869732077656464 PUSH0 DUP3 ADD MSTORE PUSH32 0x696E670000000000000000000000000000000000000000000000000000000000 PUSH1 0x20 DUP3 ADD MSTORE POP JUMP JUMPDEST PUSH0 PUSH2 0x3527 PUSH1 0x23 DUP4 PUSH2 0x2B6F JUMP JUMPDEST SWAP2 POP PUSH2 0x3532 DUP3 PUSH2 0x34CD JUMP JUMPDEST PUSH1 0x40 DUP3 ADD SWAP1 POP SWAP2 SWAP1 POP JUMP JUMPDEST PUSH0 PUSH1 0x20 DUP3 ADD SWAP1 POP DUP2 DUP2 SUB PUSH0 DUP4 ADD MSTORE PUSH2 0x3554 DUP2 PUSH2 0x351B JUMP JUMPDEST SWAP1 POP SWAP2 SWAP1 POP JUMP JUMPDEST PUSH32 0x596F752068617665206E6F74206265656E20696E766974656420627920626F74 PUSH0 DUP3 ADD MSTORE PUSH32 0x682073706F757365730000000000000000000000000000000000000000000000 PUSH1 0x20 DUP3 ADD MSTORE POP JUMP JUMPDEST PUSH0 PUSH2 0x35B5 PUSH1 0x29 DUP4 PUSH2 0x2B6F JUMP JUMPDEST SWAP2 POP PUSH2 0x35C0 DUP3 PUSH2 0x355B JUMP JUMPDEST PUSH1 0x40 DUP3 ADD SWAP1 POP SWAP2 SWAP1 POP JUMP JUMPDEST PUSH0 PUSH1 0x20 DUP3 ADD SWAP1 POP DUP2 DUP2 SUB PUSH0 DUP4 ADD MSTORE PUSH2 0x35E2 DUP2 PUSH2 0x35A9 JUMP JUMPDEST SWAP1 POP SWAP2 SWAP1 POP JUMP JUMPDEST PUSH32 0x47756573742068617320616C726561647920766F746564000000000000000000 PUSH0 DUP3 ADD MSTORE POP JUMP JUMPDEST PUSH0 PUSH2 0x361D PUSH1 0x17 DUP4 PUSH2 0x2B6F JUMP JUMPDEST SWAP2 POP PUSH2 0x3628 DUP3 PUSH2 0x35E9 JUMP JUMPDEST PUSH1 0x20 DUP3 ADD SWAP1 POP SWAP2 SWAP1 POP JUMP JUMPDEST PUSH0 PUSH1 0x20 DUP3 ADD SWAP1 POP DUP2 DUP2 SUB PUSH0 DUP4 ADD MSTORE PUSH2 0x364A DUP2 PUSH2 0x3611 JUMP JUMPDEST SWAP1 POP SWAP2 SWAP1 POP JUMP JUMPDEST PUSH32 0x43616E27742073746F702061206D61727269616765207468617420646F657320 PUSH0 DUP3 ADD MSTORE PUSH32 0x6E6F742065786973740000000000000000000000000000000000000000000000 PUSH1 0x20 DUP3 ADD MSTORE POP JUMP JUMPDEST PUSH0 PUSH2 0x36AB PUSH1 0x29 DUP4 PUSH2 0x2B6F JUMP JUMPDEST SWAP2 POP PUSH2 0x36B6 DUP3 PUSH2 0x3651 JUMP JUMPDEST PUSH1 0x40 DUP3 ADD SWAP1 POP SWAP2 SWAP1 POP JUMP JUMPDEST PUSH0 PUSH1 0x20 DUP3 ADD SWAP1 POP DUP2 DUP2 SUB PUSH0 DUP4 ADD MSTORE PUSH2 0x36D8 DUP2 PUSH2 0x369F JUMP JUMPDEST SWAP1 POP SWAP2 SWAP1 POP JUMP JUMPDEST PUSH32 0x537065616B206F6E207468652077656464696E6720646179206F7220666F7265 PUSH0 DUP3 ADD MSTORE PUSH32 0x76657220686F6C6420796F757220706561636500000000000000000000000000 PUSH1 0x20 DUP3 ADD MSTORE POP JUMP JUMPDEST PUSH0 PUSH2 0x3739 PUSH1 0x33 DUP4 PUSH2 0x2B6F JUMP JUMPDEST SWAP2 POP PUSH2 0x3744 DUP3 PUSH2 0x36DF JUMP JUMPDEST PUSH1 0x40 DUP3 ADD SWAP1 POP SWAP2 SWAP1 POP JUMP JUMPDEST PUSH0 PUSH1 0x20 DUP3 ADD SWAP1 POP DUP2 DUP2 SUB PUSH0 DUP4 ADD MSTORE PUSH2 0x3766 DUP2 PUSH2 0x372D JUMP JUMPDEST SWAP1 POP SWAP2 SWAP1 POP JUMP JUMPDEST PUSH0 PUSH2 0x3777 DUP3 PUSH2 0x27A1 JUMP JUMPDEST SWAP2 POP PUSH2 0x3782 DUP4 PUSH2 0x27A1 JUMP JUMPDEST SWAP3 POP DUP3 PUSH2 0x3792 JUMPI PUSH2 0x3791 PUSH2 0x2AA9 JUMP JUMPDEST JUMPDEST DUP3 DUP3 DIV SWAP1 POP SWAP3 SWAP2 POP POP JUMP JUMPDEST PUSH32 0x4F6E6C792073706F757365322063616E206163636570742073706F7573653127 PUSH0 DUP3 ADD MSTORE PUSH32 0x732070726F706F73616C00000000000000000000000000000000000000000000 PUSH1 0x20 DUP3 ADD MSTORE POP JUMP JUMPDEST PUSH0 PUSH2 0x37F7 PUSH1 0x2A DUP4 PUSH2 0x2B6F JUMP JUMPDEST SWAP2 POP PUSH2 0x3802 DUP3 PUSH2 0x379D JUMP JUMPDEST PUSH1 0x40 DUP3 ADD SWAP1 POP SWAP2 SWAP1 POP JUMP JUMPDEST PUSH0 PUSH1 0x20 DUP3 ADD SWAP1 POP DUP2 DUP2 SUB PUSH0 DUP4 ADD MSTORE PUSH2 0x3824 DUP2 PUSH2 0x37EB JUMP JUMPDEST SWAP1 POP SWAP2 SWAP1 POP JUMP JUMPDEST PUSH32 0x4F6E6C792073706F757365312063616E206163636570742073706F7573653227 PUSH0 DUP3 ADD MSTORE PUSH32 0x732070726F706F73616C00000000000000000000000000000000000000000000 PUSH1 0x20 DUP3 ADD MSTORE POP JUMP JUMPDEST PUSH0 PUSH2 0x3885 PUSH1 0x2A DUP4 PUSH2 0x2B6F JUMP JUMPDEST SWAP2 POP PUSH2 0x3890 DUP3 PUSH2 0x382B JUMP JUMPDEST PUSH1 0x40 DUP3 ADD SWAP1 POP SWAP2 SWAP1 POP JUMP JUMPDEST PUSH0 PUSH1 0x20 DUP3 ADD SWAP1 POP DUP2 DUP2 SUB PUSH0 DUP4 ADD MSTORE PUSH2 0x38B2 DUP2 PUSH2 0x3879 JUMP JUMPDEST SWAP1 POP SWAP2 SWAP1 POP JUMP JUMPDEST PUSH32 0x596F75206D75737420626520656E676167656420746F20736179204920646F00 PUSH0 DUP3 ADD MSTORE POP JUMP JUMPDEST PUSH0 PUSH2 0x38ED PUSH1 0x1F DUP4 PUSH2 0x2B6F JUMP JUMPDEST SWAP2 POP PUSH2 0x38F8 DUP3 PUSH2 0x38B9 JUMP JUMPDEST PUSH1 0x20 DUP3 ADD SWAP1 POP SWAP2 SWAP1 POP JUMP JUMPDEST PUSH0 PUSH1 0x20 DUP3 ADD SWAP1 POP DUP2 DUP2 SUB PUSH0 DUP4 ADD MSTORE PUSH2 0x391A DUP2 PUSH2 0x38E1 JUMP JUMPDEST SWAP1 POP SWAP2 SWAP1 POP JUMP JUMPDEST PUSH32 0x43616E6E6F7420736179204920646F206265666F726520746865207765646469 PUSH0 DUP3 ADD MSTORE PUSH32 0x6E67206461790000000000000000000000000000000000000000000000000000 PUSH1 0x20 DUP3 ADD MSTORE POP JUMP JUMPDEST PUSH0 PUSH2 0x397B PUSH1 0x26 DUP4 PUSH2 0x2B6F JUMP JUMPDEST SWAP2 POP PUSH2 0x3986 DUP3 PUSH2 0x3921 JUMP JUMPDEST PUSH1 0x40 DUP3 ADD SWAP1 POP SWAP2 SWAP1 POP JUMP JUMPDEST PUSH0 PUSH1 0x20 DUP3 ADD SWAP1 POP DUP2 DUP2 SUB PUSH0 DUP4 ADD MSTORE PUSH2 0x39A8 DUP2 PUSH2 0x396F JUMP JUMPDEST SWAP1 POP SWAP2 SWAP1 POP JUMP JUMPDEST PUSH0 PUSH2 0x39B9 DUP3 PUSH2 0x25AA JUMP JUMPDEST SWAP2 POP PUSH2 0x39C4 DUP4 PUSH2 0x25AA JUMP JUMPDEST SWAP3 POP DUP3 DUP3 ADD SWAP1 POP PUSH4 0xFFFFFFFF DUP2 GT ISZERO PUSH2 0x39E0 JUMPI PUSH2 0x39DF PUSH2 0x2AD6 JUMP JUMPDEST JUMPDEST SWAP3 SWAP2 POP POP JUMP JUMPDEST PUSH32 0x696E76616C6964207374617465207472616E736974696F6E0000000000000000 PUSH0 DUP3 ADD MSTORE POP JUMP JUMPDEST PUSH0 PUSH2 0x3A1A PUSH1 0x18 DUP4 PUSH2 0x2B6F JUMP JUMPDEST SWAP2 POP PUSH2 0x3A25 DUP3 PUSH2 0x39E6 JUMP JUMPDEST PUSH1 0x20 DUP3 ADD SWAP1 POP SWAP2 SWAP1 POP JUMP JUMPDEST PUSH0 PUSH1 0x20 DUP3 ADD SWAP1 POP DUP2 DUP2 SUB PUSH0 DUP4 ADD MSTORE PUSH2 0x3A47 DUP2 PUSH2 0x3A0E JUMP JUMPDEST SWAP1 POP SWAP2 SWAP1 POP JUMP INVALID LOG2 PUSH5 0x6970667358 0x22 SLT KECCAK256 0x49 0xDB 0xE1 BYTE 0x4E PUSH27 0xEE9B2BAB188F5311B266C0549F3D343D9040686693B5FD4417E064 PUSH20 0x6F6C634300081400330000000000000000000000 "
		},
		"gasEstimates": {
			"creation": {
				"codeDepositCost": "2996000",
				"executionCost": "76257",
				"totalCost": "3072257"
			},
			"external": {
				"acceptProposal()": "41282",
				"againstVotes()": "2554",
				"confirmParticipations()": "infinite",
				"confirmedParticipations(address)": "2855",
				"counterProposal(uint32)": "infinite",
				"currentState()": "2695",
				"getDateFromTimestamp(uint32)": "infinite",
				"guestVotes(address)": "infinite",
				"marriageRegistry()": "infinite",
				"marriegeLicense()": "infinite",
				"marry()": "45718",
				"participations(uint256)": "4967",
				"propose(address,uint32)": "infinite",
				"proposeParticipations(address[])": "infinite",
				"revokeEngagement()": "36916",
				"sayIDo()": "infinite",
				"spouse1()": "2637",
				"spouse2()": "2619",
				"spouseProposed(address)": "2901",
				"spouseSaidIDo(address)": "2943",
				"voteAgainstWedding()": "infinite",
				"votingDeadline()": "2490",
				"weddingDate()": "2650"
			},
			"internal": {
				"InvalidateWedding()": "infinite",
				"isWeddingDay()": "infinite",
				"validAddress(address)": "48"
			}
		},
		"methodIdentifiers": {
			"acceptProposal()": "af3b19e5",
			"againstVotes()": "d6b225be",
			"confirmParticipations()": "391f37cc",
			"confirmedParticipations(address)": "a17cf962",
			"counterProposal(uint32)": "804cf062",
			"currentState()": "0c3f6acf",
			"getDateFromTimestamp(uint32)": "0461c19b",
			"guestVotes(address)": "181b3fdb",
			"marriageRegistry()": "595e8651",
			"marriegeLicense()": "91c37fc1",
			"marry()": "85b9a11f",
			"participations(uint256)": "2a6247e5",
			"propose(address,uint32)": "49705bbb",
			"proposeParticipations(address[])": "4f867559",
			"revokeEngagement()": "6d955eb5",
			"sayIDo()": "be04c2d0",
			"spouse1()": "fb6a90f8",
			"spouse2()": "53605f48",
			"spouseProposed(address)": "0757eda6",
			"spouseSaidIDo(address)": "df5d5f37",
			"voteAgainstWedding()": "88f2370d",
			"votingDeadline()": "036ee850",
			"weddingDate()": "91f8bb6c"
		}
	},
	"abi": [
		{
			"inputs": [],
			"stateMutability": "nonpayable",
			"type": "constructor"
		},
		{
			"anonymous": false,
			"inputs": [
				{
					"indexed": true,
					"internalType": "address",
					"name": "spouse1",
					"type": "address"
				},
				{
					"indexed": true,
					"internalType": "address",
					"name": "spouse2",
					"type": "address"
				}
			],
			"name": "Engaged",
			"type": "event"
		},
		{
			"anonymous": false,
			"inputs": [
				{
					"indexed": true,
					"internalType": "address",
					"name": "spouse1",
					"type": "address"
				},
				{
					"indexed": true,
					"internalType": "address",
					"name": "spouse2",
					"type": "address"
				}
			],
			"name": "EngagementRevoked",
			"type": "event"
		},
		{
			"anonymous": false,
			"inputs": [
				{
					"indexed": true,
					"internalType": "address",
					"name": "spouse1",
					"type": "address"
				},
				{
					"indexed": true,
					"internalType": "address",
					"name": "spouse2",
					"type": "address"
				}
			],
			"name": "Married",
			"type": "event"
		},
		{
			"anonymous": false,
			"inputs": [
				{
					"indexed": false,
					"internalType": "address[]",
					"name": "participants",
					"type": "address[]"
				}
			],
			"name": "ParticipationsInvited",
			"type": "event"
		},
		{
			"anonymous": false,
			"inputs": [
				{
					"indexed": false,
					"internalType": "address[]",
					"name": "participants",
					"type": "address[]"
				}
			],
			"name": "ParticipationsProposed",
			"type": "event"
		},
		{
			"anonymous": false,
			"inputs": [
				{
					"indexed": true,
					"internalType": "uint256",
					"name": "engagementId",
					"type": "uint256"
				},
				{
					"indexed": true,
					"internalType": "address",
					"name": "spouse1",
					"type": "address"
				},
				{
					"indexed": true,
					"internalType": "address",
					"name": "spouse2",
					"type": "address"
				},
				{
					"indexed": false,
					"internalType": "string",
					"name": "ipfsHash",
					"type": "string"
				}
			],
			"name": "WeddingCertificateIssued",
			"type": "event"
		},
		{
			"anonymous": false,
			"inputs": [
				{
					"indexed": true,
					"internalType": "address",
					"name": "spouse1",
					"type": "address"
				},
				{
					"indexed": true,
					"internalType": "address",
					"name": "spouse2",
					"type": "address"
				}
			],
			"name": "WeddingCompleted",
			"type": "event"
		},
		{
			"anonymous": false,
			"inputs": [
				{
					"indexed": true,
					"internalType": "address",
					"name": "spouse1",
					"type": "address"
				},
				{
					"indexed": true,
					"internalType": "address",
					"name": "spouse2",
					"type": "address"
				}
			],
			"name": "WeddingInvalid",
			"type": "event"
		},
		{
			"anonymous": false,
			"inputs": [
				{
					"indexed": true,
					"internalType": "address",
					"name": "spouse1",
					"type": "address"
				},
				{
					"indexed": true,
					"internalType": "address",
					"name": "spouse2",
					"type": "address"
				}
			],
			"name": "proposalInitiated",
			"type": "event"
		},
		{
			"inputs": [],
			"name": "acceptProposal",
			"outputs": [],
			"stateMutability": "nonpayable",
			"type": "function"
		},
		{
			"inputs": [],
			"name": "againstVotes",
			"outputs": [
				{
					"internalType": "uint16",
					"name": "",
					"type": "uint16"
				}
			],
			"stateMutability": "view",
			"type": "function"
		},
		{
			"inputs": [],
			"name": "confirmParticipations",
			"outputs": [],
			"stateMutability": "nonpayable",
			"type": "function"
		},
		{
			"inputs": [
				{
					"internalType": "address",
					"name": "",
					"type": "address"
				}
			],
			"name": "confirmedParticipations",
			"outputs": [
				{
					"internalType": "bool",
					"name": "",
					"type": "bool"
				}
			],
			"stateMutability": "view",
			"type": "function"
		},
		{
			"inputs": [
				{
					"internalType": "uint32",
					"name": "_weddingDate",
					"type": "uint32"
				}
			],
			"name": "counterProposal",
			"outputs": [],
			"stateMutability": "nonpayable",
			"type": "function"
		},
		{
			"inputs": [],
			"name": "currentState",
			"outputs": [
				{
					"internalType": "enum MarriageContract.State",
					"name": "",
					"type": "uint8"
				}
			],
			"stateMutability": "view",
			"type": "function"
		},
		{
			"inputs": [
				{
					"internalType": "uint32",
					"name": "timestamp",
					"type": "uint32"
				}
			],
			"name": "getDateFromTimestamp",
			"outputs": [
				{
					"internalType": "uint32",
					"name": "",
					"type": "uint32"
				}
			],
			"stateMutability": "pure",
			"type": "function"
		},
		{
			"inputs": [
				{
					"internalType": "address",
					"name": "",
					"type": "address"
				}
			],
			"name": "guestVotes",
			"outputs": [
				{
					"internalType": "bool",
					"name": "hasVoted",
					"type": "bool"
				},
				{
					"internalType": "bool",
					"name": "voteAgainst",
					"type": "bool"
				}
			],
			"stateMutability": "view",
			"type": "function"
		},
		{
			"inputs": [],
			"name": "marriageRegistry",
			"outputs": [
				{
					"internalType": "contract MarriageRegistry",
					"name": "",
					"type": "address"
				}
			],
			"stateMutability": "view",
			"type": "function"
		},
		{
			"inputs": [],
			"name": "marriegeLicense",
			"outputs": [
				{
					"internalType": "contract MarriageLicense",
					"name": "",
					"type": "address"
				}
			],
			"stateMutability": "view",
			"type": "function"
		},
		{
			"inputs": [],
			"name": "marry",
			"outputs": [],
			"stateMutability": "nonpayable",
			"type": "function"
		},
		{
			"inputs": [
				{
					"internalType": "uint256",
					"name": "",
					"type": "uint256"
				}
			],
			"name": "participations",
			"outputs": [
				{
					"internalType": "address",
					"name": "",
					"type": "address"
				}
			],
			"stateMutability": "view",
			"type": "function"
		},
		{
			"inputs": [
				{
					"internalType": "address",
					"name": "_spouse2",
					"type": "address"
				},
				{
					"internalType": "uint32",
					"name": "_weddingDate",
					"type": "uint32"
				}
			],
			"name": "propose",
			"outputs": [],
			"stateMutability": "nonpayable",
			"type": "function"
		},
		{
			"inputs": [
				{
					"internalType": "address[]",
					"name": "_guests",
					"type": "address[]"
				}
			],
			"name": "proposeParticipations",
			"outputs": [],
			"stateMutability": "nonpayable",
			"type": "function"
		},
		{
			"inputs": [],
			"name": "revokeEngagement",
			"outputs": [],
			"stateMutability": "nonpayable",
			"type": "function"
		},
		{
			"inputs": [],
			"name": "sayIDo",
			"outputs": [],
			"stateMutability": "nonpayable",
			"type": "function"
		},
		{
			"inputs": [],
			"name": "spouse1",
			"outputs": [
				{
					"internalType": "address",
					"name": "",
					"type": "address"
				}
			],
			"stateMutability": "view",
			"type": "function"
		},
		{
			"inputs": [],
			"name": "spouse2",
			"outputs": [
				{
					"internalType": "address",
					"name": "",
					"type": "address"
				}
			],
			"stateMutability": "view",
			"type": "function"
		},
		{
			"inputs": [
				{
					"internalType": "address",
					"name": "",
					"type": "address"
				}
			],
			"name": "spouseProposed",
			"outputs": [
				{
					"internalType": "bool",
					"name": "",
					"type": "bool"
				}
			],
			"stateMutability": "view",
			"type": "function"
		},
		{
			"inputs": [
				{
					"internalType": "address",
					"name": "",
					"type": "address"
				}
			],
			"name": "spouseSaidIDo",
			"outputs": [
				{
					"internalType": "bool",
					"name": "",
					"type": "bool"
				}
			],
			"stateMutability": "view",
			"type": "function"
		},
		{
			"inputs": [],
			"name": "voteAgainstWedding",
			"outputs": [],
			"stateMutability": "nonpayable",
			"type": "function"
		},
		{
			"inputs": [],
			"name": "votingDeadline",
			"outputs": [
				{
					"internalType": "uint16",
					"name": "",
					"type": "uint16"
				}
			],
			"stateMutability": "view",
			"type": "function"
		},
		{
			"inputs": [],
			"name": "weddingDate",
			"outputs": [
				{
					"internalType": "uint32",
					"name": "",
					"type": "uint32"
				}
			],
			"stateMutability": "view",
			"type": "function"
		}
	]
}